{
  "contractName": "User",
  "abi": [
    {
      "inputs": [],
      "stateMutability": "nonpayable",
      "type": "constructor"
    },
    {
      "inputs": [],
      "name": "getCurrentRector",
      "outputs": [
        {
          "components": [
            {
              "internalType": "string",
              "name": "name",
              "type": "string"
            },
            {
              "internalType": "string",
              "name": "date",
              "type": "string"
            },
            {
              "internalType": "string",
              "name": "phone",
              "type": "string"
            },
            {
              "internalType": "string",
              "name": "term",
              "type": "string"
            }
          ],
          "internalType": "struct User.rector",
          "name": "",
          "type": "tuple"
        }
      ],
      "stateMutability": "view",
      "type": "function",
      "constant": true
    },
    {
      "inputs": [
        {
          "internalType": "address",
          "name": "_newRectorAddr",
          "type": "address"
        },
        {
          "internalType": "string",
          "name": "_name",
          "type": "string"
        },
        {
          "internalType": "string",
          "name": "_date",
          "type": "string"
        },
        {
          "internalType": "string",
          "name": "_phone",
          "type": "string"
        },
        {
          "internalType": "string",
          "name": "_term",
          "type": "string"
        }
      ],
      "name": "createNewRector",
      "outputs": [],
      "stateMutability": "nonpayable",
      "type": "function"
    },
    {
      "inputs": [
        {
          "internalType": "string",
          "name": "_name",
          "type": "string"
        },
        {
          "internalType": "string",
          "name": "_date",
          "type": "string"
        },
        {
          "internalType": "string",
          "name": "_phone",
          "type": "string"
        },
        {
          "internalType": "string",
          "name": "_term",
          "type": "string"
        }
      ],
      "name": "updateCurrentRector",
      "outputs": [],
      "stateMutability": "nonpayable",
      "type": "function"
    },
    {
      "inputs": [],
      "name": "getAADepartmentAcc",
      "outputs": [
        {
          "components": [
            {
              "internalType": "string",
              "name": "realAddress",
              "type": "string"
            },
            {
              "internalType": "string",
              "name": "description",
              "type": "string"
            }
          ],
          "internalType": "struct User.AADepartment",
          "name": "",
          "type": "tuple"
        }
      ],
      "stateMutability": "view",
      "type": "function",
      "constant": true
    },
    {
      "inputs": [
        {
          "internalType": "address",
          "name": "_address",
          "type": "address"
        },
        {
          "internalType": "string",
          "name": "_name",
          "type": "string"
        },
        {
          "internalType": "string",
          "name": "_date",
          "type": "string"
        },
        {
          "internalType": "string",
          "name": "_phone",
          "type": "string"
        }
      ],
      "name": "createAADepartmentUser",
      "outputs": [],
      "stateMutability": "nonpayable",
      "type": "function"
    },
    {
      "inputs": [
        {
          "internalType": "string",
          "name": "_name",
          "type": "string"
        },
        {
          "internalType": "string",
          "name": "_date",
          "type": "string"
        },
        {
          "internalType": "string",
          "name": "_phone",
          "type": "string"
        }
      ],
      "name": "updateAADepartmentUser",
      "outputs": [],
      "stateMutability": "nonpayable",
      "type": "function"
    },
    {
      "inputs": [
        {
          "internalType": "address",
          "name": "_address",
          "type": "address"
        }
      ],
      "name": "deactiveAADepartmentUser",
      "outputs": [],
      "stateMutability": "nonpayable",
      "type": "function"
    },
    {
      "inputs": [
        {
          "internalType": "address",
          "name": "_userAddress",
          "type": "address"
        }
      ],
      "name": "getAADepartmentUser",
      "outputs": [
        {
          "components": [
            {
              "internalType": "string",
              "name": "name",
              "type": "string"
            },
            {
              "internalType": "string",
              "name": "date",
              "type": "string"
            },
            {
              "internalType": "string",
              "name": "phone",
              "type": "string"
            },
            {
              "internalType": "bool",
              "name": "isActive",
              "type": "bool"
            }
          ],
          "internalType": "struct User.AADUser",
          "name": "",
          "type": "tuple"
        }
      ],
      "stateMutability": "view",
      "type": "function",
      "constant": true
    },
    {
      "inputs": [
        {
          "internalType": "string",
          "name": "_studentId",
          "type": "string"
        },
        {
          "internalType": "string",
          "name": "_name",
          "type": "string"
        },
        {
          "internalType": "string",
          "name": "_email",
          "type": "string"
        },
        {
          "internalType": "string",
          "name": "_phone",
          "type": "string"
        },
        {
          "internalType": "string",
          "name": "_class",
          "type": "string"
        },
        {
          "internalType": "string",
          "name": "_major",
          "type": "string"
        },
        {
          "internalType": "string",
          "name": "_cpa",
          "type": "string"
        },
        {
          "internalType": "bool",
          "name": "_qualifiedForGraduation",
          "type": "bool"
        }
      ],
      "name": "createStudent",
      "outputs": [],
      "stateMutability": "nonpayable",
      "type": "function"
    },
    {
      "inputs": [
        {
          "internalType": "string",
          "name": "_studentId",
          "type": "string"
        },
        {
          "internalType": "uint256",
          "name": "_nonce",
          "type": "uint256"
        }
      ],
      "name": "activeStudent",
      "outputs": [],
      "stateMutability": "nonpayable",
      "type": "function"
    },
    {
      "inputs": [],
      "name": "gettAllStudent",
      "outputs": [
        {
          "components": [
            {
              "internalType": "address",
              "name": "account",
              "type": "address"
            },
            {
              "internalType": "string",
              "name": "studentId",
              "type": "string"
            },
            {
              "internalType": "string",
              "name": "name",
              "type": "string"
            },
            {
              "internalType": "string",
              "name": "email",
              "type": "string"
            },
            {
              "internalType": "string",
              "name": "phone",
              "type": "string"
            },
            {
              "internalType": "string",
              "name": "class",
              "type": "string"
            },
            {
              "internalType": "string",
              "name": "major",
              "type": "string"
            },
            {
              "internalType": "string",
              "name": "cpa",
              "type": "string"
            },
            {
              "internalType": "bool",
              "name": "qualifiedForGraduation",
              "type": "bool"
            },
            {
              "internalType": "bool",
              "name": "isActive",
              "type": "bool"
            },
            {
              "internalType": "uint256",
              "name": "nonce",
              "type": "uint256"
            }
          ],
          "internalType": "struct User.student[]",
          "name": "",
          "type": "tuple[]"
        }
      ],
      "stateMutability": "view",
      "type": "function",
      "constant": true
    },
    {
      "inputs": [
        {
          "internalType": "string",
          "name": "_studentId",
          "type": "string"
        }
      ],
      "name": "getStudentById",
      "outputs": [
        {
          "components": [
            {
              "internalType": "address",
              "name": "account",
              "type": "address"
            },
            {
              "internalType": "string",
              "name": "studentId",
              "type": "string"
            },
            {
              "internalType": "string",
              "name": "name",
              "type": "string"
            },
            {
              "internalType": "string",
              "name": "email",
              "type": "string"
            },
            {
              "internalType": "string",
              "name": "phone",
              "type": "string"
            },
            {
              "internalType": "string",
              "name": "class",
              "type": "string"
            },
            {
              "internalType": "string",
              "name": "major",
              "type": "string"
            },
            {
              "internalType": "string",
              "name": "cpa",
              "type": "string"
            },
            {
              "internalType": "bool",
              "name": "qualifiedForGraduation",
              "type": "bool"
            },
            {
              "internalType": "bool",
              "name": "isActive",
              "type": "bool"
            },
            {
              "internalType": "uint256",
              "name": "nonce",
              "type": "uint256"
            }
          ],
          "internalType": "struct User.student",
          "name": "",
          "type": "tuple"
        }
      ],
      "stateMutability": "view",
      "type": "function",
      "constant": true
    },
    {
      "inputs": [
        {
          "internalType": "address",
          "name": "_studentAddr",
          "type": "address"
        }
      ],
      "name": "getStudentByAddr",
      "outputs": [
        {
          "components": [
            {
              "internalType": "address",
              "name": "account",
              "type": "address"
            },
            {
              "internalType": "string",
              "name": "studentId",
              "type": "string"
            },
            {
              "internalType": "string",
              "name": "name",
              "type": "string"
            },
            {
              "internalType": "string",
              "name": "email",
              "type": "string"
            },
            {
              "internalType": "string",
              "name": "phone",
              "type": "string"
            },
            {
              "internalType": "string",
              "name": "class",
              "type": "string"
            },
            {
              "internalType": "string",
              "name": "major",
              "type": "string"
            },
            {
              "internalType": "string",
              "name": "cpa",
              "type": "string"
            },
            {
              "internalType": "bool",
              "name": "qualifiedForGraduation",
              "type": "bool"
            },
            {
              "internalType": "bool",
              "name": "isActive",
              "type": "bool"
            },
            {
              "internalType": "uint256",
              "name": "nonce",
              "type": "uint256"
            }
          ],
          "internalType": "struct User.student",
          "name": "",
          "type": "tuple"
        }
      ],
      "stateMutability": "view",
      "type": "function",
      "constant": true
    },
    {
      "inputs": [
        {
          "internalType": "string",
          "name": "_studentId",
          "type": "string"
        }
      ],
      "name": "getStudentNonce",
      "outputs": [
        {
          "internalType": "uint256",
          "name": "",
          "type": "uint256"
        }
      ],
      "stateMutability": "view",
      "type": "function",
      "constant": true
    },
    {
      "inputs": [
        {
          "internalType": "address",
          "name": "_address",
          "type": "address"
        },
        {
          "internalType": "string",
          "name": "_studentId",
          "type": "string"
        },
        {
          "internalType": "string",
          "name": "_name",
          "type": "string"
        },
        {
          "internalType": "string",
          "name": "_email",
          "type": "string"
        },
        {
          "internalType": "string",
          "name": "_phone",
          "type": "string"
        },
        {
          "internalType": "string",
          "name": "_class",
          "type": "string"
        },
        {
          "internalType": "string",
          "name": "_major",
          "type": "string"
        },
        {
          "internalType": "string",
          "name": "_cpa",
          "type": "string"
        },
        {
          "internalType": "bool",
          "name": "_qualifiedForGraduation",
          "type": "bool"
        }
      ],
      "name": "updateStudentbyAAD",
      "outputs": [],
      "stateMutability": "nonpayable",
      "type": "function"
    },
    {
      "inputs": [
        {
          "internalType": "string",
          "name": "_email",
          "type": "string"
        },
        {
          "internalType": "string",
          "name": "_phone",
          "type": "string"
        }
      ],
      "name": "updateStudentInfo",
      "outputs": [],
      "stateMutability": "nonpayable",
      "type": "function"
    },
    {
      "inputs": [
        {
          "internalType": "string",
          "name": "_name",
          "type": "string"
        },
        {
          "internalType": "string",
          "name": "_description",
          "type": "string"
        },
        {
          "internalType": "string",
          "name": "_jobInfo",
          "type": "string"
        }
      ],
      "name": "createCompany",
      "outputs": [],
      "stateMutability": "nonpayable",
      "type": "function"
    },
    {
      "inputs": [
        {
          "internalType": "address",
          "name": "_companyAddr",
          "type": "address"
        }
      ],
      "name": "approveCompany",
      "outputs": [],
      "stateMutability": "nonpayable",
      "type": "function"
    },
    {
      "inputs": [
        {
          "internalType": "string",
          "name": "_name",
          "type": "string"
        },
        {
          "internalType": "string",
          "name": "_description",
          "type": "string"
        },
        {
          "internalType": "string",
          "name": "_jobInfo",
          "type": "string"
        }
      ],
      "name": "updateCompany",
      "outputs": [],
      "stateMutability": "nonpayable",
      "type": "function"
    },
    {
      "inputs": [
        {
          "internalType": "address",
          "name": "_companyAddr",
          "type": "address"
        }
      ],
      "name": "getCompany",
      "outputs": [
        {
          "components": [
            {
              "internalType": "string",
              "name": "name",
              "type": "string"
            },
            {
              "internalType": "string",
              "name": "description",
              "type": "string"
            },
            {
              "internalType": "string",
              "name": "jobInfo",
              "type": "string"
            },
            {
              "internalType": "bool",
              "name": "isActive",
              "type": "bool"
            }
          ],
          "internalType": "struct User.company",
          "name": "",
          "type": "tuple"
        }
      ],
      "stateMutability": "view",
      "type": "function",
      "constant": true
    },
    {
      "inputs": [],
      "name": "getAllCompany",
      "outputs": [
        {
          "components": [
            {
              "internalType": "string",
              "name": "name",
              "type": "string"
            },
            {
              "internalType": "string",
              "name": "description",
              "type": "string"
            },
            {
              "internalType": "string",
              "name": "jobInfo",
              "type": "string"
            },
            {
              "internalType": "bool",
              "name": "isActive",
              "type": "bool"
            }
          ],
          "internalType": "struct User.company[]",
          "name": "",
          "type": "tuple[]"
        }
      ],
      "stateMutability": "view",
      "type": "function",
      "constant": true
    }
  ],
  "bytecode": "0x60806040523480156200001157600080fd5b506200001c62000036565b620000266200022e565b62000030620003de565b620005a9565b604080516080810182526001818301908152600360fc1b60608301528152815180830190925260068252653932b1ba37b960d11b6020808401919091528082019290925280518051919260009262000092928492019062000442565b506020828101518051620000ad926001850192019062000442565b5050604080516080810182526001818301908152603160f81b606083015281528151808301909252600c82526b105051195c185c9d1b595b9d60a21b6020808401919091528082019290925280518051919350600292620001149284929091019062000442565b5060208281015180516200012f926001850192019062000442565b5050604080516080810182526001818301908152601960f91b60608301528152815180830190925260078252661cdd1d59195b9d60ca1b6020808401919091528082019290925280518051919350600492620001919284929091019062000442565b506020828101518051620001ac926001850192019062000442565b5050604080516080810182526001818301908152603360f81b6060830152815281518083019092526007825266636f6d70616e7960c81b60208084019190915280820192909252805180519193506006926200020e9284929091019062000442565b50602082810151805162000229926001850192019062000442565b505050565b6200025a6040518060800160405280606081526020016060815260200160608152602001606081525090565b604080518082018252601581527f504753205453204e677579656e205669657420486100000000000000000000006020808301919091529083528151808301835260048152630c4e4dcd60e21b818301528382015281518083018352600a80825269181c9c1c989a99191a9960b11b8284015284840191909152825180840184526009815268199c9bdb480c8c0c4d60ba1b818401526060850152336000908152908252919091208251805184936200031892849291019062000442565b50602082810151805162000333926001850192019062000442565b50604082015180516200035191600284019160209091019062000442565b50606082015180516200036f91600384019160209091019062000442565b50503360009081526008602052604081208154919250908190839062000395906200056c565b620003a2929190620004d1565b506001820181600101908054620003b9906200056c565b620003c6929190620004d1565b5050600980546001600160a01b031916331790555050565b60405180606001604052806024815260200162003c5f6024913980516200040e91600b9160209091019062000442565b5060405180608001604052806060815260200162003c836060913980516200043f91600c9160209091019062000442565b50565b82805462000450906200056c565b90600052602060002090601f016020900481019282620004745760008555620004bf565b82601f106200048f57805160ff1916838001178555620004bf565b82800160010185558215620004bf579182015b82811115620004bf578251825591602001919060010190620004a2565b50620004cd92915062000555565b5090565b828054620004df906200056c565b90600052602060002090601f016020900481019282620005035760008555620004bf565b82601f10620005165780548555620004bf565b82800160010185558215620004bf57600052602060002091601f016020900482015b82811115620004bf57825482559160010191906001019062000538565b5b80821115620004cd576000815560010162000556565b600181811c908216806200058157607f821691505b60208210811415620005a357634e487b7160e01b600052602260045260246000fd5b50919050565b6136a680620005b96000396000f3fe608060405234801561001057600080fd5b50600436106101375760003560e01c80637b60626d116100b8578063ba8805f41161007c578063ba8805f414610292578063bd2456c7146102a5578063c23fd5a6146102b8578063c8059747146102cb578063ed7ad826146102e0578063eed879eb146102f357610137565b80637b60626d146102185780637d67d9001461022b5780638f19aed41461024c57806393b3298c1461025f578063b174ba821461027f57610137565b80634b0875e9116100ff5780634b0875e9146101aa5780635c6f2e08146101bd57806362bc56e6146101d05780636b5fe4b6146101f057806375957bc01461020357610137565b806308fc4b3d1461013c5780630d2393fd1461015a578063106e3ea61461016f5780632bd51b66146101845780633cf079f014610197575b600080fd5b610144610306565b60405161015191906134c2565b60405180910390f35b6101626107e3565b6040516101519190613461565b61018261017d366004612ca1565b610a01565b005b610182610192366004612c80565b610bd8565b6101826101a5366004612c80565b610c35565b6101826101b8366004612fc0565b610e52565b6101826101cb366004612fc0565b610eea565b6101e36101de366004612c80565b610f58565b6040516101519190613516565b6101826101fe366004612def565b611176565b61020b611280565b6040516101519190613529565b610182610226366004612fc0565b6113ca565b61023e610239366004612f24565b6115a7565b604051908152602001610151565b61018261025a366004613091565b61160c565b61027261026d366004612c80565b611b4d565b60405161015191906135e0565b61018261028d366004613044565b611fc1565b6101826102a03660046131b5565b612074565b6101e36102b3366004612c80565b61233e565b6101826102c6366004612f5f565b61255a565b6102d36125d6565b604051610151919061356b565b6102726102ee366004612f24565b612874565b610182610301366004612d36565b6128c8565b6009546060906001600160a01b03163314806103395750336000908152600e602052604090206003015460ff1615156001145b61034257600080fd5b600f805480602002602001604051908101604052809291908181526020016000905b828210156107da576000848152602090819020604080516101608101909152600a850290910180546001600160a01b0316825260018101805492939192918401916103ae9061361f565b80601f01602080910402602001604051908101604052809291908181526020018280546103da9061361f565b80156104275780601f106103fc57610100808354040283529160200191610427565b820191906000526020600020905b81548152906001019060200180831161040a57829003601f168201915b505050505081526020016002820180546104409061361f565b80601f016020809104026020016040519081016040528092919081815260200182805461046c9061361f565b80156104b95780601f1061048e576101008083540402835291602001916104b9565b820191906000526020600020905b81548152906001019060200180831161049c57829003601f168201915b505050505081526020016003820180546104d29061361f565b80601f01602080910402602001604051908101604052809291908181526020018280546104fe9061361f565b801561054b5780601f106105205761010080835404028352916020019161054b565b820191906000526020600020905b81548152906001019060200180831161052e57829003601f168201915b505050505081526020016004820180546105649061361f565b80601f01602080910402602001604051908101604052809291908181526020018280546105909061361f565b80156105dd5780601f106105b2576101008083540402835291602001916105dd565b820191906000526020600020905b8154815290600101906020018083116105c057829003601f168201915b505050505081526020016005820180546105f69061361f565b80601f01602080910402602001604051908101604052809291908181526020018280546106229061361f565b801561066f5780601f106106445761010080835404028352916020019161066f565b820191906000526020600020905b81548152906001019060200180831161065257829003601f168201915b505050505081526020016006820180546106889061361f565b80601f01602080910402602001604051908101604052809291908181526020018280546106b49061361f565b80156107015780601f106106d657610100808354040283529160200191610701565b820191906000526020600020905b8154815290600101906020018083116106e457829003601f168201915b5050505050815260200160078201805461071a9061361f565b80601f01602080910402602001604051908101604052809291908181526020018280546107469061361f565b80156107935780601f1061076857610100808354040283529160200191610793565b820191906000526020600020905b81548152906001019060200180831161077657829003601f168201915b5050509183525050600882015460ff808216151560208085019190915261010090920416151560408301526009909201546060909101529082526001929092019101610364565b50505050905090565b60606012805480602002602001604051908101604052809291908181526020016000905b828210156107da578382906000526020600020906004020160405180608001604052908160008201805461083a9061361f565b80601f01602080910402602001604051908101604052809291908181526020018280546108669061361f565b80156108b35780601f10610888576101008083540402835291602001916108b3565b820191906000526020600020905b81548152906001019060200180831161089657829003601f168201915b505050505081526020016001820180546108cc9061361f565b80601f01602080910402602001604051908101604052809291908181526020018280546108f89061361f565b80156109455780601f1061091a57610100808354040283529160200191610945565b820191906000526020600020905b81548152906001019060200180831161092857829003601f168201915b5050505050815260200160028201805461095e9061361f565b80601f016020809104026020016040519081016040528092919081815260200182805461098a9061361f565b80156109d75780601f106109ac576101008083540402835291602001916109d7565b820191906000526020600020905b8154815290600101906020018083116109ba57829003601f168201915b50505091835250506003919091015460ff1615156020918201529082526001929092019101610807565b6009546001600160a01b0316331480610a315750336000908152600e602052604090206003015460ff1615156001145b610a3a57600080fd5b6040805160008082526020808301808552835190206001600160a01b038916835260089091529083902087939192610a7292016133c6565b6040516020818303038152906040528051906020012014610a9257600080fd5b604080516080810182528581526020808201869052918101849052600160608201819052600d80549182018155600052815180519293849360049093027fd7b6990105719101dabeb77144f2a3385c8033acd3af97e9423a695e81ad1eb50192610aff9284920190612a57565b506020828101518051610b189260018501920190612a57565b5060408201518051610b34916002840191602090910190612a57565b50606091909101516003909101805460ff19169115159190911790556001600160a01b0386166000908152600e60209081526040909120825180518493610b7f928492910190612a57565b506020828101518051610b989260018501920190612a57565b5060408201518051610bb4916002840191602090910190612a57565b50606091909101516003909101805460ff1916911515919091179055505050505050565b6009546001600160a01b0316331480610c085750336000908152600e602052604090206003015460ff1615156001145b610c1157600080fd5b6001600160a01b03166000908152600e60205260409020600301805460ff19169055565b336000908152600e6020526040808220815160808101909252805482908290610c5d9061361f565b80601f0160208091040260200160405190810160405280929190818152602001828054610c899061361f565b8015610cd65780601f10610cab57610100808354040283529160200191610cd6565b820191906000526020600020905b815481529060010190602001808311610cb957829003601f168201915b50505050508152602001600182018054610cef9061361f565b80601f0160208091040260200160405190810160405280929190818152602001828054610d1b9061361f565b8015610d685780601f10610d3d57610100808354040283529160200191610d68565b820191906000526020600020905b815481529060010190602001808311610d4b57829003601f168201915b50505050508152602001600282018054610d819061361f565b80601f0160208091040260200160405190810160405280929190818152602001828054610dad9061361f565b8015610dfa5780601f10610dcf57610100808354040283529160200191610dfa565b820191906000526020600020905b815481529060010190602001808311610ddd57829003601f168201915b50505091835250506003919091015460ff16151560209091015260608101519091501515600114610e2a57600080fd5b506001600160a01b03166000908152601360205260409020600301805460ff19166001179055565b336000908152600e602052604090206003015460ff161515600114610e7657600080fd5b336000908152600e602090815260409091208451610e9692860190612a57565b50336000908152600e602090815260409091208351610ebd92600190920191850190612a57565b50336000908152600e602090815260409091208251610ee492600290920191840190612a57565b50505050565b3360009081526013602090815260409091208451610f0a92860190612a57565b503360009081526013602090815260409091208351610f3192600190920191850190612a57565b503360009081526013602090815260409091208251610ee492600290920191840190612a57565b610f8560405180608001604052806060815260200160608152602001606081526020016000151581525090565b6001600160a01b038216600090815260136020526040808220815160808101909252805482908290610fb69061361f565b80601f0160208091040260200160405190810160405280929190818152602001828054610fe29061361f565b801561102f5780601f106110045761010080835404028352916020019161102f565b820191906000526020600020905b81548152906001019060200180831161101257829003601f168201915b505050505081526020016001820180546110489061361f565b80601f01602080910402602001604051908101604052809291908181526020018280546110749061361f565b80156110c15780601f10611096576101008083540402835291602001916110c1565b820191906000526020600020905b8154815290600101906020018083116110a457829003601f168201915b505050505081526020016002820180546110da9061361f565b80601f01602080910402602001604051908101604052809291908181526020018280546111069061361f565b80156111535780601f1061112857610100808354040283529160200191611153565b820191906000526020600020905b81548152906001019060200180831161113657829003601f168201915b50505091835250506003919091015460ff1615156020909101529150505b919050565b6009546001600160a01b03163314806111a65750336000908152600e602052604090206003015460ff1615156001145b6111af57600080fd5b6001600160a01b0389166000908152601060209081526040909120895190916111df9160018401918c0190612a57565b5087516111f590600283019060208b0190612a57565b50865161120b90600383019060208a0190612a57565b5085516112219060048301906020890190612a57565b5084516112379060058301906020880190612a57565b50835161124d9060068301906020870190612a57565b5082516112639060078301906020860190612a57565b50600801805460ff19169115159190911790555050505050505050565b6040805180820190915260608082526020820152600b6040518060400160405290816000820180546112b19061361f565b80601f01602080910402602001604051908101604052809291908181526020018280546112dd9061361f565b801561132a5780601f106112ff5761010080835404028352916020019161132a565b820191906000526020600020905b81548152906001019060200180831161130d57829003601f168201915b505050505081526020016001820180546113439061361f565b80601f016020809104026020016040519081016040528092919081815260200182805461136f9061361f565b80156113bc5780601f10611391576101008083540402835291602001916113bc565b820191906000526020600020905b81548152906001019060200180831161139f57829003601f168201915b505050505081525050905090565b60408051600080825260208083018085528351902033808452600890925291849020909391926113fa92016133c6565b604051602081830303815290604052805190602001201461141a57600080fd5b604080516080810182528581526020808201869052918101849052600060608201819052601280546001810182559152815180519293849360049093027fbb8a6a4669ba250d26cd7a459eca9d215f8307e33aebe50379bc5a3617ec344401926114879284920190612a57565b5060208281015180516114a09260018501920190612a57565b50604082015180516114bc916002840191602090910190612a57565b50606091909101516003909101805460ff19169115159190911790553360009081526013602090815260409091208251805184936114fe928492910190612a57565b5060208281015180516115179260018501920190612a57565b5060408201518051611533916002840191602090910190612a57565b50606091909101516003909101805460ff191691151591909117905533600090815260086020526040902060068054909190819083906115729061361f565b61157d929190612adb565b5060018201816001019080546115929061361f565b61159d929190612adb565b5050505050505050565b6009546000906001600160a01b03163314806115da5750336000908152600e602052604090206003015460ff1615156001145b6115e357600080fd5b6011826040516115f39190613383565b9081526020016040518091039020600901549050919050565b336000908152600e60205260408082208151608081019092528054829082906116349061361f565b80601f01602080910402602001604051908101604052809291908181526020018280546116609061361f565b80156116ad5780601f10611682576101008083540402835291602001916116ad565b820191906000526020600020905b81548152906001019060200180831161169057829003601f168201915b505050505081526020016001820180546116c69061361f565b80601f01602080910402602001604051908101604052809291908181526020018280546116f29061361f565b801561173f5780601f106117145761010080835404028352916020019161173f565b820191906000526020600020905b81548152906001019060200180831161172257829003601f168201915b505050505081526020016002820180546117589061361f565b80601f01602080910402602001604051908101604052809291908181526020018280546117849061361f565b80156117d15780601f106117a6576101008083540402835291602001916117d1565b820191906000526020600020905b8154815290600101906020018083116117b457829003601f168201915b50505091835250506003919091015460ff1615156020909101526060810151909150151560011461180157600080fd5b600060405180610160016040528060006001600160a01b031681526020018b81526020018a815260200189815260200188815260200187815260200186815260200185815260200184151581526020016000151581526020018b424460405160200161186f9392919061339f565b60408051808303601f190181529190528051602091820120909152600f805460018101825560009190915282517f8d1108e10bcb7c27dddfc02ed9d693a074039d026cf4ea4240b40f7d581ac802600a90920291820180546001600160a01b0319166001600160a01b039092169190911781558383015180519495508594919361191e937f8d1108e10bcb7c27dddfc02ed9d693a074039d026cf4ea4240b40f7d581ac8030192910190612a57565b506040820151805161193a916002840191602090910190612a57565b5060608201518051611956916003840191602090910190612a57565b5060808201518051611972916004840191602090910190612a57565b5060a0820151805161198e916005840191602090910190612a57565b5060c082015180516119aa916006840191602090910190612a57565b5060e082015180516119c6916007840191602090910190612a57565b506101008281015160088301805461012086015161ffff1990911692151561ff00191692909217911515909202179055610140909101516009909101556040518190601190611a16908d90613383565b90815260405160209181900382019020825181546001600160a01b0319166001600160a01b039091161781558282015180519192611a5c92600185019290910190612a57565b5060408201518051611a78916002840191602090910190612a57565b5060608201518051611a94916003840191602090910190612a57565b5060808201518051611ab0916004840191602090910190612a57565b5060a08201518051611acc916005840191602090910190612a57565b5060c08201518051611ae8916006840191602090910190612a57565b5060e08201518051611b04916007840191602090910190612a57565b506101008281015160088301805461012086015161ffff1990911692151561ff001916929092179115159092021790556101409091015160099091015550505050505050505050565b611b55612b56565b6001600160a01b0380831660009081526010602090815260408083208151610160810190925280549094168152600184018054939491939192840191611b9a9061361f565b80601f0160208091040260200160405190810160405280929190818152602001828054611bc69061361f565b8015611c135780601f10611be857610100808354040283529160200191611c13565b820191906000526020600020905b815481529060010190602001808311611bf657829003601f168201915b50505050508152602001600282018054611c2c9061361f565b80601f0160208091040260200160405190810160405280929190818152602001828054611c589061361f565b8015611ca55780601f10611c7a57610100808354040283529160200191611ca5565b820191906000526020600020905b815481529060010190602001808311611c8857829003601f168201915b50505050508152602001600382018054611cbe9061361f565b80601f0160208091040260200160405190810160405280929190818152602001828054611cea9061361f565b8015611d375780601f10611d0c57610100808354040283529160200191611d37565b820191906000526020600020905b815481529060010190602001808311611d1a57829003601f168201915b50505050508152602001600482018054611d509061361f565b80601f0160208091040260200160405190810160405280929190818152602001828054611d7c9061361f565b8015611dc95780601f10611d9e57610100808354040283529160200191611dc9565b820191906000526020600020905b815481529060010190602001808311611dac57829003601f168201915b50505050508152602001600582018054611de29061361f565b80601f0160208091040260200160405190810160405280929190818152602001828054611e0e9061361f565b8015611e5b5780601f10611e3057610100808354040283529160200191611e5b565b820191906000526020600020905b815481529060010190602001808311611e3e57829003601f168201915b50505050508152602001600682018054611e749061361f565b80601f0160208091040260200160405190810160405280929190818152602001828054611ea09061361f565b8015611eed5780601f10611ec257610100808354040283529160200191611eed565b820191906000526020600020905b815481529060010190602001808311611ed057829003601f168201915b50505050508152602001600782018054611f069061361f565b80601f0160208091040260200160405190810160405280929190818152602001828054611f329061361f565b8015611f7f5780601f10611f5457610100808354040283529160200191611f7f565b820191906000526020600020905b815481529060010190602001808311611f6257829003601f168201915b5050509183525050600882015460ff80821615156020840152610100909104161515604082015260099091015460609091015260006101408201529392505050565b6009546001600160a01b03163314611fd857600080fd5b336000908152600a602090815260409091208551611ff892870190612a57565b50336000908152600a60209081526040909120845161201f92600190920191860190612a57565b50336000908152600a60209081526040909120835161204692600290920191850190612a57565b50336000908152600a60209081526040909120825161206d92600390920191840190612a57565b5050505050565b60408051600080825260208083018085528351902033808452600890925291849020909391926120a492016133c6565b60405160208183030381529060405280519060200120146120c457600080fd5b6011836040516120d49190613383565b90815260200160405180910390206009015482146120f157600080fd5b336011846040516121029190613383565b90815260405190819003602001812080546001600160a01b03939093166001600160a01b031990931692909217909155600190601190612143908690613383565b90815260405190819003602001812060080180549215156101000261ff00199093169290921790915560119061217a908590613383565b908152604080516020928190038301902033600090815260109093529120815481546001600160a01b039091166001600160a01b031990911617815560018083018054918301916121ca9061361f565b6121d5929190612adb565b5060028201816002019080546121ea9061361f565b6121f5929190612adb565b50600382018160030190805461220a9061361f565b612215929190612adb565b50600482018160040190805461222a9061361f565b612235929190612adb565b50600582018160050190805461224a9061361f565b612255929190612adb565b50600682018160060190805461226a9061361f565b612275929190612adb565b50600782018160070190805461228a9061361f565b612295929190612adb565b5060088281018054838301805460ff19811660ff93841615159081178355935461ffff1990911661ff001990941693909317610100938490049092161515909202179055600992830154929091019190915533600090815260209190915260409020600480549091908190839061230b9061361f565b612316929190612adb565b50600182018160010190805461232b9061361f565b612336929190612adb565b505050505050565b61236b60405180608001604052806060815260200160608152602001606081526020016000151581525090565b6001600160a01b0382166000908152600e60205260409081902081516080810190925280548290829061239d9061361f565b80601f01602080910402602001604051908101604052809291908181526020018280546123c99061361f565b80156124165780601f106123eb57610100808354040283529160200191612416565b820191906000526020600020905b8154815290600101906020018083116123f957829003601f168201915b5050505050815260200160018201805461242f9061361f565b80601f016020809104026020016040519081016040528092919081815260200182805461245b9061361f565b80156124a85780601f1061247d576101008083540402835291602001916124a8565b820191906000526020600020905b81548152906001019060200180831161248b57829003601f168201915b505050505081526020016002820180546124c19061361f565b80601f01602080910402602001604051908101604052809291908181526020018280546124ed9061361f565b801561253a5780601f1061250f5761010080835404028352916020019161253a565b820191906000526020600020905b81548152906001019060200180831161251d57829003601f168201915b50505091835250506003919091015460ff16151560209091015292915050565b3360009081526010602052604090206008015460ff61010090910416151560011461258457600080fd5b33600090815260106020908152604090912083516125aa92600390920191850190612a57565b5033600090815260106020908152604090912082516125d192600490920191840190612a57565b505050565b6126016040518060800160405280606081526020016060815260200160608152602001606081525090565b6009546001600160a01b03166000908152600a60205260408082208151608081019092528054829082906126349061361f565b80601f01602080910402602001604051908101604052809291908181526020018280546126609061361f565b80156126ad5780601f10612682576101008083540402835291602001916126ad565b820191906000526020600020905b81548152906001019060200180831161269057829003601f168201915b505050505081526020016001820180546126c69061361f565b80601f01602080910402602001604051908101604052809291908181526020018280546126f29061361f565b801561273f5780601f106127145761010080835404028352916020019161273f565b820191906000526020600020905b81548152906001019060200180831161272257829003601f168201915b505050505081526020016002820180546127589061361f565b80601f01602080910402602001604051908101604052809291908181526020018280546127849061361f565b80156127d15780601f106127a6576101008083540402835291602001916127d1565b820191906000526020600020905b8154815290600101906020018083116127b457829003601f168201915b505050505081526020016003820180546127ea9061361f565b80601f01602080910402602001604051908101604052809291908181526020018280546128169061361f565b80156128635780601f1061283857610100808354040283529160200191612863565b820191906000526020600020905b81548152906001019060200180831161284657829003601f168201915b505050919092525091935050505090565b61287c612b56565b600060118360405161288e9190613383565b908152604080519182900360209081018320610160840190925281546001600160a01b0316835260018201805491840191611b9a9061361f565b6009546001600160a01b031633146128df57600080fd5b6040805160008082526020808301808552835190206001600160a01b038a1683526008909152908390208893919261291792016133c6565b604051602081830303815290604052805190602001201461293757600080fd5b604080516080810182528681526020808201879052818301869052606082018590526001600160a01b0389166000908152600a82529290922081518051929384936129859284920190612a57565b50602082810151805161299e9260018501920190612a57565b50604082015180516129ba916002840191602090910190612a57565b50606082015180516129d6916003840191602090910190612a57565b5050506001600160a01b0387166000908152600860205260408120815481908390612a009061361f565b612a0b929190612adb565b506001820181600101908054612a209061361f565b612a2b929190612adb565b5050600980546001600160a01b0319166001600160a01b03999099169890981790975550505050505050565b828054612a639061361f565b90600052602060002090601f016020900481019282612a855760008555612acb565b82601f10612a9e57805160ff1916838001178555612acb565b82800160010185558215612acb579182015b82811115612acb578251825591602001919060010190612ab0565b50612ad7929150612bbd565b5090565b828054612ae79061361f565b90600052602060002090601f016020900481019282612b095760008555612acb565b82601f10612b1a5780548555612acb565b82800160010185558215612acb57600052602060002091601f016020900482015b82811115612acb578254825591600101919060010190612b3b565b60405180610160016040528060006001600160a01b0316815260200160608152602001606081526020016060815260200160608152602001606081526020016060815260200160608152602001600015158152602001600015158152602001600081525090565b5b80821115612ad75760008155600101612bbe565b80356001600160a01b038116811461117157600080fd5b8035801515811461117157600080fd5b600082601f830112612c09578081fd5b813567ffffffffffffffff80821115612c2457612c2461365a565b604051601f8301601f19908116603f01168101908282118183101715612c4c57612c4c61365a565b81604052838152866020858801011115612c64578485fd5b8360208701602083013792830160200193909352509392505050565b600060208284031215612c91578081fd5b612c9a82612bd2565b9392505050565b60008060008060808587031215612cb6578283fd5b612cbf85612bd2565b9350602085013567ffffffffffffffff80821115612cdb578485fd5b612ce788838901612bf9565b94506040870135915080821115612cfc578384fd5b612d0888838901612bf9565b93506060870135915080821115612d1d578283fd5b50612d2a87828801612bf9565b91505092959194509250565b600080600080600060a08688031215612d4d578081fd5b612d5686612bd2565b9450602086013567ffffffffffffffff80821115612d72578283fd5b612d7e89838a01612bf9565b95506040880135915080821115612d93578283fd5b612d9f89838a01612bf9565b94506060880135915080821115612db4578283fd5b612dc089838a01612bf9565b93506080880135915080821115612dd5578283fd5b50612de288828901612bf9565b9150509295509295909350565b60008060008060008060008060006101208a8c031215612e0d578384fd5b612e168a612bd2565b985060208a013567ffffffffffffffff80821115612e32578586fd5b612e3e8d838e01612bf9565b995060408c0135915080821115612e53578586fd5b612e5f8d838e01612bf9565b985060608c0135915080821115612e74578586fd5b612e808d838e01612bf9565b975060808c0135915080821115612e95578586fd5b612ea18d838e01612bf9565b965060a08c0135915080821115612eb6578586fd5b612ec28d838e01612bf9565b955060c08c0135915080821115612ed7578485fd5b612ee38d838e01612bf9565b945060e08c0135915080821115612ef8578384fd5b50612f058c828d01612bf9565b925050612f156101008b01612be9565b90509295985092959850929598565b600060208284031215612f35578081fd5b813567ffffffffffffffff811115612f4b578182fd5b612f5784828501612bf9565b949350505050565b60008060408385031215612f71578182fd5b823567ffffffffffffffff80821115612f88578384fd5b612f9486838701612bf9565b93506020850135915080821115612fa9578283fd5b50612fb685828601612bf9565b9150509250929050565b600080600060608486031215612fd4578283fd5b833567ffffffffffffffff80821115612feb578485fd5b612ff787838801612bf9565b9450602086013591508082111561300c578384fd5b61301887838801612bf9565b9350604086013591508082111561302d578283fd5b5061303a86828701612bf9565b9150509250925092565b60008060008060808587031215613059578384fd5b843567ffffffffffffffff80821115613070578586fd5b61307c88838901612bf9565b95506020870135915080821115612cdb578485fd5b600080600080600080600080610100898b0312156130ad578384fd5b883567ffffffffffffffff808211156130c4578586fd5b6130d08c838d01612bf9565b995060208b01359150808211156130e5578586fd5b6130f18c838d01612bf9565b985060408b0135915080821115613106578586fd5b6131128c838d01612bf9565b975060608b0135915080821115613127578586fd5b6131338c838d01612bf9565b965060808b0135915080821115613148578586fd5b6131548c838d01612bf9565b955060a08b0135915080821115613169578485fd5b6131758c838d01612bf9565b945060c08b013591508082111561318a578384fd5b506131978b828c01612bf9565b9250506131a660e08a01612be9565b90509295985092959890939650565b600080604083850312156131c7578182fd5b823567ffffffffffffffff8111156131dd578283fd5b6131e985828601612bf9565b95602094909401359450505050565b600081518084526132108160208601602086016135f3565b601f01601f19169290920160200192915050565b600081516080845261323960808501826131f8565b90506020830151848203602086015261325282826131f8565b9150506040830151848203604086015261326c82826131f8565b9150506060830151151560608501528091505092915050565b80516001600160a01b03168252600061016060208301518160208601526132ae828601826131f8565b915050604083015184820360408601526132c882826131f8565b915050606083015184820360608601526132e282826131f8565b915050608083015184820360808601526132fc82826131f8565b91505060a083015184820360a086015261331682826131f8565b91505060c083015184820360c086015261333082826131f8565b91505060e083015184820360e086015261334a82826131f8565b915050610100808401516133618287018215159052565b5050610120838101511515908501526101409283015192909301919091525090565b600082516133958184602087016135f3565b9190910192915050565b600084516133b18184602089016135f3565b91909101928352506020820152604001919050565b600080835482600182811c9150808316806133e257607f831692505b602080841082141561340257634e487b7160e01b87526022600452602487fd5b818015613416576001811461342757613453565b60ff19861689528489019650613453565b60008a815260209020885b8681101561344b5781548b820152908501908301613432565b505084890196505b509498975050505050505050565b6000602080830181845280855180835260408601915060408160051b8701019250838701855b828110156134b557603f198886030184526134a3858351613224565b94509285019290850190600101613487565b5092979650505050505050565b6000602080830181845280855180835260408601915060408160051b8701019250838701855b828110156134b557603f19888603018452613504858351613285565b945092850192908501906001016134e8565b600060208252612c9a6020830184613224565b60006020825282516040602084015261354560608401826131f8565b90506020840151601f1984830301604085015261356282826131f8565b95945050505050565b60006020825282516080602084015261358760a08401826131f8565b90506020840151601f19808584030160408601526135a583836131f8565b925060408601519150808584030160608601526135c283836131f8565b925060608601519150808584030160808601525061356282826131f8565b600060208252612c9a6020830184613285565b60005b8381101561360e5781810151838201526020016135f6565b83811115610ee45750506000910152565b600181811c9082168061363357607f821691505b6020821081141561365457634e487b7160e01b600052602260045260246000fd5b50919050565b634e487b7160e01b600052604160045260246000fdfea26469706673582212206230fb091ddd8652f707181b92a8211b9f8cdd282970df30d05556efb2939f8264736f6c63430008030033453320313434205875616e2054687579202d204361752047696179202d204861204e6f69207468616d206d7575206769757020766965632048696575207472756f6e672074687563206869656e20636f6e6720746163207665207861792064756e672c207175616e206c7920636163206368756f6e67207472696e682064616f2074616f",
  "immutableReferences": {},
  "source": "// SPDX-License-Identifier: MIT\npragma solidity >=0.7.0 <0.9.0;\n\ncontract User{\n \n    constructor() {\n        setRole();\n        setRector();\n        setAADepartmentAcc();\n    }\n \n    struct role {\n        string id;\n        string name;\n    }\n \n    role[4] roleList;\n    mapping(address => role) userRole;\n \n    modifier onlyUser(address _address) {\n        require(msg.sender == _address || msg.sender == currentRectorAddress);\n        _;\n    }\n \n     modifier onlyNoRole(address _address) {\n        require(keccak256(abi.encodePacked(userRole[_address].id)) == keccak256(abi.encodePacked(\"\")));\n        _;\n    }\n \n    function setRole() private {\n        roleList[0] = (role(\"0\",\"rector\"));\n        roleList[1] = (role(\"1\",\"AADepartment\"));\n        roleList[2] = (role(\"2\",\"student\"));\n        roleList[3] = (role(\"3\",\"company\"));\n    }\n \n    struct rector{\n        string name;\n        string date;\n        string phone;\n        string term;\n    }\n \n    address currentRectorAddress; \n \n    mapping(address => rector) rectorDetail;\n \n    modifier onlyCurrentRector() {\n        require(msg.sender == currentRectorAddress);\n        _;\n    }\n \n    function setRector() private {\n        rector memory rectorTemp;\n        rectorTemp.name = \"PGS TS Nguyen Viet Ha\";\n        rectorTemp.date = \"1974\";\n        rectorTemp.phone = \"0989152252\";\n        rectorTemp.term = \"from 2014\";\n        rectorDetail[msg.sender] = rectorTemp;\n        userRole[msg.sender] = roleList[0];\n \n        currentRectorAddress = msg.sender;\n \n    }\n \n    function getCurrentRector() public view returns (rector memory) {\n        rector memory currentRector = rectorDetail[currentRectorAddress];\n        return currentRector;\n    }\n \n    function createNewRector(address _newRectorAddr, string memory _name,string memory _date,string memory _phone, string memory _term) public onlyCurrentRector onlyNoRole(_newRectorAddr) {\n        rector memory newRector = rector(_name, _date, _phone, _term);\n \n        rectorDetail[_newRectorAddr] = newRector;\n        userRole[_newRectorAddr] = roleList[0];\n \n        currentRectorAddress = _newRectorAddr;\n    }\n \n    function updateCurrentRector(string memory _name,string memory _date,string memory _phone, string memory _term) public onlyCurrentRector {\n        rectorDetail[msg.sender].name = _name;\n        rectorDetail[msg.sender].date = _date;\n        rectorDetail[msg.sender].phone = _phone;\n        rectorDetail[msg.sender].term = _term;\n    }\n \n \n    // Academic Affairs Department\n    struct AADepartment {\n        string realAddress; // dia chi PDT\n        string description;\n    }\n \n    struct AADUser {\n        string name;\n        string date;\n        string phone;\n        bool isActive;\n    }\n \n    AADepartment AADepartmentAcc;\n \n    AADUser[] AADUserList;\n    mapping(address => AADUser) AADUsers;\n \n    modifier onlyAADepartmentUser() {\n        AADUser memory currentUser = AADUsers[msg.sender];\n        require(currentUser.isActive == true);\n        _;\n    }\n \n    modifier onlyRectorOrAAD() {\n        require(msg.sender == currentRectorAddress || AADUsers[msg.sender].isActive == true);\n        _;\n    }\n \n    function setAADepartmentAcc() private {\n        AADepartmentAcc.realAddress = \"E3 144 Xuan Thuy - Cau Giay - Ha Noi\";\n        AADepartmentAcc.description = \" tham muu giup viec Hieu truong thuc hien cong tac ve xay dung, quan ly cac chuong trinh dao tao\";\n    }\n \n    function getAADepartmentAcc() public view returns (AADepartment memory){\n        return AADepartmentAcc;\n    }\n \n    function createAADepartmentUser(address _address, string memory _name, string memory _date, string memory _phone) public onlyRectorOrAAD onlyNoRole(_address) {\n        AADUser memory temp = AADUser(_name, _date, _phone, true);\n        AADUserList.push(temp);\n        AADUsers[_address] = temp;\n    }\n \n    function updateAADepartmentUser(string memory _name, string memory _date, string memory _phone) public {\n        require(AADUsers[msg.sender].isActive == true);\n        AADUsers[msg.sender].name = _name;\n        AADUsers[msg.sender].date = _date;\n        AADUsers[msg.sender].phone = _phone;\n    }\n \n    function deactiveAADepartmentUser(address _address) public onlyRectorOrAAD{\n        AADUsers[_address].isActive = false;\n    }\n \n    function getAADepartmentUser(address _userAddress) public view returns (AADUser memory) {\n        return AADUsers[_userAddress];\n    }\n \n    struct student {\n        address account;\n        string studentId;\n        string name;\n        string email;\n        string phone;\n        string class;\n        string major;\n        string cpa;\n        bool qualifiedForGraduation;\n        bool isActive;\n        uint nonce;\n    }\n \n    student[] studentList;\n    mapping(address => student) studentDetails;\n    mapping(string => student) idToStudents;\n \n    function createStudent(string memory _studentId, string memory _name, string memory _email, string memory _phone, string memory _class, string memory _major, string memory _cpa, bool _qualifiedForGraduation) public onlyAADepartmentUser {\n        student memory studentTemp = student(address(0x0), _studentId, _name, _email, _phone, _class, _major, _cpa, _qualifiedForGraduation, false, uint(keccak256(abi.encodePacked(_studentId, block.timestamp, block.difficulty))));\n        studentList.push(studentTemp);\n        idToStudents[_studentId] = studentTemp;\n    }\n \n    function activeStudent(string memory _studentId, uint _nonce) public onlyNoRole(msg.sender) {\n        require(_nonce == idToStudents[_studentId].nonce);\n        idToStudents[_studentId].account = msg.sender;\n        idToStudents[_studentId].isActive = true;\n \n        studentDetails[msg.sender] = idToStudents[_studentId];\n        userRole[msg.sender] = roleList[2];\n    }\n    \n    function gettAllStudent() public view onlyRectorOrAAD returns(student[] memory){\n        return studentList;\n    }\n \n    function getStudentById(string memory _studentId) public view returns(student memory){\n        student memory studentTemp = idToStudents[_studentId];\n        studentTemp.nonce = 0;\n        return studentTemp;\n    }\n \n    function getStudentByAddr(address _studentAddr) public view returns(student memory){\n        student memory studentTemp = studentDetails[_studentAddr];\n        studentTemp.nonce = 0;\n        return studentTemp;\n    }\n \n    function getStudentNonce(string memory _studentId) public view onlyRectorOrAAD returns(uint) {\n        return idToStudents[_studentId].nonce;\n    }\n \n    function updateStudentbyAAD(address _address, string memory _studentId, string memory _name, string memory _email, string memory _phone, string memory _class, string memory _major, string memory _cpa, bool _qualifiedForGraduation) public onlyRectorOrAAD {\n        student storage temp = studentDetails[_address];\n        temp.studentId = _studentId;\n        temp.name = _name;\n        temp.email = _email;\n        temp.phone = _phone;\n        temp.class = _class;\n        temp.major = _major;\n        temp.cpa = _cpa;\n        temp.qualifiedForGraduation = _qualifiedForGraduation;\n    }\n \n    function updateStudentInfo(string memory _email, string memory _phone) public {\n        require(studentDetails[msg.sender].isActive == true);\n        studentDetails[msg.sender].email = _email;\n        studentDetails[msg.sender].phone = _phone;\n    }\n \n    struct company{\n        string name;\n        string description;\n        string jobInfo;\n        bool isActive;\n    }\n \n    company[] companyList;\n    mapping(address => company) companyDetails;\n \n    function createCompany(string memory _name, string memory _description, string memory _jobInfo) public onlyNoRole(msg.sender) {\n        company memory companyTemp = company(_name, _description, _jobInfo, false);\n \n        companyList.push(companyTemp);\n        companyDetails[msg.sender] = companyTemp;\n        userRole[msg.sender] = roleList[3];\n    }\n \n    function approveCompany(address _companyAddr) public onlyAADepartmentUser {\n        companyDetails[_companyAddr].isActive = true;\n    }\n \n    function updateCompany(string memory _name, string memory _description, string memory _jobInfo) public {\n        companyDetails[msg.sender].name = _name;\n        companyDetails[msg.sender].description = _description;\n        companyDetails[msg.sender].jobInfo = _jobInfo;\n    }\n \n    function getCompany(address _companyAddr) public view returns(company memory){\n        company memory companyTemp = companyDetails[_companyAddr];\n        return companyTemp;\n    }\n\n    function getAllCompany() public view returns(company[] memory) {\n        return companyList;\n    }\n}\n",
  "sourcePath": "/Users/hughdo/Desktop/Proj/CertVerificationSystem/contracts/User.sol",
  "compiler": {
    "name": "solc",
    "version": "0.8.3+commit.8d00100c.Emscripten.clang"
  },
  "schemaVersion": "3.3.4",
  "updatedAt": "2021-04-09T11:36:50.491Z",
  "networkType": "ethereum",
  "devdoc": {
    "kind": "dev",
    "methods": {},
    "version": 1
  },
  "userdoc": {
    "kind": "user",
    "methods": {},
    "version": 1
  }
}