{
  "contractName": "Certificate",
  "abi": [
    {
      "inputs": [
        {
          "internalType": "string",
          "name": "_id",
          "type": "string"
        },
        {
          "internalType": "uint256",
          "name": "_nonce",
          "type": "uint256"
        }
      ],
      "name": "activeStudent",
      "outputs": [],
      "stateMutability": "nonpayable",
      "type": "function"
    },
    {
      "inputs": [
        {
          "internalType": "uint256",
          "name": "_companyId",
          "type": "uint256"
        }
      ],
      "name": "approveCompany",
      "outputs": [],
      "stateMutability": "nonpayable",
      "type": "function"
    },
    {
      "inputs": [
        {
          "internalType": "address",
          "name": "_address",
          "type": "address"
        },
        {
          "internalType": "string",
          "name": "_name",
          "type": "string"
        },
        {
          "internalType": "string",
          "name": "_date",
          "type": "string"
        },
        {
          "internalType": "string",
          "name": "_phone",
          "type": "string"
        }
      ],
      "name": "createAADepartmentUser",
      "outputs": [],
      "stateMutability": "nonpayable",
      "type": "function"
    },
    {
      "inputs": [
        {
          "internalType": "string",
          "name": "_name",
          "type": "string"
        },
        {
          "internalType": "string",
          "name": "_description",
          "type": "string"
        },
        {
          "internalType": "string",
          "name": "_jobInfo",
          "type": "string"
        }
      ],
      "name": "createCompany",
      "outputs": [],
      "stateMutability": "nonpayable",
      "type": "function"
    },
    {
      "inputs": [
        {
          "internalType": "address",
          "name": "_newRectorAddr",
          "type": "address"
        },
        {
          "internalType": "string",
          "name": "_name",
          "type": "string"
        },
        {
          "internalType": "string",
          "name": "_date",
          "type": "string"
        },
        {
          "internalType": "string",
          "name": "_phone",
          "type": "string"
        },
        {
          "internalType": "string",
          "name": "_term",
          "type": "string"
        }
      ],
      "name": "createNewRector",
      "outputs": [],
      "stateMutability": "nonpayable",
      "type": "function"
    },
    {
      "inputs": [
        {
          "internalType": "string",
          "name": "_id",
          "type": "string"
        },
        {
          "internalType": "string",
          "name": "_name",
          "type": "string"
        },
        {
          "internalType": "string",
          "name": "_email",
          "type": "string"
        },
        {
          "internalType": "string",
          "name": "_date",
          "type": "string"
        },
        {
          "internalType": "string",
          "name": "_phone",
          "type": "string"
        },
        {
          "internalType": "string",
          "name": "_class",
          "type": "string"
        },
        {
          "internalType": "string",
          "name": "_major",
          "type": "string"
        },
        {
          "internalType": "string",
          "name": "_cpa",
          "type": "string"
        },
        {
          "internalType": "bool",
          "name": "_qualifiedForGraduation",
          "type": "bool"
        }
      ],
      "name": "createStudent",
      "outputs": [],
      "stateMutability": "nonpayable",
      "type": "function"
    },
    {
      "inputs": [
        {
          "internalType": "uint256",
          "name": "_AADUserId",
          "type": "uint256"
        }
      ],
      "name": "deactiveAADepartmentUser",
      "outputs": [],
      "stateMutability": "nonpayable",
      "type": "function"
    },
    {
      "inputs": [],
      "name": "getAADepartmentAcc",
      "outputs": [
        {
          "components": [
            {
              "internalType": "string",
              "name": "realAddress",
              "type": "string"
            },
            {
              "internalType": "string",
              "name": "description",
              "type": "string"
            }
          ],
          "internalType": "struct User.AADepartment",
          "name": "",
          "type": "tuple"
        }
      ],
      "stateMutability": "view",
      "type": "function",
      "constant": true
    },
    {
      "inputs": [
        {
          "internalType": "address",
          "name": "_userAddress",
          "type": "address"
        }
      ],
      "name": "getAADepartmentUser",
      "outputs": [
        {
          "components": [
            {
              "internalType": "string",
              "name": "name",
              "type": "string"
            },
            {
              "internalType": "string",
              "name": "date",
              "type": "string"
            },
            {
              "internalType": "string",
              "name": "phone",
              "type": "string"
            },
            {
              "internalType": "bool",
              "name": "isActive",
              "type": "bool"
            }
          ],
          "internalType": "struct User.AADUser",
          "name": "",
          "type": "tuple"
        }
      ],
      "stateMutability": "view",
      "type": "function",
      "constant": true
    },
    {
      "inputs": [],
      "name": "getAllAADepartmentUsers",
      "outputs": [
        {
          "components": [
            {
              "internalType": "string",
              "name": "name",
              "type": "string"
            },
            {
              "internalType": "string",
              "name": "date",
              "type": "string"
            },
            {
              "internalType": "string",
              "name": "phone",
              "type": "string"
            },
            {
              "internalType": "bool",
              "name": "isActive",
              "type": "bool"
            }
          ],
          "internalType": "struct User.AADUser[]",
          "name": "",
          "type": "tuple[]"
        }
      ],
      "stateMutability": "view",
      "type": "function",
      "constant": true
    },
    {
      "inputs": [],
      "name": "getAllCompany",
      "outputs": [
        {
          "components": [
            {
              "internalType": "string",
              "name": "name",
              "type": "string"
            },
            {
              "internalType": "string",
              "name": "description",
              "type": "string"
            },
            {
              "internalType": "string",
              "name": "jobInfo",
              "type": "string"
            },
            {
              "internalType": "bool",
              "name": "isActive",
              "type": "bool"
            }
          ],
          "internalType": "struct User.company[]",
          "name": "",
          "type": "tuple[]"
        }
      ],
      "stateMutability": "view",
      "type": "function",
      "constant": true
    },
    {
      "inputs": [],
      "name": "getAllStudent",
      "outputs": [
        {
          "components": [
            {
              "internalType": "string",
              "name": "id",
              "type": "string"
            },
            {
              "internalType": "string",
              "name": "name",
              "type": "string"
            },
            {
              "internalType": "string",
              "name": "email",
              "type": "string"
            },
            {
              "internalType": "string",
              "name": "date",
              "type": "string"
            },
            {
              "internalType": "string",
              "name": "phone",
              "type": "string"
            },
            {
              "internalType": "string",
              "name": "class",
              "type": "string"
            },
            {
              "internalType": "string",
              "name": "major",
              "type": "string"
            },
            {
              "internalType": "string",
              "name": "cpa",
              "type": "string"
            },
            {
              "internalType": "bool",
              "name": "qualifiedForGraduation",
              "type": "bool"
            },
            {
              "internalType": "bool",
              "name": "isActive",
              "type": "bool"
            },
            {
              "internalType": "uint256",
              "name": "nonce",
              "type": "uint256"
            }
          ],
          "internalType": "struct User.student[]",
          "name": "",
          "type": "tuple[]"
        }
      ],
      "stateMutability": "view",
      "type": "function",
      "constant": true
    },
    {
      "inputs": [
        {
          "internalType": "address",
          "name": "_companyAddr",
          "type": "address"
        }
      ],
      "name": "getCompany",
      "outputs": [
        {
          "components": [
            {
              "internalType": "string",
              "name": "name",
              "type": "string"
            },
            {
              "internalType": "string",
              "name": "description",
              "type": "string"
            },
            {
              "internalType": "string",
              "name": "jobInfo",
              "type": "string"
            },
            {
              "internalType": "bool",
              "name": "isActive",
              "type": "bool"
            }
          ],
          "internalType": "struct User.company",
          "name": "",
          "type": "tuple"
        }
      ],
      "stateMutability": "view",
      "type": "function",
      "constant": true
    },
    {
      "inputs": [],
      "name": "getCurrentRector",
      "outputs": [
        {
          "components": [
            {
              "internalType": "string",
              "name": "name",
              "type": "string"
            },
            {
              "internalType": "string",
              "name": "date",
              "type": "string"
            },
            {
              "internalType": "string",
              "name": "phone",
              "type": "string"
            },
            {
              "internalType": "string",
              "name": "term",
              "type": "string"
            }
          ],
          "internalType": "struct User.rector",
          "name": "",
          "type": "tuple"
        }
      ],
      "stateMutability": "view",
      "type": "function",
      "constant": true
    },
    {
      "inputs": [],
      "name": "getCurrentUser",
      "outputs": [
        {
          "components": [
            {
              "internalType": "string",
              "name": "name",
              "type": "string"
            },
            {
              "internalType": "string",
              "name": "date",
              "type": "string"
            },
            {
              "internalType": "string",
              "name": "phone",
              "type": "string"
            },
            {
              "internalType": "string",
              "name": "term",
              "type": "string"
            }
          ],
          "internalType": "struct User.rector",
          "name": "",
          "type": "tuple"
        },
        {
          "components": [
            {
              "internalType": "string",
              "name": "name",
              "type": "string"
            },
            {
              "internalType": "string",
              "name": "date",
              "type": "string"
            },
            {
              "internalType": "string",
              "name": "phone",
              "type": "string"
            },
            {
              "internalType": "bool",
              "name": "isActive",
              "type": "bool"
            }
          ],
          "internalType": "struct User.AADUser",
          "name": "",
          "type": "tuple"
        },
        {
          "components": [
            {
              "internalType": "string",
              "name": "id",
              "type": "string"
            },
            {
              "internalType": "string",
              "name": "name",
              "type": "string"
            },
            {
              "internalType": "string",
              "name": "email",
              "type": "string"
            },
            {
              "internalType": "string",
              "name": "date",
              "type": "string"
            },
            {
              "internalType": "string",
              "name": "phone",
              "type": "string"
            },
            {
              "internalType": "string",
              "name": "class",
              "type": "string"
            },
            {
              "internalType": "string",
              "name": "major",
              "type": "string"
            },
            {
              "internalType": "string",
              "name": "cpa",
              "type": "string"
            },
            {
              "internalType": "bool",
              "name": "qualifiedForGraduation",
              "type": "bool"
            },
            {
              "internalType": "bool",
              "name": "isActive",
              "type": "bool"
            },
            {
              "internalType": "uint256",
              "name": "nonce",
              "type": "uint256"
            }
          ],
          "internalType": "struct User.student",
          "name": "",
          "type": "tuple"
        },
        {
          "components": [
            {
              "internalType": "string",
              "name": "name",
              "type": "string"
            },
            {
              "internalType": "string",
              "name": "description",
              "type": "string"
            },
            {
              "internalType": "string",
              "name": "jobInfo",
              "type": "string"
            },
            {
              "internalType": "bool",
              "name": "isActive",
              "type": "bool"
            }
          ],
          "internalType": "struct User.company",
          "name": "",
          "type": "tuple"
        }
      ],
      "stateMutability": "view",
      "type": "function",
      "constant": true
    },
    {
      "inputs": [],
      "name": "getCurrentUserRole",
      "outputs": [
        {
          "components": [
            {
              "internalType": "string",
              "name": "id",
              "type": "string"
            },
            {
              "internalType": "string",
              "name": "name",
              "type": "string"
            }
          ],
          "internalType": "struct User.role",
          "name": "",
          "type": "tuple"
        }
      ],
      "stateMutability": "view",
      "type": "function",
      "constant": true
    },
    {
      "inputs": [
        {
          "internalType": "address",
          "name": "_addr",
          "type": "address"
        }
      ],
      "name": "getCurrentUserRoleByAddr",
      "outputs": [
        {
          "components": [
            {
              "internalType": "string",
              "name": "id",
              "type": "string"
            },
            {
              "internalType": "string",
              "name": "name",
              "type": "string"
            }
          ],
          "internalType": "struct User.role",
          "name": "",
          "type": "tuple"
        }
      ],
      "stateMutability": "view",
      "type": "function",
      "constant": true
    },
    {
      "inputs": [
        {
          "internalType": "address",
          "name": "_studentAddr",
          "type": "address"
        }
      ],
      "name": "getStudentByAddr",
      "outputs": [
        {
          "components": [
            {
              "internalType": "string",
              "name": "id",
              "type": "string"
            },
            {
              "internalType": "string",
              "name": "name",
              "type": "string"
            },
            {
              "internalType": "string",
              "name": "email",
              "type": "string"
            },
            {
              "internalType": "string",
              "name": "date",
              "type": "string"
            },
            {
              "internalType": "string",
              "name": "phone",
              "type": "string"
            },
            {
              "internalType": "string",
              "name": "class",
              "type": "string"
            },
            {
              "internalType": "string",
              "name": "major",
              "type": "string"
            },
            {
              "internalType": "string",
              "name": "cpa",
              "type": "string"
            },
            {
              "internalType": "bool",
              "name": "qualifiedForGraduation",
              "type": "bool"
            },
            {
              "internalType": "bool",
              "name": "isActive",
              "type": "bool"
            },
            {
              "internalType": "uint256",
              "name": "nonce",
              "type": "uint256"
            }
          ],
          "internalType": "struct User.student",
          "name": "",
          "type": "tuple"
        }
      ],
      "stateMutability": "view",
      "type": "function",
      "constant": true
    },
    {
      "inputs": [
        {
          "internalType": "string",
          "name": "_id",
          "type": "string"
        }
      ],
      "name": "getStudentById",
      "outputs": [
        {
          "components": [
            {
              "internalType": "string",
              "name": "id",
              "type": "string"
            },
            {
              "internalType": "string",
              "name": "name",
              "type": "string"
            },
            {
              "internalType": "string",
              "name": "email",
              "type": "string"
            },
            {
              "internalType": "string",
              "name": "date",
              "type": "string"
            },
            {
              "internalType": "string",
              "name": "phone",
              "type": "string"
            },
            {
              "internalType": "string",
              "name": "class",
              "type": "string"
            },
            {
              "internalType": "string",
              "name": "major",
              "type": "string"
            },
            {
              "internalType": "string",
              "name": "cpa",
              "type": "string"
            },
            {
              "internalType": "bool",
              "name": "qualifiedForGraduation",
              "type": "bool"
            },
            {
              "internalType": "bool",
              "name": "isActive",
              "type": "bool"
            },
            {
              "internalType": "uint256",
              "name": "nonce",
              "type": "uint256"
            }
          ],
          "internalType": "struct User.student",
          "name": "",
          "type": "tuple"
        }
      ],
      "stateMutability": "view",
      "type": "function",
      "constant": true
    },
    {
      "inputs": [
        {
          "internalType": "string",
          "name": "_id",
          "type": "string"
        }
      ],
      "name": "getStudentNonce",
      "outputs": [
        {
          "internalType": "uint256",
          "name": "",
          "type": "uint256"
        }
      ],
      "stateMutability": "view",
      "type": "function",
      "constant": true
    },
    {
      "inputs": [
        {
          "components": [
            {
              "internalType": "string",
              "name": "id",
              "type": "string"
            },
            {
              "internalType": "string",
              "name": "name",
              "type": "string"
            },
            {
              "internalType": "string",
              "name": "email",
              "type": "string"
            },
            {
              "internalType": "string",
              "name": "date",
              "type": "string"
            },
            {
              "internalType": "string",
              "name": "phone",
              "type": "string"
            },
            {
              "internalType": "string",
              "name": "class",
              "type": "string"
            },
            {
              "internalType": "string",
              "name": "major",
              "type": "string"
            },
            {
              "internalType": "string",
              "name": "cpa",
              "type": "string"
            },
            {
              "internalType": "bool",
              "name": "qualifiedForGraduation",
              "type": "bool"
            },
            {
              "internalType": "bool",
              "name": "isActive",
              "type": "bool"
            },
            {
              "internalType": "uint256",
              "name": "nonce",
              "type": "uint256"
            }
          ],
          "internalType": "struct User.student[]",
          "name": "students",
          "type": "tuple[]"
        }
      ],
      "name": "importStudent",
      "outputs": [],
      "stateMutability": "nonpayable",
      "type": "function"
    },
    {
      "inputs": [
        {
          "internalType": "string",
          "name": "_name",
          "type": "string"
        },
        {
          "internalType": "string",
          "name": "_date",
          "type": "string"
        },
        {
          "internalType": "string",
          "name": "_phone",
          "type": "string"
        }
      ],
      "name": "updateAADepartmentUser",
      "outputs": [],
      "stateMutability": "nonpayable",
      "type": "function"
    },
    {
      "inputs": [
        {
          "internalType": "string",
          "name": "_name",
          "type": "string"
        },
        {
          "internalType": "string",
          "name": "_description",
          "type": "string"
        },
        {
          "internalType": "string",
          "name": "_jobInfo",
          "type": "string"
        }
      ],
      "name": "updateCompany",
      "outputs": [],
      "stateMutability": "nonpayable",
      "type": "function"
    },
    {
      "inputs": [
        {
          "internalType": "string",
          "name": "_name",
          "type": "string"
        },
        {
          "internalType": "string",
          "name": "_date",
          "type": "string"
        },
        {
          "internalType": "string",
          "name": "_phone",
          "type": "string"
        },
        {
          "internalType": "string",
          "name": "_term",
          "type": "string"
        }
      ],
      "name": "updateCurrentRector",
      "outputs": [],
      "stateMutability": "nonpayable",
      "type": "function"
    },
    {
      "inputs": [
        {
          "internalType": "string",
          "name": "_email",
          "type": "string"
        },
        {
          "internalType": "string",
          "name": "_phone",
          "type": "string"
        }
      ],
      "name": "updateStudentInfo",
      "outputs": [],
      "stateMutability": "nonpayable",
      "type": "function"
    },
    {
      "inputs": [
        {
          "internalType": "address",
          "name": "_address",
          "type": "address"
        },
        {
          "internalType": "string",
          "name": "_id",
          "type": "string"
        },
        {
          "internalType": "string",
          "name": "_name",
          "type": "string"
        },
        {
          "internalType": "string",
          "name": "_email",
          "type": "string"
        },
        {
          "internalType": "string",
          "name": "_date",
          "type": "string"
        },
        {
          "internalType": "string",
          "name": "_phone",
          "type": "string"
        },
        {
          "internalType": "string",
          "name": "_class",
          "type": "string"
        },
        {
          "internalType": "string",
          "name": "_major",
          "type": "string"
        },
        {
          "internalType": "string",
          "name": "_cpa",
          "type": "string"
        },
        {
          "internalType": "bool",
          "name": "_qualifiedForGraduation",
          "type": "bool"
        }
      ],
      "name": "updateStudentbyAAD",
      "outputs": [],
      "stateMutability": "nonpayable",
      "type": "function"
    },
    {
      "inputs": [
        {
          "internalType": "string",
          "name": "_studentId",
          "type": "string"
        }
      ],
      "name": "createCertificate",
      "outputs": [],
      "stateMutability": "nonpayable",
      "type": "function"
    },
    {
      "inputs": [
        {
          "internalType": "string",
          "name": "_studentId",
          "type": "string"
        },
        {
          "internalType": "string",
          "name": "_name",
          "type": "string"
        },
        {
          "internalType": "string",
          "name": "_cpa",
          "type": "string"
        }
      ],
      "name": "createDoubleCertificate",
      "outputs": [],
      "stateMutability": "nonpayable",
      "type": "function"
    },
    {
      "inputs": [
        {
          "internalType": "uint256",
          "name": "_id",
          "type": "uint256"
        }
      ],
      "name": "getStudentByCert",
      "outputs": [
        {
          "components": [
            {
              "internalType": "string",
              "name": "id",
              "type": "string"
            },
            {
              "internalType": "string",
              "name": "name",
              "type": "string"
            },
            {
              "internalType": "string",
              "name": "email",
              "type": "string"
            },
            {
              "internalType": "string",
              "name": "date",
              "type": "string"
            },
            {
              "internalType": "string",
              "name": "phone",
              "type": "string"
            },
            {
              "internalType": "string",
              "name": "class",
              "type": "string"
            },
            {
              "internalType": "string",
              "name": "major",
              "type": "string"
            },
            {
              "internalType": "string",
              "name": "cpa",
              "type": "string"
            },
            {
              "internalType": "bool",
              "name": "qualifiedForGraduation",
              "type": "bool"
            },
            {
              "internalType": "bool",
              "name": "isActive",
              "type": "bool"
            },
            {
              "internalType": "uint256",
              "name": "nonce",
              "type": "uint256"
            }
          ],
          "internalType": "struct User.student",
          "name": "",
          "type": "tuple"
        }
      ],
      "stateMutability": "view",
      "type": "function",
      "constant": true
    },
    {
      "inputs": [
        {
          "internalType": "uint256",
          "name": "_index",
          "type": "uint256"
        }
      ],
      "name": "signCertificate",
      "outputs": [],
      "stateMutability": "nonpayable",
      "type": "function"
    },
    {
      "inputs": [],
      "name": "seeMyCertificate",
      "outputs": [
        {
          "components": [
            {
              "internalType": "uint256",
              "name": "id",
              "type": "uint256"
            },
            {
              "internalType": "string",
              "name": "name",
              "type": "string"
            },
            {
              "internalType": "string",
              "name": "cpa",
              "type": "string"
            },
            {
              "internalType": "string",
              "name": "grade",
              "type": "string"
            },
            {
              "internalType": "uint256",
              "name": "timestamp",
              "type": "uint256"
            },
            {
              "internalType": "uint256",
              "name": "exportTime",
              "type": "uint256"
            },
            {
              "internalType": "uint256",
              "name": "NumOfExports",
              "type": "uint256"
            },
            {
              "internalType": "address",
              "name": "issuer",
              "type": "address"
            },
            {
              "internalType": "bool",
              "name": "signed",
              "type": "bool"
            },
            {
              "internalType": "bool",
              "name": "visible",
              "type": "bool"
            }
          ],
          "internalType": "struct Certificate.certificate[]",
          "name": "",
          "type": "tuple[]"
        }
      ],
      "stateMutability": "view",
      "type": "function",
      "constant": true
    },
    {
      "inputs": [
        {
          "internalType": "uint256",
          "name": "_index",
          "type": "uint256"
        }
      ],
      "name": "changeCertVisibility",
      "outputs": [],
      "stateMutability": "nonpayable",
      "type": "function"
    },
    {
      "inputs": [
        {
          "internalType": "string",
          "name": "_studentId",
          "type": "string"
        }
      ],
      "name": "seeStudentCerts",
      "outputs": [
        {
          "components": [
            {
              "internalType": "uint256",
              "name": "id",
              "type": "uint256"
            },
            {
              "internalType": "string",
              "name": "name",
              "type": "string"
            },
            {
              "internalType": "string",
              "name": "cpa",
              "type": "string"
            },
            {
              "internalType": "string",
              "name": "grade",
              "type": "string"
            },
            {
              "internalType": "uint256",
              "name": "timestamp",
              "type": "uint256"
            },
            {
              "internalType": "uint256",
              "name": "exportTime",
              "type": "uint256"
            },
            {
              "internalType": "uint256",
              "name": "NumOfExports",
              "type": "uint256"
            },
            {
              "internalType": "address",
              "name": "issuer",
              "type": "address"
            },
            {
              "internalType": "bool",
              "name": "signed",
              "type": "bool"
            },
            {
              "internalType": "bool",
              "name": "visible",
              "type": "bool"
            }
          ],
          "internalType": "struct Certificate.certificate[]",
          "name": "",
          "type": "tuple[]"
        }
      ],
      "stateMutability": "view",
      "type": "function",
      "constant": true
    },
    {
      "inputs": [],
      "name": "seeVisibleCerts",
      "outputs": [
        {
          "components": [
            {
              "internalType": "uint256",
              "name": "id",
              "type": "uint256"
            },
            {
              "internalType": "string",
              "name": "name",
              "type": "string"
            },
            {
              "internalType": "string",
              "name": "cpa",
              "type": "string"
            },
            {
              "internalType": "string",
              "name": "grade",
              "type": "string"
            },
            {
              "internalType": "uint256",
              "name": "timestamp",
              "type": "uint256"
            },
            {
              "internalType": "uint256",
              "name": "exportTime",
              "type": "uint256"
            },
            {
              "internalType": "uint256",
              "name": "NumOfExports",
              "type": "uint256"
            },
            {
              "internalType": "address",
              "name": "issuer",
              "type": "address"
            },
            {
              "internalType": "bool",
              "name": "signed",
              "type": "bool"
            },
            {
              "internalType": "bool",
              "name": "visible",
              "type": "bool"
            }
          ],
          "internalType": "struct Certificate.certificate[]",
          "name": "",
          "type": "tuple[]"
        }
      ],
      "stateMutability": "view",
      "type": "function",
      "constant": true
    },
    {
      "inputs": [],
      "name": "seeAllCerts",
      "outputs": [
        {
          "components": [
            {
              "internalType": "uint256",
              "name": "id",
              "type": "uint256"
            },
            {
              "internalType": "string",
              "name": "name",
              "type": "string"
            },
            {
              "internalType": "string",
              "name": "cpa",
              "type": "string"
            },
            {
              "internalType": "string",
              "name": "grade",
              "type": "string"
            },
            {
              "internalType": "uint256",
              "name": "timestamp",
              "type": "uint256"
            },
            {
              "internalType": "uint256",
              "name": "exportTime",
              "type": "uint256"
            },
            {
              "internalType": "uint256",
              "name": "NumOfExports",
              "type": "uint256"
            },
            {
              "internalType": "address",
              "name": "issuer",
              "type": "address"
            },
            {
              "internalType": "bool",
              "name": "signed",
              "type": "bool"
            },
            {
              "internalType": "bool",
              "name": "visible",
              "type": "bool"
            }
          ],
          "internalType": "struct Certificate.certificate[]",
          "name": "",
          "type": "tuple[]"
        }
      ],
      "stateMutability": "view",
      "type": "function",
      "constant": true
    }
  ],
  "bytecode": "0x60806040523480156200001157600080fd5b506200001c62000036565b620000266200022e565b62000030620003de565b620005a9565b604080516080810182526001818301908152600360fc1b60608301528152815180830190925260068252653932b1ba37b960d11b6020808401919091528082019290925280518051919260009262000092928492019062000442565b506020828101518051620000ad926001850192019062000442565b5050604080516080810182526001818301908152603160f81b606083015281528151808301909252600c82526b105051195c185c9d1b595b9d60a21b6020808401919091528082019290925280518051919350600292620001149284929091019062000442565b5060208281015180516200012f926001850192019062000442565b5050604080516080810182526001818301908152601960f91b60608301528152815180830190925260078252661cdd1d59195b9d60ca1b6020808401919091528082019290925280518051919350600492620001919284929091019062000442565b506020828101518051620001ac926001850192019062000442565b5050604080516080810182526001818301908152603360f81b6060830152815281518083019092526007825266636f6d70616e7960c81b60208084019190915280820192909252805180519193506006926200020e9284929091019062000442565b50602082810151805162000229926001850192019062000442565b505050565b6200025a6040518060800160405280606081526020016060815260200160608152602001606081525090565b604080518082018252601581527f504753205453204e677579656e205669657420486100000000000000000000006020808301919091529083528151808301835260048152630c4e4dcd60e21b818301528382015281518083018352600a80825269181c9c1c989a99191a9960b11b8284015284840191909152825180840184526009815268199c9bdb480c8c0c4d60ba1b818401526060850152336000908152908252919091208251805184936200031892849291019062000442565b50602082810151805162000333926001850192019062000442565b50604082015180516200035191600284019160209091019062000442565b50606082015180516200036f91600384019160209091019062000442565b50503360009081526008602052604081208154919250908190839062000395906200056c565b620003a2929190620004d1565b506001820181600101908054620003b9906200056c565b620003c6929190620004d1565b5050600980546001600160a01b031916331790555050565b60405180606001604052806024815260200162006d0a6024913980516200040e91600b9160209091019062000442565b5060405180608001604052806060815260200162006d2e6060913980516200043f91600c9160209091019062000442565b50565b82805462000450906200056c565b90600052602060002090601f016020900481019282620004745760008555620004bf565b82601f106200048f57805160ff1916838001178555620004bf565b82800160010185558215620004bf579182015b82811115620004bf578251825591602001919060010190620004a2565b50620004cd92915062000555565b5090565b828054620004df906200056c565b90600052602060002090601f016020900481019282620005035760008555620004bf565b82601f10620005165780548555620004bf565b82800160010185558215620004bf57600052602060002091601f016020900482015b82811115620004bf57825482559160010191906001019062000538565b5b80821115620004cd576000815560010162000556565b600181811c908216806200058157607f821691505b60208210811415620005a357634e487b7160e01b600052602260045260246000fd5b50919050565b61675180620005b96000396000f3fe608060405234801561001057600080fd5b50600436106102115760003560e01c80637b60626d11610125578063c23fd5a6116100ad578063e762b0451161007c578063e762b0451461047e578063ed7ad82614610486578063eed879eb14610499578063f9e55629146104ac578063fc4a7442146104bf57610211565b8063c23fd5a614610430578063c805974714610443578063d59f02d414610458578063d6f641cd1461046b57610211565b8063ad69d7b0116100f4578063ad69d7b0146103d1578063b174ba82146103e4578063ba8805f4146103f7578063bba12bd81461040a578063bd2456c71461041d57610211565b80637b60626d146103685780637d67d9001461037b5780638cca2ec41461039c57806393b3298c146103b157610211565b806349867178116101a85780635d319005116101775780635d3190051461030757806362bc56e61461031a57806367b1a0d61461033a578063744448821461034d57806375957bc01461036057610211565b806349867178146102c65780634b0875e9146102ce57806357fdb0fa146102e15780635c6f2e08146102f457610211565b80632644d28f116101e45780632644d28f146102735780632764d61c14610286578063388807cf146102a657806343ae37c3146102ae57610211565b80630d2393fd146102165780630e21e9d014610234578063106e3ea614610249578063133d04601461025e575b600080fd5b61021e6104d2565b60405161022b91906163f0565b60405180910390f35b61023c6106f9565b60405161022b91906162f9565b61025c610257366004615752565b610a7e565b005b610266610ce6565b60405161022b9190616444565b61025c610281366004615dda565b611236565b610299610294366004615731565b611650565b60405161022b919061653f565b6102996117b3565b6102b6611908565b60405161022b9493929190616565565b61023c611df0565b61025c6102dc366004615d0b565b61209b565b61025c6102ef366004615f63565b612133565b61025c610302366004615d0b565b61225f565b61025c6103153660046159f7565b6122cd565b61032d610328366004615731565b6124a8565b60405161022b919061652c565b61025c610348366004615d0b565b6126c4565b61025c61035b366004615bff565b61297f565b610299612db0565b61025c610376366004615d0b565b612de1565b61038e610389366004615bff565b613001565b60405190815260200161022b565b6103a4613066565b60405161022b9190616298565b6103c46103bf366004615731565b613284565b60405161022b91906165bd565b61025c6103df366004615f63565b613777565b61025c6103f2366004615d8e565b613821565b61025c610405366004615f21565b6138d4565b61025c61041836600461589e565b613d34565b61032d61042b366004615731565b613e52565b61025c61043e366004615cab565b61406e565b61044b6140ea565b60405161022b9190616552565b6103c4610466366004615f63565b614388565b61023c610479366004615bff565b614888565b61023c614ccc565b6103c4610494366004615bff565b61511c565b61025c6104a73660046157e6565b615160565b61025c6104ba366004615f63565b6152ef565b61025c6104cd366004615f63565b61544f565b60606014805480602002602001604051908101604052809291908181526020016000905b828210156106f0578382906000526020600020906004020160405180608001604052908160008201805461052990616699565b80601f016020809104026020016040519081016040528092919081815260200182805461055590616699565b80156105a25780601f10610577576101008083540402835291602001916105a2565b820191906000526020600020905b81548152906001019060200180831161058557829003601f168201915b505050505081526020016001820180546105bb90616699565b80601f01602080910402602001604051908101604052809291908181526020018280546105e790616699565b80156106345780601f1061060957610100808354040283529160200191610634565b820191906000526020600020905b81548152906001019060200180831161061757829003601f168201915b5050505050815260200160028201805461064d90616699565b80601f016020809104026020016040519081016040528092919081815260200182805461067990616699565b80156106c65780601f1061069b576101008083540402835291602001916106c6565b820191906000526020600020905b8154815290600101906020018083116106a957829003601f168201915b50505091835250506003919091015460ff16151560209182015290825260019290920191016104f6565b50505050905090565b3360009081526015602052604090206003015460609060ff16151560011461072057600080fd5b6000601b546001600160401b0381111561074a57634e487b7160e01b600052604160045260246000fd5b60405190808252806020026020018201604052801561078357816020015b6107706154e7565b8152602001906001900390816107685790505b5090506000805b601754811015610a7657601781815481106107b557634e487b7160e01b600052603260045260246000fd5b906000526020600020906008020160070160159054906101000a900460ff1615610a6457816107e3816166d4565b9250506017818154811061080757634e487b7160e01b600052603260045260246000fd5b9060005260206000209060080201604051806101400160405290816000820154815260200160018201805461083b90616699565b80601f016020809104026020016040519081016040528092919081815260200182805461086790616699565b80156108b45780601f10610889576101008083540402835291602001916108b4565b820191906000526020600020905b81548152906001019060200180831161089757829003601f168201915b505050505081526020016002820180546108cd90616699565b80601f01602080910402602001604051908101604052809291908181526020018280546108f990616699565b80156109465780601f1061091b57610100808354040283529160200191610946565b820191906000526020600020905b81548152906001019060200180831161092957829003601f168201915b5050505050815260200160038201805461095f90616699565b80601f016020809104026020016040519081016040528092919081815260200182805461098b90616699565b80156109d85780601f106109ad576101008083540402835291602001916109d8565b820191906000526020600020905b8154815290600101906020018083116109bb57829003601f168201915b50505091835250506004820154602082015260058201546040820152600682015460608201526007909101546001600160a01b038116608083015260ff600160a01b82048116151560a0840152600160a81b90910416151560c0909101528351849084908110610a5857634e487b7160e01b600052603260045260246000fd5b60200260200101819052505b80610a6e816166d4565b91505061078a565b509091505090565b6009546001600160a01b0316331480610aae5750336000908152600e602052604090206003015460ff1615156001145b610ab757600080fd5b6040805160008082526020808301808552835190206001600160a01b038916835260089091529083902087939192610aef92016161e0565b6040516020818303038152906040528051906020012014610b0f57600080fd5b604080516080810182528581526020808201869052918101849052600160608201819052600d80549182018155600052815180519293849360049093027fd7b6990105719101dabeb77144f2a3385c8033acd3af97e9423a695e81ad1eb50192610b7c9284920190615547565b506020828101518051610b959260018501920190615547565b5060408201518051610bb1916002840191602090910190615547565b50606091909101516003909101805460ff1916911515919091179055600d548690600f90600090610be49060019061663f565b81526020808201929092526040908101600090812080546001600160a01b0319166001600160a01b039586161790559289168352600e8252909120825180518493610c33928492910190615547565b506020828101518051610c4c9260018501920190615547565b5060408201518051610c68916002840191602090910190615547565b50606091909101516003909101805460ff19169115159190911790556001600160a01b03861660009081526008602052604090206002805490919081908390610cb090616699565b610cbb9291906155cb565b506001820181600101908054610cd090616699565b610cdb9291906155cb565b505050505050505050565b6009546060906001600160a01b0316331480610d195750336000908152600e602052604090206003015460ff1615156001145b610d2257600080fd5b6010805480602002602001604051908101604052809291908181526020016000905b828210156106f057838290600052602060002090600a020160405180610160016040529081600082018054610d7890616699565b80601f0160208091040260200160405190810160405280929190818152602001828054610da490616699565b8015610df15780601f10610dc657610100808354040283529160200191610df1565b820191906000526020600020905b815481529060010190602001808311610dd457829003601f168201915b50505050508152602001600182018054610e0a90616699565b80601f0160208091040260200160405190810160405280929190818152602001828054610e3690616699565b8015610e835780601f10610e5857610100808354040283529160200191610e83565b820191906000526020600020905b815481529060010190602001808311610e6657829003601f168201915b50505050508152602001600282018054610e9c90616699565b80601f0160208091040260200160405190810160405280929190818152602001828054610ec890616699565b8015610f155780601f10610eea57610100808354040283529160200191610f15565b820191906000526020600020905b815481529060010190602001808311610ef857829003601f168201915b50505050508152602001600382018054610f2e90616699565b80601f0160208091040260200160405190810160405280929190818152602001828054610f5a90616699565b8015610fa75780601f10610f7c57610100808354040283529160200191610fa7565b820191906000526020600020905b815481529060010190602001808311610f8a57829003601f168201915b50505050508152602001600482018054610fc090616699565b80601f0160208091040260200160405190810160405280929190818152602001828054610fec90616699565b80156110395780601f1061100e57610100808354040283529160200191611039565b820191906000526020600020905b81548152906001019060200180831161101c57829003601f168201915b5050505050815260200160058201805461105290616699565b80601f016020809104026020016040519081016040528092919081815260200182805461107e90616699565b80156110cb5780601f106110a0576101008083540402835291602001916110cb565b820191906000526020600020905b8154815290600101906020018083116110ae57829003601f168201915b505050505081526020016006820180546110e490616699565b80601f016020809104026020016040519081016040528092919081815260200182805461111090616699565b801561115d5780601f106111325761010080835404028352916020019161115d565b820191906000526020600020905b81548152906001019060200180831161114057829003601f168201915b5050505050815260200160078201805461117690616699565b80601f01602080910402602001604051908101604052809291908181526020018280546111a290616699565b80156111ef5780601f106111c4576101008083540402835291602001916111ef565b820191906000526020600020905b8154815290600101906020018083116111d257829003601f168201915b5050509183525050600882015460ff808216151560208085019190915261010090920416151560408301526009909201546060909101529082526001929092019101610d44565b336000908152600e602052604090206003015460ff16151560011461125a57600080fd5b8860405160200161126b919061619d565b6040516020818303038152906040528051906020012060128a604051611291919061619d565b908152604051602091819003820181206112ad929091016161e0565b604051602081830303815290604052805190602001201415896040516020016112d6919061624f565b6040516020818303038152906040529061130c5760405162461bcd60e51b81526004016113039190616498565b60405180910390fd5b5060006040518061016001604052808b81526020018a815260200189815260200188815260200187815260200186815260200185815260200184815260200183151581526020016000151581526020018b4244604051602001611371939291906161b9565b60408051601f19818403018152919052805160209182012090915260108054600181018255600091909152825180519394508493600a9092027f1b6847dc741a1b0cd08d278845f9d819d87b734759afb55fe2de5cb82a9ae67201926113dc92849290910190615547565b5060208281015180516113f59260018501920190615547565b5060408201518051611411916002840191602090910190615547565b506060820151805161142d916003840191602090910190615547565b5060808201518051611449916004840191602090910190615547565b5060a08201518051611465916005840191602090910190615547565b5060c08201518051611481916006840191602090910190615547565b5060e0820151805161149d916007840191602090910190615547565b506101008281015160088301805461012086015161ffff1990911692151561ff001916929092179115159092021790556101409091015160099091015560405181906012906114ed908d9061619d565b90815260200160405180910390206000820151816000019080519060200190611517929190615547565b5060208281015180516115309260018501920190615547565b506040820151805161154c916002840191602090910190615547565b5060608201518051611568916003840191602090910190615547565b5060808201518051611584916004840191602090910190615547565b5060a082015180516115a0916005840191602090910190615547565b5060c082015180516115bc916006840191602090910190615547565b5060e082015180516115d8916007840191602090910190615547565b506101008281015160088301805461012086015161ffff1990911692151561ff00191692909217911515909202179055610140909101516009909101556010546116249060019061663f565b60138b604051611634919061619d565b9081526040519081900360200190205550505050505050505050565b60408051808201909152606080825260208201526001600160a01b038216600090815260086020526040808220815180830190925280548290829061169490616699565b80601f01602080910402602001604051908101604052809291908181526020018280546116c090616699565b801561170d5780601f106116e25761010080835404028352916020019161170d565b820191906000526020600020905b8154815290600101906020018083116116f057829003601f168201915b5050505050815260200160018201805461172690616699565b80601f016020809104026020016040519081016040528092919081815260200182805461175290616699565b801561179f5780601f106117745761010080835404028352916020019161179f565b820191906000526020600020905b81548152906001019060200180831161178257829003601f168201915b50505091909252509193505050505b919050565b6040805180820190915260608082526020820152336000908152600860205260409081902081518083019092528054829082906117ef90616699565b80601f016020809104026020016040519081016040528092919081815260200182805461181b90616699565b80156118685780601f1061183d57610100808354040283529160200191611868565b820191906000526020600020905b81548152906001019060200180831161184b57829003601f168201915b5050505050815260200160018201805461188190616699565b80601f01602080910402602001604051908101604052809291908181526020018280546118ad90616699565b80156118fa5780601f106118cf576101008083540402835291602001916118fa565b820191906000526020600020905b8154815290600101906020018083116118dd57829003601f168201915b505050505081525050905090565b6119336040518060800160405280606081526020016060815260200160608152602001606081525090565b61196060405180608001604052806060815260200160608152602001606081526020016000151581525090565b611968615646565b61199560405180608001604052806060815260200160608152602001606081526020016000151581525090565b604051600360fc1b602082015260210160408051601f198184030181528282528051602091820120336000908152600883529290922091926119d89291016161e0565b604051602081830303815290604052805190602001201415611c8257336000818152600a6020526040902090611a0d90613e52565b611a1633613284565b611a1f336124a8565b83604051806080016040529081600082018054611a3b90616699565b80601f0160208091040260200160405190810160405280929190818152602001828054611a6790616699565b8015611ab45780601f10611a8957610100808354040283529160200191611ab4565b820191906000526020600020905b815481529060010190602001808311611a9757829003601f168201915b50505050508152602001600182018054611acd90616699565b80601f0160208091040260200160405190810160405280929190818152602001828054611af990616699565b8015611b465780601f10611b1b57610100808354040283529160200191611b46565b820191906000526020600020905b815481529060010190602001808311611b2957829003601f168201915b50505050508152602001600282018054611b5f90616699565b80601f0160208091040260200160405190810160405280929190818152602001828054611b8b90616699565b8015611bd85780601f10611bad57610100808354040283529160200191611bd8565b820191906000526020600020905b815481529060010190602001808311611bbb57829003601f168201915b50505050508152602001600382018054611bf190616699565b80601f0160208091040260200160405190810160405280929190818152602001828054611c1d90616699565b8015611c6a5780601f10611c3f57610100808354040283529160200191611c6a565b820191906000526020600020905b815481529060010190602001808311611c4d57829003601f168201915b50505050508152505093509350935093509350611dea565b604051603160f81b602082015260210160408051601f19818403018152828252805160209182012033600090815260088352929092209192611cc59291016161e0565b604051602081830303815290604052805190602001201415611cfa57336000818152600a6020526040902090611a0d90613e52565b604051601960f91b602082015260210160408051601f19818403018152828252805160209182012033600090815260088352929092209192611d3d9291016161e0565b604051602081830303815290604052805190602001201415611d7257336000818152600a6020526040902090611a0d90613e52565b604051603360f81b602082015260210160408051601f19818403018152828252805160209182012033600090815260088352929092209192611db59291016161e0565b604051602081830303815290604052805190602001201415611dea57336000818152600a6020526040902090611a0d90613e52565b90919293565b6009546060906001600160a01b0316331480611e235750336000908152600e602052604090206003015460ff1615156001145b611e2c57600080fd5b6017805480602002602001604051908101604052809291908181526020016000905b828210156106f057838290600052602060002090600802016040518061014001604052908160008201548152602001600182018054611e8c90616699565b80601f0160208091040260200160405190810160405280929190818152602001828054611eb890616699565b8015611f055780601f10611eda57610100808354040283529160200191611f05565b820191906000526020600020905b815481529060010190602001808311611ee857829003601f168201915b50505050508152602001600282018054611f1e90616699565b80601f0160208091040260200160405190810160405280929190818152602001828054611f4a90616699565b8015611f975780601f10611f6c57610100808354040283529160200191611f97565b820191906000526020600020905b815481529060010190602001808311611f7a57829003601f168201915b50505050508152602001600382018054611fb090616699565b80601f0160208091040260200160405190810160405280929190818152602001828054611fdc90616699565b80156120295780601f10611ffe57610100808354040283529160200191612029565b820191906000526020600020905b81548152906001019060200180831161200c57829003601f168201915b5050509183525050600482015460208083019190915260058301546040830152600683015460608301526007909201546001600160a01b038116608083015260ff600160a01b82048116151560a0840152600160a81b90910416151560c0909101529082526001929092019101611e4e565b336000908152600e602052604090206003015460ff1615156001146120bf57600080fd5b336000908152600e6020908152604090912084516120df92860190615547565b50336000908152600e60209081526040909120835161210692600190920191850190615547565b50336000908152600e60209081526040909120825161212d92600290920191840190615547565b50505050565b3360009081526011602052604090206008015460ff61010090910416151560011461215d57600080fd5b6017818154811061217e57634e487b7160e01b600052603260045260246000fd5b906000526020600020906008020160070160159054906101000a900460ff1615601782815481106121bf57634e487b7160e01b600052603260045260246000fd5b906000526020600020906008020160070160156101000a81548160ff0219169083151502179055506017818154811061220857634e487b7160e01b600052603260045260246000fd5b906000526020600020906008020160070160159054906101000a900460ff161561224657601c805490600061223c836166d4565b919050555061225c565b601c805490600061225683616682565b91905055505b50565b336000908152601560209081526040909120845161227f92860190615547565b5033600090815260156020908152604090912083516122a692600190920191850190615547565b50336000908152601560209081526040909120825161212d92600290920191840190615547565b336000908152600e602052604090206003015460ff1615156001146122f157600080fd5b60005b81518110156124a45761249282828151811061232057634e487b7160e01b600052603260045260246000fd5b60200260200101516000015183838151811061234c57634e487b7160e01b600052603260045260246000fd5b60200260200101516020015184848151811061237857634e487b7160e01b600052603260045260246000fd5b6020026020010151604001518585815181106123a457634e487b7160e01b600052603260045260246000fd5b6020026020010151606001518686815181106123d057634e487b7160e01b600052603260045260246000fd5b6020026020010151608001518787815181106123fc57634e487b7160e01b600052603260045260246000fd5b602002602001015160a0015188888151811061242857634e487b7160e01b600052603260045260246000fd5b602002602001015160c0015189898151811061245457634e487b7160e01b600052603260045260246000fd5b602002602001015160e001518a8a8151811061248057634e487b7160e01b600052603260045260246000fd5b60200260200101516101000151611236565b8061249c816166d4565b9150506122f4565b5050565b6124d560405180608001604052806060815260200160608152602001606081526020016000151581525090565b6001600160a01b03821660009081526015602052604080822081516080810190925280548290829061250690616699565b80601f016020809104026020016040519081016040528092919081815260200182805461253290616699565b801561257f5780601f106125545761010080835404028352916020019161257f565b820191906000526020600020905b81548152906001019060200180831161256257829003601f168201915b5050505050815260200160018201805461259890616699565b80601f01602080910402602001604051908101604052809291908181526020018280546125c490616699565b80156126115780601f106125e657610100808354040283529160200191612611565b820191906000526020600020905b8154815290600101906020018083116125f457829003601f168201915b5050505050815260200160028201805461262a90616699565b80601f016020809104026020016040519081016040528092919081815260200182805461265690616699565b80156126a35780601f10612678576101008083540402835291602001916126a3565b820191906000526020600020905b81548152906001019060200180831161268657829003601f168201915b50505091835250506003919091015460ff1615156020909101529392505050565b336000908152600e602052604090206003015460ff1615156001146126e857600080fd5b6126f06154e7565b6017548152602081018390526040808201839052516397678ad560e01b815273__SetGrade______________________________906397678ad590612739908590600401616498565b60006040518083038186803b15801561275157600080fd5b505af4158015612765573d6000803e3d6000fd5b505050506040513d6000823e601f3d908101601f1916820160405261278d9190810190615c39565b6060820152426080820152600060c082018190526101208201819052601780546001810182559152815160089091027fc624b66cc0138b8fabc209247f72d758e1cf3343756d543badbf24212bed8c158101918255602080840151805185949361281d937fc624b66cc0138b8fabc209247f72d758e1cf3343756d543badbf24212bed8c16909101920190615547565b5060408201518051612839916002840191602090910190615547565b5060608201518051612855916003840191602090910190615547565b506080820151600482015560a0820151600582015560c0820151600682015560e082015160079091018054610100840151610120909401511515600160a81b0260ff60a81b19941515600160a01b026001600160a81b03199092166001600160a01b039094169390931717929092161790556040516018906128d890869061619d565b9081526040519081900360200190206017546128f69060019061663f565b815460018181018455600093845260208420909101919091556017548692601a929091612923919061663f565b81526020019081526020016000209080519060200190612944929190615547565b506001601985604051612957919061619d565b908152602001604051809103902060008282546129749190616627565b909155505050505050565b336000908152600e602052604090206003015460ff1615156001146129a357600080fd5b6129ab6154e7565b60175481526040516012906129c190849061619d565b908152602001604051809103902060060180546129dd90616699565b80601f0160208091040260200160405190810160405280929190818152602001828054612a0990616699565b8015612a565780601f10612a2b57610100808354040283529160200191612a56565b820191906000526020600020905b815481529060010190602001808311612a3957829003601f168201915b50505050508160200181905250601282604051612a73919061619d565b90815260200160405180910390206007018054612a8f90616699565b80601f0160208091040260200160405190810160405280929190818152602001828054612abb90616699565b8015612b085780601f10612add57610100808354040283529160200191612b08565b820191906000526020600020905b815481529060010190602001808311612aeb57829003601f168201915b5050505050816040018190525073__SetGrade______________________________6397678ad5601284604051612b3f919061619d565b90815260200160405180910390206007016040518263ffffffff1660e01b8152600401612b6c91906164ab565b60006040518083038186803b158015612b8457600080fd5b505af4158015612b98573d6000803e3d6000fd5b505050506040513d6000823e601f3d908101601f19168201604052612bc09190810190615c39565b6060820152426080820152600060c082018190526101208201819052601780546001810182559152815160089091027fc624b66cc0138b8fabc209247f72d758e1cf3343756d543badbf24212bed8c1581019182556020808401518051859493612c50937fc624b66cc0138b8fabc209247f72d758e1cf3343756d543badbf24212bed8c16909101920190615547565b5060408201518051612c6c916002840191602090910190615547565b5060608201518051612c88916003840191602090910190615547565b506080820151600482015560a0820151600582015560c0820151600682015560e082015160079091018054610100840151610120909401511515600160a81b0260ff60a81b19941515600160a01b026001600160a81b03199092166001600160a01b03909416939093171792909216179055604051601890612d0b90849061619d565b908152604051908190036020019020601754612d299060019061663f565b815460018181018455600093845260208420909101919091556017548492601a929091612d56919061663f565b81526020019081526020016000209080519060200190612d77929190615547565b506001601983604051612d8a919061619d565b90815260200160405180910390206000828254612da79190616627565b90915550505050565b6040805180820190915260608082526020820152600b6040518060400160405290816000820180546117ef90616699565b6040805160008082526020808301808552835190203380845260089092529184902090939192612e1192016161e0565b6040516020818303038152906040528051906020012014612e3157600080fd5b604080516080810182528581526020808201869052918101849052600060608201819052601480546001810182559152815180519293849360049093027fce6d7b5282bd9a3661ae061feed1dbda4e52ab073b1f9285be6e155d9c38d4ec0192612e9e9284920190615547565b506020828101518051612eb79260018501920190615547565b5060408201518051612ed3916002840191602090910190615547565b50606091909101516003909101805460ff19169115159190911790556014543390601690600090612f069060019061663f565b81526020808201929092526040908101600090812080546001600160a01b0319166001600160a01b03959095169490941790935533835260158252909120825180518493612f58928492910190615547565b506020828101518051612f719260018501920190615547565b5060408201518051612f8d916002840191602090910190615547565b50606091909101516003909101805460ff19169115159190911790553360009081526008602052604090206006805490919081908390612fcc90616699565b612fd79291906155cb565b506001820181600101908054612fec90616699565b612ff79291906155cb565b5050505050505050565b6009546000906001600160a01b03163314806130345750336000908152600e602052604090206003015460ff1615156001145b61303d57600080fd5b60128260405161304d919061619d565b9081526020016040518091039020600901549050919050565b6060600d805480602002602001604051908101604052809291908181526020016000905b828210156106f057838290600052602060002090600402016040518060800160405290816000820180546130bd90616699565b80601f01602080910402602001604051908101604052809291908181526020018280546130e990616699565b80156131365780601f1061310b57610100808354040283529160200191613136565b820191906000526020600020905b81548152906001019060200180831161311957829003601f168201915b5050505050815260200160018201805461314f90616699565b80601f016020809104026020016040519081016040528092919081815260200182805461317b90616699565b80156131c85780601f1061319d576101008083540402835291602001916131c8565b820191906000526020600020905b8154815290600101906020018083116131ab57829003601f168201915b505050505081526020016002820180546131e190616699565b80601f016020809104026020016040519081016040528092919081815260200182805461320d90616699565b801561325a5780601f1061322f5761010080835404028352916020019161325a565b820191906000526020600020905b81548152906001019060200180831161323d57829003601f168201915b50505091835250506003919091015460ff161515602091820152908252600192909201910161308a565b61328c615646565b6001600160a01b038216600090815260116020526040808220815161016081019092528054829082906132be90616699565b80601f01602080910402602001604051908101604052809291908181526020018280546132ea90616699565b80156133375780601f1061330c57610100808354040283529160200191613337565b820191906000526020600020905b81548152906001019060200180831161331a57829003601f168201915b5050505050815260200160018201805461335090616699565b80601f016020809104026020016040519081016040528092919081815260200182805461337c90616699565b80156133c95780601f1061339e576101008083540402835291602001916133c9565b820191906000526020600020905b8154815290600101906020018083116133ac57829003601f168201915b505050505081526020016002820180546133e290616699565b80601f016020809104026020016040519081016040528092919081815260200182805461340e90616699565b801561345b5780601f106134305761010080835404028352916020019161345b565b820191906000526020600020905b81548152906001019060200180831161343e57829003601f168201915b5050505050815260200160038201805461347490616699565b80601f01602080910402602001604051908101604052809291908181526020018280546134a090616699565b80156134ed5780601f106134c2576101008083540402835291602001916134ed565b820191906000526020600020905b8154815290600101906020018083116134d057829003601f168201915b5050505050815260200160048201805461350690616699565b80601f016020809104026020016040519081016040528092919081815260200182805461353290616699565b801561357f5780601f106135545761010080835404028352916020019161357f565b820191906000526020600020905b81548152906001019060200180831161356257829003601f168201915b5050505050815260200160058201805461359890616699565b80601f01602080910402602001604051908101604052809291908181526020018280546135c490616699565b80156136115780601f106135e657610100808354040283529160200191613611565b820191906000526020600020905b8154815290600101906020018083116135f457829003601f168201915b5050505050815260200160068201805461362a90616699565b80601f016020809104026020016040519081016040528092919081815260200182805461365690616699565b80156136a35780601f10613678576101008083540402835291602001916136a3565b820191906000526020600020905b81548152906001019060200180831161368657829003601f168201915b505050505081526020016007820180546136bc90616699565b80601f01602080910402602001604051908101604052809291908181526020018280546136e890616699565b80156137355780601f1061370a57610100808354040283529160200191613735565b820191906000526020600020905b81548152906001019060200180831161371857829003601f168201915b5050509183525050600882015460ff80821615156020840152610100909104161515604082015260099091015460609091015260006101408201529392505050565b6009546001600160a01b03163314806137a75750336000908152600e602052604090206003015460ff1615156001145b6137b057600080fd5b6000600d82815481106137d357634e487b7160e01b600052603260045260246000fd5b6000918252602080832060036004909302018201805494151560ff19958616179055938252600f84526040808320546001600160a01b03168352600e90945292902090910180549091169055565b6009546001600160a01b0316331461383857600080fd5b336000908152600a60209081526040909120855161385892870190615547565b50336000908152600a60209081526040909120845161387f92600190920191860190615547565b50336000908152600a6020908152604090912083516138a692600290920191850190615547565b50336000908152600a6020908152604090912082516138cd92600390920191840190615547565b5050505050565b604080516000808252602080830180855283519020338084526008909252918490209093919261390492016161e0565b604051602081830303815290604052805190602001201461392457600080fd5b601283604051613934919061619d565b908152602001604051809103902060090154821461395157600080fd5b601283604051613961919061619d565b90815260408051602092819003830190203360009081526011909352912081548190839061398e90616699565b6139999291906155cb565b5060018201816001019080546139ae90616699565b6139b99291906155cb565b5060028201816002019080546139ce90616699565b6139d99291906155cb565b5060038201816003019080546139ee90616699565b6139f99291906155cb565b506004820181600401908054613a0e90616699565b613a199291906155cb565b506005820181600501908054613a2e90616699565b613a399291906155cb565b506006820181600601908054613a4e90616699565b613a599291906155cb565b506007820181600701908054613a6e90616699565b613a799291906155cb565b5060088281018054918301805460ff938416151560ff19821681178355925461010090819004909416151590930261ff001990921661ffff1990931692909217179055600991820154910155604051600190601290613ad990869061619d565b908152602001604051809103902060080160016101000a81548160ff02191690831515021790555060016010601385604051613b15919061619d565b90815260200160405180910390205481548110613b4257634e487b7160e01b600052603260045260246000fd5b600091825260208083206008600a9390930201820180549415156101000261ff001990951694909417909355338252909152604090206004805490919081908390613b8c90616699565b613b979291906155cb565b506001820181600101908054613bac90616699565b613bb79291906155cb565b50905050601283604051613bcb919061619d565b908152604080516020928190038301902033600090815260119093529120815481908390613bf890616699565b613c039291906155cb565b506001820181600101908054613c1890616699565b613c239291906155cb565b506002820181600201908054613c3890616699565b613c439291906155cb565b506003820181600301908054613c5890616699565b613c639291906155cb565b506004820181600401908054613c7890616699565b613c839291906155cb565b506005820181600501908054613c9890616699565b613ca39291906155cb565b506006820181600601908054613cb890616699565b613cc39291906155cb565b506007820181600701908054613cd890616699565b613ce39291906155cb565b5060088281018054918301805460ff938416151560ff19821681178355925461010090819004909416151590930261ff001990921661ffff1990931692909217179055600991820154910155505050565b6009546001600160a01b0316331480613d645750336000908152600e602052604090206003015460ff1615156001145b613d6d57600080fd5b6001600160a01b038a1660009081526011602090815260409091208a519091613d9a9183918d0190615547565b508851613db090600183019060208c0190615547565b508751613dc690600283019060208b0190615547565b508651613ddc90600383019060208a0190615547565b508551613df29060048301906020890190615547565b508451613e089060058301906020880190615547565b508351613e1e9060068301906020870190615547565b508251613e349060078301906020860190615547565b50600801805460ff1916911515919091179055505050505050505050565b613e7f60405180608001604052806060815260200160608152602001606081526020016000151581525090565b6001600160a01b0382166000908152600e602052604090819020815160808101909252805482908290613eb190616699565b80601f0160208091040260200160405190810160405280929190818152602001828054613edd90616699565b8015613f2a5780601f10613eff57610100808354040283529160200191613f2a565b820191906000526020600020905b815481529060010190602001808311613f0d57829003601f168201915b50505050508152602001600182018054613f4390616699565b80601f0160208091040260200160405190810160405280929190818152602001828054613f6f90616699565b8015613fbc5780601f10613f9157610100808354040283529160200191613fbc565b820191906000526020600020905b815481529060010190602001808311613f9f57829003601f168201915b50505050508152602001600282018054613fd590616699565b80601f016020809104026020016040519081016040528092919081815260200182805461400190616699565b801561404e5780601f106140235761010080835404028352916020019161404e565b820191906000526020600020905b81548152906001019060200180831161403157829003601f168201915b50505091835250506003919091015460ff16151560209091015292915050565b3360009081526011602052604090206008015460ff61010090910416151560011461409857600080fd5b33600090815260116020908152604090912083516140be92600290920191850190615547565b5033600090815260116020908152604090912082516140e592600490920191840190615547565b505050565b6141156040518060800160405280606081526020016060815260200160608152602001606081525090565b6009546001600160a01b03166000908152600a602052604080822081516080810190925280548290829061414890616699565b80601f016020809104026020016040519081016040528092919081815260200182805461417490616699565b80156141c15780601f10614196576101008083540402835291602001916141c1565b820191906000526020600020905b8154815290600101906020018083116141a457829003601f168201915b505050505081526020016001820180546141da90616699565b80601f016020809104026020016040519081016040528092919081815260200182805461420690616699565b80156142535780601f1061422857610100808354040283529160200191614253565b820191906000526020600020905b81548152906001019060200180831161423657829003601f168201915b5050505050815260200160028201805461426c90616699565b80601f016020809104026020016040519081016040528092919081815260200182805461429890616699565b80156142e55780601f106142ba576101008083540402835291602001916142e5565b820191906000526020600020905b8154815290600101906020018083116142c857829003601f168201915b505050505081526020016003820180546142fe90616699565b80601f016020809104026020016040519081016040528092919081815260200182805461432a90616699565b80156143775780601f1061434c57610100808354040283529160200191614377565b820191906000526020600020905b81548152906001019060200180831161435a57829003601f168201915b505050919092525091935050505090565b614390615646565b6000828152601a602052604080822090516012916143ad916161e0565b9081526020016040518091039020604051806101600160405290816000820180546143d790616699565b80601f016020809104026020016040519081016040528092919081815260200182805461440390616699565b80156144505780601f1061442557610100808354040283529160200191614450565b820191906000526020600020905b81548152906001019060200180831161443357829003601f168201915b5050505050815260200160018201805461446990616699565b80601f016020809104026020016040519081016040528092919081815260200182805461449590616699565b80156144e25780601f106144b7576101008083540402835291602001916144e2565b820191906000526020600020905b8154815290600101906020018083116144c557829003601f168201915b505050505081526020016002820180546144fb90616699565b80601f016020809104026020016040519081016040528092919081815260200182805461452790616699565b80156145745780601f1061454957610100808354040283529160200191614574565b820191906000526020600020905b81548152906001019060200180831161455757829003601f168201915b5050505050815260200160038201805461458d90616699565b80601f01602080910402602001604051908101604052809291908181526020018280546145b990616699565b80156146065780601f106145db57610100808354040283529160200191614606565b820191906000526020600020905b8154815290600101906020018083116145e957829003601f168201915b5050505050815260200160048201805461461f90616699565b80601f016020809104026020016040519081016040528092919081815260200182805461464b90616699565b80156146985780601f1061466d57610100808354040283529160200191614698565b820191906000526020600020905b81548152906001019060200180831161467b57829003601f168201915b505050505081526020016005820180546146b190616699565b80601f01602080910402602001604051908101604052809291908181526020018280546146dd90616699565b801561472a5780601f106146ff5761010080835404028352916020019161472a565b820191906000526020600020905b81548152906001019060200180831161470d57829003601f168201915b5050505050815260200160068201805461474390616699565b80601f016020809104026020016040519081016040528092919081815260200182805461476f90616699565b80156147bc5780601f10614791576101008083540402835291602001916147bc565b820191906000526020600020905b81548152906001019060200180831161479f57829003601f168201915b505050505081526020016007820180546147d590616699565b80601f016020809104026020016040519081016040528092919081815260200182805461480190616699565b801561484e5780601f106148235761010080835404028352916020019161484e565b820191906000526020600020905b81548152906001019060200180831161483157829003601f168201915b5050509183525050600882015460ff8082161515602084015261010090910416151560408201526009909101546060909101529392505050565b3360009081526015602052604090206003015460609060ff1615156001146148af57600080fd5b60006018836040516148c1919061619d565b9081526040519081900360200190205490506000816001600160401b038111156148fb57634e487b7160e01b600052604160045260246000fd5b60405190808252806020026020018201604052801561493457816020015b6149216154e7565b8152602001906001900390816149195790505b50905060005b60188560405161494a919061619d565b90815260405190819003602001902054811015614cc4576017601886604051614973919061619d565b908152602001604051809103902082815481106149a057634e487b7160e01b600052603260045260246000fd5b9060005260206000200154815481106149c957634e487b7160e01b600052603260045260246000fd5b906000526020600020906008020160070160159054906101000a900460ff1615614cb25760176018866040516149ff919061619d565b90815260200160405180910390208281548110614a2c57634e487b7160e01b600052603260045260246000fd5b906000526020600020015481548110614a5557634e487b7160e01b600052603260045260246000fd5b90600052602060002090600802016040518061014001604052908160008201548152602001600182018054614a8990616699565b80601f0160208091040260200160405190810160405280929190818152602001828054614ab590616699565b8015614b025780601f10614ad757610100808354040283529160200191614b02565b820191906000526020600020905b815481529060010190602001808311614ae557829003601f168201915b50505050508152602001600282018054614b1b90616699565b80601f0160208091040260200160405190810160405280929190818152602001828054614b4790616699565b8015614b945780601f10614b6957610100808354040283529160200191614b94565b820191906000526020600020905b815481529060010190602001808311614b7757829003601f168201915b50505050508152602001600382018054614bad90616699565b80601f0160208091040260200160405190810160405280929190818152602001828054614bd990616699565b8015614c265780601f10614bfb57610100808354040283529160200191614c26565b820191906000526020600020905b815481529060010190602001808311614c0957829003601f168201915b50505091835250506004820154602082015260058201546040820152600682015460608201526007909101546001600160a01b038116608083015260ff600160a01b82048116151560a0840152600160a81b90910416151560c0909101528251839083908110614ca657634e487b7160e01b600052603260045260246000fd5b60200260200101819052505b80614cbc816166d4565b91505061493a565b509392505050565b3360009081526011602052604090206008015460609060ff610100909104161515600114614cf957600080fd5b3360009081526011602052604081208054614d1390616699565b80601f0160208091040260200160405190810160405280929190818152602001828054614d3f90616699565b8015614d8c5780601f10614d6157610100808354040283529160200191614d8c565b820191906000526020600020905b815481529060010190602001808311614d6f57829003601f168201915b505050505090506000601982604051614da5919061619d565b9081526020016040518091039020546001600160401b03811115614dd957634e487b7160e01b600052604160045260246000fd5b604051908082528060200260200182016040528015614e1257816020015b614dff6154e7565b815260200190600190039081614df75790505b50905060005b601983604051614e28919061619d565b908152602001604051809103902054811015615115576017601884604051614e50919061619d565b90815260200160405180910390208281548110614e7d57634e487b7160e01b600052603260045260246000fd5b906000526020600020015481548110614ea657634e487b7160e01b600052603260045260246000fd5b90600052602060002090600802016040518061014001604052908160008201548152602001600182018054614eda90616699565b80601f0160208091040260200160405190810160405280929190818152602001828054614f0690616699565b8015614f535780601f10614f2857610100808354040283529160200191614f53565b820191906000526020600020905b815481529060010190602001808311614f3657829003601f168201915b50505050508152602001600282018054614f6c90616699565b80601f0160208091040260200160405190810160405280929190818152602001828054614f9890616699565b8015614fe55780601f10614fba57610100808354040283529160200191614fe5565b820191906000526020600020905b815481529060010190602001808311614fc857829003601f168201915b50505050508152602001600382018054614ffe90616699565b80601f016020809104026020016040519081016040528092919081815260200182805461502a90616699565b80156150775780601f1061504c57610100808354040283529160200191615077565b820191906000526020600020905b81548152906001019060200180831161505a57829003601f168201915b50505091835250506004820154602082015260058201546040820152600682015460608201526007909101546001600160a01b038116608083015260ff600160a01b82048116151560a0840152600160a81b90910416151560c09091015282518390839081106150f757634e487b7160e01b600052603260045260246000fd5b6020026020010181905250808061510d906166d4565b915050614e18565b5091505090565b615124615646565b6000601283604051615136919061619d565b9081526020016040518091039020604051806101600160405290816000820180546132be90616699565b6009546001600160a01b0316331461517757600080fd5b6040805160008082526020808301808552835190206001600160a01b038a168352600890915290839020889391926151af92016161e0565b60405160208183030381529060405280519060200120146151cf57600080fd5b604080516080810182528681526020808201879052818301869052606082018590526001600160a01b0389166000908152600a825292909220815180519293849361521d9284920190615547565b5060208281015180516152369260018501920190615547565b5060408201518051615252916002840191602090910190615547565b506060820151805161526e916003840191602090910190615547565b5050506001600160a01b038716600090815260086020526040812081548190839061529890616699565b6152a39291906155cb565b5060018201816001019080546152b890616699565b6152c39291906155cb565b5050600980546001600160a01b0319166001600160a01b03999099169890981790975550505050505050565b6009546001600160a01b0316331461530657600080fd5b6017818154811061532757634e487b7160e01b600052603260045260246000fd5b6000918252602090912060089091020160070154600160a01b900460ff161561534f57600080fd5b336017828154811061537157634e487b7160e01b600052603260045260246000fd5b906000526020600020906008020160070160006101000a8154816001600160a01b0302191690836001600160a01b031602179055506001601782815481106153c957634e487b7160e01b600052603260045260246000fd5b906000526020600020906008020160070160146101000a81548160ff02191690831515021790555060016017828154811061541457634e487b7160e01b600052603260045260246000fd5b6000918252602082206007600890920201018054921515600160a81b0260ff60a81b1990931692909217909155601b805491612256836166d4565b336000908152600e602052604090206003015460ff16151560011461547357600080fd5b60016014828154811061549657634e487b7160e01b600052603260045260246000fd5b6000918252602080832060036004909302018201805494151560ff19958616179055938252601684526040808320546001600160a01b03168352601590945292902090910180549091166001179055565b6040518061014001604052806000815260200160608152602001606081526020016060815260200160008152602001600081526020016000815260200160006001600160a01b031681526020016000151581526020016000151581525090565b82805461555390616699565b90600052602060002090601f01602090048101928261557557600085556155bb565b82601f1061558e57805160ff19168380011785556155bb565b828001600101855582156155bb579182015b828111156155bb5782518255916020019190600101906155a0565b506155c79291506156a4565b5090565b8280546155d790616699565b90600052602060002090601f0160209004810192826155f957600085556155bb565b82601f1061560a57805485556155bb565b828001600101855582156155bb57600052602060002091601f016020900482015b828111156155bb57825482559160010191906001019061562b565b6040518061016001604052806060815260200160608152602001606081526020016060815260200160608152602001606081526020016060815260200160608152602001600015158152602001600015158152602001600081525090565b5b808211156155c757600081556001016156a5565b80356001600160a01b03811681146117ae57600080fd5b803580151581146117ae57600080fd5b600082601f8301126156f0578081fd5b81356157036156fe82616600565b6165d0565b818152846020838601011115615717578283fd5b816020850160208301379081016020019190915292915050565b600060208284031215615742578081fd5b61574b826156b9565b9392505050565b60008060008060808587031215615767578283fd5b615770856156b9565b935060208501356001600160401b038082111561578b578485fd5b615797888389016156e0565b945060408701359150808211156157ac578384fd5b6157b8888389016156e0565b935060608701359150808211156157cd578283fd5b506157da878288016156e0565b91505092959194509250565b600080600080600060a086880312156157fd578081fd5b615806866156b9565b945060208601356001600160401b0380821115615821578283fd5b61582d89838a016156e0565b95506040880135915080821115615842578283fd5b61584e89838a016156e0565b94506060880135915080821115615863578283fd5b61586f89838a016156e0565b93506080880135915080821115615884578283fd5b50615891888289016156e0565b9150509295509295909350565b6000806000806000806000806000806101408b8d0312156158bd578485fd5b6158c68b6156b9565b995060208b01356001600160401b03808211156158e1578687fd5b6158ed8e838f016156e0565b9a5060408d0135915080821115615902578687fd5b61590e8e838f016156e0565b995060608d0135915080821115615923578687fd5b61592f8e838f016156e0565b985060808d0135915080821115615944578687fd5b6159508e838f016156e0565b975060a08d0135915080821115615965578687fd5b6159718e838f016156e0565b965060c08d0135915080821115615986578586fd5b6159928e838f016156e0565b955060e08d01359150808211156159a7578485fd5b6159b38e838f016156e0565b94506101008d01359150808211156159c9578384fd5b506159d68d828e016156e0565b9250506159e66101208c016156d0565b90509295989b9194979a5092959850565b60006020808385031215615a09578182fd5b82356001600160401b0380821115615a1f578384fd5b818501915085601f830112615a32578384fd5b813581811115615a4457615a44616705565b615a52848260051b016165d0565b81815284810190848601875b84811015615bf0578135870161016080601f19838f03011215615a7f578a8bfd5b615a88816165d0565b8a83013589811115615a98578c8dfd5b615aa68f8d838701016156e0565b825250604083013589811115615aba578c8dfd5b615ac88f8d838701016156e0565b8c83015250606083013589811115615ade578c8dfd5b615aec8f8d838701016156e0565b604083015250608083013589811115615b03578c8dfd5b615b118f8d838701016156e0565b60608301525060a083013589811115615b28578c8dfd5b615b368f8d838701016156e0565b60808301525060c083013589811115615b4d578c8dfd5b615b5b8f8d838701016156e0565b60a08301525060e083013589811115615b72578c8dfd5b615b808f8d838701016156e0565b60c08301525061010083013589811115615b98578c8dfd5b615ba68f8d838701016156e0565b60e083015250610120615bba8185016156d0565b610100830152610140615bce8186016156d0565b9183019190915291909201359082015284529287019290870190600101615a5e565b50909998505050505050505050565b600060208284031215615c10578081fd5b81356001600160401b03811115615c25578182fd5b615c31848285016156e0565b949350505050565b600060208284031215615c4a578081fd5b81516001600160401b03811115615c5f578182fd5b8201601f81018413615c6f578182fd5b8051615c7d6156fe82616600565b818152856020838501011115615c91578384fd5b615ca2826020830160208601616656565b95945050505050565b60008060408385031215615cbd578182fd5b82356001600160401b0380821115615cd3578384fd5b615cdf868387016156e0565b93506020850135915080821115615cf4578283fd5b50615d01858286016156e0565b9150509250929050565b600080600060608486031215615d1f578081fd5b83356001600160401b0380821115615d35578283fd5b615d41878388016156e0565b94506020860135915080821115615d56578283fd5b615d62878388016156e0565b93506040860135915080821115615d77578283fd5b50615d84868287016156e0565b9150509250925092565b60008060008060808587031215615da3578182fd5b84356001600160401b0380821115615db9578384fd5b615dc5888389016156e0565b9550602087013591508082111561578b578384fd5b60008060008060008060008060006101208a8c031215615df8578283fd5b89356001600160401b0380821115615e0e578485fd5b615e1a8d838e016156e0565b9a5060208c0135915080821115615e2f578485fd5b615e3b8d838e016156e0565b995060408c0135915080821115615e50578485fd5b615e5c8d838e016156e0565b985060608c0135915080821115615e71578485fd5b615e7d8d838e016156e0565b975060808c0135915080821115615e92578485fd5b615e9e8d838e016156e0565b965060a08c0135915080821115615eb3578485fd5b615ebf8d838e016156e0565b955060c08c0135915080821115615ed4578485fd5b615ee08d838e016156e0565b945060e08c0135915080821115615ef5578384fd5b50615f028c828d016156e0565b925050615f126101008b016156d0565b90509295985092959850929598565b60008060408385031215615f33578182fd5b82356001600160401b03811115615f48578283fd5b615f54858286016156e0565b95602094909401359450505050565b600060208284031215615f74578081fd5b5035919050565b60008151808452615f93816020860160208601616656565b601f01601f19169290920160200192915050565b6000815160808452615fbc6080850182615f7b565b905060208301518482036020860152615fd58282615f7b565b91505060408301518482036040860152615fef8282615f7b565b9150506060830151151560608501528091505092915050565b600081516040845261601d6040850182615f7b565b905060208301518482036020860152615ca28282615f7b565b600081516080845261604b6080850182615f7b565b9050602083015184820360208601526160648282615f7b565b9150506040830151848203604086015261607e8282615f7b565b91505060608301518482036060860152615ca28282615f7b565b600061016082518185526160ae82860182615f7b565b915050602083015184820360208601526160c88282615f7b565b915050604083015184820360408601526160e28282615f7b565b915050606083015184820360608601526160fc8282615f7b565b915050608083015184820360808601526161168282615f7b565b91505060a083015184820360a08601526161308282615f7b565b91505060c083015184820360c086015261614a8282615f7b565b91505060e083015184820360e08601526161648282615f7b565b9150506101008084015161617b8287018215159052565b5050610120838101511515908501526101409283015192909301919091525090565b600082516161af818460208701616656565b9190910192915050565b600084516161cb818460208901616656565b91909101928352506020820152604001919050565b60008083546161ee81616699565b60018281168015616206576001811461621757616243565b60ff19841687528287019450616243565b8786526020808720875b8581101561623a5781548a820152908401908201616221565b50505082870194505b50929695505050505050565b600067029ba3ab232b73a160c51b82528251616272816008850160208701616656565b6e20616c72656164792065786973747360881b6008939091019283015250601701919050565b6000602080830181845280855180835260408601915060408160051b8701019250838701855b828110156162ec57603f198886030184526162da858351615fa7565b945092850192908501906001016162be565b5092979650505050505050565b60006020808301818452808551808352604092508286019150828160051b870101848801865b838110156163e257603f1989840301855281516101408151855288820151818a87015261634e82870182615f7b565b91505087820151858203898701526163668282615f7b565b915050606080830151868303828801526163808382615f7b565b6080858101519089015260a0808601519089015260c0808601519089015260e0808601516001600160a01b031690890152610100808601511515908901526101209485015115159490970193909352505050938601939086019060010161631f565b509098975050505050505050565b6000602080830181845280855180835260408601915060408160051b8701019250838701855b828110156162ec57603f19888603018452616432858351615fa7565b94509285019290850190600101616416565b6000602080830181845280855180835260408601915060408160051b8701019250838701855b828110156162ec57603f19888603018452616486858351616098565b9450928501929085019060010161646a565b60006020825261574b6020830184615f7b565b600060208083528184546164be81616699565b808487015260406001808416600081146164df57600181146164f35761651e565b60ff1985168984015260608901955061651e565b898852868820885b858110156165165781548b82018601529083019088016164fb565b8a0184019650505b509398975050505050505050565b60006020825261574b6020830184615fa7565b60006020825261574b6020830184616008565b60006020825261574b6020830184616036565b6000608082526165786080830187616036565b828103602084015261658a8187615fa7565b9050828103604084015261659e8186616098565b905082810360608401526165b28185615fa7565b979650505050505050565b60006020825261574b6020830184616098565b604051601f8201601f191681016001600160401b03811182821017156165f8576165f8616705565b604052919050565b60006001600160401b0382111561661957616619616705565b50601f01601f191660200190565b6000821982111561663a5761663a6166ef565b500190565b600082821015616651576166516166ef565b500390565b60005b83811015616671578181015183820152602001616659565b8381111561212d5750506000910152565b600081616691576166916166ef565b506000190190565b600181811c908216806166ad57607f821691505b602082108114156166ce57634e487b7160e01b600052602260045260246000fd5b50919050565b60006000198214156166e8576166e86166ef565b5060010190565b634e487b7160e01b600052601160045260246000fd5b634e487b7160e01b600052604160045260246000fdfea2646970667358221220640d4a80d28440b3164e110403fa8ee3af5f7d44025af666d0088e0a69a0cf4a64736f6c63430008030033453320313434205875616e2054687579202d204361752047696179202d204861204e6f69207468616d206d7575206769757020766965632048696575207472756f6e672074687563206869656e20636f6e6720746163207665207861792064756e672c207175616e206c7920636163206368756f6e67207472696e682064616f2074616f",
  "immutableReferences": {},
  "source": "// SPDX-License-Identifier: MIT\npragma solidity >=0.7.0 <0.9.0;\n\nimport \"./SetGrade.sol\";\nimport \"./User.sol\";\n\ncontract Certificate is User {\n    struct certificate {\n        uint256 id;\n        string name; //tn bng, bng CNTT hoc TVT\n        string cpa;\n        string grade;\n        uint256 timestamp;\n        uint256 exportTime;\n        uint256 NumOfExports;\n        address issuer;\n        // address recipient; // c cn trng ny khng?\n        bool signed;\n        bool visible;\n    }\n\n    certificate[] certificateList;\n    mapping(string => uint256[]) studentCerts;\n    mapping(string => uint256) studentCertCount;\n    mapping(uint256 => string) idToAddress;\n    uint256 signedCertCount;\n    uint256 visibleCertCount;\n\n    using SetGrade for string;\n    \n    //tao bang chinh thuc cho student\n    function createCertificate(string memory _studentId)\n        public\n        onlyAADepartmentUser\n    {\n        //require(studentCertCount[_studentId] == 0); // ch to c bng cho nhng sinh vin cha c too\n        certificate memory temp;\n        temp.id = certificateList.length;\n        temp.name = idToStudent[_studentId].major;\n        temp.cpa = idToStudent[_studentId].cpa;\n        temp.grade = SetGrade.setGrade(idToStudent[_studentId].cpa);\n        temp.timestamp = block.timestamp;\n        temp.NumOfExports = 0;\n        temp.visible = false;\n\n        certificateList.push(temp);\n        studentCerts[_studentId].push(certificateList.length - 1);\n        idToAddress[certificateList.length - 1] = _studentId;\n        studentCertCount[_studentId] += 1;\n    }\n    \n    //tao bang kep cho student\n     function createDoubleCertificate(string memory _studentId, string memory _name, string memory _cpa)\n        public\n        onlyAADepartmentUser\n    {\n        certificate memory temp;\n        temp.id = certificateList.length;\n        temp.name = _name;\n        temp.cpa = _cpa;\n        temp.grade = SetGrade.setGrade(_cpa);\n        temp.timestamp = block.timestamp;\n        temp.NumOfExports = 0;\n        temp.visible = false;\n\n        certificateList.push(temp);\n        studentCerts[_studentId].push(certificateList.length - 1);\n        idToAddress[certificateList.length - 1] = _studentId;\n        studentCertCount[_studentId] += 1;\n    }\n\n    function getStudentByCert(uint _id) public view returns(student memory){\n        student memory temp = idToStudent[idToAddress[_id]];\n        return temp;\n    }\n\n    function signCertificate(uint256 _index) public onlyCurrentRector {\n        //require(certificateList[_index-1].siged == false); // ch k c nhng chng ch no cha k\n        require(certificateList[_index].signed == false);\n        certificateList[_index].issuer = msg.sender;\n        certificateList[_index].signed = true;\n        certificateList[_index].visible = true;\n\n        signedCertCount++;\n    }\n\n    // hm ny chy lc thng student xem cer cu n\n    function seeMyCertificate()\n        public\n        view\n        onlyStudent\n        returns (certificate[] memory)\n    {\n        string memory studentId = studentDetails[msg.sender].id;\n        certificate[] memory studentCertificates =\n            new certificate[](studentCertCount[studentId]);\n        for (uint256 i = 0; i < studentCertCount[studentId]; i++) {\n            studentCertificates[i] = certificateList[\n                studentCerts[studentId][i]\n            ];\n        }\n        return studentCertificates;\n    }\n\n    function changeCertVisibility(uint256 _index) public onlyStudent {\n        certificateList[_index].visible = !certificateList[_index].visible;\n        if (certificateList[_index].visible) {\n            visibleCertCount++;\n        } else {\n            visibleCertCount--;\n        }\n    }\n\n    // cng ty check cc bng ca 1 sinh vin\n    function seeStudentCerts(string memory _studentId)\n        public\n        view\n        returns (certificate[] memory)\n    {\n        require(companyDetails[msg.sender].isActive == true);\n        uint256 count = studentCerts[_studentId].length;\n        certificate[] memory studentCertificates = new certificate[](count);\n        for (uint256 i = 0; i < studentCerts[_studentId].length; i++) {\n            if (certificateList[studentCerts[_studentId][i]].visible)\n                studentCertificates[i] = certificateList[\n                    studentCerts[_studentId][i]\n                ];\n        }\n        return studentCertificates;\n    }\n\n    // cng ty xem cert cng khai\n    function seeVisibleCerts() public view returns (certificate[] memory) {\n        require(companyDetails[msg.sender].isActive == true);\n        certificate[] memory allVisibleCerts =\n            new certificate[](signedCertCount);\n        uint256 count = 0;\n        for (uint256 i = 0; i < certificateList.length; i++) {\n            if (certificateList[i].visible) {\n                count++;\n                allVisibleCerts[count] = certificateList[i];\n            }\n        }\n        return allVisibleCerts;\n    }\n\n    //nh trng xem ht\n    function seeAllCerts()\n        public\n        view\n        onlyRectorOrAAD\n        returns (certificate[] memory)\n    {\n        return certificateList;\n    }\n}\n",
  "sourcePath": "/Users/hughdo/Desktop/Proj/CertVerificationSystem/contracts/Certificate.sol",
  "compiler": {
    "name": "solc",
    "version": "0.8.3+commit.8d00100c.Emscripten.clang"
  },
  "schemaVersion": "3.3.4",
  "updatedAt": "2021-04-17T18:15:16.598Z",
  "networkType": "ethereum",
  "devdoc": {
    "kind": "dev",
    "methods": {},
    "version": 1
  },
  "userdoc": {
    "kind": "user",
    "methods": {},
    "version": 1
  }
}