{
  "contractName": "Certificate",
  "abi": [
    {
      "inputs": [
        {
          "internalType": "string",
          "name": "_id",
          "type": "string"
        },
        {
          "internalType": "uint256",
          "name": "_nonce",
          "type": "uint256"
        }
      ],
      "name": "activeStudent",
      "outputs": [],
      "stateMutability": "nonpayable",
      "type": "function"
    },
    {
      "inputs": [
        {
          "internalType": "address",
          "name": "_companyAddr",
          "type": "address"
        }
      ],
      "name": "approveCompany",
      "outputs": [],
      "stateMutability": "nonpayable",
      "type": "function"
    },
    {
      "inputs": [
        {
          "internalType": "address",
          "name": "_address",
          "type": "address"
        },
        {
          "internalType": "string",
          "name": "_name",
          "type": "string"
        },
        {
          "internalType": "string",
          "name": "_date",
          "type": "string"
        },
        {
          "internalType": "string",
          "name": "_phone",
          "type": "string"
        }
      ],
      "name": "createAADepartmentUser",
      "outputs": [],
      "stateMutability": "nonpayable",
      "type": "function"
    },
    {
      "inputs": [
        {
          "internalType": "string",
          "name": "_name",
          "type": "string"
        },
        {
          "internalType": "string",
          "name": "_description",
          "type": "string"
        },
        {
          "internalType": "string",
          "name": "_jobInfo",
          "type": "string"
        }
      ],
      "name": "createCompany",
      "outputs": [],
      "stateMutability": "nonpayable",
      "type": "function"
    },
    {
      "inputs": [
        {
          "internalType": "address",
          "name": "_newRectorAddr",
          "type": "address"
        },
        {
          "internalType": "string",
          "name": "_name",
          "type": "string"
        },
        {
          "internalType": "string",
          "name": "_date",
          "type": "string"
        },
        {
          "internalType": "string",
          "name": "_phone",
          "type": "string"
        },
        {
          "internalType": "string",
          "name": "_term",
          "type": "string"
        }
      ],
      "name": "createNewRector",
      "outputs": [],
      "stateMutability": "nonpayable",
      "type": "function"
    },
    {
      "inputs": [
        {
          "internalType": "string",
          "name": "_id",
          "type": "string"
        },
        {
          "internalType": "string",
          "name": "_name",
          "type": "string"
        },
        {
          "internalType": "string",
          "name": "_email",
          "type": "string"
        },
        {
          "internalType": "string",
          "name": "_phone",
          "type": "string"
        },
        {
          "internalType": "string",
          "name": "_class",
          "type": "string"
        },
        {
          "internalType": "string",
          "name": "_major",
          "type": "string"
        },
        {
          "internalType": "string",
          "name": "_cpa",
          "type": "string"
        },
        {
          "internalType": "bool",
          "name": "_qualifiedForGraduation",
          "type": "bool"
        }
      ],
      "name": "createStudent",
      "outputs": [],
      "stateMutability": "nonpayable",
      "type": "function"
    },
    {
      "inputs": [
        {
          "internalType": "address",
          "name": "_address",
          "type": "address"
        }
      ],
      "name": "deactiveAADepartmentUser",
      "outputs": [],
      "stateMutability": "nonpayable",
      "type": "function"
    },
    {
      "inputs": [],
      "name": "getAADepartmentAcc",
      "outputs": [
        {
          "components": [
            {
              "internalType": "string",
              "name": "realAddress",
              "type": "string"
            },
            {
              "internalType": "string",
              "name": "description",
              "type": "string"
            }
          ],
          "internalType": "struct User.AADepartment",
          "name": "",
          "type": "tuple"
        }
      ],
      "stateMutability": "view",
      "type": "function"
    },
    {
      "inputs": [
        {
          "internalType": "address",
          "name": "_userAddress",
          "type": "address"
        }
      ],
      "name": "getAADepartmentUser",
      "outputs": [
        {
          "components": [
            {
              "internalType": "string",
              "name": "name",
              "type": "string"
            },
            {
              "internalType": "string",
              "name": "date",
              "type": "string"
            },
            {
              "internalType": "string",
              "name": "phone",
              "type": "string"
            },
            {
              "internalType": "bool",
              "name": "isActive",
              "type": "bool"
            }
          ],
          "internalType": "struct User.AADUser",
          "name": "",
          "type": "tuple"
        }
      ],
      "stateMutability": "view",
      "type": "function"
    },
    {
      "inputs": [],
      "name": "getAllCompany",
      "outputs": [
        {
          "components": [
            {
              "internalType": "string",
              "name": "name",
              "type": "string"
            },
            {
              "internalType": "string",
              "name": "description",
              "type": "string"
            },
            {
              "internalType": "string",
              "name": "jobInfo",
              "type": "string"
            },
            {
              "internalType": "bool",
              "name": "isActive",
              "type": "bool"
            }
          ],
          "internalType": "struct User.company[]",
          "name": "",
          "type": "tuple[]"
        }
      ],
      "stateMutability": "view",
      "type": "function"
    },
    {
      "inputs": [
        {
          "internalType": "address",
          "name": "_companyAddr",
          "type": "address"
        }
      ],
      "name": "getCompany",
      "outputs": [
        {
          "components": [
            {
              "internalType": "string",
              "name": "name",
              "type": "string"
            },
            {
              "internalType": "string",
              "name": "description",
              "type": "string"
            },
            {
              "internalType": "string",
              "name": "jobInfo",
              "type": "string"
            },
            {
              "internalType": "bool",
              "name": "isActive",
              "type": "bool"
            }
          ],
          "internalType": "struct User.company",
          "name": "",
          "type": "tuple"
        }
      ],
      "stateMutability": "view",
      "type": "function"
    },
    {
      "inputs": [],
      "name": "getCurrentRector",
      "outputs": [
        {
          "components": [
            {
              "internalType": "string",
              "name": "name",
              "type": "string"
            },
            {
              "internalType": "string",
              "name": "date",
              "type": "string"
            },
            {
              "internalType": "string",
              "name": "phone",
              "type": "string"
            },
            {
              "internalType": "string",
              "name": "term",
              "type": "string"
            }
          ],
          "internalType": "struct User.rector",
          "name": "",
          "type": "tuple"
        }
      ],
      "stateMutability": "view",
      "type": "function"
    },
    {
      "inputs": [],
      "name": "getCurrentUser",
      "outputs": [
        {
          "components": [
            {
              "internalType": "string",
              "name": "name",
              "type": "string"
            },
            {
              "internalType": "string",
              "name": "date",
              "type": "string"
            },
            {
              "internalType": "string",
              "name": "phone",
              "type": "string"
            },
            {
              "internalType": "string",
              "name": "term",
              "type": "string"
            }
          ],
          "internalType": "struct User.rector",
          "name": "",
          "type": "tuple"
        },
        {
          "components": [
            {
              "internalType": "string",
              "name": "name",
              "type": "string"
            },
            {
              "internalType": "string",
              "name": "date",
              "type": "string"
            },
            {
              "internalType": "string",
              "name": "phone",
              "type": "string"
            },
            {
              "internalType": "bool",
              "name": "isActive",
              "type": "bool"
            }
          ],
          "internalType": "struct User.AADUser",
          "name": "",
          "type": "tuple"
        },
        {
          "components": [
            {
              "internalType": "string",
              "name": "id",
              "type": "string"
            },
            {
              "internalType": "string",
              "name": "name",
              "type": "string"
            },
            {
              "internalType": "string",
              "name": "email",
              "type": "string"
            },
            {
              "internalType": "string",
              "name": "phone",
              "type": "string"
            },
            {
              "internalType": "string",
              "name": "class",
              "type": "string"
            },
            {
              "internalType": "string",
              "name": "major",
              "type": "string"
            },
            {
              "internalType": "string",
              "name": "cpa",
              "type": "string"
            },
            {
              "internalType": "bool",
              "name": "qualifiedForGraduation",
              "type": "bool"
            },
            {
              "internalType": "bool",
              "name": "isActive",
              "type": "bool"
            },
            {
              "internalType": "uint256",
              "name": "nonce",
              "type": "uint256"
            }
          ],
          "internalType": "struct User.student",
          "name": "",
          "type": "tuple"
        },
        {
          "components": [
            {
              "internalType": "string",
              "name": "name",
              "type": "string"
            },
            {
              "internalType": "string",
              "name": "description",
              "type": "string"
            },
            {
              "internalType": "string",
              "name": "jobInfo",
              "type": "string"
            },
            {
              "internalType": "bool",
              "name": "isActive",
              "type": "bool"
            }
          ],
          "internalType": "struct User.company",
          "name": "",
          "type": "tuple"
        }
      ],
      "stateMutability": "view",
      "type": "function"
    },
    {
      "inputs": [],
      "name": "getCurrentUserRole",
      "outputs": [
        {
          "components": [
            {
              "internalType": "string",
              "name": "id",
              "type": "string"
            },
            {
              "internalType": "string",
              "name": "name",
              "type": "string"
            }
          ],
          "internalType": "struct User.role",
          "name": "",
          "type": "tuple"
        }
      ],
      "stateMutability": "view",
      "type": "function"
    },
    {
      "inputs": [
        {
          "internalType": "address",
          "name": "_studentAddr",
          "type": "address"
        }
      ],
      "name": "getStudentByAddr",
      "outputs": [
        {
          "components": [
            {
              "internalType": "string",
              "name": "id",
              "type": "string"
            },
            {
              "internalType": "string",
              "name": "name",
              "type": "string"
            },
            {
              "internalType": "string",
              "name": "email",
              "type": "string"
            },
            {
              "internalType": "string",
              "name": "phone",
              "type": "string"
            },
            {
              "internalType": "string",
              "name": "class",
              "type": "string"
            },
            {
              "internalType": "string",
              "name": "major",
              "type": "string"
            },
            {
              "internalType": "string",
              "name": "cpa",
              "type": "string"
            },
            {
              "internalType": "bool",
              "name": "qualifiedForGraduation",
              "type": "bool"
            },
            {
              "internalType": "bool",
              "name": "isActive",
              "type": "bool"
            },
            {
              "internalType": "uint256",
              "name": "nonce",
              "type": "uint256"
            }
          ],
          "internalType": "struct User.student",
          "name": "",
          "type": "tuple"
        }
      ],
      "stateMutability": "view",
      "type": "function"
    },
    {
      "inputs": [
        {
          "internalType": "string",
          "name": "_id",
          "type": "string"
        }
      ],
      "name": "getStudentById",
      "outputs": [
        {
          "components": [
            {
              "internalType": "string",
              "name": "id",
              "type": "string"
            },
            {
              "internalType": "string",
              "name": "name",
              "type": "string"
            },
            {
              "internalType": "string",
              "name": "email",
              "type": "string"
            },
            {
              "internalType": "string",
              "name": "phone",
              "type": "string"
            },
            {
              "internalType": "string",
              "name": "class",
              "type": "string"
            },
            {
              "internalType": "string",
              "name": "major",
              "type": "string"
            },
            {
              "internalType": "string",
              "name": "cpa",
              "type": "string"
            },
            {
              "internalType": "bool",
              "name": "qualifiedForGraduation",
              "type": "bool"
            },
            {
              "internalType": "bool",
              "name": "isActive",
              "type": "bool"
            },
            {
              "internalType": "uint256",
              "name": "nonce",
              "type": "uint256"
            }
          ],
          "internalType": "struct User.student",
          "name": "",
          "type": "tuple"
        }
      ],
      "stateMutability": "view",
      "type": "function"
    },
    {
      "inputs": [
        {
          "internalType": "string",
          "name": "_id",
          "type": "string"
        }
      ],
      "name": "getStudentNonce",
      "outputs": [
        {
          "internalType": "uint256",
          "name": "",
          "type": "uint256"
        }
      ],
      "stateMutability": "view",
      "type": "function"
    },
    {
      "inputs": [],
      "name": "gettAllStudent",
      "outputs": [
        {
          "components": [
            {
              "internalType": "string",
              "name": "id",
              "type": "string"
            },
            {
              "internalType": "string",
              "name": "name",
              "type": "string"
            },
            {
              "internalType": "string",
              "name": "email",
              "type": "string"
            },
            {
              "internalType": "string",
              "name": "phone",
              "type": "string"
            },
            {
              "internalType": "string",
              "name": "class",
              "type": "string"
            },
            {
              "internalType": "string",
              "name": "major",
              "type": "string"
            },
            {
              "internalType": "string",
              "name": "cpa",
              "type": "string"
            },
            {
              "internalType": "bool",
              "name": "qualifiedForGraduation",
              "type": "bool"
            },
            {
              "internalType": "bool",
              "name": "isActive",
              "type": "bool"
            },
            {
              "internalType": "uint256",
              "name": "nonce",
              "type": "uint256"
            }
          ],
          "internalType": "struct User.student[]",
          "name": "",
          "type": "tuple[]"
        }
      ],
      "stateMutability": "view",
      "type": "function"
    },
    {
      "inputs": [
        {
          "internalType": "string",
          "name": "_name",
          "type": "string"
        },
        {
          "internalType": "string",
          "name": "_date",
          "type": "string"
        },
        {
          "internalType": "string",
          "name": "_phone",
          "type": "string"
        }
      ],
      "name": "updateAADepartmentUser",
      "outputs": [],
      "stateMutability": "nonpayable",
      "type": "function"
    },
    {
      "inputs": [
        {
          "internalType": "string",
          "name": "_name",
          "type": "string"
        },
        {
          "internalType": "string",
          "name": "_description",
          "type": "string"
        },
        {
          "internalType": "string",
          "name": "_jobInfo",
          "type": "string"
        }
      ],
      "name": "updateCompany",
      "outputs": [],
      "stateMutability": "nonpayable",
      "type": "function"
    },
    {
      "inputs": [
        {
          "internalType": "string",
          "name": "_name",
          "type": "string"
        },
        {
          "internalType": "string",
          "name": "_date",
          "type": "string"
        },
        {
          "internalType": "string",
          "name": "_phone",
          "type": "string"
        },
        {
          "internalType": "string",
          "name": "_term",
          "type": "string"
        }
      ],
      "name": "updateCurrentRector",
      "outputs": [],
      "stateMutability": "nonpayable",
      "type": "function"
    },
    {
      "inputs": [
        {
          "internalType": "string",
          "name": "_email",
          "type": "string"
        },
        {
          "internalType": "string",
          "name": "_phone",
          "type": "string"
        }
      ],
      "name": "updateStudentInfo",
      "outputs": [],
      "stateMutability": "nonpayable",
      "type": "function"
    },
    {
      "inputs": [
        {
          "internalType": "address",
          "name": "_address",
          "type": "address"
        },
        {
          "internalType": "string",
          "name": "_id",
          "type": "string"
        },
        {
          "internalType": "string",
          "name": "_name",
          "type": "string"
        },
        {
          "internalType": "string",
          "name": "_email",
          "type": "string"
        },
        {
          "internalType": "string",
          "name": "_phone",
          "type": "string"
        },
        {
          "internalType": "string",
          "name": "_class",
          "type": "string"
        },
        {
          "internalType": "string",
          "name": "_major",
          "type": "string"
        },
        {
          "internalType": "string",
          "name": "_cpa",
          "type": "string"
        },
        {
          "internalType": "bool",
          "name": "_qualifiedForGraduation",
          "type": "bool"
        }
      ],
      "name": "updateStudentbyAAD",
      "outputs": [],
      "stateMutability": "nonpayable",
      "type": "function"
    },
    {
      "inputs": [
        {
          "internalType": "string",
          "name": "_studentId",
          "type": "string"
        }
      ],
      "name": "createCertificate",
      "outputs": [],
      "stateMutability": "nonpayable",
      "type": "function"
    },
    {
      "inputs": [
        {
          "internalType": "uint256",
          "name": "_index",
          "type": "uint256"
        }
      ],
      "name": "signCertificate",
      "outputs": [],
      "stateMutability": "nonpayable",
      "type": "function"
    },
    {
      "inputs": [],
      "name": "seeMyCertificate",
      "outputs": [
        {
          "components": [
            {
              "internalType": "uint256",
              "name": "id",
              "type": "uint256"
            },
            {
              "internalType": "string",
              "name": "grade",
              "type": "string"
            },
            {
              "internalType": "uint256",
              "name": "timestamp",
              "type": "uint256"
            },
            {
              "internalType": "uint256",
              "name": "exportTime",
              "type": "uint256"
            },
            {
              "internalType": "uint256",
              "name": "NumOfExports",
              "type": "uint256"
            },
            {
              "internalType": "address",
              "name": "issuer",
              "type": "address"
            },
            {
              "internalType": "bool",
              "name": "signed",
              "type": "bool"
            },
            {
              "internalType": "bool",
              "name": "visible",
              "type": "bool"
            }
          ],
          "internalType": "struct Certificate.certificate[]",
          "name": "",
          "type": "tuple[]"
        }
      ],
      "stateMutability": "view",
      "type": "function"
    },
    {
      "inputs": [
        {
          "internalType": "uint256",
          "name": "_index",
          "type": "uint256"
        }
      ],
      "name": "changeCertVisibility",
      "outputs": [],
      "stateMutability": "nonpayable",
      "type": "function"
    },
    {
      "inputs": [
        {
          "internalType": "string",
          "name": "_studentId",
          "type": "string"
        }
      ],
      "name": "seeStudentCerts",
      "outputs": [
        {
          "components": [
            {
              "internalType": "uint256",
              "name": "id",
              "type": "uint256"
            },
            {
              "internalType": "string",
              "name": "grade",
              "type": "string"
            },
            {
              "internalType": "uint256",
              "name": "timestamp",
              "type": "uint256"
            },
            {
              "internalType": "uint256",
              "name": "exportTime",
              "type": "uint256"
            },
            {
              "internalType": "uint256",
              "name": "NumOfExports",
              "type": "uint256"
            },
            {
              "internalType": "address",
              "name": "issuer",
              "type": "address"
            },
            {
              "internalType": "bool",
              "name": "signed",
              "type": "bool"
            },
            {
              "internalType": "bool",
              "name": "visible",
              "type": "bool"
            }
          ],
          "internalType": "struct Certificate.certificate[]",
          "name": "",
          "type": "tuple[]"
        }
      ],
      "stateMutability": "view",
      "type": "function"
    },
    {
      "inputs": [],
      "name": "seeVisibleCerts",
      "outputs": [
        {
          "components": [
            {
              "internalType": "uint256",
              "name": "id",
              "type": "uint256"
            },
            {
              "internalType": "string",
              "name": "grade",
              "type": "string"
            },
            {
              "internalType": "uint256",
              "name": "timestamp",
              "type": "uint256"
            },
            {
              "internalType": "uint256",
              "name": "exportTime",
              "type": "uint256"
            },
            {
              "internalType": "uint256",
              "name": "NumOfExports",
              "type": "uint256"
            },
            {
              "internalType": "address",
              "name": "issuer",
              "type": "address"
            },
            {
              "internalType": "bool",
              "name": "signed",
              "type": "bool"
            },
            {
              "internalType": "bool",
              "name": "visible",
              "type": "bool"
            }
          ],
          "internalType": "struct Certificate.certificate[]",
          "name": "",
          "type": "tuple[]"
        }
      ],
      "stateMutability": "view",
      "type": "function"
    },
    {
      "inputs": [],
      "name": "seeAllCerts",
      "outputs": [
        {
          "components": [
            {
              "internalType": "uint256",
              "name": "id",
              "type": "uint256"
            },
            {
              "internalType": "string",
              "name": "grade",
              "type": "string"
            },
            {
              "internalType": "uint256",
              "name": "timestamp",
              "type": "uint256"
            },
            {
              "internalType": "uint256",
              "name": "exportTime",
              "type": "uint256"
            },
            {
              "internalType": "uint256",
              "name": "NumOfExports",
              "type": "uint256"
            },
            {
              "internalType": "address",
              "name": "issuer",
              "type": "address"
            },
            {
              "internalType": "bool",
              "name": "signed",
              "type": "bool"
            },
            {
              "internalType": "bool",
              "name": "visible",
              "type": "bool"
            }
          ],
          "internalType": "struct Certificate.certificate[]",
          "name": "",
          "type": "tuple[]"
        }
      ],
      "stateMutability": "view",
      "type": "function"
    }
  ],
  "bytecode": "0x60806040523480156200001157600080fd5b506200001c62000036565b620000266200022e565b62000030620003de565b620005a9565b604080516080810182526001818301908152600360fc1b60608301528152815180830190925260068252653932b1ba37b960d11b6020808401919091528082019290925280518051919260009262000092928492019062000442565b506020828101518051620000ad926001850192019062000442565b5050604080516080810182526001818301908152603160f81b606083015281528151808301909252600c82526b105051195c185c9d1b595b9d60a21b6020808401919091528082019290925280518051919350600292620001149284929091019062000442565b5060208281015180516200012f926001850192019062000442565b5050604080516080810182526001818301908152601960f91b60608301528152815180830190925260078252661cdd1d59195b9d60ca1b6020808401919091528082019290925280518051919350600492620001919284929091019062000442565b506020828101518051620001ac926001850192019062000442565b5050604080516080810182526001818301908152603360f81b6060830152815281518083019092526007825266636f6d70616e7960c81b60208084019190915280820192909252805180519193506006926200020e9284929091019062000442565b50602082810151805162000229926001850192019062000442565b505050565b6200025a6040518060800160405280606081526020016060815260200160608152602001606081525090565b604080518082018252601581527f504753205453204e677579656e205669657420486100000000000000000000006020808301919091529083528151808301835260048152630c4e4dcd60e21b818301528382015281518083018352600a80825269181c9c1c989a99191a9960b11b8284015284840191909152825180840184526009815268199c9bdb480c8c0c4d60ba1b818401526060850152336000908152908252919091208251805184936200031892849291019062000442565b50602082810151805162000333926001850192019062000442565b50604082015180516200035191600284019160209091019062000442565b50606082015180516200036f91600384019160209091019062000442565b50503360009081526008602052604081208154919250908190839062000395906200056c565b620003a2929190620004d1565b506001820181600101908054620003b9906200056c565b620003c6929190620004d1565b5050600980546001600160a01b031916331790555050565b604051806060016040528060248152602001620051a76024913980516200040e91600b9160209091019062000442565b50604051806080016040528060608152602001620051cb6060913980516200043f91600c9160209091019062000442565b50565b82805462000450906200056c565b90600052602060002090601f016020900481019282620004745760008555620004bf565b82601f106200048f57805160ff1916838001178555620004bf565b82800160010185558215620004bf579182015b82811115620004bf578251825591602001919060010190620004a2565b50620004cd92915062000555565b5090565b828054620004df906200056c565b90600052602060002090601f016020900481019282620005035760008555620004bf565b82601f10620005165780548555620004bf565b82800160010185558215620004bf57600052602060002091601f016020900482015b82811115620004bf57825482559160010191906001019062000538565b5b80821115620004cd576000815560010162000556565b600181811c908216806200058157607f821691505b60208210811415620005a357634e487b7160e01b600052602260045260246000fd5b50919050565b614bee80620005b96000396000f3fe608060405234801561001057600080fd5b50600436106101da5760003560e01c806375957bc011610104578063bd2456c7116100a2578063e762b04511610071578063e762b045146103f9578063ed7ad82614610401578063eed879eb14610414578063f9e5562914610427576101da565b8063bd2456c7146103ab578063c23fd5a6146103be578063c8059747146103d1578063d6f641cd146103e6576101da565b80638f19aed4116100de5780638f19aed41461035257806393b3298c14610365578063b174ba8214610385578063ba8805f414610398576101da565b806375957bc0146103165780637b60626d1461031e5780637d67d90014610331576101da565b806343ae37c31161017c5780635c6f2e081161014b5780635c6f2e08146102bd57806362bc56e6146102d05780636b5fe4b6146102f05780637444488214610303576101da565b806343ae37c314610277578063498671781461028f5780634b0875e91461029757806357fdb0fa146102aa576101da565b8063106e3ea6116101b8578063106e3ea6146102275780632bd51b661461023c578063388807cf1461024f5780633cf079f014610264576101da565b806308fc4b3d146101df5780630d2393fd146101fd5780630e21e9d014610212575b600080fd5b6101e761043a565b6040516101f491906148f4565b60405180910390f35b610205610901565b6040516101f49190614893565b61021a610b1f565b6040516101f491906147d3565b61023a610235366004613f43565b610d80565b005b61023a61024a366004613f22565b610fb1565b61025761100e565b6040516101f491906149dc565b61023a610272366004613f22565b611163565b61027f6111ae565b6040516101f49493929190614a02565b61021a611696565b61023a6102a53660046142cf565b61181d565b61023a6102b8366004614503565b6118b5565b61023a6102cb3660046142cf565b6119e1565b6102e36102de366004613f22565b611a4f565b6040516101f491906149c9565b61023a6102fe36600461408f565b611c6d565b61023a6103113660046141c3565b611d74565b610257612001565b61023a61032c3660046142cf565b612032565b61034461033f3660046141c3565b61220f565b6040519081526020016101f4565b61023a61036036600461439e565b612274565b610378610373366004613f22565b61256b565b6040516101f49190614a5a565b61023a610393366004614352565b6129cc565b61023a6103a63660046144c1565b612a7f565b6102e36103b9366004613f22565b612e38565b61023a6103cc36600461426f565b613054565b6103d96130d0565b6040516101f491906149ef565b61021a6103f43660046141c3565b61336e565b61021a61368e565b61037861040f3660046141c3565b6139ba565b61023a610422366004613fd7565b6139fe565b61023a610435366004614503565b613b8d565b6009546060906001600160a01b031633148061046d5750336000908152600e602052604090206003015460ff1615156001145b61047657600080fd5b600f805480602002602001604051908101604052809291908181526020016000905b828210156108f85783829060005260206000209060090201604051806101400160405290816000820180546104cc90614b36565b80601f01602080910402602001604051908101604052809291908181526020018280546104f890614b36565b80156105455780601f1061051a57610100808354040283529160200191610545565b820191906000526020600020905b81548152906001019060200180831161052857829003601f168201915b5050505050815260200160018201805461055e90614b36565b80601f016020809104026020016040519081016040528092919081815260200182805461058a90614b36565b80156105d75780601f106105ac576101008083540402835291602001916105d7565b820191906000526020600020905b8154815290600101906020018083116105ba57829003601f168201915b505050505081526020016002820180546105f090614b36565b80601f016020809104026020016040519081016040528092919081815260200182805461061c90614b36565b80156106695780601f1061063e57610100808354040283529160200191610669565b820191906000526020600020905b81548152906001019060200180831161064c57829003601f168201915b5050505050815260200160038201805461068290614b36565b80601f01602080910402602001604051908101604052809291908181526020018280546106ae90614b36565b80156106fb5780601f106106d0576101008083540402835291602001916106fb565b820191906000526020600020905b8154815290600101906020018083116106de57829003601f168201915b5050505050815260200160048201805461071490614b36565b80601f016020809104026020016040519081016040528092919081815260200182805461074090614b36565b801561078d5780601f106107625761010080835404028352916020019161078d565b820191906000526020600020905b81548152906001019060200180831161077057829003601f168201915b505050505081526020016005820180546107a690614b36565b80601f01602080910402602001604051908101604052809291908181526020018280546107d290614b36565b801561081f5780601f106107f45761010080835404028352916020019161081f565b820191906000526020600020905b81548152906001019060200180831161080257829003601f168201915b5050505050815260200160068201805461083890614b36565b80601f016020809104026020016040519081016040528092919081815260200182805461086490614b36565b80156108b15780601f10610886576101008083540402835291602001916108b1565b820191906000526020600020905b81548152906001019060200180831161089457829003601f168201915b5050509183525050600782015460ff808216151560208085019190915261010090920416151560408301526008909201546060909101529082526001929092019101610498565b50505050905090565b60606012805480602002602001604051908101604052809291908181526020016000905b828210156108f8578382906000526020600020906004020160405180608001604052908160008201805461095890614b36565b80601f016020809104026020016040519081016040528092919081815260200182805461098490614b36565b80156109d15780601f106109a6576101008083540402835291602001916109d1565b820191906000526020600020905b8154815290600101906020018083116109b457829003601f168201915b505050505081526020016001820180546109ea90614b36565b80601f0160208091040260200160405190810160405280929190818152602001828054610a1690614b36565b8015610a635780601f10610a3857610100808354040283529160200191610a63565b820191906000526020600020905b815481529060010190602001808311610a4657829003601f168201915b50505050508152602001600282018054610a7c90614b36565b80601f0160208091040260200160405190810160405280929190818152602001828054610aa890614b36565b8015610af55780601f10610aca57610100808354040283529160200191610af5565b820191906000526020600020905b815481529060010190602001808311610ad857829003601f168201915b50505091835250506003919091015460ff1615156020918201529082526001929092019101610925565b3360009081526013602052604090206003015460609060ff161515600114610b4657600080fd5b60006018546001600160401b03811115610b7057634e487b7160e01b600052604160045260246000fd5b604051908082528060200260200182016040528015610ba957816020015b610b96613ced565b815260200190600190039081610b8e5790505b5090506000805b601454811015610d785760148181548110610bdb57634e487b7160e01b600052603260045260246000fd5b906000526020600020906006020160050160159054906101000a900460ff1615610d665781610c0981614b71565b92505060148181548110610c2d57634e487b7160e01b600052603260045260246000fd5b90600052602060002090600602016040518061010001604052908160008201548152602001600182018054610c6190614b36565b80601f0160208091040260200160405190810160405280929190818152602001828054610c8d90614b36565b8015610cda5780601f10610caf57610100808354040283529160200191610cda565b820191906000526020600020905b815481529060010190602001808311610cbd57829003601f168201915b50505091835250506002820154602082015260038201546040820152600482015460608201526005909101546001600160a01b038116608083015260ff600160a01b82048116151560a0840152600160a81b90910416151560c0909101528351849084908110610d5a57634e487b7160e01b600052603260045260246000fd5b60200260200101819052505b80610d7081614b71565b915050610bb0565b509091505090565b6009546001600160a01b0316331480610db05750336000908152600e602052604090206003015460ff1615156001145b610db957600080fd5b6040805160008082526020808301808552835190206001600160a01b038916835260089091529083902087939192610df19201614764565b6040516020818303038152906040528051906020012014610e1157600080fd5b604080516080810182528581526020808201869052918101849052600160608201819052600d80549182018155600052815180519293849360049093027fd7b6990105719101dabeb77144f2a3385c8033acd3af97e9423a695e81ad1eb50192610e7e9284920190613d3f565b506020828101518051610e979260018501920190613d3f565b5060408201518051610eb3916002840191602090910190613d3f565b50606091909101516003909101805460ff19169115159190911790556001600160a01b0386166000908152600e60209081526040909120825180518493610efe928492910190613d3f565b506020828101518051610f179260018501920190613d3f565b5060408201518051610f33916002840191602090910190613d3f565b50606091909101516003909101805460ff19169115159190911790556001600160a01b03861660009081526008602052604090206002805490919081908390610f7b90614b36565b610f86929190613dc3565b506001820181600101908054610f9b90614b36565b610fa6929190613dc3565b505050505050505050565b6009546001600160a01b0316331480610fe15750336000908152600e602052604090206003015460ff1615156001145b610fea57600080fd5b6001600160a01b03166000908152600e60205260409020600301805460ff19169055565b60408051808201909152606080825260208201523360009081526008602052604090819020815180830190925280548290829061104a90614b36565b80601f016020809104026020016040519081016040528092919081815260200182805461107690614b36565b80156110c35780601f10611098576101008083540402835291602001916110c3565b820191906000526020600020905b8154815290600101906020018083116110a657829003601f168201915b505050505081526020016001820180546110dc90614b36565b80601f016020809104026020016040519081016040528092919081815260200182805461110890614b36565b80156111555780601f1061112a57610100808354040283529160200191611155565b820191906000526020600020905b81548152906001019060200180831161113857829003601f168201915b505050505081525050905090565b336000908152600e602052604090206003015460ff16151560011461118757600080fd5b6001600160a01b03166000908152601360205260409020600301805460ff19166001179055565b6111d96040518060800160405280606081526020016060815260200160608152602001606081525090565b61120660405180608001604052806060815260200160608152602001606081526020016000151581525090565b61120e613e3e565b61123b60405180608001604052806060815260200160608152602001606081526020016000151581525090565b604051600360fc1b602082015260210160408051601f1981840301815282825280516020918201203360009081526008835292909220919261127e929101614764565b60405160208183030381529060405280519060200120141561152857336000818152600a60205260409020906112b390612e38565b6112bc3361256b565b6112c533611a4f565b836040518060800160405290816000820180546112e190614b36565b80601f016020809104026020016040519081016040528092919081815260200182805461130d90614b36565b801561135a5780601f1061132f5761010080835404028352916020019161135a565b820191906000526020600020905b81548152906001019060200180831161133d57829003601f168201915b5050505050815260200160018201805461137390614b36565b80601f016020809104026020016040519081016040528092919081815260200182805461139f90614b36565b80156113ec5780601f106113c1576101008083540402835291602001916113ec565b820191906000526020600020905b8154815290600101906020018083116113cf57829003601f168201915b5050505050815260200160028201805461140590614b36565b80601f016020809104026020016040519081016040528092919081815260200182805461143190614b36565b801561147e5780601f106114535761010080835404028352916020019161147e565b820191906000526020600020905b81548152906001019060200180831161146157829003601f168201915b5050505050815260200160038201805461149790614b36565b80601f01602080910402602001604051908101604052809291908181526020018280546114c390614b36565b80156115105780601f106114e557610100808354040283529160200191611510565b820191906000526020600020905b8154815290600101906020018083116114f357829003601f168201915b50505050508152505093509350935093509350611690565b604051603160f81b602082015260210160408051601f1981840301815282825280516020918201203360009081526008835292909220919261156b929101614764565b6040516020818303038152906040528051906020012014156115a057336000818152600a60205260409020906112b390612e38565b604051601960f91b602082015260210160408051601f198184030181528282528051602091820120336000908152600883529290922091926115e3929101614764565b60405160208183030381529060405280519060200120141561161857336000818152600a60205260409020906112b390612e38565b604051603360f81b602082015260210160408051601f1981840301815282825280516020918201203360009081526008835292909220919261165b929101614764565b60405160208183030381529060405280519060200120141561169057336000818152600a60205260409020906112b390612e38565b90919293565b6009546060906001600160a01b03163314806116c95750336000908152600e602052604090206003015460ff1615156001145b6116d257600080fd5b6014805480602002602001604051908101604052809291908181526020016000905b828210156108f85783829060005260206000209060060201604051806101000160405290816000820154815260200160018201805461173290614b36565b80601f016020809104026020016040519081016040528092919081815260200182805461175e90614b36565b80156117ab5780601f10611780576101008083540402835291602001916117ab565b820191906000526020600020905b81548152906001019060200180831161178e57829003601f168201915b5050509183525050600282015460208083019190915260038301546040830152600483015460608301526005909201546001600160a01b038116608083015260ff600160a01b82048116151560a0840152600160a81b90910416151560c09091015290825260019290920191016116f4565b336000908152600e602052604090206003015460ff16151560011461184157600080fd5b336000908152600e60209081526040909120845161186192860190613d3f565b50336000908152600e60209081526040909120835161188892600190920191850190613d3f565b50336000908152600e6020908152604090912082516118af92600290920191840190613d3f565b50505050565b3360009081526010602052604090206007015460ff6101009091041615156001146118df57600080fd5b6014818154811061190057634e487b7160e01b600052603260045260246000fd5b906000526020600020906006020160050160159054906101000a900460ff16156014828154811061194157634e487b7160e01b600052603260045260246000fd5b906000526020600020906006020160050160156101000a81548160ff0219169083151502179055506014818154811061198a57634e487b7160e01b600052603260045260246000fd5b906000526020600020906006020160050160159054906101000a900460ff16156119c857601980549060006119be83614b71565b91905055506119de565b601980549060006119d883614b1f565b91905055505b50565b3360009081526013602090815260409091208451611a0192860190613d3f565b503360009081526013602090815260409091208351611a2892600190920191850190613d3f565b5033600090815260136020908152604090912082516118af92600290920191840190613d3f565b611a7c60405180608001604052806060815260200160608152602001606081526020016000151581525090565b6001600160a01b038216600090815260136020526040808220815160808101909252805482908290611aad90614b36565b80601f0160208091040260200160405190810160405280929190818152602001828054611ad990614b36565b8015611b265780601f10611afb57610100808354040283529160200191611b26565b820191906000526020600020905b815481529060010190602001808311611b0957829003601f168201915b50505050508152602001600182018054611b3f90614b36565b80601f0160208091040260200160405190810160405280929190818152602001828054611b6b90614b36565b8015611bb85780601f10611b8d57610100808354040283529160200191611bb8565b820191906000526020600020905b815481529060010190602001808311611b9b57829003601f168201915b50505050508152602001600282018054611bd190614b36565b80601f0160208091040260200160405190810160405280929190818152602001828054611bfd90614b36565b8015611c4a5780601f10611c1f57610100808354040283529160200191611c4a565b820191906000526020600020905b815481529060010190602001808311611c2d57829003601f168201915b50505091835250506003919091015460ff1615156020909101529150505b919050565b6009546001600160a01b0316331480611c9d5750336000908152600e602052604090206003015460ff1615156001145b611ca657600080fd5b6001600160a01b038916600090815260106020908152604090912089519091611cd39183918c0190613d3f565b508751611ce990600183019060208b0190613d3f565b508651611cff90600283019060208a0190613d3f565b508551611d159060038301906020890190613d3f565b508451611d2b9060048301906020880190613d3f565b508351611d419060058301906020870190613d3f565b508251611d579060068301906020860190613d3f565b50600701805460ff19169115159190911790555050505050505050565b336000908152600e602052604090206003015460ff161515600114611d9857600080fd5b611da0613ced565b73__SetGrade______________________________6397678ad5601184604051611dca9190614721565b90815260200160405180910390206006016040518263ffffffff1660e01b8152600401611df79190614948565b60006040518083038186803b158015611e0f57600080fd5b505af4158015611e23573d6000803e3d6000fd5b505050506040513d6000823e601f3d908101601f19168201604052611e4b91908101906141fd565b602080830191825242604084015260006080840181905260e08401819052601480546001810182559152835160069091027fce6d7b5282bd9a3661ae061feed1dbda4e52ab073b1f9285be6e155d9c38d4ec81019182559251805185949293611ed8937fce6d7b5282bd9a3661ae061feed1dbda4e52ab073b1f9285be6e155d9c38d4ed01920190613d3f565b506040828101516002830155606083015160038301556080830151600483015560a08301516005909201805460c085015160e0909501511515600160a81b0260ff60a81b19951515600160a01b026001600160a81b03199092166001600160a01b039095169490941717939093169190911790915551601590611f5c908490614721565b908152604051908190036020019020601454611f7a90600190614adc565b8154600181810184556000938452602084209091019190915560145484926017929091611fa79190614adc565b81526020019081526020016000209080519060200190611fc8929190613d3f565b506001601683604051611fdb9190614721565b90815260200160405180910390206000828254611ff89190614ac4565b90915550505050565b6040805180820190915260608082526020820152600b60405180604001604052908160008201805461104a90614b36565b60408051600080825260208083018085528351902033808452600890925291849020909391926120629201614764565b604051602081830303815290604052805190602001201461208257600080fd5b604080516080810182528581526020808201869052918101849052600060608201819052601280546001810182559152815180519293849360049093027fbb8a6a4669ba250d26cd7a459eca9d215f8307e33aebe50379bc5a3617ec344401926120ef9284920190613d3f565b5060208281015180516121089260018501920190613d3f565b5060408201518051612124916002840191602090910190613d3f565b50606091909101516003909101805460ff1916911515919091179055336000908152601360209081526040909120825180518493612166928492910190613d3f565b50602082810151805161217f9260018501920190613d3f565b506040820151805161219b916002840191602090910190613d3f565b50606091909101516003909101805460ff191691151591909117905533600090815260086020526040902060068054909190819083906121da90614b36565b6121e5929190613dc3565b5060018201816001019080546121fa90614b36565b612205929190613dc3565b5050505050505050565b6009546000906001600160a01b03163314806122425750336000908152600e602052604090206003015460ff1615156001145b61224b57600080fd5b60118260405161225b9190614721565b9081526020016040518091039020600801549050919050565b336000908152600e602052604090206003015460ff16151560011461229857600080fd5b60006040518061014001604052808a815260200189815260200188815260200187815260200186815260200185815260200184815260200183151581526020016000151581526020018a42446040516020016122f69392919061473d565b60408051601f198184030181529190528051602091820120909152600f805460018101825560009190915282518051939450849360099092027f8d1108e10bcb7c27dddfc02ed9d693a074039d026cf4ea4240b40f7d581ac802019261236192849290910190613d3f565b50602082810151805161237a9260018501920190613d3f565b5060408201518051612396916002840191602090910190613d3f565b50606082015180516123b2916003840191602090910190613d3f565b50608082015180516123ce916004840191602090910190613d3f565b5060a082015180516123ea916005840191602090910190613d3f565b5060c08201518051612406916006840191602090910190613d3f565b5060e08201516007820180546101008086015115150261ff00199315159390931661ffff1990911617919091179055610120909101516008909101556040518190601190612455908c90614721565b9081526020016040518091039020600082015181600001908051906020019061247f929190613d3f565b5060208281015180516124989260018501920190613d3f565b50604082015180516124b4916002840191602090910190613d3f565b50606082015180516124d0916003840191602090910190613d3f565b50608082015180516124ec916004840191602090910190613d3f565b5060a08201518051612508916005840191602090910190613d3f565b5060c08201518051612524916006840191602090910190613d3f565b5060e08201516007820180546101008086015115150261ff00199315159390931661ffff199091161791909117905561012090910151600890910155505050505050505050565b612573613e3e565b6001600160a01b038216600090815260106020526040808220815161014081019092528054829082906125a590614b36565b80601f01602080910402602001604051908101604052809291908181526020018280546125d190614b36565b801561261e5780601f106125f35761010080835404028352916020019161261e565b820191906000526020600020905b81548152906001019060200180831161260157829003601f168201915b5050505050815260200160018201805461263790614b36565b80601f016020809104026020016040519081016040528092919081815260200182805461266390614b36565b80156126b05780601f10612685576101008083540402835291602001916126b0565b820191906000526020600020905b81548152906001019060200180831161269357829003601f168201915b505050505081526020016002820180546126c990614b36565b80601f01602080910402602001604051908101604052809291908181526020018280546126f590614b36565b80156127425780601f1061271757610100808354040283529160200191612742565b820191906000526020600020905b81548152906001019060200180831161272557829003601f168201915b5050505050815260200160038201805461275b90614b36565b80601f016020809104026020016040519081016040528092919081815260200182805461278790614b36565b80156127d45780601f106127a9576101008083540402835291602001916127d4565b820191906000526020600020905b8154815290600101906020018083116127b757829003601f168201915b505050505081526020016004820180546127ed90614b36565b80601f016020809104026020016040519081016040528092919081815260200182805461281990614b36565b80156128665780601f1061283b57610100808354040283529160200191612866565b820191906000526020600020905b81548152906001019060200180831161284957829003601f168201915b5050505050815260200160058201805461287f90614b36565b80601f01602080910402602001604051908101604052809291908181526020018280546128ab90614b36565b80156128f85780601f106128cd576101008083540402835291602001916128f8565b820191906000526020600020905b8154815290600101906020018083116128db57829003601f168201915b5050505050815260200160068201805461291190614b36565b80601f016020809104026020016040519081016040528092919081815260200182805461293d90614b36565b801561298a5780601f1061295f5761010080835404028352916020019161298a565b820191906000526020600020905b81548152906001019060200180831161296d57829003601f168201915b5050509183525050600782015460ff80821615156020840152610100909104161515604082015260089091015460609091015260006101208201529392505050565b6009546001600160a01b031633146129e357600080fd5b336000908152600a602090815260409091208551612a0392870190613d3f565b50336000908152600a602090815260409091208451612a2a92600190920191860190613d3f565b50336000908152600a602090815260409091208351612a5192600290920191850190613d3f565b50336000908152600a602090815260409091208251612a7892600390920191840190613d3f565b5050505050565b6040805160008082526020808301808552835190203380845260089092529184902090939192612aaf9201614764565b6040516020818303038152906040528051906020012014612acf57600080fd5b601183604051612adf9190614721565b9081526020016040518091039020600801548214612afc57600080fd5b601183604051612b0c9190614721565b908152604080516020928190038301902033600090815260109093529120815481908390612b3990614b36565b612b44929190613dc3565b506001820181600101908054612b5990614b36565b612b64929190613dc3565b506002820181600201908054612b7990614b36565b612b84929190613dc3565b506003820181600301908054612b9990614b36565b612ba4929190613dc3565b506004820181600401908054612bb990614b36565b612bc4929190613dc3565b506005820181600501908054612bd990614b36565b612be4929190613dc3565b506006820181600601908054612bf990614b36565b612c04929190613dc3565b5060078281018054918301805460ff938416151560ff19821681178355925461010090819004909416151590930261ff001990921661ffff1990931692909217179055600891820154910155604051600190601190612c64908690614721565b9081526040805160209281900383019020600701805461ff00191661010094151594909402939093179092553360009081526008909152206004805490919081908390612cb090614b36565b612cbb929190613dc3565b506001820181600101908054612cd090614b36565b612cdb929190613dc3565b50905050601183604051612cef9190614721565b908152604080516020928190038301902033600090815260109093529120815481908390612d1c90614b36565b612d27929190613dc3565b506001820181600101908054612d3c90614b36565b612d47929190613dc3565b506002820181600201908054612d5c90614b36565b612d67929190613dc3565b506003820181600301908054612d7c90614b36565b612d87929190613dc3565b506004820181600401908054612d9c90614b36565b612da7929190613dc3565b506005820181600501908054612dbc90614b36565b612dc7929190613dc3565b506006820181600601908054612ddc90614b36565b612de7929190613dc3565b5060078281018054918301805460ff938416151560ff19821681178355925461010090819004909416151590930261ff001990921661ffff1990931692909217179055600891820154910155505050565b612e6560405180608001604052806060815260200160608152602001606081526020016000151581525090565b6001600160a01b0382166000908152600e602052604090819020815160808101909252805482908290612e9790614b36565b80601f0160208091040260200160405190810160405280929190818152602001828054612ec390614b36565b8015612f105780601f10612ee557610100808354040283529160200191612f10565b820191906000526020600020905b815481529060010190602001808311612ef357829003601f168201915b50505050508152602001600182018054612f2990614b36565b80601f0160208091040260200160405190810160405280929190818152602001828054612f5590614b36565b8015612fa25780601f10612f7757610100808354040283529160200191612fa2565b820191906000526020600020905b815481529060010190602001808311612f8557829003601f168201915b50505050508152602001600282018054612fbb90614b36565b80601f0160208091040260200160405190810160405280929190818152602001828054612fe790614b36565b80156130345780601f1061300957610100808354040283529160200191613034565b820191906000526020600020905b81548152906001019060200180831161301757829003601f168201915b50505091835250506003919091015460ff16151560209091015292915050565b3360009081526010602052604090206007015460ff61010090910416151560011461307e57600080fd5b33600090815260106020908152604090912083516130a492600290920191850190613d3f565b5033600090815260106020908152604090912082516130cb92600390920191840190613d3f565b505050565b6130fb6040518060800160405280606081526020016060815260200160608152602001606081525090565b6009546001600160a01b03166000908152600a602052604080822081516080810190925280548290829061312e90614b36565b80601f016020809104026020016040519081016040528092919081815260200182805461315a90614b36565b80156131a75780601f1061317c576101008083540402835291602001916131a7565b820191906000526020600020905b81548152906001019060200180831161318a57829003601f168201915b505050505081526020016001820180546131c090614b36565b80601f01602080910402602001604051908101604052809291908181526020018280546131ec90614b36565b80156132395780601f1061320e57610100808354040283529160200191613239565b820191906000526020600020905b81548152906001019060200180831161321c57829003601f168201915b5050505050815260200160028201805461325290614b36565b80601f016020809104026020016040519081016040528092919081815260200182805461327e90614b36565b80156132cb5780601f106132a0576101008083540402835291602001916132cb565b820191906000526020600020905b8154815290600101906020018083116132ae57829003601f168201915b505050505081526020016003820180546132e490614b36565b80601f016020809104026020016040519081016040528092919081815260200182805461331090614b36565b801561335d5780601f106133325761010080835404028352916020019161335d565b820191906000526020600020905b81548152906001019060200180831161334057829003601f168201915b505050919092525091935050505090565b3360009081526013602052604090206003015460609060ff16151560011461339557600080fd5b60006015836040516133a79190614721565b9081526040519081900360200190205490506000816001600160401b038111156133e157634e487b7160e01b600052604160045260246000fd5b60405190808252806020026020018201604052801561341a57816020015b613407613ced565b8152602001906001900390816133ff5790505b50905060005b6015856040516134309190614721565b908152604051908190036020019020548110156136865760146015866040516134599190614721565b9081526020016040518091039020828154811061348657634e487b7160e01b600052603260045260246000fd5b9060005260206000200154815481106134af57634e487b7160e01b600052603260045260246000fd5b906000526020600020906006020160050160159054906101000a900460ff16156136745760146015866040516134e59190614721565b9081526020016040518091039020828154811061351257634e487b7160e01b600052603260045260246000fd5b90600052602060002001548154811061353b57634e487b7160e01b600052603260045260246000fd5b9060005260206000209060060201604051806101000160405290816000820154815260200160018201805461356f90614b36565b80601f016020809104026020016040519081016040528092919081815260200182805461359b90614b36565b80156135e85780601f106135bd576101008083540402835291602001916135e8565b820191906000526020600020905b8154815290600101906020018083116135cb57829003601f168201915b50505091835250506002820154602082015260038201546040820152600482015460608201526005909101546001600160a01b038116608083015260ff600160a01b82048116151560a0840152600160a81b90910416151560c090910152825183908390811061366857634e487b7160e01b600052603260045260246000fd5b60200260200101819052505b8061367e81614b71565b915050613420565b509392505050565b3360009081526010602052604090206007015460609060ff6101009091041615156001146136bb57600080fd5b33600090815260106020526040812080546136d590614b36565b80601f016020809104026020016040519081016040528092919081815260200182805461370190614b36565b801561374e5780601f106137235761010080835404028352916020019161374e565b820191906000526020600020905b81548152906001019060200180831161373157829003601f168201915b5050505050905060006016826040516137679190614721565b9081526020016040518091039020546001600160401b0381111561379b57634e487b7160e01b600052604160045260246000fd5b6040519080825280602002602001820160405280156137d457816020015b6137c1613ced565b8152602001906001900390816137b95790505b50905060005b6016836040516137ea9190614721565b9081526020016040518091039020548110156139b35760146015846040516138129190614721565b9081526020016040518091039020828154811061383f57634e487b7160e01b600052603260045260246000fd5b90600052602060002001548154811061386857634e487b7160e01b600052603260045260246000fd5b9060005260206000209060060201604051806101000160405290816000820154815260200160018201805461389c90614b36565b80601f01602080910402602001604051908101604052809291908181526020018280546138c890614b36565b80156139155780601f106138ea57610100808354040283529160200191613915565b820191906000526020600020905b8154815290600101906020018083116138f857829003601f168201915b50505091835250506002820154602082015260038201546040820152600482015460608201526005909101546001600160a01b038116608083015260ff600160a01b82048116151560a0840152600160a81b90910416151560c090910152825183908390811061399557634e487b7160e01b600052603260045260246000fd5b602002602001018190525080806139ab90614b71565b9150506137da565b5091505090565b6139c2613e3e565b60006011836040516139d49190614721565b9081526020016040518091039020604051806101400160405290816000820180546125a590614b36565b6009546001600160a01b03163314613a1557600080fd5b6040805160008082526020808301808552835190206001600160a01b038a16835260089091529083902088939192613a4d9201614764565b6040516020818303038152906040528051906020012014613a6d57600080fd5b604080516080810182528681526020808201879052818301869052606082018590526001600160a01b0389166000908152600a8252929092208151805192938493613abb9284920190613d3f565b506020828101518051613ad49260018501920190613d3f565b5060408201518051613af0916002840191602090910190613d3f565b5060608201518051613b0c916003840191602090910190613d3f565b5050506001600160a01b0387166000908152600860205260408120815481908390613b3690614b36565b613b41929190613dc3565b506001820181600101908054613b5690614b36565b613b61929190613dc3565b5050600980546001600160a01b0319166001600160a01b03999099169890981790975550505050505050565b6009546001600160a01b03163314613ba457600080fd5b60148181548110613bc557634e487b7160e01b600052603260045260246000fd5b6000918252602090912060069091020160050154600160a01b900460ff1615613bed57600080fd5b3360148281548110613c0f57634e487b7160e01b600052603260045260246000fd5b906000526020600020906006020160050160006101000a8154816001600160a01b0302191690836001600160a01b03160217905550600160148281548110613c6757634e487b7160e01b600052603260045260246000fd5b906000526020600020906006020160050160146101000a81548160ff021916908315150217905550600160148281548110613cb257634e487b7160e01b600052603260045260246000fd5b6000918252602082206005600690920201018054921515600160a81b0260ff60a81b199093169290921790915560188054916119d883614b71565b604051806101000160405280600081526020016060815260200160008152602001600081526020016000815260200160006001600160a01b031681526020016000151581526020016000151581525090565b828054613d4b90614b36565b90600052602060002090601f016020900481019282613d6d5760008555613db3565b82601f10613d8657805160ff1916838001178555613db3565b82800160010185558215613db3579182015b82811115613db3578251825591602001919060010190613d98565b50613dbf929150613e95565b5090565b828054613dcf90614b36565b90600052602060002090601f016020900481019282613df15760008555613db3565b82601f10613e025780548555613db3565b82800160010185558215613db357600052602060002091601f016020900482015b82811115613db3578254825591600101919060010190613e23565b60405180610140016040528060608152602001606081526020016060815260200160608152602001606081526020016060815260200160608152602001600015158152602001600015158152602001600081525090565b5b80821115613dbf5760008155600101613e96565b80356001600160a01b0381168114611c6857600080fd5b80358015158114611c6857600080fd5b600082601f830112613ee1578081fd5b8135613ef4613eef82614a9d565b614a6d565b818152846020838601011115613f08578283fd5b816020850160208301379081016020019190915292915050565b600060208284031215613f33578081fd5b613f3c82613eaa565b9392505050565b60008060008060808587031215613f58578283fd5b613f6185613eaa565b935060208501356001600160401b0380821115613f7c578485fd5b613f8888838901613ed1565b94506040870135915080821115613f9d578384fd5b613fa988838901613ed1565b93506060870135915080821115613fbe578283fd5b50613fcb87828801613ed1565b91505092959194509250565b600080600080600060a08688031215613fee578081fd5b613ff786613eaa565b945060208601356001600160401b0380821115614012578283fd5b61401e89838a01613ed1565b95506040880135915080821115614033578283fd5b61403f89838a01613ed1565b94506060880135915080821115614054578283fd5b61406089838a01613ed1565b93506080880135915080821115614075578283fd5b5061408288828901613ed1565b9150509295509295909350565b60008060008060008060008060006101208a8c0312156140ad578384fd5b6140b68a613eaa565b985060208a01356001600160401b03808211156140d1578586fd5b6140dd8d838e01613ed1565b995060408c01359150808211156140f2578586fd5b6140fe8d838e01613ed1565b985060608c0135915080821115614113578586fd5b61411f8d838e01613ed1565b975060808c0135915080821115614134578586fd5b6141408d838e01613ed1565b965060a08c0135915080821115614155578586fd5b6141618d838e01613ed1565b955060c08c0135915080821115614176578485fd5b6141828d838e01613ed1565b945060e08c0135915080821115614197578384fd5b506141a48c828d01613ed1565b9250506141b46101008b01613ec1565b90509295985092959850929598565b6000602082840312156141d4578081fd5b81356001600160401b038111156141e9578182fd5b6141f584828501613ed1565b949350505050565b60006020828403121561420e578081fd5b81516001600160401b03811115614223578182fd5b8201601f81018413614233578182fd5b8051614241613eef82614a9d565b818152856020838501011115614255578384fd5b614266826020830160208601614af3565b95945050505050565b60008060408385031215614281578182fd5b82356001600160401b0380821115614297578384fd5b6142a386838701613ed1565b935060208501359150808211156142b8578283fd5b506142c585828601613ed1565b9150509250929050565b6000806000606084860312156142e3578283fd5b83356001600160401b03808211156142f9578485fd5b61430587838801613ed1565b9450602086013591508082111561431a578384fd5b61432687838801613ed1565b9350604086013591508082111561433b578283fd5b5061434886828701613ed1565b9150509250925092565b60008060008060808587031215614367578384fd5b84356001600160401b038082111561437d578586fd5b61438988838901613ed1565b95506020870135915080821115613f7c578485fd5b600080600080600080600080610100898b0312156143ba578384fd5b88356001600160401b03808211156143d0578586fd5b6143dc8c838d01613ed1565b995060208b01359150808211156143f1578586fd5b6143fd8c838d01613ed1565b985060408b0135915080821115614412578586fd5b61441e8c838d01613ed1565b975060608b0135915080821115614433578586fd5b61443f8c838d01613ed1565b965060808b0135915080821115614454578586fd5b6144608c838d01613ed1565b955060a08b0135915080821115614475578485fd5b6144818c838d01613ed1565b945060c08b0135915080821115614496578384fd5b506144a38b828c01613ed1565b9250506144b260e08a01613ec1565b90509295985092959890939650565b600080604083850312156144d3578182fd5b82356001600160401b038111156144e8578283fd5b6144f485828601613ed1565b95602094909401359450505050565b600060208284031215614514578081fd5b5035919050565b60008151808452614533816020860160208601614af3565b601f01601f19169290920160200192915050565b600081516080845261455c608085018261451b565b905060208301518482036020860152614575828261451b565b9150506040830151848203604086015261458f828261451b565b9150506060830151151560608501528091505092915050565b60008151604084526145bd604085018261451b565b905060208301518482036020860152614266828261451b565b60008151608084526145eb608085018261451b565b905060208301518482036020860152614604828261451b565b9150506040830151848203604086015261461e828261451b565b91505060608301518482036060860152614266828261451b565b6000610140825181855261464e8286018261451b565b91505060208301518482036020860152614668828261451b565b91505060408301518482036040860152614682828261451b565b9150506060830151848203606086015261469c828261451b565b915050608083015184820360808601526146b6828261451b565b91505060a083015184820360a08601526146d0828261451b565b91505060c083015184820360c08601526146ea828261451b565b91505060e083015161470060e086018215159052565b50610100838101511515908501526101209283015192909301919091525090565b60008251614733818460208701614af3565b9190910192915050565b6000845161474f818460208901614af3565b91909101928352506020820152604001919050565b600080835461477281614b36565b6001828116801561478a576001811461479b576147c7565b60ff198416875282870194506147c7565b8786526020808720875b858110156147be5781548a8201529084019082016147a5565b50505082870194505b50929695505050505050565b60006020808301818452808551808352604092508286019150828160051b870101848801865b8381101561488557603f1989840301855281516101008151855288820151818a8701526148288287018261451b565b838a0151878b0152606080850151908801526080808501519088015260a0808501516001600160a01b03169088015260c08085015115159088015260e09384015115159390960192909252505093860193908601906001016147f9565b509098975050505050505050565b6000602080830181845280855180835260408601915060408160051b8701019250838701855b828110156148e757603f198886030184526148d5858351614547565b945092850192908501906001016148b9565b5092979650505050505050565b6000602080830181845280855180835260408601915060408160051b8701019250838701855b828110156148e757603f19888603018452614936858351614638565b9450928501929085019060010161491a565b6000602080835281845461495b81614b36565b8084870152604060018084166000811461497c5760018114614990576149bb565b60ff198516898401526060890195506149bb565b898852868820885b858110156149b35781548b8201860152908301908801614998565b8a0184019650505b509398975050505050505050565b600060208252613f3c6020830184614547565b600060208252613f3c60208301846145a8565b600060208252613f3c60208301846145d6565b600060808252614a1560808301876145d6565b8281036020840152614a278187614547565b90508281036040840152614a3b8186614638565b90508281036060840152614a4f8185614547565b979650505050505050565b600060208252613f3c6020830184614638565b604051601f8201601f191681016001600160401b0381118282101715614a9557614a95614ba2565b604052919050565b60006001600160401b03821115614ab657614ab6614ba2565b50601f01601f191660200190565b60008219821115614ad757614ad7614b8c565b500190565b600082821015614aee57614aee614b8c565b500390565b60005b83811015614b0e578181015183820152602001614af6565b838111156118af5750506000910152565b600081614b2e57614b2e614b8c565b506000190190565b600181811c90821680614b4a57607f821691505b60208210811415614b6b57634e487b7160e01b600052602260045260246000fd5b50919050565b6000600019821415614b8557614b85614b8c565b5060010190565b634e487b7160e01b600052601160045260246000fd5b634e487b7160e01b600052604160045260246000fdfea264697066735822122058fff3e306857636991caadc2dfaaea5d9ebec24beb684b96cefac80657077bf64736f6c63430008030033453320313434205875616e2054687579202d204361752047696179202d204861204e6f69207468616d206d7575206769757020766965632048696575207472756f6e672074687563206869656e20636f6e6720746163207665207861792064756e672c207175616e206c7920636163206368756f6e67207472696e682064616f2074616f",
  "immutableReferences": {},
  "source": "// SPDX-License-Identifier: MIT\npragma solidity >=0.7.0 <0.9.0;\n\nimport \"./SetGrade.sol\";\nimport \"./User.sol\";\n\ncontract Certificate is User {\n    struct certificate {\n        uint256 id;\n        string grade;\n        uint256 timestamp;\n        uint256 exportTime;\n        uint256 NumOfExports;\n        address issuer;\n        // address recipient; // c cn trng ny khng?\n        bool signed;\n        bool visible;\n    }\n\n    certificate[] certificateList;\n    mapping(string => uint256[]) studentCerts;\n    mapping(string => uint256) studentCertCount;\n    mapping(uint256 => string) idToAddress;\n    uint256 signedCertCount;\n    uint256 visibleCertCount;\n\n    using SetGrade for string;\n\n    function createCertificate(string memory _studentId)\n        public\n        onlyAADepartmentUser\n    {\n        // require(keccak256(abi.encodePacked(studentCert[_studentAddr].grade)) == keccak256(abi.encodePacked(\"\"))); // ch to c bng cho nhng sinh vin cha c too\n        // mt thng 2 vn bng th sao\n        certificate memory temp;\n        temp.grade = SetGrade.setGrade(idToStudent[_studentId].cpa);\n        temp.timestamp = block.timestamp;\n        temp.NumOfExports = 0;\n        temp.visible = false;\n\n        certificateList.push(temp);\n        studentCerts[_studentId].push(certificateList.length - 1);\n        idToAddress[certificateList.length - 1] = _studentId;\n        studentCertCount[_studentId] += 1;\n    }\n\n    // certificate[] certList;\n    // function getCertificateList() public onlyRectorOrAAD returns(certificate[] memory certList) {\n    //     for (uint i = 1; i < index; i++){\n    //         certList.push(studentCert[idToAddress[i]]);\n    //     }\n    //     return certList;\n    // }\n\n    function signCertificate(uint256 _index) public onlyCurrentRector {\n        //require(certificateList[_index-1].siged == false); // ch k c nhng chng ch no cha k\n        require(certificateList[_index].signed == false);\n        certificateList[_index].issuer = msg.sender;\n        certificateList[_index].signed = true;\n        certificateList[_index].visible = true;\n\n        signedCertCount++;\n        //studentCert[certificateList[_index-1].recipient] = certificateList[_index-1];\n    }\n\n    // hm ny chy lc thng student xem cer cu n\n    function seeMyCertificate()\n        public\n        view\n        onlyStudent\n        returns (certificate[] memory)\n    {\n        string memory studentId = studentDetails[msg.sender].id;\n        certificate[] memory studentCertificates =\n            new certificate[](studentCertCount[studentId]);\n        for (uint256 i = 0; i < studentCertCount[studentId]; i++) {\n            studentCertificates[i] = certificateList[\n                studentCerts[studentId][i]\n            ];\n        }\n        return studentCertificates;\n    }\n\n    function changeCertVisibility(uint256 _index) public onlyStudent {\n        certificateList[_index].visible = !certificateList[_index].visible;\n        if (certificateList[_index].visible) {\n            visibleCertCount++;\n        } else {\n            visibleCertCount--;\n        }\n    }\n\n    // cng ty check cc bng ca 1 sinh vin\n    function seeStudentCerts(string memory _studentId)\n        public\n        view\n        returns (certificate[] memory)\n    {\n        require(companyDetails[msg.sender].isActive == true);\n        uint256 count = studentCerts[_studentId].length;\n        certificate[] memory studentCertificates = new certificate[](count);\n        for (uint256 i = 0; i < studentCerts[_studentId].length; i++) {\n            if (certificateList[studentCerts[_studentId][i]].visible)\n                studentCertificates[i] = certificateList[\n                    studentCerts[_studentId][i]\n                ];\n        }\n        return studentCertificates;\n    }\n\n    // cng ty xem cert cng khai\n    function seeVisibleCerts() public view returns (certificate[] memory) {\n        require(companyDetails[msg.sender].isActive == true);\n        certificate[] memory allVisibleCerts =\n            new certificate[](signedCertCount);\n        uint256 count = 0;\n        for (uint256 i = 0; i < certificateList.length; i++) {\n            if (certificateList[i].visible) {\n                count++;\n                allVisibleCerts[count] = certificateList[i];\n            }\n        }\n        return allVisibleCerts;\n    }\n\n    //nh trng xem ht\n    function seeAllCerts()\n        public\n        view\n        onlyRectorOrAAD\n        returns (certificate[] memory)\n    {\n        return certificateList;\n    }\n}\n",
  "sourcePath": "/Users/hughdo/Desktop/Proj/CertVerificationSystem/contracts/Certificate.sol",
  "compiler": {
    "name": "solc",
    "version": "0.8.3+commit.8d00100c.Emscripten.clang"
  },
  "schemaVersion": "3.3.4",
  "updatedAt": "2021-04-13T07:21:36.416Z",
  "devdoc": {
    "kind": "dev",
    "methods": {},
    "version": 1
  },
  "userdoc": {
    "kind": "user",
    "methods": {},
    "version": 1
  }
}