{
  "contractName": "Certificate",
  "abi": [
    {
      "inputs": [
        {
          "internalType": "contract User",
          "name": "_user",
          "type": "address"
        }
      ],
      "stateMutability": "nonpayable",
      "type": "constructor"
    },
    {
      "inputs": [
        {
          "internalType": "string",
          "name": "_studentId",
          "type": "string"
        }
      ],
      "name": "createCertificate",
      "outputs": [],
      "stateMutability": "nonpayable",
      "type": "function"
    },
    {
      "inputs": [
        {
          "internalType": "string",
          "name": "_studentId",
          "type": "string"
        },
        {
          "internalType": "string",
          "name": "_name",
          "type": "string"
        },
        {
          "internalType": "string",
          "name": "_cpa",
          "type": "string"
        }
      ],
      "name": "createDoubleCertificate",
      "outputs": [],
      "stateMutability": "nonpayable",
      "type": "function"
    },
    {
      "inputs": [
        {
          "internalType": "uint256",
          "name": "_id",
          "type": "uint256"
        }
      ],
      "name": "getStudentByCert",
      "outputs": [
        {
          "components": [
            {
              "internalType": "string",
              "name": "id",
              "type": "string"
            },
            {
              "internalType": "string",
              "name": "name",
              "type": "string"
            },
            {
              "internalType": "string",
              "name": "email",
              "type": "string"
            },
            {
              "internalType": "string",
              "name": "date",
              "type": "string"
            },
            {
              "internalType": "string",
              "name": "phone",
              "type": "string"
            },
            {
              "internalType": "string",
              "name": "class",
              "type": "string"
            },
            {
              "internalType": "string",
              "name": "major",
              "type": "string"
            },
            {
              "internalType": "string",
              "name": "cpa",
              "type": "string"
            },
            {
              "internalType": "bool",
              "name": "qualifiedForGraduation",
              "type": "bool"
            },
            {
              "internalType": "bool",
              "name": "isActive",
              "type": "bool"
            },
            {
              "internalType": "uint256",
              "name": "nonce",
              "type": "uint256"
            }
          ],
          "internalType": "struct Model.student",
          "name": "",
          "type": "tuple"
        }
      ],
      "stateMutability": "view",
      "type": "function",
      "constant": true
    },
    {
      "inputs": [
        {
          "internalType": "string",
          "name": "_studentId",
          "type": "string"
        }
      ],
      "name": "getStudentCertCount",
      "outputs": [
        {
          "internalType": "uint256",
          "name": "",
          "type": "uint256"
        }
      ],
      "stateMutability": "view",
      "type": "function",
      "constant": true
    },
    {
      "inputs": [
        {
          "internalType": "uint256",
          "name": "_index",
          "type": "uint256"
        }
      ],
      "name": "signCertificate",
      "outputs": [],
      "stateMutability": "nonpayable",
      "type": "function"
    },
    {
      "inputs": [],
      "name": "seeMyCertificate",
      "outputs": [
        {
          "components": [
            {
              "internalType": "uint256",
              "name": "id",
              "type": "uint256"
            },
            {
              "internalType": "string",
              "name": "name",
              "type": "string"
            },
            {
              "internalType": "string",
              "name": "cpa",
              "type": "string"
            },
            {
              "internalType": "string",
              "name": "grade",
              "type": "string"
            },
            {
              "internalType": "uint256",
              "name": "timestamp",
              "type": "uint256"
            },
            {
              "internalType": "uint256",
              "name": "exportTime",
              "type": "uint256"
            },
            {
              "internalType": "uint256",
              "name": "NumOfExports",
              "type": "uint256"
            },
            {
              "internalType": "address",
              "name": "issuer",
              "type": "address"
            },
            {
              "internalType": "bool",
              "name": "signed",
              "type": "bool"
            },
            {
              "internalType": "bool",
              "name": "visible",
              "type": "bool"
            }
          ],
          "internalType": "struct Model.certificate[]",
          "name": "",
          "type": "tuple[]"
        }
      ],
      "stateMutability": "view",
      "type": "function",
      "constant": true
    },
    {
      "inputs": [
        {
          "internalType": "uint256",
          "name": "_index",
          "type": "uint256"
        }
      ],
      "name": "changeCertVisibility",
      "outputs": [],
      "stateMutability": "nonpayable",
      "type": "function"
    },
    {
      "inputs": [
        {
          "internalType": "string",
          "name": "_studentId",
          "type": "string"
        }
      ],
      "name": "seeStudentCerts",
      "outputs": [
        {
          "components": [
            {
              "internalType": "uint256",
              "name": "id",
              "type": "uint256"
            },
            {
              "internalType": "string",
              "name": "name",
              "type": "string"
            },
            {
              "internalType": "string",
              "name": "cpa",
              "type": "string"
            },
            {
              "internalType": "string",
              "name": "grade",
              "type": "string"
            },
            {
              "internalType": "uint256",
              "name": "timestamp",
              "type": "uint256"
            },
            {
              "internalType": "uint256",
              "name": "exportTime",
              "type": "uint256"
            },
            {
              "internalType": "uint256",
              "name": "NumOfExports",
              "type": "uint256"
            },
            {
              "internalType": "address",
              "name": "issuer",
              "type": "address"
            },
            {
              "internalType": "bool",
              "name": "signed",
              "type": "bool"
            },
            {
              "internalType": "bool",
              "name": "visible",
              "type": "bool"
            }
          ],
          "internalType": "struct Model.certificate[]",
          "name": "",
          "type": "tuple[]"
        }
      ],
      "stateMutability": "view",
      "type": "function",
      "constant": true
    },
    {
      "inputs": [],
      "name": "seeVisibleCerts",
      "outputs": [
        {
          "components": [
            {
              "internalType": "uint256",
              "name": "id",
              "type": "uint256"
            },
            {
              "internalType": "string",
              "name": "name",
              "type": "string"
            },
            {
              "internalType": "string",
              "name": "cpa",
              "type": "string"
            },
            {
              "internalType": "string",
              "name": "grade",
              "type": "string"
            },
            {
              "internalType": "uint256",
              "name": "timestamp",
              "type": "uint256"
            },
            {
              "internalType": "uint256",
              "name": "exportTime",
              "type": "uint256"
            },
            {
              "internalType": "uint256",
              "name": "NumOfExports",
              "type": "uint256"
            },
            {
              "internalType": "address",
              "name": "issuer",
              "type": "address"
            },
            {
              "internalType": "bool",
              "name": "signed",
              "type": "bool"
            },
            {
              "internalType": "bool",
              "name": "visible",
              "type": "bool"
            }
          ],
          "internalType": "struct Model.certificate[]",
          "name": "",
          "type": "tuple[]"
        }
      ],
      "stateMutability": "view",
      "type": "function",
      "constant": true
    },
    {
      "inputs": [],
      "name": "seeAllCerts",
      "outputs": [
        {
          "components": [
            {
              "internalType": "uint256",
              "name": "id",
              "type": "uint256"
            },
            {
              "internalType": "string",
              "name": "name",
              "type": "string"
            },
            {
              "internalType": "string",
              "name": "cpa",
              "type": "string"
            },
            {
              "internalType": "string",
              "name": "grade",
              "type": "string"
            },
            {
              "internalType": "uint256",
              "name": "timestamp",
              "type": "uint256"
            },
            {
              "internalType": "uint256",
              "name": "exportTime",
              "type": "uint256"
            },
            {
              "internalType": "uint256",
              "name": "NumOfExports",
              "type": "uint256"
            },
            {
              "internalType": "address",
              "name": "issuer",
              "type": "address"
            },
            {
              "internalType": "bool",
              "name": "signed",
              "type": "bool"
            },
            {
              "internalType": "bool",
              "name": "visible",
              "type": "bool"
            }
          ],
          "internalType": "struct Model.certificate[]",
          "name": "",
          "type": "tuple[]"
        }
      ],
      "stateMutability": "view",
      "type": "function",
      "constant": true
    },
    {
      "inputs": [],
      "name": "getAADUser",
      "outputs": [
        {
          "components": [
            {
              "internalType": "string",
              "name": "name",
              "type": "string"
            },
            {
              "internalType": "string",
              "name": "date",
              "type": "string"
            },
            {
              "internalType": "string",
              "name": "phone",
              "type": "string"
            },
            {
              "internalType": "bool",
              "name": "isActive",
              "type": "bool"
            }
          ],
          "internalType": "struct Model.AADUser",
          "name": "",
          "type": "tuple"
        }
      ],
      "stateMutability": "view",
      "type": "function",
      "constant": true
    }
  ],
  "bytecode": "0x60806040523480156200001157600080fd5b5060405162002b6838038062002b6883398101604081905262000034916200005a565b600080546001600160a01b0319166001600160a01b03929092169190911790556200008a565b6000602082840312156200006c578081fd5b81516001600160a01b038116811462000083578182fd5b9392505050565b612ace806200009a6000396000f3fe608060405234801561001057600080fd5b50600436106100a95760003560e01c80637444488211610071578063744448821461011d578063d59f02d414610130578063d6f641cd14610150578063e762b04514610163578063f3ef8e291461016b578063f9e5562914610180576100a9565b80630e21e9d0146100ae57806349867178146100cc57806357fdb0fa146100d4578063669c2d84146100e957806367b1a0d61461010a575b600080fd5b6100b6610193565b6040516100c3919061261e565b60405180910390f35b6100b6610584565b6100e76100e236600461254f565b610925565b005b6100fc6100f7366004612297565b610ba6565b6040519081526020016100c3565b6100e76101183660046122fd565b610bcf565b6100e761012b366004612297565b610ef4565b61014361013e36600461254f565b611324565b6040516100c3919061281a565b6100b661015e366004612297565b61141c565b6100b66118cc565b610173611d6f565b6040516100c391906127a9565b6100e761018e36600461254f565b611e20565b60005460405163f117dd5b60e01b81523360048201526060916001600160a01b03169063f117dd5b9060240160006040518083038186803b1580156101d757600080fd5b505afa1580156101eb573d6000803e3d6000fd5b505050506040513d6000823e601f3d908101601f191682016040526102139190810190612381565b60600151151560011461022557600080fd5b600060055467ffffffffffffffff81111561025057634e487b7160e01b600052604160045260246000fd5b60405190808252806020026020018201604052801561028957816020015b610276612025565b81526020019060019003908161026e5790505b5090506000805b60015481101561057c57600181815481106102bb57634e487b7160e01b600052603260045260246000fd5b906000526020600020906008020160070160159054906101000a900460ff161561056a57816102e981612a51565b9250506001818154811061030d57634e487b7160e01b600052603260045260246000fd5b9060005260206000209060080201604051806101400160405290816000820154815260200160018201805461034190612a16565b80601f016020809104026020016040519081016040528092919081815260200182805461036d90612a16565b80156103ba5780601f1061038f576101008083540402835291602001916103ba565b820191906000526020600020905b81548152906001019060200180831161039d57829003601f168201915b505050505081526020016002820180546103d390612a16565b80601f01602080910402602001604051908101604052809291908181526020018280546103ff90612a16565b801561044c5780601f106104215761010080835404028352916020019161044c565b820191906000526020600020905b81548152906001019060200180831161042f57829003601f168201915b5050505050815260200160038201805461046590612a16565b80601f016020809104026020016040519081016040528092919081815260200182805461049190612a16565b80156104de5780601f106104b3576101008083540402835291602001916104de565b820191906000526020600020905b8154815290600101906020018083116104c157829003601f168201915b50505091835250506004820154602082015260058201546040820152600682015460608201526007909101546001600160a01b038116608083015260ff600160a01b82048116151560a0840152600160a81b90910416151560c090910152835184908490811061055e57634e487b7160e01b600052603260045260246000fd5b60200260200101819052505b8061057481612a51565b915050610290565b509091505090565b60005460408051634f54be9760e11b815290516060926001600160a01b031691639ea97d2e916004808301926020929190829003018186803b1580156105c957600080fd5b505afa1580156105dd573d6000803e3d6000fd5b505050506040513d601f19601f820116820180604052508101906106019190612270565b6001600160a01b0316336001600160a01b031614806106a4575060005460405163bd2456c760e01b81523360048201526001600160a01b039091169063bd2456c79060240160006040518083038186803b15801561065e57600080fd5b505afa158015610672573d6000803e3d6000fd5b505050506040513d6000823e601f3d908101601f1916820160405261069a9190810190612381565b6060015115156001145b6106ad57600080fd5b6001805480602002602001604051908101604052809291908181526020016000905b8282101561091c5783829060005260206000209060080201604051806101400160405290816000820154815260200160018201805461070d90612a16565b80601f016020809104026020016040519081016040528092919081815260200182805461073990612a16565b80156107865780601f1061075b57610100808354040283529160200191610786565b820191906000526020600020905b81548152906001019060200180831161076957829003601f168201915b5050505050815260200160028201805461079f90612a16565b80601f01602080910402602001604051908101604052809291908181526020018280546107cb90612a16565b80156108185780601f106107ed57610100808354040283529160200191610818565b820191906000526020600020905b8154815290600101906020018083116107fb57829003601f168201915b5050505050815260200160038201805461083190612a16565b80601f016020809104026020016040519081016040528092919081815260200182805461085d90612a16565b80156108aa5780601f1061087f576101008083540402835291602001916108aa565b820191906000526020600020905b81548152906001019060200180831161088d57829003601f168201915b5050509183525050600482015460208083019190915260058301546040830152600683015460608301526007909201546001600160a01b038116608083015260ff600160a01b82048116151560a0840152600160a81b90910416151560c09091015290825260019290920191016106cf565b50505050905090565b6000546040516324ecca6360e21b81523360048201526001600160a01b03909116906393b3298c9060240160006040518083038186803b15801561096857600080fd5b505afa15801561097c573d6000803e3d6000fd5b505050506040513d6000823e601f3d908101601f191682016040526109a491908101906123b4565b610120015115156001146109b757600080fd5b80600460008281526020019081526020016000206040516020016109db91906125af565b60408051808303601f190181529082905280516020909101206000546324ecca6360e21b835233600484015290916001600160a01b03909116906393b3298c9060240160006040518083038186803b158015610a3657600080fd5b505afa158015610a4a573d6000803e3d6000fd5b505050506040513d6000823e601f3d908101601f19168201604052610a7291908101906123b4565b51604051610a839190602001612593565b6040516020818303038152906040528051906020012014610aa357600080fd5b60018281548110610ac457634e487b7160e01b600052603260045260246000fd5b906000526020600020906008020160070160159054906101000a900460ff161560018381548110610b0557634e487b7160e01b600052603260045260246000fd5b906000526020600020906008020160070160156101000a81548160ff02191690831515021790555060018281548110610b4e57634e487b7160e01b600052603260045260246000fd5b906000526020600020906008020160070160159054906101000a900460ff1615610b8c5760068054906000610b8283612a51565b9190505550610ba2565b60068054906000610b9c836129ff565b91905055505b5050565b6000600382604051610bb89190612593565b90815260200160405180910390205490505b919050565b60005460405163bd2456c760e01b81523360048201526001600160a01b039091169063bd2456c79060240160006040518083038186803b158015610c1257600080fd5b505afa158015610c26573d6000803e3d6000fd5b505050506040513d6000823e601f3d908101601f19168201604052610c4e9190810190612381565b606001511515600114610c6057600080fd5b610c68612025565b6001548152602081018390526040808201839052516397678ad560e01b815273__SetGrade______________________________906397678ad590610cb1908590600401612715565b60006040518083038186803b158015610cc957600080fd5b505af4158015610cdd573d6000803e3d6000fd5b505050506040513d6000823e601f3d908101601f19168201604052610d0591908101906122ca565b6060820152426080820152600060c0820181905261012082018190526001805480820182559152815160089091027fb10e2d527612073b26eecdfd717e6a320cf44b4afac2b0732d9fcbe2b7fa0cf681019182556020808401518051859493610d94937fb10e2d527612073b26eecdfd717e6a320cf44b4afac2b0732d9fcbe2b7fa0cf7909101920190612085565b5060408201518051610db0916002840191602090910190612085565b5060608201518051610dcc916003840191602090910190612085565b506080820151600482015560a0820151600582015560c0820151600682015560e082015160079091018054610100840151610120909401511515600160a81b0260ff60a81b19941515600160a01b026001600160a81b03199092166001600160a01b03909416939093171792909216179055604051600290610e4f908690612593565b90815260405190819003602001902060018054610e6c91906129b8565b81546001818101845560009384526020842090910191909155805486926004929091610e9891906129b8565b81526020019081526020016000209080519060200190610eb9929190612085565b506001600385604051610ecc9190612593565b90815260200160405180910390206000828254610ee991906129a0565b909155505050505050565b60005460405163bd2456c760e01b81523360048201526001600160a01b039091169063bd2456c79060240160006040518083038186803b158015610f3757600080fd5b505afa158015610f4b573d6000803e3d6000fd5b505050506040513d6000823e601f3d908101601f19168201604052610f739190810190612381565b606001511515600114610f8557600080fd5b610f8d612025565b60015481526000546040516376bd6c1360e11b81526001600160a01b039091169063ed7ad82690610fc2908590600401612715565b60006040518083038186803b158015610fda57600080fd5b505afa158015610fee573d6000803e3d6000fd5b505050506040513d6000823e601f3d908101601f1916820160405261101691908101906123b4565b60c0015160208201526000546040516376bd6c1360e11b81526001600160a01b039091169063ed7ad8269061104f908590600401612715565b60006040518083038186803b15801561106757600080fd5b505afa15801561107b573d6000803e3d6000fd5b505050506040513d6000823e601f3d908101601f191682016040526110a391908101906123b4565b60e001516040808301829052516397678ad560e01b815273__SetGrade______________________________916397678ad5916110e39190600401612715565b60006040518083038186803b1580156110fb57600080fd5b505af415801561110f573d6000803e3d6000fd5b505050506040513d6000823e601f3d908101601f1916820160405261113791908101906122ca565b6060820152426080820152600060c0820181905261012082018190526001805480820182559152815160089091027fb10e2d527612073b26eecdfd717e6a320cf44b4afac2b0732d9fcbe2b7fa0cf6810191825560208084015180518594936111c6937fb10e2d527612073b26eecdfd717e6a320cf44b4afac2b0732d9fcbe2b7fa0cf7909101920190612085565b50604082015180516111e2916002840191602090910190612085565b50606082015180516111fe916003840191602090910190612085565b506080820151600482015560a0820151600582015560c0820151600682015560e082015160079091018054610100840151610120909401511515600160a81b0260ff60a81b19941515600160a01b026001600160a81b03199092166001600160a01b03909416939093171792909216179055604051600290611281908490612593565b9081526040519081900360200190206001805461129e91906129b8565b815460018181018455600093845260208420909101919091558054849260049290916112ca91906129b8565b815260200190815260200160002090805190602001906112eb929190612085565b5060016003836040516112fe9190612593565b9081526020016040518091039020600082825461131b91906129a0565b90915550505050565b6113856040518061016001604052806060815260200160608152602001606081526020016060815260200160608152602001606081526020016060815260200160608152602001600015158152602001600015158152602001600081525090565b6000805483825260046020819052604080842090516376bd6c1360e11b81526001600160a01b039093169263ed7ad826926113c1929101612728565b60006040518083038186803b1580156113d957600080fd5b505afa1580156113ed573d6000803e3d6000fd5b505050506040513d6000823e601f3d908101601f1916820160405261141591908101906123b4565b9392505050565b60005460405163f117dd5b60e01b81523360048201526060916001600160a01b03169063f117dd5b9060240160006040518083038186803b15801561146057600080fd5b505afa158015611474573d6000803e3d6000fd5b505050506040513d6000823e601f3d908101601f1916820160405261149c9190810190612381565b6060015115156001146114ae57600080fd5b60006002836040516114c09190612593565b90815260405190819003602001902054905060008167ffffffffffffffff8111156114fb57634e487b7160e01b600052604160045260246000fd5b60405190808252806020026020018201604052801561153457816020015b611521612025565b8152602001906001900390816115195790505b50905060005b60028560405161154a9190612593565b908152604051908190036020019020548110156118c45760016002866040516115739190612593565b908152602001604051809103902082815481106115a057634e487b7160e01b600052603260045260246000fd5b9060005260206000200154815481106115c957634e487b7160e01b600052603260045260246000fd5b906000526020600020906008020160070160159054906101000a900460ff16156118b25760016002866040516115ff9190612593565b9081526020016040518091039020828154811061162c57634e487b7160e01b600052603260045260246000fd5b90600052602060002001548154811061165557634e487b7160e01b600052603260045260246000fd5b9060005260206000209060080201604051806101400160405290816000820154815260200160018201805461168990612a16565b80601f01602080910402602001604051908101604052809291908181526020018280546116b590612a16565b80156117025780601f106116d757610100808354040283529160200191611702565b820191906000526020600020905b8154815290600101906020018083116116e557829003601f168201915b5050505050815260200160028201805461171b90612a16565b80601f016020809104026020016040519081016040528092919081815260200182805461174790612a16565b80156117945780601f1061176957610100808354040283529160200191611794565b820191906000526020600020905b81548152906001019060200180831161177757829003601f168201915b505050505081526020016003820180546117ad90612a16565b80601f01602080910402602001604051908101604052809291908181526020018280546117d990612a16565b80156118265780601f106117fb57610100808354040283529160200191611826565b820191906000526020600020905b81548152906001019060200180831161180957829003601f168201915b50505091835250506004820154602082015260058201546040820152600682015460608201526007909101546001600160a01b038116608083015260ff600160a01b82048116151560a0840152600160a81b90910416151560c09091015282518390839081106118a657634e487b7160e01b600052603260045260246000fd5b60200260200101819052505b806118bc81612a51565b91505061153a565b509392505050565b6000546040516324ecca6360e21b81523360048201526060916001600160a01b0316906393b3298c9060240160006040518083038186803b15801561191057600080fd5b505afa158015611924573d6000803e3d6000fd5b505050506040513d6000823e601f3d908101601f1916820160405261194c91908101906123b4565b6101200151151560011461195f57600080fd5b600080546040516324ecca6360e21b81523360048201526001600160a01b03909116906393b3298c9060240160006040518083038186803b1580156119a357600080fd5b505afa1580156119b7573d6000803e3d6000fd5b505050506040513d6000823e601f3d908101601f191682016040526119df91908101906123b4565b60000151905060006003826040516119f79190612593565b90815260200160405180910390205467ffffffffffffffff811115611a2c57634e487b7160e01b600052604160045260246000fd5b604051908082528060200260200182016040528015611a6557816020015b611a52612025565b815260200190600190039081611a4a5790505b50905060005b600383604051611a7b9190612593565b908152602001604051809103902054811015611d68576001600284604051611aa39190612593565b90815260200160405180910390208281548110611ad057634e487b7160e01b600052603260045260246000fd5b906000526020600020015481548110611af957634e487b7160e01b600052603260045260246000fd5b90600052602060002090600802016040518061014001604052908160008201548152602001600182018054611b2d90612a16565b80601f0160208091040260200160405190810160405280929190818152602001828054611b5990612a16565b8015611ba65780601f10611b7b57610100808354040283529160200191611ba6565b820191906000526020600020905b815481529060010190602001808311611b8957829003601f168201915b50505050508152602001600282018054611bbf90612a16565b80601f0160208091040260200160405190810160405280929190818152602001828054611beb90612a16565b8015611c385780601f10611c0d57610100808354040283529160200191611c38565b820191906000526020600020905b815481529060010190602001808311611c1b57829003601f168201915b50505050508152602001600382018054611c5190612a16565b80601f0160208091040260200160405190810160405280929190818152602001828054611c7d90612a16565b8015611cca5780601f10611c9f57610100808354040283529160200191611cca565b820191906000526020600020905b815481529060010190602001808311611cad57829003601f168201915b50505091835250506004820154602082015260058201546040820152600682015460608201526007909101546001600160a01b038116608083015260ff600160a01b82048116151560a0840152600160a81b90910416151560c0909101528251839083908110611d4a57634e487b7160e01b600052603260045260246000fd5b60200260200101819052508080611d6090612a51565b915050611a6b565b5091505090565b611d9c60405180608001604052806060815260200160608152602001606081526020016000151581525090565b60005460405163bd2456c760e01b81523360048201526001600160a01b039091169063bd2456c79060240160006040518083038186803b158015611ddf57600080fd5b505afa158015611df3573d6000803e3d6000fd5b505050506040513d6000823e601f3d908101601f19168201604052611e1b9190810190612381565b905090565b60008054906101000a90046001600160a01b03166001600160a01b0316639ea97d2e6040518163ffffffff1660e01b815260040160206040518083038186803b158015611e6c57600080fd5b505afa158015611e80573d6000803e3d6000fd5b505050506040513d601f19601f82011682018060405250810190611ea49190612270565b6001600160a01b0316336001600160a01b031614611ec157600080fd5b60018181548110611ee257634e487b7160e01b600052603260045260246000fd5b6000918252602090912060089091020160070154600160a01b900460ff1615611f0a57600080fd5b3360018281548110611f2c57634e487b7160e01b600052603260045260246000fd5b906000526020600020906008020160070160006101000a8154816001600160a01b0302191690836001600160a01b031602179055506001808281548110611f8357634e487b7160e01b600052603260045260246000fd5b906000526020600020906008020160070160146101000a81548160ff0219169083151502179055506001808281548110611fcd57634e487b7160e01b600052603260045260246000fd5b6000918252602082206007600890920201018054921515600160a81b0260ff60a81b1990931692909217909155600580549161200883612a51565b90915550506006805490600061201d83612a51565b919050555050565b6040518061014001604052806000815260200160608152602001606081526020016060815260200160008152602001600081526020016000815260200160006001600160a01b031681526020016000151581526020016000151581525090565b82805461209190612a16565b90600052602060002090601f0160209004810192826120b357600085556120f9565b82601f106120cc57805160ff19168380011785556120f9565b828001600101855582156120f9579182015b828111156120f95782518255916020019190600101906120de565b50612105929150612109565b5090565b5b80821115612105576000815560010161210a565b80518015158114610bca57600080fd5b600082601f83011261213e578081fd5b813561215161214c82612978565b612947565b818152846020838601011115612165578283fd5b816020850160208301379081016020019190915292915050565b600082601f83011261218f578081fd5b815161219d61214c82612978565b8181528460208386010111156121b1578283fd5b6121c28260208301602087016129cf565b949350505050565b6000608082840312156121db578081fd5b6121e56080612947565b9050815167ffffffffffffffff808211156121ff57600080fd5b61220b8583860161217f565b8352602084015191508082111561222157600080fd5b61222d8583860161217f565b6020840152604084015191508082111561224657600080fd5b506122538482850161217f565b6040830152506122656060830161211e565b606082015292915050565b600060208284031215612281578081fd5b81516001600160a01b0381168114611415578182fd5b6000602082840312156122a8578081fd5b813567ffffffffffffffff8111156122be578182fd5b6121c28482850161212e565b6000602082840312156122db578081fd5b815167ffffffffffffffff8111156122f1578182fd5b6121c28482850161217f565b600080600060608486031215612311578182fd5b833567ffffffffffffffff80821115612328578384fd5b6123348783880161212e565b94506020860135915080821115612349578384fd5b6123558783880161212e565b9350604086013591508082111561236a578283fd5b506123778682870161212e565b9150509250925092565b600060208284031215612392578081fd5b815167ffffffffffffffff8111156123a8578182fd5b6121c2848285016121ca565b6000602082840312156123c5578081fd5b815167ffffffffffffffff808211156123dc578283fd5b81840191506101608083870312156123f2578384fd5b6123fb81612947565b905082518281111561240b578485fd5b6124178782860161217f565b82525060208301518281111561242b578485fd5b6124378782860161217f565b60208301525060408301518281111561244e578485fd5b61245a8782860161217f565b604083015250606083015182811115612471578485fd5b61247d8782860161217f565b606083015250608083015182811115612494578485fd5b6124a08782860161217f565b60808301525060a0830151828111156124b7578485fd5b6124c38782860161217f565b60a08301525060c0830151828111156124da578485fd5b6124e68782860161217f565b60c08301525060e0830151828111156124fd578485fd5b6125098782860161217f565b60e083015250610100915061251f82840161211e565b82820152610120915061253382840161211e565b9181019190915261014091820151918101919091529392505050565b600060208284031215612560578081fd5b5035919050565b6000815180845261257f8160208601602086016129cf565b601f01601f19169290920160200192915050565b600082516125a58184602087016129cf565b9190910192915050565b60008083546125bd81612a16565b600182811680156125d557600181146125e657612612565b60ff19841687528287019450612612565b8786526020808720875b858110156126095781548a8201529084019082016125f0565b50505082870194505b50929695505050505050565b60006020808301818452808551808352604092508286019150828160051b870101848801865b8381101561270757603f1989840301855281516101408151855288820151818a87015261267382870182612567565b915050878201518582038987015261268b8282612567565b915050606080830151868303828801526126a58382612567565b6080858101519089015260a0808601519089015260c0808601519089015260e0808601516001600160a01b0316908901526101008086015115159089015261012094850151151594909701939093525050509386019390860190600101612644565b509098975050505050505050565b6000602082526114156020830184612567565b6000602080835281845461273b81612a16565b8084870152604060018084166000811461275c57600181146127705761279b565b60ff1985168984015260608901955061279b565b898852868820885b858110156127935781548b8201860152908301908801612778565b8a0184019650505b509398975050505050505050565b6000602082528251608060208401526127c560a0840182612567565b90506020840151601f19808584030160408601526127e38383612567565b92506040860151915080858403016060860152506128018282612567565b9150506060840151151560808401528091505092915050565b6000602082528251610160806020850152612839610180850183612567565b91506020850151601f19808685030160408701526128578483612567565b935060408701519150808685030160608701526128748483612567565b935060608701519150808685030160808701526128918483612567565b935060808701519150808685030160a08701526128ae8483612567565b935060a08701519150808685030160c08701526128cb8483612567565b935060c08701519150808685030160e08701526128e88483612567565b935060e087015191506101008187860301818801526129078584612567565b945080880151925050506101206129218187018315159052565b86015190506101406129368682018315159052565b959095015193019290925250919050565b604051601f8201601f1916810167ffffffffffffffff8111828210171561297057612970612a82565b604052919050565b600067ffffffffffffffff82111561299257612992612a82565b50601f01601f191660200190565b600082198211156129b3576129b3612a6c565b500190565b6000828210156129ca576129ca612a6c565b500390565b60005b838110156129ea5781810151838201526020016129d2565b838111156129f9576000848401525b50505050565b600081612a0e57612a0e612a6c565b506000190190565b600181811c90821680612a2a57607f821691505b60208210811415612a4b57634e487b7160e01b600052602260045260246000fd5b50919050565b6000600019821415612a6557612a65612a6c565b5060010190565b634e487b7160e01b600052601160045260246000fd5b634e487b7160e01b600052604160045260246000fdfea26469706673582212206e178d95c1335b56d0f4969a95237f69f3fd195d721ab832c4580a5ac676e23664736f6c63430008030033",
  "immutableReferences": {},
  "source": "// SPDX-License-Identifier: MIT\npragma solidity >=0.7.0 <0.9.0;\n\nimport \"./SetGrade.sol\";\nimport \"./Model.sol\";\nimport \"./User.sol\";\n\ncontract Certificate {\n    User private user;\n\n    constructor(User _user) {\n        user = _user;\n    }\n\n    Model.certificate[] certificateList;\n    mapping(string => uint256[]) studentCerts;\n    mapping(string => uint256) studentCertCount;\n    mapping(uint256 => string) idToStudentId;\n    uint256 signedCertCount;\n    uint256 visibleCertCount;\n\n    using SetGrade for string;\n\n    modifier onlyAADepartmentUser() {\n        require(user.getAADepartmentUser(msg.sender).isActive == true);\n        _;\n    }\n\n    modifier onlyCurrentRector() {\n        require(msg.sender == user.currentRectorAddress());\n        _;\n    }\n\n    modifier onlyStudent() {\n        require(user.getStudentByAddr(msg.sender).isActive == true);\n        _;\n    }\n\n    modifier isCertOwner(uint _id) {\n        require(keccak256(abi.encodePacked(user.getStudentByAddr(msg.sender).id)) == keccak256(abi.encodePacked(idToStudentId[_id])));\n        _;\n    }\n\n    modifier onlyRectorOrAAD() {\n        require(msg.sender == user.currentRectorAddress() || user.getAADepartmentUser(msg.sender).isActive == true);\n        _;\n    }\n\n    //tao bang chinh thuc cho student\n    function createCertificate(string memory _studentId)\n        public\n        onlyAADepartmentUser\n    {\n        //require(studentCertCount[_studentId] == 0); // ch to c bng cho nhng sinh vin cha c too\n        Model.certificate memory temp;\n        temp.id = certificateList.length;\n        temp.name = user.getStudentById(_studentId).major;\n        temp.cpa = user.getStudentById(_studentId).cpa;\n        temp.grade = SetGrade.setGrade(temp.cpa);\n        temp.timestamp = block.timestamp;\n        temp.NumOfExports = 0;\n        temp.visible = false;\n\n        certificateList.push(temp);\n        studentCerts[_studentId].push(certificateList.length - 1);\n        idToStudentId[certificateList.length - 1] = _studentId;\n        studentCertCount[_studentId] += 1;\n    }\n\n    //tao bang kep cho student\n    function createDoubleCertificate(\n        string memory _studentId,\n        string memory _name,\n        string memory _cpa\n    ) public onlyAADepartmentUser {\n        Model.certificate memory temp;\n        temp.id = certificateList.length;\n        temp.name = _name;\n        temp.cpa = _cpa;\n        temp.grade = SetGrade.setGrade(_cpa);\n        temp.timestamp = block.timestamp;\n        temp.NumOfExports = 0;\n        temp.visible = false;\n\n        certificateList.push(temp);\n        studentCerts[_studentId].push(certificateList.length - 1);\n        idToStudentId[certificateList.length - 1] = _studentId;\n        studentCertCount[_studentId] += 1;\n    }\n\n    function getStudentByCert(uint256 _id)\n        public\n        view\n        returns (Model.student memory)\n    {\n        Model.student memory temp = user.getStudentById(idToStudentId[_id]);\n        return temp;\n    }\n\n    function getStudentCertCount(string memory _studentId) public view returns(uint) {\n        return studentCertCount[_studentId];\n    }\n\n    function signCertificate(uint256 _index) public onlyCurrentRector {\n        //require(certificateList[_index-1].siged == false); // ch k c nhng chng ch no cha k\n        require(certificateList[_index].signed == false);\n        certificateList[_index].issuer = msg.sender;\n        certificateList[_index].signed = true;\n        certificateList[_index].visible = true;\n\n        signedCertCount++;\n        visibleCertCount++;\n    }\n\n    // hm ny chy lc thng student xem cer cu n\n    function seeMyCertificate()\n        public\n        view\n        onlyStudent\n        returns (Model.certificate[] memory)\n    {\n        string memory studentId = user.getStudentByAddr(msg.sender).id;\n        Model.certificate[] memory studentCertificates =\n            new Model.certificate[](studentCertCount[studentId]);\n        for (uint256 i = 0; i < studentCertCount[studentId]; i++) {\n            studentCertificates[i] = certificateList[\n                studentCerts[studentId][i]\n            ];\n        }\n        return studentCertificates;\n    }\n\n    function changeCertVisibility(uint256 _index) public onlyStudent isCertOwner(_index) {\n        certificateList[_index].visible = !certificateList[_index].visible;\n        if (certificateList[_index].visible) {\n            visibleCertCount++;\n        } else {\n            visibleCertCount--;\n        }\n    }\n\n    // cng ty check cc bng ca 1 sinh vin\n    function seeStudentCerts(string memory _studentId)\n        public\n        view\n        returns (Model.certificate[] memory)\n    {\n        require(user.getCompanyByAddress(msg.sender).isActive == true);\n        uint256 count = studentCerts[_studentId].length;\n        Model.certificate[] memory studentCertificates = new Model.certificate[](count);\n        for (uint256 i = 0; i < studentCerts[_studentId].length; i++) {\n            if (certificateList[studentCerts[_studentId][i]].visible)\n                studentCertificates[i] = certificateList[\n                    studentCerts[_studentId][i]\n                ];\n        }\n        return studentCertificates;\n    }\n\n    // cng ty xem cert cng khai\n    function seeVisibleCerts() public view returns (Model.certificate[] memory) {\n        require(user.getCompanyByAddress(msg.sender).isActive == true);\n        Model.certificate[] memory allVisibleCerts =\n            new Model.certificate[](signedCertCount);\n        uint256 count = 0;\n        for (uint256 i = 0; i < certificateList.length; i++) {\n            if (certificateList[i].visible) {\n                count++;\n                allVisibleCerts[count] = certificateList[i];\n            }\n        }\n        return allVisibleCerts;\n    }\n\n    //nh trng xem ht\n    function seeAllCerts()\n        public\n        view\n        onlyRectorOrAAD\n        returns (Model.certificate[] memory)\n    {\n        return certificateList;\n    }\n\n    function getAADUser() public view returns (Model.AADUser memory){\n        return user.getAADepartmentUser(msg.sender);\n    }\n}\n",
  "sourcePath": "/Users/hughdo/Desktop/Proj/CertVerificationSystem/contracts/Certificate.sol",
  "compiler": {
    "name": "solc",
    "version": "0.8.3+commit.8d00100c.Emscripten.clang"
  },
  "schemaVersion": "3.3.4",
  "updatedAt": "2021-04-22T04:05:26.668Z",
  "networkType": "ethereum",
  "devdoc": {
    "kind": "dev",
    "methods": {},
    "version": 1
  },
  "userdoc": {
    "kind": "user",
    "methods": {},
    "version": 1
  }
}