{
  "contractName": "Certificate",
  "abi": [
    {
      "inputs": [
        {
          "internalType": "string",
          "name": "_id",
          "type": "string"
        },
        {
          "internalType": "uint256",
          "name": "_nonce",
          "type": "uint256"
        }
      ],
      "name": "activeStudent",
      "outputs": [],
      "stateMutability": "nonpayable",
      "type": "function"
    },
    {
      "inputs": [
        {
          "internalType": "uint256",
          "name": "_companyId",
          "type": "uint256"
        }
      ],
      "name": "approveCompany",
      "outputs": [],
      "stateMutability": "nonpayable",
      "type": "function"
    },
    {
      "inputs": [
        {
          "internalType": "address",
          "name": "_address",
          "type": "address"
        },
        {
          "internalType": "string",
          "name": "_name",
          "type": "string"
        },
        {
          "internalType": "string",
          "name": "_date",
          "type": "string"
        },
        {
          "internalType": "string",
          "name": "_phone",
          "type": "string"
        }
      ],
      "name": "createAADepartmentUser",
      "outputs": [],
      "stateMutability": "nonpayable",
      "type": "function"
    },
    {
      "inputs": [
        {
          "internalType": "string",
          "name": "_name",
          "type": "string"
        },
        {
          "internalType": "string",
          "name": "_description",
          "type": "string"
        },
        {
          "internalType": "string",
          "name": "_jobInfo",
          "type": "string"
        }
      ],
      "name": "createCompany",
      "outputs": [],
      "stateMutability": "nonpayable",
      "type": "function"
    },
    {
      "inputs": [
        {
          "internalType": "address",
          "name": "_newRectorAddr",
          "type": "address"
        },
        {
          "internalType": "string",
          "name": "_name",
          "type": "string"
        },
        {
          "internalType": "string",
          "name": "_date",
          "type": "string"
        },
        {
          "internalType": "string",
          "name": "_phone",
          "type": "string"
        },
        {
          "internalType": "string",
          "name": "_term",
          "type": "string"
        }
      ],
      "name": "createNewRector",
      "outputs": [],
      "stateMutability": "nonpayable",
      "type": "function"
    },
    {
      "inputs": [
        {
          "internalType": "string",
          "name": "_id",
          "type": "string"
        },
        {
          "internalType": "string",
          "name": "_name",
          "type": "string"
        },
        {
          "internalType": "string",
          "name": "_email",
          "type": "string"
        },
        {
          "internalType": "string",
          "name": "_phone",
          "type": "string"
        },
        {
          "internalType": "string",
          "name": "_class",
          "type": "string"
        },
        {
          "internalType": "string",
          "name": "_major",
          "type": "string"
        },
        {
          "internalType": "string",
          "name": "_cpa",
          "type": "string"
        },
        {
          "internalType": "bool",
          "name": "_qualifiedForGraduation",
          "type": "bool"
        }
      ],
      "name": "createStudent",
      "outputs": [],
      "stateMutability": "nonpayable",
      "type": "function"
    },
    {
      "inputs": [
        {
          "internalType": "uint256",
          "name": "_AADUserId",
          "type": "uint256"
        }
      ],
      "name": "deactiveAADepartmentUser",
      "outputs": [],
      "stateMutability": "nonpayable",
      "type": "function"
    },
    {
      "inputs": [],
      "name": "getAADepartmentAcc",
      "outputs": [
        {
          "components": [
            {
              "internalType": "string",
              "name": "realAddress",
              "type": "string"
            },
            {
              "internalType": "string",
              "name": "description",
              "type": "string"
            }
          ],
          "internalType": "struct User.AADepartment",
          "name": "",
          "type": "tuple"
        }
      ],
      "stateMutability": "view",
      "type": "function"
    },
    {
      "inputs": [
        {
          "internalType": "address",
          "name": "_userAddress",
          "type": "address"
        }
      ],
      "name": "getAADepartmentUser",
      "outputs": [
        {
          "components": [
            {
              "internalType": "string",
              "name": "name",
              "type": "string"
            },
            {
              "internalType": "string",
              "name": "date",
              "type": "string"
            },
            {
              "internalType": "string",
              "name": "phone",
              "type": "string"
            },
            {
              "internalType": "bool",
              "name": "isActive",
              "type": "bool"
            }
          ],
          "internalType": "struct User.AADUser",
          "name": "",
          "type": "tuple"
        }
      ],
      "stateMutability": "view",
      "type": "function"
    },
    {
      "inputs": [],
      "name": "getAllAADepartmentUsers",
      "outputs": [
        {
          "components": [
            {
              "internalType": "string",
              "name": "name",
              "type": "string"
            },
            {
              "internalType": "string",
              "name": "date",
              "type": "string"
            },
            {
              "internalType": "string",
              "name": "phone",
              "type": "string"
            },
            {
              "internalType": "bool",
              "name": "isActive",
              "type": "bool"
            }
          ],
          "internalType": "struct User.AADUser[]",
          "name": "",
          "type": "tuple[]"
        }
      ],
      "stateMutability": "view",
      "type": "function"
    },
    {
      "inputs": [],
      "name": "getAllCompany",
      "outputs": [
        {
          "components": [
            {
              "internalType": "string",
              "name": "name",
              "type": "string"
            },
            {
              "internalType": "string",
              "name": "description",
              "type": "string"
            },
            {
              "internalType": "string",
              "name": "jobInfo",
              "type": "string"
            },
            {
              "internalType": "bool",
              "name": "isActive",
              "type": "bool"
            }
          ],
          "internalType": "struct User.company[]",
          "name": "",
          "type": "tuple[]"
        }
      ],
      "stateMutability": "view",
      "type": "function"
    },
    {
      "inputs": [],
      "name": "getAllStudent",
      "outputs": [
        {
          "components": [
            {
              "internalType": "string",
              "name": "id",
              "type": "string"
            },
            {
              "internalType": "string",
              "name": "name",
              "type": "string"
            },
            {
              "internalType": "string",
              "name": "email",
              "type": "string"
            },
            {
              "internalType": "string",
              "name": "phone",
              "type": "string"
            },
            {
              "internalType": "string",
              "name": "class",
              "type": "string"
            },
            {
              "internalType": "string",
              "name": "major",
              "type": "string"
            },
            {
              "internalType": "string",
              "name": "cpa",
              "type": "string"
            },
            {
              "internalType": "bool",
              "name": "qualifiedForGraduation",
              "type": "bool"
            },
            {
              "internalType": "bool",
              "name": "isActive",
              "type": "bool"
            },
            {
              "internalType": "uint256",
              "name": "nonce",
              "type": "uint256"
            }
          ],
          "internalType": "struct User.student[]",
          "name": "",
          "type": "tuple[]"
        }
      ],
      "stateMutability": "view",
      "type": "function"
    },
    {
      "inputs": [
        {
          "internalType": "address",
          "name": "_companyAddr",
          "type": "address"
        }
      ],
      "name": "getCompany",
      "outputs": [
        {
          "components": [
            {
              "internalType": "string",
              "name": "name",
              "type": "string"
            },
            {
              "internalType": "string",
              "name": "description",
              "type": "string"
            },
            {
              "internalType": "string",
              "name": "jobInfo",
              "type": "string"
            },
            {
              "internalType": "bool",
              "name": "isActive",
              "type": "bool"
            }
          ],
          "internalType": "struct User.company",
          "name": "",
          "type": "tuple"
        }
      ],
      "stateMutability": "view",
      "type": "function"
    },
    {
      "inputs": [],
      "name": "getCurrentRector",
      "outputs": [
        {
          "components": [
            {
              "internalType": "string",
              "name": "name",
              "type": "string"
            },
            {
              "internalType": "string",
              "name": "date",
              "type": "string"
            },
            {
              "internalType": "string",
              "name": "phone",
              "type": "string"
            },
            {
              "internalType": "string",
              "name": "term",
              "type": "string"
            }
          ],
          "internalType": "struct User.rector",
          "name": "",
          "type": "tuple"
        }
      ],
      "stateMutability": "view",
      "type": "function"
    },
    {
      "inputs": [],
      "name": "getCurrentUser",
      "outputs": [
        {
          "components": [
            {
              "internalType": "string",
              "name": "name",
              "type": "string"
            },
            {
              "internalType": "string",
              "name": "date",
              "type": "string"
            },
            {
              "internalType": "string",
              "name": "phone",
              "type": "string"
            },
            {
              "internalType": "string",
              "name": "term",
              "type": "string"
            }
          ],
          "internalType": "struct User.rector",
          "name": "",
          "type": "tuple"
        },
        {
          "components": [
            {
              "internalType": "string",
              "name": "name",
              "type": "string"
            },
            {
              "internalType": "string",
              "name": "date",
              "type": "string"
            },
            {
              "internalType": "string",
              "name": "phone",
              "type": "string"
            },
            {
              "internalType": "bool",
              "name": "isActive",
              "type": "bool"
            }
          ],
          "internalType": "struct User.AADUser",
          "name": "",
          "type": "tuple"
        },
        {
          "components": [
            {
              "internalType": "string",
              "name": "id",
              "type": "string"
            },
            {
              "internalType": "string",
              "name": "name",
              "type": "string"
            },
            {
              "internalType": "string",
              "name": "email",
              "type": "string"
            },
            {
              "internalType": "string",
              "name": "phone",
              "type": "string"
            },
            {
              "internalType": "string",
              "name": "class",
              "type": "string"
            },
            {
              "internalType": "string",
              "name": "major",
              "type": "string"
            },
            {
              "internalType": "string",
              "name": "cpa",
              "type": "string"
            },
            {
              "internalType": "bool",
              "name": "qualifiedForGraduation",
              "type": "bool"
            },
            {
              "internalType": "bool",
              "name": "isActive",
              "type": "bool"
            },
            {
              "internalType": "uint256",
              "name": "nonce",
              "type": "uint256"
            }
          ],
          "internalType": "struct User.student",
          "name": "",
          "type": "tuple"
        },
        {
          "components": [
            {
              "internalType": "string",
              "name": "name",
              "type": "string"
            },
            {
              "internalType": "string",
              "name": "description",
              "type": "string"
            },
            {
              "internalType": "string",
              "name": "jobInfo",
              "type": "string"
            },
            {
              "internalType": "bool",
              "name": "isActive",
              "type": "bool"
            }
          ],
          "internalType": "struct User.company",
          "name": "",
          "type": "tuple"
        }
      ],
      "stateMutability": "view",
      "type": "function"
    },
    {
      "inputs": [],
      "name": "getCurrentUserRole",
      "outputs": [
        {
          "components": [
            {
              "internalType": "string",
              "name": "id",
              "type": "string"
            },
            {
              "internalType": "string",
              "name": "name",
              "type": "string"
            }
          ],
          "internalType": "struct User.role",
          "name": "",
          "type": "tuple"
        }
      ],
      "stateMutability": "view",
      "type": "function"
    },
    {
      "inputs": [
        {
          "internalType": "address",
          "name": "_studentAddr",
          "type": "address"
        }
      ],
      "name": "getStudentByAddr",
      "outputs": [
        {
          "components": [
            {
              "internalType": "string",
              "name": "id",
              "type": "string"
            },
            {
              "internalType": "string",
              "name": "name",
              "type": "string"
            },
            {
              "internalType": "string",
              "name": "email",
              "type": "string"
            },
            {
              "internalType": "string",
              "name": "phone",
              "type": "string"
            },
            {
              "internalType": "string",
              "name": "class",
              "type": "string"
            },
            {
              "internalType": "string",
              "name": "major",
              "type": "string"
            },
            {
              "internalType": "string",
              "name": "cpa",
              "type": "string"
            },
            {
              "internalType": "bool",
              "name": "qualifiedForGraduation",
              "type": "bool"
            },
            {
              "internalType": "bool",
              "name": "isActive",
              "type": "bool"
            },
            {
              "internalType": "uint256",
              "name": "nonce",
              "type": "uint256"
            }
          ],
          "internalType": "struct User.student",
          "name": "",
          "type": "tuple"
        }
      ],
      "stateMutability": "view",
      "type": "function"
    },
    {
      "inputs": [
        {
          "internalType": "string",
          "name": "_id",
          "type": "string"
        }
      ],
      "name": "getStudentById",
      "outputs": [
        {
          "components": [
            {
              "internalType": "string",
              "name": "id",
              "type": "string"
            },
            {
              "internalType": "string",
              "name": "name",
              "type": "string"
            },
            {
              "internalType": "string",
              "name": "email",
              "type": "string"
            },
            {
              "internalType": "string",
              "name": "phone",
              "type": "string"
            },
            {
              "internalType": "string",
              "name": "class",
              "type": "string"
            },
            {
              "internalType": "string",
              "name": "major",
              "type": "string"
            },
            {
              "internalType": "string",
              "name": "cpa",
              "type": "string"
            },
            {
              "internalType": "bool",
              "name": "qualifiedForGraduation",
              "type": "bool"
            },
            {
              "internalType": "bool",
              "name": "isActive",
              "type": "bool"
            },
            {
              "internalType": "uint256",
              "name": "nonce",
              "type": "uint256"
            }
          ],
          "internalType": "struct User.student",
          "name": "",
          "type": "tuple"
        }
      ],
      "stateMutability": "view",
      "type": "function"
    },
    {
      "inputs": [
        {
          "internalType": "string",
          "name": "_id",
          "type": "string"
        }
      ],
      "name": "getStudentNonce",
      "outputs": [
        {
          "internalType": "uint256",
          "name": "",
          "type": "uint256"
        }
      ],
      "stateMutability": "view",
      "type": "function"
    },
    {
      "inputs": [
        {
          "internalType": "string",
          "name": "_name",
          "type": "string"
        },
        {
          "internalType": "string",
          "name": "_date",
          "type": "string"
        },
        {
          "internalType": "string",
          "name": "_phone",
          "type": "string"
        }
      ],
      "name": "updateAADepartmentUser",
      "outputs": [],
      "stateMutability": "nonpayable",
      "type": "function"
    },
    {
      "inputs": [
        {
          "internalType": "string",
          "name": "_name",
          "type": "string"
        },
        {
          "internalType": "string",
          "name": "_description",
          "type": "string"
        },
        {
          "internalType": "string",
          "name": "_jobInfo",
          "type": "string"
        }
      ],
      "name": "updateCompany",
      "outputs": [],
      "stateMutability": "nonpayable",
      "type": "function"
    },
    {
      "inputs": [
        {
          "internalType": "string",
          "name": "_name",
          "type": "string"
        },
        {
          "internalType": "string",
          "name": "_date",
          "type": "string"
        },
        {
          "internalType": "string",
          "name": "_phone",
          "type": "string"
        },
        {
          "internalType": "string",
          "name": "_term",
          "type": "string"
        }
      ],
      "name": "updateCurrentRector",
      "outputs": [],
      "stateMutability": "nonpayable",
      "type": "function"
    },
    {
      "inputs": [
        {
          "internalType": "string",
          "name": "_email",
          "type": "string"
        },
        {
          "internalType": "string",
          "name": "_phone",
          "type": "string"
        }
      ],
      "name": "updateStudentInfo",
      "outputs": [],
      "stateMutability": "nonpayable",
      "type": "function"
    },
    {
      "inputs": [
        {
          "internalType": "address",
          "name": "_address",
          "type": "address"
        },
        {
          "internalType": "string",
          "name": "_id",
          "type": "string"
        },
        {
          "internalType": "string",
          "name": "_name",
          "type": "string"
        },
        {
          "internalType": "string",
          "name": "_email",
          "type": "string"
        },
        {
          "internalType": "string",
          "name": "_phone",
          "type": "string"
        },
        {
          "internalType": "string",
          "name": "_class",
          "type": "string"
        },
        {
          "internalType": "string",
          "name": "_major",
          "type": "string"
        },
        {
          "internalType": "string",
          "name": "_cpa",
          "type": "string"
        },
        {
          "internalType": "bool",
          "name": "_qualifiedForGraduation",
          "type": "bool"
        }
      ],
      "name": "updateStudentbyAAD",
      "outputs": [],
      "stateMutability": "nonpayable",
      "type": "function"
    },
    {
      "inputs": [
        {
          "internalType": "string",
          "name": "_studentId",
          "type": "string"
        }
      ],
      "name": "createCertificate",
      "outputs": [],
      "stateMutability": "nonpayable",
      "type": "function"
    },
    {
      "inputs": [
        {
          "internalType": "uint256",
          "name": "_index",
          "type": "uint256"
        }
      ],
      "name": "signCertificate",
      "outputs": [],
      "stateMutability": "nonpayable",
      "type": "function"
    },
    {
      "inputs": [],
      "name": "seeMyCertificate",
      "outputs": [
        {
          "components": [
            {
              "internalType": "uint256",
              "name": "id",
              "type": "uint256"
            },
            {
              "internalType": "string",
              "name": "grade",
              "type": "string"
            },
            {
              "internalType": "uint256",
              "name": "timestamp",
              "type": "uint256"
            },
            {
              "internalType": "uint256",
              "name": "exportTime",
              "type": "uint256"
            },
            {
              "internalType": "uint256",
              "name": "NumOfExports",
              "type": "uint256"
            },
            {
              "internalType": "address",
              "name": "issuer",
              "type": "address"
            },
            {
              "internalType": "bool",
              "name": "signed",
              "type": "bool"
            },
            {
              "internalType": "bool",
              "name": "visible",
              "type": "bool"
            }
          ],
          "internalType": "struct Certificate.certificate[]",
          "name": "",
          "type": "tuple[]"
        }
      ],
      "stateMutability": "view",
      "type": "function"
    },
    {
      "inputs": [
        {
          "internalType": "uint256",
          "name": "_index",
          "type": "uint256"
        }
      ],
      "name": "changeCertVisibility",
      "outputs": [],
      "stateMutability": "nonpayable",
      "type": "function"
    },
    {
      "inputs": [
        {
          "internalType": "string",
          "name": "_studentId",
          "type": "string"
        }
      ],
      "name": "seeStudentCerts",
      "outputs": [
        {
          "components": [
            {
              "internalType": "uint256",
              "name": "id",
              "type": "uint256"
            },
            {
              "internalType": "string",
              "name": "grade",
              "type": "string"
            },
            {
              "internalType": "uint256",
              "name": "timestamp",
              "type": "uint256"
            },
            {
              "internalType": "uint256",
              "name": "exportTime",
              "type": "uint256"
            },
            {
              "internalType": "uint256",
              "name": "NumOfExports",
              "type": "uint256"
            },
            {
              "internalType": "address",
              "name": "issuer",
              "type": "address"
            },
            {
              "internalType": "bool",
              "name": "signed",
              "type": "bool"
            },
            {
              "internalType": "bool",
              "name": "visible",
              "type": "bool"
            }
          ],
          "internalType": "struct Certificate.certificate[]",
          "name": "",
          "type": "tuple[]"
        }
      ],
      "stateMutability": "view",
      "type": "function"
    },
    {
      "inputs": [],
      "name": "seeVisibleCerts",
      "outputs": [
        {
          "components": [
            {
              "internalType": "uint256",
              "name": "id",
              "type": "uint256"
            },
            {
              "internalType": "string",
              "name": "grade",
              "type": "string"
            },
            {
              "internalType": "uint256",
              "name": "timestamp",
              "type": "uint256"
            },
            {
              "internalType": "uint256",
              "name": "exportTime",
              "type": "uint256"
            },
            {
              "internalType": "uint256",
              "name": "NumOfExports",
              "type": "uint256"
            },
            {
              "internalType": "address",
              "name": "issuer",
              "type": "address"
            },
            {
              "internalType": "bool",
              "name": "signed",
              "type": "bool"
            },
            {
              "internalType": "bool",
              "name": "visible",
              "type": "bool"
            }
          ],
          "internalType": "struct Certificate.certificate[]",
          "name": "",
          "type": "tuple[]"
        }
      ],
      "stateMutability": "view",
      "type": "function"
    },
    {
      "inputs": [],
      "name": "seeAllCerts",
      "outputs": [
        {
          "components": [
            {
              "internalType": "uint256",
              "name": "id",
              "type": "uint256"
            },
            {
              "internalType": "string",
              "name": "grade",
              "type": "string"
            },
            {
              "internalType": "uint256",
              "name": "timestamp",
              "type": "uint256"
            },
            {
              "internalType": "uint256",
              "name": "exportTime",
              "type": "uint256"
            },
            {
              "internalType": "uint256",
              "name": "NumOfExports",
              "type": "uint256"
            },
            {
              "internalType": "address",
              "name": "issuer",
              "type": "address"
            },
            {
              "internalType": "bool",
              "name": "signed",
              "type": "bool"
            },
            {
              "internalType": "bool",
              "name": "visible",
              "type": "bool"
            }
          ],
          "internalType": "struct Certificate.certificate[]",
          "name": "",
          "type": "tuple[]"
        }
      ],
      "stateMutability": "view",
      "type": "function"
    }
  ],
  "bytecode": "0x60806040523480156200001157600080fd5b506200001c62000036565b620000266200022e565b62000030620003de565b620005a9565b604080516080810182526001818301908152600360fc1b60608301528152815180830190925260068252653932b1ba37b960d11b6020808401919091528082019290925280518051919260009262000092928492019062000442565b506020828101518051620000ad926001850192019062000442565b5050604080516080810182526001818301908152603160f81b606083015281528151808301909252600c82526b105051195c185c9d1b595b9d60a21b6020808401919091528082019290925280518051919350600292620001149284929091019062000442565b5060208281015180516200012f926001850192019062000442565b5050604080516080810182526001818301908152601960f91b60608301528152815180830190925260078252661cdd1d59195b9d60ca1b6020808401919091528082019290925280518051919350600492620001919284929091019062000442565b506020828101518051620001ac926001850192019062000442565b5050604080516080810182526001818301908152603360f81b6060830152815281518083019092526007825266636f6d70616e7960c81b60208084019190915280820192909252805180519193506006926200020e9284929091019062000442565b50602082810151805162000229926001850192019062000442565b505050565b6200025a6040518060800160405280606081526020016060815260200160608152602001606081525090565b604080518082018252601581527f504753205453204e677579656e205669657420486100000000000000000000006020808301919091529083528151808301835260048152630c4e4dcd60e21b818301528382015281518083018352600a80825269181c9c1c989a99191a9960b11b8284015284840191909152825180840184526009815268199c9bdb480c8c0c4d60ba1b818401526060850152336000908152908252919091208251805184936200031892849291019062000442565b50602082810151805162000333926001850192019062000442565b50604082015180516200035191600284019160209091019062000442565b50606082015180516200036f91600384019160209091019062000442565b50503360009081526008602052604081208154919250908190839062000395906200056c565b620003a2929190620004d1565b506001820181600101908054620003b9906200056c565b620003c6929190620004d1565b5050600980546001600160a01b031916331790555050565b604051806060016040528060248152602001620054596024913980516200040e91600b9160209091019062000442565b506040518060800160405280606081526020016200547d6060913980516200043f91600c9160209091019062000442565b50565b82805462000450906200056c565b90600052602060002090601f016020900481019282620004745760008555620004bf565b82601f106200048f57805160ff1916838001178555620004bf565b82800160010185558215620004bf579182015b82811115620004bf578251825591602001919060010190620004a2565b50620004cd92915062000555565b5090565b828054620004df906200056c565b90600052602060002090601f016020900481019282620005035760008555620004bf565b82601f10620005165780548555620004bf565b82800160010185558215620004bf57600052602060002091601f016020900482015b82811115620004bf57825482559160010191906001019062000538565b5b80821115620004cd576000815560010162000556565b600181811c908216806200058157607f821691505b60208210811415620005a357634e487b7160e01b600052602260045260246000fd5b50919050565b614ea080620005b96000396000f3fe608060405234801561001057600080fd5b50600436106101e55760003560e01c80637d67d9001161010f578063c23fd5a6116100a2578063ed7ad82611610071578063ed7ad8261461040e578063eed879eb14610421578063f9e5562914610434578063fc4a744214610447576101e5565b8063c23fd5a6146103cb578063c8059747146103de578063d6f641cd146103f3578063e762b04514610406576101e5565b8063ad69d7b0116100de578063ad69d7b01461037f578063b174ba8214610392578063ba8805f4146103a5578063bd2456c7146103b8576101e5565b80637d67d900146103165780638cca2ec4146103375780638f19aed41461034c57806393b3298c1461035f576101e5565b80634b0875e9116101875780636b5fe4b6116101565780636b5fe4b6146102d557806374444882146102e857806375957bc0146102fb5780637b60626d14610303576101e5565b80634b0875e91461027c57806357fdb0fa1461028f5780635c6f2e08146102a257806362bc56e6146102b5576101e5565b8063133d0460116101c3578063133d046014610232578063388807cf1461024757806343ae37c31461025c5780634986717814610274576101e5565b80630d2393fd146101ea5780630e21e9d014610208578063106e3ea61461021d575b600080fd5b6101f261045a565b6040516101ff9190614b52565b60405180910390f35b610210610681565b6040516101ff9190614a92565b61023061022b3660046141a1565b6108e2565b005b61023a610b13565b6040516101ff9190614ba6565b61024f610fd1565b6040516101ff9190614c8e565b610264611126565b6040516101ff9493929190614cb4565b61021061160e565b61023061028a36600461452d565b611795565b61023061029d366004614761565b61182d565b6102306102b036600461452d565b611959565b6102c86102c3366004614180565b6119c7565b6040516101ff9190614c7b565b6102306102e33660046142ed565b611be5565b6102306102f6366004614421565b611cec565b61024f611f79565b61023061031136600461452d565b611faa565b610329610324366004614421565b612187565b6040519081526020016101ff565b61033f6121ec565b6040516101ff9190614a31565b61023061035a3660046145fc565b61240a565b61037261036d366004614180565b612701565b6040516101ff9190614d0c565b61023061038d366004614761565b612b62565b6102306103a03660046145b0565b612be3565b6102306103b336600461471f565b612c96565b6102c86103c6366004614180565b61304f565b6102306103d93660046144cd565b61326b565b6103e66132e7565b6040516101ff9190614ca1565b610210610401366004614421565b613585565b6102106138a5565b61037261041c366004614421565b613bd1565b61023061042f366004614235565b613c15565b610230610442366004614761565b613da4565b610230610455366004614761565b613f04565b60606012805480602002602001604051908101604052809291908181526020016000905b8282101561067857838290600052602060002090600402016040518060800160405290816000820180546104b190614de8565b80601f01602080910402602001604051908101604052809291908181526020018280546104dd90614de8565b801561052a5780601f106104ff5761010080835404028352916020019161052a565b820191906000526020600020905b81548152906001019060200180831161050d57829003601f168201915b5050505050815260200160018201805461054390614de8565b80601f016020809104026020016040519081016040528092919081815260200182805461056f90614de8565b80156105bc5780601f10610591576101008083540402835291602001916105bc565b820191906000526020600020905b81548152906001019060200180831161059f57829003601f168201915b505050505081526020016002820180546105d590614de8565b80601f016020809104026020016040519081016040528092919081815260200182805461060190614de8565b801561064e5780601f106106235761010080835404028352916020019161064e565b820191906000526020600020905b81548152906001019060200180831161063157829003601f168201915b50505091835250506003919091015460ff161515602091820152908252600192909201910161047e565b50505050905090565b3360009081526013602052604090206003015460609060ff1615156001146106a857600080fd5b60006018546001600160401b038111156106d257634e487b7160e01b600052604160045260246000fd5b60405190808252806020026020018201604052801561070b57816020015b6106f8613f4b565b8152602001906001900390816106f05790505b5090506000805b6014548110156108da576014818154811061073d57634e487b7160e01b600052603260045260246000fd5b906000526020600020906006020160050160159054906101000a900460ff16156108c8578161076b81614e23565b9250506014818154811061078f57634e487b7160e01b600052603260045260246000fd5b906000526020600020906006020160405180610100016040529081600082015481526020016001820180546107c390614de8565b80601f01602080910402602001604051908101604052809291908181526020018280546107ef90614de8565b801561083c5780601f106108115761010080835404028352916020019161083c565b820191906000526020600020905b81548152906001019060200180831161081f57829003601f168201915b50505091835250506002820154602082015260038201546040820152600482015460608201526005909101546001600160a01b038116608083015260ff600160a01b82048116151560a0840152600160a81b90910416151560c09091015283518490849081106108bc57634e487b7160e01b600052603260045260246000fd5b60200260200101819052505b806108d281614e23565b915050610712565b509091505090565b6009546001600160a01b03163314806109125750336000908152600e602052604090206003015460ff1615156001145b61091b57600080fd5b6040805160008082526020808301808552835190206001600160a01b03891683526008909152908390208793919261095392016149c2565b604051602081830303815290604052805190602001201461097357600080fd5b604080516080810182528581526020808201869052918101849052600160608201819052600d80549182018155600052815180519293849360049093027fd7b6990105719101dabeb77144f2a3385c8033acd3af97e9423a695e81ad1eb501926109e09284920190613f9d565b5060208281015180516109f99260018501920190613f9d565b5060408201518051610a15916002840191602090910190613f9d565b50606091909101516003909101805460ff19169115159190911790556001600160a01b0386166000908152600e60209081526040909120825180518493610a60928492910190613f9d565b506020828101518051610a799260018501920190613f9d565b5060408201518051610a95916002840191602090910190613f9d565b50606091909101516003909101805460ff19169115159190911790556001600160a01b03861660009081526008602052604090206002805490919081908390610add90614de8565b610ae8929190614021565b506001820181600101908054610afd90614de8565b610b08929190614021565b505050505050505050565b6009546060906001600160a01b0316331480610b465750336000908152600e602052604090206003015460ff1615156001145b610b4f57600080fd5b600f805480602002602001604051908101604052809291908181526020016000905b82821015610678578382906000526020600020906009020160405180610140016040529081600082018054610ba590614de8565b80601f0160208091040260200160405190810160405280929190818152602001828054610bd190614de8565b8015610c1e5780601f10610bf357610100808354040283529160200191610c1e565b820191906000526020600020905b815481529060010190602001808311610c0157829003601f168201915b50505050508152602001600182018054610c3790614de8565b80601f0160208091040260200160405190810160405280929190818152602001828054610c6390614de8565b8015610cb05780601f10610c8557610100808354040283529160200191610cb0565b820191906000526020600020905b815481529060010190602001808311610c9357829003601f168201915b50505050508152602001600282018054610cc990614de8565b80601f0160208091040260200160405190810160405280929190818152602001828054610cf590614de8565b8015610d425780601f10610d1757610100808354040283529160200191610d42565b820191906000526020600020905b815481529060010190602001808311610d2557829003601f168201915b50505050508152602001600382018054610d5b90614de8565b80601f0160208091040260200160405190810160405280929190818152602001828054610d8790614de8565b8015610dd45780601f10610da957610100808354040283529160200191610dd4565b820191906000526020600020905b815481529060010190602001808311610db757829003601f168201915b50505050508152602001600482018054610ded90614de8565b80601f0160208091040260200160405190810160405280929190818152602001828054610e1990614de8565b8015610e665780601f10610e3b57610100808354040283529160200191610e66565b820191906000526020600020905b815481529060010190602001808311610e4957829003601f168201915b50505050508152602001600582018054610e7f90614de8565b80601f0160208091040260200160405190810160405280929190818152602001828054610eab90614de8565b8015610ef85780601f10610ecd57610100808354040283529160200191610ef8565b820191906000526020600020905b815481529060010190602001808311610edb57829003601f168201915b50505050508152602001600682018054610f1190614de8565b80601f0160208091040260200160405190810160405280929190818152602001828054610f3d90614de8565b8015610f8a5780601f10610f5f57610100808354040283529160200191610f8a565b820191906000526020600020905b815481529060010190602001808311610f6d57829003601f168201915b5050509183525050600782015460ff808216151560208085019190915261010090920416151560408301526008909201546060909101529082526001929092019101610b71565b60408051808201909152606080825260208201523360009081526008602052604090819020815180830190925280548290829061100d90614de8565b80601f016020809104026020016040519081016040528092919081815260200182805461103990614de8565b80156110865780601f1061105b57610100808354040283529160200191611086565b820191906000526020600020905b81548152906001019060200180831161106957829003601f168201915b5050505050815260200160018201805461109f90614de8565b80601f01602080910402602001604051908101604052809291908181526020018280546110cb90614de8565b80156111185780601f106110ed57610100808354040283529160200191611118565b820191906000526020600020905b8154815290600101906020018083116110fb57829003601f168201915b505050505081525050905090565b6111516040518060800160405280606081526020016060815260200160608152602001606081525090565b61117e60405180608001604052806060815260200160608152602001606081526020016000151581525090565b61118661409c565b6111b360405180608001604052806060815260200160608152602001606081526020016000151581525090565b604051600360fc1b602082015260210160408051601f198184030181528282528051602091820120336000908152600883529290922091926111f69291016149c2565b6040516020818303038152906040528051906020012014156114a057336000818152600a602052604090209061122b9061304f565b61123433612701565b61123d336119c7565b8360405180608001604052908160008201805461125990614de8565b80601f016020809104026020016040519081016040528092919081815260200182805461128590614de8565b80156112d25780601f106112a7576101008083540402835291602001916112d2565b820191906000526020600020905b8154815290600101906020018083116112b557829003601f168201915b505050505081526020016001820180546112eb90614de8565b80601f016020809104026020016040519081016040528092919081815260200182805461131790614de8565b80156113645780601f1061133957610100808354040283529160200191611364565b820191906000526020600020905b81548152906001019060200180831161134757829003601f168201915b5050505050815260200160028201805461137d90614de8565b80601f01602080910402602001604051908101604052809291908181526020018280546113a990614de8565b80156113f65780601f106113cb576101008083540402835291602001916113f6565b820191906000526020600020905b8154815290600101906020018083116113d957829003601f168201915b5050505050815260200160038201805461140f90614de8565b80601f016020809104026020016040519081016040528092919081815260200182805461143b90614de8565b80156114885780601f1061145d57610100808354040283529160200191611488565b820191906000526020600020905b81548152906001019060200180831161146b57829003601f168201915b50505050508152505093509350935093509350611608565b604051603160f81b602082015260210160408051601f198184030181528282528051602091820120336000908152600883529290922091926114e39291016149c2565b60405160208183030381529060405280519060200120141561151857336000818152600a602052604090209061122b9061304f565b604051601960f91b602082015260210160408051601f1981840301815282825280516020918201203360009081526008835292909220919261155b9291016149c2565b60405160208183030381529060405280519060200120141561159057336000818152600a602052604090209061122b9061304f565b604051603360f81b602082015260210160408051601f198184030181528282528051602091820120336000908152600883529290922091926115d39291016149c2565b60405160208183030381529060405280519060200120141561160857336000818152600a602052604090209061122b9061304f565b90919293565b6009546060906001600160a01b03163314806116415750336000908152600e602052604090206003015460ff1615156001145b61164a57600080fd5b6014805480602002602001604051908101604052809291908181526020016000905b82821015610678578382906000526020600020906006020160405180610100016040529081600082015481526020016001820180546116aa90614de8565b80601f01602080910402602001604051908101604052809291908181526020018280546116d690614de8565b80156117235780601f106116f857610100808354040283529160200191611723565b820191906000526020600020905b81548152906001019060200180831161170657829003601f168201915b5050509183525050600282015460208083019190915260038301546040830152600483015460608301526005909201546001600160a01b038116608083015260ff600160a01b82048116151560a0840152600160a81b90910416151560c090910152908252600192909201910161166c565b336000908152600e602052604090206003015460ff1615156001146117b957600080fd5b336000908152600e6020908152604090912084516117d992860190613f9d565b50336000908152600e60209081526040909120835161180092600190920191850190613f9d565b50336000908152600e60209081526040909120825161182792600290920191840190613f9d565b50505050565b3360009081526010602052604090206007015460ff61010090910416151560011461185757600080fd5b6014818154811061187857634e487b7160e01b600052603260045260246000fd5b906000526020600020906006020160050160159054906101000a900460ff1615601482815481106118b957634e487b7160e01b600052603260045260246000fd5b906000526020600020906006020160050160156101000a81548160ff0219169083151502179055506014818154811061190257634e487b7160e01b600052603260045260246000fd5b906000526020600020906006020160050160159054906101000a900460ff1615611940576019805490600061193683614e23565b9190505550611956565b6019805490600061195083614dd1565b91905055505b50565b336000908152601360209081526040909120845161197992860190613f9d565b5033600090815260136020908152604090912083516119a092600190920191850190613f9d565b50336000908152601360209081526040909120825161182792600290920191840190613f9d565b6119f460405180608001604052806060815260200160608152602001606081526020016000151581525090565b6001600160a01b038216600090815260136020526040808220815160808101909252805482908290611a2590614de8565b80601f0160208091040260200160405190810160405280929190818152602001828054611a5190614de8565b8015611a9e5780601f10611a7357610100808354040283529160200191611a9e565b820191906000526020600020905b815481529060010190602001808311611a8157829003601f168201915b50505050508152602001600182018054611ab790614de8565b80601f0160208091040260200160405190810160405280929190818152602001828054611ae390614de8565b8015611b305780601f10611b0557610100808354040283529160200191611b30565b820191906000526020600020905b815481529060010190602001808311611b1357829003601f168201915b50505050508152602001600282018054611b4990614de8565b80601f0160208091040260200160405190810160405280929190818152602001828054611b7590614de8565b8015611bc25780601f10611b9757610100808354040283529160200191611bc2565b820191906000526020600020905b815481529060010190602001808311611ba557829003601f168201915b50505091835250506003919091015460ff1615156020909101529150505b919050565b6009546001600160a01b0316331480611c155750336000908152600e602052604090206003015460ff1615156001145b611c1e57600080fd5b6001600160a01b038916600090815260106020908152604090912089519091611c4b9183918c0190613f9d565b508751611c6190600183019060208b0190613f9d565b508651611c7790600283019060208a0190613f9d565b508551611c8d9060038301906020890190613f9d565b508451611ca39060048301906020880190613f9d565b508351611cb99060058301906020870190613f9d565b508251611ccf9060068301906020860190613f9d565b50600701805460ff19169115159190911790555050505050505050565b336000908152600e602052604090206003015460ff161515600114611d1057600080fd5b611d18613f4b565b73__SetGrade______________________________6397678ad5601184604051611d42919061497f565b90815260200160405180910390206006016040518263ffffffff1660e01b8152600401611d6f9190614bfa565b60006040518083038186803b158015611d8757600080fd5b505af4158015611d9b573d6000803e3d6000fd5b505050506040513d6000823e601f3d908101601f19168201604052611dc3919081019061445b565b602080830191825242604084015260006080840181905260e08401819052601480546001810182559152835160069091027fce6d7b5282bd9a3661ae061feed1dbda4e52ab073b1f9285be6e155d9c38d4ec81019182559251805185949293611e50937fce6d7b5282bd9a3661ae061feed1dbda4e52ab073b1f9285be6e155d9c38d4ed01920190613f9d565b506040828101516002830155606083015160038301556080830151600483015560a08301516005909201805460c085015160e0909501511515600160a81b0260ff60a81b19951515600160a01b026001600160a81b03199092166001600160a01b039095169490941717939093169190911790915551601590611ed490849061497f565b908152604051908190036020019020601454611ef290600190614d8e565b8154600181810184556000938452602084209091019190915560145484926017929091611f1f9190614d8e565b81526020019081526020016000209080519060200190611f40929190613f9d565b506001601683604051611f53919061497f565b90815260200160405180910390206000828254611f709190614d76565b90915550505050565b6040805180820190915260608082526020820152600b60405180604001604052908160008201805461100d90614de8565b6040805160008082526020808301808552835190203380845260089092529184902090939192611fda92016149c2565b6040516020818303038152906040528051906020012014611ffa57600080fd5b604080516080810182528581526020808201869052918101849052600060608201819052601280546001810182559152815180519293849360049093027fbb8a6a4669ba250d26cd7a459eca9d215f8307e33aebe50379bc5a3617ec344401926120679284920190613f9d565b5060208281015180516120809260018501920190613f9d565b506040820151805161209c916002840191602090910190613f9d565b50606091909101516003909101805460ff19169115159190911790553360009081526013602090815260409091208251805184936120de928492910190613f9d565b5060208281015180516120f79260018501920190613f9d565b5060408201518051612113916002840191602090910190613f9d565b50606091909101516003909101805460ff1916911515919091179055336000908152600860205260409020600680549091908190839061215290614de8565b61215d929190614021565b50600182018160010190805461217290614de8565b61217d929190614021565b5050505050505050565b6009546000906001600160a01b03163314806121ba5750336000908152600e602052604090206003015460ff1615156001145b6121c357600080fd5b6011826040516121d3919061497f565b9081526020016040518091039020600801549050919050565b6060600d805480602002602001604051908101604052809291908181526020016000905b82821015610678578382906000526020600020906004020160405180608001604052908160008201805461224390614de8565b80601f016020809104026020016040519081016040528092919081815260200182805461226f90614de8565b80156122bc5780601f10612291576101008083540402835291602001916122bc565b820191906000526020600020905b81548152906001019060200180831161229f57829003601f168201915b505050505081526020016001820180546122d590614de8565b80601f016020809104026020016040519081016040528092919081815260200182805461230190614de8565b801561234e5780601f106123235761010080835404028352916020019161234e565b820191906000526020600020905b81548152906001019060200180831161233157829003601f168201915b5050505050815260200160028201805461236790614de8565b80601f016020809104026020016040519081016040528092919081815260200182805461239390614de8565b80156123e05780601f106123b5576101008083540402835291602001916123e0565b820191906000526020600020905b8154815290600101906020018083116123c357829003601f168201915b50505091835250506003919091015460ff1615156020918201529082526001929092019101612210565b336000908152600e602052604090206003015460ff16151560011461242e57600080fd5b60006040518061014001604052808a815260200189815260200188815260200187815260200186815260200185815260200184815260200183151581526020016000151581526020018a424460405160200161248c9392919061499b565b60408051601f198184030181529190528051602091820120909152600f805460018101825560009190915282518051939450849360099092027f8d1108e10bcb7c27dddfc02ed9d693a074039d026cf4ea4240b40f7d581ac80201926124f792849290910190613f9d565b5060208281015180516125109260018501920190613f9d565b506040820151805161252c916002840191602090910190613f9d565b5060608201518051612548916003840191602090910190613f9d565b5060808201518051612564916004840191602090910190613f9d565b5060a08201518051612580916005840191602090910190613f9d565b5060c0820151805161259c916006840191602090910190613f9d565b5060e08201516007820180546101008086015115150261ff00199315159390931661ffff19909116179190911790556101209091015160089091015560405181906011906125eb908c9061497f565b90815260200160405180910390206000820151816000019080519060200190612615929190613f9d565b50602082810151805161262e9260018501920190613f9d565b506040820151805161264a916002840191602090910190613f9d565b5060608201518051612666916003840191602090910190613f9d565b5060808201518051612682916004840191602090910190613f9d565b5060a0820151805161269e916005840191602090910190613f9d565b5060c082015180516126ba916006840191602090910190613f9d565b5060e08201516007820180546101008086015115150261ff00199315159390931661ffff199091161791909117905561012090910151600890910155505050505050505050565b61270961409c565b6001600160a01b0382166000908152601060205260408082208151610140810190925280548290829061273b90614de8565b80601f016020809104026020016040519081016040528092919081815260200182805461276790614de8565b80156127b45780601f10612789576101008083540402835291602001916127b4565b820191906000526020600020905b81548152906001019060200180831161279757829003601f168201915b505050505081526020016001820180546127cd90614de8565b80601f01602080910402602001604051908101604052809291908181526020018280546127f990614de8565b80156128465780601f1061281b57610100808354040283529160200191612846565b820191906000526020600020905b81548152906001019060200180831161282957829003601f168201915b5050505050815260200160028201805461285f90614de8565b80601f016020809104026020016040519081016040528092919081815260200182805461288b90614de8565b80156128d85780601f106128ad576101008083540402835291602001916128d8565b820191906000526020600020905b8154815290600101906020018083116128bb57829003601f168201915b505050505081526020016003820180546128f190614de8565b80601f016020809104026020016040519081016040528092919081815260200182805461291d90614de8565b801561296a5780601f1061293f5761010080835404028352916020019161296a565b820191906000526020600020905b81548152906001019060200180831161294d57829003601f168201915b5050505050815260200160048201805461298390614de8565b80601f01602080910402602001604051908101604052809291908181526020018280546129af90614de8565b80156129fc5780601f106129d1576101008083540402835291602001916129fc565b820191906000526020600020905b8154815290600101906020018083116129df57829003601f168201915b50505050508152602001600582018054612a1590614de8565b80601f0160208091040260200160405190810160405280929190818152602001828054612a4190614de8565b8015612a8e5780601f10612a6357610100808354040283529160200191612a8e565b820191906000526020600020905b815481529060010190602001808311612a7157829003601f168201915b50505050508152602001600682018054612aa790614de8565b80601f0160208091040260200160405190810160405280929190818152602001828054612ad390614de8565b8015612b205780601f10612af557610100808354040283529160200191612b20565b820191906000526020600020905b815481529060010190602001808311612b0357829003601f168201915b5050509183525050600782015460ff80821615156020840152610100909104161515604082015260089091015460609091015260006101208201529392505050565b6009546001600160a01b0316331480612b925750336000908152600e602052604090206003015460ff1615156001145b612b9b57600080fd5b6000600d8281548110612bbe57634e487b7160e01b600052603260045260246000fd5b60009182526020909120600490910201600301805460ff191691151591909117905550565b6009546001600160a01b03163314612bfa57600080fd5b336000908152600a602090815260409091208551612c1a92870190613f9d565b50336000908152600a602090815260409091208451612c4192600190920191860190613f9d565b50336000908152600a602090815260409091208351612c6892600290920191850190613f9d565b50336000908152600a602090815260409091208251612c8f92600390920191840190613f9d565b5050505050565b6040805160008082526020808301808552835190203380845260089092529184902090939192612cc692016149c2565b6040516020818303038152906040528051906020012014612ce657600080fd5b601183604051612cf6919061497f565b9081526020016040518091039020600801548214612d1357600080fd5b601183604051612d23919061497f565b908152604080516020928190038301902033600090815260109093529120815481908390612d5090614de8565b612d5b929190614021565b506001820181600101908054612d7090614de8565b612d7b929190614021565b506002820181600201908054612d9090614de8565b612d9b929190614021565b506003820181600301908054612db090614de8565b612dbb929190614021565b506004820181600401908054612dd090614de8565b612ddb929190614021565b506005820181600501908054612df090614de8565b612dfb929190614021565b506006820181600601908054612e1090614de8565b612e1b929190614021565b5060078281018054918301805460ff938416151560ff19821681178355925461010090819004909416151590930261ff001990921661ffff1990931692909217179055600891820154910155604051600190601190612e7b90869061497f565b9081526040805160209281900383019020600701805461ff00191661010094151594909402939093179092553360009081526008909152206004805490919081908390612ec790614de8565b612ed2929190614021565b506001820181600101908054612ee790614de8565b612ef2929190614021565b50905050601183604051612f06919061497f565b908152604080516020928190038301902033600090815260109093529120815481908390612f3390614de8565b612f3e929190614021565b506001820181600101908054612f5390614de8565b612f5e929190614021565b506002820181600201908054612f7390614de8565b612f7e929190614021565b506003820181600301908054612f9390614de8565b612f9e929190614021565b506004820181600401908054612fb390614de8565b612fbe929190614021565b506005820181600501908054612fd390614de8565b612fde929190614021565b506006820181600601908054612ff390614de8565b612ffe929190614021565b5060078281018054918301805460ff938416151560ff19821681178355925461010090819004909416151590930261ff001990921661ffff1990931692909217179055600891820154910155505050565b61307c60405180608001604052806060815260200160608152602001606081526020016000151581525090565b6001600160a01b0382166000908152600e6020526040908190208151608081019092528054829082906130ae90614de8565b80601f01602080910402602001604051908101604052809291908181526020018280546130da90614de8565b80156131275780601f106130fc57610100808354040283529160200191613127565b820191906000526020600020905b81548152906001019060200180831161310a57829003601f168201915b5050505050815260200160018201805461314090614de8565b80601f016020809104026020016040519081016040528092919081815260200182805461316c90614de8565b80156131b95780601f1061318e576101008083540402835291602001916131b9565b820191906000526020600020905b81548152906001019060200180831161319c57829003601f168201915b505050505081526020016002820180546131d290614de8565b80601f01602080910402602001604051908101604052809291908181526020018280546131fe90614de8565b801561324b5780601f106132205761010080835404028352916020019161324b565b820191906000526020600020905b81548152906001019060200180831161322e57829003601f168201915b50505091835250506003919091015460ff16151560209091015292915050565b3360009081526010602052604090206007015460ff61010090910416151560011461329557600080fd5b33600090815260106020908152604090912083516132bb92600290920191850190613f9d565b5033600090815260106020908152604090912082516132e292600390920191840190613f9d565b505050565b6133126040518060800160405280606081526020016060815260200160608152602001606081525090565b6009546001600160a01b03166000908152600a602052604080822081516080810190925280548290829061334590614de8565b80601f016020809104026020016040519081016040528092919081815260200182805461337190614de8565b80156133be5780601f10613393576101008083540402835291602001916133be565b820191906000526020600020905b8154815290600101906020018083116133a157829003601f168201915b505050505081526020016001820180546133d790614de8565b80601f016020809104026020016040519081016040528092919081815260200182805461340390614de8565b80156134505780601f1061342557610100808354040283529160200191613450565b820191906000526020600020905b81548152906001019060200180831161343357829003601f168201915b5050505050815260200160028201805461346990614de8565b80601f016020809104026020016040519081016040528092919081815260200182805461349590614de8565b80156134e25780601f106134b7576101008083540402835291602001916134e2565b820191906000526020600020905b8154815290600101906020018083116134c557829003601f168201915b505050505081526020016003820180546134fb90614de8565b80601f016020809104026020016040519081016040528092919081815260200182805461352790614de8565b80156135745780601f1061354957610100808354040283529160200191613574565b820191906000526020600020905b81548152906001019060200180831161355757829003601f168201915b505050919092525091935050505090565b3360009081526013602052604090206003015460609060ff1615156001146135ac57600080fd5b60006015836040516135be919061497f565b9081526040519081900360200190205490506000816001600160401b038111156135f857634e487b7160e01b600052604160045260246000fd5b60405190808252806020026020018201604052801561363157816020015b61361e613f4b565b8152602001906001900390816136165790505b50905060005b601585604051613647919061497f565b9081526040519081900360200190205481101561389d576014601586604051613670919061497f565b9081526020016040518091039020828154811061369d57634e487b7160e01b600052603260045260246000fd5b9060005260206000200154815481106136c657634e487b7160e01b600052603260045260246000fd5b906000526020600020906006020160050160159054906101000a900460ff161561388b5760146015866040516136fc919061497f565b9081526020016040518091039020828154811061372957634e487b7160e01b600052603260045260246000fd5b90600052602060002001548154811061375257634e487b7160e01b600052603260045260246000fd5b9060005260206000209060060201604051806101000160405290816000820154815260200160018201805461378690614de8565b80601f01602080910402602001604051908101604052809291908181526020018280546137b290614de8565b80156137ff5780601f106137d4576101008083540402835291602001916137ff565b820191906000526020600020905b8154815290600101906020018083116137e257829003601f168201915b50505091835250506002820154602082015260038201546040820152600482015460608201526005909101546001600160a01b038116608083015260ff600160a01b82048116151560a0840152600160a81b90910416151560c090910152825183908390811061387f57634e487b7160e01b600052603260045260246000fd5b60200260200101819052505b8061389581614e23565b915050613637565b509392505050565b3360009081526010602052604090206007015460609060ff6101009091041615156001146138d257600080fd5b33600090815260106020526040812080546138ec90614de8565b80601f016020809104026020016040519081016040528092919081815260200182805461391890614de8565b80156139655780601f1061393a57610100808354040283529160200191613965565b820191906000526020600020905b81548152906001019060200180831161394857829003601f168201915b50505050509050600060168260405161397e919061497f565b9081526020016040518091039020546001600160401b038111156139b257634e487b7160e01b600052604160045260246000fd5b6040519080825280602002602001820160405280156139eb57816020015b6139d8613f4b565b8152602001906001900390816139d05790505b50905060005b601683604051613a01919061497f565b908152602001604051809103902054811015613bca576014601584604051613a29919061497f565b90815260200160405180910390208281548110613a5657634e487b7160e01b600052603260045260246000fd5b906000526020600020015481548110613a7f57634e487b7160e01b600052603260045260246000fd5b90600052602060002090600602016040518061010001604052908160008201548152602001600182018054613ab390614de8565b80601f0160208091040260200160405190810160405280929190818152602001828054613adf90614de8565b8015613b2c5780601f10613b0157610100808354040283529160200191613b2c565b820191906000526020600020905b815481529060010190602001808311613b0f57829003601f168201915b50505091835250506002820154602082015260038201546040820152600482015460608201526005909101546001600160a01b038116608083015260ff600160a01b82048116151560a0840152600160a81b90910416151560c0909101528251839083908110613bac57634e487b7160e01b600052603260045260246000fd5b60200260200101819052508080613bc290614e23565b9150506139f1565b5091505090565b613bd961409c565b6000601183604051613beb919061497f565b90815260200160405180910390206040518061014001604052908160008201805461273b90614de8565b6009546001600160a01b03163314613c2c57600080fd5b6040805160008082526020808301808552835190206001600160a01b038a16835260089091529083902088939192613c6492016149c2565b6040516020818303038152906040528051906020012014613c8457600080fd5b604080516080810182528681526020808201879052818301869052606082018590526001600160a01b0389166000908152600a8252929092208151805192938493613cd29284920190613f9d565b506020828101518051613ceb9260018501920190613f9d565b5060408201518051613d07916002840191602090910190613f9d565b5060608201518051613d23916003840191602090910190613f9d565b5050506001600160a01b0387166000908152600860205260408120815481908390613d4d90614de8565b613d58929190614021565b506001820181600101908054613d6d90614de8565b613d78929190614021565b5050600980546001600160a01b0319166001600160a01b03999099169890981790975550505050505050565b6009546001600160a01b03163314613dbb57600080fd5b60148181548110613ddc57634e487b7160e01b600052603260045260246000fd5b6000918252602090912060069091020160050154600160a01b900460ff1615613e0457600080fd5b3360148281548110613e2657634e487b7160e01b600052603260045260246000fd5b906000526020600020906006020160050160006101000a8154816001600160a01b0302191690836001600160a01b03160217905550600160148281548110613e7e57634e487b7160e01b600052603260045260246000fd5b906000526020600020906006020160050160146101000a81548160ff021916908315150217905550600160148281548110613ec957634e487b7160e01b600052603260045260246000fd5b6000918252602082206005600690920201018054921515600160a81b0260ff60a81b1990931692909217909155601880549161195083614e23565b336000908152600e602052604090206003015460ff161515600114613f2857600080fd5b600160128281548110612bbe57634e487b7160e01b600052603260045260246000fd5b604051806101000160405280600081526020016060815260200160008152602001600081526020016000815260200160006001600160a01b031681526020016000151581526020016000151581525090565b828054613fa990614de8565b90600052602060002090601f016020900481019282613fcb5760008555614011565b82601f10613fe457805160ff1916838001178555614011565b82800160010185558215614011579182015b82811115614011578251825591602001919060010190613ff6565b5061401d9291506140f3565b5090565b82805461402d90614de8565b90600052602060002090601f01602090048101928261404f5760008555614011565b82601f106140605780548555614011565b8280016001018555821561401157600052602060002091601f016020900482015b82811115614011578254825591600101919060010190614081565b60405180610140016040528060608152602001606081526020016060815260200160608152602001606081526020016060815260200160608152602001600015158152602001600015158152602001600081525090565b5b8082111561401d57600081556001016140f4565b80356001600160a01b0381168114611be057600080fd5b80358015158114611be057600080fd5b600082601f83011261413f578081fd5b813561415261414d82614d4f565b614d1f565b818152846020838601011115614166578283fd5b816020850160208301379081016020019190915292915050565b600060208284031215614191578081fd5b61419a82614108565b9392505050565b600080600080608085870312156141b6578283fd5b6141bf85614108565b935060208501356001600160401b03808211156141da578485fd5b6141e68883890161412f565b945060408701359150808211156141fb578384fd5b6142078883890161412f565b9350606087013591508082111561421c578283fd5b506142298782880161412f565b91505092959194509250565b600080600080600060a0868803121561424c578081fd5b61425586614108565b945060208601356001600160401b0380821115614270578283fd5b61427c89838a0161412f565b95506040880135915080821115614291578283fd5b61429d89838a0161412f565b945060608801359150808211156142b2578283fd5b6142be89838a0161412f565b935060808801359150808211156142d3578283fd5b506142e08882890161412f565b9150509295509295909350565b60008060008060008060008060006101208a8c03121561430b578384fd5b6143148a614108565b985060208a01356001600160401b038082111561432f578586fd5b61433b8d838e0161412f565b995060408c0135915080821115614350578586fd5b61435c8d838e0161412f565b985060608c0135915080821115614371578586fd5b61437d8d838e0161412f565b975060808c0135915080821115614392578586fd5b61439e8d838e0161412f565b965060a08c01359150808211156143b3578586fd5b6143bf8d838e0161412f565b955060c08c01359150808211156143d4578485fd5b6143e08d838e0161412f565b945060e08c01359150808211156143f5578384fd5b506144028c828d0161412f565b9250506144126101008b0161411f565b90509295985092959850929598565b600060208284031215614432578081fd5b81356001600160401b03811115614447578182fd5b6144538482850161412f565b949350505050565b60006020828403121561446c578081fd5b81516001600160401b03811115614481578182fd5b8201601f81018413614491578182fd5b805161449f61414d82614d4f565b8181528560208385010111156144b3578384fd5b6144c4826020830160208601614da5565b95945050505050565b600080604083850312156144df578182fd5b82356001600160401b03808211156144f5578384fd5b6145018683870161412f565b93506020850135915080821115614516578283fd5b506145238582860161412f565b9150509250929050565b600080600060608486031215614541578283fd5b83356001600160401b0380821115614557578485fd5b6145638783880161412f565b94506020860135915080821115614578578384fd5b6145848783880161412f565b93506040860135915080821115614599578283fd5b506145a68682870161412f565b9150509250925092565b600080600080608085870312156145c5578384fd5b84356001600160401b03808211156145db578586fd5b6145e78883890161412f565b955060208701359150808211156141da578485fd5b600080600080600080600080610100898b031215614618578384fd5b88356001600160401b038082111561462e578586fd5b61463a8c838d0161412f565b995060208b013591508082111561464f578586fd5b61465b8c838d0161412f565b985060408b0135915080821115614670578586fd5b61467c8c838d0161412f565b975060608b0135915080821115614691578586fd5b61469d8c838d0161412f565b965060808b01359150808211156146b2578586fd5b6146be8c838d0161412f565b955060a08b01359150808211156146d3578485fd5b6146df8c838d0161412f565b945060c08b01359150808211156146f4578384fd5b506147018b828c0161412f565b92505061471060e08a0161411f565b90509295985092959890939650565b60008060408385031215614731578182fd5b82356001600160401b03811115614746578283fd5b6147528582860161412f565b95602094909401359450505050565b600060208284031215614772578081fd5b5035919050565b60008151808452614791816020860160208601614da5565b601f01601f19169290920160200192915050565b60008151608084526147ba6080850182614779565b9050602083015184820360208601526147d38282614779565b915050604083015184820360408601526147ed8282614779565b9150506060830151151560608501528091505092915050565b600081516040845261481b6040850182614779565b9050602083015184820360208601526144c48282614779565b60008151608084526148496080850182614779565b9050602083015184820360208601526148628282614779565b9150506040830151848203604086015261487c8282614779565b915050606083015184820360608601526144c48282614779565b600061014082518185526148ac82860182614779565b915050602083015184820360208601526148c68282614779565b915050604083015184820360408601526148e08282614779565b915050606083015184820360608601526148fa8282614779565b915050608083015184820360808601526149148282614779565b91505060a083015184820360a086015261492e8282614779565b91505060c083015184820360c08601526149488282614779565b91505060e083015161495e60e086018215159052565b50610100838101511515908501526101209283015192909301919091525090565b60008251614991818460208701614da5565b9190910192915050565b600084516149ad818460208901614da5565b91909101928352506020820152604001919050565b60008083546149d081614de8565b600182811680156149e857600181146149f957614a25565b60ff19841687528287019450614a25565b8786526020808720875b85811015614a1c5781548a820152908401908201614a03565b50505082870194505b50929695505050505050565b6000602080830181845280855180835260408601915060408160051b8701019250838701855b82811015614a8557603f19888603018452614a738583516147a5565b94509285019290850190600101614a57565b5092979650505050505050565b60006020808301818452808551808352604092508286019150828160051b870101848801865b83811015614b4457603f1989840301855281516101008151855288820151818a870152614ae782870182614779565b838a0151878b0152606080850151908801526080808501519088015260a0808501516001600160a01b03169088015260c08085015115159088015260e0938401511515939096019290925250509386019390860190600101614ab8565b509098975050505050505050565b6000602080830181845280855180835260408601915060408160051b8701019250838701855b82811015614a8557603f19888603018452614b948583516147a5565b94509285019290850190600101614b78565b6000602080830181845280855180835260408601915060408160051b8701019250838701855b82811015614a8557603f19888603018452614be8858351614896565b94509285019290850190600101614bcc565b60006020808352818454614c0d81614de8565b80848701526040600180841660008114614c2e5760018114614c4257614c6d565b60ff19851689840152606089019550614c6d565b898852868820885b85811015614c655781548b8201860152908301908801614c4a565b8a0184019650505b509398975050505050505050565b60006020825261419a60208301846147a5565b60006020825261419a6020830184614806565b60006020825261419a6020830184614834565b600060808252614cc76080830187614834565b8281036020840152614cd981876147a5565b90508281036040840152614ced8186614896565b90508281036060840152614d0181856147a5565b979650505050505050565b60006020825261419a6020830184614896565b604051601f8201601f191681016001600160401b0381118282101715614d4757614d47614e54565b604052919050565b60006001600160401b03821115614d6857614d68614e54565b50601f01601f191660200190565b60008219821115614d8957614d89614e3e565b500190565b600082821015614da057614da0614e3e565b500390565b60005b83811015614dc0578181015183820152602001614da8565b838111156118275750506000910152565b600081614de057614de0614e3e565b506000190190565b600181811c90821680614dfc57607f821691505b60208210811415614e1d57634e487b7160e01b600052602260045260246000fd5b50919050565b6000600019821415614e3757614e37614e3e565b5060010190565b634e487b7160e01b600052601160045260246000fd5b634e487b7160e01b600052604160045260246000fdfea2646970667358221220367c23a22a1d23bda3fbfc5b9fe3d309871a82a1b6ba68d2088e09a6a588b0b264736f6c63430008030033453320313434205875616e2054687579202d204361752047696179202d204861204e6f69207468616d206d7575206769757020766965632048696575207472756f6e672074687563206869656e20636f6e6720746163207665207861792064756e672c207175616e206c7920636163206368756f6e67207472696e682064616f2074616f",
  "immutableReferences": {},
  "source": "// SPDX-License-Identifier: MIT\npragma solidity >=0.7.0 <0.9.0;\n\nimport \"./SetGrade.sol\";\nimport \"./User.sol\";\n\ncontract Certificate is User {\n    struct certificate {\n        uint256 id;\n        string grade;\n        uint256 timestamp;\n        uint256 exportTime;\n        uint256 NumOfExports;\n        address issuer;\n        // address recipient; // c cn trng ny khng?\n        bool signed;\n        bool visible;\n    }\n\n    certificate[] certificateList;\n    mapping(string => uint256[]) studentCerts;\n    mapping(string => uint256) studentCertCount;\n    mapping(uint256 => string) idToAddress;\n    uint256 signedCertCount;\n    uint256 visibleCertCount;\n\n    using SetGrade for string;\n\n    function createCertificate(string memory _studentId)\n        public\n        onlyAADepartmentUser\n    {\n        // require(keccak256(abi.encodePacked(studentCert[_studentAddr].grade)) == keccak256(abi.encodePacked(\"\"))); // ch to c bng cho nhng sinh vin cha c too\n        // mt thng 2 vn bng th sao\n        certificate memory temp;\n        temp.grade = SetGrade.setGrade(idToStudent[_studentId].cpa);\n        temp.timestamp = block.timestamp;\n        temp.NumOfExports = 0;\n        temp.visible = false;\n\n        certificateList.push(temp);\n        studentCerts[_studentId].push(certificateList.length - 1);\n        idToAddress[certificateList.length - 1] = _studentId;\n        studentCertCount[_studentId] += 1;\n    }\n\n    // certificate[] certList;\n    // function getCertificateList() public onlyRectorOrAAD returns(certificate[] memory certList) {\n    //     for (uint i = 1; i < index; i++){\n    //         certList.push(studentCert[idToAddress[i]]);\n    //     }\n    //     return certList;\n    // }\n\n    function signCertificate(uint256 _index) public onlyCurrentRector {\n        //require(certificateList[_index-1].siged == false); // ch k c nhng chng ch no cha k\n        require(certificateList[_index].signed == false);\n        certificateList[_index].issuer = msg.sender;\n        certificateList[_index].signed = true;\n        certificateList[_index].visible = true;\n\n        signedCertCount++;\n        //studentCert[certificateList[_index-1].recipient] = certificateList[_index-1];\n    }\n\n    // hm ny chy lc thng student xem cer cu n\n    function seeMyCertificate()\n        public\n        view\n        onlyStudent\n        returns (certificate[] memory)\n    {\n        string memory studentId = studentDetails[msg.sender].id;\n        certificate[] memory studentCertificates =\n            new certificate[](studentCertCount[studentId]);\n        for (uint256 i = 0; i < studentCertCount[studentId]; i++) {\n            studentCertificates[i] = certificateList[\n                studentCerts[studentId][i]\n            ];\n        }\n        return studentCertificates;\n    }\n\n    function changeCertVisibility(uint256 _index) public onlyStudent {\n        certificateList[_index].visible = !certificateList[_index].visible;\n        if (certificateList[_index].visible) {\n            visibleCertCount++;\n        } else {\n            visibleCertCount--;\n        }\n    }\n\n    // cng ty check cc bng ca 1 sinh vin\n    function seeStudentCerts(string memory _studentId)\n        public\n        view\n        returns (certificate[] memory)\n    {\n        require(companyDetails[msg.sender].isActive == true);\n        uint256 count = studentCerts[_studentId].length;\n        certificate[] memory studentCertificates = new certificate[](count);\n        for (uint256 i = 0; i < studentCerts[_studentId].length; i++) {\n            if (certificateList[studentCerts[_studentId][i]].visible)\n                studentCertificates[i] = certificateList[\n                    studentCerts[_studentId][i]\n                ];\n        }\n        return studentCertificates;\n    }\n\n    // cng ty xem cert cng khai\n    function seeVisibleCerts() public view returns (certificate[] memory) {\n        require(companyDetails[msg.sender].isActive == true);\n        certificate[] memory allVisibleCerts =\n            new certificate[](signedCertCount);\n        uint256 count = 0;\n        for (uint256 i = 0; i < certificateList.length; i++) {\n            if (certificateList[i].visible) {\n                count++;\n                allVisibleCerts[count] = certificateList[i];\n            }\n        }\n        return allVisibleCerts;\n    }\n\n    //nh trng xem ht\n    function seeAllCerts()\n        public\n        view\n        onlyRectorOrAAD\n        returns (certificate[] memory)\n    {\n        return certificateList;\n    }\n}\n",
  "sourcePath": "/Users/hughdo/Desktop/Proj/CertVerificationSystem/contracts/Certificate.sol",
  "compiler": {
    "name": "solc",
    "version": "0.8.3+commit.8d00100c.Emscripten.clang"
  },
  "schemaVersion": "3.3.4",
  "updatedAt": "2021-04-14T05:59:08.719Z",
  "devdoc": {
    "kind": "dev",
    "methods": {},
    "version": 1
  },
  "userdoc": {
    "kind": "user",
    "methods": {},
    "version": 1
  }
}