{
  "contractName": "Certificate",
  "abi": [
    {
      "inputs": [
        {
          "internalType": "contract User",
          "name": "_user",
          "type": "address"
        }
      ],
      "stateMutability": "nonpayable",
      "type": "constructor"
    },
    {
      "inputs": [
        {
          "internalType": "string",
          "name": "_studentId",
          "type": "string"
        }
      ],
      "name": "createCertificate",
      "outputs": [],
      "stateMutability": "nonpayable",
      "type": "function"
    },
    {
      "inputs": [
        {
          "internalType": "string",
          "name": "_studentId",
          "type": "string"
        },
        {
          "internalType": "string",
          "name": "_name",
          "type": "string"
        },
        {
          "internalType": "string",
          "name": "_cpa",
          "type": "string"
        }
      ],
      "name": "createDoubleCertificate",
      "outputs": [],
      "stateMutability": "nonpayable",
      "type": "function"
    },
    {
      "inputs": [
        {
          "internalType": "uint256",
          "name": "_id",
          "type": "uint256"
        }
      ],
      "name": "getStudentByCert",
      "outputs": [
        {
          "components": [
            {
              "internalType": "string",
              "name": "id",
              "type": "string"
            },
            {
              "internalType": "string",
              "name": "name",
              "type": "string"
            },
            {
              "internalType": "string",
              "name": "email",
              "type": "string"
            },
            {
              "internalType": "string",
              "name": "date",
              "type": "string"
            },
            {
              "internalType": "string",
              "name": "phone",
              "type": "string"
            },
            {
              "internalType": "string",
              "name": "class",
              "type": "string"
            },
            {
              "internalType": "string",
              "name": "major",
              "type": "string"
            },
            {
              "internalType": "string",
              "name": "cpa",
              "type": "string"
            },
            {
              "internalType": "bool",
              "name": "qualifiedForGraduation",
              "type": "bool"
            },
            {
              "internalType": "bool",
              "name": "isActive",
              "type": "bool"
            },
            {
              "internalType": "uint256",
              "name": "nonce",
              "type": "uint256"
            }
          ],
          "internalType": "struct Model.student",
          "name": "",
          "type": "tuple"
        }
      ],
      "stateMutability": "view",
      "type": "function",
      "constant": true
    },
    {
      "inputs": [
        {
          "internalType": "uint256",
          "name": "_index",
          "type": "uint256"
        }
      ],
      "name": "signCertificate",
      "outputs": [],
      "stateMutability": "nonpayable",
      "type": "function"
    },
    {
      "inputs": [],
      "name": "seeMyCertificate",
      "outputs": [
        {
          "components": [
            {
              "internalType": "uint256",
              "name": "id",
              "type": "uint256"
            },
            {
              "internalType": "string",
              "name": "name",
              "type": "string"
            },
            {
              "internalType": "string",
              "name": "cpa",
              "type": "string"
            },
            {
              "internalType": "string",
              "name": "grade",
              "type": "string"
            },
            {
              "internalType": "uint256",
              "name": "timestamp",
              "type": "uint256"
            },
            {
              "internalType": "uint256",
              "name": "exportTime",
              "type": "uint256"
            },
            {
              "internalType": "uint256",
              "name": "NumOfExports",
              "type": "uint256"
            },
            {
              "internalType": "address",
              "name": "issuer",
              "type": "address"
            },
            {
              "internalType": "bool",
              "name": "signed",
              "type": "bool"
            },
            {
              "internalType": "bool",
              "name": "visible",
              "type": "bool"
            }
          ],
          "internalType": "struct Model.certificate[]",
          "name": "",
          "type": "tuple[]"
        }
      ],
      "stateMutability": "view",
      "type": "function",
      "constant": true
    },
    {
      "inputs": [
        {
          "internalType": "uint256",
          "name": "_index",
          "type": "uint256"
        }
      ],
      "name": "changeCertVisibility",
      "outputs": [],
      "stateMutability": "nonpayable",
      "type": "function"
    },
    {
      "inputs": [
        {
          "internalType": "string",
          "name": "_studentId",
          "type": "string"
        }
      ],
      "name": "seeStudentCerts",
      "outputs": [
        {
          "components": [
            {
              "internalType": "uint256",
              "name": "id",
              "type": "uint256"
            },
            {
              "internalType": "string",
              "name": "name",
              "type": "string"
            },
            {
              "internalType": "string",
              "name": "cpa",
              "type": "string"
            },
            {
              "internalType": "string",
              "name": "grade",
              "type": "string"
            },
            {
              "internalType": "uint256",
              "name": "timestamp",
              "type": "uint256"
            },
            {
              "internalType": "uint256",
              "name": "exportTime",
              "type": "uint256"
            },
            {
              "internalType": "uint256",
              "name": "NumOfExports",
              "type": "uint256"
            },
            {
              "internalType": "address",
              "name": "issuer",
              "type": "address"
            },
            {
              "internalType": "bool",
              "name": "signed",
              "type": "bool"
            },
            {
              "internalType": "bool",
              "name": "visible",
              "type": "bool"
            }
          ],
          "internalType": "struct Model.certificate[]",
          "name": "",
          "type": "tuple[]"
        }
      ],
      "stateMutability": "view",
      "type": "function",
      "constant": true
    },
    {
      "inputs": [],
      "name": "seeVisibleCerts",
      "outputs": [
        {
          "components": [
            {
              "internalType": "uint256",
              "name": "id",
              "type": "uint256"
            },
            {
              "internalType": "string",
              "name": "name",
              "type": "string"
            },
            {
              "internalType": "string",
              "name": "cpa",
              "type": "string"
            },
            {
              "internalType": "string",
              "name": "grade",
              "type": "string"
            },
            {
              "internalType": "uint256",
              "name": "timestamp",
              "type": "uint256"
            },
            {
              "internalType": "uint256",
              "name": "exportTime",
              "type": "uint256"
            },
            {
              "internalType": "uint256",
              "name": "NumOfExports",
              "type": "uint256"
            },
            {
              "internalType": "address",
              "name": "issuer",
              "type": "address"
            },
            {
              "internalType": "bool",
              "name": "signed",
              "type": "bool"
            },
            {
              "internalType": "bool",
              "name": "visible",
              "type": "bool"
            }
          ],
          "internalType": "struct Model.certificate[]",
          "name": "",
          "type": "tuple[]"
        }
      ],
      "stateMutability": "view",
      "type": "function",
      "constant": true
    },
    {
      "inputs": [],
      "name": "seeAllCerts",
      "outputs": [
        {
          "components": [
            {
              "internalType": "uint256",
              "name": "id",
              "type": "uint256"
            },
            {
              "internalType": "string",
              "name": "name",
              "type": "string"
            },
            {
              "internalType": "string",
              "name": "cpa",
              "type": "string"
            },
            {
              "internalType": "string",
              "name": "grade",
              "type": "string"
            },
            {
              "internalType": "uint256",
              "name": "timestamp",
              "type": "uint256"
            },
            {
              "internalType": "uint256",
              "name": "exportTime",
              "type": "uint256"
            },
            {
              "internalType": "uint256",
              "name": "NumOfExports",
              "type": "uint256"
            },
            {
              "internalType": "address",
              "name": "issuer",
              "type": "address"
            },
            {
              "internalType": "bool",
              "name": "signed",
              "type": "bool"
            },
            {
              "internalType": "bool",
              "name": "visible",
              "type": "bool"
            }
          ],
          "internalType": "struct Model.certificate[]",
          "name": "",
          "type": "tuple[]"
        }
      ],
      "stateMutability": "view",
      "type": "function",
      "constant": true
    },
    {
      "inputs": [],
      "name": "getAADUser",
      "outputs": [
        {
          "components": [
            {
              "internalType": "string",
              "name": "name",
              "type": "string"
            },
            {
              "internalType": "string",
              "name": "date",
              "type": "string"
            },
            {
              "internalType": "string",
              "name": "phone",
              "type": "string"
            },
            {
              "internalType": "bool",
              "name": "isActive",
              "type": "bool"
            }
          ],
          "internalType": "struct Model.AADUser",
          "name": "",
          "type": "tuple"
        }
      ],
      "stateMutability": "view",
      "type": "function",
      "constant": true
    }
  ],
  "bytecode": "0x60806040523480156200001157600080fd5b506040516200291d3803806200291d83398101604081905262000034916200005a565b600080546001600160a01b0319166001600160a01b03929092169190911790556200008a565b6000602082840312156200006c578081fd5b81516001600160a01b038116811462000083578182fd5b9392505050565b612883806200009a6000396000f3fe608060405234801561001057600080fd5b506004361061009e5760003560e01c8063d59f02d411610066578063d59f02d414610104578063d6f641cd14610124578063e762b04514610137578063f3ef8e291461013f578063f9e55629146101545761009e565b80630e21e9d0146100a357806349867178146100c157806357fdb0fa146100c957806367b1a0d6146100de57806374444882146100f1575b600080fd5b6100ab610167565b6040516100b891906123ae565b60405180910390f35b6100ab610558565b6100dc6100d736600461234e565b6108f9565b005b6100dc6100ec3660046120fc565b610a8d565b6100dc6100ff366004612096565b610db2565b61011761011236600461234e565b6111d8565b6040516100b891906125cf565b6100ab610132366004612096565b6112d2565b6100ab611782565b610147611c25565b6040516100b8919061255e565b6100dc61016236600461234e565b611cd6565b60005460405163315e2b7360e11b81523360048201526060916001600160a01b0316906362bc56e69060240160006040518083038186803b1580156101ab57600080fd5b505afa1580156101bf573d6000803e3d6000fd5b505050506040513d6000823e601f3d908101601f191682016040526101e79190810190612180565b6060015115156001146101f957600080fd5b600060055467ffffffffffffffff81111561022457634e487b7160e01b600052604160045260246000fd5b60405190808252806020026020018201604052801561025d57816020015b61024a611e1d565b8152602001906001900390816102425790505b5090506000805b600154811015610550576001818154811061028f57634e487b7160e01b600052603260045260246000fd5b906000526020600020906008020160070160159054906101000a900460ff161561053e57816102bd81612806565b925050600181815481106102e157634e487b7160e01b600052603260045260246000fd5b90600052602060002090600802016040518061014001604052908160008201548152602001600182018054610315906127cb565b80601f0160208091040260200160405190810160405280929190818152602001828054610341906127cb565b801561038e5780601f106103635761010080835404028352916020019161038e565b820191906000526020600020905b81548152906001019060200180831161037157829003601f168201915b505050505081526020016002820180546103a7906127cb565b80601f01602080910402602001604051908101604052809291908181526020018280546103d3906127cb565b80156104205780601f106103f557610100808354040283529160200191610420565b820191906000526020600020905b81548152906001019060200180831161040357829003601f168201915b50505050508152602001600382018054610439906127cb565b80601f0160208091040260200160405190810160405280929190818152602001828054610465906127cb565b80156104b25780601f10610487576101008083540402835291602001916104b2565b820191906000526020600020905b81548152906001019060200180831161049557829003601f168201915b50505091835250506004820154602082015260058201546040820152600682015460608201526007909101546001600160a01b038116608083015260ff600160a01b82048116151560a0840152600160a81b90910416151560c090910152835184908490811061053257634e487b7160e01b600052603260045260246000fd5b60200260200101819052505b8061054881612806565b915050610264565b509091505090565b60005460408051634f54be9760e11b815290516060926001600160a01b031691639ea97d2e916004808301926020929190829003018186803b15801561059d57600080fd5b505afa1580156105b1573d6000803e3d6000fd5b505050506040513d601f19601f820116820180604052508101906105d59190612068565b6001600160a01b0316336001600160a01b03161480610678575060005460405163bd2456c760e01b81523360048201526001600160a01b039091169063bd2456c79060240160006040518083038186803b15801561063257600080fd5b505afa158015610646573d6000803e3d6000fd5b505050506040513d6000823e601f3d908101601f1916820160405261066e9190810190612180565b6060015115156001145b61068157600080fd5b6001805480602002602001604051908101604052809291908181526020016000905b828210156108f0578382906000526020600020906008020160405180610140016040529081600082015481526020016001820180546106e1906127cb565b80601f016020809104026020016040519081016040528092919081815260200182805461070d906127cb565b801561075a5780601f1061072f5761010080835404028352916020019161075a565b820191906000526020600020905b81548152906001019060200180831161073d57829003601f168201915b50505050508152602001600282018054610773906127cb565b80601f016020809104026020016040519081016040528092919081815260200182805461079f906127cb565b80156107ec5780601f106107c1576101008083540402835291602001916107ec565b820191906000526020600020905b8154815290600101906020018083116107cf57829003601f168201915b50505050508152602001600382018054610805906127cb565b80601f0160208091040260200160405190810160405280929190818152602001828054610831906127cb565b801561087e5780601f106108535761010080835404028352916020019161087e565b820191906000526020600020905b81548152906001019060200180831161086157829003601f168201915b5050509183525050600482015460208083019190915260058301546040830152600683015460608301526007909201546001600160a01b038116608083015260ff600160a01b82048116151560a0840152600160a81b90910416151560c09091015290825260019290920191016106a3565b50505050905090565b6000546040516324ecca6360e21b81523360048201526001600160a01b03909116906393b3298c9060240160006040518083038186803b15801561093c57600080fd5b505afa158015610950573d6000803e3d6000fd5b505050506040513d6000823e601f3d908101601f1916820160405261097891908101906121b3565b6101200151151560011461098b57600080fd5b600181815481106109ac57634e487b7160e01b600052603260045260246000fd5b906000526020600020906008020160070160159054906101000a900460ff1615600182815481106109ed57634e487b7160e01b600052603260045260246000fd5b906000526020600020906008020160070160156101000a81548160ff02191690831515021790555060018181548110610a3657634e487b7160e01b600052603260045260246000fd5b906000526020600020906008020160070160159054906101000a900460ff1615610a745760068054906000610a6a83612806565b9190505550610a8a565b60068054906000610a84836127b4565b91905055505b50565b60005460405163bd2456c760e01b81523360048201526001600160a01b039091169063bd2456c79060240160006040518083038186803b158015610ad057600080fd5b505afa158015610ae4573d6000803e3d6000fd5b505050506040513d6000823e601f3d908101601f19168201604052610b0c9190810190612180565b606001511515600114610b1e57600080fd5b610b26611e1d565b6001548152602081018390526040808201839052516397678ad560e01b815273__SetGrade______________________________906397678ad590610b6f9085906004016124a5565b60006040518083038186803b158015610b8757600080fd5b505af4158015610b9b573d6000803e3d6000fd5b505050506040513d6000823e601f3d908101601f19168201604052610bc391908101906120c9565b6060820152426080820152600060c0820181905261012082018190526001805480820182559152815160089091027fb10e2d527612073b26eecdfd717e6a320cf44b4afac2b0732d9fcbe2b7fa0cf681019182556020808401518051859493610c52937fb10e2d527612073b26eecdfd717e6a320cf44b4afac2b0732d9fcbe2b7fa0cf7909101920190611e7d565b5060408201518051610c6e916002840191602090910190611e7d565b5060608201518051610c8a916003840191602090910190611e7d565b506080820151600482015560a0820151600582015560c0820151600682015560e082015160079091018054610100840151610120909401511515600160a81b0260ff60a81b19941515600160a01b026001600160a81b03199092166001600160a01b03909416939093171792909216179055604051600290610d0d908690612392565b90815260405190819003602001902060018054610d2a919061276d565b81546001818101845560009384526020842090910191909155805486926004929091610d56919061276d565b81526020019081526020016000209080519060200190610d77929190611e7d565b506001600385604051610d8a9190612392565b90815260200160405180910390206000828254610da79190612755565b909155505050505050565b60005460405163bd2456c760e01b81523360048201526001600160a01b039091169063bd2456c79060240160006040518083038186803b158015610df557600080fd5b505afa158015610e09573d6000803e3d6000fd5b505050506040513d6000823e601f3d908101601f19168201604052610e319190810190612180565b606001511515600114610e4357600080fd5b610e4b611e1d565b60015481526000546040516324ecca6360e21b81523360048201526001600160a01b03909116906393b3298c9060240160006040518083038186803b158015610e9357600080fd5b505afa158015610ea7573d6000803e3d6000fd5b505050506040513d6000823e601f3d908101601f19168201604052610ecf91908101906121b3565b60c0015160208201526000546040516324ecca6360e21b81523360048201526001600160a01b03909116906393b3298c9060240160006040518083038186803b158015610f1b57600080fd5b505afa158015610f2f573d6000803e3d6000fd5b505050506040513d6000823e601f3d908101601f19168201604052610f5791908101906121b3565b60e001516040808301829052516397678ad560e01b815273__SetGrade______________________________916397678ad591610f9791906004016124a5565b60006040518083038186803b158015610faf57600080fd5b505af4158015610fc3573d6000803e3d6000fd5b505050506040513d6000823e601f3d908101601f19168201604052610feb91908101906120c9565b6060820152426080820152600060c0820181905261012082018190526001805480820182559152815160089091027fb10e2d527612073b26eecdfd717e6a320cf44b4afac2b0732d9fcbe2b7fa0cf68101918255602080840151805185949361107a937fb10e2d527612073b26eecdfd717e6a320cf44b4afac2b0732d9fcbe2b7fa0cf7909101920190611e7d565b5060408201518051611096916002840191602090910190611e7d565b50606082015180516110b2916003840191602090910190611e7d565b506080820151600482015560a0820151600582015560c0820151600682015560e082015160079091018054610100840151610120909401511515600160a81b0260ff60a81b19941515600160a01b026001600160a81b03199092166001600160a01b03909416939093171792909216179055604051600290611135908490612392565b90815260405190819003602001902060018054611152919061276d565b8154600181810184556000938452602084209091019190915580548492600492909161117e919061276d565b8152602001908152602001600020908051906020019061119f929190611e7d565b5060016003836040516111b29190612392565b908152602001604051809103902060008282546111cf9190612755565b90915550505050565b6112396040518061016001604052806060815260200160608152602001606081526020016060815260200160608152602001606081526020016060815260200160608152602001600015158152602001600015158152602001600081525090565b6000805483825260046020819052604080842090516376bd6c1360e11b81526001600160a01b039093169263ed7ad826926112759291016124b8565b60006040518083038186803b15801561128d57600080fd5b505afa1580156112a1573d6000803e3d6000fd5b505050506040513d6000823e601f3d908101601f191682016040526112c991908101906121b3565b9150505b919050565b60005460405163315e2b7360e11b81523360048201526060916001600160a01b0316906362bc56e69060240160006040518083038186803b15801561131657600080fd5b505afa15801561132a573d6000803e3d6000fd5b505050506040513d6000823e601f3d908101601f191682016040526113529190810190612180565b60600151151560011461136457600080fd5b60006002836040516113769190612392565b90815260405190819003602001902054905060008167ffffffffffffffff8111156113b157634e487b7160e01b600052604160045260246000fd5b6040519080825280602002602001820160405280156113ea57816020015b6113d7611e1d565b8152602001906001900390816113cf5790505b50905060005b6002856040516114009190612392565b9081526040519081900360200190205481101561177a5760016002866040516114299190612392565b9081526020016040518091039020828154811061145657634e487b7160e01b600052603260045260246000fd5b90600052602060002001548154811061147f57634e487b7160e01b600052603260045260246000fd5b906000526020600020906008020160070160159054906101000a900460ff16156117685760016002866040516114b59190612392565b908152602001604051809103902082815481106114e257634e487b7160e01b600052603260045260246000fd5b90600052602060002001548154811061150b57634e487b7160e01b600052603260045260246000fd5b9060005260206000209060080201604051806101400160405290816000820154815260200160018201805461153f906127cb565b80601f016020809104026020016040519081016040528092919081815260200182805461156b906127cb565b80156115b85780601f1061158d576101008083540402835291602001916115b8565b820191906000526020600020905b81548152906001019060200180831161159b57829003601f168201915b505050505081526020016002820180546115d1906127cb565b80601f01602080910402602001604051908101604052809291908181526020018280546115fd906127cb565b801561164a5780601f1061161f5761010080835404028352916020019161164a565b820191906000526020600020905b81548152906001019060200180831161162d57829003601f168201915b50505050508152602001600382018054611663906127cb565b80601f016020809104026020016040519081016040528092919081815260200182805461168f906127cb565b80156116dc5780601f106116b1576101008083540402835291602001916116dc565b820191906000526020600020905b8154815290600101906020018083116116bf57829003601f168201915b50505091835250506004820154602082015260058201546040820152600682015460608201526007909101546001600160a01b038116608083015260ff600160a01b82048116151560a0840152600160a81b90910416151560c090910152825183908390811061175c57634e487b7160e01b600052603260045260246000fd5b60200260200101819052505b8061177281612806565b9150506113f0565b509392505050565b6000546040516324ecca6360e21b81523360048201526060916001600160a01b0316906393b3298c9060240160006040518083038186803b1580156117c657600080fd5b505afa1580156117da573d6000803e3d6000fd5b505050506040513d6000823e601f3d908101601f1916820160405261180291908101906121b3565b6101200151151560011461181557600080fd5b600080546040516324ecca6360e21b81523360048201526001600160a01b03909116906393b3298c9060240160006040518083038186803b15801561185957600080fd5b505afa15801561186d573d6000803e3d6000fd5b505050506040513d6000823e601f3d908101601f1916820160405261189591908101906121b3565b60000151905060006003826040516118ad9190612392565b90815260200160405180910390205467ffffffffffffffff8111156118e257634e487b7160e01b600052604160045260246000fd5b60405190808252806020026020018201604052801561191b57816020015b611908611e1d565b8152602001906001900390816119005790505b50905060005b6003836040516119319190612392565b908152602001604051809103902054811015611c1e5760016002846040516119599190612392565b9081526020016040518091039020828154811061198657634e487b7160e01b600052603260045260246000fd5b9060005260206000200154815481106119af57634e487b7160e01b600052603260045260246000fd5b906000526020600020906008020160405180610140016040529081600082015481526020016001820180546119e3906127cb565b80601f0160208091040260200160405190810160405280929190818152602001828054611a0f906127cb565b8015611a5c5780601f10611a3157610100808354040283529160200191611a5c565b820191906000526020600020905b815481529060010190602001808311611a3f57829003601f168201915b50505050508152602001600282018054611a75906127cb565b80601f0160208091040260200160405190810160405280929190818152602001828054611aa1906127cb565b8015611aee5780601f10611ac357610100808354040283529160200191611aee565b820191906000526020600020905b815481529060010190602001808311611ad157829003601f168201915b50505050508152602001600382018054611b07906127cb565b80601f0160208091040260200160405190810160405280929190818152602001828054611b33906127cb565b8015611b805780601f10611b5557610100808354040283529160200191611b80565b820191906000526020600020905b815481529060010190602001808311611b6357829003601f168201915b50505091835250506004820154602082015260058201546040820152600682015460608201526007909101546001600160a01b038116608083015260ff600160a01b82048116151560a0840152600160a81b90910416151560c0909101528251839083908110611c0057634e487b7160e01b600052603260045260246000fd5b60200260200101819052508080611c1690612806565b915050611921565b5091505090565b611c5260405180608001604052806060815260200160608152602001606081526020016000151581525090565b60005460405163bd2456c760e01b81523360048201526001600160a01b039091169063bd2456c79060240160006040518083038186803b158015611c9557600080fd5b505afa158015611ca9573d6000803e3d6000fd5b505050506040513d6000823e601f3d908101601f19168201604052611cd19190810190612180565b905090565b60018181548110611cf757634e487b7160e01b600052603260045260246000fd5b6000918252602090912060089091020160070154600160a01b900460ff1615611d1f57600080fd5b3360018281548110611d4157634e487b7160e01b600052603260045260246000fd5b906000526020600020906008020160070160006101000a8154816001600160a01b0302191690836001600160a01b031602179055506001808281548110611d9857634e487b7160e01b600052603260045260246000fd5b906000526020600020906008020160070160146101000a81548160ff0219169083151502179055506001808281548110611de257634e487b7160e01b600052603260045260246000fd5b6000918252602082206007600890920201018054921515600160a81b0260ff60a81b19909316929092179091556005805491610a8483612806565b6040518061014001604052806000815260200160608152602001606081526020016060815260200160008152602001600081526020016000815260200160006001600160a01b031681526020016000151581526020016000151581525090565b828054611e89906127cb565b90600052602060002090601f016020900481019282611eab5760008555611ef1565b82601f10611ec457805160ff1916838001178555611ef1565b82800160010185558215611ef1579182015b82811115611ef1578251825591602001919060010190611ed6565b50611efd929150611f01565b5090565b5b80821115611efd5760008155600101611f02565b805180151581146112cd57600080fd5b600082601f830112611f36578081fd5b8135611f49611f448261272d565b6126fc565b818152846020838601011115611f5d578283fd5b816020850160208301379081016020019190915292915050565b600082601f830112611f87578081fd5b8151611f95611f448261272d565b818152846020838601011115611fa9578283fd5b611fba826020830160208701612784565b949350505050565b600060808284031215611fd3578081fd5b611fdd60806126fc565b9050815167ffffffffffffffff80821115611ff757600080fd5b61200385838601611f77565b8352602084015191508082111561201957600080fd5b61202585838601611f77565b6020840152604084015191508082111561203e57600080fd5b5061204b84828501611f77565b60408301525061205d60608301611f16565b606082015292915050565b600060208284031215612079578081fd5b81516001600160a01b038116811461208f578182fd5b9392505050565b6000602082840312156120a7578081fd5b813567ffffffffffffffff8111156120bd578182fd5b611fba84828501611f26565b6000602082840312156120da578081fd5b815167ffffffffffffffff8111156120f0578182fd5b611fba84828501611f77565b600080600060608486031215612110578182fd5b833567ffffffffffffffff80821115612127578384fd5b61213387838801611f26565b94506020860135915080821115612148578384fd5b61215487838801611f26565b93506040860135915080821115612169578283fd5b5061217686828701611f26565b9150509250925092565b600060208284031215612191578081fd5b815167ffffffffffffffff8111156121a7578182fd5b611fba84828501611fc2565b6000602082840312156121c4578081fd5b815167ffffffffffffffff808211156121db578283fd5b81840191506101608083870312156121f1578384fd5b6121fa816126fc565b905082518281111561220a578485fd5b61221687828601611f77565b82525060208301518281111561222a578485fd5b61223687828601611f77565b60208301525060408301518281111561224d578485fd5b61225987828601611f77565b604083015250606083015182811115612270578485fd5b61227c87828601611f77565b606083015250608083015182811115612293578485fd5b61229f87828601611f77565b60808301525060a0830151828111156122b6578485fd5b6122c287828601611f77565b60a08301525060c0830151828111156122d9578485fd5b6122e587828601611f77565b60c08301525060e0830151828111156122fc578485fd5b61230887828601611f77565b60e083015250610100915061231e828401611f16565b828201526101209150612332828401611f16565b9181019190915261014091820151918101919091529392505050565b60006020828403121561235f578081fd5b5035919050565b6000815180845261237e816020860160208601612784565b601f01601f19169290920160200192915050565b600082516123a4818460208701612784565b9190910192915050565b60006020808301818452808551808352604092508286019150828160051b870101848801865b8381101561249757603f1989840301855281516101408151855288820151818a87015261240382870182612366565b915050878201518582038987015261241b8282612366565b915050606080830151868303828801526124358382612366565b6080858101519089015260a0808601519089015260c0808601519089015260e0808601516001600160a01b03169089015261010080860151151590890152610120948501511515949097019390935250505093860193908601906001016123d4565b509098975050505050505050565b60006020825261208f6020830184612366565b6000602080835281845483600182811c9150808316806124d957607f831692505b8583108114156124f757634e487b7160e01b87526022600452602487fd5b87860183815260200181801561251457600181146125255761254f565b60ff1986168252878201965061254f565b60008b815260209020895b8681101561254957815484820152908501908901612530565b83019750505b50949998505050505050505050565b60006020825282516080602084015261257a60a0840182612366565b90506020840151601f19808584030160408601526125988383612366565b92506040860151915080858403016060860152506125b68282612366565b9150506060840151151560808401528091505092915050565b60006020825282516101608060208501526125ee610180850183612366565b91506020850151601f198086850301604087015261260c8483612366565b935060408701519150808685030160608701526126298483612366565b935060608701519150808685030160808701526126468483612366565b935060808701519150808685030160a08701526126638483612366565b935060a08701519150808685030160c08701526126808483612366565b935060c08701519150808685030160e087015261269d8483612366565b935060e087015191506101008187860301818801526126bc8584612366565b945080880151925050506101206126d68187018315159052565b86015190506101406126eb8682018315159052565b959095015193019290925250919050565b604051601f8201601f1916810167ffffffffffffffff8111828210171561272557612725612837565b604052919050565b600067ffffffffffffffff82111561274757612747612837565b50601f01601f191660200190565b6000821982111561276857612768612821565b500190565b60008282101561277f5761277f612821565b500390565b60005b8381101561279f578181015183820152602001612787565b838111156127ae576000848401525b50505050565b6000816127c3576127c3612821565b506000190190565b600181811c908216806127df57607f821691505b6020821081141561280057634e487b7160e01b600052602260045260246000fd5b50919050565b600060001982141561281a5761281a612821565b5060010190565b634e487b7160e01b600052601160045260246000fd5b634e487b7160e01b600052604160045260246000fdfea264697066735822122029368a6991eb7de7aabb9135118bb9f35050ca2e6e99d25c80c22e3de9cb670764736f6c63430008030033",
  "immutableReferences": {},
  "source": "// SPDX-License-Identifier: MIT\npragma solidity >=0.7.0 <0.9.0;\n\nimport \"./SetGrade.sol\";\nimport \"./Model.sol\";\nimport \"./User.sol\";\n\ncontract Certificate {\n    User private user;\n\n    constructor(User _user) {\n        user = _user;\n    }\n\n    Model.certificate[] certificateList;\n    mapping(string => uint256[]) studentCerts;\n    mapping(string => uint256) studentCertCount;\n    mapping(uint256 => string) idToAddress;\n    uint256 signedCertCount;\n    uint256 visibleCertCount;\n\n    using SetGrade for string;\n\n    modifier onlyAADepartmentUser() {\n        require(user.getAADepartmentUser(msg.sender).isActive == true);\n        _;\n    }\n\n    modifier onlyCurrentRector() {\n        require(msg.sender == user.currentRectorAddress());\n        _;\n    }\n\n    modifier onlyStudent() {\n        require(user.getStudentByAddr(msg.sender).isActive == true);\n        _;\n    }\n\n    modifier onlyRectorOrAAD() {\n        require(msg.sender == user.currentRectorAddress() || user.getAADepartmentUser(msg.sender).isActive == true);\n        _;\n    }\n\n    //tao bang chinh thuc cho student\n    function createCertificate(string memory _studentId)\n        public\n        onlyAADepartmentUser\n    {\n        //require(studentCertCount[_studentId] == 0); // ch to c bng cho nhng sinh vin cha c too\n        Model.certificate memory temp;\n        temp.id = certificateList.length;\n        temp.name = user.getStudentByAddr(msg.sender).major;\n        temp.cpa = user.getStudentByAddr(msg.sender).cpa;\n        temp.grade = SetGrade.setGrade(temp.cpa);\n        temp.timestamp = block.timestamp;\n        temp.NumOfExports = 0;\n        temp.visible = false;\n\n        certificateList.push(temp);\n        studentCerts[_studentId].push(certificateList.length - 1);\n        idToAddress[certificateList.length - 1] = _studentId;\n        studentCertCount[_studentId] += 1;\n    }\n\n    //tao bang kep cho student\n    function createDoubleCertificate(\n        string memory _studentId,\n        string memory _name,\n        string memory _cpa\n    ) public onlyAADepartmentUser {\n        Model.certificate memory temp;\n        temp.id = certificateList.length;\n        temp.name = _name;\n        temp.cpa = _cpa;\n        temp.grade = SetGrade.setGrade(_cpa);\n        temp.timestamp = block.timestamp;\n        temp.NumOfExports = 0;\n        temp.visible = false;\n\n        certificateList.push(temp);\n        studentCerts[_studentId].push(certificateList.length - 1);\n        idToAddress[certificateList.length - 1] = _studentId;\n        studentCertCount[_studentId] += 1;\n    }\n\n    function getStudentByCert(uint256 _id)\n        public\n        view\n        returns (Model.student memory)\n    {\n        Model.student memory temp = user.getStudentById(idToAddress[_id]);\n        return temp;\n    }\n\n    function signCertificate(uint256 _index) public {\n        //require(certificateList[_index-1].siged == false); // ch k c nhng chng ch no cha k\n        require(certificateList[_index].signed == false);\n        certificateList[_index].issuer = msg.sender;\n        certificateList[_index].signed = true;\n        certificateList[_index].visible = true;\n\n        signedCertCount++;\n    }\n\n    // hm ny chy lc thng student xem cer cu n\n    function seeMyCertificate()\n        public\n        view\n        onlyStudent\n        returns (Model.certificate[] memory)\n    {\n        string memory studentId = user.getStudentByAddr(msg.sender).id;\n        Model.certificate[] memory studentCertificates =\n            new Model.certificate[](studentCertCount[studentId]);\n        for (uint256 i = 0; i < studentCertCount[studentId]; i++) {\n            studentCertificates[i] = certificateList[\n                studentCerts[studentId][i]\n            ];\n        }\n        return studentCertificates;\n    }\n\n    function changeCertVisibility(uint256 _index) public onlyStudent {\n        certificateList[_index].visible = !certificateList[_index].visible;\n        if (certificateList[_index].visible) {\n            visibleCertCount++;\n        } else {\n            visibleCertCount--;\n        }\n    }\n\n    // cng ty check cc bng ca 1 sinh vin\n    function seeStudentCerts(string memory _studentId)\n        public\n        view\n        returns (Model.certificate[] memory)\n    {\n        require(user.getCompany(msg.sender).isActive == true);\n        uint256 count = studentCerts[_studentId].length;\n        Model.certificate[] memory studentCertificates = new Model.certificate[](count);\n        for (uint256 i = 0; i < studentCerts[_studentId].length; i++) {\n            if (certificateList[studentCerts[_studentId][i]].visible)\n                studentCertificates[i] = certificateList[\n                    studentCerts[_studentId][i]\n                ];\n        }\n        return studentCertificates;\n    }\n\n    // cng ty xem cert cng khai\n    function seeVisibleCerts() public view returns (Model.certificate[] memory) {\n        require(user.getCompany(msg.sender).isActive == true);\n        Model.certificate[] memory allVisibleCerts =\n            new Model.certificate[](signedCertCount);\n        uint256 count = 0;\n        for (uint256 i = 0; i < certificateList.length; i++) {\n            if (certificateList[i].visible) {\n                count++;\n                allVisibleCerts[count] = certificateList[i];\n            }\n        }\n        return allVisibleCerts;\n    }\n\n    //nh trng xem ht\n    function seeAllCerts()\n        public\n        view\n        onlyRectorOrAAD\n        returns (Model.certificate[] memory)\n    {\n        return certificateList;\n    }\n\n    function getAADUser() public view returns (Model.AADUser memory){\n        return user.getAADepartmentUser(msg.sender);\n    }\n}\n",
  "sourcePath": "/Users/hughdo/Desktop/Proj/CertVerificationSystem/contracts/Certificate.sol",
  "compiler": {
    "name": "solc",
    "version": "0.8.3+commit.8d00100c.Emscripten.clang"
  },
  "schemaVersion": "3.3.4",
  "updatedAt": "2021-04-20T03:48:26.589Z",
  "networkType": "ethereum",
  "devdoc": {
    "kind": "dev",
    "methods": {},
    "version": 1
  },
  "userdoc": {
    "kind": "user",
    "methods": {},
    "version": 1
  }
}