{
  "contractName": "Certificate",
  "abi": [
    {
      "inputs": [
        {
          "internalType": "contract User",
          "name": "_user",
          "type": "address"
        }
      ],
      "stateMutability": "nonpayable",
      "type": "constructor"
    },
    {
      "inputs": [
        {
          "internalType": "string",
          "name": "_studentId",
          "type": "string"
        }
      ],
      "name": "createCertificate",
      "outputs": [],
      "stateMutability": "nonpayable",
      "type": "function"
    },
    {
      "inputs": [
        {
          "internalType": "string",
          "name": "_studentId",
          "type": "string"
        },
        {
          "internalType": "string",
          "name": "_name",
          "type": "string"
        },
        {
          "internalType": "string",
          "name": "_cpa",
          "type": "string"
        }
      ],
      "name": "createDoubleCertificate",
      "outputs": [],
      "stateMutability": "nonpayable",
      "type": "function"
    },
    {
      "inputs": [
        {
          "internalType": "uint256",
          "name": "_id",
          "type": "uint256"
        }
      ],
      "name": "getStudentByCert",
      "outputs": [
        {
          "components": [
            {
              "internalType": "string",
              "name": "id",
              "type": "string"
            },
            {
              "internalType": "string",
              "name": "name",
              "type": "string"
            },
            {
              "internalType": "string",
              "name": "email",
              "type": "string"
            },
            {
              "internalType": "string",
              "name": "date",
              "type": "string"
            },
            {
              "internalType": "string",
              "name": "phone",
              "type": "string"
            },
            {
              "internalType": "string",
              "name": "class",
              "type": "string"
            },
            {
              "internalType": "string",
              "name": "major",
              "type": "string"
            },
            {
              "internalType": "string",
              "name": "cpa",
              "type": "string"
            },
            {
              "internalType": "bool",
              "name": "qualifiedForGraduation",
              "type": "bool"
            },
            {
              "internalType": "bool",
              "name": "isActive",
              "type": "bool"
            },
            {
              "internalType": "uint256",
              "name": "nonce",
              "type": "uint256"
            }
          ],
          "internalType": "struct Model.student",
          "name": "",
          "type": "tuple"
        }
      ],
      "stateMutability": "view",
      "type": "function",
      "constant": true
    },
    {
      "inputs": [
        {
          "internalType": "string",
          "name": "_studentId",
          "type": "string"
        }
      ],
      "name": "getStudentCertCount",
      "outputs": [
        {
          "internalType": "uint256",
          "name": "",
          "type": "uint256"
        }
      ],
      "stateMutability": "view",
      "type": "function",
      "constant": true
    },
    {
      "inputs": [
        {
          "internalType": "uint256",
          "name": "_index",
          "type": "uint256"
        }
      ],
      "name": "signCertificate",
      "outputs": [],
      "stateMutability": "nonpayable",
      "type": "function"
    },
    {
      "inputs": [
        {
          "internalType": "uint256[]",
          "name": "_ids",
          "type": "uint256[]"
        }
      ],
      "name": "signMultipleCert",
      "outputs": [],
      "stateMutability": "nonpayable",
      "type": "function"
    },
    {
      "inputs": [],
      "name": "seeMyCertificate",
      "outputs": [
        {
          "components": [
            {
              "internalType": "uint256",
              "name": "id",
              "type": "uint256"
            },
            {
              "internalType": "string",
              "name": "name",
              "type": "string"
            },
            {
              "internalType": "string",
              "name": "cpa",
              "type": "string"
            },
            {
              "internalType": "string",
              "name": "grade",
              "type": "string"
            },
            {
              "internalType": "uint256",
              "name": "timestamp",
              "type": "uint256"
            },
            {
              "internalType": "uint256",
              "name": "exportTime",
              "type": "uint256"
            },
            {
              "internalType": "uint256",
              "name": "NumOfExports",
              "type": "uint256"
            },
            {
              "internalType": "address",
              "name": "issuer",
              "type": "address"
            },
            {
              "internalType": "bool",
              "name": "signed",
              "type": "bool"
            },
            {
              "internalType": "bool",
              "name": "visible",
              "type": "bool"
            }
          ],
          "internalType": "struct Model.certificate[]",
          "name": "",
          "type": "tuple[]"
        }
      ],
      "stateMutability": "view",
      "type": "function",
      "constant": true
    },
    {
      "inputs": [
        {
          "internalType": "uint256",
          "name": "_index",
          "type": "uint256"
        }
      ],
      "name": "changeCertVisibility",
      "outputs": [],
      "stateMutability": "nonpayable",
      "type": "function"
    },
    {
      "inputs": [
        {
          "internalType": "string",
          "name": "_studentId",
          "type": "string"
        }
      ],
      "name": "seeStudentCerts",
      "outputs": [
        {
          "components": [
            {
              "internalType": "uint256",
              "name": "id",
              "type": "uint256"
            },
            {
              "internalType": "string",
              "name": "name",
              "type": "string"
            },
            {
              "internalType": "string",
              "name": "cpa",
              "type": "string"
            },
            {
              "internalType": "string",
              "name": "grade",
              "type": "string"
            },
            {
              "internalType": "uint256",
              "name": "timestamp",
              "type": "uint256"
            },
            {
              "internalType": "uint256",
              "name": "exportTime",
              "type": "uint256"
            },
            {
              "internalType": "uint256",
              "name": "NumOfExports",
              "type": "uint256"
            },
            {
              "internalType": "address",
              "name": "issuer",
              "type": "address"
            },
            {
              "internalType": "bool",
              "name": "signed",
              "type": "bool"
            },
            {
              "internalType": "bool",
              "name": "visible",
              "type": "bool"
            }
          ],
          "internalType": "struct Model.certificate[]",
          "name": "",
          "type": "tuple[]"
        }
      ],
      "stateMutability": "view",
      "type": "function",
      "constant": true
    },
    {
      "inputs": [],
      "name": "seeVisibleCerts",
      "outputs": [
        {
          "components": [
            {
              "internalType": "uint256",
              "name": "id",
              "type": "uint256"
            },
            {
              "internalType": "string",
              "name": "name",
              "type": "string"
            },
            {
              "internalType": "string",
              "name": "cpa",
              "type": "string"
            },
            {
              "internalType": "string",
              "name": "grade",
              "type": "string"
            },
            {
              "internalType": "uint256",
              "name": "timestamp",
              "type": "uint256"
            },
            {
              "internalType": "uint256",
              "name": "exportTime",
              "type": "uint256"
            },
            {
              "internalType": "uint256",
              "name": "NumOfExports",
              "type": "uint256"
            },
            {
              "internalType": "address",
              "name": "issuer",
              "type": "address"
            },
            {
              "internalType": "bool",
              "name": "signed",
              "type": "bool"
            },
            {
              "internalType": "bool",
              "name": "visible",
              "type": "bool"
            }
          ],
          "internalType": "struct Model.certificate[]",
          "name": "",
          "type": "tuple[]"
        }
      ],
      "stateMutability": "view",
      "type": "function",
      "constant": true
    },
    {
      "inputs": [],
      "name": "seeAllCerts",
      "outputs": [
        {
          "components": [
            {
              "internalType": "uint256",
              "name": "id",
              "type": "uint256"
            },
            {
              "internalType": "string",
              "name": "name",
              "type": "string"
            },
            {
              "internalType": "string",
              "name": "cpa",
              "type": "string"
            },
            {
              "internalType": "string",
              "name": "grade",
              "type": "string"
            },
            {
              "internalType": "uint256",
              "name": "timestamp",
              "type": "uint256"
            },
            {
              "internalType": "uint256",
              "name": "exportTime",
              "type": "uint256"
            },
            {
              "internalType": "uint256",
              "name": "NumOfExports",
              "type": "uint256"
            },
            {
              "internalType": "address",
              "name": "issuer",
              "type": "address"
            },
            {
              "internalType": "bool",
              "name": "signed",
              "type": "bool"
            },
            {
              "internalType": "bool",
              "name": "visible",
              "type": "bool"
            }
          ],
          "internalType": "struct Model.certificate[]",
          "name": "",
          "type": "tuple[]"
        }
      ],
      "stateMutability": "view",
      "type": "function",
      "constant": true
    },
    {
      "inputs": [],
      "name": "getAADUser",
      "outputs": [
        {
          "components": [
            {
              "internalType": "string",
              "name": "name",
              "type": "string"
            },
            {
              "internalType": "string",
              "name": "date",
              "type": "string"
            },
            {
              "internalType": "string",
              "name": "phone",
              "type": "string"
            },
            {
              "internalType": "bool",
              "name": "isActive",
              "type": "bool"
            }
          ],
          "internalType": "struct Model.AADUser",
          "name": "",
          "type": "tuple"
        }
      ],
      "stateMutability": "view",
      "type": "function",
      "constant": true
    }
  ],
  "bytecode": "0x60806040523480156200001157600080fd5b5060405162002d1e38038062002d1e83398101604081905262000034916200005a565b600080546001600160a01b0319166001600160a01b03929092169190911790556200008a565b6000602082840312156200006c578081fd5b81516001600160a01b038116811462000083578182fd5b9392505050565b612c84806200009a6000396000f3fe608060405234801561001057600080fd5b50600436106100b45760003560e01c8063d12d6f6e11610071578063d12d6f6e1461013b578063d59f02d41461014e578063d6f641cd1461016e578063e762b04514610181578063f3ef8e2914610189578063f9e556291461019e576100b4565b80630e21e9d0146100b957806349867178146100d757806357fdb0fa146100df578063669c2d84146100f457806367b1a0d6146101155780637444488214610128575b600080fd5b6100c16101b1565b6040516100ce91906127d4565b60405180910390f35b6100c16105a3565b6100f26100ed366004612705565b610944565b005b61010761010236600461244d565b610bc5565b6040519081526020016100ce565b6100f26101233660046124b3565b610bee565b6100f261013636600461244d565b610f13565b6100f26101493660046123a5565b611343565b61016161015c366004612705565b611432565b6040516100ce91906129d0565b6100c161017c36600461244d565b61152a565b6100c16119da565b610191611e7d565b6040516100ce919061295f565b6100f26101ac366004612705565b611f2e565b60005460405163f117dd5b60e01b81523360048201526060916001600160a01b03169063f117dd5b9060240160006040518083038186803b1580156101f557600080fd5b505afa158015610209573d6000803e3d6000fd5b505050506040513d6000823e601f3d908101601f191682016040526102319190810190612537565b60600151151560011461024357600080fd5b600060055467ffffffffffffffff81111561026e57634e487b7160e01b600052604160045260246000fd5b6040519080825280602002602001820160405280156102a757816020015b610294612133565b81526020019060019003908161028c5790505b5090506000805b60015481101561059b57600181815481106102d957634e487b7160e01b600052603260045260246000fd5b906000526020600020906008020160070160159054906101000a900460ff1615610589576001818154811061031e57634e487b7160e01b600052603260045260246000fd5b9060005260206000209060080201604051806101400160405290816000820154815260200160018201805461035290612bcc565b80601f016020809104026020016040519081016040528092919081815260200182805461037e90612bcc565b80156103cb5780601f106103a0576101008083540402835291602001916103cb565b820191906000526020600020905b8154815290600101906020018083116103ae57829003601f168201915b505050505081526020016002820180546103e490612bcc565b80601f016020809104026020016040519081016040528092919081815260200182805461041090612bcc565b801561045d5780601f106104325761010080835404028352916020019161045d565b820191906000526020600020905b81548152906001019060200180831161044057829003601f168201915b5050505050815260200160038201805461047690612bcc565b80601f01602080910402602001604051908101604052809291908181526020018280546104a290612bcc565b80156104ef5780601f106104c4576101008083540402835291602001916104ef565b820191906000526020600020905b8154815290600101906020018083116104d257829003601f168201915b50505091835250506004820154602082015260058201546040820152600682015460608201526007909101546001600160a01b038116608083015260ff600160a01b82048116151560a0840152600160a81b90910416151560c090910152835184908490811061056f57634e487b7160e01b600052603260045260246000fd5b6020026020010181905250818061058590612c07565b9250505b8061059381612c07565b9150506102ae565b509091505090565b60005460408051634f54be9760e11b815290516060926001600160a01b031691639ea97d2e916004808301926020929190829003018186803b1580156105e857600080fd5b505afa1580156105fc573d6000803e3d6000fd5b505050506040513d601f19601f82011682018060405250810190610620919061237e565b6001600160a01b0316336001600160a01b031614806106c3575060005460405163bd2456c760e01b81523360048201526001600160a01b039091169063bd2456c79060240160006040518083038186803b15801561067d57600080fd5b505afa158015610691573d6000803e3d6000fd5b505050506040513d6000823e601f3d908101601f191682016040526106b99190810190612537565b6060015115156001145b6106cc57600080fd5b6001805480602002602001604051908101604052809291908181526020016000905b8282101561093b5783829060005260206000209060080201604051806101400160405290816000820154815260200160018201805461072c90612bcc565b80601f016020809104026020016040519081016040528092919081815260200182805461075890612bcc565b80156107a55780601f1061077a576101008083540402835291602001916107a5565b820191906000526020600020905b81548152906001019060200180831161078857829003601f168201915b505050505081526020016002820180546107be90612bcc565b80601f01602080910402602001604051908101604052809291908181526020018280546107ea90612bcc565b80156108375780601f1061080c57610100808354040283529160200191610837565b820191906000526020600020905b81548152906001019060200180831161081a57829003601f168201915b5050505050815260200160038201805461085090612bcc565b80601f016020809104026020016040519081016040528092919081815260200182805461087c90612bcc565b80156108c95780601f1061089e576101008083540402835291602001916108c9565b820191906000526020600020905b8154815290600101906020018083116108ac57829003601f168201915b5050509183525050600482015460208083019190915260058301546040830152600683015460608301526007909201546001600160a01b038116608083015260ff600160a01b82048116151560a0840152600160a81b90910416151560c09091015290825260019290920191016106ee565b50505050905090565b6000546040516324ecca6360e21b81523360048201526001600160a01b03909116906393b3298c9060240160006040518083038186803b15801561098757600080fd5b505afa15801561099b573d6000803e3d6000fd5b505050506040513d6000823e601f3d908101601f191682016040526109c3919081019061256a565b610120015115156001146109d657600080fd5b80600460008281526020019081526020016000206040516020016109fa9190612765565b60408051808303601f190181529082905280516020909101206000546324ecca6360e21b835233600484015290916001600160a01b03909116906393b3298c9060240160006040518083038186803b158015610a5557600080fd5b505afa158015610a69573d6000803e3d6000fd5b505050506040513d6000823e601f3d908101601f19168201604052610a91919081019061256a565b51604051610aa29190602001612749565b6040516020818303038152906040528051906020012014610ac257600080fd5b60018281548110610ae357634e487b7160e01b600052603260045260246000fd5b906000526020600020906008020160070160159054906101000a900460ff161560018381548110610b2457634e487b7160e01b600052603260045260246000fd5b906000526020600020906008020160070160156101000a81548160ff02191690831515021790555060018281548110610b6d57634e487b7160e01b600052603260045260246000fd5b906000526020600020906008020160070160159054906101000a900460ff1615610bab5760068054906000610ba183612c07565b9190505550610bc1565b60068054906000610bbb83612bb5565b91905055505b5050565b6000600382604051610bd79190612749565b90815260200160405180910390205490505b919050565b60005460405163bd2456c760e01b81523360048201526001600160a01b039091169063bd2456c79060240160006040518083038186803b158015610c3157600080fd5b505afa158015610c45573d6000803e3d6000fd5b505050506040513d6000823e601f3d908101601f19168201604052610c6d9190810190612537565b606001511515600114610c7f57600080fd5b610c87612133565b6001548152602081018390526040808201839052516397678ad560e01b815273__SetGrade______________________________906397678ad590610cd09085906004016128cb565b60006040518083038186803b158015610ce857600080fd5b505af4158015610cfc573d6000803e3d6000fd5b505050506040513d6000823e601f3d908101601f19168201604052610d249190810190612480565b6060820152426080820152600060c0820181905261012082018190526001805480820182559152815160089091027fb10e2d527612073b26eecdfd717e6a320cf44b4afac2b0732d9fcbe2b7fa0cf681019182556020808401518051859493610db3937fb10e2d527612073b26eecdfd717e6a320cf44b4afac2b0732d9fcbe2b7fa0cf7909101920190612193565b5060408201518051610dcf916002840191602090910190612193565b5060608201518051610deb916003840191602090910190612193565b506080820151600482015560a0820151600582015560c0820151600682015560e082015160079091018054610100840151610120909401511515600160a81b0260ff60a81b19941515600160a01b026001600160a81b03199092166001600160a01b03909416939093171792909216179055604051600290610e6e908690612749565b90815260405190819003602001902060018054610e8b9190612b6e565b81546001818101845560009384526020842090910191909155805486926004929091610eb79190612b6e565b81526020019081526020016000209080519060200190610ed8929190612193565b506001600385604051610eeb9190612749565b90815260200160405180910390206000828254610f089190612b56565b909155505050505050565b60005460405163bd2456c760e01b81523360048201526001600160a01b039091169063bd2456c79060240160006040518083038186803b158015610f5657600080fd5b505afa158015610f6a573d6000803e3d6000fd5b505050506040513d6000823e601f3d908101601f19168201604052610f929190810190612537565b606001511515600114610fa457600080fd5b610fac612133565b60015481526000546040516376bd6c1360e11b81526001600160a01b039091169063ed7ad82690610fe19085906004016128cb565b60006040518083038186803b158015610ff957600080fd5b505afa15801561100d573d6000803e3d6000fd5b505050506040513d6000823e601f3d908101601f19168201604052611035919081019061256a565b60c0015160208201526000546040516376bd6c1360e11b81526001600160a01b039091169063ed7ad8269061106e9085906004016128cb565b60006040518083038186803b15801561108657600080fd5b505afa15801561109a573d6000803e3d6000fd5b505050506040513d6000823e601f3d908101601f191682016040526110c2919081019061256a565b60e001516040808301829052516397678ad560e01b815273__SetGrade______________________________916397678ad59161110291906004016128cb565b60006040518083038186803b15801561111a57600080fd5b505af415801561112e573d6000803e3d6000fd5b505050506040513d6000823e601f3d908101601f191682016040526111569190810190612480565b6060820152426080820152600060c0820181905261012082018190526001805480820182559152815160089091027fb10e2d527612073b26eecdfd717e6a320cf44b4afac2b0732d9fcbe2b7fa0cf6810191825560208084015180518594936111e5937fb10e2d527612073b26eecdfd717e6a320cf44b4afac2b0732d9fcbe2b7fa0cf7909101920190612193565b5060408201518051611201916002840191602090910190612193565b506060820151805161121d916003840191602090910190612193565b506080820151600482015560a0820151600582015560c0820151600682015560e082015160079091018054610100840151610120909401511515600160a81b0260ff60a81b19941515600160a01b026001600160a81b03199092166001600160a01b039094169390931717929092161790556040516002906112a0908490612749565b908152604051908190036020019020600180546112bd9190612b6e565b815460018181018455600093845260208420909101919091558054849260049290916112e99190612b6e565b8152602001908152602001600020908051906020019061130a929190612193565b50600160038360405161131d9190612749565b9081526020016040518091039020600082825461133a9190612b56565b90915550505050565b60008054906101000a90046001600160a01b03166001600160a01b0316639ea97d2e6040518163ffffffff1660e01b815260040160206040518083038186803b15801561138f57600080fd5b505afa1580156113a3573d6000803e3d6000fd5b505050506040513d601f19601f820116820180604052508101906113c7919061237e565b6001600160a01b0316336001600160a01b0316146113e457600080fd5b60005b8151811015610bc15761142082828151811061141357634e487b7160e01b600052603260045260246000fd5b6020026020010151611f2e565b8061142a81612c07565b9150506113e7565b6114936040518061016001604052806060815260200160608152602001606081526020016060815260200160608152602001606081526020016060815260200160608152602001600015158152602001600015158152602001600081525090565b6000805483825260046020819052604080842090516376bd6c1360e11b81526001600160a01b039093169263ed7ad826926114cf9291016128de565b60006040518083038186803b1580156114e757600080fd5b505afa1580156114fb573d6000803e3d6000fd5b505050506040513d6000823e601f3d908101601f19168201604052611523919081019061256a565b9392505050565b60005460405163f117dd5b60e01b81523360048201526060916001600160a01b03169063f117dd5b9060240160006040518083038186803b15801561156e57600080fd5b505afa158015611582573d6000803e3d6000fd5b505050506040513d6000823e601f3d908101601f191682016040526115aa9190810190612537565b6060015115156001146115bc57600080fd5b60006002836040516115ce9190612749565b90815260405190819003602001902054905060008167ffffffffffffffff81111561160957634e487b7160e01b600052604160045260246000fd5b60405190808252806020026020018201604052801561164257816020015b61162f612133565b8152602001906001900390816116275790505b50905060005b6002856040516116589190612749565b908152604051908190036020019020548110156119d25760016002866040516116819190612749565b908152602001604051809103902082815481106116ae57634e487b7160e01b600052603260045260246000fd5b9060005260206000200154815481106116d757634e487b7160e01b600052603260045260246000fd5b906000526020600020906008020160070160159054906101000a900460ff16156119c057600160028660405161170d9190612749565b9081526020016040518091039020828154811061173a57634e487b7160e01b600052603260045260246000fd5b90600052602060002001548154811061176357634e487b7160e01b600052603260045260246000fd5b9060005260206000209060080201604051806101400160405290816000820154815260200160018201805461179790612bcc565b80601f01602080910402602001604051908101604052809291908181526020018280546117c390612bcc565b80156118105780601f106117e557610100808354040283529160200191611810565b820191906000526020600020905b8154815290600101906020018083116117f357829003601f168201915b5050505050815260200160028201805461182990612bcc565b80601f016020809104026020016040519081016040528092919081815260200182805461185590612bcc565b80156118a25780601f10611877576101008083540402835291602001916118a2565b820191906000526020600020905b81548152906001019060200180831161188557829003601f168201915b505050505081526020016003820180546118bb90612bcc565b80601f01602080910402602001604051908101604052809291908181526020018280546118e790612bcc565b80156119345780601f1061190957610100808354040283529160200191611934565b820191906000526020600020905b81548152906001019060200180831161191757829003601f168201915b50505091835250506004820154602082015260058201546040820152600682015460608201526007909101546001600160a01b038116608083015260ff600160a01b82048116151560a0840152600160a81b90910416151560c09091015282518390839081106119b457634e487b7160e01b600052603260045260246000fd5b60200260200101819052505b806119ca81612c07565b915050611648565b509392505050565b6000546040516324ecca6360e21b81523360048201526060916001600160a01b0316906393b3298c9060240160006040518083038186803b158015611a1e57600080fd5b505afa158015611a32573d6000803e3d6000fd5b505050506040513d6000823e601f3d908101601f19168201604052611a5a919081019061256a565b61012001511515600114611a6d57600080fd5b600080546040516324ecca6360e21b81523360048201526001600160a01b03909116906393b3298c9060240160006040518083038186803b158015611ab157600080fd5b505afa158015611ac5573d6000803e3d6000fd5b505050506040513d6000823e601f3d908101601f19168201604052611aed919081019061256a565b6000015190506000600382604051611b059190612749565b90815260200160405180910390205467ffffffffffffffff811115611b3a57634e487b7160e01b600052604160045260246000fd5b604051908082528060200260200182016040528015611b7357816020015b611b60612133565b815260200190600190039081611b585790505b50905060005b600383604051611b899190612749565b908152602001604051809103902054811015611e76576001600284604051611bb19190612749565b90815260200160405180910390208281548110611bde57634e487b7160e01b600052603260045260246000fd5b906000526020600020015481548110611c0757634e487b7160e01b600052603260045260246000fd5b90600052602060002090600802016040518061014001604052908160008201548152602001600182018054611c3b90612bcc565b80601f0160208091040260200160405190810160405280929190818152602001828054611c6790612bcc565b8015611cb45780601f10611c8957610100808354040283529160200191611cb4565b820191906000526020600020905b815481529060010190602001808311611c9757829003601f168201915b50505050508152602001600282018054611ccd90612bcc565b80601f0160208091040260200160405190810160405280929190818152602001828054611cf990612bcc565b8015611d465780601f10611d1b57610100808354040283529160200191611d46565b820191906000526020600020905b815481529060010190602001808311611d2957829003601f168201915b50505050508152602001600382018054611d5f90612bcc565b80601f0160208091040260200160405190810160405280929190818152602001828054611d8b90612bcc565b8015611dd85780601f10611dad57610100808354040283529160200191611dd8565b820191906000526020600020905b815481529060010190602001808311611dbb57829003601f168201915b50505091835250506004820154602082015260058201546040820152600682015460608201526007909101546001600160a01b038116608083015260ff600160a01b82048116151560a0840152600160a81b90910416151560c0909101528251839083908110611e5857634e487b7160e01b600052603260045260246000fd5b60200260200101819052508080611e6e90612c07565b915050611b79565b5091505090565b611eaa60405180608001604052806060815260200160608152602001606081526020016000151581525090565b60005460405163bd2456c760e01b81523360048201526001600160a01b039091169063bd2456c79060240160006040518083038186803b158015611eed57600080fd5b505afa158015611f01573d6000803e3d6000fd5b505050506040513d6000823e601f3d908101601f19168201604052611f299190810190612537565b905090565b60008054906101000a90046001600160a01b03166001600160a01b0316639ea97d2e6040518163ffffffff1660e01b815260040160206040518083038186803b158015611f7a57600080fd5b505afa158015611f8e573d6000803e3d6000fd5b505050506040513d601f19601f82011682018060405250810190611fb2919061237e565b6001600160a01b0316336001600160a01b031614611fcf57600080fd5b60018181548110611ff057634e487b7160e01b600052603260045260246000fd5b6000918252602090912060089091020160070154600160a01b900460ff161561201857600080fd5b336001828154811061203a57634e487b7160e01b600052603260045260246000fd5b906000526020600020906008020160070160006101000a8154816001600160a01b0302191690836001600160a01b03160217905550600180828154811061209157634e487b7160e01b600052603260045260246000fd5b906000526020600020906008020160070160146101000a81548160ff02191690831515021790555060018082815481106120db57634e487b7160e01b600052603260045260246000fd5b6000918252602082206007600890920201018054921515600160a81b0260ff60a81b1990931692909217909155600580549161211683612c07565b90915550506006805490600061212b83612c07565b919050555050565b6040518061014001604052806000815260200160608152602001606081526020016060815260200160008152602001600081526020016000815260200160006001600160a01b031681526020016000151581526020016000151581525090565b82805461219f90612bcc565b90600052602060002090601f0160209004810192826121c15760008555612207565b82601f106121da57805160ff1916838001178555612207565b82800160010185558215612207579182015b828111156122075782518255916020019190600101906121ec565b50612213929150612217565b5090565b5b808211156122135760008155600101612218565b80518015158114610be957600080fd5b600082601f83011261224c578081fd5b813561225f61225a82612b2e565b612afd565b818152846020838601011115612273578283fd5b816020850160208301379081016020019190915292915050565b600082601f83011261229d578081fd5b81516122ab61225a82612b2e565b8181528460208386010111156122bf578283fd5b6122d0826020830160208701612b85565b949350505050565b6000608082840312156122e9578081fd5b6122f36080612afd565b9050815167ffffffffffffffff8082111561230d57600080fd5b6123198583860161228d565b8352602084015191508082111561232f57600080fd5b61233b8583860161228d565b6020840152604084015191508082111561235457600080fd5b506123618482850161228d565b6040830152506123736060830161222c565b606082015292915050565b60006020828403121561238f578081fd5b81516001600160a01b0381168114611523578182fd5b600060208083850312156123b7578182fd5b823567ffffffffffffffff808211156123ce578384fd5b818501915085601f8301126123e1578384fd5b8135818111156123f3576123f3612c38565b8060051b9150612404848301612afd565b8181528481019084860184860187018a101561241e578788fd5b8795505b83861015612440578035835260019590950194918601918601612422565b5098975050505050505050565b60006020828403121561245e578081fd5b813567ffffffffffffffff811115612474578182fd5b6122d08482850161223c565b600060208284031215612491578081fd5b815167ffffffffffffffff8111156124a7578182fd5b6122d08482850161228d565b6000806000606084860312156124c7578182fd5b833567ffffffffffffffff808211156124de578384fd5b6124ea8783880161223c565b945060208601359150808211156124ff578384fd5b61250b8783880161223c565b93506040860135915080821115612520578283fd5b5061252d8682870161223c565b9150509250925092565b600060208284031215612548578081fd5b815167ffffffffffffffff81111561255e578182fd5b6122d0848285016122d8565b60006020828403121561257b578081fd5b815167ffffffffffffffff80821115612592578283fd5b81840191506101608083870312156125a8578384fd5b6125b181612afd565b90508251828111156125c1578485fd5b6125cd8782860161228d565b8252506020830151828111156125e1578485fd5b6125ed8782860161228d565b602083015250604083015182811115612604578485fd5b6126108782860161228d565b604083015250606083015182811115612627578485fd5b6126338782860161228d565b60608301525060808301518281111561264a578485fd5b6126568782860161228d565b60808301525060a08301518281111561266d578485fd5b6126798782860161228d565b60a08301525060c083015182811115612690578485fd5b61269c8782860161228d565b60c08301525060e0830151828111156126b3578485fd5b6126bf8782860161228d565b60e08301525061010091506126d582840161222c565b8282015261012091506126e982840161222c565b9181019190915261014091820151918101919091529392505050565b600060208284031215612716578081fd5b5035919050565b60008151808452612735816020860160208601612b85565b601f01601f19169290920160200192915050565b6000825161275b818460208701612b85565b9190910192915050565b600080835461277381612bcc565b6001828116801561278b576001811461279c576127c8565b60ff198416875282870194506127c8565b8786526020808720875b858110156127bf5781548a8201529084019082016127a6565b50505082870194505b50929695505050505050565b60006020808301818452808551808352604092508286019150828160051b870101848801865b838110156128bd57603f1989840301855281516101408151855288820151818a8701526128298287018261271d565b9150508782015185820389870152612841828261271d565b9150506060808301518683038288015261285b838261271d565b6080858101519089015260a0808601519089015260c0808601519089015260e0808601516001600160a01b03169089015261010080860151151590890152610120948501511515949097019390935250505093860193908601906001016127fa565b509098975050505050505050565b600060208252611523602083018461271d565b600060208083528184546128f181612bcc565b80848701526040600180841660008114612912576001811461292657612951565b60ff19851689840152606089019550612951565b898852868820885b858110156129495781548b820186015290830190880161292e565b8a0184019650505b509398975050505050505050565b60006020825282516080602084015261297b60a084018261271d565b90506020840151601f1980858403016040860152612999838361271d565b92506040860151915080858403016060860152506129b7828261271d565b9150506060840151151560808401528091505092915050565b60006020825282516101608060208501526129ef61018085018361271d565b91506020850151601f1980868503016040870152612a0d848361271d565b93506040870151915080868503016060870152612a2a848361271d565b93506060870151915080868503016080870152612a47848361271d565b935060808701519150808685030160a0870152612a64848361271d565b935060a08701519150808685030160c0870152612a81848361271d565b935060c08701519150808685030160e0870152612a9e848361271d565b935060e08701519150610100818786030181880152612abd858461271d565b94508088015192505050610120612ad78187018315159052565b8601519050610140612aec8682018315159052565b959095015193019290925250919050565b604051601f8201601f1916810167ffffffffffffffff81118282101715612b2657612b26612c38565b604052919050565b600067ffffffffffffffff821115612b4857612b48612c38565b50601f01601f191660200190565b60008219821115612b6957612b69612c22565b500190565b600082821015612b8057612b80612c22565b500390565b60005b83811015612ba0578181015183820152602001612b88565b83811115612baf576000848401525b50505050565b600081612bc457612bc4612c22565b506000190190565b600181811c90821680612be057607f821691505b60208210811415612c0157634e487b7160e01b600052602260045260246000fd5b50919050565b6000600019821415612c1b57612c1b612c22565b5060010190565b634e487b7160e01b600052601160045260246000fd5b634e487b7160e01b600052604160045260246000fdfea2646970667358221220cff1ecd11c100868c424e13dad90bb76079a3935abceb3a9d965e3246074546a64736f6c63430008030033",
  "immutableReferences": {},
  "source": "// SPDX-License-Identifier: MIT\npragma solidity >=0.7.0 <0.9.0;\n\nimport \"./SetGrade.sol\";\nimport \"./Model.sol\";\nimport \"./User.sol\";\n\ncontract Certificate {\n    User private user;\n\n    constructor(User _user) {\n        user = _user;\n    }\n\n    Model.certificate[] certificateList;\n    mapping(string => uint256[]) studentCerts;\n    mapping(string => uint256) studentCertCount;\n    mapping(uint256 => string) idToStudentId;\n    uint256 signedCertCount;\n    uint256 visibleCertCount;\n\n    using SetGrade for string;\n\n    modifier onlyAADepartmentUser() {\n        require(user.getAADepartmentUser(msg.sender).isActive == true);\n        _;\n    }\n\n    modifier onlyCurrentRector() {\n        require(msg.sender == user.currentRectorAddress());\n        _;\n    }\n\n    modifier onlyStudent() {\n        require(user.getStudentByAddr(msg.sender).isActive == true);\n        _;\n    }\n\n    modifier isCertOwner(uint _id) {\n        require(keccak256(abi.encodePacked(user.getStudentByAddr(msg.sender).id)) == keccak256(abi.encodePacked(idToStudentId[_id])));\n        _;\n    }\n\n    modifier onlyRectorOrAAD() {\n        require(msg.sender == user.currentRectorAddress() || user.getAADepartmentUser(msg.sender).isActive == true);\n        _;\n    }\n\n    //tao bang chinh thuc cho student\n    function createCertificate(string memory _studentId)\n        public\n        onlyAADepartmentUser\n    {\n        //require(studentCertCount[_studentId] == 0); // ch to c bng cho nhng sinh vin cha c too\n        Model.certificate memory temp;\n        temp.id = certificateList.length;\n        temp.name = user.getStudentById(_studentId).major;\n        temp.cpa = user.getStudentById(_studentId).cpa;\n        temp.grade = SetGrade.setGrade(temp.cpa);\n        temp.timestamp = block.timestamp;\n        temp.NumOfExports = 0;\n        temp.visible = false;\n\n        certificateList.push(temp);\n        studentCerts[_studentId].push(certificateList.length - 1);\n        idToStudentId[certificateList.length - 1] = _studentId;\n        studentCertCount[_studentId] += 1;\n    }\n\n    //tao bang kep cho student\n    function createDoubleCertificate(\n        string memory _studentId,\n        string memory _name,\n        string memory _cpa\n    ) public onlyAADepartmentUser {\n        Model.certificate memory temp;\n        temp.id = certificateList.length;\n        temp.name = _name;\n        temp.cpa = _cpa;\n        temp.grade = SetGrade.setGrade(_cpa);\n        temp.timestamp = block.timestamp;\n        temp.NumOfExports = 0;\n        temp.visible = false;\n\n        certificateList.push(temp);\n        studentCerts[_studentId].push(certificateList.length - 1);\n        idToStudentId[certificateList.length - 1] = _studentId;\n        studentCertCount[_studentId] += 1;\n    }\n\n    function getStudentByCert(uint256 _id)\n        public\n        view\n        returns (Model.student memory)\n    {\n        Model.student memory temp = user.getStudentById(idToStudentId[_id]);\n        return temp;\n    }\n\n    function getStudentCertCount(string memory _studentId) public view returns(uint) {\n        return studentCertCount[_studentId];\n    }\n\n    function signCertificate(uint256 _index) public onlyCurrentRector {\n        //require(certificateList[_index-1].siged == false); // ch k c nhng chng ch no cha k\n        require(certificateList[_index].signed == false);\n        certificateList[_index].issuer = msg.sender;\n        certificateList[_index].signed = true;\n        certificateList[_index].visible = true;\n\n        signedCertCount++;\n        visibleCertCount++;\n    }\n\n    function signMultipleCert(uint256[] memory _ids) public onlyCurrentRector {\n        for (uint256 i = 0;i < _ids.length; i++) {\n            signCertificate(_ids[i]);\n        }\n    }\n\n    // hm ny chy lc thng student xem cer cu n\n    function seeMyCertificate()\n        public\n        view\n        onlyStudent\n        returns (Model.certificate[] memory)\n    {\n        string memory studentId = user.getStudentByAddr(msg.sender).id;\n        Model.certificate[] memory studentCertificates =\n            new Model.certificate[](studentCertCount[studentId]);\n        for (uint256 i = 0; i < studentCertCount[studentId]; i++) {\n            studentCertificates[i] = certificateList[\n                studentCerts[studentId][i]\n            ];\n        }\n        return studentCertificates;\n    }\n\n    function changeCertVisibility(uint256 _index) public onlyStudent isCertOwner(_index) {\n        certificateList[_index].visible = !certificateList[_index].visible;\n        if (certificateList[_index].visible) {\n            visibleCertCount++;\n        } else {\n            visibleCertCount--;\n        }\n    }\n\n    // cng ty check cc bng ca 1 sinh vin\n    function seeStudentCerts(string memory _studentId)\n        public\n        view\n        returns (Model.certificate[] memory)\n    {\n        require(user.getCompanyByAddress(msg.sender).isActive == true);\n        uint256 count = studentCerts[_studentId].length;\n        Model.certificate[] memory studentCertificates = new Model.certificate[](count);\n        for (uint256 i = 0; i < studentCerts[_studentId].length; i++) {\n            if (certificateList[studentCerts[_studentId][i]].visible)\n                studentCertificates[i] = certificateList[\n                    studentCerts[_studentId][i]\n                ];\n        }\n        return studentCertificates;\n    }\n\n    // cng ty xem cert cng khai\n    function seeVisibleCerts() public view returns (Model.certificate[] memory) {\n        require(user.getCompanyByAddress(msg.sender).isActive == true);\n        Model.certificate[] memory allVisibleCerts =\n            new Model.certificate[](signedCertCount);\n        uint256 count = 0;\n        for (uint256 i = 0; i < certificateList.length; i++) {\n            if (certificateList[i].visible) {\n                allVisibleCerts[count] = certificateList[i];\n                count++;\n            }\n        }\n        return allVisibleCerts;\n    }\n\n    //nh trng xem ht\n    function seeAllCerts()\n        public\n        view\n        onlyRectorOrAAD\n        returns (Model.certificate[] memory)\n    {\n        return certificateList;\n    }\n\n    function getAADUser() public view returns (Model.AADUser memory){\n        return user.getAADepartmentUser(msg.sender);\n    }\n}\n",
  "sourcePath": "/Users/hughdo/Desktop/Proj/CertVerificationSystem/contracts/Certificate.sol",
  "compiler": {
    "name": "solc",
    "version": "0.8.3+commit.8d00100c.Emscripten.clang"
  },
  "schemaVersion": "3.3.4",
  "updatedAt": "2021-04-24T14:55:24.909Z",
  "networkType": "ethereum",
  "devdoc": {
    "kind": "dev",
    "methods": {},
    "version": 1
  },
  "userdoc": {
    "kind": "user",
    "methods": {},
    "version": 1
  }
}