{
  "contractName": "Certificate",
  "abi": [
    {
      "inputs": [
        {
          "internalType": "string",
          "name": "_id",
          "type": "string"
        },
        {
          "internalType": "uint256",
          "name": "_nonce",
          "type": "uint256"
        }
      ],
      "name": "activeStudent",
      "outputs": [],
      "stateMutability": "nonpayable",
      "type": "function"
    },
    {
      "inputs": [
        {
          "internalType": "uint256",
          "name": "_companyId",
          "type": "uint256"
        }
      ],
      "name": "approveCompany",
      "outputs": [],
      "stateMutability": "nonpayable",
      "type": "function"
    },
    {
      "inputs": [
        {
          "internalType": "address",
          "name": "_address",
          "type": "address"
        },
        {
          "internalType": "string",
          "name": "_name",
          "type": "string"
        },
        {
          "internalType": "string",
          "name": "_date",
          "type": "string"
        },
        {
          "internalType": "string",
          "name": "_phone",
          "type": "string"
        }
      ],
      "name": "createAADepartmentUser",
      "outputs": [],
      "stateMutability": "nonpayable",
      "type": "function"
    },
    {
      "inputs": [
        {
          "internalType": "string",
          "name": "_name",
          "type": "string"
        },
        {
          "internalType": "string",
          "name": "_description",
          "type": "string"
        },
        {
          "internalType": "string",
          "name": "_jobInfo",
          "type": "string"
        }
      ],
      "name": "createCompany",
      "outputs": [],
      "stateMutability": "nonpayable",
      "type": "function"
    },
    {
      "inputs": [
        {
          "internalType": "address",
          "name": "_newRectorAddr",
          "type": "address"
        },
        {
          "internalType": "string",
          "name": "_name",
          "type": "string"
        },
        {
          "internalType": "string",
          "name": "_date",
          "type": "string"
        },
        {
          "internalType": "string",
          "name": "_phone",
          "type": "string"
        },
        {
          "internalType": "string",
          "name": "_term",
          "type": "string"
        }
      ],
      "name": "createNewRector",
      "outputs": [],
      "stateMutability": "nonpayable",
      "type": "function"
    },
    {
      "inputs": [
        {
          "internalType": "string",
          "name": "_id",
          "type": "string"
        },
        {
          "internalType": "string",
          "name": "_name",
          "type": "string"
        },
        {
          "internalType": "string",
          "name": "_email",
          "type": "string"
        },
        {
          "internalType": "string",
          "name": "_phone",
          "type": "string"
        },
        {
          "internalType": "string",
          "name": "_class",
          "type": "string"
        },
        {
          "internalType": "string",
          "name": "_major",
          "type": "string"
        },
        {
          "internalType": "string",
          "name": "_cpa",
          "type": "string"
        },
        {
          "internalType": "bool",
          "name": "_qualifiedForGraduation",
          "type": "bool"
        }
      ],
      "name": "createStudent",
      "outputs": [],
      "stateMutability": "nonpayable",
      "type": "function"
    },
    {
      "inputs": [
        {
          "internalType": "uint256",
          "name": "_AADUserId",
          "type": "uint256"
        }
      ],
      "name": "deactiveAADepartmentUser",
      "outputs": [],
      "stateMutability": "nonpayable",
      "type": "function"
    },
    {
      "inputs": [],
      "name": "getAADepartmentAcc",
      "outputs": [
        {
          "components": [
            {
              "internalType": "string",
              "name": "realAddress",
              "type": "string"
            },
            {
              "internalType": "string",
              "name": "description",
              "type": "string"
            }
          ],
          "internalType": "struct User.AADepartment",
          "name": "",
          "type": "tuple"
        }
      ],
      "stateMutability": "view",
      "type": "function",
      "constant": true
    },
    {
      "inputs": [
        {
          "internalType": "address",
          "name": "_userAddress",
          "type": "address"
        }
      ],
      "name": "getAADepartmentUser",
      "outputs": [
        {
          "components": [
            {
              "internalType": "string",
              "name": "name",
              "type": "string"
            },
            {
              "internalType": "string",
              "name": "date",
              "type": "string"
            },
            {
              "internalType": "string",
              "name": "phone",
              "type": "string"
            },
            {
              "internalType": "bool",
              "name": "isActive",
              "type": "bool"
            }
          ],
          "internalType": "struct User.AADUser",
          "name": "",
          "type": "tuple"
        }
      ],
      "stateMutability": "view",
      "type": "function",
      "constant": true
    },
    {
      "inputs": [],
      "name": "getAllAADepartmentUsers",
      "outputs": [
        {
          "components": [
            {
              "internalType": "string",
              "name": "name",
              "type": "string"
            },
            {
              "internalType": "string",
              "name": "date",
              "type": "string"
            },
            {
              "internalType": "string",
              "name": "phone",
              "type": "string"
            },
            {
              "internalType": "bool",
              "name": "isActive",
              "type": "bool"
            }
          ],
          "internalType": "struct User.AADUser[]",
          "name": "",
          "type": "tuple[]"
        }
      ],
      "stateMutability": "view",
      "type": "function",
      "constant": true
    },
    {
      "inputs": [],
      "name": "getAllCompany",
      "outputs": [
        {
          "components": [
            {
              "internalType": "string",
              "name": "name",
              "type": "string"
            },
            {
              "internalType": "string",
              "name": "description",
              "type": "string"
            },
            {
              "internalType": "string",
              "name": "jobInfo",
              "type": "string"
            },
            {
              "internalType": "bool",
              "name": "isActive",
              "type": "bool"
            }
          ],
          "internalType": "struct User.company[]",
          "name": "",
          "type": "tuple[]"
        }
      ],
      "stateMutability": "view",
      "type": "function",
      "constant": true
    },
    {
      "inputs": [],
      "name": "getAllStudent",
      "outputs": [
        {
          "components": [
            {
              "internalType": "string",
              "name": "id",
              "type": "string"
            },
            {
              "internalType": "string",
              "name": "name",
              "type": "string"
            },
            {
              "internalType": "string",
              "name": "email",
              "type": "string"
            },
            {
              "internalType": "string",
              "name": "phone",
              "type": "string"
            },
            {
              "internalType": "string",
              "name": "class",
              "type": "string"
            },
            {
              "internalType": "string",
              "name": "major",
              "type": "string"
            },
            {
              "internalType": "string",
              "name": "cpa",
              "type": "string"
            },
            {
              "internalType": "bool",
              "name": "qualifiedForGraduation",
              "type": "bool"
            },
            {
              "internalType": "bool",
              "name": "isActive",
              "type": "bool"
            },
            {
              "internalType": "uint256",
              "name": "nonce",
              "type": "uint256"
            }
          ],
          "internalType": "struct User.student[]",
          "name": "",
          "type": "tuple[]"
        }
      ],
      "stateMutability": "view",
      "type": "function",
      "constant": true
    },
    {
      "inputs": [
        {
          "internalType": "address",
          "name": "_companyAddr",
          "type": "address"
        }
      ],
      "name": "getCompany",
      "outputs": [
        {
          "components": [
            {
              "internalType": "string",
              "name": "name",
              "type": "string"
            },
            {
              "internalType": "string",
              "name": "description",
              "type": "string"
            },
            {
              "internalType": "string",
              "name": "jobInfo",
              "type": "string"
            },
            {
              "internalType": "bool",
              "name": "isActive",
              "type": "bool"
            }
          ],
          "internalType": "struct User.company",
          "name": "",
          "type": "tuple"
        }
      ],
      "stateMutability": "view",
      "type": "function",
      "constant": true
    },
    {
      "inputs": [],
      "name": "getCurrentRector",
      "outputs": [
        {
          "components": [
            {
              "internalType": "string",
              "name": "name",
              "type": "string"
            },
            {
              "internalType": "string",
              "name": "date",
              "type": "string"
            },
            {
              "internalType": "string",
              "name": "phone",
              "type": "string"
            },
            {
              "internalType": "string",
              "name": "term",
              "type": "string"
            }
          ],
          "internalType": "struct User.rector",
          "name": "",
          "type": "tuple"
        }
      ],
      "stateMutability": "view",
      "type": "function",
      "constant": true
    },
    {
      "inputs": [],
      "name": "getCurrentUser",
      "outputs": [
        {
          "components": [
            {
              "internalType": "string",
              "name": "name",
              "type": "string"
            },
            {
              "internalType": "string",
              "name": "date",
              "type": "string"
            },
            {
              "internalType": "string",
              "name": "phone",
              "type": "string"
            },
            {
              "internalType": "string",
              "name": "term",
              "type": "string"
            }
          ],
          "internalType": "struct User.rector",
          "name": "",
          "type": "tuple"
        },
        {
          "components": [
            {
              "internalType": "string",
              "name": "name",
              "type": "string"
            },
            {
              "internalType": "string",
              "name": "date",
              "type": "string"
            },
            {
              "internalType": "string",
              "name": "phone",
              "type": "string"
            },
            {
              "internalType": "bool",
              "name": "isActive",
              "type": "bool"
            }
          ],
          "internalType": "struct User.AADUser",
          "name": "",
          "type": "tuple"
        },
        {
          "components": [
            {
              "internalType": "string",
              "name": "id",
              "type": "string"
            },
            {
              "internalType": "string",
              "name": "name",
              "type": "string"
            },
            {
              "internalType": "string",
              "name": "email",
              "type": "string"
            },
            {
              "internalType": "string",
              "name": "phone",
              "type": "string"
            },
            {
              "internalType": "string",
              "name": "class",
              "type": "string"
            },
            {
              "internalType": "string",
              "name": "major",
              "type": "string"
            },
            {
              "internalType": "string",
              "name": "cpa",
              "type": "string"
            },
            {
              "internalType": "bool",
              "name": "qualifiedForGraduation",
              "type": "bool"
            },
            {
              "internalType": "bool",
              "name": "isActive",
              "type": "bool"
            },
            {
              "internalType": "uint256",
              "name": "nonce",
              "type": "uint256"
            }
          ],
          "internalType": "struct User.student",
          "name": "",
          "type": "tuple"
        },
        {
          "components": [
            {
              "internalType": "string",
              "name": "name",
              "type": "string"
            },
            {
              "internalType": "string",
              "name": "description",
              "type": "string"
            },
            {
              "internalType": "string",
              "name": "jobInfo",
              "type": "string"
            },
            {
              "internalType": "bool",
              "name": "isActive",
              "type": "bool"
            }
          ],
          "internalType": "struct User.company",
          "name": "",
          "type": "tuple"
        }
      ],
      "stateMutability": "view",
      "type": "function",
      "constant": true
    },
    {
      "inputs": [],
      "name": "getCurrentUserRole",
      "outputs": [
        {
          "components": [
            {
              "internalType": "string",
              "name": "id",
              "type": "string"
            },
            {
              "internalType": "string",
              "name": "name",
              "type": "string"
            }
          ],
          "internalType": "struct User.role",
          "name": "",
          "type": "tuple"
        }
      ],
      "stateMutability": "view",
      "type": "function",
      "constant": true
    },
    {
      "inputs": [
        {
          "internalType": "address",
          "name": "_studentAddr",
          "type": "address"
        }
      ],
      "name": "getStudentByAddr",
      "outputs": [
        {
          "components": [
            {
              "internalType": "string",
              "name": "id",
              "type": "string"
            },
            {
              "internalType": "string",
              "name": "name",
              "type": "string"
            },
            {
              "internalType": "string",
              "name": "email",
              "type": "string"
            },
            {
              "internalType": "string",
              "name": "phone",
              "type": "string"
            },
            {
              "internalType": "string",
              "name": "class",
              "type": "string"
            },
            {
              "internalType": "string",
              "name": "major",
              "type": "string"
            },
            {
              "internalType": "string",
              "name": "cpa",
              "type": "string"
            },
            {
              "internalType": "bool",
              "name": "qualifiedForGraduation",
              "type": "bool"
            },
            {
              "internalType": "bool",
              "name": "isActive",
              "type": "bool"
            },
            {
              "internalType": "uint256",
              "name": "nonce",
              "type": "uint256"
            }
          ],
          "internalType": "struct User.student",
          "name": "",
          "type": "tuple"
        }
      ],
      "stateMutability": "view",
      "type": "function",
      "constant": true
    },
    {
      "inputs": [
        {
          "internalType": "string",
          "name": "_id",
          "type": "string"
        }
      ],
      "name": "getStudentById",
      "outputs": [
        {
          "components": [
            {
              "internalType": "string",
              "name": "id",
              "type": "string"
            },
            {
              "internalType": "string",
              "name": "name",
              "type": "string"
            },
            {
              "internalType": "string",
              "name": "email",
              "type": "string"
            },
            {
              "internalType": "string",
              "name": "phone",
              "type": "string"
            },
            {
              "internalType": "string",
              "name": "class",
              "type": "string"
            },
            {
              "internalType": "string",
              "name": "major",
              "type": "string"
            },
            {
              "internalType": "string",
              "name": "cpa",
              "type": "string"
            },
            {
              "internalType": "bool",
              "name": "qualifiedForGraduation",
              "type": "bool"
            },
            {
              "internalType": "bool",
              "name": "isActive",
              "type": "bool"
            },
            {
              "internalType": "uint256",
              "name": "nonce",
              "type": "uint256"
            }
          ],
          "internalType": "struct User.student",
          "name": "",
          "type": "tuple"
        }
      ],
      "stateMutability": "view",
      "type": "function",
      "constant": true
    },
    {
      "inputs": [
        {
          "internalType": "string",
          "name": "_id",
          "type": "string"
        }
      ],
      "name": "getStudentNonce",
      "outputs": [
        {
          "internalType": "uint256",
          "name": "",
          "type": "uint256"
        }
      ],
      "stateMutability": "view",
      "type": "function",
      "constant": true
    },
    {
      "inputs": [
        {
          "components": [
            {
              "internalType": "string",
              "name": "id",
              "type": "string"
            },
            {
              "internalType": "string",
              "name": "name",
              "type": "string"
            },
            {
              "internalType": "string",
              "name": "email",
              "type": "string"
            },
            {
              "internalType": "string",
              "name": "phone",
              "type": "string"
            },
            {
              "internalType": "string",
              "name": "class",
              "type": "string"
            },
            {
              "internalType": "string",
              "name": "major",
              "type": "string"
            },
            {
              "internalType": "string",
              "name": "cpa",
              "type": "string"
            },
            {
              "internalType": "bool",
              "name": "qualifiedForGraduation",
              "type": "bool"
            },
            {
              "internalType": "bool",
              "name": "isActive",
              "type": "bool"
            },
            {
              "internalType": "uint256",
              "name": "nonce",
              "type": "uint256"
            }
          ],
          "internalType": "struct User.student[]",
          "name": "students",
          "type": "tuple[]"
        }
      ],
      "name": "importStudent",
      "outputs": [],
      "stateMutability": "nonpayable",
      "type": "function"
    },
    {
      "inputs": [
        {
          "internalType": "string",
          "name": "_name",
          "type": "string"
        },
        {
          "internalType": "string",
          "name": "_date",
          "type": "string"
        },
        {
          "internalType": "string",
          "name": "_phone",
          "type": "string"
        }
      ],
      "name": "updateAADepartmentUser",
      "outputs": [],
      "stateMutability": "nonpayable",
      "type": "function"
    },
    {
      "inputs": [
        {
          "internalType": "string",
          "name": "_name",
          "type": "string"
        },
        {
          "internalType": "string",
          "name": "_description",
          "type": "string"
        },
        {
          "internalType": "string",
          "name": "_jobInfo",
          "type": "string"
        }
      ],
      "name": "updateCompany",
      "outputs": [],
      "stateMutability": "nonpayable",
      "type": "function"
    },
    {
      "inputs": [
        {
          "internalType": "string",
          "name": "_name",
          "type": "string"
        },
        {
          "internalType": "string",
          "name": "_date",
          "type": "string"
        },
        {
          "internalType": "string",
          "name": "_phone",
          "type": "string"
        },
        {
          "internalType": "string",
          "name": "_term",
          "type": "string"
        }
      ],
      "name": "updateCurrentRector",
      "outputs": [],
      "stateMutability": "nonpayable",
      "type": "function"
    },
    {
      "inputs": [
        {
          "internalType": "string",
          "name": "_email",
          "type": "string"
        },
        {
          "internalType": "string",
          "name": "_phone",
          "type": "string"
        }
      ],
      "name": "updateStudentInfo",
      "outputs": [],
      "stateMutability": "nonpayable",
      "type": "function"
    },
    {
      "inputs": [
        {
          "internalType": "address",
          "name": "_address",
          "type": "address"
        },
        {
          "internalType": "string",
          "name": "_id",
          "type": "string"
        },
        {
          "internalType": "string",
          "name": "_name",
          "type": "string"
        },
        {
          "internalType": "string",
          "name": "_email",
          "type": "string"
        },
        {
          "internalType": "string",
          "name": "_phone",
          "type": "string"
        },
        {
          "internalType": "string",
          "name": "_class",
          "type": "string"
        },
        {
          "internalType": "string",
          "name": "_major",
          "type": "string"
        },
        {
          "internalType": "string",
          "name": "_cpa",
          "type": "string"
        },
        {
          "internalType": "bool",
          "name": "_qualifiedForGraduation",
          "type": "bool"
        }
      ],
      "name": "updateStudentbyAAD",
      "outputs": [],
      "stateMutability": "nonpayable",
      "type": "function"
    },
    {
      "inputs": [
        {
          "internalType": "string",
          "name": "_studentId",
          "type": "string"
        }
      ],
      "name": "createCertificate",
      "outputs": [],
      "stateMutability": "nonpayable",
      "type": "function"
    },
    {
      "inputs": [
        {
          "internalType": "uint256",
          "name": "_index",
          "type": "uint256"
        }
      ],
      "name": "signCertificate",
      "outputs": [],
      "stateMutability": "nonpayable",
      "type": "function"
    },
    {
      "inputs": [],
      "name": "seeMyCertificate",
      "outputs": [
        {
          "components": [
            {
              "internalType": "uint256",
              "name": "id",
              "type": "uint256"
            },
            {
              "internalType": "string",
              "name": "grade",
              "type": "string"
            },
            {
              "internalType": "uint256",
              "name": "timestamp",
              "type": "uint256"
            },
            {
              "internalType": "uint256",
              "name": "exportTime",
              "type": "uint256"
            },
            {
              "internalType": "uint256",
              "name": "NumOfExports",
              "type": "uint256"
            },
            {
              "internalType": "address",
              "name": "issuer",
              "type": "address"
            },
            {
              "internalType": "bool",
              "name": "signed",
              "type": "bool"
            },
            {
              "internalType": "bool",
              "name": "visible",
              "type": "bool"
            }
          ],
          "internalType": "struct Certificate.certificate[]",
          "name": "",
          "type": "tuple[]"
        }
      ],
      "stateMutability": "view",
      "type": "function",
      "constant": true
    },
    {
      "inputs": [
        {
          "internalType": "uint256",
          "name": "_index",
          "type": "uint256"
        }
      ],
      "name": "changeCertVisibility",
      "outputs": [],
      "stateMutability": "nonpayable",
      "type": "function"
    },
    {
      "inputs": [
        {
          "internalType": "string",
          "name": "_studentId",
          "type": "string"
        }
      ],
      "name": "seeStudentCerts",
      "outputs": [
        {
          "components": [
            {
              "internalType": "uint256",
              "name": "id",
              "type": "uint256"
            },
            {
              "internalType": "string",
              "name": "grade",
              "type": "string"
            },
            {
              "internalType": "uint256",
              "name": "timestamp",
              "type": "uint256"
            },
            {
              "internalType": "uint256",
              "name": "exportTime",
              "type": "uint256"
            },
            {
              "internalType": "uint256",
              "name": "NumOfExports",
              "type": "uint256"
            },
            {
              "internalType": "address",
              "name": "issuer",
              "type": "address"
            },
            {
              "internalType": "bool",
              "name": "signed",
              "type": "bool"
            },
            {
              "internalType": "bool",
              "name": "visible",
              "type": "bool"
            }
          ],
          "internalType": "struct Certificate.certificate[]",
          "name": "",
          "type": "tuple[]"
        }
      ],
      "stateMutability": "view",
      "type": "function",
      "constant": true
    },
    {
      "inputs": [],
      "name": "seeVisibleCerts",
      "outputs": [
        {
          "components": [
            {
              "internalType": "uint256",
              "name": "id",
              "type": "uint256"
            },
            {
              "internalType": "string",
              "name": "grade",
              "type": "string"
            },
            {
              "internalType": "uint256",
              "name": "timestamp",
              "type": "uint256"
            },
            {
              "internalType": "uint256",
              "name": "exportTime",
              "type": "uint256"
            },
            {
              "internalType": "uint256",
              "name": "NumOfExports",
              "type": "uint256"
            },
            {
              "internalType": "address",
              "name": "issuer",
              "type": "address"
            },
            {
              "internalType": "bool",
              "name": "signed",
              "type": "bool"
            },
            {
              "internalType": "bool",
              "name": "visible",
              "type": "bool"
            }
          ],
          "internalType": "struct Certificate.certificate[]",
          "name": "",
          "type": "tuple[]"
        }
      ],
      "stateMutability": "view",
      "type": "function",
      "constant": true
    },
    {
      "inputs": [],
      "name": "seeAllCerts",
      "outputs": [
        {
          "components": [
            {
              "internalType": "uint256",
              "name": "id",
              "type": "uint256"
            },
            {
              "internalType": "string",
              "name": "grade",
              "type": "string"
            },
            {
              "internalType": "uint256",
              "name": "timestamp",
              "type": "uint256"
            },
            {
              "internalType": "uint256",
              "name": "exportTime",
              "type": "uint256"
            },
            {
              "internalType": "uint256",
              "name": "NumOfExports",
              "type": "uint256"
            },
            {
              "internalType": "address",
              "name": "issuer",
              "type": "address"
            },
            {
              "internalType": "bool",
              "name": "signed",
              "type": "bool"
            },
            {
              "internalType": "bool",
              "name": "visible",
              "type": "bool"
            }
          ],
          "internalType": "struct Certificate.certificate[]",
          "name": "",
          "type": "tuple[]"
        }
      ],
      "stateMutability": "view",
      "type": "function",
      "constant": true
    }
  ],
  "bytecode": "0x60806040523480156200001157600080fd5b506200001c62000036565b620000266200022e565b62000030620003de565b620005a9565b604080516080810182526001818301908152600360fc1b60608301528152815180830190925260068252653932b1ba37b960d11b6020808401919091528082019290925280518051919260009262000092928492019062000442565b506020828101518051620000ad926001850192019062000442565b5050604080516080810182526001818301908152603160f81b606083015281528151808301909252600c82526b105051195c185c9d1b595b9d60a21b6020808401919091528082019290925280518051919350600292620001149284929091019062000442565b5060208281015180516200012f926001850192019062000442565b5050604080516080810182526001818301908152601960f91b60608301528152815180830190925260078252661cdd1d59195b9d60ca1b6020808401919091528082019290925280518051919350600492620001919284929091019062000442565b506020828101518051620001ac926001850192019062000442565b5050604080516080810182526001818301908152603360f81b6060830152815281518083019092526007825266636f6d70616e7960c81b60208084019190915280820192909252805180519193506006926200020e9284929091019062000442565b50602082810151805162000229926001850192019062000442565b505050565b6200025a6040518060800160405280606081526020016060815260200160608152602001606081525090565b604080518082018252601581527f504753205453204e677579656e205669657420486100000000000000000000006020808301919091529083528151808301835260048152630c4e4dcd60e21b818301528382015281518083018352600a80825269181c9c1c989a99191a9960b11b8284015284840191909152825180840184526009815268199c9bdb480c8c0c4d60ba1b818401526060850152336000908152908252919091208251805184936200031892849291019062000442565b50602082810151805162000333926001850192019062000442565b50604082015180516200035191600284019160209091019062000442565b50606082015180516200036f91600384019160209091019062000442565b50503360009081526008602052604081208154919250908190839062000395906200056c565b620003a2929190620004d1565b506001820181600101908054620003b9906200056c565b620003c6929190620004d1565b5050600980546001600160a01b031916331790555050565b60405180606001604052806024815260200162005aa36024913980516200040e91600b9160209091019062000442565b5060405180608001604052806060815260200162005ac76060913980516200043f91600c9160209091019062000442565b50565b82805462000450906200056c565b90600052602060002090601f016020900481019282620004745760008555620004bf565b82601f106200048f57805160ff1916838001178555620004bf565b82800160010185558215620004bf579182015b82811115620004bf578251825591602001919060010190620004a2565b50620004cd92915062000555565b5090565b828054620004df906200056c565b90600052602060002090601f016020900481019282620005035760008555620004bf565b82601f10620005165780548555620004bf565b82800160010185558215620004bf57600052602060002091601f016020900482015b82811115620004bf57825482559160010191906001019062000538565b5b80821115620004cd576000815560010162000556565b600181811c908216806200058157607f821691505b60208210811415620005a357634e487b7160e01b600052602260045260246000fd5b50919050565b6154ea80620005b96000396000f3fe608060405234801561001057600080fd5b50600436106101f05760003560e01c8063883d40c11161010f578063c23fd5a6116100a2578063ed7ad82611610071578063ed7ad8261461042c578063eed879eb1461043f578063f9e5562914610452578063fc4a744214610465576101f0565b8063c23fd5a6146103e9578063c8059747146103fc578063d6f641cd14610411578063e762b04514610424576101f0565b8063ad69d7b0116100de578063ad69d7b01461039d578063b174ba82146103b0578063ba8805f4146103c3578063bd2456c7146103d6576101f0565b8063883d40c1146103425780638cca2ec4146103555780638f19aed41461036a57806393b3298c1461037d576101f0565b806357fdb0fa11610187578063744448821161015657806374444882146102f357806375957bc0146103065780637b60626d1461030e5780637d67d90014610321576101f0565b806357fdb0fa1461029a5780635c6f2e08146102ad57806362bc56e6146102c05780636b5fe4b6146102e0576101f0565b8063388807cf116101c3578063388807cf1461025257806343ae37c314610267578063498671781461027f5780634b0875e914610287576101f0565b80630d2393fd146101f55780630e21e9d014610213578063106e3ea614610228578063133d04601461023d575b600080fd5b6101fd610478565b60405161020a9190615189565b60405180910390f35b61021b61069f565b60405161020a91906150c9565b61023b6102363660046145ae565b610900565b005b610245610b68565b60405161020a91906151dd565b61025a611026565b60405161020a91906152d8565b61026f61117b565b60405161020a94939291906152fe565b61021b611663565b61023b610295366004614b1b565b6117ea565b61023b6102a8366004614d4f565b611882565b61023b6102bb366004614b1b565b6119ae565b6102d36102ce36600461458d565b611a1c565b60405161020a91906152c5565b61023b6102ee3660046146fa565b611c3a565b61023b610301366004614a0f565b611d41565b61025a611fce565b61023b61031c366004614b1b565b611fff565b61033461032f366004614a0f565b61221f565b60405190815260200161020a565b61023b61035036600461482e565b612284565b61035d612432565b60405161020a9190615068565b61023b610378366004614bea565b612650565b61039061038b36600461458d565b612a29565b60405161020a9190615356565b61023b6103ab366004614d4f565b612e8a565b61023b6103be366004614b9e565b612f34565b61023b6103d1366004614d0d565b612fe7565b6102d36103e436600461458d565b61340b565b61023b6103f7366004614abb565b613627565b6104046136a3565b60405161020a91906152eb565b61021b61041f366004614a0f565b613941565b61021b613c61565b61039061043a366004614a0f565b613f8d565b61023b61044d366004614642565b613fd1565b61023b610460366004614d4f565b614160565b61023b610473366004614d4f565b6142c0565b60606014805480602002602001604051908101604052809291908181526020016000905b8282101561069657838290600052602060002090600402016040518060800160405290816000820180546104cf90615432565b80601f01602080910402602001604051908101604052809291908181526020018280546104fb90615432565b80156105485780601f1061051d57610100808354040283529160200191610548565b820191906000526020600020905b81548152906001019060200180831161052b57829003601f168201915b5050505050815260200160018201805461056190615432565b80601f016020809104026020016040519081016040528092919081815260200182805461058d90615432565b80156105da5780601f106105af576101008083540402835291602001916105da565b820191906000526020600020905b8154815290600101906020018083116105bd57829003601f168201915b505050505081526020016002820180546105f390615432565b80601f016020809104026020016040519081016040528092919081815260200182805461061f90615432565b801561066c5780601f106106415761010080835404028352916020019161066c565b820191906000526020600020905b81548152906001019060200180831161064f57829003601f168201915b50505091835250506003919091015460ff161515602091820152908252600192909201910161049c565b50505050905090565b3360009081526015602052604090206003015460609060ff1615156001146106c657600080fd5b6000601b546001600160401b038111156106f057634e487b7160e01b600052604160045260246000fd5b60405190808252806020026020018201604052801561072957816020015b610716614358565b81526020019060019003908161070e5790505b5090506000805b6017548110156108f8576017818154811061075b57634e487b7160e01b600052603260045260246000fd5b906000526020600020906006020160050160159054906101000a900460ff16156108e657816107898161546d565b925050601781815481106107ad57634e487b7160e01b600052603260045260246000fd5b906000526020600020906006020160405180610100016040529081600082015481526020016001820180546107e190615432565b80601f016020809104026020016040519081016040528092919081815260200182805461080d90615432565b801561085a5780601f1061082f5761010080835404028352916020019161085a565b820191906000526020600020905b81548152906001019060200180831161083d57829003601f168201915b50505091835250506002820154602082015260038201546040820152600482015460608201526005909101546001600160a01b038116608083015260ff600160a01b82048116151560a0840152600160a81b90910416151560c09091015283518490849081106108da57634e487b7160e01b600052603260045260246000fd5b60200260200101819052505b806108f08161546d565b915050610730565b509091505090565b6009546001600160a01b03163314806109305750336000908152600e602052604090206003015460ff1615156001145b61093957600080fd5b6040805160008082526020808301808552835190206001600160a01b0389168352600890915290839020879391926109719201614fb0565b604051602081830303815290604052805190602001201461099157600080fd5b604080516080810182528581526020808201869052918101849052600160608201819052600d80549182018155600052815180519293849360049093027fd7b6990105719101dabeb77144f2a3385c8033acd3af97e9423a695e81ad1eb501926109fe92849201906143aa565b506020828101518051610a1792600185019201906143aa565b5060408201518051610a339160028401916020909101906143aa565b50606091909101516003909101805460ff1916911515919091179055600d548690600f90600090610a66906001906153d8565b81526020808201929092526040908101600090812080546001600160a01b0319166001600160a01b039586161790559289168352600e8252909120825180518493610ab59284929101906143aa565b506020828101518051610ace92600185019201906143aa565b5060408201518051610aea9160028401916020909101906143aa565b50606091909101516003909101805460ff19169115159190911790556001600160a01b03861660009081526008602052604090206002805490919081908390610b3290615432565b610b3d92919061442e565b506001820181600101908054610b5290615432565b610b5d92919061442e565b505050505050505050565b6009546060906001600160a01b0316331480610b9b5750336000908152600e602052604090206003015460ff1615156001145b610ba457600080fd5b6010805480602002602001604051908101604052809291908181526020016000905b82821015610696578382906000526020600020906009020160405180610140016040529081600082018054610bfa90615432565b80601f0160208091040260200160405190810160405280929190818152602001828054610c2690615432565b8015610c735780601f10610c4857610100808354040283529160200191610c73565b820191906000526020600020905b815481529060010190602001808311610c5657829003601f168201915b50505050508152602001600182018054610c8c90615432565b80601f0160208091040260200160405190810160405280929190818152602001828054610cb890615432565b8015610d055780601f10610cda57610100808354040283529160200191610d05565b820191906000526020600020905b815481529060010190602001808311610ce857829003601f168201915b50505050508152602001600282018054610d1e90615432565b80601f0160208091040260200160405190810160405280929190818152602001828054610d4a90615432565b8015610d975780601f10610d6c57610100808354040283529160200191610d97565b820191906000526020600020905b815481529060010190602001808311610d7a57829003601f168201915b50505050508152602001600382018054610db090615432565b80601f0160208091040260200160405190810160405280929190818152602001828054610ddc90615432565b8015610e295780601f10610dfe57610100808354040283529160200191610e29565b820191906000526020600020905b815481529060010190602001808311610e0c57829003601f168201915b50505050508152602001600482018054610e4290615432565b80601f0160208091040260200160405190810160405280929190818152602001828054610e6e90615432565b8015610ebb5780601f10610e9057610100808354040283529160200191610ebb565b820191906000526020600020905b815481529060010190602001808311610e9e57829003601f168201915b50505050508152602001600582018054610ed490615432565b80601f0160208091040260200160405190810160405280929190818152602001828054610f0090615432565b8015610f4d5780601f10610f2257610100808354040283529160200191610f4d565b820191906000526020600020905b815481529060010190602001808311610f3057829003601f168201915b50505050508152602001600682018054610f6690615432565b80601f0160208091040260200160405190810160405280929190818152602001828054610f9290615432565b8015610fdf5780601f10610fb457610100808354040283529160200191610fdf565b820191906000526020600020905b815481529060010190602001808311610fc257829003601f168201915b5050509183525050600782015460ff808216151560208085019190915261010090920416151560408301526008909201546060909101529082526001929092019101610bc6565b60408051808201909152606080825260208201523360009081526008602052604090819020815180830190925280548290829061106290615432565b80601f016020809104026020016040519081016040528092919081815260200182805461108e90615432565b80156110db5780601f106110b0576101008083540402835291602001916110db565b820191906000526020600020905b8154815290600101906020018083116110be57829003601f168201915b505050505081526020016001820180546110f490615432565b80601f016020809104026020016040519081016040528092919081815260200182805461112090615432565b801561116d5780601f106111425761010080835404028352916020019161116d565b820191906000526020600020905b81548152906001019060200180831161115057829003601f168201915b505050505081525050905090565b6111a66040518060800160405280606081526020016060815260200160608152602001606081525090565b6111d360405180608001604052806060815260200160608152602001606081526020016000151581525090565b6111db6144a9565b61120860405180608001604052806060815260200160608152602001606081526020016000151581525090565b604051600360fc1b602082015260210160408051601f1981840301815282825280516020918201203360009081526008835292909220919261124b929101614fb0565b6040516020818303038152906040528051906020012014156114f557336000818152600a60205260409020906112809061340b565b61128933612a29565b61129233611a1c565b836040518060800160405290816000820180546112ae90615432565b80601f01602080910402602001604051908101604052809291908181526020018280546112da90615432565b80156113275780601f106112fc57610100808354040283529160200191611327565b820191906000526020600020905b81548152906001019060200180831161130a57829003601f168201915b5050505050815260200160018201805461134090615432565b80601f016020809104026020016040519081016040528092919081815260200182805461136c90615432565b80156113b95780601f1061138e576101008083540402835291602001916113b9565b820191906000526020600020905b81548152906001019060200180831161139c57829003601f168201915b505050505081526020016002820180546113d290615432565b80601f01602080910402602001604051908101604052809291908181526020018280546113fe90615432565b801561144b5780601f106114205761010080835404028352916020019161144b565b820191906000526020600020905b81548152906001019060200180831161142e57829003601f168201915b5050505050815260200160038201805461146490615432565b80601f016020809104026020016040519081016040528092919081815260200182805461149090615432565b80156114dd5780601f106114b2576101008083540402835291602001916114dd565b820191906000526020600020905b8154815290600101906020018083116114c057829003601f168201915b5050505050815250509350935093509350935061165d565b604051603160f81b602082015260210160408051601f19818403018152828252805160209182012033600090815260088352929092209192611538929101614fb0565b60405160208183030381529060405280519060200120141561156d57336000818152600a60205260409020906112809061340b565b604051601960f91b602082015260210160408051601f198184030181528282528051602091820120336000908152600883529290922091926115b0929101614fb0565b6040516020818303038152906040528051906020012014156115e557336000818152600a60205260409020906112809061340b565b604051603360f81b602082015260210160408051601f19818403018152828252805160209182012033600090815260088352929092209192611628929101614fb0565b60405160208183030381529060405280519060200120141561165d57336000818152600a60205260409020906112809061340b565b90919293565b6009546060906001600160a01b03163314806116965750336000908152600e602052604090206003015460ff1615156001145b61169f57600080fd5b6017805480602002602001604051908101604052809291908181526020016000905b82821015610696578382906000526020600020906006020160405180610100016040529081600082015481526020016001820180546116ff90615432565b80601f016020809104026020016040519081016040528092919081815260200182805461172b90615432565b80156117785780601f1061174d57610100808354040283529160200191611778565b820191906000526020600020905b81548152906001019060200180831161175b57829003601f168201915b5050509183525050600282015460208083019190915260038301546040830152600483015460608301526005909201546001600160a01b038116608083015260ff600160a01b82048116151560a0840152600160a81b90910416151560c09091015290825260019290920191016116c1565b336000908152600e602052604090206003015460ff16151560011461180e57600080fd5b336000908152600e60209081526040909120845161182e928601906143aa565b50336000908152600e602090815260409091208351611855926001909201918501906143aa565b50336000908152600e60209081526040909120825161187c926002909201918401906143aa565b50505050565b3360009081526011602052604090206007015460ff6101009091041615156001146118ac57600080fd5b601781815481106118cd57634e487b7160e01b600052603260045260246000fd5b906000526020600020906006020160050160159054906101000a900460ff16156017828154811061190e57634e487b7160e01b600052603260045260246000fd5b906000526020600020906006020160050160156101000a81548160ff0219169083151502179055506017818154811061195757634e487b7160e01b600052603260045260246000fd5b906000526020600020906006020160050160159054906101000a900460ff161561199557601c805490600061198b8361546d565b91905055506119ab565b601c80549060006119a58361541b565b91905055505b50565b33600090815260156020908152604090912084516119ce928601906143aa565b5033600090815260156020908152604090912083516119f5926001909201918501906143aa565b50336000908152601560209081526040909120825161187c926002909201918401906143aa565b611a4960405180608001604052806060815260200160608152602001606081526020016000151581525090565b6001600160a01b038216600090815260156020526040808220815160808101909252805482908290611a7a90615432565b80601f0160208091040260200160405190810160405280929190818152602001828054611aa690615432565b8015611af35780601f10611ac857610100808354040283529160200191611af3565b820191906000526020600020905b815481529060010190602001808311611ad657829003601f168201915b50505050508152602001600182018054611b0c90615432565b80601f0160208091040260200160405190810160405280929190818152602001828054611b3890615432565b8015611b855780601f10611b5a57610100808354040283529160200191611b85565b820191906000526020600020905b815481529060010190602001808311611b6857829003601f168201915b50505050508152602001600282018054611b9e90615432565b80601f0160208091040260200160405190810160405280929190818152602001828054611bca90615432565b8015611c175780601f10611bec57610100808354040283529160200191611c17565b820191906000526020600020905b815481529060010190602001808311611bfa57829003601f168201915b50505091835250506003919091015460ff1615156020909101529150505b919050565b6009546001600160a01b0316331480611c6a5750336000908152600e602052604090206003015460ff1615156001145b611c7357600080fd5b6001600160a01b038916600090815260116020908152604090912089519091611ca09183918c01906143aa565b508751611cb690600183019060208b01906143aa565b508651611ccc90600283019060208a01906143aa565b508551611ce290600383019060208901906143aa565b508451611cf890600483019060208801906143aa565b508351611d0e90600583019060208701906143aa565b508251611d2490600683019060208601906143aa565b50600701805460ff19169115159190911790555050505050505050565b336000908152600e602052604090206003015460ff161515600114611d6557600080fd5b611d6d614358565b73__SetGrade______________________________6397678ad5601284604051611d979190614f6d565b90815260200160405180910390206006016040518263ffffffff1660e01b8152600401611dc49190615244565b60006040518083038186803b158015611ddc57600080fd5b505af4158015611df0573d6000803e3d6000fd5b505050506040513d6000823e601f3d908101601f19168201604052611e189190810190614a49565b602080830191825242604084015260006080840181905260e08401819052601780546001810182559152835160069091027fc624b66cc0138b8fabc209247f72d758e1cf3343756d543badbf24212bed8c1581019182559251805185949293611ea5937fc624b66cc0138b8fabc209247f72d758e1cf3343756d543badbf24212bed8c16019201906143aa565b506040828101516002830155606083015160038301556080830151600483015560a08301516005909201805460c085015160e0909501511515600160a81b0260ff60a81b19951515600160a01b026001600160a81b03199092166001600160a01b039095169490941717939093169190911790915551601890611f29908490614f6d565b908152604051908190036020019020601754611f47906001906153d8565b815460018181018455600093845260208420909101919091556017548492601a929091611f7491906153d8565b81526020019081526020016000209080519060200190611f959291906143aa565b506001601983604051611fa89190614f6d565b90815260200160405180910390206000828254611fc591906153c0565b90915550505050565b6040805180820190915260608082526020820152600b60405180604001604052908160008201805461106290615432565b604080516000808252602080830180855283519020338084526008909252918490209093919261202f9201614fb0565b604051602081830303815290604052805190602001201461204f57600080fd5b604080516080810182528581526020808201869052918101849052600060608201819052601480546001810182559152815180519293849360049093027fce6d7b5282bd9a3661ae061feed1dbda4e52ab073b1f9285be6e155d9c38d4ec01926120bc92849201906143aa565b5060208281015180516120d592600185019201906143aa565b50604082015180516120f19160028401916020909101906143aa565b50606091909101516003909101805460ff19169115159190911790556014543390601690600090612124906001906153d8565b81526020808201929092526040908101600090812080546001600160a01b0319166001600160a01b039590951694909417909355338352601582529091208251805184936121769284929101906143aa565b50602082810151805161218f92600185019201906143aa565b50604082015180516121ab9160028401916020909101906143aa565b50606091909101516003909101805460ff191691151591909117905533600090815260086020526040902060068054909190819083906121ea90615432565b6121f592919061442e565b50600182018160010190805461220a90615432565b61221592919061442e565b5050505050505050565b6009546000906001600160a01b03163314806122525750336000908152600e602052604090206003015460ff1615156001145b61225b57600080fd5b60128260405161226b9190614f6d565b9081526020016040518091039020600801549050919050565b336000908152600e602052604090206003015460ff1615156001146122a857600080fd5b60005b815181101561242e5761241c8282815181106122d757634e487b7160e01b600052603260045260246000fd5b60200260200101516000015183838151811061230357634e487b7160e01b600052603260045260246000fd5b60200260200101516020015184848151811061232f57634e487b7160e01b600052603260045260246000fd5b60200260200101516040015185858151811061235b57634e487b7160e01b600052603260045260246000fd5b60200260200101516060015186868151811061238757634e487b7160e01b600052603260045260246000fd5b6020026020010151608001518787815181106123b357634e487b7160e01b600052603260045260246000fd5b602002602001015160a001518888815181106123df57634e487b7160e01b600052603260045260246000fd5b602002602001015160c0015189898151811061240b57634e487b7160e01b600052603260045260246000fd5b602002602001015160e00151612650565b806124268161546d565b9150506122ab565b5050565b6060600d805480602002602001604051908101604052809291908181526020016000905b82821015610696578382906000526020600020906004020160405180608001604052908160008201805461248990615432565b80601f01602080910402602001604051908101604052809291908181526020018280546124b590615432565b80156125025780601f106124d757610100808354040283529160200191612502565b820191906000526020600020905b8154815290600101906020018083116124e557829003601f168201915b5050505050815260200160018201805461251b90615432565b80601f016020809104026020016040519081016040528092919081815260200182805461254790615432565b80156125945780601f1061256957610100808354040283529160200191612594565b820191906000526020600020905b81548152906001019060200180831161257757829003601f168201915b505050505081526020016002820180546125ad90615432565b80601f01602080910402602001604051908101604052809291908181526020018280546125d990615432565b80156126265780601f106125fb57610100808354040283529160200191612626565b820191906000526020600020905b81548152906001019060200180831161260957829003601f168201915b50505091835250506003919091015460ff1615156020918201529082526001929092019101612456565b336000908152600e602052604090206003015460ff16151560011461267457600080fd5b876040516020016126859190614f6d565b604051602081830303815290604052805190602001206012896040516126ab9190614f6d565b908152604051602091819003820181206126c792909101614fb0565b604051602081830303815290604052805190602001201415886040516020016126f0919061501f565b604051602081830303815290604052906127265760405162461bcd60e51b815260040161271d9190615231565b60405180910390fd5b5060006040518061014001604052808a815260200189815260200188815260200187815260200186815260200185815260200184815260200183151581526020016000151581526020018a424460405160200161278593929190614f89565b60408051601f1981840301815291905280516020918201209091526010805460018101825560009190915282518051939450849360099092027f1b6847dc741a1b0cd08d278845f9d819d87b734759afb55fe2de5cb82a9ae67201926127f0928492909101906143aa565b50602082810151805161280992600185019201906143aa565b50604082015180516128259160028401916020909101906143aa565b50606082015180516128419160038401916020909101906143aa565b506080820151805161285d9160048401916020909101906143aa565b5060a082015180516128799160058401916020909101906143aa565b5060c082015180516128959160068401916020909101906143aa565b5060e08201516007820180546101008086015115150261ff00199315159390931661ffff19909116179190911790556101209091015160089091015560405181906012906128e4908c90614f6d565b9081526020016040518091039020600082015181600001908051906020019061290e9291906143aa565b50602082810151805161292792600185019201906143aa565b50604082015180516129439160028401916020909101906143aa565b506060820151805161295f9160038401916020909101906143aa565b506080820151805161297b9160048401916020909101906143aa565b5060a082015180516129979160058401916020909101906143aa565b5060c082015180516129b39160068401916020909101906143aa565b5060e08201516007820180546101008086015115150261ff00199315159390931661ffff1990911617919091179055610120909101516008909101556010546129fe906001906153d8565b60138a604051612a0e9190614f6d565b90815260405190819003602001902055505050505050505050565b612a316144a9565b6001600160a01b03821660009081526011602052604080822081516101408101909252805482908290612a6390615432565b80601f0160208091040260200160405190810160405280929190818152602001828054612a8f90615432565b8015612adc5780601f10612ab157610100808354040283529160200191612adc565b820191906000526020600020905b815481529060010190602001808311612abf57829003601f168201915b50505050508152602001600182018054612af590615432565b80601f0160208091040260200160405190810160405280929190818152602001828054612b2190615432565b8015612b6e5780601f10612b4357610100808354040283529160200191612b6e565b820191906000526020600020905b815481529060010190602001808311612b5157829003601f168201915b50505050508152602001600282018054612b8790615432565b80601f0160208091040260200160405190810160405280929190818152602001828054612bb390615432565b8015612c005780601f10612bd557610100808354040283529160200191612c00565b820191906000526020600020905b815481529060010190602001808311612be357829003601f168201915b50505050508152602001600382018054612c1990615432565b80601f0160208091040260200160405190810160405280929190818152602001828054612c4590615432565b8015612c925780601f10612c6757610100808354040283529160200191612c92565b820191906000526020600020905b815481529060010190602001808311612c7557829003601f168201915b50505050508152602001600482018054612cab90615432565b80601f0160208091040260200160405190810160405280929190818152602001828054612cd790615432565b8015612d245780601f10612cf957610100808354040283529160200191612d24565b820191906000526020600020905b815481529060010190602001808311612d0757829003601f168201915b50505050508152602001600582018054612d3d90615432565b80601f0160208091040260200160405190810160405280929190818152602001828054612d6990615432565b8015612db65780601f10612d8b57610100808354040283529160200191612db6565b820191906000526020600020905b815481529060010190602001808311612d9957829003601f168201915b50505050508152602001600682018054612dcf90615432565b80601f0160208091040260200160405190810160405280929190818152602001828054612dfb90615432565b8015612e485780601f10612e1d57610100808354040283529160200191612e48565b820191906000526020600020905b815481529060010190602001808311612e2b57829003601f168201915b5050509183525050600782015460ff80821615156020840152610100909104161515604082015260089091015460609091015260006101208201529392505050565b6009546001600160a01b0316331480612eba5750336000908152600e602052604090206003015460ff1615156001145b612ec357600080fd5b6000600d8281548110612ee657634e487b7160e01b600052603260045260246000fd5b6000918252602080832060036004909302018201805494151560ff19958616179055938252600f84526040808320546001600160a01b03168352600e90945292902090910180549091169055565b6009546001600160a01b03163314612f4b57600080fd5b336000908152600a602090815260409091208551612f6b928701906143aa565b50336000908152600a602090815260409091208451612f92926001909201918601906143aa565b50336000908152600a602090815260409091208351612fb9926002909201918501906143aa565b50336000908152600a602090815260409091208251612fe0926003909201918401906143aa565b5050505050565b60408051600080825260208083018085528351902033808452600890925291849020909391926130179201614fb0565b604051602081830303815290604052805190602001201461303757600080fd5b6012836040516130479190614f6d565b908152602001604051809103902060080154821461306457600080fd5b6012836040516130749190614f6d565b9081526040805160209281900383019020336000908152601190935291208154819083906130a190615432565b6130ac92919061442e565b5060018201816001019080546130c190615432565b6130cc92919061442e565b5060028201816002019080546130e190615432565b6130ec92919061442e565b50600382018160030190805461310190615432565b61310c92919061442e565b50600482018160040190805461312190615432565b61312c92919061442e565b50600582018160050190805461314190615432565b61314c92919061442e565b50600682018160060190805461316190615432565b61316c92919061442e565b5060078281018054918301805460ff938416151560ff19821681178355925461010090819004909416151590930261ff001990921661ffff19909316929092171790556008918201549101556040516001906012906131cc908690614f6d565b908152602001604051809103902060070160016101000a81548160ff021916908315150217905550600160106013856040516132089190614f6d565b9081526020016040518091039020548154811061323557634e487b7160e01b600052603260045260246000fd5b60009182526020808320600992909202909101600701805461ff0019166101009415159490940293909317909255338152600890915260409020600480549091908190839061328390615432565b61328e92919061442e565b5060018201816001019080546132a390615432565b6132ae92919061442e565b509050506012836040516132c29190614f6d565b9081526040805160209281900383019020336000908152601190935291208154819083906132ef90615432565b6132fa92919061442e565b50600182018160010190805461330f90615432565b61331a92919061442e565b50600282018160020190805461332f90615432565b61333a92919061442e565b50600382018160030190805461334f90615432565b61335a92919061442e565b50600482018160040190805461336f90615432565b61337a92919061442e565b50600582018160050190805461338f90615432565b61339a92919061442e565b5060068201816006019080546133af90615432565b6133ba92919061442e565b5060078281018054918301805460ff938416151560ff19821681178355925461010090819004909416151590930261ff001990921661ffff1990931692909217179055600891820154910155505050565b61343860405180608001604052806060815260200160608152602001606081526020016000151581525090565b6001600160a01b0382166000908152600e60205260409081902081516080810190925280548290829061346a90615432565b80601f016020809104026020016040519081016040528092919081815260200182805461349690615432565b80156134e35780601f106134b8576101008083540402835291602001916134e3565b820191906000526020600020905b8154815290600101906020018083116134c657829003601f168201915b505050505081526020016001820180546134fc90615432565b80601f016020809104026020016040519081016040528092919081815260200182805461352890615432565b80156135755780601f1061354a57610100808354040283529160200191613575565b820191906000526020600020905b81548152906001019060200180831161355857829003601f168201915b5050505050815260200160028201805461358e90615432565b80601f01602080910402602001604051908101604052809291908181526020018280546135ba90615432565b80156136075780601f106135dc57610100808354040283529160200191613607565b820191906000526020600020905b8154815290600101906020018083116135ea57829003601f168201915b50505091835250506003919091015460ff16151560209091015292915050565b3360009081526011602052604090206007015460ff61010090910416151560011461365157600080fd5b3360009081526011602090815260409091208351613677926002909201918501906143aa565b50336000908152601160209081526040909120825161369e926003909201918401906143aa565b505050565b6136ce6040518060800160405280606081526020016060815260200160608152602001606081525090565b6009546001600160a01b03166000908152600a602052604080822081516080810190925280548290829061370190615432565b80601f016020809104026020016040519081016040528092919081815260200182805461372d90615432565b801561377a5780601f1061374f5761010080835404028352916020019161377a565b820191906000526020600020905b81548152906001019060200180831161375d57829003601f168201915b5050505050815260200160018201805461379390615432565b80601f01602080910402602001604051908101604052809291908181526020018280546137bf90615432565b801561380c5780601f106137e15761010080835404028352916020019161380c565b820191906000526020600020905b8154815290600101906020018083116137ef57829003601f168201915b5050505050815260200160028201805461382590615432565b80601f016020809104026020016040519081016040528092919081815260200182805461385190615432565b801561389e5780601f106138735761010080835404028352916020019161389e565b820191906000526020600020905b81548152906001019060200180831161388157829003601f168201915b505050505081526020016003820180546138b790615432565b80601f01602080910402602001604051908101604052809291908181526020018280546138e390615432565b80156139305780601f1061390557610100808354040283529160200191613930565b820191906000526020600020905b81548152906001019060200180831161391357829003601f168201915b505050919092525091935050505090565b3360009081526015602052604090206003015460609060ff16151560011461396857600080fd5b600060188360405161397a9190614f6d565b9081526040519081900360200190205490506000816001600160401b038111156139b457634e487b7160e01b600052604160045260246000fd5b6040519080825280602002602001820160405280156139ed57816020015b6139da614358565b8152602001906001900390816139d25790505b50905060005b601885604051613a039190614f6d565b90815260405190819003602001902054811015613c59576017601886604051613a2c9190614f6d565b90815260200160405180910390208281548110613a5957634e487b7160e01b600052603260045260246000fd5b906000526020600020015481548110613a8257634e487b7160e01b600052603260045260246000fd5b906000526020600020906006020160050160159054906101000a900460ff1615613c47576017601886604051613ab89190614f6d565b90815260200160405180910390208281548110613ae557634e487b7160e01b600052603260045260246000fd5b906000526020600020015481548110613b0e57634e487b7160e01b600052603260045260246000fd5b90600052602060002090600602016040518061010001604052908160008201548152602001600182018054613b4290615432565b80601f0160208091040260200160405190810160405280929190818152602001828054613b6e90615432565b8015613bbb5780601f10613b9057610100808354040283529160200191613bbb565b820191906000526020600020905b815481529060010190602001808311613b9e57829003601f168201915b50505091835250506002820154602082015260038201546040820152600482015460608201526005909101546001600160a01b038116608083015260ff600160a01b82048116151560a0840152600160a81b90910416151560c0909101528251839083908110613c3b57634e487b7160e01b600052603260045260246000fd5b60200260200101819052505b80613c518161546d565b9150506139f3565b509392505050565b3360009081526011602052604090206007015460609060ff610100909104161515600114613c8e57600080fd5b3360009081526011602052604081208054613ca890615432565b80601f0160208091040260200160405190810160405280929190818152602001828054613cd490615432565b8015613d215780601f10613cf657610100808354040283529160200191613d21565b820191906000526020600020905b815481529060010190602001808311613d0457829003601f168201915b505050505090506000601982604051613d3a9190614f6d565b9081526020016040518091039020546001600160401b03811115613d6e57634e487b7160e01b600052604160045260246000fd5b604051908082528060200260200182016040528015613da757816020015b613d94614358565b815260200190600190039081613d8c5790505b50905060005b601983604051613dbd9190614f6d565b908152602001604051809103902054811015613f86576017601884604051613de59190614f6d565b90815260200160405180910390208281548110613e1257634e487b7160e01b600052603260045260246000fd5b906000526020600020015481548110613e3b57634e487b7160e01b600052603260045260246000fd5b90600052602060002090600602016040518061010001604052908160008201548152602001600182018054613e6f90615432565b80601f0160208091040260200160405190810160405280929190818152602001828054613e9b90615432565b8015613ee85780601f10613ebd57610100808354040283529160200191613ee8565b820191906000526020600020905b815481529060010190602001808311613ecb57829003601f168201915b50505091835250506002820154602082015260038201546040820152600482015460608201526005909101546001600160a01b038116608083015260ff600160a01b82048116151560a0840152600160a81b90910416151560c0909101528251839083908110613f6857634e487b7160e01b600052603260045260246000fd5b60200260200101819052508080613f7e9061546d565b915050613dad565b5091505090565b613f956144a9565b6000601283604051613fa79190614f6d565b908152602001604051809103902060405180610140016040529081600082018054612a6390615432565b6009546001600160a01b03163314613fe857600080fd5b6040805160008082526020808301808552835190206001600160a01b038a168352600890915290839020889391926140209201614fb0565b604051602081830303815290604052805190602001201461404057600080fd5b604080516080810182528681526020808201879052818301869052606082018590526001600160a01b0389166000908152600a825292909220815180519293849361408e92849201906143aa565b5060208281015180516140a792600185019201906143aa565b50604082015180516140c39160028401916020909101906143aa565b50606082015180516140df9160038401916020909101906143aa565b5050506001600160a01b038716600090815260086020526040812081548190839061410990615432565b61411492919061442e565b50600182018160010190805461412990615432565b61413492919061442e565b5050600980546001600160a01b0319166001600160a01b03999099169890981790975550505050505050565b6009546001600160a01b0316331461417757600080fd5b6017818154811061419857634e487b7160e01b600052603260045260246000fd5b6000918252602090912060069091020160050154600160a01b900460ff16156141c057600080fd5b33601782815481106141e257634e487b7160e01b600052603260045260246000fd5b906000526020600020906006020160050160006101000a8154816001600160a01b0302191690836001600160a01b0316021790555060016017828154811061423a57634e487b7160e01b600052603260045260246000fd5b906000526020600020906006020160050160146101000a81548160ff02191690831515021790555060016017828154811061428557634e487b7160e01b600052603260045260246000fd5b6000918252602082206005600690920201018054921515600160a81b0260ff60a81b1990931692909217909155601b8054916119a58361546d565b336000908152600e602052604090206003015460ff1615156001146142e457600080fd5b60016014828154811061430757634e487b7160e01b600052603260045260246000fd5b6000918252602080832060036004909302018201805494151560ff19958616179055938252601684526040808320546001600160a01b03168352601590945292902090910180549091166001179055565b604051806101000160405280600081526020016060815260200160008152602001600081526020016000815260200160006001600160a01b031681526020016000151581526020016000151581525090565b8280546143b690615432565b90600052602060002090601f0160209004810192826143d8576000855561441e565b82601f106143f157805160ff191683800117855561441e565b8280016001018555821561441e579182015b8281111561441e578251825591602001919060010190614403565b5061442a929150614500565b5090565b82805461443a90615432565b90600052602060002090601f01602090048101928261445c576000855561441e565b82601f1061446d578054855561441e565b8280016001018555821561441e57600052602060002091601f016020900482015b8281111561441e57825482559160010191906001019061448e565b60405180610140016040528060608152602001606081526020016060815260200160608152602001606081526020016060815260200160608152602001600015158152602001600015158152602001600081525090565b5b8082111561442a5760008155600101614501565b80356001600160a01b0381168114611c3557600080fd5b80358015158114611c3557600080fd5b600082601f83011261454c578081fd5b813561455f61455a82615399565b615369565b818152846020838601011115614573578283fd5b816020850160208301379081016020019190915292915050565b60006020828403121561459e578081fd5b6145a782614515565b9392505050565b600080600080608085870312156145c3578283fd5b6145cc85614515565b935060208501356001600160401b03808211156145e7578485fd5b6145f38883890161453c565b94506040870135915080821115614608578384fd5b6146148883890161453c565b93506060870135915080821115614629578283fd5b506146368782880161453c565b91505092959194509250565b600080600080600060a08688031215614659578081fd5b61466286614515565b945060208601356001600160401b038082111561467d578283fd5b61468989838a0161453c565b9550604088013591508082111561469e578283fd5b6146aa89838a0161453c565b945060608801359150808211156146bf578283fd5b6146cb89838a0161453c565b935060808801359150808211156146e0578283fd5b506146ed8882890161453c565b9150509295509295909350565b60008060008060008060008060006101208a8c031215614718578384fd5b6147218a614515565b985060208a01356001600160401b038082111561473c578586fd5b6147488d838e0161453c565b995060408c013591508082111561475d578586fd5b6147698d838e0161453c565b985060608c013591508082111561477e578586fd5b61478a8d838e0161453c565b975060808c013591508082111561479f578586fd5b6147ab8d838e0161453c565b965060a08c01359150808211156147c0578586fd5b6147cc8d838e0161453c565b955060c08c01359150808211156147e1578485fd5b6147ed8d838e0161453c565b945060e08c0135915080821115614802578384fd5b5061480f8c828d0161453c565b92505061481f6101008b0161452c565b90509295985092959850929598565b60006020808385031215614840578182fd5b82356001600160401b0380821115614856578384fd5b818501915085601f830112614869578384fd5b81358181111561487b5761487b61549e565b614889848260051b01615369565b81815284810190848601875b84811015614a00578135870161014080601f19838f030112156148b6578a8bfd5b6148bf81615369565b8a830135898111156148cf578c8dfd5b6148dd8f8d8387010161453c565b8252506040830135898111156148f1578c8dfd5b6148ff8f8d8387010161453c565b8c83015250606083013589811115614915578c8dfd5b6149238f8d8387010161453c565b60408301525060808301358981111561493a578c8dfd5b6149488f8d8387010161453c565b60608301525060a08301358981111561495f578c8dfd5b61496d8f8d8387010161453c565b60808301525060c083013589811115614984578c8dfd5b6149928f8d8387010161453c565b60a08301525060e0830135898111156149a9578c8dfd5b6149b78f8d8387010161453c565b60c0830152506101006149cb81850161452c565b60e08301526101206149de81860161452c565b9183019190915291909201359082015284529287019290870190600101614895565b50909998505050505050505050565b600060208284031215614a20578081fd5b81356001600160401b03811115614a35578182fd5b614a418482850161453c565b949350505050565b600060208284031215614a5a578081fd5b81516001600160401b03811115614a6f578182fd5b8201601f81018413614a7f578182fd5b8051614a8d61455a82615399565b818152856020838501011115614aa1578384fd5b614ab28260208301602086016153ef565b95945050505050565b60008060408385031215614acd578182fd5b82356001600160401b0380821115614ae3578384fd5b614aef8683870161453c565b93506020850135915080821115614b04578283fd5b50614b118582860161453c565b9150509250929050565b600080600060608486031215614b2f578081fd5b83356001600160401b0380821115614b45578283fd5b614b518783880161453c565b94506020860135915080821115614b66578283fd5b614b728783880161453c565b93506040860135915080821115614b87578283fd5b50614b948682870161453c565b9150509250925092565b60008060008060808587031215614bb3578182fd5b84356001600160401b0380821115614bc9578384fd5b614bd58883890161453c565b955060208701359150808211156145e7578384fd5b600080600080600080600080610100898b031215614c06578182fd5b88356001600160401b0380821115614c1c578384fd5b614c288c838d0161453c565b995060208b0135915080821115614c3d578384fd5b614c498c838d0161453c565b985060408b0135915080821115614c5e578384fd5b614c6a8c838d0161453c565b975060608b0135915080821115614c7f578384fd5b614c8b8c838d0161453c565b965060808b0135915080821115614ca0578384fd5b614cac8c838d0161453c565b955060a08b0135915080821115614cc1578384fd5b614ccd8c838d0161453c565b945060c08b0135915080821115614ce2578384fd5b50614cef8b828c0161453c565b925050614cfe60e08a0161452c565b90509295985092959890939650565b60008060408385031215614d1f578182fd5b82356001600160401b03811115614d34578283fd5b614d408582860161453c565b95602094909401359450505050565b600060208284031215614d60578081fd5b5035919050565b60008151808452614d7f8160208601602086016153ef565b601f01601f19169290920160200192915050565b6000815160808452614da86080850182614d67565b905060208301518482036020860152614dc18282614d67565b91505060408301518482036040860152614ddb8282614d67565b9150506060830151151560608501528091505092915050565b6000815160408452614e096040850182614d67565b905060208301518482036020860152614ab28282614d67565b6000815160808452614e376080850182614d67565b905060208301518482036020860152614e508282614d67565b91505060408301518482036040860152614e6a8282614d67565b91505060608301518482036060860152614ab28282614d67565b60006101408251818552614e9a82860182614d67565b91505060208301518482036020860152614eb48282614d67565b91505060408301518482036040860152614ece8282614d67565b91505060608301518482036060860152614ee88282614d67565b91505060808301518482036080860152614f028282614d67565b91505060a083015184820360a0860152614f1c8282614d67565b91505060c083015184820360c0860152614f368282614d67565b91505060e0830151614f4c60e086018215159052565b50610100838101511515908501526101209283015192909301919091525090565b60008251614f7f8184602087016153ef565b9190910192915050565b60008451614f9b8184602089016153ef565b91909101928352506020820152604001919050565b6000808354614fbe81615432565b60018281168015614fd65760018114614fe757615013565b60ff19841687528287019450615013565b8786526020808720875b8581101561500a5781548a820152908401908201614ff1565b50505082870194505b50929695505050505050565b600067029ba3ab232b73a160c51b825282516150428160088501602087016153ef565b6e20616c72656164792065786973747360881b6008939091019283015250601701919050565b6000602080830181845280855180835260408601915060408160051b8701019250838701855b828110156150bc57603f198886030184526150aa858351614d93565b9450928501929085019060010161508e565b5092979650505050505050565b60006020808301818452808551808352604092508286019150828160051b870101848801865b8381101561517b57603f1989840301855281516101008151855288820151818a87015261511e82870182614d67565b838a0151878b0152606080850151908801526080808501519088015260a0808501516001600160a01b03169088015260c08085015115159088015260e09384015115159390960192909252505093860193908601906001016150ef565b509098975050505050505050565b6000602080830181845280855180835260408601915060408160051b8701019250838701855b828110156150bc57603f198886030184526151cb858351614d93565b945092850192908501906001016151af565b6000602080830181845280855180835260408601915060408160051b8701019250838701855b828110156150bc57603f1988860301845261521f858351614e84565b94509285019290850190600101615203565b6000602082526145a76020830184614d67565b6000602080835281845461525781615432565b80848701526040600180841660008114615278576001811461528c576152b7565b60ff198516898401526060890195506152b7565b898852868820885b858110156152af5781548b8201860152908301908801615294565b8a0184019650505b509398975050505050505050565b6000602082526145a76020830184614d93565b6000602082526145a76020830184614df4565b6000602082526145a76020830184614e22565b6000608082526153116080830187614e22565b82810360208401526153238187614d93565b905082810360408401526153378186614e84565b9050828103606084015261534b8185614d93565b979650505050505050565b6000602082526145a76020830184614e84565b604051601f8201601f191681016001600160401b03811182821017156153915761539161549e565b604052919050565b60006001600160401b038211156153b2576153b261549e565b50601f01601f191660200190565b600082198211156153d3576153d3615488565b500190565b6000828210156153ea576153ea615488565b500390565b60005b8381101561540a5781810151838201526020016153f2565b8381111561187c5750506000910152565b60008161542a5761542a615488565b506000190190565b600181811c9082168061544657607f821691505b6020821081141561546757634e487b7160e01b600052602260045260246000fd5b50919050565b600060001982141561548157615481615488565b5060010190565b634e487b7160e01b600052601160045260246000fd5b634e487b7160e01b600052604160045260246000fdfea2646970667358221220102aa1059a1837cf508ea4e5b12753677905d72598490e70e2fa5f31e3c9512164736f6c63430008030033453320313434205875616e2054687579202d204361752047696179202d204861204e6f69207468616d206d7575206769757020766965632048696575207472756f6e672074687563206869656e20636f6e6720746163207665207861792064756e672c207175616e206c7920636163206368756f6e67207472696e682064616f2074616f",
  "immutableReferences": {},
  "source": "// SPDX-License-Identifier: MIT\npragma solidity >=0.7.0 <0.9.0;\n\nimport \"./SetGrade.sol\";\nimport \"./User.sol\";\n\ncontract Certificate is User {\n    struct certificate {\n        uint256 id;\n        string grade;\n        uint256 timestamp;\n        uint256 exportTime;\n        uint256 NumOfExports;\n        address issuer;\n        // address recipient; // c cn trng ny khng?\n        bool signed;\n        bool visible;\n    }\n\n    certificate[] certificateList;\n    mapping(string => uint256[]) studentCerts;\n    mapping(string => uint256) studentCertCount;\n    mapping(uint256 => string) idToAddress;\n    uint256 signedCertCount;\n    uint256 visibleCertCount;\n\n    using SetGrade for string;\n\n    function createCertificate(string memory _studentId)\n        public\n        onlyAADepartmentUser\n    {\n        // require(keccak256(abi.encodePacked(studentCert[_studentAddr].grade)) == keccak256(abi.encodePacked(\"\"))); // ch to c bng cho nhng sinh vin cha c too\n        // mt thng 2 vn bng th sao\n        certificate memory temp;\n        temp.grade = SetGrade.setGrade(idToStudent[_studentId].cpa);\n        temp.timestamp = block.timestamp;\n        temp.NumOfExports = 0;\n        temp.visible = false;\n\n        certificateList.push(temp);\n        studentCerts[_studentId].push(certificateList.length - 1);\n        idToAddress[certificateList.length - 1] = _studentId;\n        studentCertCount[_studentId] += 1;\n    }\n\n    // certificate[] certList;\n    // function getCertificateList() public onlyRectorOrAAD returns(certificate[] memory certList) {\n    //     for (uint i = 1; i < index; i++){\n    //         certList.push(studentCert[idToAddress[i]]);\n    //     }\n    //     return certList;\n    // }\n\n    function signCertificate(uint256 _index) public onlyCurrentRector {\n        //require(certificateList[_index-1].siged == false); // ch k c nhng chng ch no cha k\n        require(certificateList[_index].signed == false);\n        certificateList[_index].issuer = msg.sender;\n        certificateList[_index].signed = true;\n        certificateList[_index].visible = true;\n\n        signedCertCount++;\n        //studentCert[certificateList[_index-1].recipient] = certificateList[_index-1];\n    }\n\n    // hm ny chy lc thng student xem cer cu n\n    function seeMyCertificate()\n        public\n        view\n        onlyStudent\n        returns (certificate[] memory)\n    {\n        string memory studentId = studentDetails[msg.sender].id;\n        certificate[] memory studentCertificates =\n            new certificate[](studentCertCount[studentId]);\n        for (uint256 i = 0; i < studentCertCount[studentId]; i++) {\n            studentCertificates[i] = certificateList[\n                studentCerts[studentId][i]\n            ];\n        }\n        return studentCertificates;\n    }\n\n    function changeCertVisibility(uint256 _index) public onlyStudent {\n        certificateList[_index].visible = !certificateList[_index].visible;\n        if (certificateList[_index].visible) {\n            visibleCertCount++;\n        } else {\n            visibleCertCount--;\n        }\n    }\n\n    // cng ty check cc bng ca 1 sinh vin\n    function seeStudentCerts(string memory _studentId)\n        public\n        view\n        returns (certificate[] memory)\n    {\n        require(companyDetails[msg.sender].isActive == true);\n        uint256 count = studentCerts[_studentId].length;\n        certificate[] memory studentCertificates = new certificate[](count);\n        for (uint256 i = 0; i < studentCerts[_studentId].length; i++) {\n            if (certificateList[studentCerts[_studentId][i]].visible)\n                studentCertificates[i] = certificateList[\n                    studentCerts[_studentId][i]\n                ];\n        }\n        return studentCertificates;\n    }\n\n    // cng ty xem cert cng khai\n    function seeVisibleCerts() public view returns (certificate[] memory) {\n        require(companyDetails[msg.sender].isActive == true);\n        certificate[] memory allVisibleCerts =\n            new certificate[](signedCertCount);\n        uint256 count = 0;\n        for (uint256 i = 0; i < certificateList.length; i++) {\n            if (certificateList[i].visible) {\n                count++;\n                allVisibleCerts[count] = certificateList[i];\n            }\n        }\n        return allVisibleCerts;\n    }\n\n    //nh trng xem ht\n    function seeAllCerts()\n        public\n        view\n        onlyRectorOrAAD\n        returns (certificate[] memory)\n    {\n        return certificateList;\n    }\n}\n",
  "sourcePath": "/Users/hughdo/Desktop/Proj/CertVerificationSystem/contracts/Certificate.sol",
  "compiler": {
    "name": "solc",
    "version": "0.8.3+commit.8d00100c.Emscripten.clang"
  },
  "schemaVersion": "3.3.4",
  "updatedAt": "2021-04-17T06:51:53.735Z",
  "networkType": "ethereum",
  "devdoc": {
    "kind": "dev",
    "methods": {},
    "version": 1
  },
  "userdoc": {
    "kind": "user",
    "methods": {},
    "version": 1
  }
}