{
  "contractName": "Certificate",
  "abi": [
    {
      "inputs": [
        {
          "internalType": "contract User",
          "name": "_user",
          "type": "address"
        }
      ],
      "stateMutability": "nonpayable",
      "type": "constructor"
    },
    {
      "inputs": [
        {
          "internalType": "string",
          "name": "_studentId",
          "type": "string"
        }
      ],
      "name": "createCertificate",
      "outputs": [],
      "stateMutability": "nonpayable",
      "type": "function"
    },
    {
      "inputs": [
        {
          "internalType": "string",
          "name": "_studentId",
          "type": "string"
        },
        {
          "internalType": "string",
          "name": "_name",
          "type": "string"
        },
        {
          "internalType": "string",
          "name": "_cpa",
          "type": "string"
        }
      ],
      "name": "createDoubleCertificate",
      "outputs": [],
      "stateMutability": "nonpayable",
      "type": "function"
    },
    {
      "inputs": [
        {
          "internalType": "uint256",
          "name": "_id",
          "type": "uint256"
        }
      ],
      "name": "getStudentByCert",
      "outputs": [
        {
          "components": [
            {
              "internalType": "string",
              "name": "id",
              "type": "string"
            },
            {
              "internalType": "string",
              "name": "name",
              "type": "string"
            },
            {
              "internalType": "string",
              "name": "email",
              "type": "string"
            },
            {
              "internalType": "string",
              "name": "date",
              "type": "string"
            },
            {
              "internalType": "string",
              "name": "phone",
              "type": "string"
            },
            {
              "internalType": "string",
              "name": "class",
              "type": "string"
            },
            {
              "internalType": "string",
              "name": "major",
              "type": "string"
            },
            {
              "internalType": "string",
              "name": "cpa",
              "type": "string"
            },
            {
              "internalType": "bool",
              "name": "qualifiedForGraduation",
              "type": "bool"
            },
            {
              "internalType": "bool",
              "name": "isActive",
              "type": "bool"
            },
            {
              "internalType": "uint256",
              "name": "nonce",
              "type": "uint256"
            }
          ],
          "internalType": "struct Model.student",
          "name": "",
          "type": "tuple"
        }
      ],
      "stateMutability": "view",
      "type": "function",
      "constant": true
    },
    {
      "inputs": [
        {
          "internalType": "string",
          "name": "_studentId",
          "type": "string"
        }
      ],
      "name": "getStudentCertCount",
      "outputs": [
        {
          "internalType": "uint256",
          "name": "",
          "type": "uint256"
        }
      ],
      "stateMutability": "view",
      "type": "function",
      "constant": true
    },
    {
      "inputs": [
        {
          "internalType": "uint256",
          "name": "_index",
          "type": "uint256"
        }
      ],
      "name": "signCertificate",
      "outputs": [],
      "stateMutability": "nonpayable",
      "type": "function"
    },
    {
      "inputs": [
        {
          "internalType": "uint256[]",
          "name": "_ids",
          "type": "uint256[]"
        }
      ],
      "name": "signMultipleCert",
      "outputs": [],
      "stateMutability": "nonpayable",
      "type": "function"
    },
    {
      "inputs": [],
      "name": "seeMyCertificate",
      "outputs": [
        {
          "components": [
            {
              "internalType": "uint256",
              "name": "id",
              "type": "uint256"
            },
            {
              "internalType": "string",
              "name": "name",
              "type": "string"
            },
            {
              "internalType": "string",
              "name": "cpa",
              "type": "string"
            },
            {
              "internalType": "string",
              "name": "grade",
              "type": "string"
            },
            {
              "internalType": "uint256",
              "name": "timestamp",
              "type": "uint256"
            },
            {
              "internalType": "uint256",
              "name": "exportTime",
              "type": "uint256"
            },
            {
              "internalType": "uint256",
              "name": "NumOfExports",
              "type": "uint256"
            },
            {
              "internalType": "address",
              "name": "issuer",
              "type": "address"
            },
            {
              "internalType": "bool",
              "name": "signed",
              "type": "bool"
            },
            {
              "internalType": "bool",
              "name": "visible",
              "type": "bool"
            }
          ],
          "internalType": "struct Model.certificate[]",
          "name": "",
          "type": "tuple[]"
        }
      ],
      "stateMutability": "view",
      "type": "function",
      "constant": true
    },
    {
      "inputs": [
        {
          "internalType": "uint256",
          "name": "_index",
          "type": "uint256"
        }
      ],
      "name": "changeCertVisibility",
      "outputs": [],
      "stateMutability": "nonpayable",
      "type": "function"
    },
    {
      "inputs": [
        {
          "internalType": "string",
          "name": "_studentId",
          "type": "string"
        }
      ],
      "name": "seeStudentCerts",
      "outputs": [
        {
          "components": [
            {
              "internalType": "uint256",
              "name": "id",
              "type": "uint256"
            },
            {
              "internalType": "string",
              "name": "name",
              "type": "string"
            },
            {
              "internalType": "string",
              "name": "cpa",
              "type": "string"
            },
            {
              "internalType": "string",
              "name": "grade",
              "type": "string"
            },
            {
              "internalType": "uint256",
              "name": "timestamp",
              "type": "uint256"
            },
            {
              "internalType": "uint256",
              "name": "exportTime",
              "type": "uint256"
            },
            {
              "internalType": "uint256",
              "name": "NumOfExports",
              "type": "uint256"
            },
            {
              "internalType": "address",
              "name": "issuer",
              "type": "address"
            },
            {
              "internalType": "bool",
              "name": "signed",
              "type": "bool"
            },
            {
              "internalType": "bool",
              "name": "visible",
              "type": "bool"
            }
          ],
          "internalType": "struct Model.certificate[]",
          "name": "",
          "type": "tuple[]"
        }
      ],
      "stateMutability": "view",
      "type": "function",
      "constant": true
    },
    {
      "inputs": [],
      "name": "seeVisibleCerts",
      "outputs": [
        {
          "components": [
            {
              "internalType": "uint256",
              "name": "id",
              "type": "uint256"
            },
            {
              "internalType": "string",
              "name": "name",
              "type": "string"
            },
            {
              "internalType": "string",
              "name": "cpa",
              "type": "string"
            },
            {
              "internalType": "string",
              "name": "grade",
              "type": "string"
            },
            {
              "internalType": "uint256",
              "name": "timestamp",
              "type": "uint256"
            },
            {
              "internalType": "uint256",
              "name": "exportTime",
              "type": "uint256"
            },
            {
              "internalType": "uint256",
              "name": "NumOfExports",
              "type": "uint256"
            },
            {
              "internalType": "address",
              "name": "issuer",
              "type": "address"
            },
            {
              "internalType": "bool",
              "name": "signed",
              "type": "bool"
            },
            {
              "internalType": "bool",
              "name": "visible",
              "type": "bool"
            }
          ],
          "internalType": "struct Model.certificate[]",
          "name": "",
          "type": "tuple[]"
        }
      ],
      "stateMutability": "view",
      "type": "function",
      "constant": true
    },
    {
      "inputs": [],
      "name": "seeAllCerts",
      "outputs": [
        {
          "components": [
            {
              "internalType": "uint256",
              "name": "id",
              "type": "uint256"
            },
            {
              "internalType": "string",
              "name": "name",
              "type": "string"
            },
            {
              "internalType": "string",
              "name": "cpa",
              "type": "string"
            },
            {
              "internalType": "string",
              "name": "grade",
              "type": "string"
            },
            {
              "internalType": "uint256",
              "name": "timestamp",
              "type": "uint256"
            },
            {
              "internalType": "uint256",
              "name": "exportTime",
              "type": "uint256"
            },
            {
              "internalType": "uint256",
              "name": "NumOfExports",
              "type": "uint256"
            },
            {
              "internalType": "address",
              "name": "issuer",
              "type": "address"
            },
            {
              "internalType": "bool",
              "name": "signed",
              "type": "bool"
            },
            {
              "internalType": "bool",
              "name": "visible",
              "type": "bool"
            }
          ],
          "internalType": "struct Model.certificate[]",
          "name": "",
          "type": "tuple[]"
        }
      ],
      "stateMutability": "view",
      "type": "function",
      "constant": true
    },
    {
      "inputs": [],
      "name": "getAADUser",
      "outputs": [
        {
          "components": [
            {
              "internalType": "string",
              "name": "name",
              "type": "string"
            },
            {
              "internalType": "string",
              "name": "date",
              "type": "string"
            },
            {
              "internalType": "string",
              "name": "phone",
              "type": "string"
            },
            {
              "internalType": "bool",
              "name": "isActive",
              "type": "bool"
            }
          ],
          "internalType": "struct Model.AADUser",
          "name": "",
          "type": "tuple"
        }
      ],
      "stateMutability": "view",
      "type": "function",
      "constant": true
    },
    {
      "inputs": [
        {
          "internalType": "uint256",
          "name": "_companyId",
          "type": "uint256"
        }
      ],
      "name": "changeCompanyVisible",
      "outputs": [],
      "stateMutability": "nonpayable",
      "type": "function"
    },
    {
      "inputs": [
        {
          "internalType": "uint256",
          "name": "_certId",
          "type": "uint256"
        }
      ],
      "name": "getCompanyVisibleById",
      "outputs": [
        {
          "internalType": "bool",
          "name": "",
          "type": "bool"
        },
        {
          "internalType": "bool[]",
          "name": "",
          "type": "bool[]"
        }
      ],
      "stateMutability": "view",
      "type": "function",
      "constant": true
    }
  ],
  "bytecode": "0x60806040523480156200001157600080fd5b50604051620037303803806200373083398101604081905262000034916200005a565b600080546001600160a01b0319166001600160a01b03929092169190911790556200008a565b6000602082840312156200006c578081fd5b81516001600160a01b038116811462000083578182fd5b9392505050565b613696806200009a6000396000f3fe608060405234801561001057600080fd5b50600436106100ea5760003560e01c8063bbb5d6e41161008c578063d6f641cd11610066578063d6f641cd146101d8578063e762b045146101eb578063f3ef8e29146101f3578063f9e5562914610208576100ea565b8063bbb5d6e414610192578063d12d6f6e146101a5578063d59f02d4146101b8576100ea565b8063669c2d84116100c8578063669c2d841461012a57806367b1a0d61461014b578063744448821461015e578063a29866d614610171576100ea565b80630e21e9d0146100ef578063498671781461010d57806357fdb0fa14610115575b600080fd5b6100f761021b565b6040516101049190613182565b60405180910390f35b6100f76106b9565b6101286101233660046130b3565b610a5a565b005b61013d610138366004612d3f565b610e8b565b604051908152602001610104565b610128610159366004612da3565b610eb4565b61012861016c366004612d3f565b6111d9565b61018461017f3660046130b3565b611609565b60405161010492919061326b565b6101286101a03660046130b3565b611896565b6101286101b3366004612cad565b611a3d565b6101cb6101c63660046130b3565b611b2c565b60405161010491906133c1565b6100f76101e6366004612d3f565b611c24565b6100f7612180565b6101fb612622565b6040516101049190613350565b6101286102163660046130b3565b6126d3565b60005460405163f117dd5b60e01b81523360048201526060916001600160a01b03169063f117dd5b9060240160006040518083038186803b15801561025f57600080fd5b505afa158015610273573d6000803e3d6000fd5b505050506040513d6000823e601f3d908101601f1916820160405261029b9190810190612ee7565b6080015115156001146102ad57600080fd5b60006007546001600160401b038111156102d757634e487b7160e01b600052604160045260246000fd5b60405190808252806020026020018201604052801561031057816020015b6102fd6129aa565b8152602001906001900390816102f55790505b5090506000805b6001548110156106b1576001818154811061034257634e487b7160e01b600052603260045260246000fd5b906000526020600020906008020160070160159054906101000a900460ff16801561040e57506000805460405163f117dd5b60e01b8152336004820152600592916001600160a01b03169063f117dd5b9060240160006040518083038186803b1580156103ae57600080fd5b505afa1580156103c2573d6000803e3d6000fd5b505050506040513d6000823e601f3d908101601f191682016040526103ea9190810190612ee7565b5181526020808201929092526040908101600090812084825290925290205460ff16155b1561069f576001818154811061043457634e487b7160e01b600052603260045260246000fd5b90600052602060002090600802016040518061014001604052908160008201548152602001600182018054610468906135de565b80601f0160208091040260200160405190810160405280929190818152602001828054610494906135de565b80156104e15780601f106104b6576101008083540402835291602001916104e1565b820191906000526020600020905b8154815290600101906020018083116104c457829003601f168201915b505050505081526020016002820180546104fa906135de565b80601f0160208091040260200160405190810160405280929190818152602001828054610526906135de565b80156105735780601f1061054857610100808354040283529160200191610573565b820191906000526020600020905b81548152906001019060200180831161055657829003601f168201915b5050505050815260200160038201805461058c906135de565b80601f01602080910402602001604051908101604052809291908181526020018280546105b8906135de565b80156106055780601f106105da57610100808354040283529160200191610605565b820191906000526020600020905b8154815290600101906020018083116105e857829003601f168201915b50505091835250506004820154602082015260058201546040820152600682015460608201526007909101546001600160a01b038116608083015260ff600160a01b82048116151560a0840152600160a81b90910416151560c090910152835184908490811061068557634e487b7160e01b600052603260045260246000fd5b6020026020010181905250818061069b90613619565b9250505b806106a981613619565b915050610317565b509091505090565b60005460408051634f54be9760e11b815290516060926001600160a01b031691639ea97d2e916004808301926020929190829003018186803b1580156106fe57600080fd5b505afa158015610712573d6000803e3d6000fd5b505050506040513d601f19601f820116820180604052508101906107369190612bfe565b6001600160a01b0316336001600160a01b031614806107d9575060005460405163bd2456c760e01b81523360048201526001600160a01b039091169063bd2456c79060240160006040518083038186803b15801561079357600080fd5b505afa1580156107a7573d6000803e3d6000fd5b505050506040513d6000823e601f3d908101601f191682016040526107cf9190810190612e26565b6060015115156001145b6107e257600080fd5b6001805480602002602001604051908101604052809291908181526020016000905b82821015610a5157838290600052602060002090600802016040518061014001604052908160008201548152602001600182018054610842906135de565b80601f016020809104026020016040519081016040528092919081815260200182805461086e906135de565b80156108bb5780601f10610890576101008083540402835291602001916108bb565b820191906000526020600020905b81548152906001019060200180831161089e57829003601f168201915b505050505081526020016002820180546108d4906135de565b80601f0160208091040260200160405190810160405280929190818152602001828054610900906135de565b801561094d5780601f106109225761010080835404028352916020019161094d565b820191906000526020600020905b81548152906001019060200180831161093057829003601f168201915b50505050508152602001600382018054610966906135de565b80601f0160208091040260200160405190810160405280929190818152602001828054610992906135de565b80156109df5780601f106109b4576101008083540402835291602001916109df565b820191906000526020600020905b8154815290600101906020018083116109c257829003601f168201915b5050509183525050600482015460208083019190915260058301546040830152600683015460608301526007909201546001600160a01b038116608083015260ff600160a01b82048116151560a0840152600160a81b90910416151560c0909101529082526001929092019101610804565b50505050905090565b6000546040516324ecca6360e21b81523360048201526001600160a01b03909116906393b3298c9060240160006040518083038186803b158015610a9d57600080fd5b505afa158015610ab1573d6000803e3d6000fd5b505050506040513d6000823e601f3d908101601f19168201604052610ad99190810190612f19565b61012001511515600114610aec57600080fd5b8060046000828152602001908152602001600020604051602001610b109190613113565b60408051808303601f190181529082905280516020909101206000546324ecca6360e21b835233600484015290916001600160a01b03909116906393b3298c9060240160006040518083038186803b158015610b6b57600080fd5b505afa158015610b7f573d6000803e3d6000fd5b505050506040513d6000823e601f3d908101601f19168201604052610ba79190810190612f19565b51604051610bb891906020016130f7565b6040516020818303038152906040528051906020012014610bd857600080fd5b60018281548110610bf957634e487b7160e01b600052603260045260246000fd5b906000526020600020906008020160070160159054906101000a900460ff161560018381548110610c3a57634e487b7160e01b600052603260045260246000fd5b906000526020600020906008020160070160156101000a81548160ff02191690831515021790555060018281548110610c8357634e487b7160e01b600052603260045260246000fd5b906000526020600020906008020160070160159054906101000a900460ff1615610d965760088054906000610cb783613619565b919050555060005b6000805460408051630d2393fd60e01b815290516001600160a01b0390921692630d2393fd92600480840193829003018186803b158015610cff57600080fd5b505afa158015610d13573d6000803e3d6000fd5b505050506040513d6000823e601f3d908101601f19168201604052610d3b9190810190612c25565b51811015610d905760008181526005602090815260408083208684528252808320805460ff19908116909155600683528184208585529092529091208054909116905580610d8881613619565b915050610cbf565b50610e87565b60088054906000610da6836135c7565b919050555060005b6000805460408051630d2393fd60e01b815290516001600160a01b0390921692630d2393fd92600480840193829003018186803b158015610dee57600080fd5b505afa158015610e02573d6000803e3d6000fd5b505050506040513d6000823e601f3d908101601f19168201604052610e2a9190810190612c25565b51811015610e8557600081815260056020908152604080832086845282528083208054600160ff1991821681179092556006845282852086865290935292208054909116909117905580610e7d81613619565b915050610dae565b505b5050565b6000600382604051610e9d91906130f7565b90815260200160405180910390205490505b919050565b60005460405163bd2456c760e01b81523360048201526001600160a01b039091169063bd2456c79060240160006040518083038186803b158015610ef757600080fd5b505afa158015610f0b573d6000803e3d6000fd5b505050506040513d6000823e601f3d908101601f19168201604052610f339190810190612e26565b606001511515600114610f4557600080fd5b610f4d6129aa565b6001548152602081018390526040808201839052516397678ad560e01b815273__SetGrade______________________________906397678ad590610f969085906004016132bc565b60006040518083038186803b158015610fae57600080fd5b505af4158015610fc2573d6000803e3d6000fd5b505050506040513d6000823e601f3d908101601f19168201604052610fea9190810190612d71565b6060820152426080820152600060c0820181905261012082018190526001805480820182559152815160089091027fb10e2d527612073b26eecdfd717e6a320cf44b4afac2b0732d9fcbe2b7fa0cf681019182556020808401518051859493611079937fb10e2d527612073b26eecdfd717e6a320cf44b4afac2b0732d9fcbe2b7fa0cf7909101920190612a0a565b5060408201518051611095916002840191602090910190612a0a565b50606082015180516110b1916003840191602090910190612a0a565b506080820151600482015560a0820151600582015560c0820151600682015560e082015160079091018054610100840151610120909401511515600160a81b0260ff60a81b19941515600160a01b026001600160a81b03199092166001600160a01b039094169390931717929092161790556040516002906111349086906130f7565b908152604051908190036020019020600180546111519190613580565b8154600181810184556000938452602084209091019190915580548692600492909161117d9190613580565b8152602001908152602001600020908051906020019061119e929190612a0a565b5060016003856040516111b191906130f7565b908152602001604051809103902060008282546111ce9190613568565b909155505050505050565b60005460405163bd2456c760e01b81523360048201526001600160a01b039091169063bd2456c79060240160006040518083038186803b15801561121c57600080fd5b505afa158015611230573d6000803e3d6000fd5b505050506040513d6000823e601f3d908101601f191682016040526112589190810190612e26565b60600151151560011461126a57600080fd5b6112726129aa565b60015481526000546040516376bd6c1360e11b81526001600160a01b039091169063ed7ad826906112a79085906004016132bc565b60006040518083038186803b1580156112bf57600080fd5b505afa1580156112d3573d6000803e3d6000fd5b505050506040513d6000823e601f3d908101601f191682016040526112fb9190810190612f19565b60c0015160208201526000546040516376bd6c1360e11b81526001600160a01b039091169063ed7ad826906113349085906004016132bc565b60006040518083038186803b15801561134c57600080fd5b505afa158015611360573d6000803e3d6000fd5b505050506040513d6000823e601f3d908101601f191682016040526113889190810190612f19565b60e001516040808301829052516397678ad560e01b815273__SetGrade______________________________916397678ad5916113c891906004016132bc565b60006040518083038186803b1580156113e057600080fd5b505af41580156113f4573d6000803e3d6000fd5b505050506040513d6000823e601f3d908101601f1916820160405261141c9190810190612d71565b6060820152426080820152600060c0820181905261012082018190526001805480820182559152815160089091027fb10e2d527612073b26eecdfd717e6a320cf44b4afac2b0732d9fcbe2b7fa0cf6810191825560208084015180518594936114ab937fb10e2d527612073b26eecdfd717e6a320cf44b4afac2b0732d9fcbe2b7fa0cf7909101920190612a0a565b50604082015180516114c7916002840191602090910190612a0a565b50606082015180516114e3916003840191602090910190612a0a565b506080820151600482015560a0820151600582015560c0820151600682015560e082015160079091018054610100840151610120909401511515600160a81b0260ff60a81b19941515600160a01b026001600160a81b03199092166001600160a01b039094169390931717929092161790556040516002906115669084906130f7565b908152604051908190036020019020600180546115839190613580565b815460018181018455600093845260208420909101919091558054849260049290916115af9190613580565b815260200190815260200160002090805190602001906115d0929190612a0a565b5060016003836040516115e391906130f7565b908152602001604051809103902060008282546116009190613568565b90915550505050565b6000606082600460008281526020019081526020016000206040516020016116319190613113565b60408051808303601f190181529082905280516020909101206000546324ecca6360e21b835233600484015290916001600160a01b03909116906393b3298c9060240160006040518083038186803b15801561168c57600080fd5b505afa1580156116a0573d6000803e3d6000fd5b505050506040513d6000823e601f3d908101601f191682016040526116c89190810190612f19565b516040516116d991906020016130f7565b60405160208183030381529060405280519060200120146116f957600080fd5b60008060009054906101000a90046001600160a01b03166001600160a01b0316630d2393fd6040518163ffffffff1660e01b815260040160006040518083038186803b15801561174857600080fd5b505afa15801561175c573d6000803e3d6000fd5b505050506040513d6000823e601f3d908101601f191682016040526117849190810190612c25565b5190506000816001600160401b038111156117af57634e487b7160e01b600052604160045260246000fd5b6040519080825280602002602001820160405280156117d8578160200160208202803683370190505b50905060005b8281101561184b576000878152600660209081526040808320848452909152902054825160ff909116159083908390811061182957634e487b7160e01b600052603260045260246000fd5b911515602092830291909101909101528061184381613619565b9150506117de565b506001868154811061186d57634e487b7160e01b600052603260045260246000fd5b6000918252602090912060089091020160070154600160a81b900460ff16969095509350505050565b6000546040516324ecca6360e21b81523360048201526001600160a01b03909116906393b3298c9060240160006040518083038186803b1580156118d957600080fd5b505afa1580156118ed573d6000803e3d6000fd5b505050506040513d6000823e601f3d908101601f191682016040526119159190810190612f19565b6101200151151560011461192857600080fd5b600080546040516324ecca6360e21b81523360048201526002916001600160a01b0316906393b3298c9060240160006040518083038186803b15801561196d57600080fd5b505afa158015611981573d6000803e3d6000fd5b505050506040513d6000823e601f3d908101601f191682016040526119a99190810190612f19565b516040516119b791906130f7565b90815260200160405180910390206000815481106119e557634e487b7160e01b600052603260045260246000fd5b600091825260208083209190910154848352600582526040808420918452908252808320805460ff8082161560ff19928316179092556006845282852096855295909252909120805491821615919093161790915550565b60008054906101000a90046001600160a01b03166001600160a01b0316639ea97d2e6040518163ffffffff1660e01b815260040160206040518083038186803b158015611a8957600080fd5b505afa158015611a9d573d6000803e3d6000fd5b505050506040513d601f19601f82011682018060405250810190611ac19190612bfe565b6001600160a01b0316336001600160a01b031614611ade57600080fd5b60005b8151811015610e8757611b1a828281518110611b0d57634e487b7160e01b600052603260045260246000fd5b60200260200101516126d3565b80611b2481613619565b915050611ae1565b611b8d6040518061016001604052806060815260200160608152602001606081526020016060815260200160608152602001606081526020016060815260200160608152602001600015158152602001600015158152602001600081525090565b6000805483825260046020819052604080842090516376bd6c1360e11b81526001600160a01b039093169263ed7ad82692611bc99291016132cf565b60006040518083038186803b158015611be157600080fd5b505afa158015611bf5573d6000803e3d6000fd5b505050506040513d6000823e601f3d908101601f19168201604052611c1d9190810190612f19565b9392505050565b60005460405163f117dd5b60e01b81523360048201526060916001600160a01b03169063f117dd5b9060240160006040518083038186803b158015611c6857600080fd5b505afa158015611c7c573d6000803e3d6000fd5b505050506040513d6000823e601f3d908101601f19168201604052611ca49190810190612ee7565b608001511515600114611cb657600080fd5b6000600283604051611cc891906130f7565b9081526040519081900360200190205490506000816001600160401b03811115611d0257634e487b7160e01b600052604160045260246000fd5b604051908082528060200260200182016040528015611d3b57816020015b611d286129aa565b815260200190600190039081611d205790505b50905060005b600285604051611d5191906130f7565b90815260405190819003602001902054811015612178576001600286604051611d7a91906130f7565b90815260200160405180910390208281548110611da757634e487b7160e01b600052603260045260246000fd5b906000526020600020015481548110611dd057634e487b7160e01b600052603260045260246000fd5b906000526020600020906008020160070160159054906101000a900460ff168015611e9c57506000805460405163f117dd5b60e01b8152336004820152600592916001600160a01b03169063f117dd5b9060240160006040518083038186803b158015611e3c57600080fd5b505afa158015611e50573d6000803e3d6000fd5b505050506040513d6000823e601f3d908101601f19168201604052611e789190810190612ee7565b5181526020808201929092526040908101600090812084825290925290205460ff16155b15612166576001600286604051611eb391906130f7565b90815260200160405180910390208281548110611ee057634e487b7160e01b600052603260045260246000fd5b906000526020600020015481548110611f0957634e487b7160e01b600052603260045260246000fd5b90600052602060002090600802016040518061014001604052908160008201548152602001600182018054611f3d906135de565b80601f0160208091040260200160405190810160405280929190818152602001828054611f69906135de565b8015611fb65780601f10611f8b57610100808354040283529160200191611fb6565b820191906000526020600020905b815481529060010190602001808311611f9957829003601f168201915b50505050508152602001600282018054611fcf906135de565b80601f0160208091040260200160405190810160405280929190818152602001828054611ffb906135de565b80156120485780601f1061201d57610100808354040283529160200191612048565b820191906000526020600020905b81548152906001019060200180831161202b57829003601f168201915b50505050508152602001600382018054612061906135de565b80601f016020809104026020016040519081016040528092919081815260200182805461208d906135de565b80156120da5780601f106120af576101008083540402835291602001916120da565b820191906000526020600020905b8154815290600101906020018083116120bd57829003601f168201915b50505091835250506004820154602082015260058201546040820152600682015460608201526007909101546001600160a01b038116608083015260ff600160a01b82048116151560a0840152600160a81b90910416151560c090910152825183908390811061215a57634e487b7160e01b600052603260045260246000fd5b60200260200101819052505b8061217081613619565b915050611d41565b509392505050565b6000546040516324ecca6360e21b81523360048201526060916001600160a01b0316906393b3298c9060240160006040518083038186803b1580156121c457600080fd5b505afa1580156121d8573d6000803e3d6000fd5b505050506040513d6000823e601f3d908101601f191682016040526122009190810190612f19565b6101200151151560011461221357600080fd5b600080546040516324ecca6360e21b81523360048201526001600160a01b03909116906393b3298c9060240160006040518083038186803b15801561225757600080fd5b505afa15801561226b573d6000803e3d6000fd5b505050506040513d6000823e601f3d908101601f191682016040526122939190810190612f19565b60000151905060006003826040516122ab91906130f7565b9081526020016040518091039020546001600160401b038111156122df57634e487b7160e01b600052604160045260246000fd5b60405190808252806020026020018201604052801561231857816020015b6123056129aa565b8152602001906001900390816122fd5790505b50905060005b60038360405161232e91906130f7565b90815260200160405180910390205481101561261b57600160028460405161235691906130f7565b9081526020016040518091039020828154811061238357634e487b7160e01b600052603260045260246000fd5b9060005260206000200154815481106123ac57634e487b7160e01b600052603260045260246000fd5b906000526020600020906008020160405180610140016040529081600082015481526020016001820180546123e0906135de565b80601f016020809104026020016040519081016040528092919081815260200182805461240c906135de565b80156124595780601f1061242e57610100808354040283529160200191612459565b820191906000526020600020905b81548152906001019060200180831161243c57829003601f168201915b50505050508152602001600282018054612472906135de565b80601f016020809104026020016040519081016040528092919081815260200182805461249e906135de565b80156124eb5780601f106124c0576101008083540402835291602001916124eb565b820191906000526020600020905b8154815290600101906020018083116124ce57829003601f168201915b50505050508152602001600382018054612504906135de565b80601f0160208091040260200160405190810160405280929190818152602001828054612530906135de565b801561257d5780601f106125525761010080835404028352916020019161257d565b820191906000526020600020905b81548152906001019060200180831161256057829003601f168201915b50505091835250506004820154602082015260058201546040820152600682015460608201526007909101546001600160a01b038116608083015260ff600160a01b82048116151560a0840152600160a81b90910416151560c09091015282518390839081106125fd57634e487b7160e01b600052603260045260246000fd5b6020026020010181905250808061261390613619565b91505061231e565b5091505090565b61264f60405180608001604052806060815260200160608152602001606081526020016000151581525090565b60005460405163bd2456c760e01b81523360048201526001600160a01b039091169063bd2456c79060240160006040518083038186803b15801561269257600080fd5b505afa1580156126a6573d6000803e3d6000fd5b505050506040513d6000823e601f3d908101601f191682016040526126ce9190810190612e26565b905090565b60008054906101000a90046001600160a01b03166001600160a01b0316639ea97d2e6040518163ffffffff1660e01b815260040160206040518083038186803b15801561271f57600080fd5b505afa158015612733573d6000803e3d6000fd5b505050506040513d601f19601f820116820180604052508101906127579190612bfe565b6001600160a01b0316336001600160a01b03161461277457600080fd5b6001818154811061279557634e487b7160e01b600052603260045260246000fd5b6000918252602090912060089091020160070154600160a01b900460ff16156127bd57600080fd5b33600182815481106127df57634e487b7160e01b600052603260045260246000fd5b906000526020600020906008020160070160006101000a8154816001600160a01b0302191690836001600160a01b03160217905550600180828154811061283657634e487b7160e01b600052603260045260246000fd5b906000526020600020906008020160070160146101000a81548160ff021916908315150217905550600180828154811061288057634e487b7160e01b600052603260045260246000fd5b906000526020600020906008020160070160156101000a81548160ff02191690831515021790555060005b6000805460408051630d2393fd60e01b815290516001600160a01b0390921692630d2393fd92600480840193829003018186803b1580156128eb57600080fd5b505afa1580156128ff573d6000803e3d6000fd5b505050506040513d6000823e601f3d908101601f191682016040526129279190810190612c25565b5181101561297c5760008281526006602090815260408083208484528252808320805460ff1990811690915560058352818420868552909252909120805490911690558061297481613619565b9150506128ab565b506007805490600061298d83613619565b9091555050600880549060006129a283613619565b919050555050565b6040518061014001604052806000815260200160608152602001606081526020016060815260200160008152602001600081526020016000815260200160006001600160a01b031681526020016000151581526020016000151581525090565b828054612a16906135de565b90600052602060002090601f016020900481019282612a385760008555612a7e565b82601f10612a5157805160ff1916838001178555612a7e565b82800160010185558215612a7e579182015b82811115612a7e578251825591602001919060010190612a63565b50612a8a929150612a8e565b5090565b5b80821115612a8a5760008155600101612a8f565b80518015158114610eaf57600080fd5b600082601f830112612ac3578081fd5b8135612ad6612ad182613541565b6134ee565b818152846020838601011115612aea578283fd5b816020850160208301379081016020019190915292915050565b600082601f830112612b14578081fd5b8151612b22612ad182613541565b818152846020838601011115612b36578283fd5b612b47826020830160208701613597565b949350505050565b600060a08284031215612b60578081fd5b612b6a60a06134ee565b90508151815260208201516001600160401b0380821115612b8a57600080fd5b612b9685838601612b04565b60208401526040840151915080821115612baf57600080fd5b612bbb85838601612b04565b60408401526060840151915080821115612bd457600080fd5b50612be184828501612b04565b606083015250612bf360808301612aa3565b608082015292915050565b600060208284031215612c0f578081fd5b81516001600160a01b0381168114611c1d578182fd5b60006020808385031215612c37578182fd5b82516001600160401b03811115612c4c578283fd5b8301601f81018513612c5c578283fd5b8051612c6a612ad18261351e565b81815283810190838501865b84811015612c9f57612c8d8a888451890101612b4f565b84529286019290860190600101612c76565b509098975050505050505050565b60006020808385031215612cbf578182fd5b82356001600160401b03811115612cd4578283fd5b8301601f81018513612ce4578283fd5b8035612cf2612ad18261351e565b80828252848201915084840188868560051b8701011115612d11578687fd5b8694505b83851015612d33578035835260019490940193918501918501612d15565b50979650505050505050565b600060208284031215612d50578081fd5b81356001600160401b03811115612d65578182fd5b612b4784828501612ab3565b600060208284031215612d82578081fd5b81516001600160401b03811115612d97578182fd5b612b4784828501612b04565b600080600060608486031215612db7578182fd5b83356001600160401b0380821115612dcd578384fd5b612dd987838801612ab3565b94506020860135915080821115612dee578384fd5b612dfa87838801612ab3565b93506040860135915080821115612e0f578283fd5b50612e1c86828701612ab3565b9150509250925092565b600060208284031215612e37578081fd5b81516001600160401b0380821115612e4d578283fd5b9083019060808286031215612e60578283fd5b612e6a60806134ee565b825182811115612e78578485fd5b612e8487828601612b04565b825250602083015182811115612e98578485fd5b612ea487828601612b04565b602083015250604083015182811115612ebb578485fd5b612ec787828601612b04565b604083015250612ed960608401612aa3565b606082015295945050505050565b600060208284031215612ef8578081fd5b81516001600160401b03811115612f0d578182fd5b612b4784828501612b4f565b600060208284031215612f2a578081fd5b81516001600160401b0380821115612f40578283fd5b8184019150610160808387031215612f56578384fd5b612f5f816134ee565b9050825182811115612f6f578485fd5b612f7b87828601612b04565b825250602083015182811115612f8f578485fd5b612f9b87828601612b04565b602083015250604083015182811115612fb2578485fd5b612fbe87828601612b04565b604083015250606083015182811115612fd5578485fd5b612fe187828601612b04565b606083015250608083015182811115612ff8578485fd5b61300487828601612b04565b60808301525060a08301518281111561301b578485fd5b61302787828601612b04565b60a08301525060c08301518281111561303e578485fd5b61304a87828601612b04565b60c08301525060e083015182811115613061578485fd5b61306d87828601612b04565b60e0830152506101009150613083828401612aa3565b828201526101209150613097828401612aa3565b9181019190915261014091820151918101919091529392505050565b6000602082840312156130c4578081fd5b5035919050565b600081518084526130e3816020860160208601613597565b601f01601f19169290920160200192915050565b60008251613109818460208701613597565b9190910192915050565b6000808354613121816135de565b60018281168015613139576001811461314a57613176565b60ff19841687528287019450613176565b8786526020808720875b8581101561316d5781548a820152908401908201613154565b50505082870194505b50929695505050505050565b60006020808301818452808551808352604092508286019150828160051b870101848801865b83811015612c9f57603f1989840301855281516101408151855288820151818a8701526131d7828701826130cb565b91505087820151858203898701526131ef82826130cb565b9150506060808301518683038288015261320983826130cb565b6080858101519089015260a0808601519089015260c0808601519089015260e0808601516001600160a01b03169089015261010080860151151590890152610120948501511515949097019390935250505093860193908601906001016131a8565b600060408201841515835260206040818501528185518084526060860191508287019350845b818110156132af578451151583529383019391830191600101613291565b5090979650505050505050565b600060208252611c1d60208301846130cb565b600060208083528184546132e2816135de565b80848701526040600180841660008114613303576001811461331757613342565b60ff19851689840152606089019550613342565b898852868820885b8581101561333a5781548b820186015290830190880161331f565b8a0184019650505b509398975050505050505050565b60006020825282516080602084015261336c60a08401826130cb565b90506020840151601f198085840301604086015261338a83836130cb565b92506040860151915080858403016060860152506133a882826130cb565b9150506060840151151560808401528091505092915050565b60006020825282516101608060208501526133e06101808501836130cb565b91506020850151601f19808685030160408701526133fe84836130cb565b9350604087015191508086850301606087015261341b84836130cb565b9350606087015191508086850301608087015261343884836130cb565b935060808701519150808685030160a087015261345584836130cb565b935060a08701519150808685030160c087015261347284836130cb565b935060c08701519150808685030160e087015261348f84836130cb565b935060e087015191506101008187860301818801526134ae85846130cb565b945080880151925050506101206134c88187018315159052565b86015190506101406134dd8682018315159052565b959095015193019290925250919050565b604051601f8201601f191681016001600160401b03811182821017156135165761351661364a565b604052919050565b60006001600160401b038211156135375761353761364a565b5060051b60200190565b60006001600160401b0382111561355a5761355a61364a565b50601f01601f191660200190565b6000821982111561357b5761357b613634565b500190565b60008282101561359257613592613634565b500390565b60005b838110156135b257818101518382015260200161359a565b838111156135c1576000848401525b50505050565b6000816135d6576135d6613634565b506000190190565b600181811c908216806135f257607f821691505b6020821081141561361357634e487b7160e01b600052602260045260246000fd5b50919050565b600060001982141561362d5761362d613634565b5060010190565b634e487b7160e01b600052601160045260246000fd5b634e487b7160e01b600052604160045260246000fdfea2646970667358221220d91d2241419751ee1b21f3e3366e68eb85dfa027a47aa78825ad138b986b36c664736f6c63430008030033",
  "immutableReferences": {},
  "source": "// SPDX-License-Identifier: MIT\npragma solidity >=0.7.0 <0.9.0;\n\nimport \"./SetGrade.sol\";\nimport \"./Model.sol\";\nimport \"./User.sol\";\n\ncontract Certificate {\n    User private user;\n\n    constructor(User _user) {\n        user = _user;\n    }\n\n    Model.certificate[] certificateList;\n    mapping(string => uint256[]) studentCerts;\n    mapping(string => uint256) studentCertCount;\n    mapping(uint256 => string) idToStudentId;\n    mapping(uint256 => mapping(uint256 => bool)) companyInvisibleCert;\n    mapping(uint256 => mapping(uint256 => bool)) idTocompanyInvisible;\n    uint256 signedCertCount;\n    uint256 visibleCertCount;\n\n    using SetGrade for string;\n\n    modifier onlyAADepartmentUser() {\n        require(user.getAADepartmentUser(msg.sender).isActive == true);\n        _;\n    }\n\n    modifier onlyCurrentRector() {\n        require(msg.sender == user.currentRectorAddress());\n        _;\n    }\n\n    modifier onlyStudent() {\n        require(user.getStudentByAddr(msg.sender).isActive == true);\n        _;\n    }\n\n    modifier isCertOwner(uint256 _id) {\n        require(\n            keccak256(abi.encodePacked(user.getStudentByAddr(msg.sender).id)) ==\n                keccak256(abi.encodePacked(idToStudentId[_id]))\n        );\n        _;\n    }\n\n    modifier onlyRectorOrAAD() {\n        require(\n            msg.sender == user.currentRectorAddress() ||\n                user.getAADepartmentUser(msg.sender).isActive == true\n        );\n        _;\n    }\n\n    //tao bang chinh thuc cho student\n    function createCertificate(string memory _studentId)\n        public\n        onlyAADepartmentUser\n    {\n        //require(studentCertCount[_studentId] == 0); // ch to c bng cho nhng sinh vin cha c too\n        Model.certificate memory temp;\n        temp.id = certificateList.length;\n        temp.name = user.getStudentById(_studentId).major;\n        temp.cpa = user.getStudentById(_studentId).cpa;\n        temp.grade = SetGrade.setGrade(temp.cpa);\n        temp.timestamp = block.timestamp;\n        temp.NumOfExports = 0;\n        temp.visible = false;\n\n        certificateList.push(temp);\n        studentCerts[_studentId].push(certificateList.length - 1);\n        idToStudentId[certificateList.length - 1] = _studentId;\n        studentCertCount[_studentId] += 1;\n    }\n\n    //tao bang kep cho student\n    function createDoubleCertificate(\n        string memory _studentId,\n        string memory _name,\n        string memory _cpa\n    ) public onlyAADepartmentUser {\n        Model.certificate memory temp;\n        temp.id = certificateList.length;\n        temp.name = _name;\n        temp.cpa = _cpa;\n        temp.grade = SetGrade.setGrade(_cpa);\n        temp.timestamp = block.timestamp;\n        temp.NumOfExports = 0;\n        temp.visible = false;\n\n        certificateList.push(temp);\n        studentCerts[_studentId].push(certificateList.length - 1);\n        idToStudentId[certificateList.length - 1] = _studentId;\n        studentCertCount[_studentId] += 1;\n    }\n\n    function getStudentByCert(uint256 _id)\n        public\n        view\n        returns (Model.student memory)\n    {\n        Model.student memory temp = user.getStudentById(idToStudentId[_id]);\n        return temp;\n    }\n\n    function getStudentCertCount(string memory _studentId)\n        public\n        view\n        returns (uint256)\n    {\n        return studentCertCount[_studentId];\n    }\n\n    function signCertificate(uint256 _index) public onlyCurrentRector {\n        //require(certificateList[_index-1].siged == false); // ch k c nhng chng ch no cha k\n        require(certificateList[_index].signed == false);\n        certificateList[_index].issuer = msg.sender;\n        certificateList[_index].signed = true;\n        certificateList[_index].visible = true;\n\n        for (uint256 i = 0; i < user.getAllCompany().length; i++) {\n            idTocompanyInvisible[_index][i] = false;\n            companyInvisibleCert[i][_index] = false;\n        }\n        signedCertCount++;\n        visibleCertCount++;\n    }\n\n    function signMultipleCert(uint256[] memory _ids) public onlyCurrentRector {\n        for (uint256 i = 0; i < _ids.length; i++) {\n            signCertificate(_ids[i]);\n        }\n    }\n\n    // hm ny chy lc thng student xem cer cu n\n    function seeMyCertificate()\n        public\n        view\n        onlyStudent\n        returns (Model.certificate[] memory)\n    {\n        string memory studentId = user.getStudentByAddr(msg.sender).id;\n        Model.certificate[] memory studentCertificates =\n            new Model.certificate[](studentCertCount[studentId]);\n        for (uint256 i = 0; i < studentCertCount[studentId]; i++) {\n            studentCertificates[i] = certificateList[\n                studentCerts[studentId][i]\n            ];\n        }\n        return studentCertificates;\n    }\n\n    function changeCertVisibility(uint256 _index)\n        public\n        onlyStudent\n        isCertOwner(_index)\n    {\n        certificateList[_index].visible = !certificateList[_index].visible;\n        if (certificateList[_index].visible) {\n            visibleCertCount++;\n            for (uint i = 0; i < user.getAllCompany().length; i++) {\n                companyInvisibleCert[i][_index] = false;\n                idTocompanyInvisible[_index][i] = false;\n            }\n        } else {\n            visibleCertCount--;\n            for (uint i = 0; i < user.getAllCompany().length; i++) {\n                companyInvisibleCert[i][_index] = true;\n                idTocompanyInvisible[_index][i] = true;\n            }\n        }\n    }\n\n    // cng ty check cc bng ca 1 sinh vin\n    function seeStudentCerts(string memory _studentId)\n        public\n        view\n        returns (Model.certificate[] memory)\n    {\n        require(user.getCompanyByAddress(msg.sender).isActive == true);\n        uint256 count = studentCerts[_studentId].length;\n        Model.certificate[] memory studentCertificates =\n            new Model.certificate[](count);\n        for (uint256 i = 0; i < studentCerts[_studentId].length; i++) {\n            if (certificateList[studentCerts[_studentId][i]].visible && !companyInvisibleCert[user.getCompanyByAddress(msg.sender).id][i])\n                studentCertificates[i] = certificateList[\n                    studentCerts[_studentId][i]\n                ];\n        }\n        return studentCertificates;\n    }\n\n    // cng ty xem cert cng khai\n    function seeVisibleCerts()\n        public\n        view\n        returns (Model.certificate[] memory)\n    {\n        require(user.getCompanyByAddress(msg.sender).isActive == true);\n        Model.certificate[] memory allVisibleCerts =\n            new Model.certificate[](signedCertCount);\n        uint256 count = 0;\n        for (uint256 i = 0; i < certificateList.length; i++) {\n            if (\n                certificateList[i].visible &&\n                !companyInvisibleCert[user.getCompanyByAddress(msg.sender).id][i]\n            ) {\n                allVisibleCerts[count] = certificateList[i];\n                count++;\n            }\n        }\n        return allVisibleCerts;\n    }\n\n    //nh trng xem ht\n    function seeAllCerts()\n        public\n        view\n        onlyRectorOrAAD\n        returns (Model.certificate[] memory)\n    {\n        return certificateList;\n    }\n\n    function getAADUser() public view returns (Model.AADUser memory) {\n        return user.getAADepartmentUser(msg.sender);\n    }\n\n    function changeCompanyVisible(uint256 _companyId) public onlyStudent() {\n        uint256 certId = studentCerts[user.getStudentByAddr(msg.sender).id][0];\n        companyInvisibleCert[_companyId][certId] = !companyInvisibleCert[\n            _companyId\n        ][certId];\n        idTocompanyInvisible[certId][_companyId] = !idTocompanyInvisible[\n            certId\n        ][_companyId];\n    }\n\n    function getCompanyVisibleById(uint256 _certId)\n        public\n        view\n        isCertOwner(_certId)\n        returns (bool, bool[] memory)\n    {\n        uint256 count = user.getAllCompany().length;\n        bool[] memory result = new bool[](count);\n        for (uint256 i = 0; i < count; i++) {\n            result[i] = !idTocompanyInvisible[_certId][i];\n        }\n        return (certificateList[_certId].visible, result);\n    }\n}\n",
  "sourcePath": "/Users/hughdo/Desktop/Proj/CertVerificationSystem/contracts/Certificate.sol",
  "compiler": {
    "name": "solc",
    "version": "0.8.3+commit.8d00100c.Emscripten.clang"
  },
  "schemaVersion": "3.3.4",
  "updatedAt": "2021-06-04T07:27:17.023Z",
  "networkType": "ethereum",
  "devdoc": {
    "kind": "dev",
    "methods": {},
    "version": 1
  },
  "userdoc": {
    "kind": "user",
    "methods": {},
    "version": 1
  }
}