{
  "contractName": "SetGrade",
  "abi": [
    {
      "inputs": [
        {
          "internalType": "string",
          "name": "_cpa",
          "type": "string"
        }
      ],
      "name": "setGrade",
      "outputs": [
        {
          "internalType": "string",
          "name": "",
          "type": "string"
        }
      ],
      "stateMutability": "pure",
      "type": "function"
    },
    {
      "inputs": [
        {
          "internalType": "string",
          "name": "_amount",
          "type": "string"
        }
      ],
      "name": "stringToUint",
      "outputs": [
        {
          "internalType": "uint256",
          "name": "result",
          "type": "uint256"
        }
      ],
      "stateMutability": "pure",
      "type": "function"
    }
  ],
  "bytecode": "0x6106ac61003a600b82828239805160001a60731461002d57634e487b7160e01b600052600060045260246000fd5b30600052607381538281f3fe73000000000000000000000000000000000000000030146080604052600436106100405760003560e01c80631bd951551461004557806397678ad51461006b575b600080fd5b6100586100533660046103b9565b61008b565b6040519081526020015b60405180910390f35b61007e6100793660046103b9565b6102f2565b6040516100629190610463565b80516000908290829081908190806100a281610618565b9150506000855160011415610132576000866000815181106100d457634e487b7160e01b600052603260045260246000fd5b016020015160f81c9050603081108015906100f0575060398111155b1561013057610100603082610601565b61010b89600a6105e2565b61011591906104b6565b97506101228860646105e2565b9750505050505050506102ed565b505b600094505b85518510156101e757600086868151811061016257634e487b7160e01b600052603260045260246000fd5b016020015160f81c90506030811080159061017e575060398111155b156101c15761018e603082610601565b61019989600a6105e2565b6101a391906104b6565b9750846101af8161062f565b95505082806101bd90610618565b9350505b80602e14156101d45760019150506101e7565b50846101df8161062f565b955050610137565b80156102e65760006101fa8560016104b6565b90505b60128110156102a557600087828151811061022857634e487b7160e01b600052603260045260246000fd5b016020015160f81c905060308110801590610244575060398111155b1561028757610254603082610601565b61025f8a600a6105e2565b61026991906104b6565b9850846102758161062f565b955050838061028390610618565b9450505b8361029257506102a5565b508061029d8161062f565b9150506101fd565b5060028310156102e65760006102bc846002610601565b905060006102cb82600a610514565b90506102d7818a6105e2565b985050505050505050506102ed565b5050505050505b919050565b606060006102ff8361008b565b90506060610168821015801561031757506101908211155b156103425750604080518082019091526009815268195e18d95b1b195b9d60ba1b60208201526103b2565b6101408210158015610355575061016882105b1561037b575060408051808201909152600481526319dbdbd960e21b60208201526103b2565b60fa821015801561038d575061014082105b156103b257506040805180820190915260078152666176656761646560c81b60208201525b9392505050565b6000602082840312156103ca578081fd5b813567ffffffffffffffff808211156103e1578283fd5b818401915084601f8301126103f4578283fd5b81358181111561040657610406610660565b604051601f8201601f19908116603f0116810190838211818310171561042e5761042e610660565b81604052828152876020848701011115610446578586fd5b826020860160208301379182016020019490945295945050505050565b6000602080835283518082850152825b8181101561048f57858101830151858201604001528201610473565b818111156104a05783604083870101525b50601f01601f1916929092016040019392505050565b600082198211156104c9576104c961064a565b500190565b80825b60018086116104e0575061050b565b8187048211156104f2576104f261064a565b808616156104ff57918102915b9490941c9380026104d1565b94509492505050565b60006103b2600019848460008261052d575060016103b2565b8161053a575060006103b2565b8160018114610550576002811461055a57610587565b60019150506103b2565b60ff84111561056b5761056b61064a565b6001841b9150848211156105815761058161064a565b506103b2565b5060208310610133831016604e8410600b84101617156105ba575081810a838111156105b5576105b561064a565b6103b2565b6105c784848460016104ce565b8086048211156105d9576105d961064a565b02949350505050565b60008160001904831182151516156105fc576105fc61064a565b500290565b6000828210156106135761061361064a565b500390565b6000816106275761062761064a565b506000190190565b60006000198214156106435761064361064a565b5060010190565b634e487b7160e01b600052601160045260246000fd5b634e487b7160e01b600052604160045260246000fdfea26469706673582212209a09e69aba08c07881304f534eeebbab27ec478af585f5cd248416d1536b523664736f6c63430008030033",
  "immutableReferences": {},
  "source": "// SPDX-License-Identifier: MIT\npragma solidity >=0.7.0 <0.9.0;\n\nlibrary SetGrade{\n    function setGrade(string memory _cpa) public pure returns (string memory){\n        uint temp = stringToUint(_cpa);\n        string memory _grade;\n        if (temp >= 360 && temp <= 400) {\n            _grade = \"excellent\";\n        } else if ( temp >= 320 && temp < 360) {\n            _grade = \"good\";\n        } else if (temp >= 250 && temp < 320){\n            _grade = \"avegade\";\n        }\n        \n        return _grade;\n    }\n    \n    \n    function stringToUint(string memory _amount) public pure returns (uint result) {\n        bytes memory b = bytes(_amount);\n        uint i;\n        uint counterBeforeDot;\n        uint counterAfterDot;\n        result = 0;\n        uint totNum = b.length;\n        totNum--;\n        bool hasDot = false;\n        \n        \n        //trng hp khng c du\n        if(b.length == 1){\n            uint c = uint(uint8(b[0]));\n            if (c >= 48 && c <= 57) {\n                result = result * 10 + (c - 48);\n                return result *100;\n            }\n        }\n    \n        for (i = 0; i < b.length; i++) {\n            uint c = uint(uint8(b[i]));\n    \n            if (c >= 48 && c <= 57) {\n                result = result * 10 + (c - 48);\n                counterBeforeDot ++;\n                totNum--;\n            }\n    \n            if(c == 46){\n                hasDot = true;\n                break;\n            }\n        }\n    \n        if(hasDot) {\n            for (uint j = counterBeforeDot + 1; j < 18; j++) {\n                uint m = uint(uint8(b[j]));\n    \n                if (m >= 48 && m <= 57) {\n                    result = result * 10 + (m - 48);\n                    counterAfterDot ++;\n                    totNum--;\n                }\n    \n                if(totNum == 0){\n                    break;\n                }\n            }\n            if(counterAfterDot < 2){\n                uint addNum = 2 - counterAfterDot;\n                uint multuply = 10 ** addNum;\n                return result = result * multuply; \n            }\n        }\n        \n        return result;\n    }\n}",
  "sourcePath": "/Users/hughdo/Desktop/Proj/CertVerificationSystem/contracts/SetGrade.sol",
  "compiler": {
    "name": "solc",
    "version": "0.8.3+commit.8d00100c.Emscripten.clang"
  },
  "schemaVersion": "3.3.4",
  "updatedAt": "2021-04-14T05:59:08.733Z",
  "devdoc": {
    "kind": "dev",
    "methods": {},
    "version": 1
  },
  "userdoc": {
    "kind": "user",
    "methods": {},
    "version": 1
  }
}