{
  "contractName": "SetGrade",
  "abi": [
    {
      "inputs": [
        {
          "internalType": "string",
          "name": "_cpa",
          "type": "string"
        }
      ],
      "name": "setGrade",
      "outputs": [
        {
          "internalType": "string",
          "name": "",
          "type": "string"
        }
      ],
      "stateMutability": "pure",
      "type": "function",
      "constant": true
    },
    {
      "inputs": [
        {
          "internalType": "string",
          "name": "_amount",
          "type": "string"
        }
      ],
      "name": "stringToUint",
      "outputs": [
        {
          "internalType": "uint256",
          "name": "result",
          "type": "uint256"
        }
      ],
      "stateMutability": "pure",
      "type": "function",
      "constant": true
    }
  ],
  "bytecode": "0x6106ab61003a600b82828239805160001a60731461002d57634e487b7160e01b600052600060045260246000fd5b30600052607381538281f3fe73000000000000000000000000000000000000000030146080604052600436106100405760003560e01c80631bd951551461004557806397678ad51461006b575b600080fd5b6100586100533660046103b8565b61008b565b6040519081526020015b60405180910390f35b61007e6100793660046103b8565b6102f2565b6040516100629190610462565b80516000908290829081908190806100a281610617565b9150506000855160011415610132576000866000815181106100d457634e487b7160e01b600052603260045260246000fd5b016020015160f81c9050603081108015906100f0575060398111155b1561013057610100603082610600565b61010b89600a6105e1565b61011591906104b5565b97506101228860646105e1565b9750505050505050506102ed565b505b600094505b85518510156101e757600086868151811061016257634e487b7160e01b600052603260045260246000fd5b016020015160f81c90506030811080159061017e575060398111155b156101c15761018e603082610600565b61019989600a6105e1565b6101a391906104b5565b9750846101af8161062e565b95505082806101bd90610617565b9350505b80602e14156101d45760019150506101e7565b50846101df8161062e565b955050610137565b80156102e65760006101fa8560016104b5565b90505b60128110156102a557600087828151811061022857634e487b7160e01b600052603260045260246000fd5b016020015160f81c905060308110801590610244575060398111155b1561028757610254603082610600565b61025f8a600a6105e1565b61026991906104b5565b9850846102758161062e565b955050838061028390610617565b9450505b8361029257506102a5565b508061029d8161062e565b9150506101fd565b5060028310156102e65760006102bc846002610600565b905060006102cb82600a610513565b90506102d7818a6105e1565b985050505050505050506102ed565b5050505050505b919050565b606060006102ff8361008b565b90506060610168821015801561031757506101908211155b156103425750604080518082019091526009815268115e18d95b1b195b9d60ba1b60208201526103b1565b6101408210158015610355575061016882105b1561037b575060408051808201909152600481526311dbdbd960e21b60208201526103b1565b60fa821015801561038d575061014082105b156103b1575060408051808201909152600681526510dc99591a5d60d21b60208201525b9392505050565b6000602082840312156103c9578081fd5b813567ffffffffffffffff808211156103e0578283fd5b818401915084601f8301126103f3578283fd5b8135818111156104055761040561065f565b604051601f8201601f19908116603f0116810190838211818310171561042d5761042d61065f565b81604052828152876020848701011115610445578586fd5b826020860160208301379182016020019490945295945050505050565b6000602080835283518082850152825b8181101561048e57858101830151858201604001528201610472565b8181111561049f5783604083870101525b50601f01601f1916929092016040019392505050565b600082198211156104c8576104c8610649565b500190565b80825b60018086116104df575061050a565b8187048211156104f1576104f1610649565b808616156104fe57918102915b9490941c9380026104d0565b94509492505050565b60006103b1600019848460008261052c575060016103b1565b81610539575060006103b1565b816001811461054f576002811461055957610586565b60019150506103b1565b60ff84111561056a5761056a610649565b6001841b91508482111561058057610580610649565b506103b1565b5060208310610133831016604e8410600b84101617156105b9575081810a838111156105b4576105b4610649565b6103b1565b6105c684848460016104cd565b8086048211156105d8576105d8610649565b02949350505050565b60008160001904831182151516156105fb576105fb610649565b500290565b60008282101561061257610612610649565b500390565b60008161062657610626610649565b506000190190565b600060001982141561064257610642610649565b5060010190565b634e487b7160e01b600052601160045260246000fd5b634e487b7160e01b600052604160045260246000fdfea2646970667358221220c08f89323644c08134b601e7493655b0106fd3f441040a8450d078fdcb90910864736f6c63430008030033",
  "immutableReferences": {},
  "source": "// SPDX-License-Identifier: MIT\npragma solidity >=0.7.0 <0.9.0;\n\nlibrary SetGrade{\n    function setGrade(string memory _cpa) public pure returns (string memory){\n        uint temp = stringToUint(_cpa);\n        string memory _grade;\n        if (temp >= 360 && temp <= 400) {\n            _grade = \"Excellent\";\n        } else if ( temp >= 320 && temp < 360) {\n            _grade = \"Good\";\n        } else if (temp >= 250 && temp < 320){\n            _grade = \"Credit\";\n        }\n\n        return _grade;\n    }\n\n\n    function stringToUint(string memory _amount) public pure returns (uint result) {\n        bytes memory b = bytes(_amount);\n        uint i;\n        uint counterBeforeDot;\n        uint counterAfterDot;\n        result = 0;\n        uint totNum = b.length;\n        totNum--;\n        bool hasDot = false;\n\n\n        //trng hp khng c du\n        if(b.length == 1){\n            uint c = uint(uint8(b[0]));\n            if (c >= 48 && c <= 57) {\n                result = result * 10 + (c - 48);\n                return result *100;\n            }\n        }\n\n        for (i = 0; i < b.length; i++) {\n            uint c = uint(uint8(b[i]));\n\n            if (c >= 48 && c <= 57) {\n                result = result * 10 + (c - 48);\n                counterBeforeDot ++;\n                totNum--;\n            }\n\n            if(c == 46){\n                hasDot = true;\n                break;\n            }\n        }\n\n        if(hasDot) {\n            for (uint j = counterBeforeDot + 1; j < 18; j++) {\n                uint m = uint(uint8(b[j]));\n\n                if (m >= 48 && m <= 57) {\n                    result = result * 10 + (m - 48);\n                    counterAfterDot ++;\n                    totNum--;\n                }\n\n                if(totNum == 0){\n                    break;\n                }\n            }\n            if(counterAfterDot < 2){\n                uint addNum = 2 - counterAfterDot;\n                uint multuply = 10 ** addNum;\n                return result = result * multuply;\n            }\n        }\n\n        return result;\n    }\n}\n",
  "sourcePath": "/Users/hughdo/Desktop/Proj/CertVerificationSystem/contracts/SetGrade.sol",
  "compiler": {
    "name": "solc",
    "version": "0.8.3+commit.8d00100c.Emscripten.clang"
  },
  "schemaVersion": "3.3.4",
  "updatedAt": "2021-06-14T18:11:12.969Z",
  "networkType": "ethereum",
  "devdoc": {
    "kind": "dev",
    "methods": {},
    "version": 1
  },
  "userdoc": {
    "kind": "user",
    "methods": {},
    "version": 1
  }
}