{
  "contractName": "User",
  "abi": [
    {
      "inputs": [],
      "stateMutability": "nonpayable",
      "type": "constructor"
    },
    {
      "inputs": [],
      "name": "currentRectorAddress",
      "outputs": [
        {
          "internalType": "address",
          "name": "",
          "type": "address"
        }
      ],
      "stateMutability": "view",
      "type": "function",
      "constant": true
    },
    {
      "inputs": [],
      "name": "getCurrentUserRole",
      "outputs": [
        {
          "components": [
            {
              "internalType": "string",
              "name": "id",
              "type": "string"
            },
            {
              "internalType": "string",
              "name": "name",
              "type": "string"
            }
          ],
          "internalType": "struct Model.role",
          "name": "",
          "type": "tuple"
        }
      ],
      "stateMutability": "view",
      "type": "function",
      "constant": true
    },
    {
      "inputs": [
        {
          "internalType": "address",
          "name": "_addr",
          "type": "address"
        }
      ],
      "name": "getCurrentUserRoleByAddr",
      "outputs": [
        {
          "components": [
            {
              "internalType": "string",
              "name": "id",
              "type": "string"
            },
            {
              "internalType": "string",
              "name": "name",
              "type": "string"
            }
          ],
          "internalType": "struct Model.role",
          "name": "",
          "type": "tuple"
        }
      ],
      "stateMutability": "view",
      "type": "function",
      "constant": true
    },
    {
      "inputs": [],
      "name": "getCurrentUser",
      "outputs": [
        {
          "components": [
            {
              "internalType": "string",
              "name": "name",
              "type": "string"
            },
            {
              "internalType": "string",
              "name": "date",
              "type": "string"
            },
            {
              "internalType": "string",
              "name": "phone",
              "type": "string"
            },
            {
              "internalType": "string",
              "name": "term",
              "type": "string"
            }
          ],
          "internalType": "struct Model.rector",
          "name": "",
          "type": "tuple"
        },
        {
          "components": [
            {
              "internalType": "string",
              "name": "name",
              "type": "string"
            },
            {
              "internalType": "string",
              "name": "date",
              "type": "string"
            },
            {
              "internalType": "string",
              "name": "phone",
              "type": "string"
            },
            {
              "internalType": "bool",
              "name": "isActive",
              "type": "bool"
            }
          ],
          "internalType": "struct Model.AADUser",
          "name": "",
          "type": "tuple"
        },
        {
          "components": [
            {
              "internalType": "string",
              "name": "id",
              "type": "string"
            },
            {
              "internalType": "string",
              "name": "name",
              "type": "string"
            },
            {
              "internalType": "string",
              "name": "email",
              "type": "string"
            },
            {
              "internalType": "string",
              "name": "date",
              "type": "string"
            },
            {
              "internalType": "string",
              "name": "phone",
              "type": "string"
            },
            {
              "internalType": "string",
              "name": "class",
              "type": "string"
            },
            {
              "internalType": "string",
              "name": "major",
              "type": "string"
            },
            {
              "internalType": "string",
              "name": "cpa",
              "type": "string"
            },
            {
              "internalType": "bool",
              "name": "qualifiedForGraduation",
              "type": "bool"
            },
            {
              "internalType": "bool",
              "name": "isActive",
              "type": "bool"
            },
            {
              "internalType": "uint256",
              "name": "nonce",
              "type": "uint256"
            }
          ],
          "internalType": "struct Model.student",
          "name": "",
          "type": "tuple"
        },
        {
          "components": [
            {
              "internalType": "uint256",
              "name": "id",
              "type": "uint256"
            },
            {
              "internalType": "string",
              "name": "name",
              "type": "string"
            },
            {
              "internalType": "string",
              "name": "description",
              "type": "string"
            },
            {
              "internalType": "string",
              "name": "jobInfo",
              "type": "string"
            },
            {
              "internalType": "bool",
              "name": "isActive",
              "type": "bool"
            }
          ],
          "internalType": "struct Model.company",
          "name": "",
          "type": "tuple"
        }
      ],
      "stateMutability": "view",
      "type": "function",
      "constant": true
    },
    {
      "inputs": [],
      "name": "getCurrentRector",
      "outputs": [
        {
          "components": [
            {
              "internalType": "string",
              "name": "name",
              "type": "string"
            },
            {
              "internalType": "string",
              "name": "date",
              "type": "string"
            },
            {
              "internalType": "string",
              "name": "phone",
              "type": "string"
            },
            {
              "internalType": "string",
              "name": "term",
              "type": "string"
            }
          ],
          "internalType": "struct Model.rector",
          "name": "",
          "type": "tuple"
        }
      ],
      "stateMutability": "view",
      "type": "function",
      "constant": true
    },
    {
      "inputs": [
        {
          "internalType": "address",
          "name": "_newRectorAddr",
          "type": "address"
        },
        {
          "internalType": "string",
          "name": "_name",
          "type": "string"
        },
        {
          "internalType": "string",
          "name": "_date",
          "type": "string"
        },
        {
          "internalType": "string",
          "name": "_phone",
          "type": "string"
        },
        {
          "internalType": "string",
          "name": "_term",
          "type": "string"
        }
      ],
      "name": "createNewRector",
      "outputs": [],
      "stateMutability": "nonpayable",
      "type": "function"
    },
    {
      "inputs": [
        {
          "internalType": "string",
          "name": "_name",
          "type": "string"
        },
        {
          "internalType": "string",
          "name": "_date",
          "type": "string"
        },
        {
          "internalType": "string",
          "name": "_phone",
          "type": "string"
        },
        {
          "internalType": "string",
          "name": "_term",
          "type": "string"
        }
      ],
      "name": "updateCurrentRector",
      "outputs": [],
      "stateMutability": "nonpayable",
      "type": "function"
    },
    {
      "inputs": [],
      "name": "getAADepartmentAcc",
      "outputs": [
        {
          "components": [
            {
              "internalType": "string",
              "name": "realAddress",
              "type": "string"
            },
            {
              "internalType": "string",
              "name": "description",
              "type": "string"
            }
          ],
          "internalType": "struct Model.AADepartment",
          "name": "",
          "type": "tuple"
        }
      ],
      "stateMutability": "view",
      "type": "function",
      "constant": true
    },
    {
      "inputs": [
        {
          "internalType": "address",
          "name": "_address",
          "type": "address"
        },
        {
          "internalType": "string",
          "name": "_name",
          "type": "string"
        },
        {
          "internalType": "string",
          "name": "_date",
          "type": "string"
        },
        {
          "internalType": "string",
          "name": "_phone",
          "type": "string"
        }
      ],
      "name": "createAADepartmentUser",
      "outputs": [],
      "stateMutability": "nonpayable",
      "type": "function"
    },
    {
      "inputs": [
        {
          "internalType": "string",
          "name": "_name",
          "type": "string"
        },
        {
          "internalType": "string",
          "name": "_date",
          "type": "string"
        },
        {
          "internalType": "string",
          "name": "_phone",
          "type": "string"
        }
      ],
      "name": "updateAADepartmentUser",
      "outputs": [],
      "stateMutability": "nonpayable",
      "type": "function"
    },
    {
      "inputs": [
        {
          "internalType": "uint256",
          "name": "_AADUserId",
          "type": "uint256"
        }
      ],
      "name": "deactiveAADepartmentUser",
      "outputs": [],
      "stateMutability": "nonpayable",
      "type": "function"
    },
    {
      "inputs": [
        {
          "internalType": "address",
          "name": "_userAddress",
          "type": "address"
        }
      ],
      "name": "getAADepartmentUser",
      "outputs": [
        {
          "components": [
            {
              "internalType": "string",
              "name": "name",
              "type": "string"
            },
            {
              "internalType": "string",
              "name": "date",
              "type": "string"
            },
            {
              "internalType": "string",
              "name": "phone",
              "type": "string"
            },
            {
              "internalType": "bool",
              "name": "isActive",
              "type": "bool"
            }
          ],
          "internalType": "struct Model.AADUser",
          "name": "",
          "type": "tuple"
        }
      ],
      "stateMutability": "view",
      "type": "function",
      "constant": true
    },
    {
      "inputs": [],
      "name": "getAllAADepartmentUsers",
      "outputs": [
        {
          "components": [
            {
              "internalType": "string",
              "name": "name",
              "type": "string"
            },
            {
              "internalType": "string",
              "name": "date",
              "type": "string"
            },
            {
              "internalType": "string",
              "name": "phone",
              "type": "string"
            },
            {
              "internalType": "bool",
              "name": "isActive",
              "type": "bool"
            }
          ],
          "internalType": "struct Model.AADUser[]",
          "name": "",
          "type": "tuple[]"
        }
      ],
      "stateMutability": "view",
      "type": "function",
      "constant": true
    },
    {
      "inputs": [
        {
          "internalType": "string",
          "name": "_id",
          "type": "string"
        },
        {
          "internalType": "string",
          "name": "_name",
          "type": "string"
        },
        {
          "internalType": "string",
          "name": "_email",
          "type": "string"
        },
        {
          "internalType": "string",
          "name": "_date",
          "type": "string"
        },
        {
          "internalType": "string",
          "name": "_phone",
          "type": "string"
        },
        {
          "internalType": "string",
          "name": "_class",
          "type": "string"
        },
        {
          "internalType": "string",
          "name": "_major",
          "type": "string"
        },
        {
          "internalType": "string",
          "name": "_cpa",
          "type": "string"
        },
        {
          "internalType": "bool",
          "name": "_qualifiedForGraduation",
          "type": "bool"
        }
      ],
      "name": "createStudent",
      "outputs": [],
      "stateMutability": "nonpayable",
      "type": "function"
    },
    {
      "inputs": [
        {
          "components": [
            {
              "internalType": "string",
              "name": "id",
              "type": "string"
            },
            {
              "internalType": "string",
              "name": "name",
              "type": "string"
            },
            {
              "internalType": "string",
              "name": "email",
              "type": "string"
            },
            {
              "internalType": "string",
              "name": "date",
              "type": "string"
            },
            {
              "internalType": "string",
              "name": "phone",
              "type": "string"
            },
            {
              "internalType": "string",
              "name": "class",
              "type": "string"
            },
            {
              "internalType": "string",
              "name": "major",
              "type": "string"
            },
            {
              "internalType": "string",
              "name": "cpa",
              "type": "string"
            },
            {
              "internalType": "bool",
              "name": "qualifiedForGraduation",
              "type": "bool"
            },
            {
              "internalType": "bool",
              "name": "isActive",
              "type": "bool"
            },
            {
              "internalType": "uint256",
              "name": "nonce",
              "type": "uint256"
            }
          ],
          "internalType": "struct Model.student[]",
          "name": "students",
          "type": "tuple[]"
        }
      ],
      "name": "importStudent",
      "outputs": [],
      "stateMutability": "nonpayable",
      "type": "function"
    },
    {
      "inputs": [
        {
          "internalType": "string",
          "name": "_id",
          "type": "string"
        },
        {
          "internalType": "uint256",
          "name": "_nonce",
          "type": "uint256"
        }
      ],
      "name": "activeStudent",
      "outputs": [],
      "stateMutability": "nonpayable",
      "type": "function"
    },
    {
      "inputs": [],
      "name": "getAllStudent",
      "outputs": [
        {
          "components": [
            {
              "internalType": "string",
              "name": "id",
              "type": "string"
            },
            {
              "internalType": "string",
              "name": "name",
              "type": "string"
            },
            {
              "internalType": "string",
              "name": "email",
              "type": "string"
            },
            {
              "internalType": "string",
              "name": "date",
              "type": "string"
            },
            {
              "internalType": "string",
              "name": "phone",
              "type": "string"
            },
            {
              "internalType": "string",
              "name": "class",
              "type": "string"
            },
            {
              "internalType": "string",
              "name": "major",
              "type": "string"
            },
            {
              "internalType": "string",
              "name": "cpa",
              "type": "string"
            },
            {
              "internalType": "bool",
              "name": "qualifiedForGraduation",
              "type": "bool"
            },
            {
              "internalType": "bool",
              "name": "isActive",
              "type": "bool"
            },
            {
              "internalType": "uint256",
              "name": "nonce",
              "type": "uint256"
            }
          ],
          "internalType": "struct Model.student[]",
          "name": "",
          "type": "tuple[]"
        }
      ],
      "stateMutability": "view",
      "type": "function",
      "constant": true
    },
    {
      "inputs": [
        {
          "internalType": "string",
          "name": "_id",
          "type": "string"
        }
      ],
      "name": "getStudentById",
      "outputs": [
        {
          "components": [
            {
              "internalType": "string",
              "name": "id",
              "type": "string"
            },
            {
              "internalType": "string",
              "name": "name",
              "type": "string"
            },
            {
              "internalType": "string",
              "name": "email",
              "type": "string"
            },
            {
              "internalType": "string",
              "name": "date",
              "type": "string"
            },
            {
              "internalType": "string",
              "name": "phone",
              "type": "string"
            },
            {
              "internalType": "string",
              "name": "class",
              "type": "string"
            },
            {
              "internalType": "string",
              "name": "major",
              "type": "string"
            },
            {
              "internalType": "string",
              "name": "cpa",
              "type": "string"
            },
            {
              "internalType": "bool",
              "name": "qualifiedForGraduation",
              "type": "bool"
            },
            {
              "internalType": "bool",
              "name": "isActive",
              "type": "bool"
            },
            {
              "internalType": "uint256",
              "name": "nonce",
              "type": "uint256"
            }
          ],
          "internalType": "struct Model.student",
          "name": "",
          "type": "tuple"
        }
      ],
      "stateMutability": "view",
      "type": "function",
      "constant": true
    },
    {
      "inputs": [
        {
          "internalType": "address",
          "name": "_studentAddr",
          "type": "address"
        }
      ],
      "name": "getStudentByAddr",
      "outputs": [
        {
          "components": [
            {
              "internalType": "string",
              "name": "id",
              "type": "string"
            },
            {
              "internalType": "string",
              "name": "name",
              "type": "string"
            },
            {
              "internalType": "string",
              "name": "email",
              "type": "string"
            },
            {
              "internalType": "string",
              "name": "date",
              "type": "string"
            },
            {
              "internalType": "string",
              "name": "phone",
              "type": "string"
            },
            {
              "internalType": "string",
              "name": "class",
              "type": "string"
            },
            {
              "internalType": "string",
              "name": "major",
              "type": "string"
            },
            {
              "internalType": "string",
              "name": "cpa",
              "type": "string"
            },
            {
              "internalType": "bool",
              "name": "qualifiedForGraduation",
              "type": "bool"
            },
            {
              "internalType": "bool",
              "name": "isActive",
              "type": "bool"
            },
            {
              "internalType": "uint256",
              "name": "nonce",
              "type": "uint256"
            }
          ],
          "internalType": "struct Model.student",
          "name": "",
          "type": "tuple"
        }
      ],
      "stateMutability": "view",
      "type": "function",
      "constant": true
    },
    {
      "inputs": [
        {
          "internalType": "string",
          "name": "_id",
          "type": "string"
        }
      ],
      "name": "getStudentNonce",
      "outputs": [
        {
          "internalType": "uint256",
          "name": "",
          "type": "uint256"
        }
      ],
      "stateMutability": "view",
      "type": "function",
      "constant": true
    },
    {
      "inputs": [
        {
          "internalType": "string",
          "name": "_currentId",
          "type": "string"
        },
        {
          "internalType": "string",
          "name": "_id",
          "type": "string"
        },
        {
          "internalType": "string",
          "name": "_name",
          "type": "string"
        },
        {
          "internalType": "string",
          "name": "_email",
          "type": "string"
        },
        {
          "internalType": "string",
          "name": "_date",
          "type": "string"
        },
        {
          "internalType": "string",
          "name": "_phone",
          "type": "string"
        },
        {
          "internalType": "string",
          "name": "_class",
          "type": "string"
        },
        {
          "internalType": "string",
          "name": "_major",
          "type": "string"
        },
        {
          "internalType": "string",
          "name": "_cpa",
          "type": "string"
        },
        {
          "internalType": "bool",
          "name": "_qualifiedForGraduation",
          "type": "bool"
        }
      ],
      "name": "updateStudentbyAAD",
      "outputs": [],
      "stateMutability": "nonpayable",
      "type": "function"
    },
    {
      "inputs": [
        {
          "internalType": "string",
          "name": "_email",
          "type": "string"
        },
        {
          "internalType": "string",
          "name": "_phone",
          "type": "string"
        }
      ],
      "name": "updateStudentInfo",
      "outputs": [],
      "stateMutability": "nonpayable",
      "type": "function"
    },
    {
      "inputs": [],
      "name": "getQualifiedStudents",
      "outputs": [
        {
          "components": [
            {
              "internalType": "string",
              "name": "id",
              "type": "string"
            },
            {
              "internalType": "string",
              "name": "name",
              "type": "string"
            },
            {
              "internalType": "string",
              "name": "email",
              "type": "string"
            },
            {
              "internalType": "string",
              "name": "date",
              "type": "string"
            },
            {
              "internalType": "string",
              "name": "phone",
              "type": "string"
            },
            {
              "internalType": "string",
              "name": "class",
              "type": "string"
            },
            {
              "internalType": "string",
              "name": "major",
              "type": "string"
            },
            {
              "internalType": "string",
              "name": "cpa",
              "type": "string"
            },
            {
              "internalType": "bool",
              "name": "qualifiedForGraduation",
              "type": "bool"
            },
            {
              "internalType": "bool",
              "name": "isActive",
              "type": "bool"
            },
            {
              "internalType": "uint256",
              "name": "nonce",
              "type": "uint256"
            }
          ],
          "internalType": "struct Model.student[]",
          "name": "",
          "type": "tuple[]"
        }
      ],
      "stateMutability": "view",
      "type": "function",
      "constant": true
    },
    {
      "inputs": [
        {
          "internalType": "string",
          "name": "_name",
          "type": "string"
        },
        {
          "internalType": "string",
          "name": "_description",
          "type": "string"
        }
      ],
      "name": "createCompany",
      "outputs": [],
      "stateMutability": "nonpayable",
      "type": "function"
    },
    {
      "inputs": [
        {
          "internalType": "uint256",
          "name": "_companyId",
          "type": "uint256"
        }
      ],
      "name": "approveCompany",
      "outputs": [],
      "stateMutability": "nonpayable",
      "type": "function"
    },
    {
      "inputs": [
        {
          "internalType": "string",
          "name": "_name",
          "type": "string"
        },
        {
          "internalType": "string",
          "name": "_description",
          "type": "string"
        },
        {
          "internalType": "string",
          "name": "_jobInfo",
          "type": "string"
        }
      ],
      "name": "updateCompany",
      "outputs": [],
      "stateMutability": "nonpayable",
      "type": "function"
    },
    {
      "inputs": [
        {
          "internalType": "address",
          "name": "_companyAddr",
          "type": "address"
        }
      ],
      "name": "getCompanyByAddress",
      "outputs": [
        {
          "components": [
            {
              "internalType": "uint256",
              "name": "id",
              "type": "uint256"
            },
            {
              "internalType": "string",
              "name": "name",
              "type": "string"
            },
            {
              "internalType": "string",
              "name": "description",
              "type": "string"
            },
            {
              "internalType": "string",
              "name": "jobInfo",
              "type": "string"
            },
            {
              "internalType": "bool",
              "name": "isActive",
              "type": "bool"
            }
          ],
          "internalType": "struct Model.company",
          "name": "",
          "type": "tuple"
        }
      ],
      "stateMutability": "view",
      "type": "function",
      "constant": true
    },
    {
      "inputs": [
        {
          "internalType": "uint256",
          "name": "_companyId",
          "type": "uint256"
        }
      ],
      "name": "getCompanybyId",
      "outputs": [
        {
          "components": [
            {
              "internalType": "uint256",
              "name": "id",
              "type": "uint256"
            },
            {
              "internalType": "string",
              "name": "name",
              "type": "string"
            },
            {
              "internalType": "string",
              "name": "description",
              "type": "string"
            },
            {
              "internalType": "string",
              "name": "jobInfo",
              "type": "string"
            },
            {
              "internalType": "bool",
              "name": "isActive",
              "type": "bool"
            }
          ],
          "internalType": "struct Model.company",
          "name": "",
          "type": "tuple"
        }
      ],
      "stateMutability": "view",
      "type": "function",
      "constant": true
    },
    {
      "inputs": [],
      "name": "getAllCompany",
      "outputs": [
        {
          "components": [
            {
              "internalType": "uint256",
              "name": "id",
              "type": "uint256"
            },
            {
              "internalType": "string",
              "name": "name",
              "type": "string"
            },
            {
              "internalType": "string",
              "name": "description",
              "type": "string"
            },
            {
              "internalType": "string",
              "name": "jobInfo",
              "type": "string"
            },
            {
              "internalType": "bool",
              "name": "isActive",
              "type": "bool"
            }
          ],
          "internalType": "struct Model.company[]",
          "name": "",
          "type": "tuple[]"
        }
      ],
      "stateMutability": "view",
      "type": "function",
      "constant": true
    }
  ],
  "bytecode": "0x60806040523480156200001157600080fd5b506200001c62000239565b6200002662000431565b62000030620005e1565b604080516101a08101825260016101608201818152600360fc1b610180840152825282516020818101855260008083528185019290925284518082018652828152848601528451808201865282815260608501528451808201865282815260808501528451808201865282815260a08501528451808201865282815260c0850152845180820190955281855260e084019490945261010083018190526101208301819052610140830181905260108054928301815590528151805192938493600a9093027f1b6847dc741a1b0cd08d278845f9d819d87b734759afb55fe2de5cb82a9ae672019262000126928492019062000645565b50602082810151805162000141926001850192019062000645565b50604082015180516200015f91600284019160209091019062000645565b50606082015180516200017d91600384019160209091019062000645565b50608082015180516200019b91600484019160209091019062000645565b5060a08201518051620001b991600584019160209091019062000645565b5060c08201518051620001d791600684019160209091019062000645565b5060e08201518051620001f591600784019160209091019062000645565b506101008281015160088301805461012086015161ffff1990911692151561ff001916929092179115159092021790556101409091015160099091015550620007ac565b604080516080810182526001818301908152600360fc1b60608301528152815180830190925260068252653932b1ba37b960d11b6020808401919091528082019290925280518051919260009262000295928492019062000645565b506020828101518051620002b0926001850192019062000645565b5050604080516080810182526001818301908152603160f81b606083015281528151808301909252600c82526b105051195c185c9d1b595b9d60a21b6020808401919091528082019290925280518051919350600292620003179284929091019062000645565b50602082810151805162000332926001850192019062000645565b5050604080516080810182526001818301908152601960f91b60608301528152815180830190925260078252661cdd1d59195b9d60ca1b6020808401919091528082019290925280518051919350600492620003949284929091019062000645565b506020828101518051620003af926001850192019062000645565b5050604080516080810182526001818301908152603360f81b6060830152815281518083019092526007825266636f6d70616e7960c81b6020808401919091528082019290925280518051919350600692620004119284929091019062000645565b5060208281015180516200042c926001850192019062000645565b505050565b6200045d6040518060800160405280606081526020016060815260200160608152602001606081525090565b604080518082018252601581527f504753205453204e677579656e205669657420486100000000000000000000006020808301919091529083528151808301835260048152630c4e4dcd60e21b818301528382015281518083018352600a80825269181c9c1c989a99191a9960b11b8284015284840191909152825180840184526009815268199c9bdb480c8c0c4d60ba1b818401526060850152336000908152908252919091208251805184936200051b92849291019062000645565b50602082810151805162000536926001850192019062000645565b50604082015180516200055491600284019160209091019062000645565b50606082015180516200057291600384019160209091019062000645565b50503360009081526008602052604081208154919250908190839062000598906200076f565b620005a5929190620006d4565b506001820181600101908054620005bc906200076f565b620005c9929190620006d4565b5050600980546001600160a01b031916331790555050565b604051806060016040528060248152602001620056736024913980516200061191600b9160209091019062000645565b50604051806080016040528060608152602001620056976060913980516200064291600c9160209091019062000645565b50565b82805462000653906200076f565b90600052602060002090601f016020900481019282620006775760008555620006c2565b82601f106200069257805160ff1916838001178555620006c2565b82800160010185558215620006c2579182015b82811115620006c2578251825591602001919060010190620006a5565b50620006d092915062000758565b5090565b828054620006e2906200076f565b90600052602060002090601f016020900481019282620007065760008555620006c2565b82601f10620007195780548555620006c2565b82800160010185558215620006c257600052602060002091601f016020900482015b82811115620006c25782548255916001019190600101906200073b565b5b80821115620006d0576000815560010162000759565b600181811c908216806200078457607f821691505b60208210811415620007a657634e487b7160e01b600052602260045260246000fd5b50919050565b614eb780620007bc6000396000f3fe608060405234801561001057600080fd5b50600436106101cf5760003560e01c806393b3298c11610104578063c23fd5a6116100a2578063eed879eb11610071578063eed879eb14610400578063f117dd5b14610413578063f14513f214610426578063fc4a744214610439576101cf565b8063c23fd5a6146103a5578063c8059747146103b8578063cb452a69146103cd578063ed7ad826146103ed576101cf565b8063b174ba82116100de578063b174ba8214610357578063b4363ca31461036a578063ba8805f414610372578063bd2456c714610385576101cf565b806393b3298c146102f95780639ea97d2e14610319578063ad69d7b014610344576101cf565b80634b0875e91161017157806375957bc01161014b57806375957bc0146102a85780637a6e97c2146102b05780637d67d900146102c35780638cca2ec4146102e4576101cf565b80634b0875e91461026f5780635c6f2e08146102825780635d31900514610295576101cf565b80632644d28f116101ad5780632644d28f1461021c5780632764d61c1461022f578063388807cf1461024f57806343ae37c314610257576101cf565b80630d2393fd146101d4578063106e3ea6146101f2578063133d046014610207575b600080fd5b6101dc61044c565b6040516101e99190614c03565b60405180910390f35b61020561020036600461401e565b61067d565b005b61020f6108e5565b6040516101e99190614c57565b61020561022a3660046144d8565b610e35565b61024261023d366004613ffd565b6111a8565b6040516101e99190614cd1565b61024261130b565b61025f611460565b6040516101e99493929190614d0a565b61020561027d366004614409565b61194f565b610205610290366004614409565b6119e7565b6102056102a336600461416a565b611a5b565b610242611c36565b6102056102be36600461461f565b611c67565b6102d66102d136600461436f565b611fc8565b6040519081526020016101e9565b6102ec61205c565b6040516101e99190614ba2565b61030c610307366004613ffd565b61227a565b6040516101e99190614d62565b60095461032c906001600160a01b031681565b6040516001600160a01b0390911681526020016101e9565b6102056103523660046147cd565b6127a1565b61020561036536600461448c565b61284b565b61020f6128fe565b61020561038036600461478b565b612efc565b610398610393366004613ffd565b613098565b6040516101e99190614cbe565b6102056103b33660046143a9565b6132b4565b6103c06133c6565b6040516101e99190614cf7565b6103e06103db3660046147cd565b613664565b6040516101e99190614ce4565b61030c6103fb36600461436f565b61389e565b61020561040e3660046140b2565b6138e7565b6103e0610421366004613ffd565b613a76565b6102056104343660046143a9565b613af6565b6102056104473660046147cd565b613d62565b60606014805480602002602001604051908101604052809291908181526020016000905b8282101561067457838290600052602060002090600502016040518060a0016040529081600082015481526020016001820180546104ad90614dff565b80601f01602080910402602001604051908101604052809291908181526020018280546104d990614dff565b80156105265780601f106104fb57610100808354040283529160200191610526565b820191906000526020600020905b81548152906001019060200180831161050957829003601f168201915b5050505050815260200160028201805461053f90614dff565b80601f016020809104026020016040519081016040528092919081815260200182805461056b90614dff565b80156105b85780601f1061058d576101008083540402835291602001916105b8565b820191906000526020600020905b81548152906001019060200180831161059b57829003601f168201915b505050505081526020016003820180546105d190614dff565b80601f01602080910402602001604051908101604052809291908181526020018280546105fd90614dff565b801561064a5780601f1061061f5761010080835404028352916020019161064a565b820191906000526020600020905b81548152906001019060200180831161062d57829003601f168201915b50505091835250506004919091015460ff1615156020918201529082526001929092019101610470565b50505050905090565b6009546001600160a01b03163314806106ad5750336000908152600e602052604090206003015460ff1615156001145b6106b657600080fd5b6040805160008082526020808301808552835190206001600160a01b0389168352600890915290839020879391926106ee9201614abe565b604051602081830303815290604052805190602001201461070e57600080fd5b604080516080810182528581526020808201869052918101849052600160608201819052600d80549182018155600052815180519293849360049093027fd7b6990105719101dabeb77144f2a3385c8033acd3af97e9423a695e81ad1eb5019261077b9284920190613dfa565b5060208281015180516107949260018501920190613dfa565b50604082015180516107b0916002840191602090910190613dfa565b50606091909101516003909101805460ff1916911515919091179055600d548690600f906000906107e390600190614da5565b81526020808201929092526040908101600090812080546001600160a01b0319166001600160a01b039586161790559289168352600e8252909120825180518493610832928492910190613dfa565b50602082810151805161084b9260018501920190613dfa565b5060408201518051610867916002840191602090910190613dfa565b50606091909101516003909101805460ff19169115159190911790556001600160a01b038616600090815260086020526040902060028054909190819083906108af90614dff565b6108ba929190613e7e565b5060018201816001019080546108cf90614dff565b6108da929190613e7e565b505050505050505050565b6009546060906001600160a01b03163314806109185750336000908152600e602052604090206003015460ff1615156001145b61092157600080fd5b6010805480602002602001604051908101604052809291908181526020016000905b8282101561067457838290600052602060002090600a02016040518061016001604052908160008201805461097790614dff565b80601f01602080910402602001604051908101604052809291908181526020018280546109a390614dff565b80156109f05780601f106109c5576101008083540402835291602001916109f0565b820191906000526020600020905b8154815290600101906020018083116109d357829003601f168201915b50505050508152602001600182018054610a0990614dff565b80601f0160208091040260200160405190810160405280929190818152602001828054610a3590614dff565b8015610a825780601f10610a5757610100808354040283529160200191610a82565b820191906000526020600020905b815481529060010190602001808311610a6557829003601f168201915b50505050508152602001600282018054610a9b90614dff565b80601f0160208091040260200160405190810160405280929190818152602001828054610ac790614dff565b8015610b145780601f10610ae957610100808354040283529160200191610b14565b820191906000526020600020905b815481529060010190602001808311610af757829003601f168201915b50505050508152602001600382018054610b2d90614dff565b80601f0160208091040260200160405190810160405280929190818152602001828054610b5990614dff565b8015610ba65780601f10610b7b57610100808354040283529160200191610ba6565b820191906000526020600020905b815481529060010190602001808311610b8957829003601f168201915b50505050508152602001600482018054610bbf90614dff565b80601f0160208091040260200160405190810160405280929190818152602001828054610beb90614dff565b8015610c385780601f10610c0d57610100808354040283529160200191610c38565b820191906000526020600020905b815481529060010190602001808311610c1b57829003601f168201915b50505050508152602001600582018054610c5190614dff565b80601f0160208091040260200160405190810160405280929190818152602001828054610c7d90614dff565b8015610cca5780601f10610c9f57610100808354040283529160200191610cca565b820191906000526020600020905b815481529060010190602001808311610cad57829003601f168201915b50505050508152602001600682018054610ce390614dff565b80601f0160208091040260200160405190810160405280929190818152602001828054610d0f90614dff565b8015610d5c5780601f10610d3157610100808354040283529160200191610d5c565b820191906000526020600020905b815481529060010190602001808311610d3f57829003601f168201915b50505050508152602001600782018054610d7590614dff565b80601f0160208091040260200160405190810160405280929190818152602001828054610da190614dff565b8015610dee5780601f10610dc357610100808354040283529160200191610dee565b820191906000526020600020905b815481529060010190602001808311610dd157829003601f168201915b5050509183525050600882015460ff808216151560208085019190915261010090920416151560408301526009909201546060909101529082526001929092019101610943565b336000908152600e602052604090206003015460ff161515600114610e5957600080fd5b88604051602001610e6a9190614a7b565b60405160208183030381529060405280519060200120601060128b604051610e929190614a7b565b90815260200160405180910390205481548110610ebf57634e487b7160e01b600052603260045260246000fd5b90600052602060002090600a0201600001604051602001610ee09190614abe565b60405160208183030381529060405280519060200120141589604051602001610f099190614b59565b60405160208183030381529060405290610f3f5760405162461bcd60e51b8152600401610f369190614cab565b60405180910390fd5b5060006040518061016001604052808b81526020018a815260200189815260200188815260200187815260200186815260200185815260200184815260200183151581526020016000151581526020018b4244604051602001610fa493929190614a97565b60408051601f19818403018152919052805160209182012090915260108054600181018255600091909152825180519394508493600a9092027f1b6847dc741a1b0cd08d278845f9d819d87b734759afb55fe2de5cb82a9ae672019261100f92849290910190613dfa565b5060208281015180516110289260018501920190613dfa565b5060408201518051611044916002840191602090910190613dfa565b5060608201518051611060916003840191602090910190613dfa565b506080820151805161107c916004840191602090910190613dfa565b5060a08201518051611098916005840191602090910190613dfa565b5060c082015180516110b4916006840191602090910190613dfa565b5060e082015180516110d0916007840191602090910190613dfa565b506101008281015160088301805461012086015161ffff1990911692151561ff001916929092179115159092021790556101409091015160099091015560105461111c90600190614da5565b60128b60405161112c9190614a7b565b908152604051908190036020019020556010805461114c90600190614da5565b8154811061116a57634e487b7160e01b600052603260045260246000fd5b600091825260209091206008600a90920201015460ff161561119c576013805490600061119683614e3a565b91905055505b50505050505050505050565b60408051808201909152606080825260208201526001600160a01b03821660009081526008602052604080822081518083019092528054829082906111ec90614dff565b80601f016020809104026020016040519081016040528092919081815260200182805461121890614dff565b80156112655780601f1061123a57610100808354040283529160200191611265565b820191906000526020600020905b81548152906001019060200180831161124857829003601f168201915b5050505050815260200160018201805461127e90614dff565b80601f01602080910402602001604051908101604052809291908181526020018280546112aa90614dff565b80156112f75780601f106112cc576101008083540402835291602001916112f7565b820191906000526020600020905b8154815290600101906020018083116112da57829003601f168201915b50505091909252509193505050505b919050565b60408051808201909152606080825260208201523360009081526008602052604090819020815180830190925280548290829061134790614dff565b80601f016020809104026020016040519081016040528092919081815260200182805461137390614dff565b80156113c05780601f10611395576101008083540402835291602001916113c0565b820191906000526020600020905b8154815290600101906020018083116113a357829003601f168201915b505050505081526020016001820180546113d990614dff565b80601f016020809104026020016040519081016040528092919081815260200182805461140590614dff565b80156114525780601f1061142757610100808354040283529160200191611452565b820191906000526020600020905b81548152906001019060200180831161143557829003601f168201915b505050505081525050905090565b61148b6040518060800160405280606081526020016060815260200160608152602001606081525090565b6114b860405180608001604052806060815260200160608152602001606081526020016000151581525090565b6114c0613ef9565b6114f46040518060a00160405280600081526020016060815260200160608152602001606081526020016000151581525090565b604051600360fc1b602082015260210160408051601f19818403018152828252805160209182012033600090815260088352929092209192611537929101614abe565b6040516020818303038152906040528051906020012014156117e157336000818152600a602052604090209061156c90613098565b6115753361227a565b61157e33613a76565b8360405180608001604052908160008201805461159a90614dff565b80601f01602080910402602001604051908101604052809291908181526020018280546115c690614dff565b80156116135780601f106115e857610100808354040283529160200191611613565b820191906000526020600020905b8154815290600101906020018083116115f657829003601f168201915b5050505050815260200160018201805461162c90614dff565b80601f016020809104026020016040519081016040528092919081815260200182805461165890614dff565b80156116a55780601f1061167a576101008083540402835291602001916116a5565b820191906000526020600020905b81548152906001019060200180831161168857829003601f168201915b505050505081526020016002820180546116be90614dff565b80601f01602080910402602001604051908101604052809291908181526020018280546116ea90614dff565b80156117375780601f1061170c57610100808354040283529160200191611737565b820191906000526020600020905b81548152906001019060200180831161171a57829003601f168201915b5050505050815260200160038201805461175090614dff565b80601f016020809104026020016040519081016040528092919081815260200182805461177c90614dff565b80156117c95780601f1061179e576101008083540402835291602001916117c9565b820191906000526020600020905b8154815290600101906020018083116117ac57829003601f168201915b50505050508152505093509350935093509350611949565b604051603160f81b602082015260210160408051601f19818403018152828252805160209182012033600090815260088352929092209192611824929101614abe565b60405160208183030381529060405280519060200120141561185957336000818152600a602052604090209061156c90613098565b604051601960f91b602082015260210160408051601f1981840301815282825280516020918201203360009081526008835292909220919261189c929101614abe565b6040516020818303038152906040528051906020012014156118d157336000818152600a602052604090209061156c90613098565b604051603360f81b602082015260210160408051601f19818403018152828252805160209182012033600090815260088352929092209192611914929101614abe565b60405160208183030381529060405280519060200120141561194957336000818152600a602052604090209061156c90613098565b90919293565b336000908152600e602052604090206003015460ff16151560011461197357600080fd5b336000908152600e60209081526040909120845161199392860190613dfa565b50336000908152600e6020908152604090912083516119ba92600190920191850190613dfa565b50336000908152600e6020908152604090912082516119e192600290920191840190613dfa565b50505050565b3360009081526015602090815260409091208451611a0d92600190920191860190613dfa565b503360009081526015602090815260409091208351611a3492600290920191850190613dfa565b5033600090815260156020908152604090912082516119e192600390920191840190613dfa565b336000908152600e602052604090206003015460ff161515600114611a7f57600080fd5b60005b8151811015611c3257611c20828281518110611aae57634e487b7160e01b600052603260045260246000fd5b602002602001015160000151838381518110611ada57634e487b7160e01b600052603260045260246000fd5b602002602001015160200151848481518110611b0657634e487b7160e01b600052603260045260246000fd5b602002602001015160400151858581518110611b3257634e487b7160e01b600052603260045260246000fd5b602002602001015160600151868681518110611b5e57634e487b7160e01b600052603260045260246000fd5b602002602001015160800151878781518110611b8a57634e487b7160e01b600052603260045260246000fd5b602002602001015160a00151888881518110611bb657634e487b7160e01b600052603260045260246000fd5b602002602001015160c00151898981518110611be257634e487b7160e01b600052603260045260246000fd5b602002602001015160e001518a8a81518110611c0e57634e487b7160e01b600052603260045260246000fd5b60200260200101516101000151610e35565b80611c2a81614e3a565b915050611a82565b5050565b6040805180820190915260608082526020820152600b60405180604001604052908160008201805461134790614dff565b6009546001600160a01b0316331480611c975750336000908152600e602052604090206003015460ff1615156001145b611ca057600080fd5b6000601060128c604051611cb49190614a7b565b90815260200160405180910390205481548110611ce157634e487b7160e01b600052603260045260246000fd5b90600052602060002090600a0201905089604051602001611d029190614a7b565b604051602081830303815290604052805190602001208b604051602001611d299190614a7b565b6040516020818303038152906040528051906020012014611eb75789604051602001611d559190614a7b565b60405160208183030381529060405280519060200120601060128c604051611d7d9190614a7b565b90815260200160405180910390205481548110611daa57634e487b7160e01b600052603260045260246000fd5b90600052602060002090600a0201600001604051602001611dcb9190614abe565b6040516020818303038152906040528051906020012014158a604051602001611df49190614b59565b60405160208183030381529060405290611e215760405162461bcd60e51b8152600401610f369190614cab565b5060128b604051611e329190614a7b565b90815260200160405180910390205460128b604051611e519190614a7b565b90815260405190819003602001812091909155600360fc1b815260129060010190815260200160405180910390205460128c604051611e909190614a7b565b90815260405160209181900382019020919091558a51611eb5918391908d0190613dfa565b505b8851611ecc90600183019060208c0190613dfa565b508751611ee290600283019060208b0190613dfa565b508651611ef890600383019060208a0190613dfa565b508551611f0e9060048301906020890190613dfa565b508451611f249060058301906020880190613dfa565b508351611f3a9060068301906020870190613dfa565b508251611f509060078301906020860190613dfa565b50600881015460ff168015611f63575081155b15611f7e5760138054906000611f7883614de8565b91905055505b600881015460ff16158015611f905750815b15611fab5760138054906000611fa583614e3a565b91905055505b600801805460ff1916911515919091179055505050505050505050565b6009546000906001600160a01b0316331480611ffb5750336000908152600e602052604090206003015460ff1615156001145b61200457600080fd5b60106012836040516120169190614a7b565b9081526020016040518091039020548154811061204357634e487b7160e01b600052603260045260246000fd5b90600052602060002090600a0201600901549050919050565b6060600d805480602002602001604051908101604052809291908181526020016000905b8282101561067457838290600052602060002090600402016040518060800160405290816000820180546120b390614dff565b80601f01602080910402602001604051908101604052809291908181526020018280546120df90614dff565b801561212c5780601f106121015761010080835404028352916020019161212c565b820191906000526020600020905b81548152906001019060200180831161210f57829003601f168201915b5050505050815260200160018201805461214590614dff565b80601f016020809104026020016040519081016040528092919081815260200182805461217190614dff565b80156121be5780601f10612193576101008083540402835291602001916121be565b820191906000526020600020905b8154815290600101906020018083116121a157829003601f168201915b505050505081526020016002820180546121d790614dff565b80601f016020809104026020016040519081016040528092919081815260200182805461220390614dff565b80156122505780601f1061222557610100808354040283529160200191612250565b820191906000526020600020905b81548152906001019060200180831161223357829003601f168201915b50505091835250506003919091015460ff1615156020918201529082526001929092019101612080565b612282613ef9565b6001600160a01b0382166000908152601160205260408120546010805490919081106122be57634e487b7160e01b600052603260045260246000fd5b90600052602060002090600a0201604051806101600160405290816000820180546122e890614dff565b80601f016020809104026020016040519081016040528092919081815260200182805461231490614dff565b80156123615780601f1061233657610100808354040283529160200191612361565b820191906000526020600020905b81548152906001019060200180831161234457829003601f168201915b5050505050815260200160018201805461237a90614dff565b80601f01602080910402602001604051908101604052809291908181526020018280546123a690614dff565b80156123f35780601f106123c8576101008083540402835291602001916123f3565b820191906000526020600020905b8154815290600101906020018083116123d657829003601f168201915b5050505050815260200160028201805461240c90614dff565b80601f016020809104026020016040519081016040528092919081815260200182805461243890614dff565b80156124855780601f1061245a57610100808354040283529160200191612485565b820191906000526020600020905b81548152906001019060200180831161246857829003601f168201915b5050505050815260200160038201805461249e90614dff565b80601f01602080910402602001604051908101604052809291908181526020018280546124ca90614dff565b80156125175780601f106124ec57610100808354040283529160200191612517565b820191906000526020600020905b8154815290600101906020018083116124fa57829003601f168201915b5050505050815260200160048201805461253090614dff565b80601f016020809104026020016040519081016040528092919081815260200182805461255c90614dff565b80156125a95780601f1061257e576101008083540402835291602001916125a9565b820191906000526020600020905b81548152906001019060200180831161258c57829003601f168201915b505050505081526020016005820180546125c290614dff565b80601f01602080910402602001604051908101604052809291908181526020018280546125ee90614dff565b801561263b5780601f106126105761010080835404028352916020019161263b565b820191906000526020600020905b81548152906001019060200180831161261e57829003601f168201915b5050505050815260200160068201805461265490614dff565b80601f016020809104026020016040519081016040528092919081815260200182805461268090614dff565b80156126cd5780601f106126a2576101008083540402835291602001916126cd565b820191906000526020600020905b8154815290600101906020018083116126b057829003601f168201915b505050505081526020016007820180546126e690614dff565b80601f016020809104026020016040519081016040528092919081815260200182805461271290614dff565b801561275f5780601f106127345761010080835404028352916020019161275f565b820191906000526020600020905b81548152906001019060200180831161274257829003601f168201915b5050509183525050600882015460ff80821615156020840152610100909104161515604082015260099091015460609091015260006101408201529392505050565b6009546001600160a01b03163314806127d15750336000908152600e602052604090206003015460ff1615156001145b6127da57600080fd5b6000600d82815481106127fd57634e487b7160e01b600052603260045260246000fd5b6000918252602080832060036004909302018201805494151560ff19958616179055938252600f84526040808320546001600160a01b03168352600e90945292902090910180549091169055565b6009546001600160a01b0316331461286257600080fd5b336000908152600a60209081526040909120855161288292870190613dfa565b50336000908152600a6020908152604090912084516128a992600190920191860190613dfa565b50336000908152600a6020908152604090912083516128d092600290920191850190613dfa565b50336000908152600a6020908152604090912082516128f792600390920191840190613dfa565b5050505050565b606060006013546001600160401b0381111561292a57634e487b7160e01b600052604160045260246000fd5b60405190808252806020026020018201604052801561296357816020015b612950613ef9565b8152602001906001900390816129485790505b5090506000805b601054811015612ef4576010818154811061299557634e487b7160e01b600052603260045260246000fd5b600091825260209091206008600a90920201015460ff1615612ee257601081815481106129d257634e487b7160e01b600052603260045260246000fd5b90600052602060002090600a0201604051806101600160405290816000820180546129fc90614dff565b80601f0160208091040260200160405190810160405280929190818152602001828054612a2890614dff565b8015612a755780601f10612a4a57610100808354040283529160200191612a75565b820191906000526020600020905b815481529060010190602001808311612a5857829003601f168201915b50505050508152602001600182018054612a8e90614dff565b80601f0160208091040260200160405190810160405280929190818152602001828054612aba90614dff565b8015612b075780601f10612adc57610100808354040283529160200191612b07565b820191906000526020600020905b815481529060010190602001808311612aea57829003601f168201915b50505050508152602001600282018054612b2090614dff565b80601f0160208091040260200160405190810160405280929190818152602001828054612b4c90614dff565b8015612b995780601f10612b6e57610100808354040283529160200191612b99565b820191906000526020600020905b815481529060010190602001808311612b7c57829003601f168201915b50505050508152602001600382018054612bb290614dff565b80601f0160208091040260200160405190810160405280929190818152602001828054612bde90614dff565b8015612c2b5780601f10612c0057610100808354040283529160200191612c2b565b820191906000526020600020905b815481529060010190602001808311612c0e57829003601f168201915b50505050508152602001600482018054612c4490614dff565b80601f0160208091040260200160405190810160405280929190818152602001828054612c7090614dff565b8015612cbd5780601f10612c9257610100808354040283529160200191612cbd565b820191906000526020600020905b815481529060010190602001808311612ca057829003601f168201915b50505050508152602001600582018054612cd690614dff565b80601f0160208091040260200160405190810160405280929190818152602001828054612d0290614dff565b8015612d4f5780601f10612d2457610100808354040283529160200191612d4f565b820191906000526020600020905b815481529060010190602001808311612d3257829003601f168201915b50505050508152602001600682018054612d6890614dff565b80601f0160208091040260200160405190810160405280929190818152602001828054612d9490614dff565b8015612de15780601f10612db657610100808354040283529160200191612de1565b820191906000526020600020905b815481529060010190602001808311612dc457829003601f168201915b50505050508152602001600782018054612dfa90614dff565b80601f0160208091040260200160405190810160405280929190818152602001828054612e2690614dff565b8015612e735780601f10612e4857610100808354040283529160200191612e73565b820191906000526020600020905b815481529060010190602001808311612e5657829003601f168201915b5050509183525050600882015460ff8082161515602084015261010090910416151560408201526009909101546060909101528351849084908110612ec857634e487b7160e01b600052603260045260246000fd5b60200260200101819052508180612ede90614e3a565b9250505b80612eec81614e3a565b91505061296a565b509091505090565b6040805160008082526020808301808552835190203380845260089092529184902090939192612f2c9201614abe565b6040516020818303038152906040528051906020012014612f4c57600080fd5b6010601284604051612f5e9190614a7b565b90815260200160405180910390205481548110612f8b57634e487b7160e01b600052603260045260246000fd5b90600052602060002090600a0201600901548214612fa857600080fd5b601283604051612fb89190614a7b565b90815260408051918290036020908101832054336000908152601190925291902055600190601090601290612fee908790614a7b565b9081526020016040518091039020548154811061301b57634e487b7160e01b600052603260045260246000fd5b600091825260208083206008600a9390930201820180549415156101000261ff00199095169490941790935533825290915260409020600480549091908190839061306590614dff565b613070929190613e7e565b50600182018160010190805461308590614dff565b613090929190613e7e565b505050505050565b6130c560405180608001604052806060815260200160608152602001606081526020016000151581525090565b6001600160a01b0382166000908152600e6020526040908190208151608081019092528054829082906130f790614dff565b80601f016020809104026020016040519081016040528092919081815260200182805461312390614dff565b80156131705780601f1061314557610100808354040283529160200191613170565b820191906000526020600020905b81548152906001019060200180831161315357829003601f168201915b5050505050815260200160018201805461318990614dff565b80601f01602080910402602001604051908101604052809291908181526020018280546131b590614dff565b80156132025780601f106131d757610100808354040283529160200191613202565b820191906000526020600020905b8154815290600101906020018083116131e557829003601f168201915b5050505050815260200160028201805461321b90614dff565b80601f016020809104026020016040519081016040528092919081815260200182805461324790614dff565b80156132945780601f1061326957610100808354040283529160200191613294565b820191906000526020600020905b81548152906001019060200180831161327757829003601f168201915b50505091835250506003919091015460ff16151560209091015292915050565b336000908152601160205260409020546010805490919081106132e757634e487b7160e01b600052603260045260246000fd5b600091825260209091206008600a90920201015460ff61010090910416151560011461331257600080fd5b3360009081526011602052604090205460108054849290811061334557634e487b7160e01b600052603260045260246000fd5b90600052602060002090600a02016002019080519060200190613369929190613dfa565b503360009081526011602052604090205460108054839290811061339d57634e487b7160e01b600052603260045260246000fd5b90600052602060002090600a020160040190805190602001906133c1929190613dfa565b505050565b6133f16040518060800160405280606081526020016060815260200160608152602001606081525090565b6009546001600160a01b03166000908152600a602052604080822081516080810190925280548290829061342490614dff565b80601f016020809104026020016040519081016040528092919081815260200182805461345090614dff565b801561349d5780601f106134725761010080835404028352916020019161349d565b820191906000526020600020905b81548152906001019060200180831161348057829003601f168201915b505050505081526020016001820180546134b690614dff565b80601f01602080910402602001604051908101604052809291908181526020018280546134e290614dff565b801561352f5780601f106135045761010080835404028352916020019161352f565b820191906000526020600020905b81548152906001019060200180831161351257829003601f168201915b5050505050815260200160028201805461354890614dff565b80601f016020809104026020016040519081016040528092919081815260200182805461357490614dff565b80156135c15780601f10613596576101008083540402835291602001916135c1565b820191906000526020600020905b8154815290600101906020018083116135a457829003601f168201915b505050505081526020016003820180546135da90614dff565b80601f016020809104026020016040519081016040528092919081815260200182805461360690614dff565b80156136535780601f1061362857610100808354040283529160200191613653565b820191906000526020600020905b81548152906001019060200180831161363657829003601f168201915b505050919092525091935050505090565b6136986040518060a00160405280600081526020016060815260200160608152602001606081526020016000151581525090565b6000828152601660209081526040808320546001600160a01b0316835260158252808320815160a081019092528054825260018101805492939192918401916136e090614dff565b80601f016020809104026020016040519081016040528092919081815260200182805461370c90614dff565b80156137595780601f1061372e57610100808354040283529160200191613759565b820191906000526020600020905b81548152906001019060200180831161373c57829003601f168201915b5050505050815260200160028201805461377290614dff565b80601f016020809104026020016040519081016040528092919081815260200182805461379e90614dff565b80156137eb5780601f106137c0576101008083540402835291602001916137eb565b820191906000526020600020905b8154815290600101906020018083116137ce57829003601f168201915b5050505050815260200160038201805461380490614dff565b80601f016020809104026020016040519081016040528092919081815260200182805461383090614dff565b801561387d5780601f106138525761010080835404028352916020019161387d565b820191906000526020600020905b81548152906001019060200180831161386057829003601f168201915b50505091835250506004919091015460ff1615156020909101529392505050565b6138a6613ef9565b600060106012846040516138ba9190614a7b565b908152602001604051809103902054815481106122be57634e487b7160e01b600052603260045260246000fd5b6009546001600160a01b031633146138fe57600080fd5b6040805160008082526020808301808552835190206001600160a01b038a168352600890915290839020889391926139369201614abe565b604051602081830303815290604052805190602001201461395657600080fd5b604080516080810182528681526020808201879052818301869052606082018590526001600160a01b0389166000908152600a82529290922081518051929384936139a49284920190613dfa565b5060208281015180516139bd9260018501920190613dfa565b50604082015180516139d9916002840191602090910190613dfa565b50606082015180516139f5916003840191602090910190613dfa565b5050506001600160a01b0387166000908152600860205260408120815481908390613a1f90614dff565b613a2a929190613e7e565b506001820181600101908054613a3f90614dff565b613a4a929190613e7e565b5050600980546001600160a01b0319166001600160a01b03999099169890981790975550505050505050565b613aaa6040518060a00160405280600081526020016060815260200160608152602001606081526020016000151581525090565b600060156000846001600160a01b03166001600160a01b031681526020019081526020016000206040518060a0016040529081600082015481526020016001820180546136e090614dff565b6040805160008082526020808301808552835190203380845260089092529184902090939192613b269201614abe565b6040516020818303038152906040528051906020012014613b4657600080fd5b6040805160a081018252601480548083526020808401888152848601889052855180830190965260008087526060860196909652608085018690526001830184559290945282517fce6d7b5282bd9a3661ae061feed1dbda4e52ab073b1f9285be6e155d9c38d4ec60059092029182019081559151805193948594613bf1937fce6d7b5282bd9a3661ae061feed1dbda4e52ab073b1f9285be6e155d9c38d4ed019290910190613dfa565b5060408201518051613c0d916002840191602090910190613dfa565b5060608201518051613c29916003840191602090910190613dfa565b50608091909101516004909101805460ff19169115159190911790556014543390601690600090613c5c90600190614da5565b81526020808201929092526040908101600090812080546001600160a01b0319166001600160a01b03959095169490941790935533835260158252909120825181558282015180518493613cb7926001850192910190613dfa565b5060408201518051613cd3916002840191602090910190613dfa565b5060608201518051613cef916003840191602090910190613dfa565b50608091909101516004909101805460ff19169115159190911790553360009081526008602052604090206006805490919081908390613d2e90614dff565b613d39929190613e7e565b506001820181600101908054613d4e90614dff565b613d59929190613e7e565b50505050505050565b336000908152600e602052604090206003015460ff161515600114613d8657600080fd5b600160148281548110613da957634e487b7160e01b600052603260045260246000fd5b6000918252602080832060046005909302018201805494151560ff19958616179055938252601684526040808320546001600160a01b03168352601590945292902090910180549091166001179055565b828054613e0690614dff565b90600052602060002090601f016020900481019282613e285760008555613e6e565b82601f10613e4157805160ff1916838001178555613e6e565b82800160010185558215613e6e579182015b82811115613e6e578251825591602001919060010190613e53565b50613e7a929150613f57565b5090565b828054613e8a90614dff565b90600052602060002090601f016020900481019282613eac5760008555613e6e565b82601f10613ebd5780548555613e6e565b82800160010185558215613e6e57600052602060002091601f016020900482015b82811115613e6e578254825591600101919060010190613ede565b6040518061016001604052806060815260200160608152602001606081526020016060815260200160608152602001606081526020016060815260200160608152602001600015158152602001600015158152602001600081525090565b5b80821115613e7a5760008155600101613f58565b80356001600160a01b038116811461130657600080fd5b8035801515811461130657600080fd5b600082601f830112613fa3578081fd5b81356001600160401b03811115613fbc57613fbc614e6b565b613fcf601f8201601f1916602001614d75565b818152846020838601011115613fe3578283fd5b816020850160208301379081016020019190915292915050565b60006020828403121561400e578081fd5b61401782613f6c565b9392505050565b60008060008060808587031215614033578283fd5b61403c85613f6c565b935060208501356001600160401b0380821115614057578485fd5b61406388838901613f93565b94506040870135915080821115614078578384fd5b61408488838901613f93565b93506060870135915080821115614099578283fd5b506140a687828801613f93565b91505092959194509250565b600080600080600060a086880312156140c9578081fd5b6140d286613f6c565b945060208601356001600160401b03808211156140ed578283fd5b6140f989838a01613f93565b9550604088013591508082111561410e578283fd5b61411a89838a01613f93565b9450606088013591508082111561412f578283fd5b61413b89838a01613f93565b93506080880135915080821115614150578283fd5b5061415d88828901613f93565b9150509295509295909350565b6000602080838503121561417c578182fd5b82356001600160401b0380821115614192578384fd5b818501915085601f8301126141a5578384fd5b8135818111156141b7576141b7614e6b565b6141c5848260051b01614d75565b81815284810190848601875b84811015614360578135870161016080601f19838f030112156141f2578a8bfd5b6141fb81614d75565b8a8301358981111561420b578c8dfd5b6142198f8d83870101613f93565b82525060408301358981111561422d578c8dfd5b61423b8f8d83870101613f93565b8c83015250606083013589811115614251578c8dfd5b61425f8f8d83870101613f93565b604083015250608083013589811115614276578c8dfd5b6142848f8d83870101613f93565b60608301525060a08301358981111561429b578c8dfd5b6142a98f8d83870101613f93565b60808301525060c0830135898111156142c0578c8dfd5b6142ce8f8d83870101613f93565b60a08301525060e0830135898111156142e5578c8dfd5b6142f38f8d83870101613f93565b60c0830152506101008301358981111561430b578c8dfd5b6143198f8d83870101613f93565b60e08301525061432c6101208401613f83565b61010082015261433f6101408401613f83565b610120820152910135610140820152845292870192908701906001016141d1565b50909998505050505050505050565b600060208284031215614380578081fd5b81356001600160401b03811115614395578182fd5b6143a184828501613f93565b949350505050565b600080604083850312156143bb578182fd5b82356001600160401b03808211156143d1578384fd5b6143dd86838701613f93565b935060208501359150808211156143f2578283fd5b506143ff85828601613f93565b9150509250929050565b60008060006060848603121561441d578283fd5b83356001600160401b0380821115614433578485fd5b61443f87838801613f93565b94506020860135915080821115614454578384fd5b61446087838801613f93565b93506040860135915080821115614475578283fd5b5061448286828701613f93565b9150509250925092565b600080600080608085870312156144a1578384fd5b84356001600160401b03808211156144b7578586fd5b6144c388838901613f93565b95506020870135915080821115614057578485fd5b60008060008060008060008060006101208a8c0312156144f6578384fd5b89356001600160401b038082111561450c578586fd5b6145188d838e01613f93565b9a5060208c013591508082111561452d578586fd5b6145398d838e01613f93565b995060408c013591508082111561454e578586fd5b61455a8d838e01613f93565b985060608c013591508082111561456f578586fd5b61457b8d838e01613f93565b975060808c0135915080821115614590578586fd5b61459c8d838e01613f93565b965060a08c01359150808211156145b1578586fd5b6145bd8d838e01613f93565b955060c08c01359150808211156145d2578485fd5b6145de8d838e01613f93565b945060e08c01359150808211156145f3578384fd5b506146008c828d01613f93565b9250506146106101008b01613f83565b90509295985092959850929598565b6000806000806000806000806000806101408b8d03121561463e578384fd5b8a356001600160401b0380821115614654578586fd5b6146608e838f01613f93565b9b5060208d0135915080821115614675578586fd5b6146818e838f01613f93565b9a5060408d0135915080821115614696578586fd5b6146a28e838f01613f93565b995060608d01359150808211156146b7578586fd5b6146c38e838f01613f93565b985060808d01359150808211156146d8578586fd5b6146e48e838f01613f93565b975060a08d01359150808211156146f9578586fd5b6147058e838f01613f93565b965060c08d013591508082111561471a578586fd5b6147268e838f01613f93565b955060e08d013591508082111561473b578283fd5b6147478e838f01613f93565b94506101008d013591508082111561475d578283fd5b5061476a8d828e01613f93565b92505061477a6101208c01613f83565b90509295989b9194979a5092959850565b6000806040838503121561479d578182fd5b82356001600160401b038111156147b2578283fd5b6147be85828601613f93565b95602094909401359450505050565b6000602082840312156147de578081fd5b5035919050565b600081518084526147fd816020860160208601614dbc565b601f01601f19169290920160200192915050565b600081516080845261482660808501826147e5565b90506020830151848203602086015261483f82826147e5565b9150506040830151848203604086015261485982826147e5565b9150506060830151151560608501528091505092915050565b600081516040845261488760408501826147e5565b9050602083015184820360208601526148a082826147e5565b95945050505050565b600081518352602082015160a060208501526148c860a08501826147e5565b9050604083015184820360408601526148e182826147e5565b915050606083015184820360608601526148fb82826147e5565b9150506080830151151560808501528091505092915050565b600081516080845261492960808501826147e5565b90506020830151848203602086015261494282826147e5565b9150506040830151848203604086015261495c82826147e5565b915050606083015184820360608601526148a082826147e5565b6000610160825181855261498c828601826147e5565b915050602083015184820360208601526149a682826147e5565b915050604083015184820360408601526149c082826147e5565b915050606083015184820360608601526149da82826147e5565b915050608083015184820360808601526149f482826147e5565b91505060a083015184820360a0860152614a0e82826147e5565b91505060c083015184820360c0860152614a2882826147e5565b91505060e083015184820360e0860152614a4282826147e5565b91505061010080840151614a598287018215159052565b5050610120838101511515908501526101409283015192909301919091525090565b60008251614a8d818460208701614dbc565b9190910192915050565b60008451614aa9818460208901614dbc565b91909101928352506020820152604001919050565b600080835482600182811c915080831680614ada57607f831692505b6020808410821415614afa57634e487b7160e01b87526022600452602487fd5b818015614b0e5760018114614b1f57614b4b565b60ff19861689528489019650614b4b565b60008a815260209020885b86811015614b435781548b820152908501908301614b2a565b505084890196505b509498975050505050505050565b600067029ba3ab232b73a160c51b82528251614b7c816008850160208701614dbc565b6e20616c72656164792065786973747360881b6008939091019283015250601701919050565b6000602080830181845280855180835260408601915060408160051b8701019250838701855b82811015614bf657603f19888603018452614be4858351614811565b94509285019290850190600101614bc8565b5092979650505050505050565b6000602080830181845280855180835260408601915060408160051b8701019250838701855b82811015614bf657603f19888603018452614c458583516148a9565b94509285019290850190600101614c29565b6000602080830181845280855180835260408601915060408160051b8701019250838701855b82811015614bf657603f19888603018452614c99858351614976565b94509285019290850190600101614c7d565b60006020825261401760208301846147e5565b6000602082526140176020830184614811565b6000602082526140176020830184614872565b60006020825261401760208301846148a9565b6000602082526140176020830184614914565b600060808252614d1d6080830187614914565b8281036020840152614d2f8187614811565b90508281036040840152614d438186614976565b90508281036060840152614d5781856148a9565b979650505050505050565b6000602082526140176020830184614976565b604051601f8201601f191681016001600160401b0381118282101715614d9d57614d9d614e6b565b604052919050565b600082821015614db757614db7614e55565b500390565b60005b83811015614dd7578181015183820152602001614dbf565b838111156119e15750506000910152565b600081614df757614df7614e55565b506000190190565b600181811c90821680614e1357607f821691505b60208210811415614e3457634e487b7160e01b600052602260045260246000fd5b50919050565b6000600019821415614e4e57614e4e614e55565b5060010190565b634e487b7160e01b600052601160045260246000fd5b634e487b7160e01b600052604160045260246000fdfea26469706673582212205672f6ae0b30294d4c2263978f890a02e6437e1247a37544361db20b36cd455864736f6c63430008030033453320313434205875616e2054687579202d204361752047696179202d204861204e6f69207468616d206d7575206769757020766965632048696575207472756f6e672074687563206869656e20636f6e6720746163207665207861792064756e672c207175616e206c7920636163206368756f6e67207472696e682064616f2074616f",
  "immutableReferences": {},
  "source": "// SPDX-License-Identifier: MIT\npragma solidity >=0.7.0 <0.9.0;\n\nimport \"./SetGrade.sol\";\nimport \"./Model.sol\";\n\ncontract User {\n    constructor() {\n        setRole();\n        setRector();\n        setAADepartmentAcc();\n        Model.student memory student0 = Model.student(\"0\",\"\", \"\" , \"\", \"\", \"\", \"\", \"\", false, false, 0);\n        studentList.push(student0);\n    }\n\n    Model.role[4] roleList;\n    mapping(address => Model.role) userRole;\n\n    function getCurrentUserRole() public view returns (Model.role memory) {\n        return userRole[msg.sender];\n    }\n\n    function getCurrentUserRoleByAddr(address _addr)\n        public\n        view\n        returns (Model.role memory)\n    {\n        Model.role memory roleTemp = userRole[_addr];\n        return roleTemp;\n    }\n\n    function getCurrentUser()\n        public\n        view\n        returns (\n            Model.rector memory,\n            Model.AADUser memory,\n            Model.student memory,\n            Model.company memory\n        )\n    {\n        if (\n            keccak256(abi.encodePacked(userRole[msg.sender].id)) ==\n            keccak256(abi.encodePacked(\"0\"))\n        ) {\n            return (\n                rectorDetail[msg.sender],\n                getAADepartmentUser(msg.sender),\n                getStudentByAddr(msg.sender),\n                getCompanyByAddress(msg.sender)\n            );\n        } else if (\n            keccak256(abi.encodePacked(userRole[msg.sender].id)) ==\n            keccak256(abi.encodePacked(\"1\"))\n        ) {\n            return (\n                rectorDetail[msg.sender],\n                getAADepartmentUser(msg.sender),\n                getStudentByAddr(msg.sender),\n                getCompanyByAddress(msg.sender)\n            );\n        } else if (\n            keccak256(abi.encodePacked(userRole[msg.sender].id)) ==\n            keccak256(abi.encodePacked(\"2\"))\n        ) {\n            return (\n                rectorDetail[msg.sender],\n                getAADepartmentUser(msg.sender),\n                getStudentByAddr(msg.sender),\n                getCompanyByAddress(msg.sender)\n            );\n        } else if (\n            keccak256(abi.encodePacked(userRole[msg.sender].id)) ==\n            keccak256(abi.encodePacked(\"3\"))\n        ) {\n            return (\n                rectorDetail[msg.sender],\n                getAADepartmentUser(msg.sender),\n                getStudentByAddr(msg.sender),\n                getCompanyByAddress(msg.sender)\n            );\n        }\n    }\n\n    // modifier onlyUser(address _address) {\n    //     require(msg.sender == _address || msg.sender == currentRectorAddress);\n    //     _;\n    // }\n\n    modifier onlyNoRole(address _address) {\n        require(\n            keccak256(abi.encodePacked(userRole[_address].id)) ==\n                keccak256(abi.encodePacked(\"\"))\n        );\n        _;\n    }\n\n    function setRole() private {\n        roleList[0] = (Model.role(\"0\", \"rector\"));\n        roleList[1] = (Model.role(\"1\", \"AADepartment\"));\n        roleList[2] = (Model.role(\"2\", \"student\"));\n        roleList[3] = (Model.role(\"3\", \"company\"));\n    }\n\n    address public currentRectorAddress;\n\n    mapping(address => Model.rector) rectorDetail;\n\n    modifier onlyCurrentRector() {\n        require(msg.sender == currentRectorAddress);\n        _;\n    }\n\n    function setRector() private {\n        Model.rector memory rectorTemp;\n        rectorTemp.name = \"PGS TS Nguyen Viet Ha\";\n        rectorTemp.date = \"1974\";\n        rectorTemp.phone = \"0989152252\";\n        rectorTemp.term = \"from 2014\";\n        rectorDetail[msg.sender] = rectorTemp;\n        userRole[msg.sender] = roleList[0];\n\n        currentRectorAddress = msg.sender;\n    }\n\n    function getCurrentRector() public view returns (Model.rector memory) {\n        Model.rector memory currentRector = rectorDetail[currentRectorAddress];\n        return currentRector;\n    }\n\n    function createNewRector(\n        address _newRectorAddr,\n        string memory _name,\n        string memory _date,\n        string memory _phone,\n        string memory _term\n    ) public onlyCurrentRector onlyNoRole(_newRectorAddr) {\n        Model.rector memory newRector =\n            Model.rector(_name, _date, _phone, _term);\n\n        rectorDetail[_newRectorAddr] = newRector;\n        userRole[_newRectorAddr] = roleList[0];\n\n        currentRectorAddress = _newRectorAddr;\n    }\n\n    function updateCurrentRector(\n        string memory _name,\n        string memory _date,\n        string memory _phone,\n        string memory _term\n    ) public onlyCurrentRector {\n        rectorDetail[msg.sender].name = _name;\n        rectorDetail[msg.sender].date = _date;\n        rectorDetail[msg.sender].phone = _phone;\n        rectorDetail[msg.sender].term = _term;\n    }\n\n    Model.AADepartment AADepartmentAcc;\n\n    Model.AADUser[] AADUserList;\n    mapping(address => Model.AADUser) AADUsers;\n    mapping(uint256 => address) ADDUserIdToAddr;\n\n    modifier onlyAADepartmentUser() {\n        require(AADUsers[msg.sender].isActive == true);\n        _;\n    }\n\n    modifier onlyRectorOrAAD() {\n        require(\n            msg.sender == currentRectorAddress ||\n                AADUsers[msg.sender].isActive == true\n        );\n        _;\n    }\n\n    function setAADepartmentAcc() private {\n        AADepartmentAcc.realAddress = \"E3 144 Xuan Thuy - Cau Giay - Ha Noi\";\n        AADepartmentAcc\n            .description = \" tham muu giup viec Hieu truong thuc hien cong tac ve xay dung, quan ly cac chuong trinh dao tao\";\n    }\n\n    function getAADepartmentAcc()\n        public\n        view\n        returns (Model.AADepartment memory)\n    {\n        return AADepartmentAcc;\n    }\n\n    function createAADepartmentUser(\n        address _address,\n        string memory _name,\n        string memory _date,\n        string memory _phone\n    ) public onlyRectorOrAAD onlyNoRole(_address) {\n        Model.AADUser memory temp = Model.AADUser(_name, _date, _phone, true);\n        AADUserList.push(temp);\n        ADDUserIdToAddr[AADUserList.length - 1] = _address;\n        AADUsers[_address] = temp;\n\n        userRole[_address] = roleList[1];\n    }\n\n    function updateAADepartmentUser(\n        string memory _name,\n        string memory _date,\n        string memory _phone\n    ) public {\n        require(AADUsers[msg.sender].isActive == true);\n        AADUsers[msg.sender].name = _name;\n        AADUsers[msg.sender].date = _date;\n        AADUsers[msg.sender].phone = _phone;\n    }\n\n    function deactiveAADepartmentUser(uint256 _AADUserId)\n        public\n        onlyRectorOrAAD\n    {\n        AADUserList[_AADUserId].isActive = false;\n        AADUsers[ADDUserIdToAddr[_AADUserId]].isActive = false;\n    }\n\n    function getAADepartmentUser(address _userAddress)\n        public\n        view\n        returns (Model.AADUser memory)\n    {\n        return AADUsers[_userAddress];\n    }\n\n    function getAllAADepartmentUsers()\n        public\n        view\n        returns (Model.AADUser[] memory)\n    {\n        return AADUserList;\n    }\n\n    Model.student[] studentList;\n    mapping(address => uint256) addressToStudent;\n    mapping(string => uint256) idToStudent;\n\n    uint256 qualifiedStudentNumber;\n\n    modifier onlyStudent() {\n        require(studentList[addressToStudent[msg.sender]].isActive == true);\n        _;\n    }\n\n    function createStudent(\n        string memory _id,\n        string memory _name,\n        string memory _email,\n        string memory _date,\n        string memory _phone,\n        string memory _class,\n        string memory _major,\n        string memory _cpa,\n        bool _qualifiedForGraduation\n    ) public onlyAADepartmentUser {\n        require(\n            keccak256(abi.encodePacked(studentList[idToStudent[_id]].id)) !=\n                keccak256(abi.encodePacked(_id)),\n            string(abi.encodePacked(\"Student \", _id, \" already exists\"))\n        );\n        Model.student memory studentTemp =\n            Model.student(\n                _id,\n                _name,\n                _email,\n                _date,\n                _phone,\n                _class,\n                _major,\n                _cpa,\n                _qualifiedForGraduation,\n                false,\n                uint256(\n                    keccak256(\n                        abi.encodePacked(_id, block.timestamp, block.difficulty)\n                    )\n                )\n            );\n        studentList.push(studentTemp);\n        idToStudent[_id] = studentList.length - 1;\n        if (studentList[studentList.length - 1].qualifiedForGraduation) {\n            qualifiedStudentNumber++;\n        }\n    }\n\n    function importStudent(Model.student[] memory students)\n        public\n        onlyAADepartmentUser\n    {\n        for (uint256 i = 0; i < students.length; i++) {\n            createStudent(\n                students[i].id,\n                students[i].name,\n                students[i].email,\n                students[i].date,\n                students[i].phone,\n                students[i].class,\n                students[i].major,\n                students[i].cpa,\n                students[i].qualifiedForGraduation\n            );\n        }\n    }\n\n    function activeStudent(string memory _id, uint256 _nonce)\n        public\n        onlyNoRole(msg.sender)\n    {\n        require(_nonce == studentList[idToStudent[_id]].nonce);\n        addressToStudent[msg.sender] = idToStudent[_id];\n        studentList[idToStudent[_id]].isActive = true;\n        userRole[msg.sender] = roleList[2];\n    }\n\n    function getAllStudent()\n        public\n        view\n        onlyRectorOrAAD\n        returns (Model.student[] memory)\n    {\n        return studentList;\n    }\n\n    function getStudentById(string memory _id)\n        public\n        view\n        returns (Model.student memory)\n    {\n        Model.student memory studentTemp = studentList[idToStudent[_id]];\n        studentTemp.nonce = 0;\n        return studentTemp;\n    }\n\n    function getStudentByAddr(address _studentAddr)\n        public\n        view\n        returns (Model.student memory)\n    {\n        Model.student memory studentTemp =\n            studentList[addressToStudent[_studentAddr]];\n        studentTemp.nonce = 0;\n        return studentTemp;\n    }\n\n    function getStudentNonce(string memory _id)\n        public\n        view\n        onlyRectorOrAAD\n        returns (uint256)\n    {\n        return studentList[idToStudent[_id]].nonce;\n    }\n\n    function updateStudentbyAAD(\n        string memory _currentId,\n        string memory _id,\n        string memory _name,\n        string memory _email,\n        string memory _date,\n        string memory _phone,\n        string memory _class,\n        string memory _major,\n        string memory _cpa,\n        bool _qualifiedForGraduation\n    ) public onlyRectorOrAAD {\n        Model.student storage temp = studentList[idToStudent[_currentId]];\n        if (\n            keccak256(abi.encodePacked(_currentId)) !=\n            keccak256(abi.encodePacked(_id))\n        ) {\n            require(\n                keccak256(abi.encodePacked(studentList[idToStudent[_id]].id)) !=\n                    keccak256(abi.encodePacked(_id)),\n                string(abi.encodePacked(\"Student \", _id, \" already exists\"))\n            );\n            idToStudent[_id] = idToStudent[_currentId];\n            idToStudent[_currentId] = idToStudent[\"0\"];\n            temp.id = _id;\n        }\n        temp.name = _name;\n        temp.email = _email;\n        temp.date = _date;\n        temp.phone = _phone;\n        temp.class = _class;\n        temp.major = _major;\n        temp.cpa = _cpa;\n        if (temp.qualifiedForGraduation && !_qualifiedForGraduation) {\n            qualifiedStudentNumber--;\n        }\n        if (!temp.qualifiedForGraduation && _qualifiedForGraduation) {\n            qualifiedStudentNumber++;\n        }\n        temp.qualifiedForGraduation = _qualifiedForGraduation;\n    }\n\n    function updateStudentInfo(string memory _email, string memory _phone)\n        public\n    {\n        require(studentList[addressToStudent[msg.sender]].isActive == true);\n        studentList[addressToStudent[msg.sender]].email = _email;\n        studentList[addressToStudent[msg.sender]].phone = _phone;\n    }\n\n    function getQualifiedStudents()\n        public\n        view\n        returns (Model.student[] memory)\n    {\n        Model.student[] memory qualifiedStudent =\n            new Model.student[](qualifiedStudentNumber);\n        uint256 count = 0;\n        for (uint256 i = 0; i < studentList.length; i++) {\n            if (studentList[i].qualifiedForGraduation) {\n                qualifiedStudent[count] = studentList[i];\n                count++;\n            }\n        }\n        return qualifiedStudent;\n    }\n\n    Model.company[] companyList;\n    mapping(address => Model.company) companyDetails;\n    mapping(uint256 => address) companyIdToAddr;\n\n    function createCompany(string memory _name, string memory _description)\n        public\n        onlyNoRole(msg.sender)\n    {\n        Model.company memory companyTemp =\n            Model.company(companyList.length, _name, _description, \"\", false);\n\n        companyList.push(companyTemp);\n        companyIdToAddr[companyList.length - 1] = msg.sender;\n        companyDetails[msg.sender] = companyTemp;\n        userRole[msg.sender] = roleList[3];\n    }\n\n    function approveCompany(uint256 _companyId) public onlyAADepartmentUser {\n        companyList[_companyId].isActive = true;\n        companyDetails[companyIdToAddr[_companyId]].isActive = true;\n    }\n\n    function updateCompany(\n        string memory _name,\n        string memory _description,\n        string memory _jobInfo\n    ) public {\n        companyDetails[msg.sender].name = _name;\n        companyDetails[msg.sender].description = _description;\n        companyDetails[msg.sender].jobInfo = _jobInfo;\n    }\n\n    function getCompanyByAddress(address _companyAddr)\n        public\n        view\n        returns (Model.company memory)\n    {\n        Model.company memory companyTemp = companyDetails[_companyAddr];\n        return companyTemp;\n    }\n\n    function getCompanybyId(uint256 _companyId)\n        public\n        view\n        returns (Model.company memory)\n    {\n        Model.company memory companyTemp =\n            companyDetails[companyIdToAddr[_companyId]];\n        return companyTemp;\n    }\n\n    function getAllCompany() public view returns (Model.company[] memory) {\n        return companyList;\n    }\n}\n",
  "sourcePath": "/Users/hughdo/Desktop/Proj/CertVerificationSystem/contracts/User.sol",
  "compiler": {
    "name": "solc",
    "version": "0.8.3+commit.8d00100c.Emscripten.clang"
  },
  "schemaVersion": "3.3.4",
  "updatedAt": "2021-06-14T18:11:13.001Z",
  "networkType": "ethereum",
  "devdoc": {
    "kind": "dev",
    "methods": {},
    "version": 1
  },
  "userdoc": {
    "kind": "user",
    "methods": {},
    "version": 1
  }
}