{
  "contractName": "User",
  "abi": [
    {
      "inputs": [],
      "stateMutability": "nonpayable",
      "type": "constructor"
    },
    {
      "inputs": [],
      "name": "currentRectorAddress",
      "outputs": [
        {
          "internalType": "address",
          "name": "",
          "type": "address"
        }
      ],
      "stateMutability": "view",
      "type": "function",
      "constant": true
    },
    {
      "inputs": [],
      "name": "getCurrentUserRole",
      "outputs": [
        {
          "components": [
            {
              "internalType": "string",
              "name": "id",
              "type": "string"
            },
            {
              "internalType": "string",
              "name": "name",
              "type": "string"
            }
          ],
          "internalType": "struct Model.role",
          "name": "",
          "type": "tuple"
        }
      ],
      "stateMutability": "view",
      "type": "function",
      "constant": true
    },
    {
      "inputs": [
        {
          "internalType": "address",
          "name": "_addr",
          "type": "address"
        }
      ],
      "name": "getCurrentUserRoleByAddr",
      "outputs": [
        {
          "components": [
            {
              "internalType": "string",
              "name": "id",
              "type": "string"
            },
            {
              "internalType": "string",
              "name": "name",
              "type": "string"
            }
          ],
          "internalType": "struct Model.role",
          "name": "",
          "type": "tuple"
        }
      ],
      "stateMutability": "view",
      "type": "function",
      "constant": true
    },
    {
      "inputs": [],
      "name": "getCurrentUser",
      "outputs": [
        {
          "components": [
            {
              "internalType": "string",
              "name": "name",
              "type": "string"
            },
            {
              "internalType": "string",
              "name": "date",
              "type": "string"
            },
            {
              "internalType": "string",
              "name": "phone",
              "type": "string"
            },
            {
              "internalType": "string",
              "name": "term",
              "type": "string"
            }
          ],
          "internalType": "struct Model.rector",
          "name": "",
          "type": "tuple"
        },
        {
          "components": [
            {
              "internalType": "string",
              "name": "name",
              "type": "string"
            },
            {
              "internalType": "string",
              "name": "date",
              "type": "string"
            },
            {
              "internalType": "string",
              "name": "phone",
              "type": "string"
            },
            {
              "internalType": "bool",
              "name": "isActive",
              "type": "bool"
            }
          ],
          "internalType": "struct Model.AADUser",
          "name": "",
          "type": "tuple"
        },
        {
          "components": [
            {
              "internalType": "string",
              "name": "id",
              "type": "string"
            },
            {
              "internalType": "string",
              "name": "name",
              "type": "string"
            },
            {
              "internalType": "string",
              "name": "email",
              "type": "string"
            },
            {
              "internalType": "string",
              "name": "date",
              "type": "string"
            },
            {
              "internalType": "string",
              "name": "phone",
              "type": "string"
            },
            {
              "internalType": "string",
              "name": "class",
              "type": "string"
            },
            {
              "internalType": "string",
              "name": "major",
              "type": "string"
            },
            {
              "internalType": "string",
              "name": "cpa",
              "type": "string"
            },
            {
              "internalType": "bool",
              "name": "qualifiedForGraduation",
              "type": "bool"
            },
            {
              "internalType": "bool",
              "name": "isActive",
              "type": "bool"
            },
            {
              "internalType": "uint256",
              "name": "nonce",
              "type": "uint256"
            }
          ],
          "internalType": "struct Model.student",
          "name": "",
          "type": "tuple"
        },
        {
          "components": [
            {
              "internalType": "string",
              "name": "name",
              "type": "string"
            },
            {
              "internalType": "string",
              "name": "description",
              "type": "string"
            },
            {
              "internalType": "string",
              "name": "jobInfo",
              "type": "string"
            },
            {
              "internalType": "bool",
              "name": "isActive",
              "type": "bool"
            }
          ],
          "internalType": "struct Model.company",
          "name": "",
          "type": "tuple"
        }
      ],
      "stateMutability": "view",
      "type": "function",
      "constant": true
    },
    {
      "inputs": [],
      "name": "getCurrentRector",
      "outputs": [
        {
          "components": [
            {
              "internalType": "string",
              "name": "name",
              "type": "string"
            },
            {
              "internalType": "string",
              "name": "date",
              "type": "string"
            },
            {
              "internalType": "string",
              "name": "phone",
              "type": "string"
            },
            {
              "internalType": "string",
              "name": "term",
              "type": "string"
            }
          ],
          "internalType": "struct Model.rector",
          "name": "",
          "type": "tuple"
        }
      ],
      "stateMutability": "view",
      "type": "function",
      "constant": true
    },
    {
      "inputs": [
        {
          "internalType": "address",
          "name": "_newRectorAddr",
          "type": "address"
        },
        {
          "internalType": "string",
          "name": "_name",
          "type": "string"
        },
        {
          "internalType": "string",
          "name": "_date",
          "type": "string"
        },
        {
          "internalType": "string",
          "name": "_phone",
          "type": "string"
        },
        {
          "internalType": "string",
          "name": "_term",
          "type": "string"
        }
      ],
      "name": "createNewRector",
      "outputs": [],
      "stateMutability": "nonpayable",
      "type": "function"
    },
    {
      "inputs": [
        {
          "internalType": "string",
          "name": "_name",
          "type": "string"
        },
        {
          "internalType": "string",
          "name": "_date",
          "type": "string"
        },
        {
          "internalType": "string",
          "name": "_phone",
          "type": "string"
        },
        {
          "internalType": "string",
          "name": "_term",
          "type": "string"
        }
      ],
      "name": "updateCurrentRector",
      "outputs": [],
      "stateMutability": "nonpayable",
      "type": "function"
    },
    {
      "inputs": [],
      "name": "getAADepartmentAcc",
      "outputs": [
        {
          "components": [
            {
              "internalType": "string",
              "name": "realAddress",
              "type": "string"
            },
            {
              "internalType": "string",
              "name": "description",
              "type": "string"
            }
          ],
          "internalType": "struct Model.AADepartment",
          "name": "",
          "type": "tuple"
        }
      ],
      "stateMutability": "view",
      "type": "function",
      "constant": true
    },
    {
      "inputs": [
        {
          "internalType": "address",
          "name": "_address",
          "type": "address"
        },
        {
          "internalType": "string",
          "name": "_name",
          "type": "string"
        },
        {
          "internalType": "string",
          "name": "_date",
          "type": "string"
        },
        {
          "internalType": "string",
          "name": "_phone",
          "type": "string"
        }
      ],
      "name": "createAADepartmentUser",
      "outputs": [],
      "stateMutability": "nonpayable",
      "type": "function"
    },
    {
      "inputs": [
        {
          "internalType": "string",
          "name": "_name",
          "type": "string"
        },
        {
          "internalType": "string",
          "name": "_date",
          "type": "string"
        },
        {
          "internalType": "string",
          "name": "_phone",
          "type": "string"
        }
      ],
      "name": "updateAADepartmentUser",
      "outputs": [],
      "stateMutability": "nonpayable",
      "type": "function"
    },
    {
      "inputs": [
        {
          "internalType": "uint256",
          "name": "_AADUserId",
          "type": "uint256"
        }
      ],
      "name": "deactiveAADepartmentUser",
      "outputs": [],
      "stateMutability": "nonpayable",
      "type": "function"
    },
    {
      "inputs": [
        {
          "internalType": "address",
          "name": "_userAddress",
          "type": "address"
        }
      ],
      "name": "getAADepartmentUser",
      "outputs": [
        {
          "components": [
            {
              "internalType": "string",
              "name": "name",
              "type": "string"
            },
            {
              "internalType": "string",
              "name": "date",
              "type": "string"
            },
            {
              "internalType": "string",
              "name": "phone",
              "type": "string"
            },
            {
              "internalType": "bool",
              "name": "isActive",
              "type": "bool"
            }
          ],
          "internalType": "struct Model.AADUser",
          "name": "",
          "type": "tuple"
        }
      ],
      "stateMutability": "view",
      "type": "function",
      "constant": true
    },
    {
      "inputs": [],
      "name": "getAllAADepartmentUsers",
      "outputs": [
        {
          "components": [
            {
              "internalType": "string",
              "name": "name",
              "type": "string"
            },
            {
              "internalType": "string",
              "name": "date",
              "type": "string"
            },
            {
              "internalType": "string",
              "name": "phone",
              "type": "string"
            },
            {
              "internalType": "bool",
              "name": "isActive",
              "type": "bool"
            }
          ],
          "internalType": "struct Model.AADUser[]",
          "name": "",
          "type": "tuple[]"
        }
      ],
      "stateMutability": "view",
      "type": "function",
      "constant": true
    },
    {
      "inputs": [
        {
          "internalType": "string",
          "name": "_id",
          "type": "string"
        },
        {
          "internalType": "string",
          "name": "_name",
          "type": "string"
        },
        {
          "internalType": "string",
          "name": "_email",
          "type": "string"
        },
        {
          "internalType": "string",
          "name": "_date",
          "type": "string"
        },
        {
          "internalType": "string",
          "name": "_phone",
          "type": "string"
        },
        {
          "internalType": "string",
          "name": "_class",
          "type": "string"
        },
        {
          "internalType": "string",
          "name": "_major",
          "type": "string"
        },
        {
          "internalType": "string",
          "name": "_cpa",
          "type": "string"
        },
        {
          "internalType": "bool",
          "name": "_qualifiedForGraduation",
          "type": "bool"
        }
      ],
      "name": "createStudent",
      "outputs": [],
      "stateMutability": "nonpayable",
      "type": "function"
    },
    {
      "inputs": [
        {
          "components": [
            {
              "internalType": "string",
              "name": "id",
              "type": "string"
            },
            {
              "internalType": "string",
              "name": "name",
              "type": "string"
            },
            {
              "internalType": "string",
              "name": "email",
              "type": "string"
            },
            {
              "internalType": "string",
              "name": "date",
              "type": "string"
            },
            {
              "internalType": "string",
              "name": "phone",
              "type": "string"
            },
            {
              "internalType": "string",
              "name": "class",
              "type": "string"
            },
            {
              "internalType": "string",
              "name": "major",
              "type": "string"
            },
            {
              "internalType": "string",
              "name": "cpa",
              "type": "string"
            },
            {
              "internalType": "bool",
              "name": "qualifiedForGraduation",
              "type": "bool"
            },
            {
              "internalType": "bool",
              "name": "isActive",
              "type": "bool"
            },
            {
              "internalType": "uint256",
              "name": "nonce",
              "type": "uint256"
            }
          ],
          "internalType": "struct Model.student[]",
          "name": "students",
          "type": "tuple[]"
        }
      ],
      "name": "importStudent",
      "outputs": [],
      "stateMutability": "nonpayable",
      "type": "function"
    },
    {
      "inputs": [
        {
          "internalType": "string",
          "name": "_id",
          "type": "string"
        },
        {
          "internalType": "uint256",
          "name": "_nonce",
          "type": "uint256"
        }
      ],
      "name": "activeStudent",
      "outputs": [],
      "stateMutability": "nonpayable",
      "type": "function"
    },
    {
      "inputs": [],
      "name": "getAllStudent",
      "outputs": [
        {
          "components": [
            {
              "internalType": "string",
              "name": "id",
              "type": "string"
            },
            {
              "internalType": "string",
              "name": "name",
              "type": "string"
            },
            {
              "internalType": "string",
              "name": "email",
              "type": "string"
            },
            {
              "internalType": "string",
              "name": "date",
              "type": "string"
            },
            {
              "internalType": "string",
              "name": "phone",
              "type": "string"
            },
            {
              "internalType": "string",
              "name": "class",
              "type": "string"
            },
            {
              "internalType": "string",
              "name": "major",
              "type": "string"
            },
            {
              "internalType": "string",
              "name": "cpa",
              "type": "string"
            },
            {
              "internalType": "bool",
              "name": "qualifiedForGraduation",
              "type": "bool"
            },
            {
              "internalType": "bool",
              "name": "isActive",
              "type": "bool"
            },
            {
              "internalType": "uint256",
              "name": "nonce",
              "type": "uint256"
            }
          ],
          "internalType": "struct Model.student[]",
          "name": "",
          "type": "tuple[]"
        }
      ],
      "stateMutability": "view",
      "type": "function",
      "constant": true
    },
    {
      "inputs": [
        {
          "internalType": "string",
          "name": "_id",
          "type": "string"
        }
      ],
      "name": "getStudentById",
      "outputs": [
        {
          "components": [
            {
              "internalType": "string",
              "name": "id",
              "type": "string"
            },
            {
              "internalType": "string",
              "name": "name",
              "type": "string"
            },
            {
              "internalType": "string",
              "name": "email",
              "type": "string"
            },
            {
              "internalType": "string",
              "name": "date",
              "type": "string"
            },
            {
              "internalType": "string",
              "name": "phone",
              "type": "string"
            },
            {
              "internalType": "string",
              "name": "class",
              "type": "string"
            },
            {
              "internalType": "string",
              "name": "major",
              "type": "string"
            },
            {
              "internalType": "string",
              "name": "cpa",
              "type": "string"
            },
            {
              "internalType": "bool",
              "name": "qualifiedForGraduation",
              "type": "bool"
            },
            {
              "internalType": "bool",
              "name": "isActive",
              "type": "bool"
            },
            {
              "internalType": "uint256",
              "name": "nonce",
              "type": "uint256"
            }
          ],
          "internalType": "struct Model.student",
          "name": "",
          "type": "tuple"
        }
      ],
      "stateMutability": "view",
      "type": "function",
      "constant": true
    },
    {
      "inputs": [
        {
          "internalType": "address",
          "name": "_studentAddr",
          "type": "address"
        }
      ],
      "name": "getStudentByAddr",
      "outputs": [
        {
          "components": [
            {
              "internalType": "string",
              "name": "id",
              "type": "string"
            },
            {
              "internalType": "string",
              "name": "name",
              "type": "string"
            },
            {
              "internalType": "string",
              "name": "email",
              "type": "string"
            },
            {
              "internalType": "string",
              "name": "date",
              "type": "string"
            },
            {
              "internalType": "string",
              "name": "phone",
              "type": "string"
            },
            {
              "internalType": "string",
              "name": "class",
              "type": "string"
            },
            {
              "internalType": "string",
              "name": "major",
              "type": "string"
            },
            {
              "internalType": "string",
              "name": "cpa",
              "type": "string"
            },
            {
              "internalType": "bool",
              "name": "qualifiedForGraduation",
              "type": "bool"
            },
            {
              "internalType": "bool",
              "name": "isActive",
              "type": "bool"
            },
            {
              "internalType": "uint256",
              "name": "nonce",
              "type": "uint256"
            }
          ],
          "internalType": "struct Model.student",
          "name": "",
          "type": "tuple"
        }
      ],
      "stateMutability": "view",
      "type": "function",
      "constant": true
    },
    {
      "inputs": [
        {
          "internalType": "string",
          "name": "_id",
          "type": "string"
        }
      ],
      "name": "getStudentNonce",
      "outputs": [
        {
          "internalType": "uint256",
          "name": "",
          "type": "uint256"
        }
      ],
      "stateMutability": "view",
      "type": "function",
      "constant": true
    },
    {
      "inputs": [
        {
          "internalType": "address",
          "name": "_address",
          "type": "address"
        },
        {
          "internalType": "string",
          "name": "_id",
          "type": "string"
        },
        {
          "internalType": "string",
          "name": "_name",
          "type": "string"
        },
        {
          "internalType": "string",
          "name": "_email",
          "type": "string"
        },
        {
          "internalType": "string",
          "name": "_date",
          "type": "string"
        },
        {
          "internalType": "string",
          "name": "_phone",
          "type": "string"
        },
        {
          "internalType": "string",
          "name": "_class",
          "type": "string"
        },
        {
          "internalType": "string",
          "name": "_major",
          "type": "string"
        },
        {
          "internalType": "string",
          "name": "_cpa",
          "type": "string"
        },
        {
          "internalType": "bool",
          "name": "_qualifiedForGraduation",
          "type": "bool"
        }
      ],
      "name": "updateStudentbyAAD",
      "outputs": [],
      "stateMutability": "nonpayable",
      "type": "function"
    },
    {
      "inputs": [
        {
          "internalType": "string",
          "name": "_email",
          "type": "string"
        },
        {
          "internalType": "string",
          "name": "_phone",
          "type": "string"
        }
      ],
      "name": "updateStudentInfo",
      "outputs": [],
      "stateMutability": "nonpayable",
      "type": "function"
    },
    {
      "inputs": [],
      "name": "getQualifiedStudents",
      "outputs": [
        {
          "components": [
            {
              "internalType": "string",
              "name": "id",
              "type": "string"
            },
            {
              "internalType": "string",
              "name": "name",
              "type": "string"
            },
            {
              "internalType": "string",
              "name": "email",
              "type": "string"
            },
            {
              "internalType": "string",
              "name": "date",
              "type": "string"
            },
            {
              "internalType": "string",
              "name": "phone",
              "type": "string"
            },
            {
              "internalType": "string",
              "name": "class",
              "type": "string"
            },
            {
              "internalType": "string",
              "name": "major",
              "type": "string"
            },
            {
              "internalType": "string",
              "name": "cpa",
              "type": "string"
            },
            {
              "internalType": "bool",
              "name": "qualifiedForGraduation",
              "type": "bool"
            },
            {
              "internalType": "bool",
              "name": "isActive",
              "type": "bool"
            },
            {
              "internalType": "uint256",
              "name": "nonce",
              "type": "uint256"
            }
          ],
          "internalType": "struct Model.student[]",
          "name": "",
          "type": "tuple[]"
        }
      ],
      "stateMutability": "view",
      "type": "function",
      "constant": true
    },
    {
      "inputs": [
        {
          "internalType": "string",
          "name": "_name",
          "type": "string"
        },
        {
          "internalType": "string",
          "name": "_description",
          "type": "string"
        }
      ],
      "name": "createCompany",
      "outputs": [],
      "stateMutability": "nonpayable",
      "type": "function"
    },
    {
      "inputs": [
        {
          "internalType": "uint256",
          "name": "_companyId",
          "type": "uint256"
        }
      ],
      "name": "approveCompany",
      "outputs": [],
      "stateMutability": "nonpayable",
      "type": "function"
    },
    {
      "inputs": [
        {
          "internalType": "string",
          "name": "_name",
          "type": "string"
        },
        {
          "internalType": "string",
          "name": "_description",
          "type": "string"
        },
        {
          "internalType": "string",
          "name": "_jobInfo",
          "type": "string"
        }
      ],
      "name": "updateCompany",
      "outputs": [],
      "stateMutability": "nonpayable",
      "type": "function"
    },
    {
      "inputs": [
        {
          "internalType": "uint256",
          "name": "_companyId",
          "type": "uint256"
        }
      ],
      "name": "getCompany",
      "outputs": [
        {
          "components": [
            {
              "internalType": "string",
              "name": "name",
              "type": "string"
            },
            {
              "internalType": "string",
              "name": "description",
              "type": "string"
            },
            {
              "internalType": "string",
              "name": "jobInfo",
              "type": "string"
            },
            {
              "internalType": "bool",
              "name": "isActive",
              "type": "bool"
            }
          ],
          "internalType": "struct Model.company",
          "name": "",
          "type": "tuple"
        }
      ],
      "stateMutability": "view",
      "type": "function",
      "constant": true
    },
    {
      "inputs": [
        {
          "internalType": "address",
          "name": "_companyAddr",
          "type": "address"
        }
      ],
      "name": "getCompany",
      "outputs": [
        {
          "components": [
            {
              "internalType": "string",
              "name": "name",
              "type": "string"
            },
            {
              "internalType": "string",
              "name": "description",
              "type": "string"
            },
            {
              "internalType": "string",
              "name": "jobInfo",
              "type": "string"
            },
            {
              "internalType": "bool",
              "name": "isActive",
              "type": "bool"
            }
          ],
          "internalType": "struct Model.company",
          "name": "",
          "type": "tuple"
        }
      ],
      "stateMutability": "view",
      "type": "function",
      "constant": true
    },
    {
      "inputs": [],
      "name": "getAllCompany",
      "outputs": [
        {
          "components": [
            {
              "internalType": "string",
              "name": "name",
              "type": "string"
            },
            {
              "internalType": "string",
              "name": "description",
              "type": "string"
            },
            {
              "internalType": "string",
              "name": "jobInfo",
              "type": "string"
            },
            {
              "internalType": "bool",
              "name": "isActive",
              "type": "bool"
            }
          ],
          "internalType": "struct Model.company[]",
          "name": "",
          "type": "tuple[]"
        }
      ],
      "stateMutability": "view",
      "type": "function",
      "constant": true
    }
  ],
  "bytecode": "0x60806040523480156200001157600080fd5b506200001c62000036565b620000266200022e565b62000030620003de565b620005a9565b604080516080810182526001818301908152600360fc1b60608301528152815180830190925260068252653932b1ba37b960d11b6020808401919091528082019290925280518051919260009262000092928492019062000442565b506020828101518051620000ad926001850192019062000442565b5050604080516080810182526001818301908152603160f81b606083015281528151808301909252600c82526b105051195c185c9d1b595b9d60a21b6020808401919091528082019290925280518051919350600292620001149284929091019062000442565b5060208281015180516200012f926001850192019062000442565b5050604080516080810182526001818301908152601960f91b60608301528152815180830190925260078252661cdd1d59195b9d60ca1b6020808401919091528082019290925280518051919350600492620001919284929091019062000442565b506020828101518051620001ac926001850192019062000442565b5050604080516080810182526001818301908152603360f81b6060830152815281518083019092526007825266636f6d70616e7960c81b60208084019190915280820192909252805180519193506006926200020e9284929091019062000442565b50602082810151805162000229926001850192019062000442565b505050565b6200025a6040518060800160405280606081526020016060815260200160608152602001606081525090565b604080518082018252601581527f504753205453204e677579656e205669657420486100000000000000000000006020808301919091529083528151808301835260048152630c4e4dcd60e21b818301528382015281518083018352600a80825269181c9c1c989a99191a9960b11b8284015284840191909152825180840184526009815268199c9bdb480c8c0c4d60ba1b818401526060850152336000908152908252919091208251805184936200031892849291019062000442565b50602082810151805162000333926001850192019062000442565b50604082015180516200035191600284019160209091019062000442565b50606082015180516200036f91600384019160209091019062000442565b50503360009081526008602052604081208154919250908190839062000395906200056c565b620003a2929190620004d1565b506001820181600101908054620003b9906200056c565b620003c6929190620004d1565b5050600980546001600160a01b031916331790555050565b6040518060600160405280602481526020016200553a6024913980516200040e91600b9160209091019062000442565b506040518060800160405280606081526020016200555e6060913980516200043f91600c9160209091019062000442565b50565b82805462000450906200056c565b90600052602060002090601f016020900481019282620004745760008555620004bf565b82601f106200048f57805160ff1916838001178555620004bf565b82800160010185558215620004bf579182015b82811115620004bf578251825591602001919060010190620004a2565b50620004cd92915062000555565b5090565b828054620004df906200056c565b90600052602060002090601f016020900481019282620005035760008555620004bf565b82601f10620005165780548555620004bf565b82800160010185558215620004bf57600052602060002091601f016020900482015b82811115620004bf57825482559160010191906001019062000538565b5b80821115620004cd576000815560010162000556565b600181811c908216806200058157607f821691505b60208210811415620005a357634e487b7160e01b600052602260045260246000fd5b50919050565b614f8180620005b96000396000f3fe608060405234801561001057600080fd5b50600436106101cf5760003560e01c80638cca2ec411610104578063bba12bd8116100a2578063ed7ad82611610071578063ed7ad826146103f3578063eed879eb14610406578063f14513f214610419578063fc4a74421461042c576101cf565b8063bba12bd8146103a5578063bd2456c7146103b8578063c23fd5a6146103cb578063c8059747146103de576101cf565b8063ad69d7b0116100de578063ad69d7b014610364578063b174ba8214610377578063b4363ca31461038a578063ba8805f414610392576101cf565b80638cca2ec41461030457806393b3298c146103195780639ea97d2e14610339576101cf565b80634b0875e9116101715780635d3190051161014b5780635d319005146102b557806362bc56e6146102c857806375957bc0146102db5780637d67d900146102e3576101cf565b80634b0875e91461026f57806357d13917146102825780635c6f2e08146102a2576101cf565b80632644d28f116101ad5780632644d28f1461021c5780632764d61c1461022f578063388807cf1461024f57806343ae37c314610257576101cf565b80630d2393fd146101d4578063106e3ea6146101f2578063133d046014610207575b600080fd5b6101dc61043f565b6040516101e99190614ce0565b60405180910390f35b610205610200366004614176565b610666565b005b61020f6108ce565b6040516101e99190614d34565b61020561022a36600461478c565b610e1e565b61024261023d366004614155565b6112fe565b6040516101e99190614dae565b610242611461565b61025f6115b6565b6040516101e99493929190614dd4565b61020561027d3660046146bd565b611a9e565b610295610290366004614915565b611b36565b6040516101e99190614d9b565b6102056102b03660046146bd565b611d5e565b6102056102c336600461441b565b611dcc565b6102956102d6366004614155565b611fa7565b610242612005565b6102f66102f1366004614623565b612036565b6040519081526020016101e9565b61030c61209b565b6040516101e99190614c7f565b61032c610327366004614155565b6122b9565b6040516101e99190614e2c565b60095461034c906001600160a01b031681565b6040516001600160a01b0390911681526020016101e9565b610205610372366004614915565b6127ac565b610205610385366004614740565b612856565b61020f612909565b6102056103a03660046148d3565b612f07565b6102056103b33660046142c2565b613367565b6102956103c6366004614155565b613589565b6102056103d936600461465d565b6137a5565b6103e6613821565b6040516101e99190614dc1565b61032c610401366004614623565b613abf565b61020561041436600461420a565b613b03565b61020561042736600461465d565b613c92565b61020561043a366004614915565b613eba565b60606015805480602002602001604051908101604052809291908181526020016000905b8282101561065d578382906000526020600020906004020160405180608001604052908160008201805461049690614ec9565b80601f01602080910402602001604051908101604052809291908181526020018280546104c290614ec9565b801561050f5780601f106104e45761010080835404028352916020019161050f565b820191906000526020600020905b8154815290600101906020018083116104f257829003601f168201915b5050505050815260200160018201805461052890614ec9565b80601f016020809104026020016040519081016040528092919081815260200182805461055490614ec9565b80156105a15780601f10610576576101008083540402835291602001916105a1565b820191906000526020600020905b81548152906001019060200180831161058457829003601f168201915b505050505081526020016002820180546105ba90614ec9565b80601f01602080910402602001604051908101604052809291908181526020018280546105e690614ec9565b80156106335780601f1061060857610100808354040283529160200191610633565b820191906000526020600020905b81548152906001019060200180831161061657829003601f168201915b50505091835250506003919091015460ff1615156020918201529082526001929092019101610463565b50505050905090565b6009546001600160a01b03163314806106965750336000908152600e602052604090206003015460ff1615156001145b61069f57600080fd5b6040805160008082526020808301808552835190206001600160a01b0389168352600890915290839020879391926106d79201614b9b565b60405160208183030381529060405280519060200120146106f757600080fd5b604080516080810182528581526020808201869052918101849052600160608201819052600d80549182018155600052815180519293849360049093027fd7b6990105719101dabeb77144f2a3385c8033acd3af97e9423a695e81ad1eb501926107649284920190613f52565b50602082810151805161077d9260018501920190613f52565b5060408201518051610799916002840191602090910190613f52565b50606091909101516003909101805460ff1916911515919091179055600d548690600f906000906107cc90600190614e6f565b81526020808201929092526040908101600090812080546001600160a01b0319166001600160a01b039586161790559289168352600e825290912082518051849361081b928492910190613f52565b5060208281015180516108349260018501920190613f52565b5060408201518051610850916002840191602090910190613f52565b50606091909101516003909101805460ff19169115159190911790556001600160a01b0386166000908152600860205260409020600280549091908190839061089890614ec9565b6108a3929190613fd6565b5060018201816001019080546108b890614ec9565b6108c3929190613fd6565b505050505050505050565b6009546060906001600160a01b03163314806109015750336000908152600e602052604090206003015460ff1615156001145b61090a57600080fd5b6010805480602002602001604051908101604052809291908181526020016000905b8282101561065d57838290600052602060002090600a02016040518061016001604052908160008201805461096090614ec9565b80601f016020809104026020016040519081016040528092919081815260200182805461098c90614ec9565b80156109d95780601f106109ae576101008083540402835291602001916109d9565b820191906000526020600020905b8154815290600101906020018083116109bc57829003601f168201915b505050505081526020016001820180546109f290614ec9565b80601f0160208091040260200160405190810160405280929190818152602001828054610a1e90614ec9565b8015610a6b5780601f10610a4057610100808354040283529160200191610a6b565b820191906000526020600020905b815481529060010190602001808311610a4e57829003601f168201915b50505050508152602001600282018054610a8490614ec9565b80601f0160208091040260200160405190810160405280929190818152602001828054610ab090614ec9565b8015610afd5780601f10610ad257610100808354040283529160200191610afd565b820191906000526020600020905b815481529060010190602001808311610ae057829003601f168201915b50505050508152602001600382018054610b1690614ec9565b80601f0160208091040260200160405190810160405280929190818152602001828054610b4290614ec9565b8015610b8f5780601f10610b6457610100808354040283529160200191610b8f565b820191906000526020600020905b815481529060010190602001808311610b7257829003601f168201915b50505050508152602001600482018054610ba890614ec9565b80601f0160208091040260200160405190810160405280929190818152602001828054610bd490614ec9565b8015610c215780601f10610bf657610100808354040283529160200191610c21565b820191906000526020600020905b815481529060010190602001808311610c0457829003601f168201915b50505050508152602001600582018054610c3a90614ec9565b80601f0160208091040260200160405190810160405280929190818152602001828054610c6690614ec9565b8015610cb35780601f10610c8857610100808354040283529160200191610cb3565b820191906000526020600020905b815481529060010190602001808311610c9657829003601f168201915b50505050508152602001600682018054610ccc90614ec9565b80601f0160208091040260200160405190810160405280929190818152602001828054610cf890614ec9565b8015610d455780601f10610d1a57610100808354040283529160200191610d45565b820191906000526020600020905b815481529060010190602001808311610d2857829003601f168201915b50505050508152602001600782018054610d5e90614ec9565b80601f0160208091040260200160405190810160405280929190818152602001828054610d8a90614ec9565b8015610dd75780601f10610dac57610100808354040283529160200191610dd7565b820191906000526020600020905b815481529060010190602001808311610dba57829003601f168201915b5050509183525050600882015460ff80821615156020808501919091526101009092041615156040830152600990920154606090910152908252600192909201910161092c565b336000908152600e602052604090206003015460ff161515600114610e4257600080fd5b88604051602001610e539190614b58565b6040516020818303038152906040528051906020012060128a604051610e799190614b58565b90815260405160209181900382018120610e9592909101614b9b565b60405160208183030381529060405280519060200120141589604051602001610ebe9190614c36565b60405160208183030381529060405290610ef45760405162461bcd60e51b8152600401610eeb9190614d88565b60405180910390fd5b5060006040518061016001604052808b81526020018a815260200189815260200188815260200187815260200186815260200185815260200184815260200183151581526020016000151581526020018b4244604051602001610f5993929190614b74565b60408051601f19818403018152919052805160209182012090915260108054600181018255600091909152825180519394508493600a9092027f1b6847dc741a1b0cd08d278845f9d819d87b734759afb55fe2de5cb82a9ae6720192610fc492849290910190613f52565b506020828101518051610fdd9260018501920190613f52565b5060408201518051610ff9916002840191602090910190613f52565b5060608201518051611015916003840191602090910190613f52565b5060808201518051611031916004840191602090910190613f52565b5060a0820151805161104d916005840191602090910190613f52565b5060c08201518051611069916006840191602090910190613f52565b5060e08201518051611085916007840191602090910190613f52565b506101008281015160088301805461012086015161ffff1990911692151561ff0019169290921791151590920217905561014090910151600990910155601080546110d290600190614e6f565b815481106110f057634e487b7160e01b600052603260045260246000fd5b90600052602060002090600a020160128b60405161110e9190614b58565b90815260405190819003602001902081548190839061112c90614ec9565b611137929190613fd6565b50600182018160010190805461114c90614ec9565b611157929190613fd6565b50600282018160020190805461116c90614ec9565b611177929190613fd6565b50600382018160030190805461118c90614ec9565b611197929190613fd6565b5060048201816004019080546111ac90614ec9565b6111b7929190613fd6565b5060058201816005019080546111cc90614ec9565b6111d7929190613fd6565b5060068201816006019080546111ec90614ec9565b6111f7929190613fd6565b50600782018160070190805461120c90614ec9565b611217929190613fd6565b5060088281018054918301805460ff938416151560ff19821681178355925461010090819004909416151590930261ff001990921661ffff199093169290921717905560099182015491015560105461127290600190614e6f565b60138b6040516112829190614b58565b90815260405190819003602001902055601080546112a290600190614e6f565b815481106112c057634e487b7160e01b600052603260045260246000fd5b600091825260209091206008600a90920201015460ff16156112f257601480549060006112ec83614f04565b91905055505b50505050505050505050565b60408051808201909152606080825260208201526001600160a01b038216600090815260086020526040808220815180830190925280548290829061134290614ec9565b80601f016020809104026020016040519081016040528092919081815260200182805461136e90614ec9565b80156113bb5780601f10611390576101008083540402835291602001916113bb565b820191906000526020600020905b81548152906001019060200180831161139e57829003601f168201915b505050505081526020016001820180546113d490614ec9565b80601f016020809104026020016040519081016040528092919081815260200182805461140090614ec9565b801561144d5780601f106114225761010080835404028352916020019161144d565b820191906000526020600020905b81548152906001019060200180831161143057829003601f168201915b50505091909252509193505050505b919050565b60408051808201909152606080825260208201523360009081526008602052604090819020815180830190925280548290829061149d90614ec9565b80601f01602080910402602001604051908101604052809291908181526020018280546114c990614ec9565b80156115165780601f106114eb57610100808354040283529160200191611516565b820191906000526020600020905b8154815290600101906020018083116114f957829003601f168201915b5050505050815260200160018201805461152f90614ec9565b80601f016020809104026020016040519081016040528092919081815260200182805461155b90614ec9565b80156115a85780601f1061157d576101008083540402835291602001916115a8565b820191906000526020600020905b81548152906001019060200180831161158b57829003601f168201915b505050505081525050905090565b6115e16040518060800160405280606081526020016060815260200160608152602001606081525090565b61160e60405180608001604052806060815260200160608152602001606081526020016000151581525090565b611616614051565b61164360405180608001604052806060815260200160608152602001606081526020016000151581525090565b604051600360fc1b602082015260210160408051601f19818403018152828252805160209182012033600090815260088352929092209192611686929101614b9b565b60405160208183030381529060405280519060200120141561193057336000818152600a60205260409020906116bb90613589565b6116c4336122b9565b6116cd33611fa7565b836040518060800160405290816000820180546116e990614ec9565b80601f016020809104026020016040519081016040528092919081815260200182805461171590614ec9565b80156117625780601f1061173757610100808354040283529160200191611762565b820191906000526020600020905b81548152906001019060200180831161174557829003601f168201915b5050505050815260200160018201805461177b90614ec9565b80601f01602080910402602001604051908101604052809291908181526020018280546117a790614ec9565b80156117f45780601f106117c9576101008083540402835291602001916117f4565b820191906000526020600020905b8154815290600101906020018083116117d757829003601f168201915b5050505050815260200160028201805461180d90614ec9565b80601f016020809104026020016040519081016040528092919081815260200182805461183990614ec9565b80156118865780601f1061185b57610100808354040283529160200191611886565b820191906000526020600020905b81548152906001019060200180831161186957829003601f168201915b5050505050815260200160038201805461189f90614ec9565b80601f01602080910402602001604051908101604052809291908181526020018280546118cb90614ec9565b80156119185780601f106118ed57610100808354040283529160200191611918565b820191906000526020600020905b8154815290600101906020018083116118fb57829003601f168201915b50505050508152505093509350935093509350611a98565b604051603160f81b602082015260210160408051601f19818403018152828252805160209182012033600090815260088352929092209192611973929101614b9b565b6040516020818303038152906040528051906020012014156119a857336000818152600a60205260409020906116bb90613589565b604051601960f91b602082015260210160408051601f198184030181528282528051602091820120336000908152600883529290922091926119eb929101614b9b565b604051602081830303815290604052805190602001201415611a2057336000818152600a60205260409020906116bb90613589565b604051603360f81b602082015260210160408051601f19818403018152828252805160209182012033600090815260088352929092209192611a63929101614b9b565b604051602081830303815290604052805190602001201415611a9857336000818152600a60205260409020906116bb90613589565b90919293565b336000908152600e602052604090206003015460ff161515600114611ac257600080fd5b336000908152600e602090815260409091208451611ae292860190613f52565b50336000908152600e602090815260409091208351611b0992600190920191850190613f52565b50336000908152600e602090815260409091208251611b3092600290920191840190613f52565b50505050565b611b6360405180608001604052806060815260200160608152602001606081526020016000151581525090565b6000828152601760209081526040808320546001600160a01b031683526016909152808220815160808101909252805482908290611ba090614ec9565b80601f0160208091040260200160405190810160405280929190818152602001828054611bcc90614ec9565b8015611c195780601f10611bee57610100808354040283529160200191611c19565b820191906000526020600020905b815481529060010190602001808311611bfc57829003601f168201915b50505050508152602001600182018054611c3290614ec9565b80601f0160208091040260200160405190810160405280929190818152602001828054611c5e90614ec9565b8015611cab5780601f10611c8057610100808354040283529160200191611cab565b820191906000526020600020905b815481529060010190602001808311611c8e57829003601f168201915b50505050508152602001600282018054611cc490614ec9565b80601f0160208091040260200160405190810160405280929190818152602001828054611cf090614ec9565b8015611d3d5780601f10611d1257610100808354040283529160200191611d3d565b820191906000526020600020905b815481529060010190602001808311611d2057829003601f168201915b50505091835250506003919091015460ff1615156020909101529392505050565b3360009081526016602090815260409091208451611d7e92860190613f52565b503360009081526016602090815260409091208351611da592600190920191850190613f52565b503360009081526016602090815260409091208251611b3092600290920191840190613f52565b336000908152600e602052604090206003015460ff161515600114611df057600080fd5b60005b8151811015611fa357611f91828281518110611e1f57634e487b7160e01b600052603260045260246000fd5b602002602001015160000151838381518110611e4b57634e487b7160e01b600052603260045260246000fd5b602002602001015160200151848481518110611e7757634e487b7160e01b600052603260045260246000fd5b602002602001015160400151858581518110611ea357634e487b7160e01b600052603260045260246000fd5b602002602001015160600151868681518110611ecf57634e487b7160e01b600052603260045260246000fd5b602002602001015160800151878781518110611efb57634e487b7160e01b600052603260045260246000fd5b602002602001015160a00151888881518110611f2757634e487b7160e01b600052603260045260246000fd5b602002602001015160c00151898981518110611f5357634e487b7160e01b600052603260045260246000fd5b602002602001015160e001518a8a81518110611f7f57634e487b7160e01b600052603260045260246000fd5b60200260200101516101000151610e1e565b80611f9b81614f04565b915050611df3565b5050565b611fd460405180608001604052806060815260200160608152602001606081526020016000151581525090565b6001600160a01b038216600090815260166020526040808220815160808101909252805482908290611ba090614ec9565b6040805180820190915260608082526020820152600b60405180604001604052908160008201805461149d90614ec9565b6009546000906001600160a01b03163314806120695750336000908152600e602052604090206003015460ff1615156001145b61207257600080fd5b6012826040516120829190614b58565b9081526020016040518091039020600901549050919050565b6060600d805480602002602001604051908101604052809291908181526020016000905b8282101561065d57838290600052602060002090600402016040518060800160405290816000820180546120f290614ec9565b80601f016020809104026020016040519081016040528092919081815260200182805461211e90614ec9565b801561216b5780601f106121405761010080835404028352916020019161216b565b820191906000526020600020905b81548152906001019060200180831161214e57829003601f168201915b5050505050815260200160018201805461218490614ec9565b80601f01602080910402602001604051908101604052809291908181526020018280546121b090614ec9565b80156121fd5780601f106121d2576101008083540402835291602001916121fd565b820191906000526020600020905b8154815290600101906020018083116121e057829003601f168201915b5050505050815260200160028201805461221690614ec9565b80601f016020809104026020016040519081016040528092919081815260200182805461224290614ec9565b801561228f5780601f106122645761010080835404028352916020019161228f565b820191906000526020600020905b81548152906001019060200180831161227257829003601f168201915b50505091835250506003919091015460ff16151560209182015290825260019290920191016120bf565b6122c1614051565b6001600160a01b038216600090815260116020526040808220815161016081019092528054829082906122f390614ec9565b80601f016020809104026020016040519081016040528092919081815260200182805461231f90614ec9565b801561236c5780601f106123415761010080835404028352916020019161236c565b820191906000526020600020905b81548152906001019060200180831161234f57829003601f168201915b5050505050815260200160018201805461238590614ec9565b80601f01602080910402602001604051908101604052809291908181526020018280546123b190614ec9565b80156123fe5780601f106123d3576101008083540402835291602001916123fe565b820191906000526020600020905b8154815290600101906020018083116123e157829003601f168201915b5050505050815260200160028201805461241790614ec9565b80601f016020809104026020016040519081016040528092919081815260200182805461244390614ec9565b80156124905780601f1061246557610100808354040283529160200191612490565b820191906000526020600020905b81548152906001019060200180831161247357829003601f168201915b505050505081526020016003820180546124a990614ec9565b80601f01602080910402602001604051908101604052809291908181526020018280546124d590614ec9565b80156125225780601f106124f757610100808354040283529160200191612522565b820191906000526020600020905b81548152906001019060200180831161250557829003601f168201915b5050505050815260200160048201805461253b90614ec9565b80601f016020809104026020016040519081016040528092919081815260200182805461256790614ec9565b80156125b45780601f10612589576101008083540402835291602001916125b4565b820191906000526020600020905b81548152906001019060200180831161259757829003601f168201915b505050505081526020016005820180546125cd90614ec9565b80601f01602080910402602001604051908101604052809291908181526020018280546125f990614ec9565b80156126465780601f1061261b57610100808354040283529160200191612646565b820191906000526020600020905b81548152906001019060200180831161262957829003601f168201915b5050505050815260200160068201805461265f90614ec9565b80601f016020809104026020016040519081016040528092919081815260200182805461268b90614ec9565b80156126d85780601f106126ad576101008083540402835291602001916126d8565b820191906000526020600020905b8154815290600101906020018083116126bb57829003601f168201915b505050505081526020016007820180546126f190614ec9565b80601f016020809104026020016040519081016040528092919081815260200182805461271d90614ec9565b801561276a5780601f1061273f5761010080835404028352916020019161276a565b820191906000526020600020905b81548152906001019060200180831161274d57829003601f168201915b5050509183525050600882015460ff80821615156020840152610100909104161515604082015260099091015460609091015260006101408201529392505050565b6009546001600160a01b03163314806127dc5750336000908152600e602052604090206003015460ff1615156001145b6127e557600080fd5b6000600d828154811061280857634e487b7160e01b600052603260045260246000fd5b6000918252602080832060036004909302018201805494151560ff19958616179055938252600f84526040808320546001600160a01b03168352600e90945292902090910180549091169055565b6009546001600160a01b0316331461286d57600080fd5b336000908152600a60209081526040909120855161288d92870190613f52565b50336000908152600a6020908152604090912084516128b492600190920191860190613f52565b50336000908152600a6020908152604090912083516128db92600290920191850190613f52565b50336000908152600a60209081526040909120825161290292600390920191840190613f52565b5050505050565b606060006014546001600160401b0381111561293557634e487b7160e01b600052604160045260246000fd5b60405190808252806020026020018201604052801561296e57816020015b61295b614051565b8152602001906001900390816129535790505b5090506000805b601054811015612eff57601081815481106129a057634e487b7160e01b600052603260045260246000fd5b600091825260209091206008600a90920201015460ff1615612eed57601081815481106129dd57634e487b7160e01b600052603260045260246000fd5b90600052602060002090600a020160405180610160016040529081600082018054612a0790614ec9565b80601f0160208091040260200160405190810160405280929190818152602001828054612a3390614ec9565b8015612a805780601f10612a5557610100808354040283529160200191612a80565b820191906000526020600020905b815481529060010190602001808311612a6357829003601f168201915b50505050508152602001600182018054612a9990614ec9565b80601f0160208091040260200160405190810160405280929190818152602001828054612ac590614ec9565b8015612b125780601f10612ae757610100808354040283529160200191612b12565b820191906000526020600020905b815481529060010190602001808311612af557829003601f168201915b50505050508152602001600282018054612b2b90614ec9565b80601f0160208091040260200160405190810160405280929190818152602001828054612b5790614ec9565b8015612ba45780601f10612b7957610100808354040283529160200191612ba4565b820191906000526020600020905b815481529060010190602001808311612b8757829003601f168201915b50505050508152602001600382018054612bbd90614ec9565b80601f0160208091040260200160405190810160405280929190818152602001828054612be990614ec9565b8015612c365780601f10612c0b57610100808354040283529160200191612c36565b820191906000526020600020905b815481529060010190602001808311612c1957829003601f168201915b50505050508152602001600482018054612c4f90614ec9565b80601f0160208091040260200160405190810160405280929190818152602001828054612c7b90614ec9565b8015612cc85780601f10612c9d57610100808354040283529160200191612cc8565b820191906000526020600020905b815481529060010190602001808311612cab57829003601f168201915b50505050508152602001600582018054612ce190614ec9565b80601f0160208091040260200160405190810160405280929190818152602001828054612d0d90614ec9565b8015612d5a5780601f10612d2f57610100808354040283529160200191612d5a565b820191906000526020600020905b815481529060010190602001808311612d3d57829003601f168201915b50505050508152602001600682018054612d7390614ec9565b80601f0160208091040260200160405190810160405280929190818152602001828054612d9f90614ec9565b8015612dec5780601f10612dc157610100808354040283529160200191612dec565b820191906000526020600020905b815481529060010190602001808311612dcf57829003601f168201915b50505050508152602001600782018054612e0590614ec9565b80601f0160208091040260200160405190810160405280929190818152602001828054612e3190614ec9565b8015612e7e5780601f10612e5357610100808354040283529160200191612e7e565b820191906000526020600020905b815481529060010190602001808311612e6157829003601f168201915b5050509183525050600882015460ff8082161515602084015261010090910416151560408201526009909101546060909101528351849084908110612ed357634e487b7160e01b600052603260045260246000fd5b60200260200101819052508180612ee990614f04565b9250505b80612ef781614f04565b915050612975565b509091505090565b6040805160008082526020808301808552835190203380845260089092529184902090939192612f379201614b9b565b6040516020818303038152906040528051906020012014612f5757600080fd5b601283604051612f679190614b58565b9081526020016040518091039020600901548214612f8457600080fd5b601283604051612f949190614b58565b908152604080516020928190038301902033600090815260119093529120815481908390612fc190614ec9565b612fcc929190613fd6565b506001820181600101908054612fe190614ec9565b612fec929190613fd6565b50600282018160020190805461300190614ec9565b61300c929190613fd6565b50600382018160030190805461302190614ec9565b61302c929190613fd6565b50600482018160040190805461304190614ec9565b61304c929190613fd6565b50600582018160050190805461306190614ec9565b61306c929190613fd6565b50600682018160060190805461308190614ec9565b61308c929190613fd6565b5060078201816007019080546130a190614ec9565b6130ac929190613fd6565b5060088281018054918301805460ff938416151560ff19821681178355925461010090819004909416151590930261ff001990921661ffff199093169290921717905560099182015491015560405160019060129061310c908690614b58565b908152602001604051809103902060080160016101000a81548160ff021916908315150217905550600160106013856040516131489190614b58565b9081526020016040518091039020548154811061317557634e487b7160e01b600052603260045260246000fd5b600091825260208083206008600a9390930201820180549415156101000261ff0019909516949094179093553382529091526040902060048054909190819083906131bf90614ec9565b6131ca929190613fd6565b5060018201816001019080546131df90614ec9565b6131ea929190613fd6565b509050506012836040516131fe9190614b58565b90815260408051602092819003830190203360009081526011909352912081548190839061322b90614ec9565b613236929190613fd6565b50600182018160010190805461324b90614ec9565b613256929190613fd6565b50600282018160020190805461326b90614ec9565b613276929190613fd6565b50600382018160030190805461328b90614ec9565b613296929190613fd6565b5060048201816004019080546132ab90614ec9565b6132b6929190613fd6565b5060058201816005019080546132cb90614ec9565b6132d6929190613fd6565b5060068201816006019080546132eb90614ec9565b6132f6929190613fd6565b50600782018160070190805461330b90614ec9565b613316929190613fd6565b5060088281018054918301805460ff938416151560ff19821681178355925461010090819004909416151590930261ff001990921661ffff1990931692909217179055600991820154910155505050565b6009546001600160a01b03163314806133975750336000908152600e602052604090206003015460ff1615156001145b6133a057600080fd5b886040516020016133b19190614b58565b6040516020818303038152906040528051906020012060128a6040516133d79190614b58565b908152604051602091819003820181206133f392909101614b9b565b6040516020818303038152906040528051906020012014158960405160200161341c9190614c36565b604051602081830303815290604052906134495760405162461bcd60e51b8152600401610eeb9190614d88565b506001600160a01b038a1660009081526011602090815260409091208a5190916134779183918d0190613f52565b50885161348d90600183019060208c0190613f52565b5087516134a390600283019060208b0190613f52565b5086516134b990600383019060208a0190613f52565b5085516134cf9060048301906020890190613f52565b5084516134e59060058301906020880190613f52565b5083516134fb9060068301906020870190613f52565b5082516135119060078301906020860190613f52565b50600881015460ff168015613524575081155b1561353f576014805490600061353983614eb2565b91905055505b600881015460ff161580156135515750815b1561356c576014805490600061356683614f04565b91905055505b600801805460ff1916911515919091179055505050505050505050565b6135b660405180608001604052806060815260200160608152602001606081526020016000151581525090565b6001600160a01b0382166000908152600e6020526040908190208151608081019092528054829082906135e890614ec9565b80601f016020809104026020016040519081016040528092919081815260200182805461361490614ec9565b80156136615780601f1061363657610100808354040283529160200191613661565b820191906000526020600020905b81548152906001019060200180831161364457829003601f168201915b5050505050815260200160018201805461367a90614ec9565b80601f01602080910402602001604051908101604052809291908181526020018280546136a690614ec9565b80156136f35780601f106136c8576101008083540402835291602001916136f3565b820191906000526020600020905b8154815290600101906020018083116136d657829003601f168201915b5050505050815260200160028201805461370c90614ec9565b80601f016020809104026020016040519081016040528092919081815260200182805461373890614ec9565b80156137855780601f1061375a57610100808354040283529160200191613785565b820191906000526020600020905b81548152906001019060200180831161376857829003601f168201915b50505091835250506003919091015460ff16151560209091015292915050565b3360009081526011602052604090206008015460ff6101009091041615156001146137cf57600080fd5b33600090815260116020908152604090912083516137f592600290920191850190613f52565b50336000908152601160209081526040909120825161381c92600490920191840190613f52565b505050565b61384c6040518060800160405280606081526020016060815260200160608152602001606081525090565b6009546001600160a01b03166000908152600a602052604080822081516080810190925280548290829061387f90614ec9565b80601f01602080910402602001604051908101604052809291908181526020018280546138ab90614ec9565b80156138f85780601f106138cd576101008083540402835291602001916138f8565b820191906000526020600020905b8154815290600101906020018083116138db57829003601f168201915b5050505050815260200160018201805461391190614ec9565b80601f016020809104026020016040519081016040528092919081815260200182805461393d90614ec9565b801561398a5780601f1061395f5761010080835404028352916020019161398a565b820191906000526020600020905b81548152906001019060200180831161396d57829003601f168201915b505050505081526020016002820180546139a390614ec9565b80601f01602080910402602001604051908101604052809291908181526020018280546139cf90614ec9565b8015613a1c5780601f106139f157610100808354040283529160200191613a1c565b820191906000526020600020905b8154815290600101906020018083116139ff57829003601f168201915b50505050508152602001600382018054613a3590614ec9565b80601f0160208091040260200160405190810160405280929190818152602001828054613a6190614ec9565b8015613aae5780601f10613a8357610100808354040283529160200191613aae565b820191906000526020600020905b815481529060010190602001808311613a9157829003601f168201915b505050919092525091935050505090565b613ac7614051565b6000601283604051613ad99190614b58565b9081526020016040518091039020604051806101600160405290816000820180546122f390614ec9565b6009546001600160a01b03163314613b1a57600080fd5b6040805160008082526020808301808552835190206001600160a01b038a16835260089091529083902088939192613b529201614b9b565b6040516020818303038152906040528051906020012014613b7257600080fd5b604080516080810182528681526020808201879052818301869052606082018590526001600160a01b0389166000908152600a8252929092208151805192938493613bc09284920190613f52565b506020828101518051613bd99260018501920190613f52565b5060408201518051613bf5916002840191602090910190613f52565b5060608201518051613c11916003840191602090910190613f52565b5050506001600160a01b0387166000908152600860205260408120815481908390613c3b90614ec9565b613c46929190613fd6565b506001820181600101908054613c5b90614ec9565b613c66929190613fd6565b5050600980546001600160a01b0319166001600160a01b03999099169890981790975550505050505050565b6040805160008082526020808301808552835190203380845260089092529184902090939192613cc29201614b9b565b6040516020818303038152906040528051906020012014613ce257600080fd5b6040805160808101825284815260208082018590528251808201845260008082529383015260608201839052601580546001810182559352815180519293849360049091027f55f448fdea98c4d29eb340757ef0a66cd03dbb9538908a6a81d96026b71ec4750192613d58928492910190613f52565b506020828101518051613d719260018501920190613f52565b5060408201518051613d8d916002840191602090910190613f52565b50606091909101516003909101805460ff19169115159190911790556015543390601790600090613dc090600190614e6f565b81526020808201929092526040908101600090812080546001600160a01b0319166001600160a01b03959095169490941790935533835260168252909120825180518493613e12928492910190613f52565b506020828101518051613e2b9260018501920190613f52565b5060408201518051613e47916002840191602090910190613f52565b50606091909101516003909101805460ff19169115159190911790553360009081526008602052604090206006805490919081908390613e8690614ec9565b613e91929190613fd6565b506001820181600101908054613ea690614ec9565b613eb1929190613fd6565b50505050505050565b336000908152600e602052604090206003015460ff161515600114613ede57600080fd5b600160158281548110613f0157634e487b7160e01b600052603260045260246000fd5b6000918252602080832060036004909302018201805494151560ff19958616179055938252601784526040808320546001600160a01b03168352601690945292902090910180549091166001179055565b828054613f5e90614ec9565b90600052602060002090601f016020900481019282613f805760008555613fc6565b82601f10613f9957805160ff1916838001178555613fc6565b82800160010185558215613fc6579182015b82811115613fc6578251825591602001919060010190613fab565b50613fd29291506140af565b5090565b828054613fe290614ec9565b90600052602060002090601f0160209004810192826140045760008555613fc6565b82601f106140155780548555613fc6565b82800160010185558215613fc657600052602060002091601f016020900482015b82811115613fc6578254825591600101919060010190614036565b6040518061016001604052806060815260200160608152602001606081526020016060815260200160608152602001606081526020016060815260200160608152602001600015158152602001600015158152602001600081525090565b5b80821115613fd257600081556001016140b0565b80356001600160a01b038116811461145c57600080fd5b8035801515811461145c57600080fd5b600082601f8301126140fb578081fd5b81356001600160401b0381111561411457614114614f35565b614127601f8201601f1916602001614e3f565b81815284602083860101111561413b578283fd5b816020850160208301379081016020019190915292915050565b600060208284031215614166578081fd5b61416f826140c4565b9392505050565b6000806000806080858703121561418b578283fd5b614194856140c4565b935060208501356001600160401b03808211156141af578485fd5b6141bb888389016140eb565b945060408701359150808211156141d0578384fd5b6141dc888389016140eb565b935060608701359150808211156141f1578283fd5b506141fe878288016140eb565b91505092959194509250565b600080600080600060a08688031215614221578081fd5b61422a866140c4565b945060208601356001600160401b0380821115614245578283fd5b61425189838a016140eb565b95506040880135915080821115614266578283fd5b61427289838a016140eb565b94506060880135915080821115614287578283fd5b61429389838a016140eb565b935060808801359150808211156142a8578283fd5b506142b5888289016140eb565b9150509295509295909350565b6000806000806000806000806000806101408b8d0312156142e1578485fd5b6142ea8b6140c4565b995060208b01356001600160401b0380821115614305578687fd5b6143118e838f016140eb565b9a5060408d0135915080821115614326578687fd5b6143328e838f016140eb565b995060608d0135915080821115614347578687fd5b6143538e838f016140eb565b985060808d0135915080821115614368578687fd5b6143748e838f016140eb565b975060a08d0135915080821115614389578687fd5b6143958e838f016140eb565b965060c08d01359150808211156143aa578586fd5b6143b68e838f016140eb565b955060e08d01359150808211156143cb578485fd5b6143d78e838f016140eb565b94506101008d01359150808211156143ed578384fd5b506143fa8d828e016140eb565b92505061440a6101208c016140db565b90509295989b9194979a5092959850565b6000602080838503121561442d578182fd5b82356001600160401b0380821115614443578384fd5b818501915085601f830112614456578384fd5b81358181111561446857614468614f35565b614476848260051b01614e3f565b81815284810190848601875b84811015614614578135870161016080601f19838f030112156144a3578a8bfd5b6144ac81614e3f565b8a830135898111156144bc578c8dfd5b6144ca8f8d838701016140eb565b8252506040830135898111156144de578c8dfd5b6144ec8f8d838701016140eb565b8c83015250606083013589811115614502578c8dfd5b6145108f8d838701016140eb565b604083015250608083013589811115614527578c8dfd5b6145358f8d838701016140eb565b60608301525060a08301358981111561454c578c8dfd5b61455a8f8d838701016140eb565b60808301525060c083013589811115614571578c8dfd5b61457f8f8d838701016140eb565b60a08301525060e083013589811115614596578c8dfd5b6145a48f8d838701016140eb565b60c083015250610100830135898111156145bc578c8dfd5b6145ca8f8d838701016140eb565b60e0830152506101206145de8185016140db565b6101008301526101406145f28186016140db565b9183019190915291909201359082015284529287019290870190600101614482565b50909998505050505050505050565b600060208284031215614634578081fd5b81356001600160401b03811115614649578182fd5b614655848285016140eb565b949350505050565b6000806040838503121561466f578182fd5b82356001600160401b0380821115614685578384fd5b614691868387016140eb565b935060208501359150808211156146a6578283fd5b506146b3858286016140eb565b9150509250929050565b6000806000606084860312156146d1578283fd5b83356001600160401b03808211156146e7578485fd5b6146f3878388016140eb565b94506020860135915080821115614708578384fd5b614714878388016140eb565b93506040860135915080821115614729578283fd5b50614736868287016140eb565b9150509250925092565b60008060008060808587031215614755578384fd5b84356001600160401b038082111561476b578586fd5b614777888389016140eb565b955060208701359150808211156141af578485fd5b60008060008060008060008060006101208a8c0312156147aa578283fd5b89356001600160401b03808211156147c0578485fd5b6147cc8d838e016140eb565b9a5060208c01359150808211156147e1578485fd5b6147ed8d838e016140eb565b995060408c0135915080821115614802578485fd5b61480e8d838e016140eb565b985060608c0135915080821115614823578485fd5b61482f8d838e016140eb565b975060808c0135915080821115614844578485fd5b6148508d838e016140eb565b965060a08c0135915080821115614865578485fd5b6148718d838e016140eb565b955060c08c0135915080821115614886578485fd5b6148928d838e016140eb565b945060e08c01359150808211156148a7578384fd5b506148b48c828d016140eb565b9250506148c46101008b016140db565b90509295985092959850929598565b600080604083850312156148e5578182fd5b82356001600160401b038111156148fa578283fd5b614906858286016140eb565b95602094909401359450505050565b600060208284031215614926578081fd5b5035919050565b60008151808452614945816020860160208601614e86565b601f01601f19169290920160200192915050565b600081516080845261496e608085018261492d565b905060208301518482036020860152614987828261492d565b915050604083015184820360408601526149a1828261492d565b9150506060830151151560608501528091505092915050565b60008151604084526149cf604085018261492d565b9050602083015184820360208601526149e8828261492d565b95945050505050565b6000815160808452614a06608085018261492d565b905060208301518482036020860152614a1f828261492d565b91505060408301518482036040860152614a39828261492d565b915050606083015184820360608601526149e8828261492d565b60006101608251818552614a698286018261492d565b91505060208301518482036020860152614a83828261492d565b91505060408301518482036040860152614a9d828261492d565b91505060608301518482036060860152614ab7828261492d565b91505060808301518482036080860152614ad1828261492d565b91505060a083015184820360a0860152614aeb828261492d565b91505060c083015184820360c0860152614b05828261492d565b91505060e083015184820360e0860152614b1f828261492d565b91505061010080840151614b368287018215159052565b5050610120838101511515908501526101409283015192909301919091525090565b60008251614b6a818460208701614e86565b9190910192915050565b60008451614b86818460208901614e86565b91909101928352506020820152604001919050565b600080835482600182811c915080831680614bb757607f831692505b6020808410821415614bd757634e487b7160e01b87526022600452602487fd5b818015614beb5760018114614bfc57614c28565b60ff19861689528489019650614c28565b60008a815260209020885b86811015614c205781548b820152908501908301614c07565b505084890196505b509498975050505050505050565b600067029ba3ab232b73a160c51b82528251614c59816008850160208701614e86565b6e20616c72656164792065786973747360881b6008939091019283015250601701919050565b6000602080830181845280855180835260408601915060408160051b8701019250838701855b82811015614cd357603f19888603018452614cc1858351614959565b94509285019290850190600101614ca5565b5092979650505050505050565b6000602080830181845280855180835260408601915060408160051b8701019250838701855b82811015614cd357603f19888603018452614d22858351614959565b94509285019290850190600101614d06565b6000602080830181845280855180835260408601915060408160051b8701019250838701855b82811015614cd357603f19888603018452614d76858351614a53565b94509285019290850190600101614d5a565b60006020825261416f602083018461492d565b60006020825261416f6020830184614959565b60006020825261416f60208301846149ba565b60006020825261416f60208301846149f1565b600060808252614de760808301876149f1565b8281036020840152614df98187614959565b90508281036040840152614e0d8186614a53565b90508281036060840152614e218185614959565b979650505050505050565b60006020825261416f6020830184614a53565b604051601f8201601f191681016001600160401b0381118282101715614e6757614e67614f35565b604052919050565b600082821015614e8157614e81614f1f565b500390565b60005b83811015614ea1578181015183820152602001614e89565b83811115611b305750506000910152565b600081614ec157614ec1614f1f565b506000190190565b600181811c90821680614edd57607f821691505b60208210811415614efe57634e487b7160e01b600052602260045260246000fd5b50919050565b6000600019821415614f1857614f18614f1f565b5060010190565b634e487b7160e01b600052601160045260246000fd5b634e487b7160e01b600052604160045260246000fdfea2646970667358221220041dc1fafea24d0e30ccc3bb1c3f22dfc3e1efa0b218dece40ef988f0c2ca26e64736f6c63430008030033453320313434205875616e2054687579202d204361752047696179202d204861204e6f69207468616d206d7575206769757020766965632048696575207472756f6e672074687563206869656e20636f6e6720746163207665207861792064756e672c207175616e206c7920636163206368756f6e67207472696e682064616f2074616f",
  "immutableReferences": {},
  "source": "// SPDX-License-Identifier: MIT\npragma solidity >=0.7.0 <0.9.0;\n\nimport \"./SetGrade.sol\";\nimport \"./Model.sol\";\n\ncontract User {\n    constructor() {\n        setRole();\n        setRector();\n        setAADepartmentAcc();\n    }\n\n    Model.role[4] roleList;\n    mapping(address => Model.role) userRole;\n\n    function getCurrentUserRole() public view returns (Model.role memory) {\n        return userRole[msg.sender];\n    }\n\n    function getCurrentUserRoleByAddr(address _addr)\n        public\n        view\n        returns (Model.role memory)\n    {\n        Model.role memory roleTemp = userRole[_addr];\n        return roleTemp;\n    }\n\n    function getCurrentUser()\n        public\n        view\n        returns (\n            Model.rector memory,\n            Model.AADUser memory,\n            Model.student memory,\n            Model.company memory\n        )\n    {\n        if (\n            keccak256(abi.encodePacked(userRole[msg.sender].id)) ==\n            keccak256(abi.encodePacked(\"0\"))\n        ) {\n            return (\n                rectorDetail[msg.sender],\n                getAADepartmentUser(msg.sender),\n                getStudentByAddr(msg.sender),\n                getCompany(msg.sender)\n            );\n        } else if (\n            keccak256(abi.encodePacked(userRole[msg.sender].id)) ==\n            keccak256(abi.encodePacked(\"1\"))\n        ) {\n            return (\n                rectorDetail[msg.sender],\n                getAADepartmentUser(msg.sender),\n                getStudentByAddr(msg.sender),\n                getCompany(msg.sender)\n            );\n        } else if (\n            keccak256(abi.encodePacked(userRole[msg.sender].id)) ==\n            keccak256(abi.encodePacked(\"2\"))\n        ) {\n            return (\n                rectorDetail[msg.sender],\n                getAADepartmentUser(msg.sender),\n                getStudentByAddr(msg.sender),\n                getCompany(msg.sender)\n            );\n        } else if (\n            keccak256(abi.encodePacked(userRole[msg.sender].id)) ==\n            keccak256(abi.encodePacked(\"3\"))\n        ) {\n            return (\n                rectorDetail[msg.sender],\n                getAADepartmentUser(msg.sender),\n                getStudentByAddr(msg.sender),\n                getCompany(msg.sender)\n            );\n        }\n    }\n\n    // modifier onlyUser(address _address) {\n    //     require(msg.sender == _address || msg.sender == currentRectorAddress);\n    //     _;\n    // }\n\n    modifier onlyNoRole(address _address) {\n        require(\n            keccak256(abi.encodePacked(userRole[_address].id)) ==\n                keccak256(abi.encodePacked(\"\"))\n        );\n        _;\n    }\n\n    function setRole() private {\n        roleList[0] = (Model.role(\"0\", \"rector\"));\n        roleList[1] = (Model.role(\"1\", \"AADepartment\"));\n        roleList[2] = (Model.role(\"2\", \"student\"));\n        roleList[3] = (Model.role(\"3\", \"company\"));\n    }\n\n    address public currentRectorAddress;\n\n    mapping(address => Model.rector) rectorDetail;\n\n    modifier onlyCurrentRector() {\n        require(msg.sender == currentRectorAddress);\n        _;\n    }\n\n    function setRector() private {\n        Model.rector memory rectorTemp;\n        rectorTemp.name = \"PGS TS Nguyen Viet Ha\";\n        rectorTemp.date = \"1974\";\n        rectorTemp.phone = \"0989152252\";\n        rectorTemp.term = \"from 2014\";\n        rectorDetail[msg.sender] = rectorTemp;\n        userRole[msg.sender] = roleList[0];\n\n        currentRectorAddress = msg.sender;\n    }\n\n    function getCurrentRector() public view returns (Model.rector memory) {\n        Model.rector memory currentRector = rectorDetail[currentRectorAddress];\n        return currentRector;\n    }\n\n    function createNewRector(\n        address _newRectorAddr,\n        string memory _name,\n        string memory _date,\n        string memory _phone,\n        string memory _term\n    ) public onlyCurrentRector onlyNoRole(_newRectorAddr) {\n        Model.rector memory newRector =\n            Model.rector(_name, _date, _phone, _term);\n\n        rectorDetail[_newRectorAddr] = newRector;\n        userRole[_newRectorAddr] = roleList[0];\n\n        currentRectorAddress = _newRectorAddr;\n    }\n\n    function updateCurrentRector(\n        string memory _name,\n        string memory _date,\n        string memory _phone,\n        string memory _term\n    ) public onlyCurrentRector {\n        rectorDetail[msg.sender].name = _name;\n        rectorDetail[msg.sender].date = _date;\n        rectorDetail[msg.sender].phone = _phone;\n        rectorDetail[msg.sender].term = _term;\n    }\n\n    Model.AADepartment AADepartmentAcc;\n\n    Model.AADUser[] AADUserList;\n    mapping(address => Model.AADUser) AADUsers;\n    mapping(uint256 => address) ADDUserIdToAddr;\n\n    modifier onlyAADepartmentUser() {\n        require(AADUsers[msg.sender].isActive == true);\n        _;\n    }\n\n    modifier onlyRectorOrAAD() {\n        require(\n            msg.sender == currentRectorAddress ||\n                AADUsers[msg.sender].isActive == true\n        );\n        _;\n    }\n\n    function setAADepartmentAcc() private {\n        AADepartmentAcc.realAddress = \"E3 144 Xuan Thuy - Cau Giay - Ha Noi\";\n        AADepartmentAcc\n            .description = \" tham muu giup viec Hieu truong thuc hien cong tac ve xay dung, quan ly cac chuong trinh dao tao\";\n    }\n\n    function getAADepartmentAcc()\n        public\n        view\n        returns (Model.AADepartment memory)\n    {\n        return AADepartmentAcc;\n    }\n\n    function createAADepartmentUser(\n        address _address,\n        string memory _name,\n        string memory _date,\n        string memory _phone\n    ) public onlyRectorOrAAD onlyNoRole(_address) {\n        Model.AADUser memory temp = Model.AADUser(_name, _date, _phone, true);\n        AADUserList.push(temp);\n        ADDUserIdToAddr[AADUserList.length - 1] = _address;\n        AADUsers[_address] = temp;\n\n        userRole[_address] = roleList[1];\n    }\n\n    function updateAADepartmentUser(\n        string memory _name,\n        string memory _date,\n        string memory _phone\n    ) public {\n        require(AADUsers[msg.sender].isActive == true);\n        AADUsers[msg.sender].name = _name;\n        AADUsers[msg.sender].date = _date;\n        AADUsers[msg.sender].phone = _phone;\n    }\n\n    function deactiveAADepartmentUser(uint256 _AADUserId)\n        public\n        onlyRectorOrAAD\n    {\n        AADUserList[_AADUserId].isActive = false;\n        AADUsers[ADDUserIdToAddr[_AADUserId]].isActive = false;\n    }\n\n    function getAADepartmentUser(address _userAddress)\n        public\n        view\n        returns (Model.AADUser memory)\n    {\n        return AADUsers[_userAddress];\n    }\n\n    function getAllAADepartmentUsers()\n        public\n        view\n        returns (Model.AADUser[] memory)\n    {\n        return AADUserList;\n    }\n\n    Model.student[] studentList;\n    mapping(address => Model.student) studentDetails;\n    mapping(string => Model.student) idToStudent;\n    mapping(string => uint256) studentIdToIndex;\n\n    uint256 qualifiedStudentNumber;\n\n    modifier onlyStudent() {\n        require(studentDetails[msg.sender].isActive == true);\n        _;\n    }\n\n    function createStudent(\n        string memory _id,\n        string memory _name,\n        string memory _email,\n        string memory _date,\n        string memory _phone,\n        string memory _class,\n        string memory _major,\n        string memory _cpa,\n        bool _qualifiedForGraduation\n    ) public onlyAADepartmentUser {\n        require(\n            keccak256(abi.encodePacked(idToStudent[_id].id)) !=\n                keccak256(abi.encodePacked(_id)),\n            string(abi.encodePacked(\"Student \", _id, \" already exists\"))\n        );\n        Model.student memory studentTemp =\n            Model.student(\n                _id,\n                _name,\n                _email,\n                _date,\n                _phone,\n                _class,\n                _major,\n                _cpa,\n                _qualifiedForGraduation,\n                false,\n                uint256(\n                    keccak256(\n                        abi.encodePacked(_id, block.timestamp, block.difficulty)\n                    )\n                )\n            );\n        studentList.push(studentTemp);\n        idToStudent[_id] = studentList[studentList.length - 1];\n        studentIdToIndex[_id] = studentList.length - 1;\n        if (studentList[studentList.length - 1].qualifiedForGraduation) {\n            qualifiedStudentNumber++;\n        }\n    }\n\n    function importStudent(Model.student[] memory students)\n        public\n        onlyAADepartmentUser\n    {\n        for (uint256 i = 0; i < students.length; i++) {\n            createStudent(\n                students[i].id,\n                students[i].name,\n                students[i].email,\n                students[i].date,\n                students[i].phone,\n                students[i].class,\n                students[i].major,\n                students[i].cpa,\n                students[i].qualifiedForGraduation\n            );\n        }\n    }\n\n    function activeStudent(string memory _id, uint256 _nonce)\n        public\n        onlyNoRole(msg.sender)\n    {\n        require(_nonce == idToStudent[_id].nonce);\n        studentDetails[msg.sender] = idToStudent[_id];\n        idToStudent[_id].isActive = true;\n        studentList[studentIdToIndex[_id]].isActive = true;\n        userRole[msg.sender] = roleList[2];\n\n        studentDetails[msg.sender] = idToStudent[_id];\n    }\n\n    function getAllStudent()\n        public\n        view\n        onlyRectorOrAAD\n        returns (Model.student[] memory)\n    {\n        return studentList;\n    }\n\n    function getStudentById(string memory _id)\n        public\n        view\n        returns (Model.student memory)\n    {\n        Model.student memory studentTemp = idToStudent[_id];\n        studentTemp.nonce = 0;\n        return studentTemp;\n    }\n\n    function getStudentByAddr(address _studentAddr)\n        public\n        view\n        returns (Model.student memory)\n    {\n        Model.student memory studentTemp = studentDetails[_studentAddr];\n        studentTemp.nonce = 0;\n        return studentTemp;\n    }\n\n    function getStudentNonce(string memory _id)\n        public\n        view\n        onlyRectorOrAAD\n        returns (uint256)\n    {\n        return idToStudent[_id].nonce;\n    }\n\n    function updateStudentbyAAD(\n        address _address,\n        string memory _id,\n        string memory _name,\n        string memory _email,\n        string memory _date,\n        string memory _phone,\n        string memory _class,\n        string memory _major,\n        string memory _cpa,\n        bool _qualifiedForGraduation\n    ) public onlyRectorOrAAD {\n        require(\n            keccak256(abi.encodePacked(idToStudent[_id].id)) !=\n                keccak256(abi.encodePacked(_id)),\n            string(abi.encodePacked(\"Student \", _id, \" already exists\"))\n        );\n        Model.student storage temp = studentDetails[_address];\n        temp.id = _id;\n        temp.name = _name;\n        temp.email = _email;\n        temp.date = _date;\n        temp.phone = _phone;\n        temp.class = _class;\n        temp.major = _major;\n        temp.cpa = _cpa;\n        if (temp.qualifiedForGraduation && !_qualifiedForGraduation) {\n            qualifiedStudentNumber--;\n        }\n        if (!temp.qualifiedForGraduation && _qualifiedForGraduation) {\n            qualifiedStudentNumber++;\n        }\n        temp.qualifiedForGraduation = _qualifiedForGraduation;\n    }\n\n    function updateStudentInfo(string memory _email, string memory _phone)\n        public\n    {\n        require(studentDetails[msg.sender].isActive == true);\n        studentDetails[msg.sender].email = _email;\n        studentDetails[msg.sender].phone = _phone;\n    }\n\n    function getQualifiedStudents() public view returns (Model.student[] memory) {\n        Model.student[] memory qualifiedStudent= new Model.student[](qualifiedStudentNumber);\n        uint256 count = 0;\n        for(uint256 i = 0; i < studentList.length; i++){\n            if(studentList[i].qualifiedForGraduation) {\n                qualifiedStudent[count] = studentList[i];\n                count++;\n            }\n        }\n        return qualifiedStudent;\n    }\n\n    Model.company[] companyList;\n    mapping(address => Model.company) companyDetails;\n    mapping(uint256 => address) companyIdToAddr;\n\n    function createCompany(string memory _name, string memory _description)\n        public\n        onlyNoRole(msg.sender)\n    {\n        Model.company memory companyTemp =\n            Model.company(_name, _description, \"\", false);\n\n        companyList.push(companyTemp);\n        companyIdToAddr[companyList.length - 1] = msg.sender;\n        companyDetails[msg.sender] = companyTemp;\n        userRole[msg.sender] = roleList[3];\n    }\n\n    function approveCompany(uint256 _companyId) public onlyAADepartmentUser {\n        companyList[_companyId].isActive = true;\n        companyDetails[companyIdToAddr[_companyId]].isActive = true;\n    }\n\n    function updateCompany(\n        string memory _name,\n        string memory _description,\n        string memory _jobInfo\n    ) public {\n        companyDetails[msg.sender].name = _name;\n        companyDetails[msg.sender].description = _description;\n        companyDetails[msg.sender].jobInfo = _jobInfo;\n    }\n\n    function getCompany(address _companyAddr)\n        public\n        view\n        returns (Model.company memory)\n    {\n        Model.company memory companyTemp = companyDetails[_companyAddr];\n        return companyTemp;\n    }\n\n    function getCompany(uint256 _companyId)\n        public\n        view\n        returns (Model.company memory)\n    {\n        Model.company memory companyTemp =\n            companyDetails[companyIdToAddr[_companyId]];\n        return companyTemp;\n    }\n\n    function getAllCompany() public view returns (Model.company[] memory) {\n        return companyList;\n    }\n}\n",
  "sourcePath": "/Users/hughdo/Desktop/Proj/CertVerificationSystem/contracts/User.sol",
  "compiler": {
    "name": "solc",
    "version": "0.8.3+commit.8d00100c.Emscripten.clang"
  },
  "schemaVersion": "3.3.4",
  "updatedAt": "2021-04-20T03:48:26.543Z",
  "networkType": "ethereum",
  "devdoc": {
    "kind": "dev",
    "methods": {},
    "version": 1
  },
  "userdoc": {
    "kind": "user",
    "methods": {},
    "version": 1
  }
}