{
  "contractName": "User",
  "abi": [
    {
      "inputs": [],
      "stateMutability": "nonpayable",
      "type": "constructor"
    },
    {
      "inputs": [],
      "name": "getCurrentUserRole",
      "outputs": [
        {
          "components": [
            {
              "internalType": "string",
              "name": "id",
              "type": "string"
            },
            {
              "internalType": "string",
              "name": "name",
              "type": "string"
            }
          ],
          "internalType": "struct User.role",
          "name": "",
          "type": "tuple"
        }
      ],
      "stateMutability": "view",
      "type": "function",
      "constant": true
    },
    {
      "inputs": [],
      "name": "getCurrentUser",
      "outputs": [
        {
          "components": [
            {
              "internalType": "string",
              "name": "name",
              "type": "string"
            },
            {
              "internalType": "string",
              "name": "date",
              "type": "string"
            },
            {
              "internalType": "string",
              "name": "phone",
              "type": "string"
            },
            {
              "internalType": "string",
              "name": "term",
              "type": "string"
            }
          ],
          "internalType": "struct User.rector",
          "name": "",
          "type": "tuple"
        },
        {
          "components": [
            {
              "internalType": "string",
              "name": "name",
              "type": "string"
            },
            {
              "internalType": "string",
              "name": "date",
              "type": "string"
            },
            {
              "internalType": "string",
              "name": "phone",
              "type": "string"
            },
            {
              "internalType": "bool",
              "name": "isActive",
              "type": "bool"
            }
          ],
          "internalType": "struct User.AADUser",
          "name": "",
          "type": "tuple"
        },
        {
          "components": [
            {
              "internalType": "address",
              "name": "account",
              "type": "address"
            },
            {
              "internalType": "string",
              "name": "studentId",
              "type": "string"
            },
            {
              "internalType": "string",
              "name": "name",
              "type": "string"
            },
            {
              "internalType": "string",
              "name": "email",
              "type": "string"
            },
            {
              "internalType": "string",
              "name": "phone",
              "type": "string"
            },
            {
              "internalType": "string",
              "name": "class",
              "type": "string"
            },
            {
              "internalType": "string",
              "name": "major",
              "type": "string"
            },
            {
              "internalType": "string",
              "name": "cpa",
              "type": "string"
            },
            {
              "internalType": "bool",
              "name": "qualifiedForGraduation",
              "type": "bool"
            },
            {
              "internalType": "bool",
              "name": "isActive",
              "type": "bool"
            },
            {
              "internalType": "uint256",
              "name": "nonce",
              "type": "uint256"
            }
          ],
          "internalType": "struct User.student",
          "name": "",
          "type": "tuple"
        },
        {
          "components": [
            {
              "internalType": "string",
              "name": "name",
              "type": "string"
            },
            {
              "internalType": "string",
              "name": "description",
              "type": "string"
            },
            {
              "internalType": "string",
              "name": "jobInfo",
              "type": "string"
            },
            {
              "internalType": "bool",
              "name": "isActive",
              "type": "bool"
            }
          ],
          "internalType": "struct User.company",
          "name": "",
          "type": "tuple"
        }
      ],
      "stateMutability": "view",
      "type": "function",
      "constant": true
    },
    {
      "inputs": [],
      "name": "getCurrentRector",
      "outputs": [
        {
          "components": [
            {
              "internalType": "string",
              "name": "name",
              "type": "string"
            },
            {
              "internalType": "string",
              "name": "date",
              "type": "string"
            },
            {
              "internalType": "string",
              "name": "phone",
              "type": "string"
            },
            {
              "internalType": "string",
              "name": "term",
              "type": "string"
            }
          ],
          "internalType": "struct User.rector",
          "name": "",
          "type": "tuple"
        }
      ],
      "stateMutability": "view",
      "type": "function",
      "constant": true
    },
    {
      "inputs": [
        {
          "internalType": "address",
          "name": "_newRectorAddr",
          "type": "address"
        },
        {
          "internalType": "string",
          "name": "_name",
          "type": "string"
        },
        {
          "internalType": "string",
          "name": "_date",
          "type": "string"
        },
        {
          "internalType": "string",
          "name": "_phone",
          "type": "string"
        },
        {
          "internalType": "string",
          "name": "_term",
          "type": "string"
        }
      ],
      "name": "createNewRector",
      "outputs": [],
      "stateMutability": "nonpayable",
      "type": "function"
    },
    {
      "inputs": [
        {
          "internalType": "string",
          "name": "_name",
          "type": "string"
        },
        {
          "internalType": "string",
          "name": "_date",
          "type": "string"
        },
        {
          "internalType": "string",
          "name": "_phone",
          "type": "string"
        },
        {
          "internalType": "string",
          "name": "_term",
          "type": "string"
        }
      ],
      "name": "updateCurrentRector",
      "outputs": [],
      "stateMutability": "nonpayable",
      "type": "function"
    },
    {
      "inputs": [],
      "name": "getAADepartmentAcc",
      "outputs": [
        {
          "components": [
            {
              "internalType": "string",
              "name": "realAddress",
              "type": "string"
            },
            {
              "internalType": "string",
              "name": "description",
              "type": "string"
            }
          ],
          "internalType": "struct User.AADepartment",
          "name": "",
          "type": "tuple"
        }
      ],
      "stateMutability": "view",
      "type": "function",
      "constant": true
    },
    {
      "inputs": [
        {
          "internalType": "address",
          "name": "_address",
          "type": "address"
        },
        {
          "internalType": "string",
          "name": "_name",
          "type": "string"
        },
        {
          "internalType": "string",
          "name": "_date",
          "type": "string"
        },
        {
          "internalType": "string",
          "name": "_phone",
          "type": "string"
        }
      ],
      "name": "createAADepartmentUser",
      "outputs": [],
      "stateMutability": "nonpayable",
      "type": "function"
    },
    {
      "inputs": [
        {
          "internalType": "string",
          "name": "_name",
          "type": "string"
        },
        {
          "internalType": "string",
          "name": "_date",
          "type": "string"
        },
        {
          "internalType": "string",
          "name": "_phone",
          "type": "string"
        }
      ],
      "name": "updateAADepartmentUser",
      "outputs": [],
      "stateMutability": "nonpayable",
      "type": "function"
    },
    {
      "inputs": [
        {
          "internalType": "address",
          "name": "_address",
          "type": "address"
        }
      ],
      "name": "deactiveAADepartmentUser",
      "outputs": [],
      "stateMutability": "nonpayable",
      "type": "function"
    },
    {
      "inputs": [
        {
          "internalType": "address",
          "name": "_userAddress",
          "type": "address"
        }
      ],
      "name": "getAADepartmentUser",
      "outputs": [
        {
          "components": [
            {
              "internalType": "string",
              "name": "name",
              "type": "string"
            },
            {
              "internalType": "string",
              "name": "date",
              "type": "string"
            },
            {
              "internalType": "string",
              "name": "phone",
              "type": "string"
            },
            {
              "internalType": "bool",
              "name": "isActive",
              "type": "bool"
            }
          ],
          "internalType": "struct User.AADUser",
          "name": "",
          "type": "tuple"
        }
      ],
      "stateMutability": "view",
      "type": "function",
      "constant": true
    },
    {
      "inputs": [
        {
          "internalType": "string",
          "name": "_studentId",
          "type": "string"
        },
        {
          "internalType": "string",
          "name": "_name",
          "type": "string"
        },
        {
          "internalType": "string",
          "name": "_email",
          "type": "string"
        },
        {
          "internalType": "string",
          "name": "_phone",
          "type": "string"
        },
        {
          "internalType": "string",
          "name": "_class",
          "type": "string"
        },
        {
          "internalType": "string",
          "name": "_major",
          "type": "string"
        },
        {
          "internalType": "string",
          "name": "_cpa",
          "type": "string"
        },
        {
          "internalType": "bool",
          "name": "_qualifiedForGraduation",
          "type": "bool"
        }
      ],
      "name": "createStudent",
      "outputs": [],
      "stateMutability": "nonpayable",
      "type": "function"
    },
    {
      "inputs": [
        {
          "internalType": "string",
          "name": "_studentId",
          "type": "string"
        },
        {
          "internalType": "uint256",
          "name": "_nonce",
          "type": "uint256"
        }
      ],
      "name": "activeStudent",
      "outputs": [],
      "stateMutability": "nonpayable",
      "type": "function"
    },
    {
      "inputs": [],
      "name": "gettAllStudent",
      "outputs": [
        {
          "components": [
            {
              "internalType": "address",
              "name": "account",
              "type": "address"
            },
            {
              "internalType": "string",
              "name": "studentId",
              "type": "string"
            },
            {
              "internalType": "string",
              "name": "name",
              "type": "string"
            },
            {
              "internalType": "string",
              "name": "email",
              "type": "string"
            },
            {
              "internalType": "string",
              "name": "phone",
              "type": "string"
            },
            {
              "internalType": "string",
              "name": "class",
              "type": "string"
            },
            {
              "internalType": "string",
              "name": "major",
              "type": "string"
            },
            {
              "internalType": "string",
              "name": "cpa",
              "type": "string"
            },
            {
              "internalType": "bool",
              "name": "qualifiedForGraduation",
              "type": "bool"
            },
            {
              "internalType": "bool",
              "name": "isActive",
              "type": "bool"
            },
            {
              "internalType": "uint256",
              "name": "nonce",
              "type": "uint256"
            }
          ],
          "internalType": "struct User.student[]",
          "name": "",
          "type": "tuple[]"
        }
      ],
      "stateMutability": "view",
      "type": "function",
      "constant": true
    },
    {
      "inputs": [
        {
          "internalType": "string",
          "name": "_studentId",
          "type": "string"
        }
      ],
      "name": "getStudentById",
      "outputs": [
        {
          "components": [
            {
              "internalType": "address",
              "name": "account",
              "type": "address"
            },
            {
              "internalType": "string",
              "name": "studentId",
              "type": "string"
            },
            {
              "internalType": "string",
              "name": "name",
              "type": "string"
            },
            {
              "internalType": "string",
              "name": "email",
              "type": "string"
            },
            {
              "internalType": "string",
              "name": "phone",
              "type": "string"
            },
            {
              "internalType": "string",
              "name": "class",
              "type": "string"
            },
            {
              "internalType": "string",
              "name": "major",
              "type": "string"
            },
            {
              "internalType": "string",
              "name": "cpa",
              "type": "string"
            },
            {
              "internalType": "bool",
              "name": "qualifiedForGraduation",
              "type": "bool"
            },
            {
              "internalType": "bool",
              "name": "isActive",
              "type": "bool"
            },
            {
              "internalType": "uint256",
              "name": "nonce",
              "type": "uint256"
            }
          ],
          "internalType": "struct User.student",
          "name": "",
          "type": "tuple"
        }
      ],
      "stateMutability": "view",
      "type": "function",
      "constant": true
    },
    {
      "inputs": [
        {
          "internalType": "address",
          "name": "_studentAddr",
          "type": "address"
        }
      ],
      "name": "getStudentByAddr",
      "outputs": [
        {
          "components": [
            {
              "internalType": "address",
              "name": "account",
              "type": "address"
            },
            {
              "internalType": "string",
              "name": "studentId",
              "type": "string"
            },
            {
              "internalType": "string",
              "name": "name",
              "type": "string"
            },
            {
              "internalType": "string",
              "name": "email",
              "type": "string"
            },
            {
              "internalType": "string",
              "name": "phone",
              "type": "string"
            },
            {
              "internalType": "string",
              "name": "class",
              "type": "string"
            },
            {
              "internalType": "string",
              "name": "major",
              "type": "string"
            },
            {
              "internalType": "string",
              "name": "cpa",
              "type": "string"
            },
            {
              "internalType": "bool",
              "name": "qualifiedForGraduation",
              "type": "bool"
            },
            {
              "internalType": "bool",
              "name": "isActive",
              "type": "bool"
            },
            {
              "internalType": "uint256",
              "name": "nonce",
              "type": "uint256"
            }
          ],
          "internalType": "struct User.student",
          "name": "",
          "type": "tuple"
        }
      ],
      "stateMutability": "view",
      "type": "function",
      "constant": true
    },
    {
      "inputs": [
        {
          "internalType": "string",
          "name": "_studentId",
          "type": "string"
        }
      ],
      "name": "getStudentNonce",
      "outputs": [
        {
          "internalType": "uint256",
          "name": "",
          "type": "uint256"
        }
      ],
      "stateMutability": "view",
      "type": "function",
      "constant": true
    },
    {
      "inputs": [
        {
          "internalType": "address",
          "name": "_address",
          "type": "address"
        },
        {
          "internalType": "string",
          "name": "_studentId",
          "type": "string"
        },
        {
          "internalType": "string",
          "name": "_name",
          "type": "string"
        },
        {
          "internalType": "string",
          "name": "_email",
          "type": "string"
        },
        {
          "internalType": "string",
          "name": "_phone",
          "type": "string"
        },
        {
          "internalType": "string",
          "name": "_class",
          "type": "string"
        },
        {
          "internalType": "string",
          "name": "_major",
          "type": "string"
        },
        {
          "internalType": "string",
          "name": "_cpa",
          "type": "string"
        },
        {
          "internalType": "bool",
          "name": "_qualifiedForGraduation",
          "type": "bool"
        }
      ],
      "name": "updateStudentbyAAD",
      "outputs": [],
      "stateMutability": "nonpayable",
      "type": "function"
    },
    {
      "inputs": [
        {
          "internalType": "string",
          "name": "_email",
          "type": "string"
        },
        {
          "internalType": "string",
          "name": "_phone",
          "type": "string"
        }
      ],
      "name": "updateStudentInfo",
      "outputs": [],
      "stateMutability": "nonpayable",
      "type": "function"
    },
    {
      "inputs": [
        {
          "internalType": "string",
          "name": "_name",
          "type": "string"
        },
        {
          "internalType": "string",
          "name": "_description",
          "type": "string"
        },
        {
          "internalType": "string",
          "name": "_jobInfo",
          "type": "string"
        }
      ],
      "name": "createCompany",
      "outputs": [],
      "stateMutability": "nonpayable",
      "type": "function"
    },
    {
      "inputs": [
        {
          "internalType": "address",
          "name": "_companyAddr",
          "type": "address"
        }
      ],
      "name": "approveCompany",
      "outputs": [],
      "stateMutability": "nonpayable",
      "type": "function"
    },
    {
      "inputs": [
        {
          "internalType": "string",
          "name": "_name",
          "type": "string"
        },
        {
          "internalType": "string",
          "name": "_description",
          "type": "string"
        },
        {
          "internalType": "string",
          "name": "_jobInfo",
          "type": "string"
        }
      ],
      "name": "updateCompany",
      "outputs": [],
      "stateMutability": "nonpayable",
      "type": "function"
    },
    {
      "inputs": [
        {
          "internalType": "address",
          "name": "_companyAddr",
          "type": "address"
        }
      ],
      "name": "getCompany",
      "outputs": [
        {
          "components": [
            {
              "internalType": "string",
              "name": "name",
              "type": "string"
            },
            {
              "internalType": "string",
              "name": "description",
              "type": "string"
            },
            {
              "internalType": "string",
              "name": "jobInfo",
              "type": "string"
            },
            {
              "internalType": "bool",
              "name": "isActive",
              "type": "bool"
            }
          ],
          "internalType": "struct User.company",
          "name": "",
          "type": "tuple"
        }
      ],
      "stateMutability": "view",
      "type": "function",
      "constant": true
    },
    {
      "inputs": [],
      "name": "getAllCompany",
      "outputs": [
        {
          "components": [
            {
              "internalType": "string",
              "name": "name",
              "type": "string"
            },
            {
              "internalType": "string",
              "name": "description",
              "type": "string"
            },
            {
              "internalType": "string",
              "name": "jobInfo",
              "type": "string"
            },
            {
              "internalType": "bool",
              "name": "isActive",
              "type": "bool"
            }
          ],
          "internalType": "struct User.company[]",
          "name": "",
          "type": "tuple[]"
        }
      ],
      "stateMutability": "view",
      "type": "function",
      "constant": true
    }
  ],
  "bytecode": "0x60806040523480156200001157600080fd5b506200001c62000036565b620000266200022e565b62000030620003de565b620005a9565b604080516080810182526001818301908152600360fc1b60608301528152815180830190925260068252653932b1ba37b960d11b6020808401919091528082019290925280518051919260009262000092928492019062000442565b506020828101518051620000ad926001850192019062000442565b5050604080516080810182526001818301908152603160f81b606083015281528151808301909252600c82526b105051195c185c9d1b595b9d60a21b6020808401919091528082019290925280518051919350600292620001149284929091019062000442565b5060208281015180516200012f926001850192019062000442565b5050604080516080810182526001818301908152601960f91b60608301528152815180830190925260078252661cdd1d59195b9d60ca1b6020808401919091528082019290925280518051919350600492620001919284929091019062000442565b506020828101518051620001ac926001850192019062000442565b5050604080516080810182526001818301908152603360f81b6060830152815281518083019092526007825266636f6d70616e7960c81b60208084019190915280820192909252805180519193506006926200020e9284929091019062000442565b50602082810151805162000229926001850192019062000442565b505050565b6200025a6040518060800160405280606081526020016060815260200160608152602001606081525090565b604080518082018252601581527f504753205453204e677579656e205669657420486100000000000000000000006020808301919091529083528151808301835260048152630c4e4dcd60e21b818301528382015281518083018352600a80825269181c9c1c989a99191a9960b11b8284015284840191909152825180840184526009815268199c9bdb480c8c0c4d60ba1b818401526060850152336000908152908252919091208251805184936200031892849291019062000442565b50602082810151805162000333926001850192019062000442565b50604082015180516200035191600284019160209091019062000442565b50606082015180516200036f91600384019160209091019062000442565b50503360009081526008602052604081208154919250908190839062000395906200056c565b620003a2929190620004d1565b506001820181600101908054620003b9906200056c565b620003c6929190620004d1565b5050600980546001600160a01b031916331790555050565b604051806060016040528060248152602001620042716024913980516200040e91600b9160209091019062000442565b50604051806080016040528060608152602001620042956060913980516200043f91600c9160209091019062000442565b50565b82805462000450906200056c565b90600052602060002090601f016020900481019282620004745760008555620004bf565b82601f106200048f57805160ff1916838001178555620004bf565b82800160010185558215620004bf579182015b82811115620004bf578251825591602001919060010190620004a2565b50620004cd92915062000555565b5090565b828054620004df906200056c565b90600052602060002090601f016020900481019282620005035760008555620004bf565b82601f10620005165780548555620004bf565b82800160010185558215620004bf57600052602060002091601f016020900482015b82811115620004bf57825482559160010191906001019062000538565b5b80821115620004cd576000815560010162000556565b600181811c908216806200058157607f821691505b60208210811415620005a357634e487b7160e01b600052602260045260246000fd5b50919050565b613cb880620005b96000396000f3fe608060405234801561001057600080fd5b506004361061014d5760003560e01c806375957bc0116100c3578063ba8805f41161007c578063ba8805f4146102c8578063bd2456c7146102db578063c23fd5a6146102ee578063c805974714610301578063ed7ad82614610316578063eed879eb146103295761014d565b806375957bc0146102465780637b60626d1461024e5780637d67d900146102615780638f19aed41461028257806393b3298c14610295578063b174ba82146102b55761014d565b80633cf079f0116101155780633cf079f0146101c257806343ae37c3146101d55780634b0875e9146101ed5780635c6f2e081461020057806362bc56e6146102135780636b5fe4b6146102335761014d565b806308fc4b3d146101525780630d2393fd14610170578063106e3ea6146101855780632bd51b661461019a578063388807cf146101ad575b600080fd5b61015a61033c565b6040516101679190613b0d565b60405180910390f35b610178610819565b6040516101679190613aac565b610198610193366004613253565b610a37565b005b6101986101a8366004613232565b610c68565b6101b5610cc5565b6040516101679190613b74565b6101986101d0366004613232565b610e1a565b6101dd611037565b6040516101679493929190613b9a565b6101986101fb366004613572565b61151f565b61019861020e366004613572565b6115b7565b610226610221366004613232565b611625565b6040516101679190613b61565b6101986102413660046133a1565b611843565b6101b561194d565b61019861025c366004613572565b61197e565b61027461026f3660046134d6565b611b5b565b604051908152602001610167565b610198610290366004613643565b611bc0565b6102a86102a3366004613232565b612101565b6040516101679190613bf2565b6101986102c33660046135f6565b612575565b6101986102d6366004613767565b612628565b6102266102e9366004613232565b6128f0565b6101986102fc366004613511565b612b0c565b610309612b88565b6040516101679190613b87565b6102a86103243660046134d6565b612e26565b6101986103373660046132e8565b612e7a565b6009546060906001600160a01b031633148061036f5750336000908152600e602052604090206003015460ff1615156001145b61037857600080fd5b600f805480602002602001604051908101604052809291908181526020016000905b82821015610810576000848152602090819020604080516101608101909152600a850290910180546001600160a01b0316825260018101805492939192918401916103e490613c31565b80601f016020809104026020016040519081016040528092919081815260200182805461041090613c31565b801561045d5780601f106104325761010080835404028352916020019161045d565b820191906000526020600020905b81548152906001019060200180831161044057829003601f168201915b5050505050815260200160028201805461047690613c31565b80601f01602080910402602001604051908101604052809291908181526020018280546104a290613c31565b80156104ef5780601f106104c4576101008083540402835291602001916104ef565b820191906000526020600020905b8154815290600101906020018083116104d257829003601f168201915b5050505050815260200160038201805461050890613c31565b80601f016020809104026020016040519081016040528092919081815260200182805461053490613c31565b80156105815780601f1061055657610100808354040283529160200191610581565b820191906000526020600020905b81548152906001019060200180831161056457829003601f168201915b5050505050815260200160048201805461059a90613c31565b80601f01602080910402602001604051908101604052809291908181526020018280546105c690613c31565b80156106135780601f106105e857610100808354040283529160200191610613565b820191906000526020600020905b8154815290600101906020018083116105f657829003601f168201915b5050505050815260200160058201805461062c90613c31565b80601f016020809104026020016040519081016040528092919081815260200182805461065890613c31565b80156106a55780601f1061067a576101008083540402835291602001916106a5565b820191906000526020600020905b81548152906001019060200180831161068857829003601f168201915b505050505081526020016006820180546106be90613c31565b80601f01602080910402602001604051908101604052809291908181526020018280546106ea90613c31565b80156107375780601f1061070c57610100808354040283529160200191610737565b820191906000526020600020905b81548152906001019060200180831161071a57829003601f168201915b5050505050815260200160078201805461075090613c31565b80601f016020809104026020016040519081016040528092919081815260200182805461077c90613c31565b80156107c95780601f1061079e576101008083540402835291602001916107c9565b820191906000526020600020905b8154815290600101906020018083116107ac57829003601f168201915b5050509183525050600882015460ff80821615156020808501919091526101009092041615156040830152600990920154606090910152908252600192909201910161039a565b50505050905090565b60606012805480602002602001604051908101604052809291908181526020016000905b82821015610810578382906000526020600020906004020160405180608001604052908160008201805461087090613c31565b80601f016020809104026020016040519081016040528092919081815260200182805461089c90613c31565b80156108e95780601f106108be576101008083540402835291602001916108e9565b820191906000526020600020905b8154815290600101906020018083116108cc57829003601f168201915b5050505050815260200160018201805461090290613c31565b80601f016020809104026020016040519081016040528092919081815260200182805461092e90613c31565b801561097b5780601f106109505761010080835404028352916020019161097b565b820191906000526020600020905b81548152906001019060200180831161095e57829003601f168201915b5050505050815260200160028201805461099490613c31565b80601f01602080910402602001604051908101604052809291908181526020018280546109c090613c31565b8015610a0d5780601f106109e257610100808354040283529160200191610a0d565b820191906000526020600020905b8154815290600101906020018083116109f057829003601f168201915b50505091835250506003919091015460ff161515602091820152908252600192909201910161083d565b6009546001600160a01b0316331480610a675750336000908152600e602052604090206003015460ff1615156001145b610a7057600080fd5b6040805160008082526020808301808552835190206001600160a01b038916835260089091529083902087939192610aa89201613a11565b6040516020818303038152906040528051906020012014610ac857600080fd5b604080516080810182528581526020808201869052918101849052600160608201819052600d80549182018155600052815180519293849360049093027fd7b6990105719101dabeb77144f2a3385c8033acd3af97e9423a695e81ad1eb50192610b359284920190613009565b506020828101518051610b4e9260018501920190613009565b5060408201518051610b6a916002840191602090910190613009565b50606091909101516003909101805460ff19169115159190911790556001600160a01b0386166000908152600e60209081526040909120825180518493610bb5928492910190613009565b506020828101518051610bce9260018501920190613009565b5060408201518051610bea916002840191602090910190613009565b50606091909101516003909101805460ff19169115159190911790556001600160a01b03861660009081526008602052604090206002805490919081908390610c3290613c31565b610c3d92919061308d565b506001820181600101908054610c5290613c31565b610c5d92919061308d565b505050505050505050565b6009546001600160a01b0316331480610c985750336000908152600e602052604090206003015460ff1615156001145b610ca157600080fd5b6001600160a01b03166000908152600e60205260409020600301805460ff19169055565b604080518082019091526060808252602082015233600090815260086020526040908190208151808301909252805482908290610d0190613c31565b80601f0160208091040260200160405190810160405280929190818152602001828054610d2d90613c31565b8015610d7a5780601f10610d4f57610100808354040283529160200191610d7a565b820191906000526020600020905b815481529060010190602001808311610d5d57829003601f168201915b50505050508152602001600182018054610d9390613c31565b80601f0160208091040260200160405190810160405280929190818152602001828054610dbf90613c31565b8015610e0c5780601f10610de157610100808354040283529160200191610e0c565b820191906000526020600020905b815481529060010190602001808311610def57829003601f168201915b505050505081525050905090565b336000908152600e6020526040808220815160808101909252805482908290610e4290613c31565b80601f0160208091040260200160405190810160405280929190818152602001828054610e6e90613c31565b8015610ebb5780601f10610e9057610100808354040283529160200191610ebb565b820191906000526020600020905b815481529060010190602001808311610e9e57829003601f168201915b50505050508152602001600182018054610ed490613c31565b80601f0160208091040260200160405190810160405280929190818152602001828054610f0090613c31565b8015610f4d5780601f10610f2257610100808354040283529160200191610f4d565b820191906000526020600020905b815481529060010190602001808311610f3057829003601f168201915b50505050508152602001600282018054610f6690613c31565b80601f0160208091040260200160405190810160405280929190818152602001828054610f9290613c31565b8015610fdf5780601f10610fb457610100808354040283529160200191610fdf565b820191906000526020600020905b815481529060010190602001808311610fc257829003601f168201915b50505091835250506003919091015460ff1615156020909101526060810151909150151560011461100f57600080fd5b506001600160a01b03166000908152601360205260409020600301805460ff19166001179055565b6110626040518060800160405280606081526020016060815260200160608152602001606081525090565b61108f60405180608001604052806060815260200160608152602001606081526020016000151581525090565b611097613108565b6110c460405180608001604052806060815260200160608152602001606081526020016000151581525090565b604051600360fc1b602082015260210160408051601f19818403018152828252805160209182012033600090815260088352929092209192611107929101613a11565b6040516020818303038152906040528051906020012014156113b157336000818152600a602052604090209061113c906128f0565b61114533612101565b61114e33611625565b8360405180608001604052908160008201805461116a90613c31565b80601f016020809104026020016040519081016040528092919081815260200182805461119690613c31565b80156111e35780601f106111b8576101008083540402835291602001916111e3565b820191906000526020600020905b8154815290600101906020018083116111c657829003601f168201915b505050505081526020016001820180546111fc90613c31565b80601f016020809104026020016040519081016040528092919081815260200182805461122890613c31565b80156112755780601f1061124a57610100808354040283529160200191611275565b820191906000526020600020905b81548152906001019060200180831161125857829003601f168201915b5050505050815260200160028201805461128e90613c31565b80601f01602080910402602001604051908101604052809291908181526020018280546112ba90613c31565b80156113075780601f106112dc57610100808354040283529160200191611307565b820191906000526020600020905b8154815290600101906020018083116112ea57829003601f168201915b5050505050815260200160038201805461132090613c31565b80601f016020809104026020016040519081016040528092919081815260200182805461134c90613c31565b80156113995780601f1061136e57610100808354040283529160200191611399565b820191906000526020600020905b81548152906001019060200180831161137c57829003601f168201915b50505050508152505093509350935093509350611519565b604051603160f81b602082015260210160408051601f198184030181528282528051602091820120336000908152600883529290922091926113f4929101613a11565b60405160208183030381529060405280519060200120141561142957336000818152600a602052604090209061113c906128f0565b604051601960f91b602082015260210160408051601f1981840301815282825280516020918201203360009081526008835292909220919261146c929101613a11565b6040516020818303038152906040528051906020012014156114a157336000818152600a602052604090209061113c906128f0565b604051603360f81b602082015260210160408051601f198184030181528282528051602091820120336000908152600883529290922091926114e4929101613a11565b60405160208183030381529060405280519060200120141561151957336000818152600a602052604090209061113c906128f0565b90919293565b336000908152600e602052604090206003015460ff16151560011461154357600080fd5b336000908152600e60209081526040909120845161156392860190613009565b50336000908152600e60209081526040909120835161158a92600190920191850190613009565b50336000908152600e6020908152604090912082516115b192600290920191840190613009565b50505050565b33600090815260136020908152604090912084516115d792860190613009565b5033600090815260136020908152604090912083516115fe92600190920191850190613009565b5033600090815260136020908152604090912082516115b192600290920191840190613009565b61165260405180608001604052806060815260200160608152602001606081526020016000151581525090565b6001600160a01b03821660009081526013602052604080822081516080810190925280548290829061168390613c31565b80601f01602080910402602001604051908101604052809291908181526020018280546116af90613c31565b80156116fc5780601f106116d1576101008083540402835291602001916116fc565b820191906000526020600020905b8154815290600101906020018083116116df57829003601f168201915b5050505050815260200160018201805461171590613c31565b80601f016020809104026020016040519081016040528092919081815260200182805461174190613c31565b801561178e5780601f106117635761010080835404028352916020019161178e565b820191906000526020600020905b81548152906001019060200180831161177157829003601f168201915b505050505081526020016002820180546117a790613c31565b80601f01602080910402602001604051908101604052809291908181526020018280546117d390613c31565b80156118205780601f106117f557610100808354040283529160200191611820565b820191906000526020600020905b81548152906001019060200180831161180357829003601f168201915b50505091835250506003919091015460ff1615156020909101529150505b919050565b6009546001600160a01b03163314806118735750336000908152600e602052604090206003015460ff1615156001145b61187c57600080fd5b6001600160a01b0389166000908152601060209081526040909120895190916118ac9160018401918c0190613009565b5087516118c290600283019060208b0190613009565b5086516118d890600383019060208a0190613009565b5085516118ee9060048301906020890190613009565b5084516119049060058301906020880190613009565b50835161191a9060068301906020870190613009565b5082516119309060078301906020860190613009565b50600801805460ff19169115159190911790555050505050505050565b6040805180820190915260608082526020820152600b604051806040016040529081600082018054610d0190613c31565b60408051600080825260208083018085528351902033808452600890925291849020909391926119ae9201613a11565b60405160208183030381529060405280519060200120146119ce57600080fd5b604080516080810182528581526020808201869052918101849052600060608201819052601280546001810182559152815180519293849360049093027fbb8a6a4669ba250d26cd7a459eca9d215f8307e33aebe50379bc5a3617ec34440192611a3b9284920190613009565b506020828101518051611a549260018501920190613009565b5060408201518051611a70916002840191602090910190613009565b50606091909101516003909101805460ff1916911515919091179055336000908152601360209081526040909120825180518493611ab2928492910190613009565b506020828101518051611acb9260018501920190613009565b5060408201518051611ae7916002840191602090910190613009565b50606091909101516003909101805460ff19169115159190911790553360009081526008602052604090206006805490919081908390611b2690613c31565b611b3192919061308d565b506001820181600101908054611b4690613c31565b611b5192919061308d565b5050505050505050565b6009546000906001600160a01b0316331480611b8e5750336000908152600e602052604090206003015460ff1615156001145b611b9757600080fd5b601182604051611ba791906139ce565b9081526020016040518091039020600901549050919050565b336000908152600e6020526040808220815160808101909252805482908290611be890613c31565b80601f0160208091040260200160405190810160405280929190818152602001828054611c1490613c31565b8015611c615780601f10611c3657610100808354040283529160200191611c61565b820191906000526020600020905b815481529060010190602001808311611c4457829003601f168201915b50505050508152602001600182018054611c7a90613c31565b80601f0160208091040260200160405190810160405280929190818152602001828054611ca690613c31565b8015611cf35780601f10611cc857610100808354040283529160200191611cf3565b820191906000526020600020905b815481529060010190602001808311611cd657829003601f168201915b50505050508152602001600282018054611d0c90613c31565b80601f0160208091040260200160405190810160405280929190818152602001828054611d3890613c31565b8015611d855780601f10611d5a57610100808354040283529160200191611d85565b820191906000526020600020905b815481529060010190602001808311611d6857829003601f168201915b50505091835250506003919091015460ff16151560209091015260608101519091501515600114611db557600080fd5b600060405180610160016040528060006001600160a01b031681526020018b81526020018a815260200189815260200188815260200187815260200186815260200185815260200184151581526020016000151581526020018b4244604051602001611e23939291906139ea565b60408051808303601f190181529190528051602091820120909152600f805460018101825560009190915282517f8d1108e10bcb7c27dddfc02ed9d693a074039d026cf4ea4240b40f7d581ac802600a90920291820180546001600160a01b0319166001600160a01b0390921691909117815583830151805194955085949193611ed2937f8d1108e10bcb7c27dddfc02ed9d693a074039d026cf4ea4240b40f7d581ac8030192910190613009565b5060408201518051611eee916002840191602090910190613009565b5060608201518051611f0a916003840191602090910190613009565b5060808201518051611f26916004840191602090910190613009565b5060a08201518051611f42916005840191602090910190613009565b5060c08201518051611f5e916006840191602090910190613009565b5060e08201518051611f7a916007840191602090910190613009565b506101008281015160088301805461012086015161ffff1990911692151561ff00191692909217911515909202179055610140909101516009909101556040518190601190611fca908d906139ce565b90815260405160209181900382019020825181546001600160a01b0319166001600160a01b03909116178155828201518051919261201092600185019290910190613009565b506040820151805161202c916002840191602090910190613009565b5060608201518051612048916003840191602090910190613009565b5060808201518051612064916004840191602090910190613009565b5060a08201518051612080916005840191602090910190613009565b5060c0820151805161209c916006840191602090910190613009565b5060e082015180516120b8916007840191602090910190613009565b506101008281015160088301805461012086015161ffff1990911692151561ff001916929092179115159092021790556101409091015160099091015550505050505050505050565b612109613108565b6001600160a01b038083166000908152601060209081526040808320815161016081019092528054909416815260018401805493949193919284019161214e90613c31565b80601f016020809104026020016040519081016040528092919081815260200182805461217a90613c31565b80156121c75780601f1061219c576101008083540402835291602001916121c7565b820191906000526020600020905b8154815290600101906020018083116121aa57829003601f168201915b505050505081526020016002820180546121e090613c31565b80601f016020809104026020016040519081016040528092919081815260200182805461220c90613c31565b80156122595780601f1061222e57610100808354040283529160200191612259565b820191906000526020600020905b81548152906001019060200180831161223c57829003601f168201915b5050505050815260200160038201805461227290613c31565b80601f016020809104026020016040519081016040528092919081815260200182805461229e90613c31565b80156122eb5780601f106122c0576101008083540402835291602001916122eb565b820191906000526020600020905b8154815290600101906020018083116122ce57829003601f168201915b5050505050815260200160048201805461230490613c31565b80601f016020809104026020016040519081016040528092919081815260200182805461233090613c31565b801561237d5780601f106123525761010080835404028352916020019161237d565b820191906000526020600020905b81548152906001019060200180831161236057829003601f168201915b5050505050815260200160058201805461239690613c31565b80601f01602080910402602001604051908101604052809291908181526020018280546123c290613c31565b801561240f5780601f106123e45761010080835404028352916020019161240f565b820191906000526020600020905b8154815290600101906020018083116123f257829003601f168201915b5050505050815260200160068201805461242890613c31565b80601f016020809104026020016040519081016040528092919081815260200182805461245490613c31565b80156124a15780601f10612476576101008083540402835291602001916124a1565b820191906000526020600020905b81548152906001019060200180831161248457829003601f168201915b505050505081526020016007820180546124ba90613c31565b80601f01602080910402602001604051908101604052809291908181526020018280546124e690613c31565b80156125335780601f1061250857610100808354040283529160200191612533565b820191906000526020600020905b81548152906001019060200180831161251657829003601f168201915b5050509183525050600882015460ff80821615156020840152610100909104161515604082015260099091015460609091015260006101408201529392505050565b6009546001600160a01b0316331461258c57600080fd5b336000908152600a6020908152604090912085516125ac92870190613009565b50336000908152600a6020908152604090912084516125d392600190920191860190613009565b50336000908152600a6020908152604090912083516125fa92600290920191850190613009565b50336000908152600a60209081526040909120825161262192600390920191840190613009565b5050505050565b60408051600080825260208083018085528351902033808452600890925291849020909391926126589201613a11565b604051602081830303815290604052805190602001201461267857600080fd5b60118360405161268891906139ce565b90815260200160405180910390206009015482146126a557600080fd5b336011846040516126b691906139ce565b90815260405190819003602001812080546001600160a01b03939093166001600160a01b0319909316929092179091556001906011906126f79086906139ce565b90815260408051602092819003830190206008908101805461ff0019166101009515159590950294909417909355336000908152929091529020600480549091908190839061274590613c31565b61275092919061308d565b50600182018160010190805461276590613c31565b61277092919061308d565b5090505060118360405161278491906139ce565b908152604080516020928190038301902033600090815260109093529120815481546001600160a01b039091166001600160a01b031990911617815560018083018054918301916127d490613c31565b6127df92919061308d565b5060028201816002019080546127f490613c31565b6127ff92919061308d565b50600382018160030190805461281490613c31565b61281f92919061308d565b50600482018160040190805461283490613c31565b61283f92919061308d565b50600582018160050190805461285490613c31565b61285f92919061308d565b50600682018160060190805461287490613c31565b61287f92919061308d565b50600782018160070190805461289490613c31565b61289f92919061308d565b5060088281018054918301805460ff938416151560ff19821681178355925461010090819004909416151590930261ff001990921661ffff1990931692909217179055600991820154910155505050565b61291d60405180608001604052806060815260200160608152602001606081526020016000151581525090565b6001600160a01b0382166000908152600e60205260409081902081516080810190925280548290829061294f90613c31565b80601f016020809104026020016040519081016040528092919081815260200182805461297b90613c31565b80156129c85780601f1061299d576101008083540402835291602001916129c8565b820191906000526020600020905b8154815290600101906020018083116129ab57829003601f168201915b505050505081526020016001820180546129e190613c31565b80601f0160208091040260200160405190810160405280929190818152602001828054612a0d90613c31565b8015612a5a5780601f10612a2f57610100808354040283529160200191612a5a565b820191906000526020600020905b815481529060010190602001808311612a3d57829003601f168201915b50505050508152602001600282018054612a7390613c31565b80601f0160208091040260200160405190810160405280929190818152602001828054612a9f90613c31565b8015612aec5780601f10612ac157610100808354040283529160200191612aec565b820191906000526020600020905b815481529060010190602001808311612acf57829003601f168201915b50505091835250506003919091015460ff16151560209091015292915050565b3360009081526010602052604090206008015460ff610100909104161515600114612b3657600080fd5b3360009081526010602090815260409091208351612b5c92600390920191850190613009565b503360009081526010602090815260409091208251612b8392600490920191840190613009565b505050565b612bb36040518060800160405280606081526020016060815260200160608152602001606081525090565b6009546001600160a01b03166000908152600a6020526040808220815160808101909252805482908290612be690613c31565b80601f0160208091040260200160405190810160405280929190818152602001828054612c1290613c31565b8015612c5f5780601f10612c3457610100808354040283529160200191612c5f565b820191906000526020600020905b815481529060010190602001808311612c4257829003601f168201915b50505050508152602001600182018054612c7890613c31565b80601f0160208091040260200160405190810160405280929190818152602001828054612ca490613c31565b8015612cf15780601f10612cc657610100808354040283529160200191612cf1565b820191906000526020600020905b815481529060010190602001808311612cd457829003601f168201915b50505050508152602001600282018054612d0a90613c31565b80601f0160208091040260200160405190810160405280929190818152602001828054612d3690613c31565b8015612d835780601f10612d5857610100808354040283529160200191612d83565b820191906000526020600020905b815481529060010190602001808311612d6657829003601f168201915b50505050508152602001600382018054612d9c90613c31565b80601f0160208091040260200160405190810160405280929190818152602001828054612dc890613c31565b8015612e155780601f10612dea57610100808354040283529160200191612e15565b820191906000526020600020905b815481529060010190602001808311612df857829003601f168201915b505050919092525091935050505090565b612e2e613108565b6000601183604051612e4091906139ce565b908152604080519182900360209081018320610160840190925281546001600160a01b031683526001820180549184019161214e90613c31565b6009546001600160a01b03163314612e9157600080fd5b6040805160008082526020808301808552835190206001600160a01b038a16835260089091529083902088939192612ec99201613a11565b6040516020818303038152906040528051906020012014612ee957600080fd5b604080516080810182528681526020808201879052818301869052606082018590526001600160a01b0389166000908152600a8252929092208151805192938493612f379284920190613009565b506020828101518051612f509260018501920190613009565b5060408201518051612f6c916002840191602090910190613009565b5060608201518051612f88916003840191602090910190613009565b5050506001600160a01b0387166000908152600860205260408120815481908390612fb290613c31565b612fbd92919061308d565b506001820181600101908054612fd290613c31565b612fdd92919061308d565b5050600980546001600160a01b0319166001600160a01b03999099169890981790975550505050505050565b82805461301590613c31565b90600052602060002090601f016020900481019282613037576000855561307d565b82601f1061305057805160ff191683800117855561307d565b8280016001018555821561307d579182015b8281111561307d578251825591602001919060010190613062565b5061308992915061316f565b5090565b82805461309990613c31565b90600052602060002090601f0160209004810192826130bb576000855561307d565b82601f106130cc578054855561307d565b8280016001018555821561307d57600052602060002091601f016020900482015b8281111561307d5782548255916001019190600101906130ed565b60405180610160016040528060006001600160a01b0316815260200160608152602001606081526020016060815260200160608152602001606081526020016060815260200160608152602001600015158152602001600015158152602001600081525090565b5b808211156130895760008155600101613170565b80356001600160a01b038116811461183e57600080fd5b8035801515811461183e57600080fd5b600082601f8301126131bb578081fd5b813567ffffffffffffffff808211156131d6576131d6613c6c565b604051601f8301601f19908116603f011681019082821181831017156131fe576131fe613c6c565b81604052838152866020858801011115613216578485fd5b8360208701602083013792830160200193909352509392505050565b600060208284031215613243578081fd5b61324c82613184565b9392505050565b60008060008060808587031215613268578283fd5b61327185613184565b9350602085013567ffffffffffffffff8082111561328d578485fd5b613299888389016131ab565b945060408701359150808211156132ae578384fd5b6132ba888389016131ab565b935060608701359150808211156132cf578283fd5b506132dc878288016131ab565b91505092959194509250565b600080600080600060a086880312156132ff578081fd5b61330886613184565b9450602086013567ffffffffffffffff80821115613324578283fd5b61333089838a016131ab565b95506040880135915080821115613345578283fd5b61335189838a016131ab565b94506060880135915080821115613366578283fd5b61337289838a016131ab565b93506080880135915080821115613387578283fd5b50613394888289016131ab565b9150509295509295909350565b60008060008060008060008060006101208a8c0312156133bf578384fd5b6133c88a613184565b985060208a013567ffffffffffffffff808211156133e4578586fd5b6133f08d838e016131ab565b995060408c0135915080821115613405578586fd5b6134118d838e016131ab565b985060608c0135915080821115613426578586fd5b6134328d838e016131ab565b975060808c0135915080821115613447578586fd5b6134538d838e016131ab565b965060a08c0135915080821115613468578586fd5b6134748d838e016131ab565b955060c08c0135915080821115613489578485fd5b6134958d838e016131ab565b945060e08c01359150808211156134aa578384fd5b506134b78c828d016131ab565b9250506134c76101008b0161319b565b90509295985092959850929598565b6000602082840312156134e7578081fd5b813567ffffffffffffffff8111156134fd578182fd5b613509848285016131ab565b949350505050565b60008060408385031215613523578182fd5b823567ffffffffffffffff8082111561353a578384fd5b613546868387016131ab565b9350602085013591508082111561355b578283fd5b50613568858286016131ab565b9150509250929050565b600080600060608486031215613586578283fd5b833567ffffffffffffffff8082111561359d578485fd5b6135a9878388016131ab565b945060208601359150808211156135be578384fd5b6135ca878388016131ab565b935060408601359150808211156135df578283fd5b506135ec868287016131ab565b9150509250925092565b6000806000806080858703121561360b578384fd5b843567ffffffffffffffff80821115613622578586fd5b61362e888389016131ab565b9550602087013591508082111561328d578485fd5b600080600080600080600080610100898b03121561365f578384fd5b883567ffffffffffffffff80821115613676578586fd5b6136828c838d016131ab565b995060208b0135915080821115613697578586fd5b6136a38c838d016131ab565b985060408b01359150808211156136b8578586fd5b6136c48c838d016131ab565b975060608b01359150808211156136d9578586fd5b6136e58c838d016131ab565b965060808b01359150808211156136fa578586fd5b6137068c838d016131ab565b955060a08b013591508082111561371b578485fd5b6137278c838d016131ab565b945060c08b013591508082111561373c578384fd5b506137498b828c016131ab565b92505061375860e08a0161319b565b90509295985092959890939650565b60008060408385031215613779578182fd5b823567ffffffffffffffff81111561378f578283fd5b61379b858286016131ab565b95602094909401359450505050565b600081518084526137c2816020860160208601613c05565b601f01601f19169290920160200192915050565b60008151608084526137eb60808501826137aa565b90506020830151848203602086015261380482826137aa565b9150506040830151848203604086015261381e82826137aa565b9150506060830151151560608501528091505092915050565b600081516040845261384c60408501826137aa565b90506020830151848203602086015261386582826137aa565b95945050505050565b600081516080845261388360808501826137aa565b90506020830151848203602086015261389c82826137aa565b915050604083015184820360408601526138b682826137aa565b9150506060830151848203606086015261386582826137aa565b80516001600160a01b03168252600061016060208301518160208601526138f9828601826137aa565b9150506040830151848203604086015261391382826137aa565b9150506060830151848203606086015261392d82826137aa565b9150506080830151848203608086015261394782826137aa565b91505060a083015184820360a086015261396182826137aa565b91505060c083015184820360c086015261397b82826137aa565b91505060e083015184820360e086015261399582826137aa565b915050610100808401516139ac8287018215159052565b5050610120838101511515908501526101409283015192909301919091525090565b600082516139e0818460208701613c05565b9190910192915050565b600084516139fc818460208901613c05565b91909101928352506020820152604001919050565b600080835482600182811c915080831680613a2d57607f831692505b6020808410821415613a4d57634e487b7160e01b87526022600452602487fd5b818015613a615760018114613a7257613a9e565b60ff19861689528489019650613a9e565b60008a815260209020885b86811015613a965781548b820152908501908301613a7d565b505084890196505b509498975050505050505050565b6000602080830181845280855180835260408601915060408160051b8701019250838701855b82811015613b0057603f19888603018452613aee8583516137d6565b94509285019290850190600101613ad2565b5092979650505050505050565b6000602080830181845280855180835260408601915060408160051b8701019250838701855b82811015613b0057603f19888603018452613b4f8583516138d0565b94509285019290850190600101613b33565b60006020825261324c60208301846137d6565b60006020825261324c6020830184613837565b60006020825261324c602083018461386e565b600060808252613bad608083018761386e565b8281036020840152613bbf81876137d6565b90508281036040840152613bd381866138d0565b90508281036060840152613be781856137d6565b979650505050505050565b60006020825261324c60208301846138d0565b60005b83811015613c20578181015183820152602001613c08565b838111156115b15750506000910152565b600181811c90821680613c4557607f821691505b60208210811415613c6657634e487b7160e01b600052602260045260246000fd5b50919050565b634e487b7160e01b600052604160045260246000fdfea26469706673582212202c4a019bf32ebd88d425cf032d342d3b3a33d73e11c9393183a3e5cda90c027564736f6c63430008030033453320313434205875616e2054687579202d204361752047696179202d204861204e6f69207468616d206d7575206769757020766965632048696575207472756f6e672074687563206869656e20636f6e6720746163207665207861792064756e672c207175616e206c7920636163206368756f6e67207472696e682064616f2074616f",
  "immutableReferences": {},
  "source": "// SPDX-License-Identifier: MIT\npragma solidity >=0.7.0 <0.9.0;\n\ncontract User{\n \n    constructor() {\n        setRole();\n        setRector();\n        setAADepartmentAcc();\n    }\n \n    struct role {\n        string id;\n        string name;\n    }\n \n    role[4] roleList;\n    mapping(address => role) userRole;\n    \n    function getCurrentUserRole() public view returns (role memory) {\n        return userRole[msg.sender];\n    }\n    \n    function getCurrentUser() public view returns (rector memory, AADUser memory, student memory, company memory){\n        if (keccak256(abi.encodePacked(userRole[msg.sender].id)) == keccak256(abi.encodePacked(\"0\"))){\n            return (rectorDetail[msg.sender],getAADepartmentUser(msg.sender),getStudentByAddr(msg.sender),getCompany(msg.sender));\n        } else if (keccak256(abi.encodePacked(userRole[msg.sender].id)) == keccak256(abi.encodePacked(\"1\"))){\n            return (rectorDetail[msg.sender],getAADepartmentUser(msg.sender),getStudentByAddr(msg.sender),getCompany(msg.sender));\n        } else if (keccak256(abi.encodePacked(userRole[msg.sender].id)) == keccak256(abi.encodePacked(\"2\"))){\n            return (rectorDetail[msg.sender],getAADepartmentUser(msg.sender),getStudentByAddr(msg.sender),getCompany(msg.sender));\n        } else if (keccak256(abi.encodePacked(userRole[msg.sender].id)) == keccak256(abi.encodePacked(\"3\"))){\n            return (rectorDetail[msg.sender],getAADepartmentUser(msg.sender),getStudentByAddr(msg.sender),getCompany(msg.sender));\n        }\n    }\n \n    modifier onlyUser(address _address) {\n        require(msg.sender == _address || msg.sender == currentRectorAddress);\n        _;\n    }\n \n     modifier onlyNoRole(address _address) {\n        require(keccak256(abi.encodePacked(userRole[_address].id)) == keccak256(abi.encodePacked(\"\")));\n        _;\n    }\n \n    function setRole() private {\n        roleList[0] = (role(\"0\",\"rector\"));\n        roleList[1] = (role(\"1\",\"AADepartment\"));\n        roleList[2] = (role(\"2\",\"student\"));\n        roleList[3] = (role(\"3\",\"company\"));\n    }\n \n    struct rector{\n        string name;\n        string date;\n        string phone;\n        string term;\n    }\n \n    address currentRectorAddress; \n \n    mapping(address => rector) rectorDetail;\n \n    modifier onlyCurrentRector() {\n        require(msg.sender == currentRectorAddress);\n        _;\n    }\n \n    function setRector() private {\n        rector memory rectorTemp;\n        rectorTemp.name = \"PGS TS Nguyen Viet Ha\";\n        rectorTemp.date = \"1974\";\n        rectorTemp.phone = \"0989152252\";\n        rectorTemp.term = \"from 2014\";\n        rectorDetail[msg.sender] = rectorTemp;\n        userRole[msg.sender] = roleList[0];\n \n        currentRectorAddress = msg.sender;\n \n    }\n \n    function getCurrentRector() public view returns (rector memory) {\n        rector memory currentRector = rectorDetail[currentRectorAddress];\n        return currentRector;\n    }\n \n    function createNewRector(address _newRectorAddr, string memory _name,string memory _date,string memory _phone, string memory _term) public onlyCurrentRector onlyNoRole(_newRectorAddr) {\n        rector memory newRector = rector(_name, _date, _phone, _term);\n \n        rectorDetail[_newRectorAddr] = newRector;\n        userRole[_newRectorAddr] = roleList[0];\n \n        currentRectorAddress = _newRectorAddr;\n    }\n \n    function updateCurrentRector(string memory _name,string memory _date,string memory _phone, string memory _term) public onlyCurrentRector {\n        rectorDetail[msg.sender].name = _name;\n        rectorDetail[msg.sender].date = _date;\n        rectorDetail[msg.sender].phone = _phone;\n        rectorDetail[msg.sender].term = _term;\n    }\n \n \n    // Academic Affairs Department\n    struct AADepartment {\n        string realAddress; // dia chi PDT\n        string description;\n    }\n \n    struct AADUser {\n        string name;\n        string date;\n        string phone;\n        bool isActive;\n    }\n \n    AADepartment AADepartmentAcc;\n \n    AADUser[] AADUserList;\n    mapping(address => AADUser) AADUsers;\n \n    modifier onlyAADepartmentUser() {\n        AADUser memory currentUser = AADUsers[msg.sender];\n        require(currentUser.isActive == true);\n        _;\n    }\n \n    modifier onlyRectorOrAAD() {\n        require(msg.sender == currentRectorAddress || AADUsers[msg.sender].isActive == true);\n        _;\n    }\n \n    function setAADepartmentAcc() private {\n        AADepartmentAcc.realAddress = \"E3 144 Xuan Thuy - Cau Giay - Ha Noi\";\n        AADepartmentAcc.description = \" tham muu giup viec Hieu truong thuc hien cong tac ve xay dung, quan ly cac chuong trinh dao tao\";\n    }\n \n    function getAADepartmentAcc() public view returns (AADepartment memory){\n        return AADepartmentAcc;\n    }\n \n    function createAADepartmentUser(address _address, string memory _name, string memory _date, string memory _phone) public onlyRectorOrAAD onlyNoRole(_address) {\n        AADUser memory temp = AADUser(_name, _date, _phone, true);\n        AADUserList.push(temp);\n        AADUsers[_address] = temp;\n        userRole[_address] = roleList[1];\n    }\n \n    function updateAADepartmentUser(string memory _name, string memory _date, string memory _phone) public {\n        require(AADUsers[msg.sender].isActive == true);\n        AADUsers[msg.sender].name = _name;\n        AADUsers[msg.sender].date = _date;\n        AADUsers[msg.sender].phone = _phone;\n    }\n \n    function deactiveAADepartmentUser(address _address) public onlyRectorOrAAD{\n        AADUsers[_address].isActive = false;\n    }\n \n    function getAADepartmentUser(address _userAddress) public view returns (AADUser memory) {\n        return AADUsers[_userAddress];\n    }\n \n    struct student {\n        address account;\n        string studentId;\n        string name;\n        string email;\n        string phone;\n        string class;\n        string major;\n        string cpa;\n        bool qualifiedForGraduation;\n        bool isActive;\n        uint nonce;\n    }\n \n    student[] studentList;\n    mapping(address => student) studentDetails;\n    mapping(string => student) idToStudents;\n \n    function createStudent(string memory _studentId, string memory _name, string memory _email, string memory _phone, string memory _class, string memory _major, string memory _cpa, bool _qualifiedForGraduation) public onlyAADepartmentUser {\n        student memory studentTemp = student(address(0x0), _studentId, _name, _email, _phone, _class, _major, _cpa, _qualifiedForGraduation, false, uint(keccak256(abi.encodePacked(_studentId, block.timestamp, block.difficulty))));\n        studentList.push(studentTemp);\n        idToStudents[_studentId] = studentTemp;\n    }\n \n    function activeStudent(string memory _studentId, uint _nonce) public onlyNoRole(msg.sender) {\n        require(_nonce == idToStudents[_studentId].nonce);\n        idToStudents[_studentId].account = msg.sender;\n        idToStudents[_studentId].isActive = true;\n        userRole[msg.sender] = roleList[2];\n \n        studentDetails[msg.sender] = idToStudents[_studentId];\n    }\n    \n    function gettAllStudent() public view onlyRectorOrAAD returns(student[] memory){\n        return studentList;\n    }\n \n    function getStudentById(string memory _studentId) public view returns(student memory){\n        student memory studentTemp = idToStudents[_studentId];\n        studentTemp.nonce = 0;\n        return studentTemp;\n    }\n \n    function getStudentByAddr(address _studentAddr) public view returns(student memory){\n        student memory studentTemp = studentDetails[_studentAddr];\n        studentTemp.nonce = 0;\n        return studentTemp;\n    }\n \n    function getStudentNonce(string memory _studentId) public view onlyRectorOrAAD returns(uint) {\n        return idToStudents[_studentId].nonce;\n    }\n \n    function updateStudentbyAAD(address _address, string memory _studentId, string memory _name, string memory _email, string memory _phone, string memory _class, string memory _major, string memory _cpa, bool _qualifiedForGraduation) public onlyRectorOrAAD {\n        student storage temp = studentDetails[_address];\n        temp.studentId = _studentId;\n        temp.name = _name;\n        temp.email = _email;\n        temp.phone = _phone;\n        temp.class = _class;\n        temp.major = _major;\n        temp.cpa = _cpa;\n        temp.qualifiedForGraduation = _qualifiedForGraduation;\n    }\n \n    function updateStudentInfo(string memory _email, string memory _phone) public {\n        require(studentDetails[msg.sender].isActive == true);\n        studentDetails[msg.sender].email = _email;\n        studentDetails[msg.sender].phone = _phone;\n    }\n \n    struct company{\n        string name;\n        string description;\n        string jobInfo;\n        bool isActive;\n    }\n \n    company[] companyList;\n    mapping(address => company) companyDetails;\n \n    function createCompany(string memory _name, string memory _description, string memory _jobInfo) public onlyNoRole(msg.sender) {\n        company memory companyTemp = company(_name, _description, _jobInfo, false);\n \n        companyList.push(companyTemp);\n        companyDetails[msg.sender] = companyTemp;\n        userRole[msg.sender] = roleList[3];\n    }\n \n    function approveCompany(address _companyAddr) public onlyAADepartmentUser {\n        companyDetails[_companyAddr].isActive = true;\n    }\n \n    function updateCompany(string memory _name, string memory _description, string memory _jobInfo) public {\n        companyDetails[msg.sender].name = _name;\n        companyDetails[msg.sender].description = _description;\n        companyDetails[msg.sender].jobInfo = _jobInfo;\n    }\n \n    function getCompany(address _companyAddr) public view returns(company memory){\n        company memory companyTemp = companyDetails[_companyAddr];\n        return companyTemp;\n    }\n\n    function getAllCompany() public view returns(company[] memory) {\n        return companyList;\n    }\n}\n",
  "sourcePath": "/Users/hughdo/Desktop/Proj/CertVerificationSystem/contracts/User.sol",
  "compiler": {
    "name": "solc",
    "version": "0.8.3+commit.8d00100c.Emscripten.clang"
  },
  "schemaVersion": "3.3.4",
  "updatedAt": "2021-04-10T15:18:42.865Z",
  "networkType": "ethereum",
  "devdoc": {
    "kind": "dev",
    "methods": {},
    "version": 1
  },
  "userdoc": {
    "kind": "user",
    "methods": {},
    "version": 1
  }
}