{
  "contractName": "User",
  "abi": [
    {
      "inputs": [],
      "stateMutability": "nonpayable",
      "type": "constructor"
    },
    {
      "inputs": [],
      "name": "getCurrentUserRole",
      "outputs": [
        {
          "components": [
            {
              "internalType": "string",
              "name": "id",
              "type": "string"
            },
            {
              "internalType": "string",
              "name": "name",
              "type": "string"
            }
          ],
          "internalType": "struct User.role",
          "name": "",
          "type": "tuple"
        }
      ],
      "stateMutability": "view",
      "type": "function",
      "constant": true
    },
    {
      "inputs": [],
      "name": "getCurrentUser",
      "outputs": [
        {
          "components": [
            {
              "internalType": "string",
              "name": "name",
              "type": "string"
            },
            {
              "internalType": "string",
              "name": "date",
              "type": "string"
            },
            {
              "internalType": "string",
              "name": "phone",
              "type": "string"
            },
            {
              "internalType": "string",
              "name": "term",
              "type": "string"
            }
          ],
          "internalType": "struct User.rector",
          "name": "",
          "type": "tuple"
        },
        {
          "components": [
            {
              "internalType": "string",
              "name": "name",
              "type": "string"
            },
            {
              "internalType": "string",
              "name": "date",
              "type": "string"
            },
            {
              "internalType": "string",
              "name": "phone",
              "type": "string"
            },
            {
              "internalType": "bool",
              "name": "isActive",
              "type": "bool"
            }
          ],
          "internalType": "struct User.AADUser",
          "name": "",
          "type": "tuple"
        },
        {
          "components": [
            {
              "internalType": "string",
              "name": "id",
              "type": "string"
            },
            {
              "internalType": "string",
              "name": "name",
              "type": "string"
            },
            {
              "internalType": "string",
              "name": "email",
              "type": "string"
            },
            {
              "internalType": "string",
              "name": "phone",
              "type": "string"
            },
            {
              "internalType": "string",
              "name": "class",
              "type": "string"
            },
            {
              "internalType": "string",
              "name": "major",
              "type": "string"
            },
            {
              "internalType": "string",
              "name": "cpa",
              "type": "string"
            },
            {
              "internalType": "bool",
              "name": "qualifiedForGraduation",
              "type": "bool"
            },
            {
              "internalType": "bool",
              "name": "isActive",
              "type": "bool"
            },
            {
              "internalType": "uint256",
              "name": "nonce",
              "type": "uint256"
            }
          ],
          "internalType": "struct User.student",
          "name": "",
          "type": "tuple"
        },
        {
          "components": [
            {
              "internalType": "string",
              "name": "name",
              "type": "string"
            },
            {
              "internalType": "string",
              "name": "description",
              "type": "string"
            },
            {
              "internalType": "string",
              "name": "jobInfo",
              "type": "string"
            },
            {
              "internalType": "bool",
              "name": "isActive",
              "type": "bool"
            }
          ],
          "internalType": "struct User.company",
          "name": "",
          "type": "tuple"
        }
      ],
      "stateMutability": "view",
      "type": "function",
      "constant": true
    },
    {
      "inputs": [],
      "name": "getCurrentRector",
      "outputs": [
        {
          "components": [
            {
              "internalType": "string",
              "name": "name",
              "type": "string"
            },
            {
              "internalType": "string",
              "name": "date",
              "type": "string"
            },
            {
              "internalType": "string",
              "name": "phone",
              "type": "string"
            },
            {
              "internalType": "string",
              "name": "term",
              "type": "string"
            }
          ],
          "internalType": "struct User.rector",
          "name": "",
          "type": "tuple"
        }
      ],
      "stateMutability": "view",
      "type": "function",
      "constant": true
    },
    {
      "inputs": [
        {
          "internalType": "address",
          "name": "_newRectorAddr",
          "type": "address"
        },
        {
          "internalType": "string",
          "name": "_name",
          "type": "string"
        },
        {
          "internalType": "string",
          "name": "_date",
          "type": "string"
        },
        {
          "internalType": "string",
          "name": "_phone",
          "type": "string"
        },
        {
          "internalType": "string",
          "name": "_term",
          "type": "string"
        }
      ],
      "name": "createNewRector",
      "outputs": [],
      "stateMutability": "nonpayable",
      "type": "function"
    },
    {
      "inputs": [
        {
          "internalType": "string",
          "name": "_name",
          "type": "string"
        },
        {
          "internalType": "string",
          "name": "_date",
          "type": "string"
        },
        {
          "internalType": "string",
          "name": "_phone",
          "type": "string"
        },
        {
          "internalType": "string",
          "name": "_term",
          "type": "string"
        }
      ],
      "name": "updateCurrentRector",
      "outputs": [],
      "stateMutability": "nonpayable",
      "type": "function"
    },
    {
      "inputs": [],
      "name": "getAADepartmentAcc",
      "outputs": [
        {
          "components": [
            {
              "internalType": "string",
              "name": "realAddress",
              "type": "string"
            },
            {
              "internalType": "string",
              "name": "description",
              "type": "string"
            }
          ],
          "internalType": "struct User.AADepartment",
          "name": "",
          "type": "tuple"
        }
      ],
      "stateMutability": "view",
      "type": "function",
      "constant": true
    },
    {
      "inputs": [
        {
          "internalType": "address",
          "name": "_address",
          "type": "address"
        },
        {
          "internalType": "string",
          "name": "_name",
          "type": "string"
        },
        {
          "internalType": "string",
          "name": "_date",
          "type": "string"
        },
        {
          "internalType": "string",
          "name": "_phone",
          "type": "string"
        }
      ],
      "name": "createAADepartmentUser",
      "outputs": [],
      "stateMutability": "nonpayable",
      "type": "function"
    },
    {
      "inputs": [
        {
          "internalType": "string",
          "name": "_name",
          "type": "string"
        },
        {
          "internalType": "string",
          "name": "_date",
          "type": "string"
        },
        {
          "internalType": "string",
          "name": "_phone",
          "type": "string"
        }
      ],
      "name": "updateAADepartmentUser",
      "outputs": [],
      "stateMutability": "nonpayable",
      "type": "function"
    },
    {
      "inputs": [
        {
          "internalType": "address",
          "name": "_address",
          "type": "address"
        }
      ],
      "name": "deactiveAADepartmentUser",
      "outputs": [],
      "stateMutability": "nonpayable",
      "type": "function"
    },
    {
      "inputs": [
        {
          "internalType": "address",
          "name": "_userAddress",
          "type": "address"
        }
      ],
      "name": "getAADepartmentUser",
      "outputs": [
        {
          "components": [
            {
              "internalType": "string",
              "name": "name",
              "type": "string"
            },
            {
              "internalType": "string",
              "name": "date",
              "type": "string"
            },
            {
              "internalType": "string",
              "name": "phone",
              "type": "string"
            },
            {
              "internalType": "bool",
              "name": "isActive",
              "type": "bool"
            }
          ],
          "internalType": "struct User.AADUser",
          "name": "",
          "type": "tuple"
        }
      ],
      "stateMutability": "view",
      "type": "function",
      "constant": true
    },
    {
      "inputs": [
        {
          "internalType": "string",
          "name": "_id",
          "type": "string"
        },
        {
          "internalType": "string",
          "name": "_name",
          "type": "string"
        },
        {
          "internalType": "string",
          "name": "_email",
          "type": "string"
        },
        {
          "internalType": "string",
          "name": "_phone",
          "type": "string"
        },
        {
          "internalType": "string",
          "name": "_class",
          "type": "string"
        },
        {
          "internalType": "string",
          "name": "_major",
          "type": "string"
        },
        {
          "internalType": "string",
          "name": "_cpa",
          "type": "string"
        },
        {
          "internalType": "bool",
          "name": "_qualifiedForGraduation",
          "type": "bool"
        }
      ],
      "name": "createStudent",
      "outputs": [],
      "stateMutability": "nonpayable",
      "type": "function"
    },
    {
      "inputs": [
        {
          "internalType": "string",
          "name": "_id",
          "type": "string"
        },
        {
          "internalType": "uint256",
          "name": "_nonce",
          "type": "uint256"
        }
      ],
      "name": "activeStudent",
      "outputs": [],
      "stateMutability": "nonpayable",
      "type": "function"
    },
    {
      "inputs": [],
      "name": "gettAllStudent",
      "outputs": [
        {
          "components": [
            {
              "internalType": "string",
              "name": "id",
              "type": "string"
            },
            {
              "internalType": "string",
              "name": "name",
              "type": "string"
            },
            {
              "internalType": "string",
              "name": "email",
              "type": "string"
            },
            {
              "internalType": "string",
              "name": "phone",
              "type": "string"
            },
            {
              "internalType": "string",
              "name": "class",
              "type": "string"
            },
            {
              "internalType": "string",
              "name": "major",
              "type": "string"
            },
            {
              "internalType": "string",
              "name": "cpa",
              "type": "string"
            },
            {
              "internalType": "bool",
              "name": "qualifiedForGraduation",
              "type": "bool"
            },
            {
              "internalType": "bool",
              "name": "isActive",
              "type": "bool"
            },
            {
              "internalType": "uint256",
              "name": "nonce",
              "type": "uint256"
            }
          ],
          "internalType": "struct User.student[]",
          "name": "",
          "type": "tuple[]"
        }
      ],
      "stateMutability": "view",
      "type": "function",
      "constant": true
    },
    {
      "inputs": [
        {
          "internalType": "string",
          "name": "_id",
          "type": "string"
        }
      ],
      "name": "getStudentById",
      "outputs": [
        {
          "components": [
            {
              "internalType": "string",
              "name": "id",
              "type": "string"
            },
            {
              "internalType": "string",
              "name": "name",
              "type": "string"
            },
            {
              "internalType": "string",
              "name": "email",
              "type": "string"
            },
            {
              "internalType": "string",
              "name": "phone",
              "type": "string"
            },
            {
              "internalType": "string",
              "name": "class",
              "type": "string"
            },
            {
              "internalType": "string",
              "name": "major",
              "type": "string"
            },
            {
              "internalType": "string",
              "name": "cpa",
              "type": "string"
            },
            {
              "internalType": "bool",
              "name": "qualifiedForGraduation",
              "type": "bool"
            },
            {
              "internalType": "bool",
              "name": "isActive",
              "type": "bool"
            },
            {
              "internalType": "uint256",
              "name": "nonce",
              "type": "uint256"
            }
          ],
          "internalType": "struct User.student",
          "name": "",
          "type": "tuple"
        }
      ],
      "stateMutability": "view",
      "type": "function",
      "constant": true
    },
    {
      "inputs": [
        {
          "internalType": "address",
          "name": "_studentAddr",
          "type": "address"
        }
      ],
      "name": "getStudentByAddr",
      "outputs": [
        {
          "components": [
            {
              "internalType": "string",
              "name": "id",
              "type": "string"
            },
            {
              "internalType": "string",
              "name": "name",
              "type": "string"
            },
            {
              "internalType": "string",
              "name": "email",
              "type": "string"
            },
            {
              "internalType": "string",
              "name": "phone",
              "type": "string"
            },
            {
              "internalType": "string",
              "name": "class",
              "type": "string"
            },
            {
              "internalType": "string",
              "name": "major",
              "type": "string"
            },
            {
              "internalType": "string",
              "name": "cpa",
              "type": "string"
            },
            {
              "internalType": "bool",
              "name": "qualifiedForGraduation",
              "type": "bool"
            },
            {
              "internalType": "bool",
              "name": "isActive",
              "type": "bool"
            },
            {
              "internalType": "uint256",
              "name": "nonce",
              "type": "uint256"
            }
          ],
          "internalType": "struct User.student",
          "name": "",
          "type": "tuple"
        }
      ],
      "stateMutability": "view",
      "type": "function",
      "constant": true
    },
    {
      "inputs": [
        {
          "internalType": "string",
          "name": "_id",
          "type": "string"
        }
      ],
      "name": "getStudentNonce",
      "outputs": [
        {
          "internalType": "uint256",
          "name": "",
          "type": "uint256"
        }
      ],
      "stateMutability": "view",
      "type": "function",
      "constant": true
    },
    {
      "inputs": [
        {
          "internalType": "address",
          "name": "_address",
          "type": "address"
        },
        {
          "internalType": "string",
          "name": "_id",
          "type": "string"
        },
        {
          "internalType": "string",
          "name": "_name",
          "type": "string"
        },
        {
          "internalType": "string",
          "name": "_email",
          "type": "string"
        },
        {
          "internalType": "string",
          "name": "_phone",
          "type": "string"
        },
        {
          "internalType": "string",
          "name": "_class",
          "type": "string"
        },
        {
          "internalType": "string",
          "name": "_major",
          "type": "string"
        },
        {
          "internalType": "string",
          "name": "_cpa",
          "type": "string"
        },
        {
          "internalType": "bool",
          "name": "_qualifiedForGraduation",
          "type": "bool"
        }
      ],
      "name": "updateStudentbyAAD",
      "outputs": [],
      "stateMutability": "nonpayable",
      "type": "function"
    },
    {
      "inputs": [
        {
          "internalType": "string",
          "name": "_email",
          "type": "string"
        },
        {
          "internalType": "string",
          "name": "_phone",
          "type": "string"
        }
      ],
      "name": "updateStudentInfo",
      "outputs": [],
      "stateMutability": "nonpayable",
      "type": "function"
    },
    {
      "inputs": [
        {
          "internalType": "string",
          "name": "_name",
          "type": "string"
        },
        {
          "internalType": "string",
          "name": "_description",
          "type": "string"
        },
        {
          "internalType": "string",
          "name": "_jobInfo",
          "type": "string"
        }
      ],
      "name": "createCompany",
      "outputs": [],
      "stateMutability": "nonpayable",
      "type": "function"
    },
    {
      "inputs": [
        {
          "internalType": "address",
          "name": "_companyAddr",
          "type": "address"
        }
      ],
      "name": "approveCompany",
      "outputs": [],
      "stateMutability": "nonpayable",
      "type": "function"
    },
    {
      "inputs": [
        {
          "internalType": "string",
          "name": "_name",
          "type": "string"
        },
        {
          "internalType": "string",
          "name": "_description",
          "type": "string"
        },
        {
          "internalType": "string",
          "name": "_jobInfo",
          "type": "string"
        }
      ],
      "name": "updateCompany",
      "outputs": [],
      "stateMutability": "nonpayable",
      "type": "function"
    },
    {
      "inputs": [
        {
          "internalType": "address",
          "name": "_companyAddr",
          "type": "address"
        }
      ],
      "name": "getCompany",
      "outputs": [
        {
          "components": [
            {
              "internalType": "string",
              "name": "name",
              "type": "string"
            },
            {
              "internalType": "string",
              "name": "description",
              "type": "string"
            },
            {
              "internalType": "string",
              "name": "jobInfo",
              "type": "string"
            },
            {
              "internalType": "bool",
              "name": "isActive",
              "type": "bool"
            }
          ],
          "internalType": "struct User.company",
          "name": "",
          "type": "tuple"
        }
      ],
      "stateMutability": "view",
      "type": "function",
      "constant": true
    },
    {
      "inputs": [],
      "name": "getAllCompany",
      "outputs": [
        {
          "components": [
            {
              "internalType": "string",
              "name": "name",
              "type": "string"
            },
            {
              "internalType": "string",
              "name": "description",
              "type": "string"
            },
            {
              "internalType": "string",
              "name": "jobInfo",
              "type": "string"
            },
            {
              "internalType": "bool",
              "name": "isActive",
              "type": "bool"
            }
          ],
          "internalType": "struct User.company[]",
          "name": "",
          "type": "tuple[]"
        }
      ],
      "stateMutability": "view",
      "type": "function",
      "constant": true
    }
  ],
  "bytecode": "0x60806040523480156200001157600080fd5b506200001c62000036565b620000266200022e565b62000030620003de565b620005a9565b604080516080810182526001818301908152600360fc1b60608301528152815180830190925260068252653932b1ba37b960d11b6020808401919091528082019290925280518051919260009262000092928492019062000442565b506020828101518051620000ad926001850192019062000442565b5050604080516080810182526001818301908152603160f81b606083015281528151808301909252600c82526b105051195c185c9d1b595b9d60a21b6020808401919091528082019290925280518051919350600292620001149284929091019062000442565b5060208281015180516200012f926001850192019062000442565b5050604080516080810182526001818301908152601960f91b60608301528152815180830190925260078252661cdd1d59195b9d60ca1b6020808401919091528082019290925280518051919350600492620001919284929091019062000442565b506020828101518051620001ac926001850192019062000442565b5050604080516080810182526001818301908152603360f81b6060830152815281518083019092526007825266636f6d70616e7960c81b60208084019190915280820192909252805180519193506006926200020e9284929091019062000442565b50602082810151805162000229926001850192019062000442565b505050565b6200025a6040518060800160405280606081526020016060815260200160608152602001606081525090565b604080518082018252601581527f504753205453204e677579656e205669657420486100000000000000000000006020808301919091529083528151808301835260048152630c4e4dcd60e21b818301528382015281518083018352600a80825269181c9c1c989a99191a9960b11b8284015284840191909152825180840184526009815268199c9bdb480c8c0c4d60ba1b818401526060850152336000908152908252919091208251805184936200031892849291019062000442565b50602082810151805162000333926001850192019062000442565b50604082015180516200035191600284019160209091019062000442565b50606082015180516200036f91600384019160209091019062000442565b50503360009081526008602052604081208154919250908190839062000395906200056c565b620003a2929190620004d1565b506001820181600101908054620003b9906200056c565b620003c6929190620004d1565b5050600980546001600160a01b031916331790555050565b60405180606001604052806024815260200162003ee56024913980516200040e91600b9160209091019062000442565b5060405180608001604052806060815260200162003f096060913980516200043f91600c9160209091019062000442565b50565b82805462000450906200056c565b90600052602060002090601f016020900481019282620004745760008555620004bf565b82601f106200048f57805160ff1916838001178555620004bf565b82800160010185558215620004bf579182015b82811115620004bf578251825591602001919060010190620004a2565b50620004cd92915062000555565b5090565b828054620004df906200056c565b90600052602060002090601f016020900481019282620005035760008555620004bf565b82601f10620005165780548555620004bf565b82800160010185558215620004bf57600052602060002091601f016020900482015b82811115620004bf57825482559160010191906001019062000538565b5b80821115620004cd576000815560010162000556565b600181811c908216806200058157607f821691505b60208210811415620005a357634e487b7160e01b600052602260045260246000fd5b50919050565b61392c80620005b96000396000f3fe608060405234801561001057600080fd5b506004361061014d5760003560e01c806375957bc0116100c3578063ba8805f41161007c578063ba8805f4146102c8578063bd2456c7146102db578063c23fd5a6146102ee578063c805974714610301578063ed7ad82614610316578063eed879eb146103295761014d565b806375957bc0146102465780637b60626d1461024e5780637d67d900146102615780638f19aed41461028257806393b3298c14610295578063b174ba82146102b55761014d565b80633cf079f0116101155780633cf079f0146101c257806343ae37c3146101d55780634b0875e9146101ed5780635c6f2e081461020057806362bc56e6146102135780636b5fe4b6146102335761014d565b806308fc4b3d146101525780630d2393fd14610170578063106e3ea6146101855780632bd51b661461019a578063388807cf146101ad575b600080fd5b61015a61033c565b6040516101679190613781565b60405180910390f35b610178610803565b6040516101679190613720565b610198610193366004612edc565b610a21565b005b6101986101a8366004612ebb565b610c52565b6101b5610caf565b60405161016791906137e8565b6101986101d0366004612ebb565b610e04565b6101dd610e4f565b604051610167949392919061380e565b6101986101fb3660046131fb565b611337565b61019861020e3660046131fb565b6113cf565b610226610221366004612ebb565b61143d565b60405161016791906137d5565b61019861024136600461302a565b61165b565b6101b5611762565b61019861025c3660046131fb565b611793565b61027461026f36600461315f565b611970565b604051908152602001610167565b6101986102903660046132cc565b6119d5565b6102a86102a3366004612ebb565b611ccc565b6040516101679190613866565b6101986102c336600461327f565b61212d565b6101986102d63660046133f0565b6121e0565b6102266102e9366004612ebb565b612599565b6101986102fc36600461319a565b6127b5565b610309612831565b60405161016791906137fb565b6102a861032436600461315f565b612acf565b610198610337366004612f71565b612b13565b6009546060906001600160a01b031633148061036f5750336000908152600e602052604090206003015460ff1615156001145b61037857600080fd5b600f805480602002602001604051908101604052809291908181526020016000905b828210156107fa5783829060005260206000209060090201604051806101400160405290816000820180546103ce906138a5565b80601f01602080910402602001604051908101604052809291908181526020018280546103fa906138a5565b80156104475780601f1061041c57610100808354040283529160200191610447565b820191906000526020600020905b81548152906001019060200180831161042a57829003601f168201915b50505050508152602001600182018054610460906138a5565b80601f016020809104026020016040519081016040528092919081815260200182805461048c906138a5565b80156104d95780601f106104ae576101008083540402835291602001916104d9565b820191906000526020600020905b8154815290600101906020018083116104bc57829003601f168201915b505050505081526020016002820180546104f2906138a5565b80601f016020809104026020016040519081016040528092919081815260200182805461051e906138a5565b801561056b5780601f106105405761010080835404028352916020019161056b565b820191906000526020600020905b81548152906001019060200180831161054e57829003601f168201915b50505050508152602001600382018054610584906138a5565b80601f01602080910402602001604051908101604052809291908181526020018280546105b0906138a5565b80156105fd5780601f106105d2576101008083540402835291602001916105fd565b820191906000526020600020905b8154815290600101906020018083116105e057829003601f168201915b50505050508152602001600482018054610616906138a5565b80601f0160208091040260200160405190810160405280929190818152602001828054610642906138a5565b801561068f5780601f106106645761010080835404028352916020019161068f565b820191906000526020600020905b81548152906001019060200180831161067257829003601f168201915b505050505081526020016005820180546106a8906138a5565b80601f01602080910402602001604051908101604052809291908181526020018280546106d4906138a5565b80156107215780601f106106f657610100808354040283529160200191610721565b820191906000526020600020905b81548152906001019060200180831161070457829003601f168201915b5050505050815260200160068201805461073a906138a5565b80601f0160208091040260200160405190810160405280929190818152602001828054610766906138a5565b80156107b35780601f10610788576101008083540402835291602001916107b3565b820191906000526020600020905b81548152906001019060200180831161079657829003601f168201915b5050509183525050600782015460ff80821615156020808501919091526101009092041615156040830152600890920154606090910152908252600192909201910161039a565b50505050905090565b60606012805480602002602001604051908101604052809291908181526020016000905b828210156107fa578382906000526020600020906004020160405180608001604052908160008201805461085a906138a5565b80601f0160208091040260200160405190810160405280929190818152602001828054610886906138a5565b80156108d35780601f106108a8576101008083540402835291602001916108d3565b820191906000526020600020905b8154815290600101906020018083116108b657829003601f168201915b505050505081526020016001820180546108ec906138a5565b80601f0160208091040260200160405190810160405280929190818152602001828054610918906138a5565b80156109655780601f1061093a57610100808354040283529160200191610965565b820191906000526020600020905b81548152906001019060200180831161094857829003601f168201915b5050505050815260200160028201805461097e906138a5565b80601f01602080910402602001604051908101604052809291908181526020018280546109aa906138a5565b80156109f75780601f106109cc576101008083540402835291602001916109f7565b820191906000526020600020905b8154815290600101906020018083116109da57829003601f168201915b50505091835250506003919091015460ff1615156020918201529082526001929092019101610827565b6009546001600160a01b0316331480610a515750336000908152600e602052604090206003015460ff1615156001145b610a5a57600080fd5b6040805160008082526020808301808552835190206001600160a01b038916835260089091529083902087939192610a929201613685565b6040516020818303038152906040528051906020012014610ab257600080fd5b604080516080810182528581526020808201869052918101849052600160608201819052600d80549182018155600052815180519293849360049093027fd7b6990105719101dabeb77144f2a3385c8033acd3af97e9423a695e81ad1eb50192610b1f9284920190612ca2565b506020828101518051610b389260018501920190612ca2565b5060408201518051610b54916002840191602090910190612ca2565b50606091909101516003909101805460ff19169115159190911790556001600160a01b0386166000908152600e60209081526040909120825180518493610b9f928492910190612ca2565b506020828101518051610bb89260018501920190612ca2565b5060408201518051610bd4916002840191602090910190612ca2565b50606091909101516003909101805460ff19169115159190911790556001600160a01b03861660009081526008602052604090206002805490919081908390610c1c906138a5565b610c27929190612d26565b506001820181600101908054610c3c906138a5565b610c47929190612d26565b505050505050505050565b6009546001600160a01b0316331480610c825750336000908152600e602052604090206003015460ff1615156001145b610c8b57600080fd5b6001600160a01b03166000908152600e60205260409020600301805460ff19169055565b604080518082019091526060808252602082015233600090815260086020526040908190208151808301909252805482908290610ceb906138a5565b80601f0160208091040260200160405190810160405280929190818152602001828054610d17906138a5565b8015610d645780601f10610d3957610100808354040283529160200191610d64565b820191906000526020600020905b815481529060010190602001808311610d4757829003601f168201915b50505050508152602001600182018054610d7d906138a5565b80601f0160208091040260200160405190810160405280929190818152602001828054610da9906138a5565b8015610df65780601f10610dcb57610100808354040283529160200191610df6565b820191906000526020600020905b815481529060010190602001808311610dd957829003601f168201915b505050505081525050905090565b336000908152600e602052604090206003015460ff161515600114610e2857600080fd5b6001600160a01b03166000908152601360205260409020600301805460ff19166001179055565b610e7a6040518060800160405280606081526020016060815260200160608152602001606081525090565b610ea760405180608001604052806060815260200160608152602001606081526020016000151581525090565b610eaf612da1565b610edc60405180608001604052806060815260200160608152602001606081526020016000151581525090565b604051600360fc1b602082015260210160408051601f19818403018152828252805160209182012033600090815260088352929092209192610f1f929101613685565b6040516020818303038152906040528051906020012014156111c957336000818152600a6020526040902090610f5490612599565b610f5d33611ccc565b610f663361143d565b83604051806080016040529081600082018054610f82906138a5565b80601f0160208091040260200160405190810160405280929190818152602001828054610fae906138a5565b8015610ffb5780601f10610fd057610100808354040283529160200191610ffb565b820191906000526020600020905b815481529060010190602001808311610fde57829003601f168201915b50505050508152602001600182018054611014906138a5565b80601f0160208091040260200160405190810160405280929190818152602001828054611040906138a5565b801561108d5780601f106110625761010080835404028352916020019161108d565b820191906000526020600020905b81548152906001019060200180831161107057829003601f168201915b505050505081526020016002820180546110a6906138a5565b80601f01602080910402602001604051908101604052809291908181526020018280546110d2906138a5565b801561111f5780601f106110f45761010080835404028352916020019161111f565b820191906000526020600020905b81548152906001019060200180831161110257829003601f168201915b50505050508152602001600382018054611138906138a5565b80601f0160208091040260200160405190810160405280929190818152602001828054611164906138a5565b80156111b15780601f10611186576101008083540402835291602001916111b1565b820191906000526020600020905b81548152906001019060200180831161119457829003601f168201915b50505050508152505093509350935093509350611331565b604051603160f81b602082015260210160408051601f1981840301815282825280516020918201203360009081526008835292909220919261120c929101613685565b60405160208183030381529060405280519060200120141561124157336000818152600a6020526040902090610f5490612599565b604051601960f91b602082015260210160408051601f19818403018152828252805160209182012033600090815260088352929092209192611284929101613685565b6040516020818303038152906040528051906020012014156112b957336000818152600a6020526040902090610f5490612599565b604051603360f81b602082015260210160408051601f198184030181528282528051602091820120336000908152600883529290922091926112fc929101613685565b60405160208183030381529060405280519060200120141561133157336000818152600a6020526040902090610f5490612599565b90919293565b336000908152600e602052604090206003015460ff16151560011461135b57600080fd5b336000908152600e60209081526040909120845161137b92860190612ca2565b50336000908152600e6020908152604090912083516113a292600190920191850190612ca2565b50336000908152600e6020908152604090912082516113c992600290920191840190612ca2565b50505050565b33600090815260136020908152604090912084516113ef92860190612ca2565b50336000908152601360209081526040909120835161141692600190920191850190612ca2565b5033600090815260136020908152604090912082516113c992600290920191840190612ca2565b61146a60405180608001604052806060815260200160608152602001606081526020016000151581525090565b6001600160a01b03821660009081526013602052604080822081516080810190925280548290829061149b906138a5565b80601f01602080910402602001604051908101604052809291908181526020018280546114c7906138a5565b80156115145780601f106114e957610100808354040283529160200191611514565b820191906000526020600020905b8154815290600101906020018083116114f757829003601f168201915b5050505050815260200160018201805461152d906138a5565b80601f0160208091040260200160405190810160405280929190818152602001828054611559906138a5565b80156115a65780601f1061157b576101008083540402835291602001916115a6565b820191906000526020600020905b81548152906001019060200180831161158957829003601f168201915b505050505081526020016002820180546115bf906138a5565b80601f01602080910402602001604051908101604052809291908181526020018280546115eb906138a5565b80156116385780601f1061160d57610100808354040283529160200191611638565b820191906000526020600020905b81548152906001019060200180831161161b57829003601f168201915b50505091835250506003919091015460ff1615156020909101529150505b919050565b6009546001600160a01b031633148061168b5750336000908152600e602052604090206003015460ff1615156001145b61169457600080fd5b6001600160a01b0389166000908152601060209081526040909120895190916116c19183918c0190612ca2565b5087516116d790600183019060208b0190612ca2565b5086516116ed90600283019060208a0190612ca2565b5085516117039060038301906020890190612ca2565b5084516117199060048301906020880190612ca2565b50835161172f9060058301906020870190612ca2565b5082516117459060068301906020860190612ca2565b50600701805460ff19169115159190911790555050505050505050565b6040805180820190915260608082526020820152600b604051806040016040529081600082018054610ceb906138a5565b60408051600080825260208083018085528351902033808452600890925291849020909391926117c39201613685565b60405160208183030381529060405280519060200120146117e357600080fd5b604080516080810182528581526020808201869052918101849052600060608201819052601280546001810182559152815180519293849360049093027fbb8a6a4669ba250d26cd7a459eca9d215f8307e33aebe50379bc5a3617ec344401926118509284920190612ca2565b5060208281015180516118699260018501920190612ca2565b5060408201518051611885916002840191602090910190612ca2565b50606091909101516003909101805460ff19169115159190911790553360009081526013602090815260409091208251805184936118c7928492910190612ca2565b5060208281015180516118e09260018501920190612ca2565b50604082015180516118fc916002840191602090910190612ca2565b50606091909101516003909101805460ff1916911515919091179055336000908152600860205260409020600680549091908190839061193b906138a5565b611946929190612d26565b50600182018160010190805461195b906138a5565b611966929190612d26565b5050505050505050565b6009546000906001600160a01b03163314806119a35750336000908152600e602052604090206003015460ff1615156001145b6119ac57600080fd5b6011826040516119bc9190613642565b9081526020016040518091039020600801549050919050565b336000908152600e602052604090206003015460ff1615156001146119f957600080fd5b60006040518061014001604052808a815260200189815260200188815260200187815260200186815260200185815260200184815260200183151581526020016000151581526020018a4244604051602001611a579392919061365e565b60408051601f198184030181529190528051602091820120909152600f805460018101825560009190915282518051939450849360099092027f8d1108e10bcb7c27dddfc02ed9d693a074039d026cf4ea4240b40f7d581ac8020192611ac292849290910190612ca2565b506020828101518051611adb9260018501920190612ca2565b5060408201518051611af7916002840191602090910190612ca2565b5060608201518051611b13916003840191602090910190612ca2565b5060808201518051611b2f916004840191602090910190612ca2565b5060a08201518051611b4b916005840191602090910190612ca2565b5060c08201518051611b67916006840191602090910190612ca2565b5060e08201516007820180546101008086015115150261ff00199315159390931661ffff1990911617919091179055610120909101516008909101556040518190601190611bb6908c90613642565b90815260200160405180910390206000820151816000019080519060200190611be0929190612ca2565b506020828101518051611bf99260018501920190612ca2565b5060408201518051611c15916002840191602090910190612ca2565b5060608201518051611c31916003840191602090910190612ca2565b5060808201518051611c4d916004840191602090910190612ca2565b5060a08201518051611c69916005840191602090910190612ca2565b5060c08201518051611c85916006840191602090910190612ca2565b5060e08201516007820180546101008086015115150261ff00199315159390931661ffff199091161791909117905561012090910151600890910155505050505050505050565b611cd4612da1565b6001600160a01b03821660009081526010602052604080822081516101408101909252805482908290611d06906138a5565b80601f0160208091040260200160405190810160405280929190818152602001828054611d32906138a5565b8015611d7f5780601f10611d5457610100808354040283529160200191611d7f565b820191906000526020600020905b815481529060010190602001808311611d6257829003601f168201915b50505050508152602001600182018054611d98906138a5565b80601f0160208091040260200160405190810160405280929190818152602001828054611dc4906138a5565b8015611e115780601f10611de657610100808354040283529160200191611e11565b820191906000526020600020905b815481529060010190602001808311611df457829003601f168201915b50505050508152602001600282018054611e2a906138a5565b80601f0160208091040260200160405190810160405280929190818152602001828054611e56906138a5565b8015611ea35780601f10611e7857610100808354040283529160200191611ea3565b820191906000526020600020905b815481529060010190602001808311611e8657829003601f168201915b50505050508152602001600382018054611ebc906138a5565b80601f0160208091040260200160405190810160405280929190818152602001828054611ee8906138a5565b8015611f355780601f10611f0a57610100808354040283529160200191611f35565b820191906000526020600020905b815481529060010190602001808311611f1857829003601f168201915b50505050508152602001600482018054611f4e906138a5565b80601f0160208091040260200160405190810160405280929190818152602001828054611f7a906138a5565b8015611fc75780601f10611f9c57610100808354040283529160200191611fc7565b820191906000526020600020905b815481529060010190602001808311611faa57829003601f168201915b50505050508152602001600582018054611fe0906138a5565b80601f016020809104026020016040519081016040528092919081815260200182805461200c906138a5565b80156120595780601f1061202e57610100808354040283529160200191612059565b820191906000526020600020905b81548152906001019060200180831161203c57829003601f168201915b50505050508152602001600682018054612072906138a5565b80601f016020809104026020016040519081016040528092919081815260200182805461209e906138a5565b80156120eb5780601f106120c0576101008083540402835291602001916120eb565b820191906000526020600020905b8154815290600101906020018083116120ce57829003601f168201915b5050509183525050600782015460ff80821615156020840152610100909104161515604082015260089091015460609091015260006101208201529392505050565b6009546001600160a01b0316331461214457600080fd5b336000908152600a60209081526040909120855161216492870190612ca2565b50336000908152600a60209081526040909120845161218b92600190920191860190612ca2565b50336000908152600a6020908152604090912083516121b292600290920191850190612ca2565b50336000908152600a6020908152604090912082516121d992600390920191840190612ca2565b5050505050565b60408051600080825260208083018085528351902033808452600890925291849020909391926122109201613685565b604051602081830303815290604052805190602001201461223057600080fd5b6011836040516122409190613642565b908152602001604051809103902060080154821461225d57600080fd5b60118360405161226d9190613642565b90815260408051602092819003830190203360009081526010909352912081548190839061229a906138a5565b6122a5929190612d26565b5060018201816001019080546122ba906138a5565b6122c5929190612d26565b5060028201816002019080546122da906138a5565b6122e5929190612d26565b5060038201816003019080546122fa906138a5565b612305929190612d26565b50600482018160040190805461231a906138a5565b612325929190612d26565b50600582018160050190805461233a906138a5565b612345929190612d26565b50600682018160060190805461235a906138a5565b612365929190612d26565b5060078281018054918301805460ff938416151560ff19821681178355925461010090819004909416151590930261ff001990921661ffff19909316929092171790556008918201549101556040516001906011906123c5908690613642565b9081526040805160209281900383019020600701805461ff00191661010094151594909402939093179092553360009081526008909152206004805490919081908390612411906138a5565b61241c929190612d26565b506001820181600101908054612431906138a5565b61243c929190612d26565b509050506011836040516124509190613642565b90815260408051602092819003830190203360009081526010909352912081548190839061247d906138a5565b612488929190612d26565b50600182018160010190805461249d906138a5565b6124a8929190612d26565b5060028201816002019080546124bd906138a5565b6124c8929190612d26565b5060038201816003019080546124dd906138a5565b6124e8929190612d26565b5060048201816004019080546124fd906138a5565b612508929190612d26565b50600582018160050190805461251d906138a5565b612528929190612d26565b50600682018160060190805461253d906138a5565b612548929190612d26565b5060078281018054918301805460ff938416151560ff19821681178355925461010090819004909416151590930261ff001990921661ffff1990931692909217179055600891820154910155505050565b6125c660405180608001604052806060815260200160608152602001606081526020016000151581525090565b6001600160a01b0382166000908152600e6020526040908190208151608081019092528054829082906125f8906138a5565b80601f0160208091040260200160405190810160405280929190818152602001828054612624906138a5565b80156126715780601f1061264657610100808354040283529160200191612671565b820191906000526020600020905b81548152906001019060200180831161265457829003601f168201915b5050505050815260200160018201805461268a906138a5565b80601f01602080910402602001604051908101604052809291908181526020018280546126b6906138a5565b80156127035780601f106126d857610100808354040283529160200191612703565b820191906000526020600020905b8154815290600101906020018083116126e657829003601f168201915b5050505050815260200160028201805461271c906138a5565b80601f0160208091040260200160405190810160405280929190818152602001828054612748906138a5565b80156127955780601f1061276a57610100808354040283529160200191612795565b820191906000526020600020905b81548152906001019060200180831161277857829003601f168201915b50505091835250506003919091015460ff16151560209091015292915050565b3360009081526010602052604090206007015460ff6101009091041615156001146127df57600080fd5b336000908152601060209081526040909120835161280592600290920191850190612ca2565b50336000908152601060209081526040909120825161282c92600390920191840190612ca2565b505050565b61285c6040518060800160405280606081526020016060815260200160608152602001606081525090565b6009546001600160a01b03166000908152600a602052604080822081516080810190925280548290829061288f906138a5565b80601f01602080910402602001604051908101604052809291908181526020018280546128bb906138a5565b80156129085780601f106128dd57610100808354040283529160200191612908565b820191906000526020600020905b8154815290600101906020018083116128eb57829003601f168201915b50505050508152602001600182018054612921906138a5565b80601f016020809104026020016040519081016040528092919081815260200182805461294d906138a5565b801561299a5780601f1061296f5761010080835404028352916020019161299a565b820191906000526020600020905b81548152906001019060200180831161297d57829003601f168201915b505050505081526020016002820180546129b3906138a5565b80601f01602080910402602001604051908101604052809291908181526020018280546129df906138a5565b8015612a2c5780601f10612a0157610100808354040283529160200191612a2c565b820191906000526020600020905b815481529060010190602001808311612a0f57829003601f168201915b50505050508152602001600382018054612a45906138a5565b80601f0160208091040260200160405190810160405280929190818152602001828054612a71906138a5565b8015612abe5780601f10612a9357610100808354040283529160200191612abe565b820191906000526020600020905b815481529060010190602001808311612aa157829003601f168201915b505050919092525091935050505090565b612ad7612da1565b6000601183604051612ae99190613642565b908152602001604051809103902060405180610140016040529081600082018054611d06906138a5565b6009546001600160a01b03163314612b2a57600080fd5b6040805160008082526020808301808552835190206001600160a01b038a16835260089091529083902088939192612b629201613685565b6040516020818303038152906040528051906020012014612b8257600080fd5b604080516080810182528681526020808201879052818301869052606082018590526001600160a01b0389166000908152600a8252929092208151805192938493612bd09284920190612ca2565b506020828101518051612be99260018501920190612ca2565b5060408201518051612c05916002840191602090910190612ca2565b5060608201518051612c21916003840191602090910190612ca2565b5050506001600160a01b0387166000908152600860205260408120815481908390612c4b906138a5565b612c56929190612d26565b506001820181600101908054612c6b906138a5565b612c76929190612d26565b5050600980546001600160a01b0319166001600160a01b03999099169890981790975550505050505050565b828054612cae906138a5565b90600052602060002090601f016020900481019282612cd05760008555612d16565b82601f10612ce957805160ff1916838001178555612d16565b82800160010185558215612d16579182015b82811115612d16578251825591602001919060010190612cfb565b50612d22929150612df8565b5090565b828054612d32906138a5565b90600052602060002090601f016020900481019282612d545760008555612d16565b82601f10612d655780548555612d16565b82800160010185558215612d1657600052602060002091601f016020900482015b82811115612d16578254825591600101919060010190612d86565b60405180610140016040528060608152602001606081526020016060815260200160608152602001606081526020016060815260200160608152602001600015158152602001600015158152602001600081525090565b5b80821115612d225760008155600101612df9565b80356001600160a01b038116811461165657600080fd5b8035801515811461165657600080fd5b600082601f830112612e44578081fd5b813567ffffffffffffffff80821115612e5f57612e5f6138e0565b604051601f8301601f19908116603f01168101908282118183101715612e8757612e876138e0565b81604052838152866020858801011115612e9f578485fd5b8360208701602083013792830160200193909352509392505050565b600060208284031215612ecc578081fd5b612ed582612e0d565b9392505050565b60008060008060808587031215612ef1578283fd5b612efa85612e0d565b9350602085013567ffffffffffffffff80821115612f16578485fd5b612f2288838901612e34565b94506040870135915080821115612f37578384fd5b612f4388838901612e34565b93506060870135915080821115612f58578283fd5b50612f6587828801612e34565b91505092959194509250565b600080600080600060a08688031215612f88578081fd5b612f9186612e0d565b9450602086013567ffffffffffffffff80821115612fad578283fd5b612fb989838a01612e34565b95506040880135915080821115612fce578283fd5b612fda89838a01612e34565b94506060880135915080821115612fef578283fd5b612ffb89838a01612e34565b93506080880135915080821115613010578283fd5b5061301d88828901612e34565b9150509295509295909350565b60008060008060008060008060006101208a8c031215613048578384fd5b6130518a612e0d565b985060208a013567ffffffffffffffff8082111561306d578586fd5b6130798d838e01612e34565b995060408c013591508082111561308e578586fd5b61309a8d838e01612e34565b985060608c01359150808211156130af578586fd5b6130bb8d838e01612e34565b975060808c01359150808211156130d0578586fd5b6130dc8d838e01612e34565b965060a08c01359150808211156130f1578586fd5b6130fd8d838e01612e34565b955060c08c0135915080821115613112578485fd5b61311e8d838e01612e34565b945060e08c0135915080821115613133578384fd5b506131408c828d01612e34565b9250506131506101008b01612e24565b90509295985092959850929598565b600060208284031215613170578081fd5b813567ffffffffffffffff811115613186578182fd5b61319284828501612e34565b949350505050565b600080604083850312156131ac578182fd5b823567ffffffffffffffff808211156131c3578384fd5b6131cf86838701612e34565b935060208501359150808211156131e4578283fd5b506131f185828601612e34565b9150509250929050565b60008060006060848603121561320f578283fd5b833567ffffffffffffffff80821115613226578485fd5b61323287838801612e34565b94506020860135915080821115613247578384fd5b61325387838801612e34565b93506040860135915080821115613268578283fd5b5061327586828701612e34565b9150509250925092565b60008060008060808587031215613294578384fd5b843567ffffffffffffffff808211156132ab578586fd5b6132b788838901612e34565b95506020870135915080821115612f16578485fd5b600080600080600080600080610100898b0312156132e8578384fd5b883567ffffffffffffffff808211156132ff578586fd5b61330b8c838d01612e34565b995060208b0135915080821115613320578586fd5b61332c8c838d01612e34565b985060408b0135915080821115613341578586fd5b61334d8c838d01612e34565b975060608b0135915080821115613362578586fd5b61336e8c838d01612e34565b965060808b0135915080821115613383578586fd5b61338f8c838d01612e34565b955060a08b01359150808211156133a4578485fd5b6133b08c838d01612e34565b945060c08b01359150808211156133c5578384fd5b506133d28b828c01612e34565b9250506133e160e08a01612e24565b90509295985092959890939650565b60008060408385031215613402578182fd5b823567ffffffffffffffff811115613418578283fd5b61342485828601612e34565b95602094909401359450505050565b6000815180845261344b816020860160208601613879565b601f01601f19169290920160200192915050565b60008151608084526134746080850182613433565b90506020830151848203602086015261348d8282613433565b915050604083015184820360408601526134a78282613433565b9150506060830151151560608501528091505092915050565b60008151604084526134d56040850182613433565b9050602083015184820360208601526134ee8282613433565b95945050505050565b600081516080845261350c6080850182613433565b9050602083015184820360208601526135258282613433565b9150506040830151848203604086015261353f8282613433565b915050606083015184820360608601526134ee8282613433565b6000610140825181855261356f82860182613433565b915050602083015184820360208601526135898282613433565b915050604083015184820360408601526135a38282613433565b915050606083015184820360608601526135bd8282613433565b915050608083015184820360808601526135d78282613433565b91505060a083015184820360a08601526135f18282613433565b91505060c083015184820360c086015261360b8282613433565b91505060e083015161362160e086018215159052565b50610100838101511515908501526101209283015192909301919091525090565b60008251613654818460208701613879565b9190910192915050565b60008451613670818460208901613879565b91909101928352506020820152604001919050565b600080835482600182811c9150808316806136a157607f831692505b60208084108214156136c157634e487b7160e01b87526022600452602487fd5b8180156136d557600181146136e657613712565b60ff19861689528489019650613712565b60008a815260209020885b8681101561370a5781548b8201529085019083016136f1565b505084890196505b509498975050505050505050565b6000602080830181845280855180835260408601915060408160051b8701019250838701855b8281101561377457603f1988860301845261376285835161345f565b94509285019290850190600101613746565b5092979650505050505050565b6000602080830181845280855180835260408601915060408160051b8701019250838701855b8281101561377457603f198886030184526137c3858351613559565b945092850192908501906001016137a7565b600060208252612ed5602083018461345f565b600060208252612ed560208301846134c0565b600060208252612ed560208301846134f7565b60006080825261382160808301876134f7565b8281036020840152613833818761345f565b905082810360408401526138478186613559565b9050828103606084015261385b818561345f565b979650505050505050565b600060208252612ed56020830184613559565b60005b8381101561389457818101518382015260200161387c565b838111156113c95750506000910152565b600181811c908216806138b957607f821691505b602082108114156138da57634e487b7160e01b600052602260045260246000fd5b50919050565b634e487b7160e01b600052604160045260246000fdfea26469706673582212209cc7f5c82a8fe1b90a5c26f1fa9db85ca1f6dcb1a264bb197fe0e55a244affc964736f6c63430008030033453320313434205875616e2054687579202d204361752047696179202d204861204e6f69207468616d206d7575206769757020766965632048696575207472756f6e672074687563206869656e20636f6e6720746163207665207861792064756e672c207175616e206c7920636163206368756f6e67207472696e682064616f2074616f",
  "immutableReferences": {},
  "source": "// SPDX-License-Identifier: MIT\npragma solidity >=0.7.0 <0.9.0;\n\ncontract User {\n    constructor() {\n        setRole();\n        setRector();\n        setAADepartmentAcc();\n    }\n\n    struct role {\n        string id;\n        string name;\n    }\n\n    role[4] roleList;\n    mapping(address => role) userRole;\n\n    function getCurrentUserRole() public view returns (role memory) {\n        return userRole[msg.sender];\n    }\n\n    function getCurrentUser()\n        public\n        view\n        returns (\n            rector memory,\n            AADUser memory,\n            student memory,\n            company memory\n        )\n    {\n        if (\n            keccak256(abi.encodePacked(userRole[msg.sender].id)) ==\n            keccak256(abi.encodePacked(\"0\"))\n        ) {\n            return (\n                rectorDetail[msg.sender],\n                getAADepartmentUser(msg.sender),\n                getStudentByAddr(msg.sender),\n                getCompany(msg.sender)\n            );\n        } else if (\n            keccak256(abi.encodePacked(userRole[msg.sender].id)) ==\n            keccak256(abi.encodePacked(\"1\"))\n        ) {\n            return (\n                rectorDetail[msg.sender],\n                getAADepartmentUser(msg.sender),\n                getStudentByAddr(msg.sender),\n                getCompany(msg.sender)\n            );\n        } else if (\n            keccak256(abi.encodePacked(userRole[msg.sender].id)) ==\n            keccak256(abi.encodePacked(\"2\"))\n        ) {\n            return (\n                rectorDetail[msg.sender],\n                getAADepartmentUser(msg.sender),\n                getStudentByAddr(msg.sender),\n                getCompany(msg.sender)\n            );\n        } else if (\n            keccak256(abi.encodePacked(userRole[msg.sender].id)) ==\n            keccak256(abi.encodePacked(\"3\"))\n        ) {\n            return (\n                rectorDetail[msg.sender],\n                getAADepartmentUser(msg.sender),\n                getStudentByAddr(msg.sender),\n                getCompany(msg.sender)\n            );\n        }\n    }\n\n    // modifier onlyUser(address _address) {\n    //     require(msg.sender == _address || msg.sender == currentRectorAddress);\n    //     _;\n    // }\n\n    modifier onlyNoRole(address _address) {\n        require(\n            keccak256(abi.encodePacked(userRole[_address].id)) ==\n                keccak256(abi.encodePacked(\"\"))\n        );\n        _;\n    }\n\n    function setRole() private {\n        roleList[0] = (role(\"0\", \"rector\"));\n        roleList[1] = (role(\"1\", \"AADepartment\"));\n        roleList[2] = (role(\"2\", \"student\"));\n        roleList[3] = (role(\"3\", \"company\"));\n    }\n\n    struct rector {\n        string name;\n        string date;\n        string phone;\n        string term;\n    }\n\n    address currentRectorAddress;\n\n    mapping(address => rector) rectorDetail;\n\n    modifier onlyCurrentRector() {\n        require(msg.sender == currentRectorAddress);\n        _;\n    }\n\n    function setRector() private {\n        rector memory rectorTemp;\n        rectorTemp.name = \"PGS TS Nguyen Viet Ha\";\n        rectorTemp.date = \"1974\";\n        rectorTemp.phone = \"0989152252\";\n        rectorTemp.term = \"from 2014\";\n        rectorDetail[msg.sender] = rectorTemp;\n        userRole[msg.sender] = roleList[0];\n\n        currentRectorAddress = msg.sender;\n    }\n\n    function getCurrentRector() public view returns (rector memory) {\n        rector memory currentRector = rectorDetail[currentRectorAddress];\n        return currentRector;\n    }\n\n    function createNewRector(\n        address _newRectorAddr,\n        string memory _name,\n        string memory _date,\n        string memory _phone,\n        string memory _term\n    ) public onlyCurrentRector onlyNoRole(_newRectorAddr) {\n        rector memory newRector = rector(_name, _date, _phone, _term);\n\n        rectorDetail[_newRectorAddr] = newRector;\n        userRole[_newRectorAddr] = roleList[0];\n\n        currentRectorAddress = _newRectorAddr;\n    }\n\n    function updateCurrentRector(\n        string memory _name,\n        string memory _date,\n        string memory _phone,\n        string memory _term\n    ) public onlyCurrentRector {\n        rectorDetail[msg.sender].name = _name;\n        rectorDetail[msg.sender].date = _date;\n        rectorDetail[msg.sender].phone = _phone;\n        rectorDetail[msg.sender].term = _term;\n    }\n\n    // Academic Affairs Department\n    struct AADepartment {\n        string realAddress; // dia chi PDT\n        string description;\n    }\n\n    struct AADUser {\n        string name;\n        string date;\n        string phone;\n        bool isActive;\n    }\n\n    AADepartment AADepartmentAcc;\n\n    AADUser[] AADUserList;\n    mapping(address => AADUser) AADUsers;\n\n    modifier onlyAADepartmentUser() {\n        require(AADUsers[msg.sender].isActive == true);\n        _;\n    }\n\n    modifier onlyRectorOrAAD() {\n        require(\n            msg.sender == currentRectorAddress ||\n                AADUsers[msg.sender].isActive == true\n        );\n        _;\n    }\n\n    function setAADepartmentAcc() private {\n        AADepartmentAcc.realAddress = \"E3 144 Xuan Thuy - Cau Giay - Ha Noi\";\n        AADepartmentAcc\n            .description = \" tham muu giup viec Hieu truong thuc hien cong tac ve xay dung, quan ly cac chuong trinh dao tao\";\n    }\n\n    function getAADepartmentAcc() public view returns (AADepartment memory) {\n        return AADepartmentAcc;\n    }\n\n    function createAADepartmentUser(\n        address _address,\n        string memory _name,\n        string memory _date,\n        string memory _phone\n    ) public onlyRectorOrAAD onlyNoRole(_address) {\n        AADUser memory temp = AADUser(_name, _date, _phone, true);\n        AADUserList.push(temp);\n        AADUsers[_address] = temp;\n        userRole[_address] = roleList[1];\n    }\n\n    function updateAADepartmentUser(\n        string memory _name,\n        string memory _date,\n        string memory _phone\n    ) public {\n        require(AADUsers[msg.sender].isActive == true);\n        AADUsers[msg.sender].name = _name;\n        AADUsers[msg.sender].date = _date;\n        AADUsers[msg.sender].phone = _phone;\n    }\n\n    function deactiveAADepartmentUser(address _address) public onlyRectorOrAAD {\n        AADUsers[_address].isActive = false;\n    }\n\n    function getAADepartmentUser(address _userAddress)\n        public\n        view\n        returns (AADUser memory)\n    {\n        return AADUsers[_userAddress];\n    }\n\n    struct student {\n        string id;\n        string name;\n        string email;\n        string phone;\n        string class;\n        string major;\n        string cpa;\n        bool qualifiedForGraduation;\n        bool isActive;\n        uint256 nonce;\n    }\n\n    student[] studentList;\n    mapping(address => student) studentDetails;\n    mapping(string => student) idToStudent;\n\n    modifier onlyStudent() {\n        require(studentDetails[msg.sender].isActive == true);\n        _;\n    }\n\n    function createStudent(\n        string memory _id,\n        string memory _name,\n        string memory _email,\n        string memory _phone,\n        string memory _class,\n        string memory _major,\n        string memory _cpa,\n        bool _qualifiedForGraduation\n    ) public onlyAADepartmentUser {\n        student memory studentTemp =\n            student(\n                _id,\n                _name,\n                _email,\n                _phone,\n                _class,\n                _major,\n                _cpa,\n                _qualifiedForGraduation,\n                false,\n                uint256(\n                    keccak256(\n                        abi.encodePacked(_id, block.timestamp, block.difficulty)\n                    )\n                )\n            );\n        studentList.push(studentTemp);\n        idToStudent[_id] = studentTemp;\n    }\n\n    function activeStudent(string memory _id, uint256 _nonce)\n        public\n        onlyNoRole(msg.sender)\n    {\n        require(_nonce == idToStudent[_id].nonce);\n        studentDetails[msg.sender] = idToStudent[_id];\n        idToStudent[_id].isActive = true;\n        userRole[msg.sender] = roleList[2];\n\n        studentDetails[msg.sender] = idToStudent[_id];\n    }\n\n    function gettAllStudent()\n        public\n        view\n        onlyRectorOrAAD\n        returns (student[] memory)\n    {\n        return studentList;\n    }\n\n    function getStudentById(string memory _id)\n        public\n        view\n        returns (student memory)\n    {\n        student memory studentTemp = idToStudent[_id];\n        studentTemp.nonce = 0;\n        return studentTemp;\n    }\n\n    function getStudentByAddr(address _studentAddr)\n        public\n        view\n        returns (student memory)\n    {\n        student memory studentTemp = studentDetails[_studentAddr];\n        studentTemp.nonce = 0;\n        return studentTemp;\n    }\n\n    function getStudentNonce(string memory _id)\n        public\n        view\n        onlyRectorOrAAD\n        returns (uint256)\n    {\n        return idToStudent[_id].nonce;\n    }\n\n    function updateStudentbyAAD(\n        address _address,\n        string memory _id,\n        string memory _name,\n        string memory _email,\n        string memory _phone,\n        string memory _class,\n        string memory _major,\n        string memory _cpa,\n        bool _qualifiedForGraduation\n    ) public onlyRectorOrAAD {\n        student storage temp = studentDetails[_address];\n        temp.id = _id;\n        temp.name = _name;\n        temp.email = _email;\n        temp.phone = _phone;\n        temp.class = _class;\n        temp.major = _major;\n        temp.cpa = _cpa;\n        temp.qualifiedForGraduation = _qualifiedForGraduation;\n    }\n\n    function updateStudentInfo(string memory _email, string memory _phone)\n        public\n    {\n        require(studentDetails[msg.sender].isActive == true);\n        studentDetails[msg.sender].email = _email;\n        studentDetails[msg.sender].phone = _phone;\n    }\n\n    struct company {\n        string name;\n        string description;\n        string jobInfo;\n        bool isActive;\n    }\n\n    company[] companyList;\n    mapping(address => company) companyDetails;\n\n    function createCompany(\n        string memory _name,\n        string memory _description,\n        string memory _jobInfo\n    ) public onlyNoRole(msg.sender) {\n        company memory companyTemp =\n            company(_name, _description, _jobInfo, false);\n\n        companyList.push(companyTemp);\n        companyDetails[msg.sender] = companyTemp;\n        userRole[msg.sender] = roleList[3];\n    }\n\n    function approveCompany(address _companyAddr) public onlyAADepartmentUser {\n        companyDetails[_companyAddr].isActive = true;\n    }\n\n    function updateCompany(\n        string memory _name,\n        string memory _description,\n        string memory _jobInfo\n    ) public {\n        companyDetails[msg.sender].name = _name;\n        companyDetails[msg.sender].description = _description;\n        companyDetails[msg.sender].jobInfo = _jobInfo;\n    }\n\n    function getCompany(address _companyAddr)\n        public\n        view\n        returns (company memory)\n    {\n        company memory companyTemp = companyDetails[_companyAddr];\n        return companyTemp;\n    }\n\n    function getAllCompany() public view returns (company[] memory) {\n        return companyList;\n    }\n}\n",
  "sourcePath": "/Users/hughdo/Desktop/Proj/CertVerificationSystem/contracts/User.sol",
  "compiler": {
    "name": "solc",
    "version": "0.8.3+commit.8d00100c.Emscripten.clang"
  },
  "schemaVersion": "3.3.4",
  "updatedAt": "2021-04-13T07:21:37.712Z",
  "networkType": "ethereum",
  "devdoc": {
    "kind": "dev",
    "methods": {},
    "version": 1
  },
  "userdoc": {
    "kind": "user",
    "methods": {},
    "version": 1
  }
}