{
  "contractName": "User",
  "abi": [
    {
      "inputs": [],
      "stateMutability": "nonpayable",
      "type": "constructor"
    },
    {
      "inputs": [],
      "name": "getCurrentUserRole",
      "outputs": [
        {
          "components": [
            {
              "internalType": "string",
              "name": "id",
              "type": "string"
            },
            {
              "internalType": "string",
              "name": "name",
              "type": "string"
            }
          ],
          "internalType": "struct User.role",
          "name": "",
          "type": "tuple"
        }
      ],
      "stateMutability": "view",
      "type": "function",
      "constant": true
    },
    {
      "inputs": [],
      "name": "getCurrentUser",
      "outputs": [
        {
          "components": [
            {
              "internalType": "string",
              "name": "name",
              "type": "string"
            },
            {
              "internalType": "string",
              "name": "date",
              "type": "string"
            },
            {
              "internalType": "string",
              "name": "phone",
              "type": "string"
            },
            {
              "internalType": "string",
              "name": "term",
              "type": "string"
            }
          ],
          "internalType": "struct User.rector",
          "name": "",
          "type": "tuple"
        },
        {
          "components": [
            {
              "internalType": "string",
              "name": "name",
              "type": "string"
            },
            {
              "internalType": "string",
              "name": "date",
              "type": "string"
            },
            {
              "internalType": "string",
              "name": "phone",
              "type": "string"
            },
            {
              "internalType": "bool",
              "name": "isActive",
              "type": "bool"
            }
          ],
          "internalType": "struct User.AADUser",
          "name": "",
          "type": "tuple"
        },
        {
          "components": [
            {
              "internalType": "string",
              "name": "id",
              "type": "string"
            },
            {
              "internalType": "string",
              "name": "name",
              "type": "string"
            },
            {
              "internalType": "string",
              "name": "email",
              "type": "string"
            },
            {
              "internalType": "string",
              "name": "phone",
              "type": "string"
            },
            {
              "internalType": "string",
              "name": "class",
              "type": "string"
            },
            {
              "internalType": "string",
              "name": "major",
              "type": "string"
            },
            {
              "internalType": "string",
              "name": "cpa",
              "type": "string"
            },
            {
              "internalType": "bool",
              "name": "qualifiedForGraduation",
              "type": "bool"
            },
            {
              "internalType": "bool",
              "name": "isActive",
              "type": "bool"
            },
            {
              "internalType": "uint256",
              "name": "nonce",
              "type": "uint256"
            }
          ],
          "internalType": "struct User.student",
          "name": "",
          "type": "tuple"
        },
        {
          "components": [
            {
              "internalType": "string",
              "name": "name",
              "type": "string"
            },
            {
              "internalType": "string",
              "name": "description",
              "type": "string"
            },
            {
              "internalType": "string",
              "name": "jobInfo",
              "type": "string"
            },
            {
              "internalType": "bool",
              "name": "isActive",
              "type": "bool"
            }
          ],
          "internalType": "struct User.company",
          "name": "",
          "type": "tuple"
        }
      ],
      "stateMutability": "view",
      "type": "function",
      "constant": true
    },
    {
      "inputs": [],
      "name": "getCurrentRector",
      "outputs": [
        {
          "components": [
            {
              "internalType": "string",
              "name": "name",
              "type": "string"
            },
            {
              "internalType": "string",
              "name": "date",
              "type": "string"
            },
            {
              "internalType": "string",
              "name": "phone",
              "type": "string"
            },
            {
              "internalType": "string",
              "name": "term",
              "type": "string"
            }
          ],
          "internalType": "struct User.rector",
          "name": "",
          "type": "tuple"
        }
      ],
      "stateMutability": "view",
      "type": "function",
      "constant": true
    },
    {
      "inputs": [
        {
          "internalType": "address",
          "name": "_newRectorAddr",
          "type": "address"
        },
        {
          "internalType": "string",
          "name": "_name",
          "type": "string"
        },
        {
          "internalType": "string",
          "name": "_date",
          "type": "string"
        },
        {
          "internalType": "string",
          "name": "_phone",
          "type": "string"
        },
        {
          "internalType": "string",
          "name": "_term",
          "type": "string"
        }
      ],
      "name": "createNewRector",
      "outputs": [],
      "stateMutability": "nonpayable",
      "type": "function"
    },
    {
      "inputs": [
        {
          "internalType": "string",
          "name": "_name",
          "type": "string"
        },
        {
          "internalType": "string",
          "name": "_date",
          "type": "string"
        },
        {
          "internalType": "string",
          "name": "_phone",
          "type": "string"
        },
        {
          "internalType": "string",
          "name": "_term",
          "type": "string"
        }
      ],
      "name": "updateCurrentRector",
      "outputs": [],
      "stateMutability": "nonpayable",
      "type": "function"
    },
    {
      "inputs": [],
      "name": "getAADepartmentAcc",
      "outputs": [
        {
          "components": [
            {
              "internalType": "string",
              "name": "realAddress",
              "type": "string"
            },
            {
              "internalType": "string",
              "name": "description",
              "type": "string"
            }
          ],
          "internalType": "struct User.AADepartment",
          "name": "",
          "type": "tuple"
        }
      ],
      "stateMutability": "view",
      "type": "function",
      "constant": true
    },
    {
      "inputs": [
        {
          "internalType": "address",
          "name": "_address",
          "type": "address"
        },
        {
          "internalType": "string",
          "name": "_name",
          "type": "string"
        },
        {
          "internalType": "string",
          "name": "_date",
          "type": "string"
        },
        {
          "internalType": "string",
          "name": "_phone",
          "type": "string"
        }
      ],
      "name": "createAADepartmentUser",
      "outputs": [],
      "stateMutability": "nonpayable",
      "type": "function"
    },
    {
      "inputs": [
        {
          "internalType": "string",
          "name": "_name",
          "type": "string"
        },
        {
          "internalType": "string",
          "name": "_date",
          "type": "string"
        },
        {
          "internalType": "string",
          "name": "_phone",
          "type": "string"
        }
      ],
      "name": "updateAADepartmentUser",
      "outputs": [],
      "stateMutability": "nonpayable",
      "type": "function"
    },
    {
      "inputs": [
        {
          "internalType": "uint256",
          "name": "_AADUserId",
          "type": "uint256"
        }
      ],
      "name": "deactiveAADepartmentUser",
      "outputs": [],
      "stateMutability": "nonpayable",
      "type": "function"
    },
    {
      "inputs": [
        {
          "internalType": "address",
          "name": "_userAddress",
          "type": "address"
        }
      ],
      "name": "getAADepartmentUser",
      "outputs": [
        {
          "components": [
            {
              "internalType": "string",
              "name": "name",
              "type": "string"
            },
            {
              "internalType": "string",
              "name": "date",
              "type": "string"
            },
            {
              "internalType": "string",
              "name": "phone",
              "type": "string"
            },
            {
              "internalType": "bool",
              "name": "isActive",
              "type": "bool"
            }
          ],
          "internalType": "struct User.AADUser",
          "name": "",
          "type": "tuple"
        }
      ],
      "stateMutability": "view",
      "type": "function",
      "constant": true
    },
    {
      "inputs": [],
      "name": "getAllAADepartmentUsers",
      "outputs": [
        {
          "components": [
            {
              "internalType": "string",
              "name": "name",
              "type": "string"
            },
            {
              "internalType": "string",
              "name": "date",
              "type": "string"
            },
            {
              "internalType": "string",
              "name": "phone",
              "type": "string"
            },
            {
              "internalType": "bool",
              "name": "isActive",
              "type": "bool"
            }
          ],
          "internalType": "struct User.AADUser[]",
          "name": "",
          "type": "tuple[]"
        }
      ],
      "stateMutability": "view",
      "type": "function",
      "constant": true
    },
    {
      "inputs": [
        {
          "internalType": "string",
          "name": "_id",
          "type": "string"
        },
        {
          "internalType": "string",
          "name": "_name",
          "type": "string"
        },
        {
          "internalType": "string",
          "name": "_email",
          "type": "string"
        },
        {
          "internalType": "string",
          "name": "_phone",
          "type": "string"
        },
        {
          "internalType": "string",
          "name": "_class",
          "type": "string"
        },
        {
          "internalType": "string",
          "name": "_major",
          "type": "string"
        },
        {
          "internalType": "string",
          "name": "_cpa",
          "type": "string"
        },
        {
          "internalType": "bool",
          "name": "_qualifiedForGraduation",
          "type": "bool"
        }
      ],
      "name": "createStudent",
      "outputs": [],
      "stateMutability": "nonpayable",
      "type": "function"
    },
    {
      "inputs": [
        {
          "internalType": "string",
          "name": "_id",
          "type": "string"
        },
        {
          "internalType": "uint256",
          "name": "_nonce",
          "type": "uint256"
        }
      ],
      "name": "activeStudent",
      "outputs": [],
      "stateMutability": "nonpayable",
      "type": "function"
    },
    {
      "inputs": [],
      "name": "getAllStudent",
      "outputs": [
        {
          "components": [
            {
              "internalType": "string",
              "name": "id",
              "type": "string"
            },
            {
              "internalType": "string",
              "name": "name",
              "type": "string"
            },
            {
              "internalType": "string",
              "name": "email",
              "type": "string"
            },
            {
              "internalType": "string",
              "name": "phone",
              "type": "string"
            },
            {
              "internalType": "string",
              "name": "class",
              "type": "string"
            },
            {
              "internalType": "string",
              "name": "major",
              "type": "string"
            },
            {
              "internalType": "string",
              "name": "cpa",
              "type": "string"
            },
            {
              "internalType": "bool",
              "name": "qualifiedForGraduation",
              "type": "bool"
            },
            {
              "internalType": "bool",
              "name": "isActive",
              "type": "bool"
            },
            {
              "internalType": "uint256",
              "name": "nonce",
              "type": "uint256"
            }
          ],
          "internalType": "struct User.student[]",
          "name": "",
          "type": "tuple[]"
        }
      ],
      "stateMutability": "view",
      "type": "function",
      "constant": true
    },
    {
      "inputs": [
        {
          "internalType": "string",
          "name": "_id",
          "type": "string"
        }
      ],
      "name": "getStudentById",
      "outputs": [
        {
          "components": [
            {
              "internalType": "string",
              "name": "id",
              "type": "string"
            },
            {
              "internalType": "string",
              "name": "name",
              "type": "string"
            },
            {
              "internalType": "string",
              "name": "email",
              "type": "string"
            },
            {
              "internalType": "string",
              "name": "phone",
              "type": "string"
            },
            {
              "internalType": "string",
              "name": "class",
              "type": "string"
            },
            {
              "internalType": "string",
              "name": "major",
              "type": "string"
            },
            {
              "internalType": "string",
              "name": "cpa",
              "type": "string"
            },
            {
              "internalType": "bool",
              "name": "qualifiedForGraduation",
              "type": "bool"
            },
            {
              "internalType": "bool",
              "name": "isActive",
              "type": "bool"
            },
            {
              "internalType": "uint256",
              "name": "nonce",
              "type": "uint256"
            }
          ],
          "internalType": "struct User.student",
          "name": "",
          "type": "tuple"
        }
      ],
      "stateMutability": "view",
      "type": "function",
      "constant": true
    },
    {
      "inputs": [
        {
          "internalType": "address",
          "name": "_studentAddr",
          "type": "address"
        }
      ],
      "name": "getStudentByAddr",
      "outputs": [
        {
          "components": [
            {
              "internalType": "string",
              "name": "id",
              "type": "string"
            },
            {
              "internalType": "string",
              "name": "name",
              "type": "string"
            },
            {
              "internalType": "string",
              "name": "email",
              "type": "string"
            },
            {
              "internalType": "string",
              "name": "phone",
              "type": "string"
            },
            {
              "internalType": "string",
              "name": "class",
              "type": "string"
            },
            {
              "internalType": "string",
              "name": "major",
              "type": "string"
            },
            {
              "internalType": "string",
              "name": "cpa",
              "type": "string"
            },
            {
              "internalType": "bool",
              "name": "qualifiedForGraduation",
              "type": "bool"
            },
            {
              "internalType": "bool",
              "name": "isActive",
              "type": "bool"
            },
            {
              "internalType": "uint256",
              "name": "nonce",
              "type": "uint256"
            }
          ],
          "internalType": "struct User.student",
          "name": "",
          "type": "tuple"
        }
      ],
      "stateMutability": "view",
      "type": "function",
      "constant": true
    },
    {
      "inputs": [
        {
          "internalType": "string",
          "name": "_id",
          "type": "string"
        }
      ],
      "name": "getStudentNonce",
      "outputs": [
        {
          "internalType": "uint256",
          "name": "",
          "type": "uint256"
        }
      ],
      "stateMutability": "view",
      "type": "function",
      "constant": true
    },
    {
      "inputs": [
        {
          "internalType": "address",
          "name": "_address",
          "type": "address"
        },
        {
          "internalType": "string",
          "name": "_id",
          "type": "string"
        },
        {
          "internalType": "string",
          "name": "_name",
          "type": "string"
        },
        {
          "internalType": "string",
          "name": "_email",
          "type": "string"
        },
        {
          "internalType": "string",
          "name": "_phone",
          "type": "string"
        },
        {
          "internalType": "string",
          "name": "_class",
          "type": "string"
        },
        {
          "internalType": "string",
          "name": "_major",
          "type": "string"
        },
        {
          "internalType": "string",
          "name": "_cpa",
          "type": "string"
        },
        {
          "internalType": "bool",
          "name": "_qualifiedForGraduation",
          "type": "bool"
        }
      ],
      "name": "updateStudentbyAAD",
      "outputs": [],
      "stateMutability": "nonpayable",
      "type": "function"
    },
    {
      "inputs": [
        {
          "internalType": "string",
          "name": "_email",
          "type": "string"
        },
        {
          "internalType": "string",
          "name": "_phone",
          "type": "string"
        }
      ],
      "name": "updateStudentInfo",
      "outputs": [],
      "stateMutability": "nonpayable",
      "type": "function"
    },
    {
      "inputs": [
        {
          "internalType": "string",
          "name": "_name",
          "type": "string"
        },
        {
          "internalType": "string",
          "name": "_description",
          "type": "string"
        },
        {
          "internalType": "string",
          "name": "_jobInfo",
          "type": "string"
        }
      ],
      "name": "createCompany",
      "outputs": [],
      "stateMutability": "nonpayable",
      "type": "function"
    },
    {
      "inputs": [
        {
          "internalType": "uint256",
          "name": "_companyId",
          "type": "uint256"
        }
      ],
      "name": "approveCompany",
      "outputs": [],
      "stateMutability": "nonpayable",
      "type": "function"
    },
    {
      "inputs": [
        {
          "internalType": "string",
          "name": "_name",
          "type": "string"
        },
        {
          "internalType": "string",
          "name": "_description",
          "type": "string"
        },
        {
          "internalType": "string",
          "name": "_jobInfo",
          "type": "string"
        }
      ],
      "name": "updateCompany",
      "outputs": [],
      "stateMutability": "nonpayable",
      "type": "function"
    },
    {
      "inputs": [
        {
          "internalType": "address",
          "name": "_companyAddr",
          "type": "address"
        }
      ],
      "name": "getCompany",
      "outputs": [
        {
          "components": [
            {
              "internalType": "string",
              "name": "name",
              "type": "string"
            },
            {
              "internalType": "string",
              "name": "description",
              "type": "string"
            },
            {
              "internalType": "string",
              "name": "jobInfo",
              "type": "string"
            },
            {
              "internalType": "bool",
              "name": "isActive",
              "type": "bool"
            }
          ],
          "internalType": "struct User.company",
          "name": "",
          "type": "tuple"
        }
      ],
      "stateMutability": "view",
      "type": "function",
      "constant": true
    },
    {
      "inputs": [],
      "name": "getAllCompany",
      "outputs": [
        {
          "components": [
            {
              "internalType": "string",
              "name": "name",
              "type": "string"
            },
            {
              "internalType": "string",
              "name": "description",
              "type": "string"
            },
            {
              "internalType": "string",
              "name": "jobInfo",
              "type": "string"
            },
            {
              "internalType": "bool",
              "name": "isActive",
              "type": "bool"
            }
          ],
          "internalType": "struct User.company[]",
          "name": "",
          "type": "tuple[]"
        }
      ],
      "stateMutability": "view",
      "type": "function",
      "constant": true
    }
  ],
  "bytecode": "0x60806040523480156200001157600080fd5b506200001c62000036565b620000266200022e565b62000030620003de565b620005a9565b604080516080810182526001818301908152600360fc1b60608301528152815180830190925260068252653932b1ba37b960d11b6020808401919091528082019290925280518051919260009262000092928492019062000442565b506020828101518051620000ad926001850192019062000442565b5050604080516080810182526001818301908152603160f81b606083015281528151808301909252600c82526b105051195c185c9d1b595b9d60a21b6020808401919091528082019290925280518051919350600292620001149284929091019062000442565b5060208281015180516200012f926001850192019062000442565b5050604080516080810182526001818301908152601960f91b60608301528152815180830190925260078252661cdd1d59195b9d60ca1b6020808401919091528082019290925280518051919350600492620001919284929091019062000442565b506020828101518051620001ac926001850192019062000442565b5050604080516080810182526001818301908152603360f81b6060830152815281518083019092526007825266636f6d70616e7960c81b60208084019190915280820192909252805180519193506006926200020e9284929091019062000442565b50602082810151805162000229926001850192019062000442565b505050565b6200025a6040518060800160405280606081526020016060815260200160608152602001606081525090565b604080518082018252601581527f504753205453204e677579656e205669657420486100000000000000000000006020808301919091529083528151808301835260048152630c4e4dcd60e21b818301528382015281518083018352600a80825269181c9c1c989a99191a9960b11b8284015284840191909152825180840184526009815268199c9bdb480c8c0c4d60ba1b818401526060850152336000908152908252919091208251805184936200031892849291019062000442565b50602082810151805162000333926001850192019062000442565b50604082015180516200035191600284019160209091019062000442565b50606082015180516200036f91600384019160209091019062000442565b50503360009081526008602052604081208154919250908190839062000395906200056c565b620003a2929190620004d1565b506001820181600101908054620003b9906200056c565b620003c6929190620004d1565b5050600980546001600160a01b031916331790555050565b604051806060016040528060248152602001620041af6024913980516200040e91600b9160209091019062000442565b50604051806080016040528060608152602001620041d36060913980516200043f91600c9160209091019062000442565b50565b82805462000450906200056c565b90600052602060002090601f016020900481019282620004745760008555620004bf565b82601f106200048f57805160ff1916838001178555620004bf565b82800160010185558215620004bf579182015b82811115620004bf578251825591602001919060010190620004a2565b50620004cd92915062000555565b5090565b828054620004df906200056c565b90600052602060002090601f016020900481019282620005035760008555620004bf565b82601f10620005165780548555620004bf565b82800160010185558215620004bf57600052602060002091601f016020900482015b82811115620004bf57825482559160010191906001019062000538565b5b80821115620004cd576000815560010162000556565b600181811c908216806200058157607f821691505b60208210811415620005a357634e487b7160e01b600052602260045260246000fd5b50919050565b613bf680620005b96000396000f3fe608060405234801561001057600080fd5b50600436106101585760003560e01c80638cca2ec4116100c3578063bd2456c71161007c578063bd2456c7146102e8578063c23fd5a6146102fb578063c80597471461030e578063ed7ad82614610323578063eed879eb14610336578063fc4a74421461034957610158565b80638cca2ec4146102675780638f19aed41461027c57806393b3298c1461028f578063ad69d7b0146102af578063b174ba82146102c2578063ba8805f4146102d557610158565b80635c6f2e08116101155780635c6f2e08146101e557806362bc56e6146101f85780636b5fe4b61461021857806375957bc01461022b5780637b60626d146102335780637d67d9001461024657610158565b80630d2393fd1461015d578063106e3ea61461017b578063133d046014610190578063388807cf146101a557806343ae37c3146101ba5780634b0875e9146101d2575b600080fd5b61016561035c565b60405161017291906139f7565b60405180910390f35b61018e61018936600461313a565b610583565b005b6101986107b4565b6040516101729190613a4b565b6101ad610c72565b6040516101729190613ab2565b6101c2610dc7565b6040516101729493929190613ad8565b61018e6101e0366004613459565b6112af565b61018e6101f3366004613459565b611347565b61020b610206366004613119565b6113b5565b6040516101729190613a9f565b61018e610226366004613288565b6115d3565b6101ad6116da565b61018e610241366004613459565b61170b565b6102596102543660046133bd565b6118e8565b604051908152602001610172565b61026f61194d565b6040516101729190613996565b61018e61028a36600461352a565b611b6b565b6102a261029d366004613119565b611e62565b6040516101729190613b30565b61018e6102bd366004613691565b6122c3565b61018e6102d03660046134dd565b612344565b61018e6102e336600461364e565b6123f7565b61020b6102f6366004613119565b6127b0565b61018e6103093660046133f8565b6129cc565b610316612a48565b6040516101729190613ac5565b6102a26103313660046133bd565b612ce6565b61018e6103443660046131cf565b612d2a565b61018e610357366004613691565b612eb9565b60606012805480602002602001604051908101604052809291908181526020016000905b8282101561057a57838290600052602060002090600402016040518060800160405290816000820180546103b390613b6f565b80601f01602080910402602001604051908101604052809291908181526020018280546103df90613b6f565b801561042c5780601f106104015761010080835404028352916020019161042c565b820191906000526020600020905b81548152906001019060200180831161040f57829003601f168201915b5050505050815260200160018201805461044590613b6f565b80601f016020809104026020016040519081016040528092919081815260200182805461047190613b6f565b80156104be5780601f10610493576101008083540402835291602001916104be565b820191906000526020600020905b8154815290600101906020018083116104a157829003601f168201915b505050505081526020016002820180546104d790613b6f565b80601f016020809104026020016040519081016040528092919081815260200182805461050390613b6f565b80156105505780601f1061052557610100808354040283529160200191610550565b820191906000526020600020905b81548152906001019060200180831161053357829003601f168201915b50505091835250506003919091015460ff1615156020918201529082526001929092019101610380565b50505050905090565b6009546001600160a01b03163314806105b35750336000908152600e602052604090206003015460ff1615156001145b6105bc57600080fd5b6040805160008082526020808301808552835190206001600160a01b0389168352600890915290839020879391926105f492016138fb565b604051602081830303815290604052805190602001201461061457600080fd5b604080516080810182528581526020808201869052918101849052600160608201819052600d80549182018155600052815180519293849360049093027fd7b6990105719101dabeb77144f2a3385c8033acd3af97e9423a695e81ad1eb501926106819284920190612f00565b50602082810151805161069a9260018501920190612f00565b50604082015180516106b6916002840191602090910190612f00565b50606091909101516003909101805460ff19169115159190911790556001600160a01b0386166000908152600e60209081526040909120825180518493610701928492910190612f00565b50602082810151805161071a9260018501920190612f00565b5060408201518051610736916002840191602090910190612f00565b50606091909101516003909101805460ff19169115159190911790556001600160a01b0386166000908152600860205260409020600280549091908190839061077e90613b6f565b610789929190612f84565b50600182018160010190805461079e90613b6f565b6107a9929190612f84565b505050505050505050565b6009546060906001600160a01b03163314806107e75750336000908152600e602052604090206003015460ff1615156001145b6107f057600080fd5b600f805480602002602001604051908101604052809291908181526020016000905b8282101561057a57838290600052602060002090600902016040518061014001604052908160008201805461084690613b6f565b80601f016020809104026020016040519081016040528092919081815260200182805461087290613b6f565b80156108bf5780601f10610894576101008083540402835291602001916108bf565b820191906000526020600020905b8154815290600101906020018083116108a257829003601f168201915b505050505081526020016001820180546108d890613b6f565b80601f016020809104026020016040519081016040528092919081815260200182805461090490613b6f565b80156109515780601f1061092657610100808354040283529160200191610951565b820191906000526020600020905b81548152906001019060200180831161093457829003601f168201915b5050505050815260200160028201805461096a90613b6f565b80601f016020809104026020016040519081016040528092919081815260200182805461099690613b6f565b80156109e35780601f106109b8576101008083540402835291602001916109e3565b820191906000526020600020905b8154815290600101906020018083116109c657829003601f168201915b505050505081526020016003820180546109fc90613b6f565b80601f0160208091040260200160405190810160405280929190818152602001828054610a2890613b6f565b8015610a755780601f10610a4a57610100808354040283529160200191610a75565b820191906000526020600020905b815481529060010190602001808311610a5857829003601f168201915b50505050508152602001600482018054610a8e90613b6f565b80601f0160208091040260200160405190810160405280929190818152602001828054610aba90613b6f565b8015610b075780601f10610adc57610100808354040283529160200191610b07565b820191906000526020600020905b815481529060010190602001808311610aea57829003601f168201915b50505050508152602001600582018054610b2090613b6f565b80601f0160208091040260200160405190810160405280929190818152602001828054610b4c90613b6f565b8015610b995780601f10610b6e57610100808354040283529160200191610b99565b820191906000526020600020905b815481529060010190602001808311610b7c57829003601f168201915b50505050508152602001600682018054610bb290613b6f565b80601f0160208091040260200160405190810160405280929190818152602001828054610bde90613b6f565b8015610c2b5780601f10610c0057610100808354040283529160200191610c2b565b820191906000526020600020905b815481529060010190602001808311610c0e57829003601f168201915b5050509183525050600782015460ff808216151560208085019190915261010090920416151560408301526008909201546060909101529082526001929092019101610812565b604080518082019091526060808252602082015233600090815260086020526040908190208151808301909252805482908290610cae90613b6f565b80601f0160208091040260200160405190810160405280929190818152602001828054610cda90613b6f565b8015610d275780601f10610cfc57610100808354040283529160200191610d27565b820191906000526020600020905b815481529060010190602001808311610d0a57829003601f168201915b50505050508152602001600182018054610d4090613b6f565b80601f0160208091040260200160405190810160405280929190818152602001828054610d6c90613b6f565b8015610db95780601f10610d8e57610100808354040283529160200191610db9565b820191906000526020600020905b815481529060010190602001808311610d9c57829003601f168201915b505050505081525050905090565b610df26040518060800160405280606081526020016060815260200160608152602001606081525090565b610e1f60405180608001604052806060815260200160608152602001606081526020016000151581525090565b610e27612fff565b610e5460405180608001604052806060815260200160608152602001606081526020016000151581525090565b604051600360fc1b602082015260210160408051601f19818403018152828252805160209182012033600090815260088352929092209192610e979291016138fb565b60405160208183030381529060405280519060200120141561114157336000818152600a6020526040902090610ecc906127b0565b610ed533611e62565b610ede336113b5565b83604051806080016040529081600082018054610efa90613b6f565b80601f0160208091040260200160405190810160405280929190818152602001828054610f2690613b6f565b8015610f735780601f10610f4857610100808354040283529160200191610f73565b820191906000526020600020905b815481529060010190602001808311610f5657829003601f168201915b50505050508152602001600182018054610f8c90613b6f565b80601f0160208091040260200160405190810160405280929190818152602001828054610fb890613b6f565b80156110055780601f10610fda57610100808354040283529160200191611005565b820191906000526020600020905b815481529060010190602001808311610fe857829003601f168201915b5050505050815260200160028201805461101e90613b6f565b80601f016020809104026020016040519081016040528092919081815260200182805461104a90613b6f565b80156110975780601f1061106c57610100808354040283529160200191611097565b820191906000526020600020905b81548152906001019060200180831161107a57829003601f168201915b505050505081526020016003820180546110b090613b6f565b80601f01602080910402602001604051908101604052809291908181526020018280546110dc90613b6f565b80156111295780601f106110fe57610100808354040283529160200191611129565b820191906000526020600020905b81548152906001019060200180831161110c57829003601f168201915b505050505081525050935093509350935093506112a9565b604051603160f81b602082015260210160408051601f198184030181528282528051602091820120336000908152600883529290922091926111849291016138fb565b6040516020818303038152906040528051906020012014156111b957336000818152600a6020526040902090610ecc906127b0565b604051601960f91b602082015260210160408051601f198184030181528282528051602091820120336000908152600883529290922091926111fc9291016138fb565b60405160208183030381529060405280519060200120141561123157336000818152600a6020526040902090610ecc906127b0565b604051603360f81b602082015260210160408051601f198184030181528282528051602091820120336000908152600883529290922091926112749291016138fb565b6040516020818303038152906040528051906020012014156112a957336000818152600a6020526040902090610ecc906127b0565b90919293565b336000908152600e602052604090206003015460ff1615156001146112d357600080fd5b336000908152600e6020908152604090912084516112f392860190612f00565b50336000908152600e60209081526040909120835161131a92600190920191850190612f00565b50336000908152600e60209081526040909120825161134192600290920191840190612f00565b50505050565b336000908152601360209081526040909120845161136792860190612f00565b50336000908152601360209081526040909120835161138e92600190920191850190612f00565b50336000908152601360209081526040909120825161134192600290920191840190612f00565b6113e260405180608001604052806060815260200160608152602001606081526020016000151581525090565b6001600160a01b03821660009081526013602052604080822081516080810190925280548290829061141390613b6f565b80601f016020809104026020016040519081016040528092919081815260200182805461143f90613b6f565b801561148c5780601f106114615761010080835404028352916020019161148c565b820191906000526020600020905b81548152906001019060200180831161146f57829003601f168201915b505050505081526020016001820180546114a590613b6f565b80601f01602080910402602001604051908101604052809291908181526020018280546114d190613b6f565b801561151e5780601f106114f35761010080835404028352916020019161151e565b820191906000526020600020905b81548152906001019060200180831161150157829003601f168201915b5050505050815260200160028201805461153790613b6f565b80601f016020809104026020016040519081016040528092919081815260200182805461156390613b6f565b80156115b05780601f10611585576101008083540402835291602001916115b0565b820191906000526020600020905b81548152906001019060200180831161159357829003601f168201915b50505091835250506003919091015460ff1615156020909101529150505b919050565b6009546001600160a01b03163314806116035750336000908152600e602052604090206003015460ff1615156001145b61160c57600080fd5b6001600160a01b0389166000908152601060209081526040909120895190916116399183918c0190612f00565b50875161164f90600183019060208b0190612f00565b50865161166590600283019060208a0190612f00565b50855161167b9060038301906020890190612f00565b5084516116919060048301906020880190612f00565b5083516116a79060058301906020870190612f00565b5082516116bd9060068301906020860190612f00565b50600701805460ff19169115159190911790555050505050505050565b6040805180820190915260608082526020820152600b604051806040016040529081600082018054610cae90613b6f565b604080516000808252602080830180855283519020338084526008909252918490209093919261173b92016138fb565b604051602081830303815290604052805190602001201461175b57600080fd5b604080516080810182528581526020808201869052918101849052600060608201819052601280546001810182559152815180519293849360049093027fbb8a6a4669ba250d26cd7a459eca9d215f8307e33aebe50379bc5a3617ec344401926117c89284920190612f00565b5060208281015180516117e19260018501920190612f00565b50604082015180516117fd916002840191602090910190612f00565b50606091909101516003909101805460ff191691151591909117905533600090815260136020908152604090912082518051849361183f928492910190612f00565b5060208281015180516118589260018501920190612f00565b5060408201518051611874916002840191602090910190612f00565b50606091909101516003909101805460ff191691151591909117905533600090815260086020526040902060068054909190819083906118b390613b6f565b6118be929190612f84565b5060018201816001019080546118d390613b6f565b6118de929190612f84565b5050505050505050565b6009546000906001600160a01b031633148061191b5750336000908152600e602052604090206003015460ff1615156001145b61192457600080fd5b60118260405161193491906138b8565b9081526020016040518091039020600801549050919050565b6060600d805480602002602001604051908101604052809291908181526020016000905b8282101561057a57838290600052602060002090600402016040518060800160405290816000820180546119a490613b6f565b80601f01602080910402602001604051908101604052809291908181526020018280546119d090613b6f565b8015611a1d5780601f106119f257610100808354040283529160200191611a1d565b820191906000526020600020905b815481529060010190602001808311611a0057829003601f168201915b50505050508152602001600182018054611a3690613b6f565b80601f0160208091040260200160405190810160405280929190818152602001828054611a6290613b6f565b8015611aaf5780601f10611a8457610100808354040283529160200191611aaf565b820191906000526020600020905b815481529060010190602001808311611a9257829003601f168201915b50505050508152602001600282018054611ac890613b6f565b80601f0160208091040260200160405190810160405280929190818152602001828054611af490613b6f565b8015611b415780601f10611b1657610100808354040283529160200191611b41565b820191906000526020600020905b815481529060010190602001808311611b2457829003601f168201915b50505091835250506003919091015460ff1615156020918201529082526001929092019101611971565b336000908152600e602052604090206003015460ff161515600114611b8f57600080fd5b60006040518061014001604052808a815260200189815260200188815260200187815260200186815260200185815260200184815260200183151581526020016000151581526020018a4244604051602001611bed939291906138d4565b60408051601f198184030181529190528051602091820120909152600f805460018101825560009190915282518051939450849360099092027f8d1108e10bcb7c27dddfc02ed9d693a074039d026cf4ea4240b40f7d581ac8020192611c5892849290910190612f00565b506020828101518051611c719260018501920190612f00565b5060408201518051611c8d916002840191602090910190612f00565b5060608201518051611ca9916003840191602090910190612f00565b5060808201518051611cc5916004840191602090910190612f00565b5060a08201518051611ce1916005840191602090910190612f00565b5060c08201518051611cfd916006840191602090910190612f00565b5060e08201516007820180546101008086015115150261ff00199315159390931661ffff1990911617919091179055610120909101516008909101556040518190601190611d4c908c906138b8565b90815260200160405180910390206000820151816000019080519060200190611d76929190612f00565b506020828101518051611d8f9260018501920190612f00565b5060408201518051611dab916002840191602090910190612f00565b5060608201518051611dc7916003840191602090910190612f00565b5060808201518051611de3916004840191602090910190612f00565b5060a08201518051611dff916005840191602090910190612f00565b5060c08201518051611e1b916006840191602090910190612f00565b5060e08201516007820180546101008086015115150261ff00199315159390931661ffff199091161791909117905561012090910151600890910155505050505050505050565b611e6a612fff565b6001600160a01b03821660009081526010602052604080822081516101408101909252805482908290611e9c90613b6f565b80601f0160208091040260200160405190810160405280929190818152602001828054611ec890613b6f565b8015611f155780601f10611eea57610100808354040283529160200191611f15565b820191906000526020600020905b815481529060010190602001808311611ef857829003601f168201915b50505050508152602001600182018054611f2e90613b6f565b80601f0160208091040260200160405190810160405280929190818152602001828054611f5a90613b6f565b8015611fa75780601f10611f7c57610100808354040283529160200191611fa7565b820191906000526020600020905b815481529060010190602001808311611f8a57829003601f168201915b50505050508152602001600282018054611fc090613b6f565b80601f0160208091040260200160405190810160405280929190818152602001828054611fec90613b6f565b80156120395780601f1061200e57610100808354040283529160200191612039565b820191906000526020600020905b81548152906001019060200180831161201c57829003601f168201915b5050505050815260200160038201805461205290613b6f565b80601f016020809104026020016040519081016040528092919081815260200182805461207e90613b6f565b80156120cb5780601f106120a0576101008083540402835291602001916120cb565b820191906000526020600020905b8154815290600101906020018083116120ae57829003601f168201915b505050505081526020016004820180546120e490613b6f565b80601f016020809104026020016040519081016040528092919081815260200182805461211090613b6f565b801561215d5780601f106121325761010080835404028352916020019161215d565b820191906000526020600020905b81548152906001019060200180831161214057829003601f168201915b5050505050815260200160058201805461217690613b6f565b80601f01602080910402602001604051908101604052809291908181526020018280546121a290613b6f565b80156121ef5780601f106121c4576101008083540402835291602001916121ef565b820191906000526020600020905b8154815290600101906020018083116121d257829003601f168201915b5050505050815260200160068201805461220890613b6f565b80601f016020809104026020016040519081016040528092919081815260200182805461223490613b6f565b80156122815780601f1061225657610100808354040283529160200191612281565b820191906000526020600020905b81548152906001019060200180831161226457829003601f168201915b5050509183525050600782015460ff80821615156020840152610100909104161515604082015260089091015460609091015260006101208201529392505050565b6009546001600160a01b03163314806122f35750336000908152600e602052604090206003015460ff1615156001145b6122fc57600080fd5b6000600d828154811061231f57634e487b7160e01b600052603260045260246000fd5b60009182526020909120600490910201600301805460ff191691151591909117905550565b6009546001600160a01b0316331461235b57600080fd5b336000908152600a60209081526040909120855161237b92870190612f00565b50336000908152600a6020908152604090912084516123a292600190920191860190612f00565b50336000908152600a6020908152604090912083516123c992600290920191850190612f00565b50336000908152600a6020908152604090912082516123f092600390920191840190612f00565b5050505050565b604080516000808252602080830180855283519020338084526008909252918490209093919261242792016138fb565b604051602081830303815290604052805190602001201461244757600080fd5b60118360405161245791906138b8565b908152602001604051809103902060080154821461247457600080fd5b60118360405161248491906138b8565b9081526040805160209281900383019020336000908152601090935291208154819083906124b190613b6f565b6124bc929190612f84565b5060018201816001019080546124d190613b6f565b6124dc929190612f84565b5060028201816002019080546124f190613b6f565b6124fc929190612f84565b50600382018160030190805461251190613b6f565b61251c929190612f84565b50600482018160040190805461253190613b6f565b61253c929190612f84565b50600582018160050190805461255190613b6f565b61255c929190612f84565b50600682018160060190805461257190613b6f565b61257c929190612f84565b5060078281018054918301805460ff938416151560ff19821681178355925461010090819004909416151590930261ff001990921661ffff19909316929092171790556008918201549101556040516001906011906125dc9086906138b8565b9081526040805160209281900383019020600701805461ff0019166101009415159490940293909317909255336000908152600890915220600480549091908190839061262890613b6f565b612633929190612f84565b50600182018160010190805461264890613b6f565b612653929190612f84565b5090505060118360405161266791906138b8565b90815260408051602092819003830190203360009081526010909352912081548190839061269490613b6f565b61269f929190612f84565b5060018201816001019080546126b490613b6f565b6126bf929190612f84565b5060028201816002019080546126d490613b6f565b6126df929190612f84565b5060038201816003019080546126f490613b6f565b6126ff929190612f84565b50600482018160040190805461271490613b6f565b61271f929190612f84565b50600582018160050190805461273490613b6f565b61273f929190612f84565b50600682018160060190805461275490613b6f565b61275f929190612f84565b5060078281018054918301805460ff938416151560ff19821681178355925461010090819004909416151590930261ff001990921661ffff1990931692909217179055600891820154910155505050565b6127dd60405180608001604052806060815260200160608152602001606081526020016000151581525090565b6001600160a01b0382166000908152600e60205260409081902081516080810190925280548290829061280f90613b6f565b80601f016020809104026020016040519081016040528092919081815260200182805461283b90613b6f565b80156128885780601f1061285d57610100808354040283529160200191612888565b820191906000526020600020905b81548152906001019060200180831161286b57829003601f168201915b505050505081526020016001820180546128a190613b6f565b80601f01602080910402602001604051908101604052809291908181526020018280546128cd90613b6f565b801561291a5780601f106128ef5761010080835404028352916020019161291a565b820191906000526020600020905b8154815290600101906020018083116128fd57829003601f168201915b5050505050815260200160028201805461293390613b6f565b80601f016020809104026020016040519081016040528092919081815260200182805461295f90613b6f565b80156129ac5780601f10612981576101008083540402835291602001916129ac565b820191906000526020600020905b81548152906001019060200180831161298f57829003601f168201915b50505091835250506003919091015460ff16151560209091015292915050565b3360009081526010602052604090206007015460ff6101009091041615156001146129f657600080fd5b3360009081526010602090815260409091208351612a1c92600290920191850190612f00565b503360009081526010602090815260409091208251612a4392600390920191840190612f00565b505050565b612a736040518060800160405280606081526020016060815260200160608152602001606081525090565b6009546001600160a01b03166000908152600a6020526040808220815160808101909252805482908290612aa690613b6f565b80601f0160208091040260200160405190810160405280929190818152602001828054612ad290613b6f565b8015612b1f5780601f10612af457610100808354040283529160200191612b1f565b820191906000526020600020905b815481529060010190602001808311612b0257829003601f168201915b50505050508152602001600182018054612b3890613b6f565b80601f0160208091040260200160405190810160405280929190818152602001828054612b6490613b6f565b8015612bb15780601f10612b8657610100808354040283529160200191612bb1565b820191906000526020600020905b815481529060010190602001808311612b9457829003601f168201915b50505050508152602001600282018054612bca90613b6f565b80601f0160208091040260200160405190810160405280929190818152602001828054612bf690613b6f565b8015612c435780601f10612c1857610100808354040283529160200191612c43565b820191906000526020600020905b815481529060010190602001808311612c2657829003601f168201915b50505050508152602001600382018054612c5c90613b6f565b80601f0160208091040260200160405190810160405280929190818152602001828054612c8890613b6f565b8015612cd55780601f10612caa57610100808354040283529160200191612cd5565b820191906000526020600020905b815481529060010190602001808311612cb857829003601f168201915b505050919092525091935050505090565b612cee612fff565b6000601183604051612d0091906138b8565b908152602001604051809103902060405180610140016040529081600082018054611e9c90613b6f565b6009546001600160a01b03163314612d4157600080fd5b6040805160008082526020808301808552835190206001600160a01b038a16835260089091529083902088939192612d7992016138fb565b6040516020818303038152906040528051906020012014612d9957600080fd5b604080516080810182528681526020808201879052818301869052606082018590526001600160a01b0389166000908152600a8252929092208151805192938493612de79284920190612f00565b506020828101518051612e009260018501920190612f00565b5060408201518051612e1c916002840191602090910190612f00565b5060608201518051612e38916003840191602090910190612f00565b5050506001600160a01b0387166000908152600860205260408120815481908390612e6290613b6f565b612e6d929190612f84565b506001820181600101908054612e8290613b6f565b612e8d929190612f84565b5050600980546001600160a01b0319166001600160a01b03999099169890981790975550505050505050565b336000908152600e602052604090206003015460ff161515600114612edd57600080fd5b60016012828154811061231f57634e487b7160e01b600052603260045260246000fd5b828054612f0c90613b6f565b90600052602060002090601f016020900481019282612f2e5760008555612f74565b82601f10612f4757805160ff1916838001178555612f74565b82800160010185558215612f74579182015b82811115612f74578251825591602001919060010190612f59565b50612f80929150613056565b5090565b828054612f9090613b6f565b90600052602060002090601f016020900481019282612fb25760008555612f74565b82601f10612fc35780548555612f74565b82800160010185558215612f7457600052602060002091601f016020900482015b82811115612f74578254825591600101919060010190612fe4565b60405180610140016040528060608152602001606081526020016060815260200160608152602001606081526020016060815260200160608152602001600015158152602001600015158152602001600081525090565b5b80821115612f805760008155600101613057565b80356001600160a01b03811681146115ce57600080fd5b803580151581146115ce57600080fd5b600082601f8301126130a2578081fd5b813567ffffffffffffffff808211156130bd576130bd613baa565b604051601f8301601f19908116603f011681019082821181831017156130e5576130e5613baa565b816040528381528660208588010111156130fd578485fd5b8360208701602083013792830160200193909352509392505050565b60006020828403121561312a578081fd5b6131338261306b565b9392505050565b6000806000806080858703121561314f578283fd5b6131588561306b565b9350602085013567ffffffffffffffff80821115613174578485fd5b61318088838901613092565b94506040870135915080821115613195578384fd5b6131a188838901613092565b935060608701359150808211156131b6578283fd5b506131c387828801613092565b91505092959194509250565b600080600080600060a086880312156131e6578081fd5b6131ef8661306b565b9450602086013567ffffffffffffffff8082111561320b578283fd5b61321789838a01613092565b9550604088013591508082111561322c578283fd5b61323889838a01613092565b9450606088013591508082111561324d578283fd5b61325989838a01613092565b9350608088013591508082111561326e578283fd5b5061327b88828901613092565b9150509295509295909350565b60008060008060008060008060006101208a8c0312156132a6578384fd5b6132af8a61306b565b985060208a013567ffffffffffffffff808211156132cb578586fd5b6132d78d838e01613092565b995060408c01359150808211156132ec578586fd5b6132f88d838e01613092565b985060608c013591508082111561330d578586fd5b6133198d838e01613092565b975060808c013591508082111561332e578586fd5b61333a8d838e01613092565b965060a08c013591508082111561334f578586fd5b61335b8d838e01613092565b955060c08c0135915080821115613370578485fd5b61337c8d838e01613092565b945060e08c0135915080821115613391578384fd5b5061339e8c828d01613092565b9250506133ae6101008b01613082565b90509295985092959850929598565b6000602082840312156133ce578081fd5b813567ffffffffffffffff8111156133e4578182fd5b6133f084828501613092565b949350505050565b6000806040838503121561340a578182fd5b823567ffffffffffffffff80821115613421578384fd5b61342d86838701613092565b93506020850135915080821115613442578283fd5b5061344f85828601613092565b9150509250929050565b60008060006060848603121561346d578283fd5b833567ffffffffffffffff80821115613484578485fd5b61349087838801613092565b945060208601359150808211156134a5578384fd5b6134b187838801613092565b935060408601359150808211156134c6578283fd5b506134d386828701613092565b9150509250925092565b600080600080608085870312156134f2578384fd5b843567ffffffffffffffff80821115613509578586fd5b61351588838901613092565b95506020870135915080821115613174578485fd5b600080600080600080600080610100898b031215613546578384fd5b883567ffffffffffffffff8082111561355d578586fd5b6135698c838d01613092565b995060208b013591508082111561357e578586fd5b61358a8c838d01613092565b985060408b013591508082111561359f578586fd5b6135ab8c838d01613092565b975060608b01359150808211156135c0578586fd5b6135cc8c838d01613092565b965060808b01359150808211156135e1578586fd5b6135ed8c838d01613092565b955060a08b0135915080821115613602578485fd5b61360e8c838d01613092565b945060c08b0135915080821115613623578384fd5b506136308b828c01613092565b92505061363f60e08a01613082565b90509295985092959890939650565b60008060408385031215613660578182fd5b823567ffffffffffffffff811115613676578283fd5b61368285828601613092565b95602094909401359450505050565b6000602082840312156136a2578081fd5b5035919050565b600081518084526136c1816020860160208601613b43565b601f01601f19169290920160200192915050565b60008151608084526136ea60808501826136a9565b90506020830151848203602086015261370382826136a9565b9150506040830151848203604086015261371d82826136a9565b9150506060830151151560608501528091505092915050565b600081516040845261374b60408501826136a9565b90506020830151848203602086015261376482826136a9565b95945050505050565b600081516080845261378260808501826136a9565b90506020830151848203602086015261379b82826136a9565b915050604083015184820360408601526137b582826136a9565b9150506060830151848203606086015261376482826136a9565b600061014082518185526137e5828601826136a9565b915050602083015184820360208601526137ff82826136a9565b9150506040830151848203604086015261381982826136a9565b9150506060830151848203606086015261383382826136a9565b9150506080830151848203608086015261384d82826136a9565b91505060a083015184820360a086015261386782826136a9565b91505060c083015184820360c086015261388182826136a9565b91505060e083015161389760e086018215159052565b50610100838101511515908501526101209283015192909301919091525090565b600082516138ca818460208701613b43565b9190910192915050565b600084516138e6818460208901613b43565b91909101928352506020820152604001919050565b600080835482600182811c91508083168061391757607f831692505b602080841082141561393757634e487b7160e01b87526022600452602487fd5b81801561394b576001811461395c57613988565b60ff19861689528489019650613988565b60008a815260209020885b868110156139805781548b820152908501908301613967565b505084890196505b509498975050505050505050565b6000602080830181845280855180835260408601915060408160051b8701019250838701855b828110156139ea57603f198886030184526139d88583516136d5565b945092850192908501906001016139bc565b5092979650505050505050565b6000602080830181845280855180835260408601915060408160051b8701019250838701855b828110156139ea57603f19888603018452613a398583516136d5565b94509285019290850190600101613a1d565b6000602080830181845280855180835260408601915060408160051b8701019250838701855b828110156139ea57603f19888603018452613a8d8583516137cf565b94509285019290850190600101613a71565b60006020825261313360208301846136d5565b6000602082526131336020830184613736565b600060208252613133602083018461376d565b600060808252613aeb608083018761376d565b8281036020840152613afd81876136d5565b90508281036040840152613b1181866137cf565b90508281036060840152613b2581856136d5565b979650505050505050565b60006020825261313360208301846137cf565b60005b83811015613b5e578181015183820152602001613b46565b838111156113415750506000910152565b600181811c90821680613b8357607f821691505b60208210811415613ba457634e487b7160e01b600052602260045260246000fd5b50919050565b634e487b7160e01b600052604160045260246000fdfea2646970667358221220fdb5e16cf851c57c5e8e5c3887a65c1f5484d962686047e2b0a3c77b000a5ca664736f6c63430008030033453320313434205875616e2054687579202d204361752047696179202d204861204e6f69207468616d206d7575206769757020766965632048696575207472756f6e672074687563206869656e20636f6e6720746163207665207861792064756e672c207175616e206c7920636163206368756f6e67207472696e682064616f2074616f",
  "immutableReferences": {},
  "source": "// SPDX-License-Identifier: MIT\npragma solidity >=0.7.0 <0.9.0;\n\ncontract User {\n    constructor() {\n        setRole();\n        setRector();\n        setAADepartmentAcc();\n    }\n\n    struct role {\n        string id;\n        string name;\n    }\n\n    role[4] roleList;\n    mapping(address => role) userRole;\n\n    function getCurrentUserRole() public view returns (role memory) {\n        return userRole[msg.sender];\n    }\n\n    function getCurrentUser()\n        public\n        view\n        returns (\n            rector memory,\n            AADUser memory,\n            student memory,\n            company memory\n        )\n    {\n        if (\n            keccak256(abi.encodePacked(userRole[msg.sender].id)) ==\n            keccak256(abi.encodePacked(\"0\"))\n        ) {\n            return (\n                rectorDetail[msg.sender],\n                getAADepartmentUser(msg.sender),\n                getStudentByAddr(msg.sender),\n                getCompany(msg.sender)\n            );\n        } else if (\n            keccak256(abi.encodePacked(userRole[msg.sender].id)) ==\n            keccak256(abi.encodePacked(\"1\"))\n        ) {\n            return (\n                rectorDetail[msg.sender],\n                getAADepartmentUser(msg.sender),\n                getStudentByAddr(msg.sender),\n                getCompany(msg.sender)\n            );\n        } else if (\n            keccak256(abi.encodePacked(userRole[msg.sender].id)) ==\n            keccak256(abi.encodePacked(\"2\"))\n        ) {\n            return (\n                rectorDetail[msg.sender],\n                getAADepartmentUser(msg.sender),\n                getStudentByAddr(msg.sender),\n                getCompany(msg.sender)\n            );\n        } else if (\n            keccak256(abi.encodePacked(userRole[msg.sender].id)) ==\n            keccak256(abi.encodePacked(\"3\"))\n        ) {\n            return (\n                rectorDetail[msg.sender],\n                getAADepartmentUser(msg.sender),\n                getStudentByAddr(msg.sender),\n                getCompany(msg.sender)\n            );\n        }\n    }\n\n    // modifier onlyUser(address _address) {\n    //     require(msg.sender == _address || msg.sender == currentRectorAddress);\n    //     _;\n    // }\n\n    modifier onlyNoRole(address _address) {\n        require(\n            keccak256(abi.encodePacked(userRole[_address].id)) ==\n                keccak256(abi.encodePacked(\"\"))\n        );\n        _;\n    }\n\n    function setRole() private {\n        roleList[0] = (role(\"0\", \"rector\"));\n        roleList[1] = (role(\"1\", \"AADepartment\"));\n        roleList[2] = (role(\"2\", \"student\"));\n        roleList[3] = (role(\"3\", \"company\"));\n    }\n\n    struct rector {\n        string name;\n        string date;\n        string phone;\n        string term;\n    }\n\n    address currentRectorAddress;\n\n    mapping(address => rector) rectorDetail;\n\n    modifier onlyCurrentRector() {\n        require(msg.sender == currentRectorAddress);\n        _;\n    }\n\n    function setRector() private {\n        rector memory rectorTemp;\n        rectorTemp.name = \"PGS TS Nguyen Viet Ha\";\n        rectorTemp.date = \"1974\";\n        rectorTemp.phone = \"0989152252\";\n        rectorTemp.term = \"from 2014\";\n        rectorDetail[msg.sender] = rectorTemp;\n        userRole[msg.sender] = roleList[0];\n\n        currentRectorAddress = msg.sender;\n    }\n\n    function getCurrentRector() public view returns (rector memory) {\n        rector memory currentRector = rectorDetail[currentRectorAddress];\n        return currentRector;\n    }\n\n    function createNewRector(\n        address _newRectorAddr,\n        string memory _name,\n        string memory _date,\n        string memory _phone,\n        string memory _term\n    ) public onlyCurrentRector onlyNoRole(_newRectorAddr) {\n        rector memory newRector = rector(_name, _date, _phone, _term);\n\n        rectorDetail[_newRectorAddr] = newRector;\n        userRole[_newRectorAddr] = roleList[0];\n\n        currentRectorAddress = _newRectorAddr;\n    }\n\n    function updateCurrentRector(\n        string memory _name,\n        string memory _date,\n        string memory _phone,\n        string memory _term\n    ) public onlyCurrentRector {\n        rectorDetail[msg.sender].name = _name;\n        rectorDetail[msg.sender].date = _date;\n        rectorDetail[msg.sender].phone = _phone;\n        rectorDetail[msg.sender].term = _term;\n    }\n\n    // Academic Affairs Department\n    struct AADepartment {\n        string realAddress; // dia chi PDT\n        string description;\n    }\n\n    struct AADUser {\n        string name;\n        string date;\n        string phone;\n        bool isActive;\n    }\n\n    AADepartment AADepartmentAcc;\n\n    AADUser[] AADUserList;\n    mapping(address => AADUser) AADUsers;\n\n    modifier onlyAADepartmentUser() {\n        require(AADUsers[msg.sender].isActive == true);\n        _;\n    }\n\n    modifier onlyRectorOrAAD() {\n        require(\n            msg.sender == currentRectorAddress ||\n                AADUsers[msg.sender].isActive == true\n        );\n        _;\n    }\n\n    function setAADepartmentAcc() private {\n        AADepartmentAcc.realAddress = \"E3 144 Xuan Thuy - Cau Giay - Ha Noi\";\n        AADepartmentAcc\n            .description = \" tham muu giup viec Hieu truong thuc hien cong tac ve xay dung, quan ly cac chuong trinh dao tao\";\n    }\n\n    function getAADepartmentAcc() public view returns (AADepartment memory) {\n        return AADepartmentAcc;\n    }\n\n    function createAADepartmentUser(\n        address _address,\n        string memory _name,\n        string memory _date,\n        string memory _phone\n    ) public onlyRectorOrAAD onlyNoRole(_address) {\n        AADUser memory temp = AADUser(_name, _date, _phone, true);\n        AADUserList.push(temp);\n        AADUsers[_address] = temp;\n        userRole[_address] = roleList[1];\n    }\n\n    function updateAADepartmentUser(\n        string memory _name,\n        string memory _date,\n        string memory _phone\n    ) public {\n        require(AADUsers[msg.sender].isActive == true);\n        AADUsers[msg.sender].name = _name;\n        AADUsers[msg.sender].date = _date;\n        AADUsers[msg.sender].phone = _phone;\n    }\n\n    function deactiveAADepartmentUser(uint _AADUserId) public onlyRectorOrAAD {\n        AADUserList[_AADUserId].isActive = false;\n    }\n\n    function getAADepartmentUser(address _userAddress)\n        public\n        view\n        returns (AADUser memory)\n    {\n        return AADUsers[_userAddress];\n    }\n\n    function getAllAADepartmentUsers() public view returns (AADUser[] memory) {\n        return AADUserList;\n    }\n\n    struct student {\n        string id;\n        string name;\n        string email;\n        string phone;\n        string class;\n        string major;\n        string cpa;\n        bool qualifiedForGraduation;\n        bool isActive;\n        uint256 nonce;\n    }\n\n    student[] studentList;\n    mapping(address => student) studentDetails;\n    mapping(string => student) idToStudent;\n\n    modifier onlyStudent() {\n        require(studentDetails[msg.sender].isActive == true);\n        _;\n    }\n\n    function createStudent(\n        string memory _id,\n        string memory _name,\n        string memory _email,\n        string memory _phone,\n        string memory _class,\n        string memory _major,\n        string memory _cpa,\n        bool _qualifiedForGraduation\n    ) public onlyAADepartmentUser {\n        student memory studentTemp =\n            student(\n                _id,\n                _name,\n                _email,\n                _phone,\n                _class,\n                _major,\n                _cpa,\n                _qualifiedForGraduation,\n                false,\n                uint256(\n                    keccak256(\n                        abi.encodePacked(_id, block.timestamp, block.difficulty)\n                    )\n                )\n            );\n        studentList.push(studentTemp);\n        idToStudent[_id] = studentTemp;\n    }\n\n    function activeStudent(string memory _id, uint256 _nonce)\n        public\n        onlyNoRole(msg.sender)\n    {\n        require(_nonce == idToStudent[_id].nonce);\n        studentDetails[msg.sender] = idToStudent[_id];\n        idToStudent[_id].isActive = true;\n        userRole[msg.sender] = roleList[2];\n\n        studentDetails[msg.sender] = idToStudent[_id];\n    }\n\n    function getAllStudent()\n        public\n        view\n        onlyRectorOrAAD\n        returns (student[] memory)\n    {\n        return studentList;\n    }\n\n    function getStudentById(string memory _id)\n        public\n        view\n        returns (student memory)\n    {\n        student memory studentTemp = idToStudent[_id];\n        studentTemp.nonce = 0;\n        return studentTemp;\n    }\n\n    function getStudentByAddr(address _studentAddr)\n        public\n        view\n        returns (student memory)\n    {\n        student memory studentTemp = studentDetails[_studentAddr];\n        studentTemp.nonce = 0;\n        return studentTemp;\n    }\n\n    function getStudentNonce(string memory _id)\n        public\n        view\n        onlyRectorOrAAD\n        returns (uint256)\n    {\n        return idToStudent[_id].nonce;\n    }\n\n    function updateStudentbyAAD(\n        address _address,\n        string memory _id,\n        string memory _name,\n        string memory _email,\n        string memory _phone,\n        string memory _class,\n        string memory _major,\n        string memory _cpa,\n        bool _qualifiedForGraduation\n    ) public onlyRectorOrAAD {\n        student storage temp = studentDetails[_address];\n        temp.id = _id;\n        temp.name = _name;\n        temp.email = _email;\n        temp.phone = _phone;\n        temp.class = _class;\n        temp.major = _major;\n        temp.cpa = _cpa;\n        temp.qualifiedForGraduation = _qualifiedForGraduation;\n    }\n\n    function updateStudentInfo(string memory _email, string memory _phone)\n        public\n    {\n        require(studentDetails[msg.sender].isActive == true);\n        studentDetails[msg.sender].email = _email;\n        studentDetails[msg.sender].phone = _phone;\n    }\n\n    struct company {\n        string name;\n        string description;\n        string jobInfo;\n        bool isActive;\n    }\n\n    company[] companyList;\n    mapping(address => company) companyDetails;\n\n    function createCompany(\n        string memory _name,\n        string memory _description,\n        string memory _jobInfo\n    ) public onlyNoRole(msg.sender) {\n        company memory companyTemp =\n            company(_name, _description, _jobInfo, false);\n\n        companyList.push(companyTemp);\n        companyDetails[msg.sender] = companyTemp;\n        userRole[msg.sender] = roleList[3];\n    }\n\n    function approveCompany(uint _companyId) public onlyAADepartmentUser {\n        companyList[_companyId].isActive = true;\n    }\n\n    function updateCompany(\n        string memory _name,\n        string memory _description,\n        string memory _jobInfo\n    ) public {\n        companyDetails[msg.sender].name = _name;\n        companyDetails[msg.sender].description = _description;\n        companyDetails[msg.sender].jobInfo = _jobInfo;\n    }\n\n    function getCompany(address _companyAddr)\n        public\n        view\n        returns (company memory)\n    {\n        company memory companyTemp = companyDetails[_companyAddr];\n        return companyTemp;\n    }\n\n    function getAllCompany() public view returns (company[] memory) {\n        return companyList;\n    }\n}\n",
  "sourcePath": "/Users/hughdo/Desktop/Proj/CertVerificationSystem/contracts/User.sol",
  "compiler": {
    "name": "solc",
    "version": "0.8.3+commit.8d00100c.Emscripten.clang"
  },
  "schemaVersion": "3.3.4",
  "updatedAt": "2021-04-14T06:07:45.020Z",
  "networkType": "ethereum",
  "devdoc": {
    "kind": "dev",
    "methods": {},
    "version": 1
  },
  "userdoc": {
    "kind": "user",
    "methods": {},
    "version": 1
  }
}