{
  "contractName": "User",
  "abi": [
    {
      "inputs": [],
      "stateMutability": "nonpayable",
      "type": "constructor"
    },
    {
      "inputs": [],
      "name": "getCurrentUserRole",
      "outputs": [
        {
          "components": [
            {
              "internalType": "string",
              "name": "id",
              "type": "string"
            },
            {
              "internalType": "string",
              "name": "name",
              "type": "string"
            }
          ],
          "internalType": "struct User.role",
          "name": "",
          "type": "tuple"
        }
      ],
      "stateMutability": "view",
      "type": "function",
      "constant": true
    },
    {
      "inputs": [],
      "name": "getCurrentUser",
      "outputs": [
        {
          "components": [
            {
              "internalType": "string",
              "name": "name",
              "type": "string"
            },
            {
              "internalType": "string",
              "name": "date",
              "type": "string"
            },
            {
              "internalType": "string",
              "name": "phone",
              "type": "string"
            },
            {
              "internalType": "string",
              "name": "term",
              "type": "string"
            }
          ],
          "internalType": "struct User.rector",
          "name": "",
          "type": "tuple"
        },
        {
          "components": [
            {
              "internalType": "string",
              "name": "name",
              "type": "string"
            },
            {
              "internalType": "string",
              "name": "date",
              "type": "string"
            },
            {
              "internalType": "string",
              "name": "phone",
              "type": "string"
            },
            {
              "internalType": "bool",
              "name": "isActive",
              "type": "bool"
            }
          ],
          "internalType": "struct User.AADUser",
          "name": "",
          "type": "tuple"
        },
        {
          "components": [
            {
              "internalType": "string",
              "name": "id",
              "type": "string"
            },
            {
              "internalType": "string",
              "name": "name",
              "type": "string"
            },
            {
              "internalType": "string",
              "name": "email",
              "type": "string"
            },
            {
              "internalType": "string",
              "name": "phone",
              "type": "string"
            },
            {
              "internalType": "string",
              "name": "class",
              "type": "string"
            },
            {
              "internalType": "string",
              "name": "major",
              "type": "string"
            },
            {
              "internalType": "string",
              "name": "cpa",
              "type": "string"
            },
            {
              "internalType": "bool",
              "name": "qualifiedForGraduation",
              "type": "bool"
            },
            {
              "internalType": "bool",
              "name": "isActive",
              "type": "bool"
            },
            {
              "internalType": "uint256",
              "name": "nonce",
              "type": "uint256"
            }
          ],
          "internalType": "struct User.student",
          "name": "",
          "type": "tuple"
        },
        {
          "components": [
            {
              "internalType": "string",
              "name": "name",
              "type": "string"
            },
            {
              "internalType": "string",
              "name": "description",
              "type": "string"
            },
            {
              "internalType": "string",
              "name": "jobInfo",
              "type": "string"
            },
            {
              "internalType": "bool",
              "name": "isActive",
              "type": "bool"
            }
          ],
          "internalType": "struct User.company",
          "name": "",
          "type": "tuple"
        }
      ],
      "stateMutability": "view",
      "type": "function",
      "constant": true
    },
    {
      "inputs": [],
      "name": "getCurrentRector",
      "outputs": [
        {
          "components": [
            {
              "internalType": "string",
              "name": "name",
              "type": "string"
            },
            {
              "internalType": "string",
              "name": "date",
              "type": "string"
            },
            {
              "internalType": "string",
              "name": "phone",
              "type": "string"
            },
            {
              "internalType": "string",
              "name": "term",
              "type": "string"
            }
          ],
          "internalType": "struct User.rector",
          "name": "",
          "type": "tuple"
        }
      ],
      "stateMutability": "view",
      "type": "function",
      "constant": true
    },
    {
      "inputs": [
        {
          "internalType": "address",
          "name": "_newRectorAddr",
          "type": "address"
        },
        {
          "internalType": "string",
          "name": "_name",
          "type": "string"
        },
        {
          "internalType": "string",
          "name": "_date",
          "type": "string"
        },
        {
          "internalType": "string",
          "name": "_phone",
          "type": "string"
        },
        {
          "internalType": "string",
          "name": "_term",
          "type": "string"
        }
      ],
      "name": "createNewRector",
      "outputs": [],
      "stateMutability": "nonpayable",
      "type": "function"
    },
    {
      "inputs": [
        {
          "internalType": "string",
          "name": "_name",
          "type": "string"
        },
        {
          "internalType": "string",
          "name": "_date",
          "type": "string"
        },
        {
          "internalType": "string",
          "name": "_phone",
          "type": "string"
        },
        {
          "internalType": "string",
          "name": "_term",
          "type": "string"
        }
      ],
      "name": "updateCurrentRector",
      "outputs": [],
      "stateMutability": "nonpayable",
      "type": "function"
    },
    {
      "inputs": [],
      "name": "getAADepartmentAcc",
      "outputs": [
        {
          "components": [
            {
              "internalType": "string",
              "name": "realAddress",
              "type": "string"
            },
            {
              "internalType": "string",
              "name": "description",
              "type": "string"
            }
          ],
          "internalType": "struct User.AADepartment",
          "name": "",
          "type": "tuple"
        }
      ],
      "stateMutability": "view",
      "type": "function",
      "constant": true
    },
    {
      "inputs": [
        {
          "internalType": "address",
          "name": "_address",
          "type": "address"
        },
        {
          "internalType": "string",
          "name": "_name",
          "type": "string"
        },
        {
          "internalType": "string",
          "name": "_date",
          "type": "string"
        },
        {
          "internalType": "string",
          "name": "_phone",
          "type": "string"
        }
      ],
      "name": "createAADepartmentUser",
      "outputs": [],
      "stateMutability": "nonpayable",
      "type": "function"
    },
    {
      "inputs": [
        {
          "internalType": "string",
          "name": "_name",
          "type": "string"
        },
        {
          "internalType": "string",
          "name": "_date",
          "type": "string"
        },
        {
          "internalType": "string",
          "name": "_phone",
          "type": "string"
        }
      ],
      "name": "updateAADepartmentUser",
      "outputs": [],
      "stateMutability": "nonpayable",
      "type": "function"
    },
    {
      "inputs": [
        {
          "internalType": "uint256",
          "name": "_AADUserId",
          "type": "uint256"
        }
      ],
      "name": "deactiveAADepartmentUser",
      "outputs": [],
      "stateMutability": "nonpayable",
      "type": "function"
    },
    {
      "inputs": [
        {
          "internalType": "address",
          "name": "_userAddress",
          "type": "address"
        }
      ],
      "name": "getAADepartmentUser",
      "outputs": [
        {
          "components": [
            {
              "internalType": "string",
              "name": "name",
              "type": "string"
            },
            {
              "internalType": "string",
              "name": "date",
              "type": "string"
            },
            {
              "internalType": "string",
              "name": "phone",
              "type": "string"
            },
            {
              "internalType": "bool",
              "name": "isActive",
              "type": "bool"
            }
          ],
          "internalType": "struct User.AADUser",
          "name": "",
          "type": "tuple"
        }
      ],
      "stateMutability": "view",
      "type": "function",
      "constant": true
    },
    {
      "inputs": [],
      "name": "getAllAADepartmentUsers",
      "outputs": [
        {
          "components": [
            {
              "internalType": "string",
              "name": "name",
              "type": "string"
            },
            {
              "internalType": "string",
              "name": "date",
              "type": "string"
            },
            {
              "internalType": "string",
              "name": "phone",
              "type": "string"
            },
            {
              "internalType": "bool",
              "name": "isActive",
              "type": "bool"
            }
          ],
          "internalType": "struct User.AADUser[]",
          "name": "",
          "type": "tuple[]"
        }
      ],
      "stateMutability": "view",
      "type": "function",
      "constant": true
    },
    {
      "inputs": [
        {
          "internalType": "string",
          "name": "_id",
          "type": "string"
        },
        {
          "internalType": "string",
          "name": "_name",
          "type": "string"
        },
        {
          "internalType": "string",
          "name": "_email",
          "type": "string"
        },
        {
          "internalType": "string",
          "name": "_phone",
          "type": "string"
        },
        {
          "internalType": "string",
          "name": "_class",
          "type": "string"
        },
        {
          "internalType": "string",
          "name": "_major",
          "type": "string"
        },
        {
          "internalType": "string",
          "name": "_cpa",
          "type": "string"
        },
        {
          "internalType": "bool",
          "name": "_qualifiedForGraduation",
          "type": "bool"
        }
      ],
      "name": "createStudent",
      "outputs": [],
      "stateMutability": "nonpayable",
      "type": "function"
    },
    {
      "inputs": [
        {
          "components": [
            {
              "internalType": "string",
              "name": "id",
              "type": "string"
            },
            {
              "internalType": "string",
              "name": "name",
              "type": "string"
            },
            {
              "internalType": "string",
              "name": "email",
              "type": "string"
            },
            {
              "internalType": "string",
              "name": "phone",
              "type": "string"
            },
            {
              "internalType": "string",
              "name": "class",
              "type": "string"
            },
            {
              "internalType": "string",
              "name": "major",
              "type": "string"
            },
            {
              "internalType": "string",
              "name": "cpa",
              "type": "string"
            },
            {
              "internalType": "bool",
              "name": "qualifiedForGraduation",
              "type": "bool"
            },
            {
              "internalType": "bool",
              "name": "isActive",
              "type": "bool"
            },
            {
              "internalType": "uint256",
              "name": "nonce",
              "type": "uint256"
            }
          ],
          "internalType": "struct User.student[]",
          "name": "students",
          "type": "tuple[]"
        }
      ],
      "name": "importStudent",
      "outputs": [],
      "stateMutability": "nonpayable",
      "type": "function"
    },
    {
      "inputs": [
        {
          "internalType": "string",
          "name": "_id",
          "type": "string"
        },
        {
          "internalType": "uint256",
          "name": "_nonce",
          "type": "uint256"
        }
      ],
      "name": "activeStudent",
      "outputs": [],
      "stateMutability": "nonpayable",
      "type": "function"
    },
    {
      "inputs": [],
      "name": "getAllStudent",
      "outputs": [
        {
          "components": [
            {
              "internalType": "string",
              "name": "id",
              "type": "string"
            },
            {
              "internalType": "string",
              "name": "name",
              "type": "string"
            },
            {
              "internalType": "string",
              "name": "email",
              "type": "string"
            },
            {
              "internalType": "string",
              "name": "phone",
              "type": "string"
            },
            {
              "internalType": "string",
              "name": "class",
              "type": "string"
            },
            {
              "internalType": "string",
              "name": "major",
              "type": "string"
            },
            {
              "internalType": "string",
              "name": "cpa",
              "type": "string"
            },
            {
              "internalType": "bool",
              "name": "qualifiedForGraduation",
              "type": "bool"
            },
            {
              "internalType": "bool",
              "name": "isActive",
              "type": "bool"
            },
            {
              "internalType": "uint256",
              "name": "nonce",
              "type": "uint256"
            }
          ],
          "internalType": "struct User.student[]",
          "name": "",
          "type": "tuple[]"
        }
      ],
      "stateMutability": "view",
      "type": "function",
      "constant": true
    },
    {
      "inputs": [
        {
          "internalType": "string",
          "name": "_id",
          "type": "string"
        }
      ],
      "name": "getStudentById",
      "outputs": [
        {
          "components": [
            {
              "internalType": "string",
              "name": "id",
              "type": "string"
            },
            {
              "internalType": "string",
              "name": "name",
              "type": "string"
            },
            {
              "internalType": "string",
              "name": "email",
              "type": "string"
            },
            {
              "internalType": "string",
              "name": "phone",
              "type": "string"
            },
            {
              "internalType": "string",
              "name": "class",
              "type": "string"
            },
            {
              "internalType": "string",
              "name": "major",
              "type": "string"
            },
            {
              "internalType": "string",
              "name": "cpa",
              "type": "string"
            },
            {
              "internalType": "bool",
              "name": "qualifiedForGraduation",
              "type": "bool"
            },
            {
              "internalType": "bool",
              "name": "isActive",
              "type": "bool"
            },
            {
              "internalType": "uint256",
              "name": "nonce",
              "type": "uint256"
            }
          ],
          "internalType": "struct User.student",
          "name": "",
          "type": "tuple"
        }
      ],
      "stateMutability": "view",
      "type": "function",
      "constant": true
    },
    {
      "inputs": [
        {
          "internalType": "address",
          "name": "_studentAddr",
          "type": "address"
        }
      ],
      "name": "getStudentByAddr",
      "outputs": [
        {
          "components": [
            {
              "internalType": "string",
              "name": "id",
              "type": "string"
            },
            {
              "internalType": "string",
              "name": "name",
              "type": "string"
            },
            {
              "internalType": "string",
              "name": "email",
              "type": "string"
            },
            {
              "internalType": "string",
              "name": "phone",
              "type": "string"
            },
            {
              "internalType": "string",
              "name": "class",
              "type": "string"
            },
            {
              "internalType": "string",
              "name": "major",
              "type": "string"
            },
            {
              "internalType": "string",
              "name": "cpa",
              "type": "string"
            },
            {
              "internalType": "bool",
              "name": "qualifiedForGraduation",
              "type": "bool"
            },
            {
              "internalType": "bool",
              "name": "isActive",
              "type": "bool"
            },
            {
              "internalType": "uint256",
              "name": "nonce",
              "type": "uint256"
            }
          ],
          "internalType": "struct User.student",
          "name": "",
          "type": "tuple"
        }
      ],
      "stateMutability": "view",
      "type": "function",
      "constant": true
    },
    {
      "inputs": [
        {
          "internalType": "string",
          "name": "_id",
          "type": "string"
        }
      ],
      "name": "getStudentNonce",
      "outputs": [
        {
          "internalType": "uint256",
          "name": "",
          "type": "uint256"
        }
      ],
      "stateMutability": "view",
      "type": "function",
      "constant": true
    },
    {
      "inputs": [
        {
          "internalType": "address",
          "name": "_address",
          "type": "address"
        },
        {
          "internalType": "string",
          "name": "_id",
          "type": "string"
        },
        {
          "internalType": "string",
          "name": "_name",
          "type": "string"
        },
        {
          "internalType": "string",
          "name": "_email",
          "type": "string"
        },
        {
          "internalType": "string",
          "name": "_phone",
          "type": "string"
        },
        {
          "internalType": "string",
          "name": "_class",
          "type": "string"
        },
        {
          "internalType": "string",
          "name": "_major",
          "type": "string"
        },
        {
          "internalType": "string",
          "name": "_cpa",
          "type": "string"
        },
        {
          "internalType": "bool",
          "name": "_qualifiedForGraduation",
          "type": "bool"
        }
      ],
      "name": "updateStudentbyAAD",
      "outputs": [],
      "stateMutability": "nonpayable",
      "type": "function"
    },
    {
      "inputs": [
        {
          "internalType": "string",
          "name": "_email",
          "type": "string"
        },
        {
          "internalType": "string",
          "name": "_phone",
          "type": "string"
        }
      ],
      "name": "updateStudentInfo",
      "outputs": [],
      "stateMutability": "nonpayable",
      "type": "function"
    },
    {
      "inputs": [
        {
          "internalType": "string",
          "name": "_name",
          "type": "string"
        },
        {
          "internalType": "string",
          "name": "_description",
          "type": "string"
        },
        {
          "internalType": "string",
          "name": "_jobInfo",
          "type": "string"
        }
      ],
      "name": "createCompany",
      "outputs": [],
      "stateMutability": "nonpayable",
      "type": "function"
    },
    {
      "inputs": [
        {
          "internalType": "uint256",
          "name": "_companyId",
          "type": "uint256"
        }
      ],
      "name": "approveCompany",
      "outputs": [],
      "stateMutability": "nonpayable",
      "type": "function"
    },
    {
      "inputs": [
        {
          "internalType": "string",
          "name": "_name",
          "type": "string"
        },
        {
          "internalType": "string",
          "name": "_description",
          "type": "string"
        },
        {
          "internalType": "string",
          "name": "_jobInfo",
          "type": "string"
        }
      ],
      "name": "updateCompany",
      "outputs": [],
      "stateMutability": "nonpayable",
      "type": "function"
    },
    {
      "inputs": [
        {
          "internalType": "address",
          "name": "_companyAddr",
          "type": "address"
        }
      ],
      "name": "getCompany",
      "outputs": [
        {
          "components": [
            {
              "internalType": "string",
              "name": "name",
              "type": "string"
            },
            {
              "internalType": "string",
              "name": "description",
              "type": "string"
            },
            {
              "internalType": "string",
              "name": "jobInfo",
              "type": "string"
            },
            {
              "internalType": "bool",
              "name": "isActive",
              "type": "bool"
            }
          ],
          "internalType": "struct User.company",
          "name": "",
          "type": "tuple"
        }
      ],
      "stateMutability": "view",
      "type": "function",
      "constant": true
    },
    {
      "inputs": [],
      "name": "getAllCompany",
      "outputs": [
        {
          "components": [
            {
              "internalType": "string",
              "name": "name",
              "type": "string"
            },
            {
              "internalType": "string",
              "name": "description",
              "type": "string"
            },
            {
              "internalType": "string",
              "name": "jobInfo",
              "type": "string"
            },
            {
              "internalType": "bool",
              "name": "isActive",
              "type": "bool"
            }
          ],
          "internalType": "struct User.company[]",
          "name": "",
          "type": "tuple[]"
        }
      ],
      "stateMutability": "view",
      "type": "function",
      "constant": true
    }
  ],
  "bytecode": "0x60806040523480156200001157600080fd5b506200001c62000036565b620000266200022e565b62000030620003de565b620005a9565b604080516080810182526001818301908152600360fc1b60608301528152815180830190925260068252653932b1ba37b960d11b6020808401919091528082019290925280518051919260009262000092928492019062000442565b506020828101518051620000ad926001850192019062000442565b5050604080516080810182526001818301908152603160f81b606083015281528151808301909252600c82526b105051195c185c9d1b595b9d60a21b6020808401919091528082019290925280518051919350600292620001149284929091019062000442565b5060208281015180516200012f926001850192019062000442565b5050604080516080810182526001818301908152601960f91b60608301528152815180830190925260078252661cdd1d59195b9d60ca1b6020808401919091528082019290925280518051919350600492620001919284929091019062000442565b506020828101518051620001ac926001850192019062000442565b5050604080516080810182526001818301908152603360f81b6060830152815281518083019092526007825266636f6d70616e7960c81b60208084019190915280820192909252805180519193506006926200020e9284929091019062000442565b50602082810151805162000229926001850192019062000442565b505050565b6200025a6040518060800160405280606081526020016060815260200160608152602001606081525090565b604080518082018252601581527f504753205453204e677579656e205669657420486100000000000000000000006020808301919091529083528151808301835260048152630c4e4dcd60e21b818301528382015281518083018352600a80825269181c9c1c989a99191a9960b11b8284015284840191909152825180840184526009815268199c9bdb480c8c0c4d60ba1b818401526060850152336000908152908252919091208251805184936200031892849291019062000442565b50602082810151805162000333926001850192019062000442565b50604082015180516200035191600284019160209091019062000442565b50606082015180516200036f91600384019160209091019062000442565b50503360009081526008602052604081208154919250908190839062000395906200056c565b620003a2929190620004d1565b506001820181600101908054620003b9906200056c565b620003c6929190620004d1565b5050600980546001600160a01b031916331790555050565b604051806060016040528060248152602001620048676024913980516200040e91600b9160209091019062000442565b506040518060800160405280606081526020016200488b6060913980516200043f91600c9160209091019062000442565b50565b82805462000450906200056c565b90600052602060002090601f016020900481019282620004745760008555620004bf565b82601f106200048f57805160ff1916838001178555620004bf565b82800160010185558215620004bf579182015b82811115620004bf578251825591602001919060010190620004a2565b50620004cd92915062000555565b5090565b828054620004df906200056c565b90600052602060002090601f016020900481019282620005035760008555620004bf565b82601f10620005165780548555620004bf565b82800160010185558215620004bf57600052602060002091601f016020900482015b82811115620004bf57825482559160010191906001019062000538565b5b80821115620004cd576000815560010162000556565b600181811c908216806200058157607f821691505b60208210811415620005a357634e487b7160e01b600052602260045260246000fd5b50919050565b6142ae80620005b96000396000f3fe608060405234801561001057600080fd5b50600436106101735760003560e01c8063883d40c1116100de578063ba8805f411610097578063c805974711610071578063c80597471461033c578063ed7ad82614610351578063eed879eb14610364578063fc4a74421461037757610173565b8063ba8805f414610303578063bd2456c714610316578063c23fd5a61461032957610173565b8063883d40c1146102825780638cca2ec4146102955780638f19aed4146102aa57806393b3298c146102bd578063ad69d7b0146102dd578063b174ba82146102f057610173565b80635c6f2e08116101305780635c6f2e081461020057806362bc56e6146102135780636b5fe4b61461023357806375957bc0146102465780637b60626d1461024e5780637d67d9001461026157610173565b80630d2393fd14610178578063106e3ea614610196578063133d0460146101ab578063388807cf146101c057806343ae37c3146101d55780634b0875e9146101ed575b600080fd5b61018061038a565b60405161018d9190614023565b60405180910390f35b6101a96101a436600461353b565b6105b1565b005b6101b3610819565b60405161018d9190614077565b6101c8610cd7565b60405161018d91906140f1565b6101dd610e2c565b60405161018d9493929190614117565b6101a96101fb366004613a3c565b611314565b6101a961020e366004613a3c565b6113ac565b61022661022136600461351a565b61141a565b60405161018d91906140de565b6101a9610241366004613689565b611638565b6101c861173f565b6101a961025c366004613a3c565b611770565b61027461026f3660046139a0565b611990565b60405190815260200161018d565b6101a96102903660046137be565b6119f5565b61029d611ba3565b60405161018d9190613fc2565b6101a96102b8366004613b0d565b611dc1565b6102d06102cb36600461351a565b61219a565b60405161018d919061416f565b6101a96102eb366004613c74565b6125fb565b6101a96102fe366004613ac0565b6126a5565b6101a9610311366004613c31565b612758565b61022661032436600461351a565b612b7c565b6101a96103373660046139db565b612d98565b610344612e14565b60405161018d9190614104565b6102d061035f3660046139a0565b6130b2565b6101a96103723660046135d0565b6130f6565b6101a9610385366004613c74565b613285565b60606014805480602002602001604051908101604052809291908181526020016000905b828210156105a857838290600052602060002090600402016040518060800160405290816000820180546103e1906141f6565b80601f016020809104026020016040519081016040528092919081815260200182805461040d906141f6565b801561045a5780601f1061042f5761010080835404028352916020019161045a565b820191906000526020600020905b81548152906001019060200180831161043d57829003601f168201915b50505050508152602001600182018054610473906141f6565b80601f016020809104026020016040519081016040528092919081815260200182805461049f906141f6565b80156104ec5780601f106104c1576101008083540402835291602001916104ec565b820191906000526020600020905b8154815290600101906020018083116104cf57829003601f168201915b50505050508152602001600282018054610505906141f6565b80601f0160208091040260200160405190810160405280929190818152602001828054610531906141f6565b801561057e5780601f106105535761010080835404028352916020019161057e565b820191906000526020600020905b81548152906001019060200180831161056157829003601f168201915b50505091835250506003919091015460ff16151560209182015290825260019290920191016103ae565b50505050905090565b6009546001600160a01b03163314806105e15750336000908152600e602052604090206003015460ff1615156001145b6105ea57600080fd5b6040805160008082526020808301808552835190206001600160a01b0389168352600890915290839020879391926106229201613ede565b604051602081830303815290604052805190602001201461064257600080fd5b604080516080810182528581526020808201869052918101849052600160608201819052600d80549182018155600052815180519293849360049093027fd7b6990105719101dabeb77144f2a3385c8033acd3af97e9423a695e81ad1eb501926106af928492019061331d565b5060208281015180516106c8926001850192019061331d565b50604082015180516106e491600284019160209091019061331d565b50606091909101516003909101805460ff1916911515919091179055600d548690600f90600090610717906001906141b3565b81526020808201929092526040908101600090812080546001600160a01b0319166001600160a01b039586161790559289168352600e825290912082518051849361076692849291019061331d565b50602082810151805161077f926001850192019061331d565b506040820151805161079b91600284019160209091019061331d565b50606091909101516003909101805460ff19169115159190911790556001600160a01b038616600090815260086020526040902060028054909190819083906107e3906141f6565b6107ee9291906133a1565b506001820181600101908054610803906141f6565b61080e9291906133a1565b505050505050505050565b6009546060906001600160a01b031633148061084c5750336000908152600e602052604090206003015460ff1615156001145b61085557600080fd5b6010805480602002602001604051908101604052809291908181526020016000905b828210156105a85783829060005260206000209060090201604051806101400160405290816000820180546108ab906141f6565b80601f01602080910402602001604051908101604052809291908181526020018280546108d7906141f6565b80156109245780601f106108f957610100808354040283529160200191610924565b820191906000526020600020905b81548152906001019060200180831161090757829003601f168201915b5050505050815260200160018201805461093d906141f6565b80601f0160208091040260200160405190810160405280929190818152602001828054610969906141f6565b80156109b65780601f1061098b576101008083540402835291602001916109b6565b820191906000526020600020905b81548152906001019060200180831161099957829003601f168201915b505050505081526020016002820180546109cf906141f6565b80601f01602080910402602001604051908101604052809291908181526020018280546109fb906141f6565b8015610a485780601f10610a1d57610100808354040283529160200191610a48565b820191906000526020600020905b815481529060010190602001808311610a2b57829003601f168201915b50505050508152602001600382018054610a61906141f6565b80601f0160208091040260200160405190810160405280929190818152602001828054610a8d906141f6565b8015610ada5780601f10610aaf57610100808354040283529160200191610ada565b820191906000526020600020905b815481529060010190602001808311610abd57829003601f168201915b50505050508152602001600482018054610af3906141f6565b80601f0160208091040260200160405190810160405280929190818152602001828054610b1f906141f6565b8015610b6c5780601f10610b4157610100808354040283529160200191610b6c565b820191906000526020600020905b815481529060010190602001808311610b4f57829003601f168201915b50505050508152602001600582018054610b85906141f6565b80601f0160208091040260200160405190810160405280929190818152602001828054610bb1906141f6565b8015610bfe5780601f10610bd357610100808354040283529160200191610bfe565b820191906000526020600020905b815481529060010190602001808311610be157829003601f168201915b50505050508152602001600682018054610c17906141f6565b80601f0160208091040260200160405190810160405280929190818152602001828054610c43906141f6565b8015610c905780601f10610c6557610100808354040283529160200191610c90565b820191906000526020600020905b815481529060010190602001808311610c7357829003601f168201915b5050509183525050600782015460ff808216151560208085019190915261010090920416151560408301526008909201546060909101529082526001929092019101610877565b604080518082019091526060808252602082015233600090815260086020526040908190208151808301909252805482908290610d13906141f6565b80601f0160208091040260200160405190810160405280929190818152602001828054610d3f906141f6565b8015610d8c5780601f10610d6157610100808354040283529160200191610d8c565b820191906000526020600020905b815481529060010190602001808311610d6f57829003601f168201915b50505050508152602001600182018054610da5906141f6565b80601f0160208091040260200160405190810160405280929190818152602001828054610dd1906141f6565b8015610e1e5780601f10610df357610100808354040283529160200191610e1e565b820191906000526020600020905b815481529060010190602001808311610e0157829003601f168201915b505050505081525050905090565b610e576040518060800160405280606081526020016060815260200160608152602001606081525090565b610e8460405180608001604052806060815260200160608152602001606081526020016000151581525090565b610e8c61341c565b610eb960405180608001604052806060815260200160608152602001606081526020016000151581525090565b604051600360fc1b602082015260210160408051601f19818403018152828252805160209182012033600090815260088352929092209192610efc929101613ede565b6040516020818303038152906040528051906020012014156111a657336000818152600a6020526040902090610f3190612b7c565b610f3a3361219a565b610f433361141a565b83604051806080016040529081600082018054610f5f906141f6565b80601f0160208091040260200160405190810160405280929190818152602001828054610f8b906141f6565b8015610fd85780601f10610fad57610100808354040283529160200191610fd8565b820191906000526020600020905b815481529060010190602001808311610fbb57829003601f168201915b50505050508152602001600182018054610ff1906141f6565b80601f016020809104026020016040519081016040528092919081815260200182805461101d906141f6565b801561106a5780601f1061103f5761010080835404028352916020019161106a565b820191906000526020600020905b81548152906001019060200180831161104d57829003601f168201915b50505050508152602001600282018054611083906141f6565b80601f01602080910402602001604051908101604052809291908181526020018280546110af906141f6565b80156110fc5780601f106110d1576101008083540402835291602001916110fc565b820191906000526020600020905b8154815290600101906020018083116110df57829003601f168201915b50505050508152602001600382018054611115906141f6565b80601f0160208091040260200160405190810160405280929190818152602001828054611141906141f6565b801561118e5780601f106111635761010080835404028352916020019161118e565b820191906000526020600020905b81548152906001019060200180831161117157829003601f168201915b5050505050815250509350935093509350935061130e565b604051603160f81b602082015260210160408051601f198184030181528282528051602091820120336000908152600883529290922091926111e9929101613ede565b60405160208183030381529060405280519060200120141561121e57336000818152600a6020526040902090610f3190612b7c565b604051601960f91b602082015260210160408051601f19818403018152828252805160209182012033600090815260088352929092209192611261929101613ede565b60405160208183030381529060405280519060200120141561129657336000818152600a6020526040902090610f3190612b7c565b604051603360f81b602082015260210160408051601f198184030181528282528051602091820120336000908152600883529290922091926112d9929101613ede565b60405160208183030381529060405280519060200120141561130e57336000818152600a6020526040902090610f3190612b7c565b90919293565b336000908152600e602052604090206003015460ff16151560011461133857600080fd5b336000908152600e6020908152604090912084516113589286019061331d565b50336000908152600e60209081526040909120835161137f9260019092019185019061331d565b50336000908152600e6020908152604090912082516113a69260029092019184019061331d565b50505050565b33600090815260156020908152604090912084516113cc9286019061331d565b5033600090815260156020908152604090912083516113f39260019092019185019061331d565b5033600090815260156020908152604090912082516113a69260029092019184019061331d565b61144760405180608001604052806060815260200160608152602001606081526020016000151581525090565b6001600160a01b038216600090815260156020526040808220815160808101909252805482908290611478906141f6565b80601f01602080910402602001604051908101604052809291908181526020018280546114a4906141f6565b80156114f15780601f106114c6576101008083540402835291602001916114f1565b820191906000526020600020905b8154815290600101906020018083116114d457829003601f168201915b5050505050815260200160018201805461150a906141f6565b80601f0160208091040260200160405190810160405280929190818152602001828054611536906141f6565b80156115835780601f1061155857610100808354040283529160200191611583565b820191906000526020600020905b81548152906001019060200180831161156657829003601f168201915b5050505050815260200160028201805461159c906141f6565b80601f01602080910402602001604051908101604052809291908181526020018280546115c8906141f6565b80156116155780601f106115ea57610100808354040283529160200191611615565b820191906000526020600020905b8154815290600101906020018083116115f857829003601f168201915b50505091835250506003919091015460ff1615156020909101529150505b919050565b6009546001600160a01b03163314806116685750336000908152600e602052604090206003015460ff1615156001145b61167157600080fd5b6001600160a01b03891660009081526011602090815260409091208951909161169e9183918c019061331d565b5087516116b490600183019060208b019061331d565b5086516116ca90600283019060208a019061331d565b5085516116e0906003830190602089019061331d565b5084516116f6906004830190602088019061331d565b50835161170c906005830190602087019061331d565b508251611722906006830190602086019061331d565b50600701805460ff19169115159190911790555050505050505050565b6040805180820190915260608082526020820152600b604051806040016040529081600082018054610d13906141f6565b60408051600080825260208083018085528351902033808452600890925291849020909391926117a09201613ede565b60405160208183030381529060405280519060200120146117c057600080fd5b604080516080810182528581526020808201869052918101849052600060608201819052601480546001810182559152815180519293849360049093027fce6d7b5282bd9a3661ae061feed1dbda4e52ab073b1f9285be6e155d9c38d4ec019261182d928492019061331d565b506020828101518051611846926001850192019061331d565b506040820151805161186291600284019160209091019061331d565b50606091909101516003909101805460ff19169115159190911790556014543390601690600090611895906001906141b3565b81526020808201929092526040908101600090812080546001600160a01b0319166001600160a01b039590951694909417909355338352601582529091208251805184936118e792849291019061331d565b506020828101518051611900926001850192019061331d565b506040820151805161191c91600284019160209091019061331d565b50606091909101516003909101805460ff1916911515919091179055336000908152600860205260409020600680549091908190839061195b906141f6565b6119669291906133a1565b50600182018160010190805461197b906141f6565b6119869291906133a1565b5050505050505050565b6009546000906001600160a01b03163314806119c35750336000908152600e602052604090206003015460ff1615156001145b6119cc57600080fd5b6012826040516119dc9190613e9b565b9081526020016040518091039020600801549050919050565b336000908152600e602052604090206003015460ff161515600114611a1957600080fd5b60005b8151811015611b9f57611b8d828281518110611a4857634e487b7160e01b600052603260045260246000fd5b602002602001015160000151838381518110611a7457634e487b7160e01b600052603260045260246000fd5b602002602001015160200151848481518110611aa057634e487b7160e01b600052603260045260246000fd5b602002602001015160400151858581518110611acc57634e487b7160e01b600052603260045260246000fd5b602002602001015160600151868681518110611af857634e487b7160e01b600052603260045260246000fd5b602002602001015160800151878781518110611b2457634e487b7160e01b600052603260045260246000fd5b602002602001015160a00151888881518110611b5057634e487b7160e01b600052603260045260246000fd5b602002602001015160c00151898981518110611b7c57634e487b7160e01b600052603260045260246000fd5b602002602001015160e00151611dc1565b80611b9781614231565b915050611a1c565b5050565b6060600d805480602002602001604051908101604052809291908181526020016000905b828210156105a85783829060005260206000209060040201604051806080016040529081600082018054611bfa906141f6565b80601f0160208091040260200160405190810160405280929190818152602001828054611c26906141f6565b8015611c735780601f10611c4857610100808354040283529160200191611c73565b820191906000526020600020905b815481529060010190602001808311611c5657829003601f168201915b50505050508152602001600182018054611c8c906141f6565b80601f0160208091040260200160405190810160405280929190818152602001828054611cb8906141f6565b8015611d055780601f10611cda57610100808354040283529160200191611d05565b820191906000526020600020905b815481529060010190602001808311611ce857829003601f168201915b50505050508152602001600282018054611d1e906141f6565b80601f0160208091040260200160405190810160405280929190818152602001828054611d4a906141f6565b8015611d975780601f10611d6c57610100808354040283529160200191611d97565b820191906000526020600020905b815481529060010190602001808311611d7a57829003601f168201915b50505091835250506003919091015460ff1615156020918201529082526001929092019101611bc7565b336000908152600e602052604090206003015460ff161515600114611de557600080fd5b87604051602001611df69190613e9b565b60405160208183030381529060405280519060200120601289604051611e1c9190613e9b565b90815260405160209181900382018120611e3892909101613ede565b60405160208183030381529060405280519060200120141588604051602001611e619190613f79565b60405160208183030381529060405290611e975760405162461bcd60e51b8152600401611e8e91906140cb565b60405180910390fd5b5060006040518061014001604052808a815260200189815260200188815260200187815260200186815260200185815260200184815260200183151581526020016000151581526020018a4244604051602001611ef693929190613eb7565b60408051601f1981840301815291905280516020918201209091526010805460018101825560009190915282518051939450849360099092027f1b6847dc741a1b0cd08d278845f9d819d87b734759afb55fe2de5cb82a9ae6720192611f619284929091019061331d565b506020828101518051611f7a926001850192019061331d565b5060408201518051611f9691600284019160209091019061331d565b5060608201518051611fb291600384019160209091019061331d565b5060808201518051611fce91600484019160209091019061331d565b5060a08201518051611fea91600584019160209091019061331d565b5060c0820151805161200691600684019160209091019061331d565b5060e08201516007820180546101008086015115150261ff00199315159390931661ffff1990911617919091179055610120909101516008909101556040518190601290612055908c90613e9b565b9081526020016040518091039020600082015181600001908051906020019061207f92919061331d565b506020828101518051612098926001850192019061331d565b50604082015180516120b491600284019160209091019061331d565b50606082015180516120d091600384019160209091019061331d565b50608082015180516120ec91600484019160209091019061331d565b5060a0820151805161210891600584019160209091019061331d565b5060c0820151805161212491600684019160209091019061331d565b5060e08201516007820180546101008086015115150261ff00199315159390931661ffff19909116179190911790556101209091015160089091015560105461216f906001906141b3565b60138a60405161217f9190613e9b565b90815260405190819003602001902055505050505050505050565b6121a261341c565b6001600160a01b038216600090815260116020526040808220815161014081019092528054829082906121d4906141f6565b80601f0160208091040260200160405190810160405280929190818152602001828054612200906141f6565b801561224d5780601f106122225761010080835404028352916020019161224d565b820191906000526020600020905b81548152906001019060200180831161223057829003601f168201915b50505050508152602001600182018054612266906141f6565b80601f0160208091040260200160405190810160405280929190818152602001828054612292906141f6565b80156122df5780601f106122b4576101008083540402835291602001916122df565b820191906000526020600020905b8154815290600101906020018083116122c257829003601f168201915b505050505081526020016002820180546122f8906141f6565b80601f0160208091040260200160405190810160405280929190818152602001828054612324906141f6565b80156123715780601f1061234657610100808354040283529160200191612371565b820191906000526020600020905b81548152906001019060200180831161235457829003601f168201915b5050505050815260200160038201805461238a906141f6565b80601f01602080910402602001604051908101604052809291908181526020018280546123b6906141f6565b80156124035780601f106123d857610100808354040283529160200191612403565b820191906000526020600020905b8154815290600101906020018083116123e657829003601f168201915b5050505050815260200160048201805461241c906141f6565b80601f0160208091040260200160405190810160405280929190818152602001828054612448906141f6565b80156124955780601f1061246a57610100808354040283529160200191612495565b820191906000526020600020905b81548152906001019060200180831161247857829003601f168201915b505050505081526020016005820180546124ae906141f6565b80601f01602080910402602001604051908101604052809291908181526020018280546124da906141f6565b80156125275780601f106124fc57610100808354040283529160200191612527565b820191906000526020600020905b81548152906001019060200180831161250a57829003601f168201915b50505050508152602001600682018054612540906141f6565b80601f016020809104026020016040519081016040528092919081815260200182805461256c906141f6565b80156125b95780601f1061258e576101008083540402835291602001916125b9565b820191906000526020600020905b81548152906001019060200180831161259c57829003601f168201915b5050509183525050600782015460ff80821615156020840152610100909104161515604082015260089091015460609091015260006101208201529392505050565b6009546001600160a01b031633148061262b5750336000908152600e602052604090206003015460ff1615156001145b61263457600080fd5b6000600d828154811061265757634e487b7160e01b600052603260045260246000fd5b6000918252602080832060036004909302018201805494151560ff19958616179055938252600f84526040808320546001600160a01b03168352600e90945292902090910180549091169055565b6009546001600160a01b031633146126bc57600080fd5b336000908152600a6020908152604090912085516126dc9287019061331d565b50336000908152600a6020908152604090912084516127039260019092019186019061331d565b50336000908152600a60209081526040909120835161272a9260029092019185019061331d565b50336000908152600a6020908152604090912082516127519260039092019184019061331d565b5050505050565b60408051600080825260208083018085528351902033808452600890925291849020909391926127889201613ede565b60405160208183030381529060405280519060200120146127a857600080fd5b6012836040516127b89190613e9b565b90815260200160405180910390206008015482146127d557600080fd5b6012836040516127e59190613e9b565b908152604080516020928190038301902033600090815260119093529120815481908390612812906141f6565b61281d9291906133a1565b506001820181600101908054612832906141f6565b61283d9291906133a1565b506002820181600201908054612852906141f6565b61285d9291906133a1565b506003820181600301908054612872906141f6565b61287d9291906133a1565b506004820181600401908054612892906141f6565b61289d9291906133a1565b5060058201816005019080546128b2906141f6565b6128bd9291906133a1565b5060068201816006019080546128d2906141f6565b6128dd9291906133a1565b5060078281018054918301805460ff938416151560ff19821681178355925461010090819004909416151590930261ff001990921661ffff199093169290921717905560089182015491015560405160019060129061293d908690613e9b565b908152602001604051809103902060070160016101000a81548160ff021916908315150217905550600160106013856040516129799190613e9b565b908152602001604051809103902054815481106129a657634e487b7160e01b600052603260045260246000fd5b60009182526020808320600992909202909101600701805461ff001916610100941515949094029390931790925533815260089091526040902060048054909190819083906129f4906141f6565b6129ff9291906133a1565b506001820181600101908054612a14906141f6565b612a1f9291906133a1565b50905050601283604051612a339190613e9b565b908152604080516020928190038301902033600090815260119093529120815481908390612a60906141f6565b612a6b9291906133a1565b506001820181600101908054612a80906141f6565b612a8b9291906133a1565b506002820181600201908054612aa0906141f6565b612aab9291906133a1565b506003820181600301908054612ac0906141f6565b612acb9291906133a1565b506004820181600401908054612ae0906141f6565b612aeb9291906133a1565b506005820181600501908054612b00906141f6565b612b0b9291906133a1565b506006820181600601908054612b20906141f6565b612b2b9291906133a1565b5060078281018054918301805460ff938416151560ff19821681178355925461010090819004909416151590930261ff001990921661ffff1990931692909217179055600891820154910155505050565b612ba960405180608001604052806060815260200160608152602001606081526020016000151581525090565b6001600160a01b0382166000908152600e602052604090819020815160808101909252805482908290612bdb906141f6565b80601f0160208091040260200160405190810160405280929190818152602001828054612c07906141f6565b8015612c545780601f10612c2957610100808354040283529160200191612c54565b820191906000526020600020905b815481529060010190602001808311612c3757829003601f168201915b50505050508152602001600182018054612c6d906141f6565b80601f0160208091040260200160405190810160405280929190818152602001828054612c99906141f6565b8015612ce65780601f10612cbb57610100808354040283529160200191612ce6565b820191906000526020600020905b815481529060010190602001808311612cc957829003601f168201915b50505050508152602001600282018054612cff906141f6565b80601f0160208091040260200160405190810160405280929190818152602001828054612d2b906141f6565b8015612d785780601f10612d4d57610100808354040283529160200191612d78565b820191906000526020600020905b815481529060010190602001808311612d5b57829003601f168201915b50505091835250506003919091015460ff16151560209091015292915050565b3360009081526011602052604090206007015460ff610100909104161515600114612dc257600080fd5b3360009081526011602090815260409091208351612de89260029092019185019061331d565b503360009081526011602090815260409091208251612e0f9260039092019184019061331d565b505050565b612e3f6040518060800160405280606081526020016060815260200160608152602001606081525090565b6009546001600160a01b03166000908152600a6020526040808220815160808101909252805482908290612e72906141f6565b80601f0160208091040260200160405190810160405280929190818152602001828054612e9e906141f6565b8015612eeb5780601f10612ec057610100808354040283529160200191612eeb565b820191906000526020600020905b815481529060010190602001808311612ece57829003601f168201915b50505050508152602001600182018054612f04906141f6565b80601f0160208091040260200160405190810160405280929190818152602001828054612f30906141f6565b8015612f7d5780601f10612f5257610100808354040283529160200191612f7d565b820191906000526020600020905b815481529060010190602001808311612f6057829003601f168201915b50505050508152602001600282018054612f96906141f6565b80601f0160208091040260200160405190810160405280929190818152602001828054612fc2906141f6565b801561300f5780601f10612fe45761010080835404028352916020019161300f565b820191906000526020600020905b815481529060010190602001808311612ff257829003601f168201915b50505050508152602001600382018054613028906141f6565b80601f0160208091040260200160405190810160405280929190818152602001828054613054906141f6565b80156130a15780601f10613076576101008083540402835291602001916130a1565b820191906000526020600020905b81548152906001019060200180831161308457829003601f168201915b505050919092525091935050505090565b6130ba61341c565b60006012836040516130cc9190613e9b565b9081526020016040518091039020604051806101400160405290816000820180546121d4906141f6565b6009546001600160a01b0316331461310d57600080fd5b6040805160008082526020808301808552835190206001600160a01b038a168352600890915290839020889391926131459201613ede565b604051602081830303815290604052805190602001201461316557600080fd5b604080516080810182528681526020808201879052818301869052606082018590526001600160a01b0389166000908152600a82529290922081518051929384936131b3928492019061331d565b5060208281015180516131cc926001850192019061331d565b50604082015180516131e891600284019160209091019061331d565b506060820151805161320491600384019160209091019061331d565b5050506001600160a01b038716600090815260086020526040812081548190839061322e906141f6565b6132399291906133a1565b50600182018160010190805461324e906141f6565b6132599291906133a1565b5050600980546001600160a01b0319166001600160a01b03999099169890981790975550505050505050565b336000908152600e602052604090206003015460ff1615156001146132a957600080fd5b6001601482815481106132cc57634e487b7160e01b600052603260045260246000fd5b6000918252602080832060036004909302018201805494151560ff19958616179055938252601684526040808320546001600160a01b03168352601590945292902090910180549091166001179055565b828054613329906141f6565b90600052602060002090601f01602090048101928261334b5760008555613391565b82601f1061336457805160ff1916838001178555613391565b82800160010185558215613391579182015b82811115613391578251825591602001919060010190613376565b5061339d929150613473565b5090565b8280546133ad906141f6565b90600052602060002090601f0160209004810192826133cf5760008555613391565b82601f106133e05780548555613391565b8280016001018555821561339157600052602060002091601f016020900482015b82811115613391578254825591600101919060010190613401565b60405180610140016040528060608152602001606081526020016060815260200160608152602001606081526020016060815260200160608152602001600015158152602001600015158152602001600081525090565b5b8082111561339d5760008155600101613474565b80356001600160a01b038116811461163357600080fd5b8035801515811461163357600080fd5b600082601f8301126134bf578081fd5b813567ffffffffffffffff8111156134d9576134d9614262565b6134ec601f8201601f1916602001614182565b818152846020838601011115613500578283fd5b816020850160208301379081016020019190915292915050565b60006020828403121561352b578081fd5b61353482613488565b9392505050565b60008060008060808587031215613550578283fd5b61355985613488565b9350602085013567ffffffffffffffff80821115613575578485fd5b613581888389016134af565b94506040870135915080821115613596578384fd5b6135a2888389016134af565b935060608701359150808211156135b7578283fd5b506135c4878288016134af565b91505092959194509250565b600080600080600060a086880312156135e7578081fd5b6135f086613488565b9450602086013567ffffffffffffffff8082111561360c578283fd5b61361889838a016134af565b9550604088013591508082111561362d578283fd5b61363989838a016134af565b9450606088013591508082111561364e578283fd5b61365a89838a016134af565b9350608088013591508082111561366f578283fd5b5061367c888289016134af565b9150509295509295909350565b60008060008060008060008060006101208a8c0312156136a7578384fd5b6136b08a613488565b985060208a013567ffffffffffffffff808211156136cc578586fd5b6136d88d838e016134af565b995060408c01359150808211156136ed578586fd5b6136f98d838e016134af565b985060608c013591508082111561370e578586fd5b61371a8d838e016134af565b975060808c013591508082111561372f578586fd5b61373b8d838e016134af565b965060a08c0135915080821115613750578586fd5b61375c8d838e016134af565b955060c08c0135915080821115613771578485fd5b61377d8d838e016134af565b945060e08c0135915080821115613792578384fd5b5061379f8c828d016134af565b9250506137af6101008b0161349f565b90509295985092959850929598565b600060208083850312156137d0578182fd5b823567ffffffffffffffff808211156137e7578384fd5b818501915085601f8301126137fa578384fd5b81358181111561380c5761380c614262565b61381a848260051b01614182565b81815284810190848601875b84811015613991578135870161014080601f19838f03011215613847578a8bfd5b61385081614182565b8a83013589811115613860578c8dfd5b61386e8f8d838701016134af565b825250604083013589811115613882578c8dfd5b6138908f8d838701016134af565b8c830152506060830135898111156138a6578c8dfd5b6138b48f8d838701016134af565b6040830152506080830135898111156138cb578c8dfd5b6138d98f8d838701016134af565b60608301525060a0830135898111156138f0578c8dfd5b6138fe8f8d838701016134af565b60808301525060c083013589811115613915578c8dfd5b6139238f8d838701016134af565b60a08301525060e08301358981111561393a578c8dfd5b6139488f8d838701016134af565b60c08301525061010061395c81850161349f565b60e083015261012061396f81860161349f565b9183019190915291909201359082015284529287019290870190600101613826565b50909998505050505050505050565b6000602082840312156139b1578081fd5b813567ffffffffffffffff8111156139c7578182fd5b6139d3848285016134af565b949350505050565b600080604083850312156139ed578182fd5b823567ffffffffffffffff80821115613a04578384fd5b613a10868387016134af565b93506020850135915080821115613a25578283fd5b50613a32858286016134af565b9150509250929050565b600080600060608486031215613a50578283fd5b833567ffffffffffffffff80821115613a67578485fd5b613a73878388016134af565b94506020860135915080821115613a88578384fd5b613a94878388016134af565b93506040860135915080821115613aa9578283fd5b50613ab6868287016134af565b9150509250925092565b60008060008060808587031215613ad5578384fd5b843567ffffffffffffffff80821115613aec578586fd5b613af8888389016134af565b95506020870135915080821115613575578485fd5b600080600080600080600080610100898b031215613b29578182fd5b883567ffffffffffffffff80821115613b40578384fd5b613b4c8c838d016134af565b995060208b0135915080821115613b61578384fd5b613b6d8c838d016134af565b985060408b0135915080821115613b82578384fd5b613b8e8c838d016134af565b975060608b0135915080821115613ba3578384fd5b613baf8c838d016134af565b965060808b0135915080821115613bc4578384fd5b613bd08c838d016134af565b955060a08b0135915080821115613be5578384fd5b613bf18c838d016134af565b945060c08b0135915080821115613c06578384fd5b50613c138b828c016134af565b925050613c2260e08a0161349f565b90509295985092959890939650565b60008060408385031215613c43578182fd5b823567ffffffffffffffff811115613c59578283fd5b613c65858286016134af565b95602094909401359450505050565b600060208284031215613c85578081fd5b5035919050565b60008151808452613ca48160208601602086016141ca565b601f01601f19169290920160200192915050565b6000815160808452613ccd6080850182613c8c565b905060208301518482036020860152613ce68282613c8c565b91505060408301518482036040860152613d008282613c8c565b9150506060830151151560608501528091505092915050565b6000815160408452613d2e6040850182613c8c565b905060208301518482036020860152613d478282613c8c565b95945050505050565b6000815160808452613d656080850182613c8c565b905060208301518482036020860152613d7e8282613c8c565b91505060408301518482036040860152613d988282613c8c565b91505060608301518482036060860152613d478282613c8c565b60006101408251818552613dc882860182613c8c565b91505060208301518482036020860152613de28282613c8c565b91505060408301518482036040860152613dfc8282613c8c565b91505060608301518482036060860152613e168282613c8c565b91505060808301518482036080860152613e308282613c8c565b91505060a083015184820360a0860152613e4a8282613c8c565b91505060c083015184820360c0860152613e648282613c8c565b91505060e0830151613e7a60e086018215159052565b50610100838101511515908501526101209283015192909301919091525090565b60008251613ead8184602087016141ca565b9190910192915050565b60008451613ec98184602089016141ca565b91909101928352506020820152604001919050565b600080835482600182811c915080831680613efa57607f831692505b6020808410821415613f1a57634e487b7160e01b87526022600452602487fd5b818015613f2e5760018114613f3f57613f6b565b60ff19861689528489019650613f6b565b60008a815260209020885b86811015613f635781548b820152908501908301613f4a565b505084890196505b509498975050505050505050565b600067029ba3ab232b73a160c51b82528251613f9c8160088501602087016141ca565b6e20616c72656164792065786973747360881b6008939091019283015250601701919050565b6000602080830181845280855180835260408601915060408160051b8701019250838701855b8281101561401657603f19888603018452614004858351613cb8565b94509285019290850190600101613fe8565b5092979650505050505050565b6000602080830181845280855180835260408601915060408160051b8701019250838701855b8281101561401657603f19888603018452614065858351613cb8565b94509285019290850190600101614049565b6000602080830181845280855180835260408601915060408160051b8701019250838701855b8281101561401657603f198886030184526140b9858351613db2565b9450928501929085019060010161409d565b6000602082526135346020830184613c8c565b6000602082526135346020830184613cb8565b6000602082526135346020830184613d19565b6000602082526135346020830184613d50565b60006080825261412a6080830187613d50565b828103602084015261413c8187613cb8565b905082810360408401526141508186613db2565b905082810360608401526141648185613cb8565b979650505050505050565b6000602082526135346020830184613db2565b604051601f8201601f1916810167ffffffffffffffff811182821017156141ab576141ab614262565b604052919050565b6000828210156141c5576141c561424c565b500390565b60005b838110156141e55781810151838201526020016141cd565b838111156113a65750506000910152565b600181811c9082168061420a57607f821691505b6020821081141561422b57634e487b7160e01b600052602260045260246000fd5b50919050565b60006000198214156142455761424561424c565b5060010190565b634e487b7160e01b600052601160045260246000fd5b634e487b7160e01b600052604160045260246000fdfea2646970667358221220704b3a2b4a221f0b0df6bd90b592ac43e633d10e055a41e612e97c4f6b228e3b64736f6c63430008030033453320313434205875616e2054687579202d204361752047696179202d204861204e6f69207468616d206d7575206769757020766965632048696575207472756f6e672074687563206869656e20636f6e6720746163207665207861792064756e672c207175616e206c7920636163206368756f6e67207472696e682064616f2074616f",
  "immutableReferences": {},
  "source": "// SPDX-License-Identifier: MIT\npragma solidity >=0.7.0 <0.9.0;\n\ncontract User {\n    constructor() {\n        setRole();\n        setRector();\n        setAADepartmentAcc();\n    }\n\n    struct role {\n        string id;\n        string name;\n    }\n\n    role[4] roleList;\n    mapping(address => role) userRole;\n\n    function getCurrentUserRole() public view returns (role memory) {\n        return userRole[msg.sender];\n    }\n\n    function getCurrentUser()\n        public\n        view\n        returns (\n            rector memory,\n            AADUser memory,\n            student memory,\n            company memory\n        )\n    {\n        if (\n            keccak256(abi.encodePacked(userRole[msg.sender].id)) ==\n            keccak256(abi.encodePacked(\"0\"))\n        ) {\n            return (\n                rectorDetail[msg.sender],\n                getAADepartmentUser(msg.sender),\n                getStudentByAddr(msg.sender),\n                getCompany(msg.sender)\n            );\n        } else if (\n            keccak256(abi.encodePacked(userRole[msg.sender].id)) ==\n            keccak256(abi.encodePacked(\"1\"))\n        ) {\n            return (\n                rectorDetail[msg.sender],\n                getAADepartmentUser(msg.sender),\n                getStudentByAddr(msg.sender),\n                getCompany(msg.sender)\n            );\n        } else if (\n            keccak256(abi.encodePacked(userRole[msg.sender].id)) ==\n            keccak256(abi.encodePacked(\"2\"))\n        ) {\n            return (\n                rectorDetail[msg.sender],\n                getAADepartmentUser(msg.sender),\n                getStudentByAddr(msg.sender),\n                getCompany(msg.sender)\n            );\n        } else if (\n            keccak256(abi.encodePacked(userRole[msg.sender].id)) ==\n            keccak256(abi.encodePacked(\"3\"))\n        ) {\n            return (\n                rectorDetail[msg.sender],\n                getAADepartmentUser(msg.sender),\n                getStudentByAddr(msg.sender),\n                getCompany(msg.sender)\n            );\n        }\n    }\n\n    // modifier onlyUser(address _address) {\n    //     require(msg.sender == _address || msg.sender == currentRectorAddress);\n    //     _;\n    // }\n\n    modifier onlyNoRole(address _address) {\n        require(\n            keccak256(abi.encodePacked(userRole[_address].id)) ==\n                keccak256(abi.encodePacked(\"\"))\n        );\n        _;\n    }\n\n    function setRole() private {\n        roleList[0] = (role(\"0\", \"rector\"));\n        roleList[1] = (role(\"1\", \"AADepartment\"));\n        roleList[2] = (role(\"2\", \"student\"));\n        roleList[3] = (role(\"3\", \"company\"));\n    }\n\n    struct rector {\n        string name;\n        string date;\n        string phone;\n        string term;\n    }\n\n    address currentRectorAddress;\n\n    mapping(address => rector) rectorDetail;\n\n    modifier onlyCurrentRector() {\n        require(msg.sender == currentRectorAddress);\n        _;\n    }\n\n    function setRector() private {\n        rector memory rectorTemp;\n        rectorTemp.name = \"PGS TS Nguyen Viet Ha\";\n        rectorTemp.date = \"1974\";\n        rectorTemp.phone = \"0989152252\";\n        rectorTemp.term = \"from 2014\";\n        rectorDetail[msg.sender] = rectorTemp;\n        userRole[msg.sender] = roleList[0];\n\n        currentRectorAddress = msg.sender;\n    }\n\n    function getCurrentRector() public view returns (rector memory) {\n        rector memory currentRector = rectorDetail[currentRectorAddress];\n        return currentRector;\n    }\n\n    function createNewRector(\n        address _newRectorAddr,\n        string memory _name,\n        string memory _date,\n        string memory _phone,\n        string memory _term\n    ) public onlyCurrentRector onlyNoRole(_newRectorAddr) {\n        rector memory newRector = rector(_name, _date, _phone, _term);\n\n        rectorDetail[_newRectorAddr] = newRector;\n        userRole[_newRectorAddr] = roleList[0];\n\n        currentRectorAddress = _newRectorAddr;\n    }\n\n    function updateCurrentRector(\n        string memory _name,\n        string memory _date,\n        string memory _phone,\n        string memory _term\n    ) public onlyCurrentRector {\n        rectorDetail[msg.sender].name = _name;\n        rectorDetail[msg.sender].date = _date;\n        rectorDetail[msg.sender].phone = _phone;\n        rectorDetail[msg.sender].term = _term;\n    }\n\n    // Academic Affairs Department\n    struct AADepartment {\n        string realAddress; // dia chi PDT\n        string description;\n    }\n\n    struct AADUser {\n        string name;\n        string date;\n        string phone;\n        bool isActive;\n    }\n\n    AADepartment AADepartmentAcc;\n\n    AADUser[] AADUserList;\n    mapping(address => AADUser) AADUsers;\n    mapping(uint => address) ADDUserIdToAddr;\n\n    modifier onlyAADepartmentUser() {\n        require(AADUsers[msg.sender].isActive == true);\n        _;\n    }\n\n    modifier onlyRectorOrAAD() {\n        require(\n            msg.sender == currentRectorAddress ||\n                AADUsers[msg.sender].isActive == true\n        );\n        _;\n    }\n\n    function setAADepartmentAcc() private {\n        AADepartmentAcc.realAddress = \"E3 144 Xuan Thuy - Cau Giay - Ha Noi\";\n        AADepartmentAcc\n            .description = \" tham muu giup viec Hieu truong thuc hien cong tac ve xay dung, quan ly cac chuong trinh dao tao\";\n    }\n\n    function getAADepartmentAcc() public view returns (AADepartment memory) {\n        return AADepartmentAcc;\n    }\n\n    function createAADepartmentUser(\n        address _address,\n        string memory _name,\n        string memory _date,\n        string memory _phone\n    ) public onlyRectorOrAAD onlyNoRole(_address) {\n        AADUser memory temp = AADUser(_name, _date, _phone, true);\n        AADUserList.push(temp);\n        ADDUserIdToAddr[AADUserList.length-1] = _address;\n        AADUsers[_address] = temp;\n        \n        userRole[_address] = roleList[1];\n    }\n\n    function updateAADepartmentUser(\n        string memory _name,\n        string memory _date,\n        string memory _phone\n    ) public {\n        require(AADUsers[msg.sender].isActive == true);\n        AADUsers[msg.sender].name = _name;\n        AADUsers[msg.sender].date = _date;\n        AADUsers[msg.sender].phone = _phone;\n    }\n\n    function deactiveAADepartmentUser(uint _AADUserId) public onlyRectorOrAAD {\n        AADUserList[_AADUserId].isActive = false;\n        AADUsers[ADDUserIdToAddr[_AADUserId]].isActive = false;\n    }\n\n    function getAADepartmentUser(address _userAddress)\n        public\n        view\n        returns (AADUser memory)\n    {\n        return AADUsers[_userAddress];\n    }\n\n    function getAllAADepartmentUsers() public view returns (AADUser[] memory) {\n        return AADUserList;\n    }\n\n    struct student {\n        string id;\n        string name;\n        string email;\n        string phone;\n        string class;\n        string major;\n        string cpa;\n        bool qualifiedForGraduation;\n        bool isActive;\n        uint256 nonce;\n    }\n\n    student[] studentList;\n    mapping(address => student) studentDetails;\n    mapping(string => student) idToStudent;\n    \n    mapping(string => uint) studentIdToIndex;\n\n    modifier onlyStudent() {\n        require(studentDetails[msg.sender].isActive == true);\n        _;\n    }\n\n    function createStudent(\n        string memory _id,\n        string memory _name,\n        string memory _email,\n        string memory _phone,\n        string memory _class,\n        string memory _major,\n        string memory _cpa,\n        bool _qualifiedForGraduation\n    ) public onlyAADepartmentUser {\n        require(keccak256(abi.encodePacked(idToStudent[_id].id)) != keccak256(abi.encodePacked(_id)), string(abi.encodePacked(\"Student \", _id, \" already exists\")));\n        student memory studentTemp =\n            student(\n                _id,\n                _name,\n                _email,\n                _phone,\n                _class,\n                _major,\n                _cpa,\n                _qualifiedForGraduation,\n                false,\n                uint256(\n                    keccak256(\n                        abi.encodePacked(_id, block.timestamp, block.difficulty)\n                    )\n                )\n            );\n        studentList.push(studentTemp);\n        idToStudent[_id] = studentTemp;\n        studentIdToIndex[_id] = studentList.length-1;\n    }\n    \n    function importStudent(student[] memory students) public onlyAADepartmentUser {\n        for(uint i = 0; i < students.length; i++) {\n            createStudent(students[i].id, students[i].name, students[i].email, students[i].phone, students[i].class, students[i].major, students[i].cpa, students[i].qualifiedForGraduation);\n        }\n    }\n\n    function activeStudent(string memory _id, uint256 _nonce)\n        public\n        onlyNoRole(msg.sender)\n    {\n        require(_nonce == idToStudent[_id].nonce);\n        studentDetails[msg.sender] = idToStudent[_id];\n        idToStudent[_id].isActive = true;\n        studentList[studentIdToIndex[_id]].isActive = true;\n        userRole[msg.sender] = roleList[2];\n\n        studentDetails[msg.sender] = idToStudent[_id];\n    }\n\n    function getAllStudent()\n        public\n        view\n        onlyRectorOrAAD\n        returns (student[] memory)\n    {\n        return studentList;\n    }\n\n    function getStudentById(string memory _id)\n        public\n        view\n        returns (student memory)\n    {\n        student memory studentTemp = idToStudent[_id];\n        studentTemp.nonce = 0;\n        return studentTemp;\n    }\n\n    function getStudentByAddr(address _studentAddr)\n        public\n        view\n        returns (student memory)\n    {\n        student memory studentTemp = studentDetails[_studentAddr];\n        studentTemp.nonce = 0;\n        return studentTemp;\n    }\n\n    function getStudentNonce(string memory _id)\n        public\n        view\n        onlyRectorOrAAD\n        returns (uint256)\n    {\n        return idToStudent[_id].nonce;\n    }\n\n    function updateStudentbyAAD(\n        address _address,\n        string memory _id,\n        string memory _name,\n        string memory _email,\n        string memory _phone,\n        string memory _class,\n        string memory _major,\n        string memory _cpa,\n        bool _qualifiedForGraduation\n    ) public onlyRectorOrAAD {\n        student storage temp = studentDetails[_address];\n        temp.id = _id;\n        temp.name = _name;\n        temp.email = _email;\n        temp.phone = _phone;\n        temp.class = _class;\n        temp.major = _major;\n        temp.cpa = _cpa;\n        temp.qualifiedForGraduation = _qualifiedForGraduation;\n    }\n\n    function updateStudentInfo(string memory _email, string memory _phone)\n        public\n    {\n        require(studentDetails[msg.sender].isActive == true);\n        studentDetails[msg.sender].email = _email;\n        studentDetails[msg.sender].phone = _phone;\n    }\n\n    struct company {\n        string name;\n        string description;\n        string jobInfo;\n        bool isActive;\n    }\n\n    company[] companyList;\n    mapping(address => company) companyDetails;\n    mapping(uint => address) companyIdToAddr;\n\n    function createCompany(\n        string memory _name,\n        string memory _description,\n        string memory _jobInfo\n    ) public onlyNoRole(msg.sender) {\n        company memory companyTemp =\n            company(_name, _description, _jobInfo, false);\n\n        companyList.push(companyTemp);\n        companyIdToAddr[companyList.length-1] = msg.sender;\n        companyDetails[msg.sender] = companyTemp;\n        userRole[msg.sender] = roleList[3];\n    }\n\n    function approveCompany(uint _companyId) public onlyAADepartmentUser {\n        companyList[_companyId].isActive = true;\n        companyDetails[companyIdToAddr[_companyId]].isActive = true;\n    }\n\n    function updateCompany(\n        string memory _name,\n        string memory _description,\n        string memory _jobInfo\n    ) public {\n        companyDetails[msg.sender].name = _name;\n        companyDetails[msg.sender].description = _description;\n        companyDetails[msg.sender].jobInfo = _jobInfo;\n    }\n\n    function getCompany(address _companyAddr)\n        public\n        view\n        returns (company memory)\n    {\n        company memory companyTemp = companyDetails[_companyAddr];\n        return companyTemp;\n    }\n\n    function getAllCompany() public view returns (company[] memory) {\n        return companyList;\n    }\n}\n",
  "sourcePath": "/Users/hughdo/Desktop/Proj/CertVerificationSystem/contracts/User.sol",
  "compiler": {
    "name": "solc",
    "version": "0.8.3+commit.8d00100c.Emscripten.clang"
  },
  "schemaVersion": "3.3.4",
  "updatedAt": "2021-04-17T06:51:52.731Z",
  "networkType": "ethereum",
  "devdoc": {
    "kind": "dev",
    "methods": {},
    "version": 1
  },
  "userdoc": {
    "kind": "user",
    "methods": {},
    "version": 1
  }
}