{
  "contractName": "User",
  "abi": [
    {
      "inputs": [],
      "stateMutability": "nonpayable",
      "type": "constructor"
    },
    {
      "inputs": [],
      "name": "getCurrentUserRole",
      "outputs": [
        {
          "components": [
            {
              "internalType": "string",
              "name": "id",
              "type": "string"
            },
            {
              "internalType": "string",
              "name": "name",
              "type": "string"
            }
          ],
          "internalType": "struct User.role",
          "name": "",
          "type": "tuple"
        }
      ],
      "stateMutability": "view",
      "type": "function"
    },
    {
      "inputs": [
        {
          "internalType": "address",
          "name": "_addr",
          "type": "address"
        }
      ],
      "name": "getCurrentUserRoleByAddr",
      "outputs": [
        {
          "components": [
            {
              "internalType": "string",
              "name": "id",
              "type": "string"
            },
            {
              "internalType": "string",
              "name": "name",
              "type": "string"
            }
          ],
          "internalType": "struct User.role",
          "name": "",
          "type": "tuple"
        }
      ],
      "stateMutability": "view",
      "type": "function"
    },
    {
      "inputs": [],
      "name": "getCurrentUser",
      "outputs": [
        {
          "components": [
            {
              "internalType": "string",
              "name": "name",
              "type": "string"
            },
            {
              "internalType": "string",
              "name": "date",
              "type": "string"
            },
            {
              "internalType": "string",
              "name": "phone",
              "type": "string"
            },
            {
              "internalType": "string",
              "name": "term",
              "type": "string"
            }
          ],
          "internalType": "struct User.rector",
          "name": "",
          "type": "tuple"
        },
        {
          "components": [
            {
              "internalType": "string",
              "name": "name",
              "type": "string"
            },
            {
              "internalType": "string",
              "name": "date",
              "type": "string"
            },
            {
              "internalType": "string",
              "name": "phone",
              "type": "string"
            },
            {
              "internalType": "bool",
              "name": "isActive",
              "type": "bool"
            }
          ],
          "internalType": "struct User.AADUser",
          "name": "",
          "type": "tuple"
        },
        {
          "components": [
            {
              "internalType": "string",
              "name": "id",
              "type": "string"
            },
            {
              "internalType": "string",
              "name": "name",
              "type": "string"
            },
            {
              "internalType": "string",
              "name": "email",
              "type": "string"
            },
            {
              "internalType": "string",
              "name": "date",
              "type": "string"
            },
            {
              "internalType": "string",
              "name": "phone",
              "type": "string"
            },
            {
              "internalType": "string",
              "name": "class",
              "type": "string"
            },
            {
              "internalType": "string",
              "name": "major",
              "type": "string"
            },
            {
              "internalType": "string",
              "name": "cpa",
              "type": "string"
            },
            {
              "internalType": "bool",
              "name": "qualifiedForGraduation",
              "type": "bool"
            },
            {
              "internalType": "bool",
              "name": "isActive",
              "type": "bool"
            },
            {
              "internalType": "uint256",
              "name": "nonce",
              "type": "uint256"
            }
          ],
          "internalType": "struct User.student",
          "name": "",
          "type": "tuple"
        },
        {
          "components": [
            {
              "internalType": "string",
              "name": "name",
              "type": "string"
            },
            {
              "internalType": "string",
              "name": "description",
              "type": "string"
            },
            {
              "internalType": "string",
              "name": "jobInfo",
              "type": "string"
            },
            {
              "internalType": "bool",
              "name": "isActive",
              "type": "bool"
            }
          ],
          "internalType": "struct User.company",
          "name": "",
          "type": "tuple"
        }
      ],
      "stateMutability": "view",
      "type": "function"
    },
    {
      "inputs": [],
      "name": "getCurrentRector",
      "outputs": [
        {
          "components": [
            {
              "internalType": "string",
              "name": "name",
              "type": "string"
            },
            {
              "internalType": "string",
              "name": "date",
              "type": "string"
            },
            {
              "internalType": "string",
              "name": "phone",
              "type": "string"
            },
            {
              "internalType": "string",
              "name": "term",
              "type": "string"
            }
          ],
          "internalType": "struct User.rector",
          "name": "",
          "type": "tuple"
        }
      ],
      "stateMutability": "view",
      "type": "function"
    },
    {
      "inputs": [
        {
          "internalType": "address",
          "name": "_newRectorAddr",
          "type": "address"
        },
        {
          "internalType": "string",
          "name": "_name",
          "type": "string"
        },
        {
          "internalType": "string",
          "name": "_date",
          "type": "string"
        },
        {
          "internalType": "string",
          "name": "_phone",
          "type": "string"
        },
        {
          "internalType": "string",
          "name": "_term",
          "type": "string"
        }
      ],
      "name": "createNewRector",
      "outputs": [],
      "stateMutability": "nonpayable",
      "type": "function"
    },
    {
      "inputs": [
        {
          "internalType": "string",
          "name": "_name",
          "type": "string"
        },
        {
          "internalType": "string",
          "name": "_date",
          "type": "string"
        },
        {
          "internalType": "string",
          "name": "_phone",
          "type": "string"
        },
        {
          "internalType": "string",
          "name": "_term",
          "type": "string"
        }
      ],
      "name": "updateCurrentRector",
      "outputs": [],
      "stateMutability": "nonpayable",
      "type": "function"
    },
    {
      "inputs": [],
      "name": "getAADepartmentAcc",
      "outputs": [
        {
          "components": [
            {
              "internalType": "string",
              "name": "realAddress",
              "type": "string"
            },
            {
              "internalType": "string",
              "name": "description",
              "type": "string"
            }
          ],
          "internalType": "struct User.AADepartment",
          "name": "",
          "type": "tuple"
        }
      ],
      "stateMutability": "view",
      "type": "function"
    },
    {
      "inputs": [
        {
          "internalType": "address",
          "name": "_address",
          "type": "address"
        },
        {
          "internalType": "string",
          "name": "_name",
          "type": "string"
        },
        {
          "internalType": "string",
          "name": "_date",
          "type": "string"
        },
        {
          "internalType": "string",
          "name": "_phone",
          "type": "string"
        }
      ],
      "name": "createAADepartmentUser",
      "outputs": [],
      "stateMutability": "nonpayable",
      "type": "function"
    },
    {
      "inputs": [
        {
          "internalType": "string",
          "name": "_name",
          "type": "string"
        },
        {
          "internalType": "string",
          "name": "_date",
          "type": "string"
        },
        {
          "internalType": "string",
          "name": "_phone",
          "type": "string"
        }
      ],
      "name": "updateAADepartmentUser",
      "outputs": [],
      "stateMutability": "nonpayable",
      "type": "function"
    },
    {
      "inputs": [
        {
          "internalType": "uint256",
          "name": "_AADUserId",
          "type": "uint256"
        }
      ],
      "name": "deactiveAADepartmentUser",
      "outputs": [],
      "stateMutability": "nonpayable",
      "type": "function"
    },
    {
      "inputs": [
        {
          "internalType": "address",
          "name": "_userAddress",
          "type": "address"
        }
      ],
      "name": "getAADepartmentUser",
      "outputs": [
        {
          "components": [
            {
              "internalType": "string",
              "name": "name",
              "type": "string"
            },
            {
              "internalType": "string",
              "name": "date",
              "type": "string"
            },
            {
              "internalType": "string",
              "name": "phone",
              "type": "string"
            },
            {
              "internalType": "bool",
              "name": "isActive",
              "type": "bool"
            }
          ],
          "internalType": "struct User.AADUser",
          "name": "",
          "type": "tuple"
        }
      ],
      "stateMutability": "view",
      "type": "function"
    },
    {
      "inputs": [],
      "name": "getAllAADepartmentUsers",
      "outputs": [
        {
          "components": [
            {
              "internalType": "string",
              "name": "name",
              "type": "string"
            },
            {
              "internalType": "string",
              "name": "date",
              "type": "string"
            },
            {
              "internalType": "string",
              "name": "phone",
              "type": "string"
            },
            {
              "internalType": "bool",
              "name": "isActive",
              "type": "bool"
            }
          ],
          "internalType": "struct User.AADUser[]",
          "name": "",
          "type": "tuple[]"
        }
      ],
      "stateMutability": "view",
      "type": "function"
    },
    {
      "inputs": [
        {
          "internalType": "string",
          "name": "_id",
          "type": "string"
        },
        {
          "internalType": "string",
          "name": "_name",
          "type": "string"
        },
        {
          "internalType": "string",
          "name": "_email",
          "type": "string"
        },
        {
          "internalType": "string",
          "name": "_date",
          "type": "string"
        },
        {
          "internalType": "string",
          "name": "_phone",
          "type": "string"
        },
        {
          "internalType": "string",
          "name": "_class",
          "type": "string"
        },
        {
          "internalType": "string",
          "name": "_major",
          "type": "string"
        },
        {
          "internalType": "string",
          "name": "_cpa",
          "type": "string"
        },
        {
          "internalType": "bool",
          "name": "_qualifiedForGraduation",
          "type": "bool"
        }
      ],
      "name": "createStudent",
      "outputs": [],
      "stateMutability": "nonpayable",
      "type": "function"
    },
    {
      "inputs": [
        {
          "components": [
            {
              "internalType": "string",
              "name": "id",
              "type": "string"
            },
            {
              "internalType": "string",
              "name": "name",
              "type": "string"
            },
            {
              "internalType": "string",
              "name": "email",
              "type": "string"
            },
            {
              "internalType": "string",
              "name": "date",
              "type": "string"
            },
            {
              "internalType": "string",
              "name": "phone",
              "type": "string"
            },
            {
              "internalType": "string",
              "name": "class",
              "type": "string"
            },
            {
              "internalType": "string",
              "name": "major",
              "type": "string"
            },
            {
              "internalType": "string",
              "name": "cpa",
              "type": "string"
            },
            {
              "internalType": "bool",
              "name": "qualifiedForGraduation",
              "type": "bool"
            },
            {
              "internalType": "bool",
              "name": "isActive",
              "type": "bool"
            },
            {
              "internalType": "uint256",
              "name": "nonce",
              "type": "uint256"
            }
          ],
          "internalType": "struct User.student[]",
          "name": "students",
          "type": "tuple[]"
        }
      ],
      "name": "importStudent",
      "outputs": [],
      "stateMutability": "nonpayable",
      "type": "function"
    },
    {
      "inputs": [
        {
          "internalType": "string",
          "name": "_id",
          "type": "string"
        },
        {
          "internalType": "uint256",
          "name": "_nonce",
          "type": "uint256"
        }
      ],
      "name": "activeStudent",
      "outputs": [],
      "stateMutability": "nonpayable",
      "type": "function"
    },
    {
      "inputs": [],
      "name": "getAllStudent",
      "outputs": [
        {
          "components": [
            {
              "internalType": "string",
              "name": "id",
              "type": "string"
            },
            {
              "internalType": "string",
              "name": "name",
              "type": "string"
            },
            {
              "internalType": "string",
              "name": "email",
              "type": "string"
            },
            {
              "internalType": "string",
              "name": "date",
              "type": "string"
            },
            {
              "internalType": "string",
              "name": "phone",
              "type": "string"
            },
            {
              "internalType": "string",
              "name": "class",
              "type": "string"
            },
            {
              "internalType": "string",
              "name": "major",
              "type": "string"
            },
            {
              "internalType": "string",
              "name": "cpa",
              "type": "string"
            },
            {
              "internalType": "bool",
              "name": "qualifiedForGraduation",
              "type": "bool"
            },
            {
              "internalType": "bool",
              "name": "isActive",
              "type": "bool"
            },
            {
              "internalType": "uint256",
              "name": "nonce",
              "type": "uint256"
            }
          ],
          "internalType": "struct User.student[]",
          "name": "",
          "type": "tuple[]"
        }
      ],
      "stateMutability": "view",
      "type": "function"
    },
    {
      "inputs": [
        {
          "internalType": "string",
          "name": "_id",
          "type": "string"
        }
      ],
      "name": "getStudentById",
      "outputs": [
        {
          "components": [
            {
              "internalType": "string",
              "name": "id",
              "type": "string"
            },
            {
              "internalType": "string",
              "name": "name",
              "type": "string"
            },
            {
              "internalType": "string",
              "name": "email",
              "type": "string"
            },
            {
              "internalType": "string",
              "name": "date",
              "type": "string"
            },
            {
              "internalType": "string",
              "name": "phone",
              "type": "string"
            },
            {
              "internalType": "string",
              "name": "class",
              "type": "string"
            },
            {
              "internalType": "string",
              "name": "major",
              "type": "string"
            },
            {
              "internalType": "string",
              "name": "cpa",
              "type": "string"
            },
            {
              "internalType": "bool",
              "name": "qualifiedForGraduation",
              "type": "bool"
            },
            {
              "internalType": "bool",
              "name": "isActive",
              "type": "bool"
            },
            {
              "internalType": "uint256",
              "name": "nonce",
              "type": "uint256"
            }
          ],
          "internalType": "struct User.student",
          "name": "",
          "type": "tuple"
        }
      ],
      "stateMutability": "view",
      "type": "function"
    },
    {
      "inputs": [
        {
          "internalType": "address",
          "name": "_studentAddr",
          "type": "address"
        }
      ],
      "name": "getStudentByAddr",
      "outputs": [
        {
          "components": [
            {
              "internalType": "string",
              "name": "id",
              "type": "string"
            },
            {
              "internalType": "string",
              "name": "name",
              "type": "string"
            },
            {
              "internalType": "string",
              "name": "email",
              "type": "string"
            },
            {
              "internalType": "string",
              "name": "date",
              "type": "string"
            },
            {
              "internalType": "string",
              "name": "phone",
              "type": "string"
            },
            {
              "internalType": "string",
              "name": "class",
              "type": "string"
            },
            {
              "internalType": "string",
              "name": "major",
              "type": "string"
            },
            {
              "internalType": "string",
              "name": "cpa",
              "type": "string"
            },
            {
              "internalType": "bool",
              "name": "qualifiedForGraduation",
              "type": "bool"
            },
            {
              "internalType": "bool",
              "name": "isActive",
              "type": "bool"
            },
            {
              "internalType": "uint256",
              "name": "nonce",
              "type": "uint256"
            }
          ],
          "internalType": "struct User.student",
          "name": "",
          "type": "tuple"
        }
      ],
      "stateMutability": "view",
      "type": "function"
    },
    {
      "inputs": [
        {
          "internalType": "string",
          "name": "_id",
          "type": "string"
        }
      ],
      "name": "getStudentNonce",
      "outputs": [
        {
          "internalType": "uint256",
          "name": "",
          "type": "uint256"
        }
      ],
      "stateMutability": "view",
      "type": "function"
    },
    {
      "inputs": [
        {
          "internalType": "address",
          "name": "_address",
          "type": "address"
        },
        {
          "internalType": "string",
          "name": "_id",
          "type": "string"
        },
        {
          "internalType": "string",
          "name": "_name",
          "type": "string"
        },
        {
          "internalType": "string",
          "name": "_email",
          "type": "string"
        },
        {
          "internalType": "string",
          "name": "_date",
          "type": "string"
        },
        {
          "internalType": "string",
          "name": "_phone",
          "type": "string"
        },
        {
          "internalType": "string",
          "name": "_class",
          "type": "string"
        },
        {
          "internalType": "string",
          "name": "_major",
          "type": "string"
        },
        {
          "internalType": "string",
          "name": "_cpa",
          "type": "string"
        },
        {
          "internalType": "bool",
          "name": "_qualifiedForGraduation",
          "type": "bool"
        }
      ],
      "name": "updateStudentbyAAD",
      "outputs": [],
      "stateMutability": "nonpayable",
      "type": "function"
    },
    {
      "inputs": [
        {
          "internalType": "string",
          "name": "_email",
          "type": "string"
        },
        {
          "internalType": "string",
          "name": "_phone",
          "type": "string"
        }
      ],
      "name": "updateStudentInfo",
      "outputs": [],
      "stateMutability": "nonpayable",
      "type": "function"
    },
    {
      "inputs": [
        {
          "internalType": "string",
          "name": "_name",
          "type": "string"
        },
        {
          "internalType": "string",
          "name": "_description",
          "type": "string"
        },
        {
          "internalType": "string",
          "name": "_jobInfo",
          "type": "string"
        }
      ],
      "name": "createCompany",
      "outputs": [],
      "stateMutability": "nonpayable",
      "type": "function"
    },
    {
      "inputs": [
        {
          "internalType": "uint256",
          "name": "_companyId",
          "type": "uint256"
        }
      ],
      "name": "approveCompany",
      "outputs": [],
      "stateMutability": "nonpayable",
      "type": "function"
    },
    {
      "inputs": [
        {
          "internalType": "string",
          "name": "_name",
          "type": "string"
        },
        {
          "internalType": "string",
          "name": "_description",
          "type": "string"
        },
        {
          "internalType": "string",
          "name": "_jobInfo",
          "type": "string"
        }
      ],
      "name": "updateCompany",
      "outputs": [],
      "stateMutability": "nonpayable",
      "type": "function"
    },
    {
      "inputs": [
        {
          "internalType": "address",
          "name": "_companyAddr",
          "type": "address"
        }
      ],
      "name": "getCompany",
      "outputs": [
        {
          "components": [
            {
              "internalType": "string",
              "name": "name",
              "type": "string"
            },
            {
              "internalType": "string",
              "name": "description",
              "type": "string"
            },
            {
              "internalType": "string",
              "name": "jobInfo",
              "type": "string"
            },
            {
              "internalType": "bool",
              "name": "isActive",
              "type": "bool"
            }
          ],
          "internalType": "struct User.company",
          "name": "",
          "type": "tuple"
        }
      ],
      "stateMutability": "view",
      "type": "function"
    },
    {
      "inputs": [],
      "name": "getAllCompany",
      "outputs": [
        {
          "components": [
            {
              "internalType": "string",
              "name": "name",
              "type": "string"
            },
            {
              "internalType": "string",
              "name": "description",
              "type": "string"
            },
            {
              "internalType": "string",
              "name": "jobInfo",
              "type": "string"
            },
            {
              "internalType": "bool",
              "name": "isActive",
              "type": "bool"
            }
          ],
          "internalType": "struct User.company[]",
          "name": "",
          "type": "tuple[]"
        }
      ],
      "stateMutability": "view",
      "type": "function"
    }
  ],
  "bytecode": "0x60806040523480156200001157600080fd5b506200001c62000036565b620000266200022e565b62000030620003de565b620005a9565b604080516080810182526001818301908152600360fc1b60608301528152815180830190925260068252653932b1ba37b960d11b6020808401919091528082019290925280518051919260009262000092928492019062000442565b506020828101518051620000ad926001850192019062000442565b5050604080516080810182526001818301908152603160f81b606083015281528151808301909252600c82526b105051195c185c9d1b595b9d60a21b6020808401919091528082019290925280518051919350600292620001149284929091019062000442565b5060208281015180516200012f926001850192019062000442565b5050604080516080810182526001818301908152601960f91b60608301528152815180830190925260078252661cdd1d59195b9d60ca1b6020808401919091528082019290925280518051919350600492620001919284929091019062000442565b506020828101518051620001ac926001850192019062000442565b5050604080516080810182526001818301908152603360f81b6060830152815281518083019092526007825266636f6d70616e7960c81b60208084019190915280820192909252805180519193506006926200020e9284929091019062000442565b50602082810151805162000229926001850192019062000442565b505050565b6200025a6040518060800160405280606081526020016060815260200160608152602001606081525090565b604080518082018252601581527f504753205453204e677579656e205669657420486100000000000000000000006020808301919091529083528151808301835260048152630c4e4dcd60e21b818301528382015281518083018352600a80825269181c9c1c989a99191a9960b11b8284015284840191909152825180840184526009815268199c9bdb480c8c0c4d60ba1b818401526060850152336000908152908252919091208251805184936200031892849291019062000442565b50602082810151805162000333926001850192019062000442565b50604082015180516200035191600284019160209091019062000442565b50606082015180516200036f91600384019160209091019062000442565b50503360009081526008602052604081208154919250908190839062000395906200056c565b620003a2929190620004d1565b506001820181600101908054620003b9906200056c565b620003c6929190620004d1565b5050600980546001600160a01b031916331790555050565b60405180606001604052806024815260200162004c6b6024913980516200040e91600b9160209091019062000442565b5060405180608001604052806060815260200162004c8f6060913980516200043f91600c9160209091019062000442565b50565b82805462000450906200056c565b90600052602060002090601f016020900481019282620004745760008555620004bf565b82601f106200048f57805160ff1916838001178555620004bf565b82800160010185558215620004bf579182015b82811115620004bf578251825591602001919060010190620004a2565b50620004cd92915062000555565b5090565b828054620004df906200056c565b90600052602060002090601f016020900481019282620005035760008555620004bf565b82601f10620005165780548555620004bf565b82800160010185558215620004bf57600052602060002091601f016020900482015b82811115620004bf57825482559160010191906001019062000538565b5b80821115620004cd576000815560010162000556565b600181811c908216806200058157607f821691505b60208210811415620005a357634e487b7160e01b600052602260045260246000fd5b50919050565b6146b280620005b96000396000f3fe608060405234801561001057600080fd5b506004361061018e5760003560e01c80637d67d900116100de578063bba12bd811610097578063c805974711610071578063c80597471461036a578063ed7ad8261461037f578063eed879eb14610392578063fc4a7442146103a55761018e565b8063bba12bd814610331578063bd2456c714610344578063c23fd5a6146103575761018e565b80637d67d900146102a25780638cca2ec4146102c357806393b3298c146102d8578063ad69d7b0146102f8578063b174ba821461030b578063ba8805f41461031e5761018e565b806343ae37c31161014b5780635d319005116101255780635d3190051461025457806362bc56e61461026757806375957bc0146102875780637b60626d1461028f5761018e565b806343ae37c3146102165780634b0875e91461022e5780635c6f2e08146102415761018e565b80630d2393fd14610193578063106e3ea6146101b1578063133d0460146101c65780632644d28f146101db5780632764d61c146101ee578063388807cf1461020e575b600080fd5b61019b6103b8565b6040516101a89190614427565b60405180910390f35b6101c46101bf3660046138b6565b6105df565b005b6101ce610847565b6040516101a8919061447b565b6101c46101e9366004613ed1565b610d97565b6102016101fc366004613895565b6111b1565b6040516101a891906144f5565b610201611314565b61021e611469565b6040516101a8949392919061451b565b6101c461023c366004613e00565b611951565b6101c461024f366004613e00565b6119e9565b6101c4610262366004613b5e565b611a57565b61027a610275366004613895565b611c32565b6040516101a891906144e2565b610201611e4e565b6101c461029d366004613e00565b611e7f565b6102b56102b0366004613d64565b61209f565b6040519081526020016101a8565b6102cb612104565b6040516101a891906143c6565b6102eb6102e6366004613895565b612322565b6040516101a89190614573565b6101c461030636600461405c565b612815565b6101c4610319366004613e84565b6128bf565b6101c461032c366004614019565b612972565b6101c461033f366004613a04565b612dd2565b61027a610352366004613895565b612ef0565b6101c4610365366004613d9f565b61310c565b610372613188565b6040516101a89190614508565b6102eb61038d366004613d64565b613426565b6101c46103a036600461394b565b61346a565b6101c46103b336600461405c565b6135f9565b60606014805480602002602001604051908101604052809291908181526020016000905b828210156105d6578382906000526020600020906004020160405180608001604052908160008201805461040f906145fa565b80601f016020809104026020016040519081016040528092919081815260200182805461043b906145fa565b80156104885780601f1061045d57610100808354040283529160200191610488565b820191906000526020600020905b81548152906001019060200180831161046b57829003601f168201915b505050505081526020016001820180546104a1906145fa565b80601f01602080910402602001604051908101604052809291908181526020018280546104cd906145fa565b801561051a5780601f106104ef5761010080835404028352916020019161051a565b820191906000526020600020905b8154815290600101906020018083116104fd57829003601f168201915b50505050508152602001600282018054610533906145fa565b80601f016020809104026020016040519081016040528092919081815260200182805461055f906145fa565b80156105ac5780601f10610581576101008083540402835291602001916105ac565b820191906000526020600020905b81548152906001019060200180831161058f57829003601f168201915b50505091835250506003919091015460ff16151560209182015290825260019290920191016103dc565b50505050905090565b6009546001600160a01b031633148061060f5750336000908152600e602052604090206003015460ff1615156001145b61061857600080fd5b6040805160008082526020808301808552835190206001600160a01b03891683526008909152908390208793919261065092016142e2565b604051602081830303815290604052805190602001201461067057600080fd5b604080516080810182528581526020808201869052918101849052600160608201819052600d80549182018155600052815180519293849360049093027fd7b6990105719101dabeb77144f2a3385c8033acd3af97e9423a695e81ad1eb501926106dd9284920190613691565b5060208281015180516106f69260018501920190613691565b5060408201518051610712916002840191602090910190613691565b50606091909101516003909101805460ff1916911515919091179055600d548690600f90600090610745906001906145b7565b81526020808201929092526040908101600090812080546001600160a01b0319166001600160a01b039586161790559289168352600e8252909120825180518493610794928492910190613691565b5060208281015180516107ad9260018501920190613691565b50604082015180516107c9916002840191602090910190613691565b50606091909101516003909101805460ff19169115159190911790556001600160a01b03861660009081526008602052604090206002805490919081908390610811906145fa565b61081c929190613715565b506001820181600101908054610831906145fa565b61083c929190613715565b505050505050505050565b6009546060906001600160a01b031633148061087a5750336000908152600e602052604090206003015460ff1615156001145b61088357600080fd5b6010805480602002602001604051908101604052809291908181526020016000905b828210156105d657838290600052602060002090600a0201604051806101600160405290816000820180546108d9906145fa565b80601f0160208091040260200160405190810160405280929190818152602001828054610905906145fa565b80156109525780601f1061092757610100808354040283529160200191610952565b820191906000526020600020905b81548152906001019060200180831161093557829003601f168201915b5050505050815260200160018201805461096b906145fa565b80601f0160208091040260200160405190810160405280929190818152602001828054610997906145fa565b80156109e45780601f106109b9576101008083540402835291602001916109e4565b820191906000526020600020905b8154815290600101906020018083116109c757829003601f168201915b505050505081526020016002820180546109fd906145fa565b80601f0160208091040260200160405190810160405280929190818152602001828054610a29906145fa565b8015610a765780601f10610a4b57610100808354040283529160200191610a76565b820191906000526020600020905b815481529060010190602001808311610a5957829003601f168201915b50505050508152602001600382018054610a8f906145fa565b80601f0160208091040260200160405190810160405280929190818152602001828054610abb906145fa565b8015610b085780601f10610add57610100808354040283529160200191610b08565b820191906000526020600020905b815481529060010190602001808311610aeb57829003601f168201915b50505050508152602001600482018054610b21906145fa565b80601f0160208091040260200160405190810160405280929190818152602001828054610b4d906145fa565b8015610b9a5780601f10610b6f57610100808354040283529160200191610b9a565b820191906000526020600020905b815481529060010190602001808311610b7d57829003601f168201915b50505050508152602001600582018054610bb3906145fa565b80601f0160208091040260200160405190810160405280929190818152602001828054610bdf906145fa565b8015610c2c5780601f10610c0157610100808354040283529160200191610c2c565b820191906000526020600020905b815481529060010190602001808311610c0f57829003601f168201915b50505050508152602001600682018054610c45906145fa565b80601f0160208091040260200160405190810160405280929190818152602001828054610c71906145fa565b8015610cbe5780601f10610c9357610100808354040283529160200191610cbe565b820191906000526020600020905b815481529060010190602001808311610ca157829003601f168201915b50505050508152602001600782018054610cd7906145fa565b80601f0160208091040260200160405190810160405280929190818152602001828054610d03906145fa565b8015610d505780601f10610d2557610100808354040283529160200191610d50565b820191906000526020600020905b815481529060010190602001808311610d3357829003601f168201915b5050509183525050600882015460ff8082161515602080850191909152610100909204161515604083015260099092015460609091015290825260019290920191016108a5565b336000908152600e602052604090206003015460ff161515600114610dbb57600080fd5b88604051602001610dcc919061429f565b6040516020818303038152906040528051906020012060128a604051610df2919061429f565b90815260405160209181900382018120610e0e929091016142e2565b60405160208183030381529060405280519060200120141589604051602001610e37919061437d565b60405160208183030381529060405290610e6d5760405162461bcd60e51b8152600401610e6491906144cf565b60405180910390fd5b5060006040518061016001604052808b81526020018a815260200189815260200188815260200187815260200186815260200185815260200184815260200183151581526020016000151581526020018b4244604051602001610ed2939291906142bb565b60408051601f19818403018152919052805160209182012090915260108054600181018255600091909152825180519394508493600a9092027f1b6847dc741a1b0cd08d278845f9d819d87b734759afb55fe2de5cb82a9ae6720192610f3d92849290910190613691565b506020828101518051610f569260018501920190613691565b5060408201518051610f72916002840191602090910190613691565b5060608201518051610f8e916003840191602090910190613691565b5060808201518051610faa916004840191602090910190613691565b5060a08201518051610fc6916005840191602090910190613691565b5060c08201518051610fe2916006840191602090910190613691565b5060e08201518051610ffe916007840191602090910190613691565b506101008281015160088301805461012086015161ffff1990911692151561ff0019169290921791151590920217905561014090910151600990910155604051819060129061104e908d9061429f565b90815260200160405180910390206000820151816000019080519060200190611078929190613691565b5060208281015180516110919260018501920190613691565b50604082015180516110ad916002840191602090910190613691565b50606082015180516110c9916003840191602090910190613691565b50608082015180516110e5916004840191602090910190613691565b5060a08201518051611101916005840191602090910190613691565b5060c0820151805161111d916006840191602090910190613691565b5060e08201518051611139916007840191602090910190613691565b506101008281015160088301805461012086015161ffff1990911692151561ff0019169290921791151590920217905561014090910151600990910155601054611185906001906145b7565b60138b604051611195919061429f565b9081526040519081900360200190205550505050505050505050565b60408051808201909152606080825260208201526001600160a01b03821660009081526008602052604080822081518083019092528054829082906111f5906145fa565b80601f0160208091040260200160405190810160405280929190818152602001828054611221906145fa565b801561126e5780601f106112435761010080835404028352916020019161126e565b820191906000526020600020905b81548152906001019060200180831161125157829003601f168201915b50505050508152602001600182018054611287906145fa565b80601f01602080910402602001604051908101604052809291908181526020018280546112b3906145fa565b80156113005780601f106112d557610100808354040283529160200191611300565b820191906000526020600020905b8154815290600101906020018083116112e357829003601f168201915b50505091909252509193505050505b919050565b604080518082019091526060808252602082015233600090815260086020526040908190208151808301909252805482908290611350906145fa565b80601f016020809104026020016040519081016040528092919081815260200182805461137c906145fa565b80156113c95780601f1061139e576101008083540402835291602001916113c9565b820191906000526020600020905b8154815290600101906020018083116113ac57829003601f168201915b505050505081526020016001820180546113e2906145fa565b80601f016020809104026020016040519081016040528092919081815260200182805461140e906145fa565b801561145b5780601f106114305761010080835404028352916020019161145b565b820191906000526020600020905b81548152906001019060200180831161143e57829003601f168201915b505050505081525050905090565b6114946040518060800160405280606081526020016060815260200160608152602001606081525090565b6114c160405180608001604052806060815260200160608152602001606081526020016000151581525090565b6114c9613790565b6114f660405180608001604052806060815260200160608152602001606081526020016000151581525090565b604051600360fc1b602082015260210160408051601f198184030181528282528051602091820120336000908152600883529290922091926115399291016142e2565b6040516020818303038152906040528051906020012014156117e357336000818152600a602052604090209061156e90612ef0565b61157733612322565b61158033611c32565b8360405180608001604052908160008201805461159c906145fa565b80601f01602080910402602001604051908101604052809291908181526020018280546115c8906145fa565b80156116155780601f106115ea57610100808354040283529160200191611615565b820191906000526020600020905b8154815290600101906020018083116115f857829003601f168201915b5050505050815260200160018201805461162e906145fa565b80601f016020809104026020016040519081016040528092919081815260200182805461165a906145fa565b80156116a75780601f1061167c576101008083540402835291602001916116a7565b820191906000526020600020905b81548152906001019060200180831161168a57829003601f168201915b505050505081526020016002820180546116c0906145fa565b80601f01602080910402602001604051908101604052809291908181526020018280546116ec906145fa565b80156117395780601f1061170e57610100808354040283529160200191611739565b820191906000526020600020905b81548152906001019060200180831161171c57829003601f168201915b50505050508152602001600382018054611752906145fa565b80601f016020809104026020016040519081016040528092919081815260200182805461177e906145fa565b80156117cb5780601f106117a0576101008083540402835291602001916117cb565b820191906000526020600020905b8154815290600101906020018083116117ae57829003601f168201915b5050505050815250509350935093509350935061194b565b604051603160f81b602082015260210160408051601f198184030181528282528051602091820120336000908152600883529290922091926118269291016142e2565b60405160208183030381529060405280519060200120141561185b57336000818152600a602052604090209061156e90612ef0565b604051601960f91b602082015260210160408051601f1981840301815282825280516020918201203360009081526008835292909220919261189e9291016142e2565b6040516020818303038152906040528051906020012014156118d357336000818152600a602052604090209061156e90612ef0565b604051603360f81b602082015260210160408051601f198184030181528282528051602091820120336000908152600883529290922091926119169291016142e2565b60405160208183030381529060405280519060200120141561194b57336000818152600a602052604090209061156e90612ef0565b90919293565b336000908152600e602052604090206003015460ff16151560011461197557600080fd5b336000908152600e60209081526040909120845161199592860190613691565b50336000908152600e6020908152604090912083516119bc92600190920191850190613691565b50336000908152600e6020908152604090912082516119e392600290920191840190613691565b50505050565b3360009081526015602090815260409091208451611a0992860190613691565b503360009081526015602090815260409091208351611a3092600190920191850190613691565b5033600090815260156020908152604090912082516119e392600290920191840190613691565b336000908152600e602052604090206003015460ff161515600114611a7b57600080fd5b60005b8151811015611c2e57611c1c828281518110611aaa57634e487b7160e01b600052603260045260246000fd5b602002602001015160000151838381518110611ad657634e487b7160e01b600052603260045260246000fd5b602002602001015160200151848481518110611b0257634e487b7160e01b600052603260045260246000fd5b602002602001015160400151858581518110611b2e57634e487b7160e01b600052603260045260246000fd5b602002602001015160600151868681518110611b5a57634e487b7160e01b600052603260045260246000fd5b602002602001015160800151878781518110611b8657634e487b7160e01b600052603260045260246000fd5b602002602001015160a00151888881518110611bb257634e487b7160e01b600052603260045260246000fd5b602002602001015160c00151898981518110611bde57634e487b7160e01b600052603260045260246000fd5b602002602001015160e001518a8a81518110611c0a57634e487b7160e01b600052603260045260246000fd5b60200260200101516101000151610d97565b80611c2681614635565b915050611a7e565b5050565b611c5f60405180608001604052806060815260200160608152602001606081526020016000151581525090565b6001600160a01b038216600090815260156020526040808220815160808101909252805482908290611c90906145fa565b80601f0160208091040260200160405190810160405280929190818152602001828054611cbc906145fa565b8015611d095780601f10611cde57610100808354040283529160200191611d09565b820191906000526020600020905b815481529060010190602001808311611cec57829003601f168201915b50505050508152602001600182018054611d22906145fa565b80601f0160208091040260200160405190810160405280929190818152602001828054611d4e906145fa565b8015611d9b5780601f10611d7057610100808354040283529160200191611d9b565b820191906000526020600020905b815481529060010190602001808311611d7e57829003601f168201915b50505050508152602001600282018054611db4906145fa565b80601f0160208091040260200160405190810160405280929190818152602001828054611de0906145fa565b8015611e2d5780601f10611e0257610100808354040283529160200191611e2d565b820191906000526020600020905b815481529060010190602001808311611e1057829003601f168201915b50505091835250506003919091015460ff1615156020909101529392505050565b6040805180820190915260608082526020820152600b604051806040016040529081600082018054611350906145fa565b6040805160008082526020808301808552835190203380845260089092529184902090939192611eaf92016142e2565b6040516020818303038152906040528051906020012014611ecf57600080fd5b604080516080810182528581526020808201869052918101849052600060608201819052601480546001810182559152815180519293849360049093027fce6d7b5282bd9a3661ae061feed1dbda4e52ab073b1f9285be6e155d9c38d4ec0192611f3c9284920190613691565b506020828101518051611f559260018501920190613691565b5060408201518051611f71916002840191602090910190613691565b50606091909101516003909101805460ff19169115159190911790556014543390601690600090611fa4906001906145b7565b81526020808201929092526040908101600090812080546001600160a01b0319166001600160a01b03959095169490941790935533835260158252909120825180518493611ff6928492910190613691565b50602082810151805161200f9260018501920190613691565b506040820151805161202b916002840191602090910190613691565b50606091909101516003909101805460ff1916911515919091179055336000908152600860205260409020600680549091908190839061206a906145fa565b612075929190613715565b50600182018160010190805461208a906145fa565b612095929190613715565b5050505050505050565b6009546000906001600160a01b03163314806120d25750336000908152600e602052604090206003015460ff1615156001145b6120db57600080fd5b6012826040516120eb919061429f565b9081526020016040518091039020600901549050919050565b6060600d805480602002602001604051908101604052809291908181526020016000905b828210156105d6578382906000526020600020906004020160405180608001604052908160008201805461215b906145fa565b80601f0160208091040260200160405190810160405280929190818152602001828054612187906145fa565b80156121d45780601f106121a9576101008083540402835291602001916121d4565b820191906000526020600020905b8154815290600101906020018083116121b757829003601f168201915b505050505081526020016001820180546121ed906145fa565b80601f0160208091040260200160405190810160405280929190818152602001828054612219906145fa565b80156122665780601f1061223b57610100808354040283529160200191612266565b820191906000526020600020905b81548152906001019060200180831161224957829003601f168201915b5050505050815260200160028201805461227f906145fa565b80601f01602080910402602001604051908101604052809291908181526020018280546122ab906145fa565b80156122f85780601f106122cd576101008083540402835291602001916122f8565b820191906000526020600020905b8154815290600101906020018083116122db57829003601f168201915b50505091835250506003919091015460ff1615156020918201529082526001929092019101612128565b61232a613790565b6001600160a01b0382166000908152601160205260408082208151610160810190925280548290829061235c906145fa565b80601f0160208091040260200160405190810160405280929190818152602001828054612388906145fa565b80156123d55780601f106123aa576101008083540402835291602001916123d5565b820191906000526020600020905b8154815290600101906020018083116123b857829003601f168201915b505050505081526020016001820180546123ee906145fa565b80601f016020809104026020016040519081016040528092919081815260200182805461241a906145fa565b80156124675780601f1061243c57610100808354040283529160200191612467565b820191906000526020600020905b81548152906001019060200180831161244a57829003601f168201915b50505050508152602001600282018054612480906145fa565b80601f01602080910402602001604051908101604052809291908181526020018280546124ac906145fa565b80156124f95780601f106124ce576101008083540402835291602001916124f9565b820191906000526020600020905b8154815290600101906020018083116124dc57829003601f168201915b50505050508152602001600382018054612512906145fa565b80601f016020809104026020016040519081016040528092919081815260200182805461253e906145fa565b801561258b5780601f106125605761010080835404028352916020019161258b565b820191906000526020600020905b81548152906001019060200180831161256e57829003601f168201915b505050505081526020016004820180546125a4906145fa565b80601f01602080910402602001604051908101604052809291908181526020018280546125d0906145fa565b801561261d5780601f106125f25761010080835404028352916020019161261d565b820191906000526020600020905b81548152906001019060200180831161260057829003601f168201915b50505050508152602001600582018054612636906145fa565b80601f0160208091040260200160405190810160405280929190818152602001828054612662906145fa565b80156126af5780601f10612684576101008083540402835291602001916126af565b820191906000526020600020905b81548152906001019060200180831161269257829003601f168201915b505050505081526020016006820180546126c8906145fa565b80601f01602080910402602001604051908101604052809291908181526020018280546126f4906145fa565b80156127415780601f1061271657610100808354040283529160200191612741565b820191906000526020600020905b81548152906001019060200180831161272457829003601f168201915b5050505050815260200160078201805461275a906145fa565b80601f0160208091040260200160405190810160405280929190818152602001828054612786906145fa565b80156127d35780601f106127a8576101008083540402835291602001916127d3565b820191906000526020600020905b8154815290600101906020018083116127b657829003601f168201915b5050509183525050600882015460ff80821615156020840152610100909104161515604082015260099091015460609091015260006101408201529392505050565b6009546001600160a01b03163314806128455750336000908152600e602052604090206003015460ff1615156001145b61284e57600080fd5b6000600d828154811061287157634e487b7160e01b600052603260045260246000fd5b6000918252602080832060036004909302018201805494151560ff19958616179055938252600f84526040808320546001600160a01b03168352600e90945292902090910180549091169055565b6009546001600160a01b031633146128d657600080fd5b336000908152600a6020908152604090912085516128f692870190613691565b50336000908152600a60209081526040909120845161291d92600190920191860190613691565b50336000908152600a60209081526040909120835161294492600290920191850190613691565b50336000908152600a60209081526040909120825161296b92600390920191840190613691565b5050505050565b60408051600080825260208083018085528351902033808452600890925291849020909391926129a292016142e2565b60405160208183030381529060405280519060200120146129c257600080fd5b6012836040516129d2919061429f565b90815260200160405180910390206009015482146129ef57600080fd5b6012836040516129ff919061429f565b908152604080516020928190038301902033600090815260119093529120815481908390612a2c906145fa565b612a37929190613715565b506001820181600101908054612a4c906145fa565b612a57929190613715565b506002820181600201908054612a6c906145fa565b612a77929190613715565b506003820181600301908054612a8c906145fa565b612a97929190613715565b506004820181600401908054612aac906145fa565b612ab7929190613715565b506005820181600501908054612acc906145fa565b612ad7929190613715565b506006820181600601908054612aec906145fa565b612af7929190613715565b506007820181600701908054612b0c906145fa565b612b17929190613715565b5060088281018054918301805460ff938416151560ff19821681178355925461010090819004909416151590930261ff001990921661ffff1990931692909217179055600991820154910155604051600190601290612b7790869061429f565b908152602001604051809103902060080160016101000a81548160ff02191690831515021790555060016010601385604051612bb3919061429f565b90815260200160405180910390205481548110612be057634e487b7160e01b600052603260045260246000fd5b600091825260208083206008600a9390930201820180549415156101000261ff001990951694909417909355338252909152604090206004805490919081908390612c2a906145fa565b612c35929190613715565b506001820181600101908054612c4a906145fa565b612c55929190613715565b50905050601283604051612c69919061429f565b908152604080516020928190038301902033600090815260119093529120815481908390612c96906145fa565b612ca1929190613715565b506001820181600101908054612cb6906145fa565b612cc1929190613715565b506002820181600201908054612cd6906145fa565b612ce1929190613715565b506003820181600301908054612cf6906145fa565b612d01929190613715565b506004820181600401908054612d16906145fa565b612d21929190613715565b506005820181600501908054612d36906145fa565b612d41929190613715565b506006820181600601908054612d56906145fa565b612d61929190613715565b506007820181600701908054612d76906145fa565b612d81929190613715565b5060088281018054918301805460ff938416151560ff19821681178355925461010090819004909416151590930261ff001990921661ffff1990931692909217179055600991820154910155505050565b6009546001600160a01b0316331480612e025750336000908152600e602052604090206003015460ff1615156001145b612e0b57600080fd5b6001600160a01b038a1660009081526011602090815260409091208a519091612e389183918d0190613691565b508851612e4e90600183019060208c0190613691565b508751612e6490600283019060208b0190613691565b508651612e7a90600383019060208a0190613691565b508551612e909060048301906020890190613691565b508451612ea69060058301906020880190613691565b508351612ebc9060068301906020870190613691565b508251612ed29060078301906020860190613691565b50600801805460ff1916911515919091179055505050505050505050565b612f1d60405180608001604052806060815260200160608152602001606081526020016000151581525090565b6001600160a01b0382166000908152600e602052604090819020815160808101909252805482908290612f4f906145fa565b80601f0160208091040260200160405190810160405280929190818152602001828054612f7b906145fa565b8015612fc85780601f10612f9d57610100808354040283529160200191612fc8565b820191906000526020600020905b815481529060010190602001808311612fab57829003601f168201915b50505050508152602001600182018054612fe1906145fa565b80601f016020809104026020016040519081016040528092919081815260200182805461300d906145fa565b801561305a5780601f1061302f5761010080835404028352916020019161305a565b820191906000526020600020905b81548152906001019060200180831161303d57829003601f168201915b50505050508152602001600282018054613073906145fa565b80601f016020809104026020016040519081016040528092919081815260200182805461309f906145fa565b80156130ec5780601f106130c1576101008083540402835291602001916130ec565b820191906000526020600020905b8154815290600101906020018083116130cf57829003601f168201915b50505091835250506003919091015460ff16151560209091015292915050565b3360009081526011602052604090206008015460ff61010090910416151560011461313657600080fd5b336000908152601160209081526040909120835161315c92600290920191850190613691565b50336000908152601160209081526040909120825161318392600490920191840190613691565b505050565b6131b36040518060800160405280606081526020016060815260200160608152602001606081525090565b6009546001600160a01b03166000908152600a60205260408082208151608081019092528054829082906131e6906145fa565b80601f0160208091040260200160405190810160405280929190818152602001828054613212906145fa565b801561325f5780601f106132345761010080835404028352916020019161325f565b820191906000526020600020905b81548152906001019060200180831161324257829003601f168201915b50505050508152602001600182018054613278906145fa565b80601f01602080910402602001604051908101604052809291908181526020018280546132a4906145fa565b80156132f15780601f106132c6576101008083540402835291602001916132f1565b820191906000526020600020905b8154815290600101906020018083116132d457829003601f168201915b5050505050815260200160028201805461330a906145fa565b80601f0160208091040260200160405190810160405280929190818152602001828054613336906145fa565b80156133835780601f1061335857610100808354040283529160200191613383565b820191906000526020600020905b81548152906001019060200180831161336657829003601f168201915b5050505050815260200160038201805461339c906145fa565b80601f01602080910402602001604051908101604052809291908181526020018280546133c8906145fa565b80156134155780601f106133ea57610100808354040283529160200191613415565b820191906000526020600020905b8154815290600101906020018083116133f857829003601f168201915b505050919092525091935050505090565b61342e613790565b6000601283604051613440919061429f565b90815260200160405180910390206040518061016001604052908160008201805461235c906145fa565b6009546001600160a01b0316331461348157600080fd5b6040805160008082526020808301808552835190206001600160a01b038a168352600890915290839020889391926134b992016142e2565b60405160208183030381529060405280519060200120146134d957600080fd5b604080516080810182528681526020808201879052818301869052606082018590526001600160a01b0389166000908152600a82529290922081518051929384936135279284920190613691565b5060208281015180516135409260018501920190613691565b506040820151805161355c916002840191602090910190613691565b5060608201518051613578916003840191602090910190613691565b5050506001600160a01b03871660009081526008602052604081208154819083906135a2906145fa565b6135ad929190613715565b5060018201816001019080546135c2906145fa565b6135cd929190613715565b5050600980546001600160a01b0319166001600160a01b03999099169890981790975550505050505050565b336000908152600e602052604090206003015460ff16151560011461361d57600080fd5b60016014828154811061364057634e487b7160e01b600052603260045260246000fd5b6000918252602080832060036004909302018201805494151560ff19958616179055938252601684526040808320546001600160a01b03168352601590945292902090910180549091166001179055565b82805461369d906145fa565b90600052602060002090601f0160209004810192826136bf5760008555613705565b82601f106136d857805160ff1916838001178555613705565b82800160010185558215613705579182015b828111156137055782518255916020019190600101906136ea565b506137119291506137ee565b5090565b828054613721906145fa565b90600052602060002090601f0160209004810192826137435760008555613705565b82601f106137545780548555613705565b8280016001018555821561370557600052602060002091601f016020900482015b82811115613705578254825591600101919060010190613775565b6040518061016001604052806060815260200160608152602001606081526020016060815260200160608152602001606081526020016060815260200160608152602001600015158152602001600015158152602001600081525090565b5b8082111561371157600081556001016137ef565b80356001600160a01b038116811461130f57600080fd5b8035801515811461130f57600080fd5b600082601f83011261383a578081fd5b813567ffffffffffffffff81111561385457613854614666565b613867601f8201601f1916602001614586565b81815284602083860101111561387b578283fd5b816020850160208301379081016020019190915292915050565b6000602082840312156138a6578081fd5b6138af82613803565b9392505050565b600080600080608085870312156138cb578283fd5b6138d485613803565b9350602085013567ffffffffffffffff808211156138f0578485fd5b6138fc8883890161382a565b94506040870135915080821115613911578384fd5b61391d8883890161382a565b93506060870135915080821115613932578283fd5b5061393f8782880161382a565b91505092959194509250565b600080600080600060a08688031215613962578081fd5b61396b86613803565b9450602086013567ffffffffffffffff80821115613987578283fd5b61399389838a0161382a565b955060408801359150808211156139a8578283fd5b6139b489838a0161382a565b945060608801359150808211156139c9578283fd5b6139d589838a0161382a565b935060808801359150808211156139ea578283fd5b506139f78882890161382a565b9150509295509295909350565b6000806000806000806000806000806101408b8d031215613a23578485fd5b613a2c8b613803565b995060208b013567ffffffffffffffff80821115613a48578687fd5b613a548e838f0161382a565b9a5060408d0135915080821115613a69578687fd5b613a758e838f0161382a565b995060608d0135915080821115613a8a578687fd5b613a968e838f0161382a565b985060808d0135915080821115613aab578687fd5b613ab78e838f0161382a565b975060a08d0135915080821115613acc578687fd5b613ad88e838f0161382a565b965060c08d0135915080821115613aed578586fd5b613af98e838f0161382a565b955060e08d0135915080821115613b0e578485fd5b613b1a8e838f0161382a565b94506101008d0135915080821115613b30578384fd5b50613b3d8d828e0161382a565b925050613b4d6101208c0161381a565b90509295989b9194979a5092959850565b60006020808385031215613b70578182fd5b823567ffffffffffffffff80821115613b87578384fd5b818501915085601f830112613b9a578384fd5b813581811115613bac57613bac614666565b613bba848260051b01614586565b81815284810190848601875b84811015613d55578135870161016080601f19838f03011215613be7578a8bfd5b613bf081614586565b8a83013589811115613c00578c8dfd5b613c0e8f8d8387010161382a565b825250604083013589811115613c22578c8dfd5b613c308f8d8387010161382a565b8c83015250606083013589811115613c46578c8dfd5b613c548f8d8387010161382a565b604083015250608083013589811115613c6b578c8dfd5b613c798f8d8387010161382a565b60608301525060a083013589811115613c90578c8dfd5b613c9e8f8d8387010161382a565b60808301525060c083013589811115613cb5578c8dfd5b613cc38f8d8387010161382a565b60a08301525060e083013589811115613cda578c8dfd5b613ce88f8d8387010161382a565b60c08301525061010083013589811115613d00578c8dfd5b613d0e8f8d8387010161382a565b60e083015250613d21610120840161381a565b610100820152613d34610140840161381a565b61012082015291013561014082015284529287019290870190600101613bc6565b50909998505050505050505050565b600060208284031215613d75578081fd5b813567ffffffffffffffff811115613d8b578182fd5b613d978482850161382a565b949350505050565b60008060408385031215613db1578182fd5b823567ffffffffffffffff80821115613dc8578384fd5b613dd48683870161382a565b93506020850135915080821115613de9578283fd5b50613df68582860161382a565b9150509250929050565b600080600060608486031215613e14578283fd5b833567ffffffffffffffff80821115613e2b578485fd5b613e378783880161382a565b94506020860135915080821115613e4c578384fd5b613e588783880161382a565b93506040860135915080821115613e6d578283fd5b50613e7a8682870161382a565b9150509250925092565b60008060008060808587031215613e99578384fd5b843567ffffffffffffffff80821115613eb0578586fd5b613ebc8883890161382a565b955060208701359150808211156138f0578485fd5b60008060008060008060008060006101208a8c031215613eef578283fd5b893567ffffffffffffffff80821115613f06578485fd5b613f128d838e0161382a565b9a5060208c0135915080821115613f27578485fd5b613f338d838e0161382a565b995060408c0135915080821115613f48578485fd5b613f548d838e0161382a565b985060608c0135915080821115613f69578485fd5b613f758d838e0161382a565b975060808c0135915080821115613f8a578485fd5b613f968d838e0161382a565b965060a08c0135915080821115613fab578485fd5b613fb78d838e0161382a565b955060c08c0135915080821115613fcc578485fd5b613fd88d838e0161382a565b945060e08c0135915080821115613fed578384fd5b50613ffa8c828d0161382a565b92505061400a6101008b0161381a565b90509295985092959850929598565b6000806040838503121561402b578182fd5b823567ffffffffffffffff811115614041578283fd5b61404d8582860161382a565b95602094909401359450505050565b60006020828403121561406d578081fd5b5035919050565b6000815180845261408c8160208601602086016145ce565b601f01601f19169290920160200192915050565b60008151608084526140b56080850182614074565b9050602083015184820360208601526140ce8282614074565b915050604083015184820360408601526140e88282614074565b9150506060830151151560608501528091505092915050565b60008151604084526141166040850182614074565b90506020830151848203602086015261412f8282614074565b95945050505050565b600081516080845261414d6080850182614074565b9050602083015184820360208601526141668282614074565b915050604083015184820360408601526141808282614074565b9150506060830151848203606086015261412f8282614074565b600061016082518185526141b082860182614074565b915050602083015184820360208601526141ca8282614074565b915050604083015184820360408601526141e48282614074565b915050606083015184820360608601526141fe8282614074565b915050608083015184820360808601526142188282614074565b91505060a083015184820360a08601526142328282614074565b91505060c083015184820360c086015261424c8282614074565b91505060e083015184820360e08601526142668282614074565b9150506101008084015161427d8287018215159052565b5050610120838101511515908501526101409283015192909301919091525090565b600082516142b18184602087016145ce565b9190910192915050565b600084516142cd8184602089016145ce565b91909101928352506020820152604001919050565b600080835482600182811c9150808316806142fe57607f831692505b602080841082141561431e57634e487b7160e01b87526022600452602487fd5b81801561433257600181146143435761436f565b60ff1986168952848901965061436f565b60008a815260209020885b868110156143675781548b82015290850190830161434e565b505084890196505b509498975050505050505050565b600067029ba3ab232b73a160c51b825282516143a08160088501602087016145ce565b6e20616c72656164792065786973747360881b6008939091019283015250601701919050565b6000602080830181845280855180835260408601915060408160051b8701019250838701855b8281101561441a57603f198886030184526144088583516140a0565b945092850192908501906001016143ec565b5092979650505050505050565b6000602080830181845280855180835260408601915060408160051b8701019250838701855b8281101561441a57603f198886030184526144698583516140a0565b9450928501929085019060010161444d565b6000602080830181845280855180835260408601915060408160051b8701019250838701855b8281101561441a57603f198886030184526144bd85835161419a565b945092850192908501906001016144a1565b6000602082526138af6020830184614074565b6000602082526138af60208301846140a0565b6000602082526138af6020830184614101565b6000602082526138af6020830184614138565b60006080825261452e6080830187614138565b828103602084015261454081876140a0565b90508281036040840152614554818661419a565b9050828103606084015261456881856140a0565b979650505050505050565b6000602082526138af602083018461419a565b604051601f8201601f1916810167ffffffffffffffff811182821017156145af576145af614666565b604052919050565b6000828210156145c9576145c9614650565b500390565b60005b838110156145e95781810151838201526020016145d1565b838111156119e35750506000910152565b600181811c9082168061460e57607f821691505b6020821081141561462f57634e487b7160e01b600052602260045260246000fd5b50919050565b600060001982141561464957614649614650565b5060010190565b634e487b7160e01b600052601160045260246000fd5b634e487b7160e01b600052604160045260246000fdfea26469706673582212203a09eb4958312e2f38925644e886f5d7204c1bbd75c8c436909f962735caec5664736f6c63430008030033453320313434205875616e2054687579202d204361752047696179202d204861204e6f69207468616d206d7575206769757020766965632048696575207472756f6e672074687563206869656e20636f6e6720746163207665207861792064756e672c207175616e206c7920636163206368756f6e67207472696e682064616f2074616f",
  "immutableReferences": {},
  "source": "// SPDX-License-Identifier: MIT\npragma solidity >=0.7.0 <0.9.0;\n\ncontract User {\n    constructor() {\n        setRole();\n        setRector();\n        setAADepartmentAcc();\n    }\n\n    struct role {\n        string id;\n        string name;\n    }\n\n    role[4] roleList;\n    mapping(address => role) userRole;\n\n    function getCurrentUserRole() public view returns (role memory) {\n        return userRole[msg.sender];\n    }\n\n     function getCurrentUserRoleByAddr(address _addr) public view returns (role memory) {\n        role memory roleTemp = userRole[_addr];\n        return roleTemp;\n    }\n\n    function getCurrentUser()\n        public\n        view\n        returns (\n            rector memory,\n            AADUser memory,\n            student memory,\n            company memory\n        )\n    {\n        if (\n            keccak256(abi.encodePacked(userRole[msg.sender].id)) ==\n            keccak256(abi.encodePacked(\"0\"))\n        ) {\n            return (\n                rectorDetail[msg.sender],\n                getAADepartmentUser(msg.sender),\n                getStudentByAddr(msg.sender),\n                getCompany(msg.sender)\n            );\n        } else if (\n            keccak256(abi.encodePacked(userRole[msg.sender].id)) ==\n            keccak256(abi.encodePacked(\"1\"))\n        ) {\n            return (\n                rectorDetail[msg.sender],\n                getAADepartmentUser(msg.sender),\n                getStudentByAddr(msg.sender),\n                getCompany(msg.sender)\n            );\n        } else if (\n            keccak256(abi.encodePacked(userRole[msg.sender].id)) ==\n            keccak256(abi.encodePacked(\"2\"))\n        ) {\n            return (\n                rectorDetail[msg.sender],\n                getAADepartmentUser(msg.sender),\n                getStudentByAddr(msg.sender),\n                getCompany(msg.sender)\n            );\n        } else if (\n            keccak256(abi.encodePacked(userRole[msg.sender].id)) ==\n            keccak256(abi.encodePacked(\"3\"))\n        ) {\n            return (\n                rectorDetail[msg.sender],\n                getAADepartmentUser(msg.sender),\n                getStudentByAddr(msg.sender),\n                getCompany(msg.sender)\n            );\n        }\n    }\n\n    // modifier onlyUser(address _address) {\n    //     require(msg.sender == _address || msg.sender == currentRectorAddress);\n    //     _;\n    // }\n\n    modifier onlyNoRole(address _address) {\n        require(\n            keccak256(abi.encodePacked(userRole[_address].id)) ==\n                keccak256(abi.encodePacked(\"\"))\n        );\n        _;\n    }\n\n    function setRole() private {\n        roleList[0] = (role(\"0\", \"rector\"));\n        roleList[1] = (role(\"1\", \"AADepartment\"));\n        roleList[2] = (role(\"2\", \"student\"));\n        roleList[3] = (role(\"3\", \"company\"));\n    }\n\n    struct rector {\n        string name;\n        string date;\n        string phone;\n        string term;\n    }\n\n    address currentRectorAddress;\n\n    mapping(address => rector) rectorDetail;\n\n    modifier onlyCurrentRector() {\n        require(msg.sender == currentRectorAddress);\n        _;\n    }\n\n    function setRector() private {\n        rector memory rectorTemp;\n        rectorTemp.name = \"PGS TS Nguyen Viet Ha\";\n        rectorTemp.date = \"1974\";\n        rectorTemp.phone = \"0989152252\";\n        rectorTemp.term = \"from 2014\";\n        rectorDetail[msg.sender] = rectorTemp;\n        userRole[msg.sender] = roleList[0];\n\n        currentRectorAddress = msg.sender;\n    }\n\n    function getCurrentRector() public view returns (rector memory) {\n        rector memory currentRector = rectorDetail[currentRectorAddress];\n        return currentRector;\n    }\n\n    function createNewRector(\n        address _newRectorAddr,\n        string memory _name,\n        string memory _date,\n        string memory _phone,\n        string memory _term\n    ) public onlyCurrentRector onlyNoRole(_newRectorAddr) {\n        rector memory newRector = rector(_name, _date, _phone, _term);\n\n        rectorDetail[_newRectorAddr] = newRector;\n        userRole[_newRectorAddr] = roleList[0];\n\n        currentRectorAddress = _newRectorAddr;\n    }\n\n    function updateCurrentRector(\n        string memory _name,\n        string memory _date,\n        string memory _phone,\n        string memory _term\n    ) public onlyCurrentRector {\n        rectorDetail[msg.sender].name = _name;\n        rectorDetail[msg.sender].date = _date;\n        rectorDetail[msg.sender].phone = _phone;\n        rectorDetail[msg.sender].term = _term;\n    }\n\n    // Academic Affairs Department\n    struct AADepartment {\n        string realAddress; // dia chi PDT\n        string description;\n    }\n\n    struct AADUser {\n        string name;\n        string date;\n        string phone;\n        bool isActive;\n    }\n\n    AADepartment AADepartmentAcc;\n\n    AADUser[] AADUserList;\n    mapping(address => AADUser) AADUsers;\n    mapping(uint => address) ADDUserIdToAddr;\n\n    modifier onlyAADepartmentUser() {\n        require(AADUsers[msg.sender].isActive == true);\n        _;\n    }\n\n    modifier onlyRectorOrAAD() {\n        require(\n            msg.sender == currentRectorAddress ||\n                AADUsers[msg.sender].isActive == true\n        );\n        _;\n    }\n\n    function setAADepartmentAcc() private {\n        AADepartmentAcc.realAddress = \"E3 144 Xuan Thuy - Cau Giay - Ha Noi\";\n        AADepartmentAcc\n            .description = \" tham muu giup viec Hieu truong thuc hien cong tac ve xay dung, quan ly cac chuong trinh dao tao\";\n    }\n\n    function getAADepartmentAcc() public view returns (AADepartment memory) {\n        return AADepartmentAcc;\n    }\n\n    function createAADepartmentUser(\n        address _address,\n        string memory _name,\n        string memory _date,\n        string memory _phone\n    ) public onlyRectorOrAAD onlyNoRole(_address) {\n        AADUser memory temp = AADUser(_name, _date, _phone, true);\n        AADUserList.push(temp);\n        ADDUserIdToAddr[AADUserList.length-1] = _address;\n        AADUsers[_address] = temp;\n\n        userRole[_address] = roleList[1];\n    }\n\n    function updateAADepartmentUser(\n        string memory _name,\n        string memory _date,\n        string memory _phone\n    ) public {\n        require(AADUsers[msg.sender].isActive == true);\n        AADUsers[msg.sender].name = _name;\n        AADUsers[msg.sender].date = _date;\n        AADUsers[msg.sender].phone = _phone;\n    }\n\n    function deactiveAADepartmentUser(uint _AADUserId) public onlyRectorOrAAD {\n        AADUserList[_AADUserId].isActive = false;\n        AADUsers[ADDUserIdToAddr[_AADUserId]].isActive = false;\n    }\n\n    function getAADepartmentUser(address _userAddress)\n        public\n        view\n        returns (AADUser memory)\n    {\n        return AADUsers[_userAddress];\n    }\n\n    function getAllAADepartmentUsers() public view returns (AADUser[] memory) {\n        return AADUserList;\n    }\n\n    struct student {\n        string id;\n        string name;\n        string email;\n        string date;\n        string phone;\n        string class;\n        string major;\n        string cpa;\n        bool qualifiedForGraduation;\n        bool isActive;\n        uint256 nonce;\n    }\n\n    student[] studentList;\n    mapping(address => student) studentDetails;\n    mapping(string => student) idToStudent;\n\n    mapping(string => uint) studentIdToIndex;\n\n    modifier onlyStudent() {\n        require(studentDetails[msg.sender].isActive == true);\n        _;\n    }\n\n    function createStudent(\n        string memory _id,\n        string memory _name,\n        string memory _email,\n        string memory _date,\n        string memory _phone,\n        string memory _class,\n        string memory _major,\n        string memory _cpa,\n        bool _qualifiedForGraduation\n    ) public onlyAADepartmentUser {\n        require(keccak256(abi.encodePacked(idToStudent[_id].id)) != keccak256(abi.encodePacked(_id)), string(abi.encodePacked(\"Student \", _id, \" already exists\")));\n        student memory studentTemp =\n            student(\n                _id,\n                _name,\n                _email,\n                _date,\n                _phone,\n                _class,\n                _major,\n                _cpa,\n                _qualifiedForGraduation,\n                false,\n                uint256(\n                    keccak256(\n                        abi.encodePacked(_id, block.timestamp, block.difficulty)\n                    )\n                )\n            );\n        studentList.push(studentTemp);\n        idToStudent[_id] = studentTemp;\n        studentIdToIndex[_id] = studentList.length-1;\n    }\n\n    function importStudent(student[] memory students) public onlyAADepartmentUser {\n        for(uint i = 0; i < students.length; i++) {\n            createStudent(students[i].id, students[i].name, students[i].email, students[i].date, students[i].phone, students[i].class, students[i].major, students[i].cpa, students[i].qualifiedForGraduation);\n        }\n    }\n\n    function activeStudent(string memory _id, uint256 _nonce)\n        public\n        onlyNoRole(msg.sender)\n    {\n        require(_nonce == idToStudent[_id].nonce);\n        studentDetails[msg.sender] = idToStudent[_id];\n        idToStudent[_id].isActive = true;\n        studentList[studentIdToIndex[_id]].isActive = true;\n        userRole[msg.sender] = roleList[2];\n\n        studentDetails[msg.sender] = idToStudent[_id];\n    }\n\n    function getAllStudent()\n        public\n        view\n        onlyRectorOrAAD\n        returns (student[] memory)\n    {\n        return studentList;\n    }\n\n    function getStudentById(string memory _id)\n        public\n        view\n        returns (student memory)\n    {\n        student memory studentTemp = idToStudent[_id];\n        studentTemp.nonce = 0;\n        return studentTemp;\n    }\n\n    function getStudentByAddr(address _studentAddr)\n        public\n        view\n        returns (student memory)\n    {\n        student memory studentTemp = studentDetails[_studentAddr];\n        studentTemp.nonce = 0;\n        return studentTemp;\n    }\n\n    function getStudentNonce(string memory _id)\n        public\n        view\n        onlyRectorOrAAD\n        returns (uint256)\n    {\n        return idToStudent[_id].nonce;\n    }\n\n    function updateStudentbyAAD(\n        address _address,\n        string memory _id,\n        string memory _name,\n        string memory _email,\n        string memory _date,\n        string memory _phone,\n        string memory _class,\n        string memory _major,\n        string memory _cpa,\n        bool _qualifiedForGraduation\n    ) public onlyRectorOrAAD {\n        student storage temp = studentDetails[_address];\n        temp.id = _id;\n        temp.name = _name;\n        temp.email = _email;\n        temp.date = _date;\n        temp.phone = _phone;\n        temp.class = _class;\n        temp.major = _major;\n        temp.cpa = _cpa;\n        temp.qualifiedForGraduation = _qualifiedForGraduation;\n    }\n\n    function updateStudentInfo(string memory _email, string memory _phone)\n        public\n    {\n        require(studentDetails[msg.sender].isActive == true);\n        studentDetails[msg.sender].email = _email;\n        studentDetails[msg.sender].phone = _phone;\n    }\n\n    struct company {\n        string name;\n        string description;\n        string jobInfo;\n        bool isActive;\n    }\n\n    company[] companyList;\n    mapping(address => company) companyDetails;\n    mapping(uint => address) companyIdToAddr;\n\n    function createCompany(\n        string memory _name,\n        string memory _description,\n        string memory _jobInfo\n    ) public onlyNoRole(msg.sender) {\n        company memory companyTemp =\n            company(_name, _description, _jobInfo, false);\n\n        companyList.push(companyTemp);\n        companyIdToAddr[companyList.length-1] = msg.sender;\n        companyDetails[msg.sender] = companyTemp;\n        userRole[msg.sender] = roleList[3];\n    }\n\n    function approveCompany(uint _companyId) public onlyAADepartmentUser {\n        companyList[_companyId].isActive = true;\n        companyDetails[companyIdToAddr[_companyId]].isActive = true;\n    }\n\n    function updateCompany(\n        string memory _name,\n        string memory _description,\n        string memory _jobInfo\n    ) public {\n        companyDetails[msg.sender].name = _name;\n        companyDetails[msg.sender].description = _description;\n        companyDetails[msg.sender].jobInfo = _jobInfo;\n    }\n\n    function getCompany(address _companyAddr)\n        public\n        view\n        returns (company memory)\n    {\n        company memory companyTemp = companyDetails[_companyAddr];\n        return companyTemp;\n    }\n\n    function getAllCompany() public view returns (company[] memory) {\n        return companyList;\n    }\n}\n",
  "sourcePath": "/Users/hughdo/Desktop/Proj/CertVerificationSystem/contracts/User.sol",
  "compiler": {
    "name": "solc",
    "version": "0.8.3+commit.8d00100c.Emscripten.clang"
  },
  "schemaVersion": "3.3.4",
  "updatedAt": "2021-04-17T18:15:15.639Z",
  "devdoc": {
    "kind": "dev",
    "methods": {},
    "version": 1
  },
  "userdoc": {
    "kind": "user",
    "methods": {},
    "version": 1
  }
}