{
  "contractName": "User",
  "abi": [
    {
      "inputs": [],
      "stateMutability": "nonpayable",
      "type": "constructor"
    },
    {
      "inputs": [],
      "name": "currentRectorAddress",
      "outputs": [
        {
          "internalType": "address",
          "name": "",
          "type": "address"
        }
      ],
      "stateMutability": "view",
      "type": "function",
      "constant": true
    },
    {
      "inputs": [],
      "name": "getCurrentUserRole",
      "outputs": [
        {
          "components": [
            {
              "internalType": "string",
              "name": "id",
              "type": "string"
            },
            {
              "internalType": "string",
              "name": "name",
              "type": "string"
            }
          ],
          "internalType": "struct Model.role",
          "name": "",
          "type": "tuple"
        }
      ],
      "stateMutability": "view",
      "type": "function",
      "constant": true
    },
    {
      "inputs": [
        {
          "internalType": "address",
          "name": "_addr",
          "type": "address"
        }
      ],
      "name": "getCurrentUserRoleByAddr",
      "outputs": [
        {
          "components": [
            {
              "internalType": "string",
              "name": "id",
              "type": "string"
            },
            {
              "internalType": "string",
              "name": "name",
              "type": "string"
            }
          ],
          "internalType": "struct Model.role",
          "name": "",
          "type": "tuple"
        }
      ],
      "stateMutability": "view",
      "type": "function",
      "constant": true
    },
    {
      "inputs": [],
      "name": "getCurrentUser",
      "outputs": [
        {
          "components": [
            {
              "internalType": "string",
              "name": "name",
              "type": "string"
            },
            {
              "internalType": "string",
              "name": "date",
              "type": "string"
            },
            {
              "internalType": "string",
              "name": "phone",
              "type": "string"
            },
            {
              "internalType": "string",
              "name": "term",
              "type": "string"
            }
          ],
          "internalType": "struct Model.rector",
          "name": "",
          "type": "tuple"
        },
        {
          "components": [
            {
              "internalType": "string",
              "name": "name",
              "type": "string"
            },
            {
              "internalType": "string",
              "name": "date",
              "type": "string"
            },
            {
              "internalType": "string",
              "name": "phone",
              "type": "string"
            },
            {
              "internalType": "bool",
              "name": "isActive",
              "type": "bool"
            }
          ],
          "internalType": "struct Model.AADUser",
          "name": "",
          "type": "tuple"
        },
        {
          "components": [
            {
              "internalType": "string",
              "name": "id",
              "type": "string"
            },
            {
              "internalType": "string",
              "name": "name",
              "type": "string"
            },
            {
              "internalType": "string",
              "name": "email",
              "type": "string"
            },
            {
              "internalType": "string",
              "name": "date",
              "type": "string"
            },
            {
              "internalType": "string",
              "name": "phone",
              "type": "string"
            },
            {
              "internalType": "string",
              "name": "class",
              "type": "string"
            },
            {
              "internalType": "string",
              "name": "major",
              "type": "string"
            },
            {
              "internalType": "string",
              "name": "cpa",
              "type": "string"
            },
            {
              "internalType": "bool",
              "name": "qualifiedForGraduation",
              "type": "bool"
            },
            {
              "internalType": "bool",
              "name": "isActive",
              "type": "bool"
            },
            {
              "internalType": "uint256",
              "name": "nonce",
              "type": "uint256"
            }
          ],
          "internalType": "struct Model.student",
          "name": "",
          "type": "tuple"
        },
        {
          "components": [
            {
              "internalType": "string",
              "name": "name",
              "type": "string"
            },
            {
              "internalType": "string",
              "name": "description",
              "type": "string"
            },
            {
              "internalType": "string",
              "name": "jobInfo",
              "type": "string"
            },
            {
              "internalType": "bool",
              "name": "isActive",
              "type": "bool"
            }
          ],
          "internalType": "struct Model.company",
          "name": "",
          "type": "tuple"
        }
      ],
      "stateMutability": "view",
      "type": "function",
      "constant": true
    },
    {
      "inputs": [],
      "name": "getCurrentRector",
      "outputs": [
        {
          "components": [
            {
              "internalType": "string",
              "name": "name",
              "type": "string"
            },
            {
              "internalType": "string",
              "name": "date",
              "type": "string"
            },
            {
              "internalType": "string",
              "name": "phone",
              "type": "string"
            },
            {
              "internalType": "string",
              "name": "term",
              "type": "string"
            }
          ],
          "internalType": "struct Model.rector",
          "name": "",
          "type": "tuple"
        }
      ],
      "stateMutability": "view",
      "type": "function",
      "constant": true
    },
    {
      "inputs": [
        {
          "internalType": "address",
          "name": "_newRectorAddr",
          "type": "address"
        },
        {
          "internalType": "string",
          "name": "_name",
          "type": "string"
        },
        {
          "internalType": "string",
          "name": "_date",
          "type": "string"
        },
        {
          "internalType": "string",
          "name": "_phone",
          "type": "string"
        },
        {
          "internalType": "string",
          "name": "_term",
          "type": "string"
        }
      ],
      "name": "createNewRector",
      "outputs": [],
      "stateMutability": "nonpayable",
      "type": "function"
    },
    {
      "inputs": [
        {
          "internalType": "string",
          "name": "_name",
          "type": "string"
        },
        {
          "internalType": "string",
          "name": "_date",
          "type": "string"
        },
        {
          "internalType": "string",
          "name": "_phone",
          "type": "string"
        },
        {
          "internalType": "string",
          "name": "_term",
          "type": "string"
        }
      ],
      "name": "updateCurrentRector",
      "outputs": [],
      "stateMutability": "nonpayable",
      "type": "function"
    },
    {
      "inputs": [],
      "name": "getAADepartmentAcc",
      "outputs": [
        {
          "components": [
            {
              "internalType": "string",
              "name": "realAddress",
              "type": "string"
            },
            {
              "internalType": "string",
              "name": "description",
              "type": "string"
            }
          ],
          "internalType": "struct Model.AADepartment",
          "name": "",
          "type": "tuple"
        }
      ],
      "stateMutability": "view",
      "type": "function",
      "constant": true
    },
    {
      "inputs": [
        {
          "internalType": "address",
          "name": "_address",
          "type": "address"
        },
        {
          "internalType": "string",
          "name": "_name",
          "type": "string"
        },
        {
          "internalType": "string",
          "name": "_date",
          "type": "string"
        },
        {
          "internalType": "string",
          "name": "_phone",
          "type": "string"
        }
      ],
      "name": "createAADepartmentUser",
      "outputs": [],
      "stateMutability": "nonpayable",
      "type": "function"
    },
    {
      "inputs": [
        {
          "internalType": "string",
          "name": "_name",
          "type": "string"
        },
        {
          "internalType": "string",
          "name": "_date",
          "type": "string"
        },
        {
          "internalType": "string",
          "name": "_phone",
          "type": "string"
        }
      ],
      "name": "updateAADepartmentUser",
      "outputs": [],
      "stateMutability": "nonpayable",
      "type": "function"
    },
    {
      "inputs": [
        {
          "internalType": "uint256",
          "name": "_AADUserId",
          "type": "uint256"
        }
      ],
      "name": "deactiveAADepartmentUser",
      "outputs": [],
      "stateMutability": "nonpayable",
      "type": "function"
    },
    {
      "inputs": [
        {
          "internalType": "address",
          "name": "_userAddress",
          "type": "address"
        }
      ],
      "name": "getAADepartmentUser",
      "outputs": [
        {
          "components": [
            {
              "internalType": "string",
              "name": "name",
              "type": "string"
            },
            {
              "internalType": "string",
              "name": "date",
              "type": "string"
            },
            {
              "internalType": "string",
              "name": "phone",
              "type": "string"
            },
            {
              "internalType": "bool",
              "name": "isActive",
              "type": "bool"
            }
          ],
          "internalType": "struct Model.AADUser",
          "name": "",
          "type": "tuple"
        }
      ],
      "stateMutability": "view",
      "type": "function",
      "constant": true
    },
    {
      "inputs": [],
      "name": "getAllAADepartmentUsers",
      "outputs": [
        {
          "components": [
            {
              "internalType": "string",
              "name": "name",
              "type": "string"
            },
            {
              "internalType": "string",
              "name": "date",
              "type": "string"
            },
            {
              "internalType": "string",
              "name": "phone",
              "type": "string"
            },
            {
              "internalType": "bool",
              "name": "isActive",
              "type": "bool"
            }
          ],
          "internalType": "struct Model.AADUser[]",
          "name": "",
          "type": "tuple[]"
        }
      ],
      "stateMutability": "view",
      "type": "function",
      "constant": true
    },
    {
      "inputs": [
        {
          "internalType": "string",
          "name": "_id",
          "type": "string"
        },
        {
          "internalType": "string",
          "name": "_name",
          "type": "string"
        },
        {
          "internalType": "string",
          "name": "_email",
          "type": "string"
        },
        {
          "internalType": "string",
          "name": "_date",
          "type": "string"
        },
        {
          "internalType": "string",
          "name": "_phone",
          "type": "string"
        },
        {
          "internalType": "string",
          "name": "_class",
          "type": "string"
        },
        {
          "internalType": "string",
          "name": "_major",
          "type": "string"
        },
        {
          "internalType": "string",
          "name": "_cpa",
          "type": "string"
        },
        {
          "internalType": "bool",
          "name": "_qualifiedForGraduation",
          "type": "bool"
        }
      ],
      "name": "createStudent",
      "outputs": [],
      "stateMutability": "nonpayable",
      "type": "function"
    },
    {
      "inputs": [
        {
          "components": [
            {
              "internalType": "string",
              "name": "id",
              "type": "string"
            },
            {
              "internalType": "string",
              "name": "name",
              "type": "string"
            },
            {
              "internalType": "string",
              "name": "email",
              "type": "string"
            },
            {
              "internalType": "string",
              "name": "date",
              "type": "string"
            },
            {
              "internalType": "string",
              "name": "phone",
              "type": "string"
            },
            {
              "internalType": "string",
              "name": "class",
              "type": "string"
            },
            {
              "internalType": "string",
              "name": "major",
              "type": "string"
            },
            {
              "internalType": "string",
              "name": "cpa",
              "type": "string"
            },
            {
              "internalType": "bool",
              "name": "qualifiedForGraduation",
              "type": "bool"
            },
            {
              "internalType": "bool",
              "name": "isActive",
              "type": "bool"
            },
            {
              "internalType": "uint256",
              "name": "nonce",
              "type": "uint256"
            }
          ],
          "internalType": "struct Model.student[]",
          "name": "students",
          "type": "tuple[]"
        }
      ],
      "name": "importStudent",
      "outputs": [],
      "stateMutability": "nonpayable",
      "type": "function"
    },
    {
      "inputs": [
        {
          "internalType": "string",
          "name": "_id",
          "type": "string"
        },
        {
          "internalType": "uint256",
          "name": "_nonce",
          "type": "uint256"
        }
      ],
      "name": "activeStudent",
      "outputs": [],
      "stateMutability": "nonpayable",
      "type": "function"
    },
    {
      "inputs": [],
      "name": "getAllStudent",
      "outputs": [
        {
          "components": [
            {
              "internalType": "string",
              "name": "id",
              "type": "string"
            },
            {
              "internalType": "string",
              "name": "name",
              "type": "string"
            },
            {
              "internalType": "string",
              "name": "email",
              "type": "string"
            },
            {
              "internalType": "string",
              "name": "date",
              "type": "string"
            },
            {
              "internalType": "string",
              "name": "phone",
              "type": "string"
            },
            {
              "internalType": "string",
              "name": "class",
              "type": "string"
            },
            {
              "internalType": "string",
              "name": "major",
              "type": "string"
            },
            {
              "internalType": "string",
              "name": "cpa",
              "type": "string"
            },
            {
              "internalType": "bool",
              "name": "qualifiedForGraduation",
              "type": "bool"
            },
            {
              "internalType": "bool",
              "name": "isActive",
              "type": "bool"
            },
            {
              "internalType": "uint256",
              "name": "nonce",
              "type": "uint256"
            }
          ],
          "internalType": "struct Model.student[]",
          "name": "",
          "type": "tuple[]"
        }
      ],
      "stateMutability": "view",
      "type": "function",
      "constant": true
    },
    {
      "inputs": [
        {
          "internalType": "string",
          "name": "_id",
          "type": "string"
        }
      ],
      "name": "getStudentById",
      "outputs": [
        {
          "components": [
            {
              "internalType": "string",
              "name": "id",
              "type": "string"
            },
            {
              "internalType": "string",
              "name": "name",
              "type": "string"
            },
            {
              "internalType": "string",
              "name": "email",
              "type": "string"
            },
            {
              "internalType": "string",
              "name": "date",
              "type": "string"
            },
            {
              "internalType": "string",
              "name": "phone",
              "type": "string"
            },
            {
              "internalType": "string",
              "name": "class",
              "type": "string"
            },
            {
              "internalType": "string",
              "name": "major",
              "type": "string"
            },
            {
              "internalType": "string",
              "name": "cpa",
              "type": "string"
            },
            {
              "internalType": "bool",
              "name": "qualifiedForGraduation",
              "type": "bool"
            },
            {
              "internalType": "bool",
              "name": "isActive",
              "type": "bool"
            },
            {
              "internalType": "uint256",
              "name": "nonce",
              "type": "uint256"
            }
          ],
          "internalType": "struct Model.student",
          "name": "",
          "type": "tuple"
        }
      ],
      "stateMutability": "view",
      "type": "function",
      "constant": true
    },
    {
      "inputs": [
        {
          "internalType": "address",
          "name": "_studentAddr",
          "type": "address"
        }
      ],
      "name": "getStudentByAddr",
      "outputs": [
        {
          "components": [
            {
              "internalType": "string",
              "name": "id",
              "type": "string"
            },
            {
              "internalType": "string",
              "name": "name",
              "type": "string"
            },
            {
              "internalType": "string",
              "name": "email",
              "type": "string"
            },
            {
              "internalType": "string",
              "name": "date",
              "type": "string"
            },
            {
              "internalType": "string",
              "name": "phone",
              "type": "string"
            },
            {
              "internalType": "string",
              "name": "class",
              "type": "string"
            },
            {
              "internalType": "string",
              "name": "major",
              "type": "string"
            },
            {
              "internalType": "string",
              "name": "cpa",
              "type": "string"
            },
            {
              "internalType": "bool",
              "name": "qualifiedForGraduation",
              "type": "bool"
            },
            {
              "internalType": "bool",
              "name": "isActive",
              "type": "bool"
            },
            {
              "internalType": "uint256",
              "name": "nonce",
              "type": "uint256"
            }
          ],
          "internalType": "struct Model.student",
          "name": "",
          "type": "tuple"
        }
      ],
      "stateMutability": "view",
      "type": "function",
      "constant": true
    },
    {
      "inputs": [
        {
          "internalType": "string",
          "name": "_id",
          "type": "string"
        }
      ],
      "name": "getStudentNonce",
      "outputs": [
        {
          "internalType": "uint256",
          "name": "",
          "type": "uint256"
        }
      ],
      "stateMutability": "view",
      "type": "function",
      "constant": true
    },
    {
      "inputs": [
        {
          "internalType": "string",
          "name": "_currentId",
          "type": "string"
        },
        {
          "internalType": "string",
          "name": "_id",
          "type": "string"
        },
        {
          "internalType": "string",
          "name": "_name",
          "type": "string"
        },
        {
          "internalType": "string",
          "name": "_email",
          "type": "string"
        },
        {
          "internalType": "string",
          "name": "_date",
          "type": "string"
        },
        {
          "internalType": "string",
          "name": "_phone",
          "type": "string"
        },
        {
          "internalType": "string",
          "name": "_class",
          "type": "string"
        },
        {
          "internalType": "string",
          "name": "_major",
          "type": "string"
        },
        {
          "internalType": "string",
          "name": "_cpa",
          "type": "string"
        },
        {
          "internalType": "bool",
          "name": "_qualifiedForGraduation",
          "type": "bool"
        }
      ],
      "name": "updateStudentbyAAD",
      "outputs": [],
      "stateMutability": "nonpayable",
      "type": "function"
    },
    {
      "inputs": [
        {
          "internalType": "string",
          "name": "_email",
          "type": "string"
        },
        {
          "internalType": "string",
          "name": "_phone",
          "type": "string"
        }
      ],
      "name": "updateStudentInfo",
      "outputs": [],
      "stateMutability": "nonpayable",
      "type": "function"
    },
    {
      "inputs": [],
      "name": "getQualifiedStudents",
      "outputs": [
        {
          "components": [
            {
              "internalType": "string",
              "name": "id",
              "type": "string"
            },
            {
              "internalType": "string",
              "name": "name",
              "type": "string"
            },
            {
              "internalType": "string",
              "name": "email",
              "type": "string"
            },
            {
              "internalType": "string",
              "name": "date",
              "type": "string"
            },
            {
              "internalType": "string",
              "name": "phone",
              "type": "string"
            },
            {
              "internalType": "string",
              "name": "class",
              "type": "string"
            },
            {
              "internalType": "string",
              "name": "major",
              "type": "string"
            },
            {
              "internalType": "string",
              "name": "cpa",
              "type": "string"
            },
            {
              "internalType": "bool",
              "name": "qualifiedForGraduation",
              "type": "bool"
            },
            {
              "internalType": "bool",
              "name": "isActive",
              "type": "bool"
            },
            {
              "internalType": "uint256",
              "name": "nonce",
              "type": "uint256"
            }
          ],
          "internalType": "struct Model.student[]",
          "name": "",
          "type": "tuple[]"
        }
      ],
      "stateMutability": "view",
      "type": "function",
      "constant": true
    },
    {
      "inputs": [
        {
          "internalType": "string",
          "name": "_name",
          "type": "string"
        },
        {
          "internalType": "string",
          "name": "_description",
          "type": "string"
        }
      ],
      "name": "createCompany",
      "outputs": [],
      "stateMutability": "nonpayable",
      "type": "function"
    },
    {
      "inputs": [
        {
          "internalType": "uint256",
          "name": "_companyId",
          "type": "uint256"
        }
      ],
      "name": "approveCompany",
      "outputs": [],
      "stateMutability": "nonpayable",
      "type": "function"
    },
    {
      "inputs": [
        {
          "internalType": "string",
          "name": "_name",
          "type": "string"
        },
        {
          "internalType": "string",
          "name": "_description",
          "type": "string"
        },
        {
          "internalType": "string",
          "name": "_jobInfo",
          "type": "string"
        }
      ],
      "name": "updateCompany",
      "outputs": [],
      "stateMutability": "nonpayable",
      "type": "function"
    },
    {
      "inputs": [
        {
          "internalType": "address",
          "name": "_companyAddr",
          "type": "address"
        }
      ],
      "name": "getCompanyByAddress",
      "outputs": [
        {
          "components": [
            {
              "internalType": "string",
              "name": "name",
              "type": "string"
            },
            {
              "internalType": "string",
              "name": "description",
              "type": "string"
            },
            {
              "internalType": "string",
              "name": "jobInfo",
              "type": "string"
            },
            {
              "internalType": "bool",
              "name": "isActive",
              "type": "bool"
            }
          ],
          "internalType": "struct Model.company",
          "name": "",
          "type": "tuple"
        }
      ],
      "stateMutability": "view",
      "type": "function",
      "constant": true
    },
    {
      "inputs": [
        {
          "internalType": "uint256",
          "name": "_companyId",
          "type": "uint256"
        }
      ],
      "name": "getCompanybyId",
      "outputs": [
        {
          "components": [
            {
              "internalType": "string",
              "name": "name",
              "type": "string"
            },
            {
              "internalType": "string",
              "name": "description",
              "type": "string"
            },
            {
              "internalType": "string",
              "name": "jobInfo",
              "type": "string"
            },
            {
              "internalType": "bool",
              "name": "isActive",
              "type": "bool"
            }
          ],
          "internalType": "struct Model.company",
          "name": "",
          "type": "tuple"
        }
      ],
      "stateMutability": "view",
      "type": "function",
      "constant": true
    },
    {
      "inputs": [],
      "name": "getAllCompany",
      "outputs": [
        {
          "components": [
            {
              "internalType": "string",
              "name": "name",
              "type": "string"
            },
            {
              "internalType": "string",
              "name": "description",
              "type": "string"
            },
            {
              "internalType": "string",
              "name": "jobInfo",
              "type": "string"
            },
            {
              "internalType": "bool",
              "name": "isActive",
              "type": "bool"
            }
          ],
          "internalType": "struct Model.company[]",
          "name": "",
          "type": "tuple[]"
        }
      ],
      "stateMutability": "view",
      "type": "function",
      "constant": true
    }
  ],
  "bytecode": "0x60806040523480156200001157600080fd5b506200001c62000239565b6200002662000431565b62000030620005e1565b604080516101a08101825260016101608201818152600360fc1b610180840152825282516020818101855260008083528185019290925284518082018652828152848601528451808201865282815260608501528451808201865282815260808501528451808201865282815260a08501528451808201865282815260c0850152845180820190955281855260e084019490945261010083018190526101208301819052610140830181905260108054928301815590528151805192938493600a9093027f1b6847dc741a1b0cd08d278845f9d819d87b734759afb55fe2de5cb82a9ae672019262000126928492019062000645565b50602082810151805162000141926001850192019062000645565b50604082015180516200015f91600284019160209091019062000645565b50606082015180516200017d91600384019160209091019062000645565b50608082015180516200019b91600484019160209091019062000645565b5060a08201518051620001b991600584019160209091019062000645565b5060c08201518051620001d791600684019160209091019062000645565b5060e08201518051620001f591600784019160209091019062000645565b506101008281015160088301805461012086015161ffff1990911692151561ff001916929092179115159092021790556101409091015160099091015550620007ac565b604080516080810182526001818301908152600360fc1b60608301528152815180830190925260068252653932b1ba37b960d11b6020808401919091528082019290925280518051919260009262000295928492019062000645565b506020828101518051620002b0926001850192019062000645565b5050604080516080810182526001818301908152603160f81b606083015281528151808301909252600c82526b105051195c185c9d1b595b9d60a21b6020808401919091528082019290925280518051919350600292620003179284929091019062000645565b50602082810151805162000332926001850192019062000645565b5050604080516080810182526001818301908152601960f91b60608301528152815180830190925260078252661cdd1d59195b9d60ca1b6020808401919091528082019290925280518051919350600492620003949284929091019062000645565b506020828101518051620003af926001850192019062000645565b5050604080516080810182526001818301908152603360f81b6060830152815281518083019092526007825266636f6d70616e7960c81b6020808401919091528082019290925280518051919350600692620004119284929091019062000645565b5060208281015180516200042c926001850192019062000645565b505050565b6200045d6040518060800160405280606081526020016060815260200160608152602001606081525090565b604080518082018252601581527f504753205453204e677579656e205669657420486100000000000000000000006020808301919091529083528151808301835260048152630c4e4dcd60e21b818301528382015281518083018352600a80825269181c9c1c989a99191a9960b11b8284015284840191909152825180840184526009815268199c9bdb480c8c0c4d60ba1b818401526060850152336000908152908252919091208251805184936200051b92849291019062000645565b50602082810151805162000536926001850192019062000645565b50604082015180516200055491600284019160209091019062000645565b50606082015180516200057291600384019160209091019062000645565b50503360009081526008602052604081208154919250908190839062000598906200076f565b620005a5929190620006d4565b506001820181600101908054620005bc906200076f565b620005c9929190620006d4565b5050600980546001600160a01b031916331790555050565b604051806060016040528060248152602001620055596024913980516200061191600b9160209091019062000645565b506040518060800160405280606081526020016200557d6060913980516200064291600c9160209091019062000645565b50565b82805462000653906200076f565b90600052602060002090601f016020900481019282620006775760008555620006c2565b82601f106200069257805160ff1916838001178555620006c2565b82800160010185558215620006c2579182015b82811115620006c2578251825591602001919060010190620006a5565b50620006d092915062000758565b5090565b828054620006e2906200076f565b90600052602060002090601f016020900481019282620007065760008555620006c2565b82601f10620007195780548555620006c2565b82800160010185558215620006c257600052602060002091601f016020900482015b82811115620006c25782548255916001019190600101906200073b565b5b80821115620006d0576000815560010162000759565b600181811c908216806200078457607f821691505b60208210811415620007a657634e487b7160e01b600052602260045260246000fd5b50919050565b614d9d80620007bc6000396000f3fe608060405234801561001057600080fd5b50600436106101cf5760003560e01c806393b3298c11610104578063c23fd5a6116100a2578063eed879eb11610071578063eed879eb146103f3578063f117dd5b14610406578063f14513f214610419578063fc4a74421461042c576101cf565b8063c23fd5a6146103a5578063c8059747146103b8578063cb452a69146103cd578063ed7ad826146103e0576101cf565b8063b174ba82116100de578063b174ba8214610357578063b4363ca31461036a578063ba8805f414610372578063bd2456c714610385576101cf565b806393b3298c146102f95780639ea97d2e14610319578063ad69d7b014610344576101cf565b80634b0875e91161017157806375957bc01161014b57806375957bc0146102a85780637a6e97c2146102b05780637d67d900146102c35780638cca2ec4146102e4576101cf565b80634b0875e91461026f5780635c6f2e08146102825780635d31900514610295576101cf565b80632644d28f116101ad5780632644d28f1461021c5780632764d61c1461022f578063388807cf1461024f57806343ae37c314610257576101cf565b80630d2393fd146101d4578063106e3ea6146101f2578063133d046014610207575b600080fd5b6101dc61043f565b6040516101e99190614afc565b60405180910390f35b610205610200366004613f82565b610666565b005b61020f6108ce565b6040516101e99190614b50565b61020561022a36600461443c565b610e1e565b61024261023d366004613f61565b611191565b6040516101e99190614bca565b6102426112f4565b61025f611449565b6040516101e99493929190614bf0565b61020561027d36600461436d565b611931565b61020561029036600461436d565b6119c9565b6102056102a33660046140ce565b611a37565b610242611c12565b6102056102be366004614583565b611c43565b6102d66102d13660046142d3565b611fa4565b6040519081526020016101e9565b6102ec612038565b6040516101e99190614a9b565b61030c610307366004613f61565b612256565b6040516101e99190614c48565b60095461032c906001600160a01b031681565b6040516001600160a01b0390911681526020016101e9565b610205610352366004614731565b61277d565b6102056103653660046143f0565b612827565b61020f6128da565b6102056103803660046146ef565b612ed8565b610398610393366004613f61565b613074565b6040516101e99190614bb7565b6102056103b336600461430d565b613290565b6103c06133a2565b6040516101e99190614bdd565b6103986103db366004614731565b613640565b61030c6103ee3660046142d3565b613868565b610205610401366004614016565b6138b1565b610398610414366004613f61565b613a40565b61020561042736600461430d565b613a9e565b61020561043a366004614731565b613cc6565b60606014805480602002602001604051908101604052809291908181526020016000905b8282101561065d578382906000526020600020906004020160405180608001604052908160008201805461049690614ce5565b80601f01602080910402602001604051908101604052809291908181526020018280546104c290614ce5565b801561050f5780601f106104e45761010080835404028352916020019161050f565b820191906000526020600020905b8154815290600101906020018083116104f257829003601f168201915b5050505050815260200160018201805461052890614ce5565b80601f016020809104026020016040519081016040528092919081815260200182805461055490614ce5565b80156105a15780601f10610576576101008083540402835291602001916105a1565b820191906000526020600020905b81548152906001019060200180831161058457829003601f168201915b505050505081526020016002820180546105ba90614ce5565b80601f01602080910402602001604051908101604052809291908181526020018280546105e690614ce5565b80156106335780601f1061060857610100808354040283529160200191610633565b820191906000526020600020905b81548152906001019060200180831161061657829003601f168201915b50505091835250506003919091015460ff1615156020918201529082526001929092019101610463565b50505050905090565b6009546001600160a01b03163314806106965750336000908152600e602052604090206003015460ff1615156001145b61069f57600080fd5b6040805160008082526020808301808552835190206001600160a01b0389168352600890915290839020879391926106d792016149b7565b60405160208183030381529060405280519060200120146106f757600080fd5b604080516080810182528581526020808201869052918101849052600160608201819052600d80549182018155600052815180519293849360049093027fd7b6990105719101dabeb77144f2a3385c8033acd3af97e9423a695e81ad1eb501926107649284920190613d5e565b50602082810151805161077d9260018501920190613d5e565b5060408201518051610799916002840191602090910190613d5e565b50606091909101516003909101805460ff1916911515919091179055600d548690600f906000906107cc90600190614c8b565b81526020808201929092526040908101600090812080546001600160a01b0319166001600160a01b039586161790559289168352600e825290912082518051849361081b928492910190613d5e565b5060208281015180516108349260018501920190613d5e565b5060408201518051610850916002840191602090910190613d5e565b50606091909101516003909101805460ff19169115159190911790556001600160a01b0386166000908152600860205260409020600280549091908190839061089890614ce5565b6108a3929190613de2565b5060018201816001019080546108b890614ce5565b6108c3929190613de2565b505050505050505050565b6009546060906001600160a01b03163314806109015750336000908152600e602052604090206003015460ff1615156001145b61090a57600080fd5b6010805480602002602001604051908101604052809291908181526020016000905b8282101561065d57838290600052602060002090600a02016040518061016001604052908160008201805461096090614ce5565b80601f016020809104026020016040519081016040528092919081815260200182805461098c90614ce5565b80156109d95780601f106109ae576101008083540402835291602001916109d9565b820191906000526020600020905b8154815290600101906020018083116109bc57829003601f168201915b505050505081526020016001820180546109f290614ce5565b80601f0160208091040260200160405190810160405280929190818152602001828054610a1e90614ce5565b8015610a6b5780601f10610a4057610100808354040283529160200191610a6b565b820191906000526020600020905b815481529060010190602001808311610a4e57829003601f168201915b50505050508152602001600282018054610a8490614ce5565b80601f0160208091040260200160405190810160405280929190818152602001828054610ab090614ce5565b8015610afd5780601f10610ad257610100808354040283529160200191610afd565b820191906000526020600020905b815481529060010190602001808311610ae057829003601f168201915b50505050508152602001600382018054610b1690614ce5565b80601f0160208091040260200160405190810160405280929190818152602001828054610b4290614ce5565b8015610b8f5780601f10610b6457610100808354040283529160200191610b8f565b820191906000526020600020905b815481529060010190602001808311610b7257829003601f168201915b50505050508152602001600482018054610ba890614ce5565b80601f0160208091040260200160405190810160405280929190818152602001828054610bd490614ce5565b8015610c215780601f10610bf657610100808354040283529160200191610c21565b820191906000526020600020905b815481529060010190602001808311610c0457829003601f168201915b50505050508152602001600582018054610c3a90614ce5565b80601f0160208091040260200160405190810160405280929190818152602001828054610c6690614ce5565b8015610cb35780601f10610c8857610100808354040283529160200191610cb3565b820191906000526020600020905b815481529060010190602001808311610c9657829003601f168201915b50505050508152602001600682018054610ccc90614ce5565b80601f0160208091040260200160405190810160405280929190818152602001828054610cf890614ce5565b8015610d455780601f10610d1a57610100808354040283529160200191610d45565b820191906000526020600020905b815481529060010190602001808311610d2857829003601f168201915b50505050508152602001600782018054610d5e90614ce5565b80601f0160208091040260200160405190810160405280929190818152602001828054610d8a90614ce5565b8015610dd75780601f10610dac57610100808354040283529160200191610dd7565b820191906000526020600020905b815481529060010190602001808311610dba57829003601f168201915b5050509183525050600882015460ff80821615156020808501919091526101009092041615156040830152600990920154606090910152908252600192909201910161092c565b336000908152600e602052604090206003015460ff161515600114610e4257600080fd5b88604051602001610e539190614974565b60405160208183030381529060405280519060200120601060128b604051610e7b9190614974565b90815260200160405180910390205481548110610ea857634e487b7160e01b600052603260045260246000fd5b90600052602060002090600a0201600001604051602001610ec991906149b7565b60405160208183030381529060405280519060200120141589604051602001610ef29190614a52565b60405160208183030381529060405290610f285760405162461bcd60e51b8152600401610f1f9190614ba4565b60405180910390fd5b5060006040518061016001604052808b81526020018a815260200189815260200188815260200187815260200186815260200185815260200184815260200183151581526020016000151581526020018b4244604051602001610f8d93929190614990565b60408051601f19818403018152919052805160209182012090915260108054600181018255600091909152825180519394508493600a9092027f1b6847dc741a1b0cd08d278845f9d819d87b734759afb55fe2de5cb82a9ae6720192610ff892849290910190613d5e565b5060208281015180516110119260018501920190613d5e565b506040820151805161102d916002840191602090910190613d5e565b5060608201518051611049916003840191602090910190613d5e565b5060808201518051611065916004840191602090910190613d5e565b5060a08201518051611081916005840191602090910190613d5e565b5060c0820151805161109d916006840191602090910190613d5e565b5060e082015180516110b9916007840191602090910190613d5e565b506101008281015160088301805461012086015161ffff1990911692151561ff001916929092179115159092021790556101409091015160099091015560105461110590600190614c8b565b60128b6040516111159190614974565b908152604051908190036020019020556010805461113590600190614c8b565b8154811061115357634e487b7160e01b600052603260045260246000fd5b600091825260209091206008600a90920201015460ff1615611185576013805490600061117f83614d20565b91905055505b50505050505050505050565b60408051808201909152606080825260208201526001600160a01b03821660009081526008602052604080822081518083019092528054829082906111d590614ce5565b80601f016020809104026020016040519081016040528092919081815260200182805461120190614ce5565b801561124e5780601f106112235761010080835404028352916020019161124e565b820191906000526020600020905b81548152906001019060200180831161123157829003601f168201915b5050505050815260200160018201805461126790614ce5565b80601f016020809104026020016040519081016040528092919081815260200182805461129390614ce5565b80156112e05780601f106112b5576101008083540402835291602001916112e0565b820191906000526020600020905b8154815290600101906020018083116112c357829003601f168201915b50505091909252509193505050505b919050565b60408051808201909152606080825260208201523360009081526008602052604090819020815180830190925280548290829061133090614ce5565b80601f016020809104026020016040519081016040528092919081815260200182805461135c90614ce5565b80156113a95780601f1061137e576101008083540402835291602001916113a9565b820191906000526020600020905b81548152906001019060200180831161138c57829003601f168201915b505050505081526020016001820180546113c290614ce5565b80601f01602080910402602001604051908101604052809291908181526020018280546113ee90614ce5565b801561143b5780601f106114105761010080835404028352916020019161143b565b820191906000526020600020905b81548152906001019060200180831161141e57829003601f168201915b505050505081525050905090565b6114746040518060800160405280606081526020016060815260200160608152602001606081525090565b6114a160405180608001604052806060815260200160608152602001606081526020016000151581525090565b6114a9613e5d565b6114d660405180608001604052806060815260200160608152602001606081526020016000151581525090565b604051600360fc1b602082015260210160408051601f198184030181528282528051602091820120336000908152600883529290922091926115199291016149b7565b6040516020818303038152906040528051906020012014156117c357336000818152600a602052604090209061154e90613074565b61155733612256565b61156033613a40565b8360405180608001604052908160008201805461157c90614ce5565b80601f01602080910402602001604051908101604052809291908181526020018280546115a890614ce5565b80156115f55780601f106115ca576101008083540402835291602001916115f5565b820191906000526020600020905b8154815290600101906020018083116115d857829003601f168201915b5050505050815260200160018201805461160e90614ce5565b80601f016020809104026020016040519081016040528092919081815260200182805461163a90614ce5565b80156116875780601f1061165c57610100808354040283529160200191611687565b820191906000526020600020905b81548152906001019060200180831161166a57829003601f168201915b505050505081526020016002820180546116a090614ce5565b80601f01602080910402602001604051908101604052809291908181526020018280546116cc90614ce5565b80156117195780601f106116ee57610100808354040283529160200191611719565b820191906000526020600020905b8154815290600101906020018083116116fc57829003601f168201915b5050505050815260200160038201805461173290614ce5565b80601f016020809104026020016040519081016040528092919081815260200182805461175e90614ce5565b80156117ab5780601f10611780576101008083540402835291602001916117ab565b820191906000526020600020905b81548152906001019060200180831161178e57829003601f168201915b5050505050815250509350935093509350935061192b565b604051603160f81b602082015260210160408051601f198184030181528282528051602091820120336000908152600883529290922091926118069291016149b7565b60405160208183030381529060405280519060200120141561183b57336000818152600a602052604090209061154e90613074565b604051601960f91b602082015260210160408051601f1981840301815282825280516020918201203360009081526008835292909220919261187e9291016149b7565b6040516020818303038152906040528051906020012014156118b357336000818152600a602052604090209061154e90613074565b604051603360f81b602082015260210160408051601f198184030181528282528051602091820120336000908152600883529290922091926118f69291016149b7565b60405160208183030381529060405280519060200120141561192b57336000818152600a602052604090209061154e90613074565b90919293565b336000908152600e602052604090206003015460ff16151560011461195557600080fd5b336000908152600e60209081526040909120845161197592860190613d5e565b50336000908152600e60209081526040909120835161199c92600190920191850190613d5e565b50336000908152600e6020908152604090912082516119c392600290920191840190613d5e565b50505050565b33600090815260156020908152604090912084516119e992860190613d5e565b503360009081526015602090815260409091208351611a1092600190920191850190613d5e565b5033600090815260156020908152604090912082516119c392600290920191840190613d5e565b336000908152600e602052604090206003015460ff161515600114611a5b57600080fd5b60005b8151811015611c0e57611bfc828281518110611a8a57634e487b7160e01b600052603260045260246000fd5b602002602001015160000151838381518110611ab657634e487b7160e01b600052603260045260246000fd5b602002602001015160200151848481518110611ae257634e487b7160e01b600052603260045260246000fd5b602002602001015160400151858581518110611b0e57634e487b7160e01b600052603260045260246000fd5b602002602001015160600151868681518110611b3a57634e487b7160e01b600052603260045260246000fd5b602002602001015160800151878781518110611b6657634e487b7160e01b600052603260045260246000fd5b602002602001015160a00151888881518110611b9257634e487b7160e01b600052603260045260246000fd5b602002602001015160c00151898981518110611bbe57634e487b7160e01b600052603260045260246000fd5b602002602001015160e001518a8a81518110611bea57634e487b7160e01b600052603260045260246000fd5b60200260200101516101000151610e1e565b80611c0681614d20565b915050611a5e565b5050565b6040805180820190915260608082526020820152600b60405180604001604052908160008201805461133090614ce5565b6009546001600160a01b0316331480611c735750336000908152600e602052604090206003015460ff1615156001145b611c7c57600080fd5b6000601060128c604051611c909190614974565b90815260200160405180910390205481548110611cbd57634e487b7160e01b600052603260045260246000fd5b90600052602060002090600a0201905089604051602001611cde9190614974565b604051602081830303815290604052805190602001208b604051602001611d059190614974565b6040516020818303038152906040528051906020012014611e935789604051602001611d319190614974565b60405160208183030381529060405280519060200120601060128c604051611d599190614974565b90815260200160405180910390205481548110611d8657634e487b7160e01b600052603260045260246000fd5b90600052602060002090600a0201600001604051602001611da791906149b7565b6040516020818303038152906040528051906020012014158a604051602001611dd09190614a52565b60405160208183030381529060405290611dfd5760405162461bcd60e51b8152600401610f1f9190614ba4565b5060128b604051611e0e9190614974565b90815260200160405180910390205460128b604051611e2d9190614974565b90815260405190819003602001812091909155600360fc1b815260129060010190815260200160405180910390205460128c604051611e6c9190614974565b90815260405160209181900382019020919091558a51611e91918391908d0190613d5e565b505b8851611ea890600183019060208c0190613d5e565b508751611ebe90600283019060208b0190613d5e565b508651611ed490600383019060208a0190613d5e565b508551611eea9060048301906020890190613d5e565b508451611f009060058301906020880190613d5e565b508351611f169060068301906020870190613d5e565b508251611f2c9060078301906020860190613d5e565b50600881015460ff168015611f3f575081155b15611f5a5760138054906000611f5483614cce565b91905055505b600881015460ff16158015611f6c5750815b15611f875760138054906000611f8183614d20565b91905055505b600801805460ff1916911515919091179055505050505050505050565b6009546000906001600160a01b0316331480611fd75750336000908152600e602052604090206003015460ff1615156001145b611fe057600080fd5b6010601283604051611ff29190614974565b9081526020016040518091039020548154811061201f57634e487b7160e01b600052603260045260246000fd5b90600052602060002090600a0201600901549050919050565b6060600d805480602002602001604051908101604052809291908181526020016000905b8282101561065d578382906000526020600020906004020160405180608001604052908160008201805461208f90614ce5565b80601f01602080910402602001604051908101604052809291908181526020018280546120bb90614ce5565b80156121085780601f106120dd57610100808354040283529160200191612108565b820191906000526020600020905b8154815290600101906020018083116120eb57829003601f168201915b5050505050815260200160018201805461212190614ce5565b80601f016020809104026020016040519081016040528092919081815260200182805461214d90614ce5565b801561219a5780601f1061216f5761010080835404028352916020019161219a565b820191906000526020600020905b81548152906001019060200180831161217d57829003601f168201915b505050505081526020016002820180546121b390614ce5565b80601f01602080910402602001604051908101604052809291908181526020018280546121df90614ce5565b801561222c5780601f106122015761010080835404028352916020019161222c565b820191906000526020600020905b81548152906001019060200180831161220f57829003601f168201915b50505091835250506003919091015460ff161515602091820152908252600192909201910161205c565b61225e613e5d565b6001600160a01b03821660009081526011602052604081205460108054909190811061229a57634e487b7160e01b600052603260045260246000fd5b90600052602060002090600a0201604051806101600160405290816000820180546122c490614ce5565b80601f01602080910402602001604051908101604052809291908181526020018280546122f090614ce5565b801561233d5780601f106123125761010080835404028352916020019161233d565b820191906000526020600020905b81548152906001019060200180831161232057829003601f168201915b5050505050815260200160018201805461235690614ce5565b80601f016020809104026020016040519081016040528092919081815260200182805461238290614ce5565b80156123cf5780601f106123a4576101008083540402835291602001916123cf565b820191906000526020600020905b8154815290600101906020018083116123b257829003601f168201915b505050505081526020016002820180546123e890614ce5565b80601f016020809104026020016040519081016040528092919081815260200182805461241490614ce5565b80156124615780601f1061243657610100808354040283529160200191612461565b820191906000526020600020905b81548152906001019060200180831161244457829003601f168201915b5050505050815260200160038201805461247a90614ce5565b80601f01602080910402602001604051908101604052809291908181526020018280546124a690614ce5565b80156124f35780601f106124c8576101008083540402835291602001916124f3565b820191906000526020600020905b8154815290600101906020018083116124d657829003601f168201915b5050505050815260200160048201805461250c90614ce5565b80601f016020809104026020016040519081016040528092919081815260200182805461253890614ce5565b80156125855780601f1061255a57610100808354040283529160200191612585565b820191906000526020600020905b81548152906001019060200180831161256857829003601f168201915b5050505050815260200160058201805461259e90614ce5565b80601f01602080910402602001604051908101604052809291908181526020018280546125ca90614ce5565b80156126175780601f106125ec57610100808354040283529160200191612617565b820191906000526020600020905b8154815290600101906020018083116125fa57829003601f168201915b5050505050815260200160068201805461263090614ce5565b80601f016020809104026020016040519081016040528092919081815260200182805461265c90614ce5565b80156126a95780601f1061267e576101008083540402835291602001916126a9565b820191906000526020600020905b81548152906001019060200180831161268c57829003601f168201915b505050505081526020016007820180546126c290614ce5565b80601f01602080910402602001604051908101604052809291908181526020018280546126ee90614ce5565b801561273b5780601f106127105761010080835404028352916020019161273b565b820191906000526020600020905b81548152906001019060200180831161271e57829003601f168201915b5050509183525050600882015460ff80821615156020840152610100909104161515604082015260099091015460609091015260006101408201529392505050565b6009546001600160a01b03163314806127ad5750336000908152600e602052604090206003015460ff1615156001145b6127b657600080fd5b6000600d82815481106127d957634e487b7160e01b600052603260045260246000fd5b6000918252602080832060036004909302018201805494151560ff19958616179055938252600f84526040808320546001600160a01b03168352600e90945292902090910180549091169055565b6009546001600160a01b0316331461283e57600080fd5b336000908152600a60209081526040909120855161285e92870190613d5e565b50336000908152600a60209081526040909120845161288592600190920191860190613d5e565b50336000908152600a6020908152604090912083516128ac92600290920191850190613d5e565b50336000908152600a6020908152604090912082516128d392600390920191840190613d5e565b5050505050565b606060006013546001600160401b0381111561290657634e487b7160e01b600052604160045260246000fd5b60405190808252806020026020018201604052801561293f57816020015b61292c613e5d565b8152602001906001900390816129245790505b5090506000805b601054811015612ed0576010818154811061297157634e487b7160e01b600052603260045260246000fd5b600091825260209091206008600a90920201015460ff1615612ebe57601081815481106129ae57634e487b7160e01b600052603260045260246000fd5b90600052602060002090600a0201604051806101600160405290816000820180546129d890614ce5565b80601f0160208091040260200160405190810160405280929190818152602001828054612a0490614ce5565b8015612a515780601f10612a2657610100808354040283529160200191612a51565b820191906000526020600020905b815481529060010190602001808311612a3457829003601f168201915b50505050508152602001600182018054612a6a90614ce5565b80601f0160208091040260200160405190810160405280929190818152602001828054612a9690614ce5565b8015612ae35780601f10612ab857610100808354040283529160200191612ae3565b820191906000526020600020905b815481529060010190602001808311612ac657829003601f168201915b50505050508152602001600282018054612afc90614ce5565b80601f0160208091040260200160405190810160405280929190818152602001828054612b2890614ce5565b8015612b755780601f10612b4a57610100808354040283529160200191612b75565b820191906000526020600020905b815481529060010190602001808311612b5857829003601f168201915b50505050508152602001600382018054612b8e90614ce5565b80601f0160208091040260200160405190810160405280929190818152602001828054612bba90614ce5565b8015612c075780601f10612bdc57610100808354040283529160200191612c07565b820191906000526020600020905b815481529060010190602001808311612bea57829003601f168201915b50505050508152602001600482018054612c2090614ce5565b80601f0160208091040260200160405190810160405280929190818152602001828054612c4c90614ce5565b8015612c995780601f10612c6e57610100808354040283529160200191612c99565b820191906000526020600020905b815481529060010190602001808311612c7c57829003601f168201915b50505050508152602001600582018054612cb290614ce5565b80601f0160208091040260200160405190810160405280929190818152602001828054612cde90614ce5565b8015612d2b5780601f10612d0057610100808354040283529160200191612d2b565b820191906000526020600020905b815481529060010190602001808311612d0e57829003601f168201915b50505050508152602001600682018054612d4490614ce5565b80601f0160208091040260200160405190810160405280929190818152602001828054612d7090614ce5565b8015612dbd5780601f10612d9257610100808354040283529160200191612dbd565b820191906000526020600020905b815481529060010190602001808311612da057829003601f168201915b50505050508152602001600782018054612dd690614ce5565b80601f0160208091040260200160405190810160405280929190818152602001828054612e0290614ce5565b8015612e4f5780601f10612e2457610100808354040283529160200191612e4f565b820191906000526020600020905b815481529060010190602001808311612e3257829003601f168201915b5050509183525050600882015460ff8082161515602084015261010090910416151560408201526009909101546060909101528351849084908110612ea457634e487b7160e01b600052603260045260246000fd5b60200260200101819052508180612eba90614d20565b9250505b80612ec881614d20565b915050612946565b509091505090565b6040805160008082526020808301808552835190203380845260089092529184902090939192612f0892016149b7565b6040516020818303038152906040528051906020012014612f2857600080fd5b6010601284604051612f3a9190614974565b90815260200160405180910390205481548110612f6757634e487b7160e01b600052603260045260246000fd5b90600052602060002090600a0201600901548214612f8457600080fd5b601283604051612f949190614974565b90815260408051918290036020908101832054336000908152601190925291902055600190601090601290612fca908790614974565b90815260200160405180910390205481548110612ff757634e487b7160e01b600052603260045260246000fd5b600091825260208083206008600a9390930201820180549415156101000261ff00199095169490941790935533825290915260409020600480549091908190839061304190614ce5565b61304c929190613de2565b50600182018160010190805461306190614ce5565b61306c929190613de2565b505050505050565b6130a160405180608001604052806060815260200160608152602001606081526020016000151581525090565b6001600160a01b0382166000908152600e6020526040908190208151608081019092528054829082906130d390614ce5565b80601f01602080910402602001604051908101604052809291908181526020018280546130ff90614ce5565b801561314c5780601f106131215761010080835404028352916020019161314c565b820191906000526020600020905b81548152906001019060200180831161312f57829003601f168201915b5050505050815260200160018201805461316590614ce5565b80601f016020809104026020016040519081016040528092919081815260200182805461319190614ce5565b80156131de5780601f106131b3576101008083540402835291602001916131de565b820191906000526020600020905b8154815290600101906020018083116131c157829003601f168201915b505050505081526020016002820180546131f790614ce5565b80601f016020809104026020016040519081016040528092919081815260200182805461322390614ce5565b80156132705780601f1061324557610100808354040283529160200191613270565b820191906000526020600020905b81548152906001019060200180831161325357829003601f168201915b50505091835250506003919091015460ff16151560209091015292915050565b336000908152601160205260409020546010805490919081106132c357634e487b7160e01b600052603260045260246000fd5b600091825260209091206008600a90920201015460ff6101009091041615156001146132ee57600080fd5b3360009081526011602052604090205460108054849290811061332157634e487b7160e01b600052603260045260246000fd5b90600052602060002090600a02016002019080519060200190613345929190613d5e565b503360009081526011602052604090205460108054839290811061337957634e487b7160e01b600052603260045260246000fd5b90600052602060002090600a0201600401908051906020019061339d929190613d5e565b505050565b6133cd6040518060800160405280606081526020016060815260200160608152602001606081525090565b6009546001600160a01b03166000908152600a602052604080822081516080810190925280548290829061340090614ce5565b80601f016020809104026020016040519081016040528092919081815260200182805461342c90614ce5565b80156134795780601f1061344e57610100808354040283529160200191613479565b820191906000526020600020905b81548152906001019060200180831161345c57829003601f168201915b5050505050815260200160018201805461349290614ce5565b80601f01602080910402602001604051908101604052809291908181526020018280546134be90614ce5565b801561350b5780601f106134e05761010080835404028352916020019161350b565b820191906000526020600020905b8154815290600101906020018083116134ee57829003601f168201915b5050505050815260200160028201805461352490614ce5565b80601f016020809104026020016040519081016040528092919081815260200182805461355090614ce5565b801561359d5780601f106135725761010080835404028352916020019161359d565b820191906000526020600020905b81548152906001019060200180831161358057829003601f168201915b505050505081526020016003820180546135b690614ce5565b80601f01602080910402602001604051908101604052809291908181526020018280546135e290614ce5565b801561362f5780601f106136045761010080835404028352916020019161362f565b820191906000526020600020905b81548152906001019060200180831161361257829003601f168201915b505050919092525091935050505090565b61366d60405180608001604052806060815260200160608152602001606081526020016000151581525090565b6000828152601660209081526040808320546001600160a01b0316835260159091528082208151608081019092528054829082906136aa90614ce5565b80601f01602080910402602001604051908101604052809291908181526020018280546136d690614ce5565b80156137235780601f106136f857610100808354040283529160200191613723565b820191906000526020600020905b81548152906001019060200180831161370657829003601f168201915b5050505050815260200160018201805461373c90614ce5565b80601f016020809104026020016040519081016040528092919081815260200182805461376890614ce5565b80156137b55780601f1061378a576101008083540402835291602001916137b5565b820191906000526020600020905b81548152906001019060200180831161379857829003601f168201915b505050505081526020016002820180546137ce90614ce5565b80601f01602080910402602001604051908101604052809291908181526020018280546137fa90614ce5565b80156138475780601f1061381c57610100808354040283529160200191613847565b820191906000526020600020905b81548152906001019060200180831161382a57829003601f168201915b50505091835250506003919091015460ff1615156020909101529392505050565b613870613e5d565b600060106012846040516138849190614974565b9081526020016040518091039020548154811061229a57634e487b7160e01b600052603260045260246000fd5b6009546001600160a01b031633146138c857600080fd5b6040805160008082526020808301808552835190206001600160a01b038a1683526008909152908390208893919261390092016149b7565b604051602081830303815290604052805190602001201461392057600080fd5b604080516080810182528681526020808201879052818301869052606082018590526001600160a01b0389166000908152600a825292909220815180519293849361396e9284920190613d5e565b5060208281015180516139879260018501920190613d5e565b50604082015180516139a3916002840191602090910190613d5e565b50606082015180516139bf916003840191602090910190613d5e565b5050506001600160a01b03871660009081526008602052604081208154819083906139e990614ce5565b6139f4929190613de2565b506001820181600101908054613a0990614ce5565b613a14929190613de2565b5050600980546001600160a01b0319166001600160a01b03999099169890981790975550505050505050565b613a6d60405180608001604052806060815260200160608152602001606081526020016000151581525090565b6001600160a01b0382166000908152601560205260408082208151608081019092528054829082906136aa90614ce5565b6040805160008082526020808301808552835190203380845260089092529184902090939192613ace92016149b7565b6040516020818303038152906040528051906020012014613aee57600080fd5b6040805160808101825284815260208082018590528251808201845260008082529383015260608201839052601480546001810182559352815180519293849360049091027fce6d7b5282bd9a3661ae061feed1dbda4e52ab073b1f9285be6e155d9c38d4ec0192613b64928492910190613d5e565b506020828101518051613b7d9260018501920190613d5e565b5060408201518051613b99916002840191602090910190613d5e565b50606091909101516003909101805460ff19169115159190911790556014543390601690600090613bcc90600190614c8b565b81526020808201929092526040908101600090812080546001600160a01b0319166001600160a01b03959095169490941790935533835260158252909120825180518493613c1e928492910190613d5e565b506020828101518051613c379260018501920190613d5e565b5060408201518051613c53916002840191602090910190613d5e565b50606091909101516003909101805460ff19169115159190911790553360009081526008602052604090206006805490919081908390613c9290614ce5565b613c9d929190613de2565b506001820181600101908054613cb290614ce5565b613cbd929190613de2565b50505050505050565b336000908152600e602052604090206003015460ff161515600114613cea57600080fd5b600160148281548110613d0d57634e487b7160e01b600052603260045260246000fd5b6000918252602080832060036004909302018201805494151560ff19958616179055938252601684526040808320546001600160a01b03168352601590945292902090910180549091166001179055565b828054613d6a90614ce5565b90600052602060002090601f016020900481019282613d8c5760008555613dd2565b82601f10613da557805160ff1916838001178555613dd2565b82800160010185558215613dd2579182015b82811115613dd2578251825591602001919060010190613db7565b50613dde929150613ebb565b5090565b828054613dee90614ce5565b90600052602060002090601f016020900481019282613e105760008555613dd2565b82601f10613e215780548555613dd2565b82800160010185558215613dd257600052602060002091601f016020900482015b82811115613dd2578254825591600101919060010190613e42565b6040518061016001604052806060815260200160608152602001606081526020016060815260200160608152602001606081526020016060815260200160608152602001600015158152602001600015158152602001600081525090565b5b80821115613dde5760008155600101613ebc565b80356001600160a01b03811681146112ef57600080fd5b803580151581146112ef57600080fd5b600082601f830112613f07578081fd5b81356001600160401b03811115613f2057613f20614d51565b613f33601f8201601f1916602001614c5b565b818152846020838601011115613f47578283fd5b816020850160208301379081016020019190915292915050565b600060208284031215613f72578081fd5b613f7b82613ed0565b9392505050565b60008060008060808587031215613f97578283fd5b613fa085613ed0565b935060208501356001600160401b0380821115613fbb578485fd5b613fc788838901613ef7565b94506040870135915080821115613fdc578384fd5b613fe888838901613ef7565b93506060870135915080821115613ffd578283fd5b5061400a87828801613ef7565b91505092959194509250565b600080600080600060a0868803121561402d578081fd5b61403686613ed0565b945060208601356001600160401b0380821115614051578283fd5b61405d89838a01613ef7565b95506040880135915080821115614072578283fd5b61407e89838a01613ef7565b94506060880135915080821115614093578283fd5b61409f89838a01613ef7565b935060808801359150808211156140b4578283fd5b506140c188828901613ef7565b9150509295509295909350565b600060208083850312156140e0578182fd5b82356001600160401b03808211156140f6578384fd5b818501915085601f830112614109578384fd5b81358181111561411b5761411b614d51565b614129848260051b01614c5b565b81815284810190848601875b848110156142c4578135870161016080601f19838f03011215614156578a8bfd5b61415f81614c5b565b8a8301358981111561416f578c8dfd5b61417d8f8d83870101613ef7565b825250604083013589811115614191578c8dfd5b61419f8f8d83870101613ef7565b8c830152506060830135898111156141b5578c8dfd5b6141c38f8d83870101613ef7565b6040830152506080830135898111156141da578c8dfd5b6141e88f8d83870101613ef7565b60608301525060a0830135898111156141ff578c8dfd5b61420d8f8d83870101613ef7565b60808301525060c083013589811115614224578c8dfd5b6142328f8d83870101613ef7565b60a08301525060e083013589811115614249578c8dfd5b6142578f8d83870101613ef7565b60c0830152506101008301358981111561426f578c8dfd5b61427d8f8d83870101613ef7565b60e0830152506142906101208401613ee7565b6101008201526142a36101408401613ee7565b61012082015291013561014082015284529287019290870190600101614135565b50909998505050505050505050565b6000602082840312156142e4578081fd5b81356001600160401b038111156142f9578182fd5b61430584828501613ef7565b949350505050565b6000806040838503121561431f578182fd5b82356001600160401b0380821115614335578384fd5b61434186838701613ef7565b93506020850135915080821115614356578283fd5b5061436385828601613ef7565b9150509250929050565b600080600060608486031215614381578283fd5b83356001600160401b0380821115614397578485fd5b6143a387838801613ef7565b945060208601359150808211156143b8578384fd5b6143c487838801613ef7565b935060408601359150808211156143d9578283fd5b506143e686828701613ef7565b9150509250925092565b60008060008060808587031215614405578384fd5b84356001600160401b038082111561441b578586fd5b61442788838901613ef7565b95506020870135915080821115613fbb578485fd5b60008060008060008060008060006101208a8c03121561445a578384fd5b89356001600160401b0380821115614470578586fd5b61447c8d838e01613ef7565b9a5060208c0135915080821115614491578586fd5b61449d8d838e01613ef7565b995060408c01359150808211156144b2578586fd5b6144be8d838e01613ef7565b985060608c01359150808211156144d3578586fd5b6144df8d838e01613ef7565b975060808c01359150808211156144f4578586fd5b6145008d838e01613ef7565b965060a08c0135915080821115614515578586fd5b6145218d838e01613ef7565b955060c08c0135915080821115614536578485fd5b6145428d838e01613ef7565b945060e08c0135915080821115614557578384fd5b506145648c828d01613ef7565b9250506145746101008b01613ee7565b90509295985092959850929598565b6000806000806000806000806000806101408b8d0312156145a2578384fd5b8a356001600160401b03808211156145b8578586fd5b6145c48e838f01613ef7565b9b5060208d01359150808211156145d9578586fd5b6145e58e838f01613ef7565b9a5060408d01359150808211156145fa578586fd5b6146068e838f01613ef7565b995060608d013591508082111561461b578586fd5b6146278e838f01613ef7565b985060808d013591508082111561463c578586fd5b6146488e838f01613ef7565b975060a08d013591508082111561465d578586fd5b6146698e838f01613ef7565b965060c08d013591508082111561467e578586fd5b61468a8e838f01613ef7565b955060e08d013591508082111561469f578283fd5b6146ab8e838f01613ef7565b94506101008d01359150808211156146c1578283fd5b506146ce8d828e01613ef7565b9250506146de6101208c01613ee7565b90509295989b9194979a5092959850565b60008060408385031215614701578182fd5b82356001600160401b03811115614716578283fd5b61472285828601613ef7565b95602094909401359450505050565b600060208284031215614742578081fd5b5035919050565b60008151808452614761816020860160208601614ca2565b601f01601f19169290920160200192915050565b600081516080845261478a6080850182614749565b9050602083015184820360208601526147a38282614749565b915050604083015184820360408601526147bd8282614749565b9150506060830151151560608501528091505092915050565b60008151604084526147eb6040850182614749565b9050602083015184820360208601526148048282614749565b95945050505050565b60008151608084526148226080850182614749565b90506020830151848203602086015261483b8282614749565b915050604083015184820360408601526148558282614749565b915050606083015184820360608601526148048282614749565b6000610160825181855261488582860182614749565b9150506020830151848203602086015261489f8282614749565b915050604083015184820360408601526148b98282614749565b915050606083015184820360608601526148d38282614749565b915050608083015184820360808601526148ed8282614749565b91505060a083015184820360a08601526149078282614749565b91505060c083015184820360c08601526149218282614749565b91505060e083015184820360e086015261493b8282614749565b915050610100808401516149528287018215159052565b5050610120838101511515908501526101409283015192909301919091525090565b60008251614986818460208701614ca2565b9190910192915050565b600084516149a2818460208901614ca2565b91909101928352506020820152604001919050565b600080835482600182811c9150808316806149d357607f831692505b60208084108214156149f357634e487b7160e01b87526022600452602487fd5b818015614a075760018114614a1857614a44565b60ff19861689528489019650614a44565b60008a815260209020885b86811015614a3c5781548b820152908501908301614a23565b505084890196505b509498975050505050505050565b600067029ba3ab232b73a160c51b82528251614a75816008850160208701614ca2565b6e20616c72656164792065786973747360881b6008939091019283015250601701919050565b6000602080830181845280855180835260408601915060408160051b8701019250838701855b82811015614aef57603f19888603018452614add858351614775565b94509285019290850190600101614ac1565b5092979650505050505050565b6000602080830181845280855180835260408601915060408160051b8701019250838701855b82811015614aef57603f19888603018452614b3e858351614775565b94509285019290850190600101614b22565b6000602080830181845280855180835260408601915060408160051b8701019250838701855b82811015614aef57603f19888603018452614b9285835161486f565b94509285019290850190600101614b76565b600060208252613f7b6020830184614749565b600060208252613f7b6020830184614775565b600060208252613f7b60208301846147d6565b600060208252613f7b602083018461480d565b600060808252614c03608083018761480d565b8281036020840152614c158187614775565b90508281036040840152614c29818661486f565b90508281036060840152614c3d8185614775565b979650505050505050565b600060208252613f7b602083018461486f565b604051601f8201601f191681016001600160401b0381118282101715614c8357614c83614d51565b604052919050565b600082821015614c9d57614c9d614d3b565b500390565b60005b83811015614cbd578181015183820152602001614ca5565b838111156119c35750506000910152565b600081614cdd57614cdd614d3b565b506000190190565b600181811c90821680614cf957607f821691505b60208210811415614d1a57634e487b7160e01b600052602260045260246000fd5b50919050565b6000600019821415614d3457614d34614d3b565b5060010190565b634e487b7160e01b600052601160045260246000fd5b634e487b7160e01b600052604160045260246000fdfea26469706673582212206393a716d9d9344839a51933b1830f296c484b95689fa6c73f454694c95830ca64736f6c63430008030033453320313434205875616e2054687579202d204361752047696179202d204861204e6f69207468616d206d7575206769757020766965632048696575207472756f6e672074687563206869656e20636f6e6720746163207665207861792064756e672c207175616e206c7920636163206368756f6e67207472696e682064616f2074616f",
  "immutableReferences": {},
  "source": "// SPDX-License-Identifier: MIT\npragma solidity >=0.7.0 <0.9.0;\n\nimport \"./SetGrade.sol\";\nimport \"./Model.sol\";\n\ncontract User {\n    constructor() {\n        setRole();\n        setRector();\n        setAADepartmentAcc();\n        Model.student memory student0 = Model.student(\"0\",\"\", \"\" , \"\", \"\", \"\", \"\", \"\", false, false, 0);\n        studentList.push(student0);\n    }\n\n    Model.role[4] roleList;\n    mapping(address => Model.role) userRole;\n\n    function getCurrentUserRole() public view returns (Model.role memory) {\n        return userRole[msg.sender];\n    }\n\n    function getCurrentUserRoleByAddr(address _addr)\n        public\n        view\n        returns (Model.role memory)\n    {\n        Model.role memory roleTemp = userRole[_addr];\n        return roleTemp;\n    }\n\n    function getCurrentUser()\n        public\n        view\n        returns (\n            Model.rector memory,\n            Model.AADUser memory,\n            Model.student memory,\n            Model.company memory\n        )\n    {\n        if (\n            keccak256(abi.encodePacked(userRole[msg.sender].id)) ==\n            keccak256(abi.encodePacked(\"0\"))\n        ) {\n            return (\n                rectorDetail[msg.sender],\n                getAADepartmentUser(msg.sender),\n                getStudentByAddr(msg.sender),\n                getCompanyByAddress(msg.sender)\n            );\n        } else if (\n            keccak256(abi.encodePacked(userRole[msg.sender].id)) ==\n            keccak256(abi.encodePacked(\"1\"))\n        ) {\n            return (\n                rectorDetail[msg.sender],\n                getAADepartmentUser(msg.sender),\n                getStudentByAddr(msg.sender),\n                getCompanyByAddress(msg.sender)\n            );\n        } else if (\n            keccak256(abi.encodePacked(userRole[msg.sender].id)) ==\n            keccak256(abi.encodePacked(\"2\"))\n        ) {\n            return (\n                rectorDetail[msg.sender],\n                getAADepartmentUser(msg.sender),\n                getStudentByAddr(msg.sender),\n                getCompanyByAddress(msg.sender)\n            );\n        } else if (\n            keccak256(abi.encodePacked(userRole[msg.sender].id)) ==\n            keccak256(abi.encodePacked(\"3\"))\n        ) {\n            return (\n                rectorDetail[msg.sender],\n                getAADepartmentUser(msg.sender),\n                getStudentByAddr(msg.sender),\n                getCompanyByAddress(msg.sender)\n            );\n        }\n    }\n\n    // modifier onlyUser(address _address) {\n    //     require(msg.sender == _address || msg.sender == currentRectorAddress);\n    //     _;\n    // }\n\n    modifier onlyNoRole(address _address) {\n        require(\n            keccak256(abi.encodePacked(userRole[_address].id)) ==\n                keccak256(abi.encodePacked(\"\"))\n        );\n        _;\n    }\n\n    function setRole() private {\n        roleList[0] = (Model.role(\"0\", \"rector\"));\n        roleList[1] = (Model.role(\"1\", \"AADepartment\"));\n        roleList[2] = (Model.role(\"2\", \"student\"));\n        roleList[3] = (Model.role(\"3\", \"company\"));\n    }\n\n    address public currentRectorAddress;\n\n    mapping(address => Model.rector) rectorDetail;\n\n    modifier onlyCurrentRector() {\n        require(msg.sender == currentRectorAddress);\n        _;\n    }\n\n    function setRector() private {\n        Model.rector memory rectorTemp;\n        rectorTemp.name = \"PGS TS Nguyen Viet Ha\";\n        rectorTemp.date = \"1974\";\n        rectorTemp.phone = \"0989152252\";\n        rectorTemp.term = \"from 2014\";\n        rectorDetail[msg.sender] = rectorTemp;\n        userRole[msg.sender] = roleList[0];\n\n        currentRectorAddress = msg.sender;\n    }\n\n    function getCurrentRector() public view returns (Model.rector memory) {\n        Model.rector memory currentRector = rectorDetail[currentRectorAddress];\n        return currentRector;\n    }\n\n    function createNewRector(\n        address _newRectorAddr,\n        string memory _name,\n        string memory _date,\n        string memory _phone,\n        string memory _term\n    ) public onlyCurrentRector onlyNoRole(_newRectorAddr) {\n        Model.rector memory newRector =\n            Model.rector(_name, _date, _phone, _term);\n\n        rectorDetail[_newRectorAddr] = newRector;\n        userRole[_newRectorAddr] = roleList[0];\n\n        currentRectorAddress = _newRectorAddr;\n    }\n\n    function updateCurrentRector(\n        string memory _name,\n        string memory _date,\n        string memory _phone,\n        string memory _term\n    ) public onlyCurrentRector {\n        rectorDetail[msg.sender].name = _name;\n        rectorDetail[msg.sender].date = _date;\n        rectorDetail[msg.sender].phone = _phone;\n        rectorDetail[msg.sender].term = _term;\n    }\n\n    Model.AADepartment AADepartmentAcc;\n\n    Model.AADUser[] AADUserList;\n    mapping(address => Model.AADUser) AADUsers;\n    mapping(uint256 => address) ADDUserIdToAddr;\n\n    modifier onlyAADepartmentUser() {\n        require(AADUsers[msg.sender].isActive == true);\n        _;\n    }\n\n    modifier onlyRectorOrAAD() {\n        require(\n            msg.sender == currentRectorAddress ||\n                AADUsers[msg.sender].isActive == true\n        );\n        _;\n    }\n\n    function setAADepartmentAcc() private {\n        AADepartmentAcc.realAddress = \"E3 144 Xuan Thuy - Cau Giay - Ha Noi\";\n        AADepartmentAcc\n            .description = \" tham muu giup viec Hieu truong thuc hien cong tac ve xay dung, quan ly cac chuong trinh dao tao\";\n    }\n\n    function getAADepartmentAcc()\n        public\n        view\n        returns (Model.AADepartment memory)\n    {\n        return AADepartmentAcc;\n    }\n\n    function createAADepartmentUser(\n        address _address,\n        string memory _name,\n        string memory _date,\n        string memory _phone\n    ) public onlyRectorOrAAD onlyNoRole(_address) {\n        Model.AADUser memory temp = Model.AADUser(_name, _date, _phone, true);\n        AADUserList.push(temp);\n        ADDUserIdToAddr[AADUserList.length - 1] = _address;\n        AADUsers[_address] = temp;\n\n        userRole[_address] = roleList[1];\n    }\n\n    function updateAADepartmentUser(\n        string memory _name,\n        string memory _date,\n        string memory _phone\n    ) public {\n        require(AADUsers[msg.sender].isActive == true);\n        AADUsers[msg.sender].name = _name;\n        AADUsers[msg.sender].date = _date;\n        AADUsers[msg.sender].phone = _phone;\n    }\n\n    function deactiveAADepartmentUser(uint256 _AADUserId)\n        public\n        onlyRectorOrAAD\n    {\n        AADUserList[_AADUserId].isActive = false;\n        AADUsers[ADDUserIdToAddr[_AADUserId]].isActive = false;\n    }\n\n    function getAADepartmentUser(address _userAddress)\n        public\n        view\n        returns (Model.AADUser memory)\n    {\n        return AADUsers[_userAddress];\n    }\n\n    function getAllAADepartmentUsers()\n        public\n        view\n        returns (Model.AADUser[] memory)\n    {\n        return AADUserList;\n    }\n\n    Model.student[] studentList;\n    mapping(address => uint256) addressToStudent;\n    mapping(string => uint256) idToStudent;\n\n    uint256 qualifiedStudentNumber;\n\n    modifier onlyStudent() {\n        require(studentList[addressToStudent[msg.sender]].isActive == true);\n        _;\n    }\n\n    function createStudent(\n        string memory _id,\n        string memory _name,\n        string memory _email,\n        string memory _date,\n        string memory _phone,\n        string memory _class,\n        string memory _major,\n        string memory _cpa,\n        bool _qualifiedForGraduation\n    ) public onlyAADepartmentUser {\n        require(\n            keccak256(abi.encodePacked(studentList[idToStudent[_id]].id)) !=\n                keccak256(abi.encodePacked(_id)),\n            string(abi.encodePacked(\"Student \", _id, \" already exists\"))\n        );\n        Model.student memory studentTemp =\n            Model.student(\n                _id,\n                _name,\n                _email,\n                _date,\n                _phone,\n                _class,\n                _major,\n                _cpa,\n                _qualifiedForGraduation,\n                false,\n                uint256(\n                    keccak256(\n                        abi.encodePacked(_id, block.timestamp, block.difficulty)\n                    )\n                )\n            );\n        studentList.push(studentTemp);\n        idToStudent[_id] = studentList.length - 1;\n        if (studentList[studentList.length - 1].qualifiedForGraduation) {\n            qualifiedStudentNumber++;\n        }\n    }\n\n    function importStudent(Model.student[] memory students)\n        public\n        onlyAADepartmentUser\n    {\n        for (uint256 i = 0; i < students.length; i++) {\n            createStudent(\n                students[i].id,\n                students[i].name,\n                students[i].email,\n                students[i].date,\n                students[i].phone,\n                students[i].class,\n                students[i].major,\n                students[i].cpa,\n                students[i].qualifiedForGraduation\n            );\n        }\n    }\n\n    function activeStudent(string memory _id, uint256 _nonce)\n        public\n        onlyNoRole(msg.sender)\n    {\n        require(_nonce == studentList[idToStudent[_id]].nonce);\n        addressToStudent[msg.sender] = idToStudent[_id];\n        studentList[idToStudent[_id]].isActive = true;\n        userRole[msg.sender] = roleList[2];\n    }\n\n    function getAllStudent()\n        public\n        view\n        onlyRectorOrAAD\n        returns (Model.student[] memory)\n    {\n        return studentList;\n    }\n\n    function getStudentById(string memory _id)\n        public\n        view\n        returns (Model.student memory)\n    {\n        Model.student memory studentTemp = studentList[idToStudent[_id]];\n        studentTemp.nonce = 0;\n        return studentTemp;\n    }\n\n    function getStudentByAddr(address _studentAddr)\n        public\n        view\n        returns (Model.student memory)\n    {\n        Model.student memory studentTemp =\n            studentList[addressToStudent[_studentAddr]];\n        studentTemp.nonce = 0;\n        return studentTemp;\n    }\n\n    function getStudentNonce(string memory _id)\n        public\n        view\n        onlyRectorOrAAD\n        returns (uint256)\n    {\n        return studentList[idToStudent[_id]].nonce;\n    }\n\n    function updateStudentbyAAD(\n        string memory _currentId,\n        string memory _id,\n        string memory _name,\n        string memory _email,\n        string memory _date,\n        string memory _phone,\n        string memory _class,\n        string memory _major,\n        string memory _cpa,\n        bool _qualifiedForGraduation\n    ) public onlyRectorOrAAD {\n        Model.student storage temp = studentList[idToStudent[_currentId]];\n        if (\n            keccak256(abi.encodePacked(_currentId)) !=\n            keccak256(abi.encodePacked(_id))\n        ) {\n            require(\n                keccak256(abi.encodePacked(studentList[idToStudent[_id]].id)) !=\n                    keccak256(abi.encodePacked(_id)),\n                string(abi.encodePacked(\"Student \", _id, \" already exists\"))\n            );\n            idToStudent[_id] = idToStudent[_currentId];\n            idToStudent[_currentId] = idToStudent[\"0\"];\n            temp.id = _id;\n        }\n        temp.name = _name;\n        temp.email = _email;\n        temp.date = _date;\n        temp.phone = _phone;\n        temp.class = _class;\n        temp.major = _major;\n        temp.cpa = _cpa;\n        if (temp.qualifiedForGraduation && !_qualifiedForGraduation) {\n            qualifiedStudentNumber--;\n        }\n        if (!temp.qualifiedForGraduation && _qualifiedForGraduation) {\n            qualifiedStudentNumber++;\n        }\n        temp.qualifiedForGraduation = _qualifiedForGraduation;\n    }\n\n    function updateStudentInfo(string memory _email, string memory _phone)\n        public\n    {\n        require(studentList[addressToStudent[msg.sender]].isActive == true);\n        studentList[addressToStudent[msg.sender]].email = _email;\n        studentList[addressToStudent[msg.sender]].phone = _phone;\n    }\n\n    function getQualifiedStudents()\n        public\n        view\n        returns (Model.student[] memory)\n    {\n        Model.student[] memory qualifiedStudent =\n            new Model.student[](qualifiedStudentNumber);\n        uint256 count = 0;\n        for (uint256 i = 0; i < studentList.length; i++) {\n            if (studentList[i].qualifiedForGraduation) {\n                qualifiedStudent[count] = studentList[i];\n                count++;\n            }\n        }\n        return qualifiedStudent;\n    }\n\n    Model.company[] companyList;\n    mapping(address => Model.company) companyDetails;\n    mapping(uint256 => address) companyIdToAddr;\n\n    function createCompany(string memory _name, string memory _description)\n        public\n        onlyNoRole(msg.sender)\n    {\n        Model.company memory companyTemp =\n            Model.company(_name, _description, \"\", false);\n\n        companyList.push(companyTemp);\n        companyIdToAddr[companyList.length - 1] = msg.sender;\n        companyDetails[msg.sender] = companyTemp;\n        userRole[msg.sender] = roleList[3];\n    }\n\n    function approveCompany(uint256 _companyId) public onlyAADepartmentUser {\n        companyList[_companyId].isActive = true;\n        companyDetails[companyIdToAddr[_companyId]].isActive = true;\n    }\n\n    function updateCompany(\n        string memory _name,\n        string memory _description,\n        string memory _jobInfo\n    ) public {\n        companyDetails[msg.sender].name = _name;\n        companyDetails[msg.sender].description = _description;\n        companyDetails[msg.sender].jobInfo = _jobInfo;\n    }\n\n    function getCompanyByAddress(address _companyAddr)\n        public\n        view\n        returns (Model.company memory)\n    {\n        Model.company memory companyTemp = companyDetails[_companyAddr];\n        return companyTemp;\n    }\n\n    function getCompanybyId(uint256 _companyId)\n        public\n        view\n        returns (Model.company memory)\n    {\n        Model.company memory companyTemp =\n            companyDetails[companyIdToAddr[_companyId]];\n        return companyTemp;\n    }\n\n    function getAllCompany() public view returns (Model.company[] memory) {\n        return companyList;\n    }\n}\n",
  "sourcePath": "/Users/hughdo/Desktop/Proj/CertVerificationSystem/contracts/User.sol",
  "compiler": {
    "name": "solc",
    "version": "0.8.3+commit.8d00100c.Emscripten.clang"
  },
  "schemaVersion": "3.3.4",
  "updatedAt": "2021-04-22T04:05:26.625Z",
  "networkType": "ethereum",
  "devdoc": {
    "kind": "dev",
    "methods": {},
    "version": 1
  },
  "userdoc": {
    "kind": "user",
    "methods": {},
    "version": 1
  }
}